{
  "_format": "hh-sol-artifact-1",
  "contractName": "TrustlessTeamProtocol",
  "sourceName": "contracts/User/TrustlessTeamProtocol.sol",
  "abi": [
    {
      "inputs": [
        {
          "internalType": "address",
          "name": "target",
          "type": "address"
        }
      ],
      "name": "AddressEmptyCode",
      "type": "error"
    },
    {
      "inputs": [],
      "name": "AlreadyRequestedJoin",
      "type": "error"
    },
    {
      "inputs": [],
      "name": "AlredyClaimed",
      "type": "error"
    },
    {
      "inputs": [],
      "name": "AlredyRegistered",
      "type": "error"
    },
    {
      "inputs": [],
      "name": "CancelOnlyWhenMemberAssigned",
      "type": "error"
    },
    {
      "inputs": [],
      "name": "DeadlineNotExceeded",
      "type": "error"
    },
    {
      "inputs": [
        {
          "internalType": "address",
          "name": "implementation",
          "type": "address"
        }
      ],
      "name": "ERC1967InvalidImplementation",
      "type": "error"
    },
    {
      "inputs": [],
      "name": "ERC1967NonPayable",
      "type": "error"
    },
    {
      "inputs": [],
      "name": "EnforcedPause",
      "type": "error"
    },
    {
      "inputs": [],
      "name": "ExpectedPause",
      "type": "error"
    },
    {
      "inputs": [],
      "name": "FailedCall",
      "type": "error"
    },
    {
      "inputs": [],
      "name": "InsufficientStake",
      "type": "error"
    },
    {
      "inputs": [],
      "name": "InvalidAge",
      "type": "error"
    },
    {
      "inputs": [],
      "name": "InvalidDeadline",
      "type": "error"
    },
    {
      "inputs": [],
      "name": "InvalidGithubURL",
      "type": "error"
    },
    {
      "inputs": [],
      "name": "InvalidInitialization",
      "type": "error"
    },
    {
      "inputs": [],
      "name": "InvalidMaxStakeAmount",
      "type": "error"
    },
    {
      "inputs": [],
      "name": "InvalidMemberStakePercentReward",
      "type": "error"
    },
    {
      "inputs": [],
      "name": "InvalidName",
      "type": "error"
    },
    {
      "inputs": [],
      "name": "InvalidNote",
      "type": "error"
    },
    {
      "inputs": [],
      "name": "InvalidReason",
      "type": "error"
    },
    {
      "inputs": [],
      "name": "InvalidRewardAmount",
      "type": "error"
    },
    {
      "inputs": [],
      "name": "InvalidStakeAmount",
      "type": "error"
    },
    {
      "inputs": [],
      "name": "InvalidTitle",
      "type": "error"
    },
    {
      "inputs": [],
      "name": "NoFunds",
      "type": "error"
    },
    {
      "inputs": [],
      "name": "NoSubmision",
      "type": "error"
    },
    {
      "inputs": [],
      "name": "NotCounterparty",
      "type": "error"
    },
    {
      "inputs": [],
      "name": "NotInitializing",
      "type": "error"
    },
    {
      "inputs": [],
      "name": "NotRegistered",
      "type": "error"
    },
    {
      "inputs": [],
      "name": "NotTaskCreator",
      "type": "error"
    },
    {
      "inputs": [],
      "name": "NotTaskMember",
      "type": "error"
    },
    {
      "inputs": [],
      "name": "ReentrancyGuardReentrantCall",
      "type": "error"
    },
    {
      "inputs": [],
      "name": "RewardOverflow",
      "type": "error"
    },
    {
      "inputs": [],
      "name": "StakeHitLimit",
      "type": "error"
    },
    {
      "inputs": [],
      "name": "StakeMismatch",
      "type": "error"
    },
    {
      "inputs": [],
      "name": "StakeOverflow",
      "type": "error"
    },
    {
      "inputs": [],
      "name": "TaskDoesNotExist",
      "type": "error"
    },
    {
      "inputs": [],
      "name": "TaskNotOpen",
      "type": "error"
    },
    {
      "inputs": [],
      "name": "TaskNotSubmittedYet",
      "type": "error"
    },
    {
      "inputs": [],
      "name": "TooManyRevisions",
      "type": "error"
    },
    {
      "inputs": [],
      "name": "TotalMustBe10",
      "type": "error"
    },
    {
      "inputs": [],
      "name": "UUPSUnauthorizedCallContext",
      "type": "error"
    },
    {
      "inputs": [
        {
          "internalType": "bytes32",
          "name": "slot",
          "type": "bytes32"
        }
      ],
      "name": "UUPSUnsupportedProxiableUUID",
      "type": "error"
    },
    {
      "inputs": [],
      "name": "ValueMismatch",
      "type": "error"
    },
    {
      "inputs": [],
      "name": "alredyInPending",
      "type": "error"
    },
    {
      "inputs": [],
      "name": "submissionAlreadyPending",
      "type": "error"
    },
    {
      "anonymous": false,
      "inputs": [
        {
          "indexed": false,
          "internalType": "address",
          "name": "newAccessControl",
          "type": "address"
        }
      ],
      "name": "AccessControlChanged",
      "type": "event"
    },
    {
      "anonymous": false,
      "inputs": [
        {
          "indexed": true,
          "internalType": "uint256",
          "name": "taskId",
          "type": "uint256"
        },
        {
          "indexed": true,
          "internalType": "address",
          "name": "requester",
          "type": "address"
        },
        {
          "indexed": false,
          "internalType": "string",
          "name": "reason",
          "type": "string"
        },
        {
          "indexed": false,
          "internalType": "uint256",
          "name": "cooldown",
          "type": "uint256"
        }
      ],
      "name": "CancelRequestedEvent",
      "type": "event"
    },
    {
      "anonymous": false,
      "inputs": [
        {
          "indexed": true,
          "internalType": "uint256",
          "name": "taskId",
          "type": "uint256"
        },
        {
          "indexed": false,
          "internalType": "bool",
          "name": "approved",
          "type": "bool"
        }
      ],
      "name": "CancelResponded",
      "type": "event"
    },
    {
      "anonymous": false,
      "inputs": [
        {
          "indexed": true,
          "internalType": "address",
          "name": "caller",
          "type": "address"
        }
      ],
      "name": "ContractPaused",
      "type": "event"
    },
    {
      "anonymous": false,
      "inputs": [
        {
          "indexed": true,
          "internalType": "address",
          "name": "caller",
          "type": "address"
        }
      ],
      "name": "ContractUnpaused",
      "type": "event"
    },
    {
      "anonymous": false,
      "inputs": [
        {
          "indexed": true,
          "internalType": "uint256",
          "name": "taskId",
          "type": "uint256"
        }
      ],
      "name": "DeadlineTriggered",
      "type": "event"
    },
    {
      "anonymous": false,
      "inputs": [
        {
          "indexed": false,
          "internalType": "uint256",
          "name": "amount",
          "type": "uint256"
        }
      ],
      "name": "FeeWithdrawnToSystemWallet",
      "type": "event"
    },
    {
      "anonymous": false,
      "inputs": [
        {
          "indexed": false,
          "internalType": "uint64",
          "name": "version",
          "type": "uint64"
        }
      ],
      "name": "Initialized",
      "type": "event"
    },
    {
      "anonymous": false,
      "inputs": [
        {
          "indexed": true,
          "internalType": "uint256",
          "name": "taskId",
          "type": "uint256"
        },
        {
          "indexed": true,
          "internalType": "address",
          "name": "applicant",
          "type": "address"
        }
      ],
      "name": "JoinApproved",
      "type": "event"
    },
    {
      "anonymous": false,
      "inputs": [
        {
          "indexed": true,
          "internalType": "uint256",
          "name": "taskId",
          "type": "uint256"
        },
        {
          "indexed": true,
          "internalType": "address",
          "name": "applicant",
          "type": "address"
        }
      ],
      "name": "JoinRejected",
      "type": "event"
    },
    {
      "anonymous": false,
      "inputs": [
        {
          "indexed": true,
          "internalType": "uint256",
          "name": "taskId",
          "type": "uint256"
        },
        {
          "indexed": true,
          "internalType": "address",
          "name": "applicant",
          "type": "address"
        },
        {
          "indexed": false,
          "internalType": "uint256",
          "name": "stakeAmount",
          "type": "uint256"
        }
      ],
      "name": "JoinRequested",
      "type": "event"
    },
    {
      "anonymous": false,
      "inputs": [
        {
          "indexed": true,
          "internalType": "uint256",
          "name": "taskId",
          "type": "uint256"
        },
        {
          "indexed": true,
          "internalType": "address",
          "name": "user",
          "type": "address"
        }
      ],
      "name": "JoinrequestCancelled",
      "type": "event"
    },
    {
      "anonymous": false,
      "inputs": [
        {
          "indexed": false,
          "internalType": "address",
          "name": "account",
          "type": "address"
        }
      ],
      "name": "Paused",
      "type": "event"
    },
    {
      "anonymous": false,
      "inputs": [
        {
          "indexed": true,
          "internalType": "uint256",
          "name": "taskId",
          "type": "uint256"
        }
      ],
      "name": "RegistrationClosed",
      "type": "event"
    },
    {
      "anonymous": false,
      "inputs": [
        {
          "indexed": true,
          "internalType": "uint256",
          "name": "taskId",
          "type": "uint256"
        }
      ],
      "name": "RegistrationOpened",
      "type": "event"
    },
    {
      "anonymous": false,
      "inputs": [
        {
          "indexed": true,
          "internalType": "uint256",
          "name": "taskId",
          "type": "uint256"
        },
        {
          "indexed": false,
          "internalType": "uint8",
          "name": "revisionCount",
          "type": "uint8"
        },
        {
          "indexed": false,
          "internalType": "uint256",
          "name": "newDeadline",
          "type": "uint256"
        }
      ],
      "name": "RevisionRequested",
      "type": "event"
    },
    {
      "anonymous": false,
      "inputs": [
        {
          "indexed": false,
          "internalType": "address",
          "name": "newStateVar",
          "type": "address"
        }
      ],
      "name": "StateVarChanged",
      "type": "event"
    },
    {
      "anonymous": false,
      "inputs": [
        {
          "indexed": false,
          "internalType": "address",
          "name": "newWallet",
          "type": "address"
        }
      ],
      "name": "SystemWalletChanged",
      "type": "event"
    },
    {
      "anonymous": false,
      "inputs": [
        {
          "indexed": true,
          "internalType": "uint256",
          "name": "taskId",
          "type": "uint256"
        }
      ],
      "name": "TaskActive",
      "type": "event"
    },
    {
      "anonymous": false,
      "inputs": [
        {
          "indexed": true,
          "internalType": "uint256",
          "name": "taskId",
          "type": "uint256"
        }
      ],
      "name": "TaskApproved",
      "type": "event"
    },
    {
      "anonymous": false,
      "inputs": [
        {
          "indexed": true,
          "internalType": "uint256",
          "name": "taskId",
          "type": "uint256"
        },
        {
          "indexed": true,
          "internalType": "address",
          "name": "initiator",
          "type": "address"
        }
      ],
      "name": "TaskCancelledByMe",
      "type": "event"
    },
    {
      "anonymous": false,
      "inputs": [
        {
          "indexed": false,
          "internalType": "string",
          "name": "title",
          "type": "string"
        },
        {
          "indexed": true,
          "internalType": "uint256",
          "name": "taskId",
          "type": "uint256"
        },
        {
          "indexed": true,
          "internalType": "address",
          "name": "creator",
          "type": "address"
        },
        {
          "indexed": false,
          "internalType": "uint256",
          "name": "reward",
          "type": "uint256"
        },
        {
          "indexed": false,
          "internalType": "uint256",
          "name": "creatorStake",
          "type": "uint256"
        }
      ],
      "name": "TaskCreated",
      "type": "event"
    },
    {
      "anonymous": false,
      "inputs": [
        {
          "indexed": true,
          "internalType": "uint256",
          "name": "taskId",
          "type": "uint256"
        },
        {
          "indexed": true,
          "internalType": "address",
          "name": "member",
          "type": "address"
        }
      ],
      "name": "TaskReSubmitted",
      "type": "event"
    },
    {
      "anonymous": false,
      "inputs": [
        {
          "indexed": true,
          "internalType": "uint256",
          "name": "taskId",
          "type": "uint256"
        },
        {
          "indexed": true,
          "internalType": "address",
          "name": "member",
          "type": "address"
        },
        {
          "indexed": false,
          "internalType": "string",
          "name": "githubURL",
          "type": "string"
        }
      ],
      "name": "TaskSubmitted",
      "type": "event"
    },
    {
      "anonymous": false,
      "inputs": [
        {
          "indexed": false,
          "internalType": "address",
          "name": "account",
          "type": "address"
        }
      ],
      "name": "Unpaused",
      "type": "event"
    },
    {
      "anonymous": false,
      "inputs": [
        {
          "indexed": true,
          "internalType": "address",
          "name": "implementation",
          "type": "address"
        }
      ],
      "name": "Upgraded",
      "type": "event"
    },
    {
      "anonymous": false,
      "inputs": [
        {
          "indexed": true,
          "internalType": "address",
          "name": "user",
          "type": "address"
        },
        {
          "indexed": false,
          "internalType": "string",
          "name": "name",
          "type": "string"
        },
        {
          "indexed": false,
          "internalType": "uint8",
          "name": "age",
          "type": "uint8"
        }
      ],
      "name": "UserRegistered",
      "type": "event"
    },
    {
      "anonymous": false,
      "inputs": [
        {
          "indexed": true,
          "internalType": "address",
          "name": "user",
          "type": "address"
        },
        {
          "indexed": false,
          "internalType": "string",
          "name": "name",
          "type": "string"
        },
        {
          "indexed": false,
          "internalType": "uint8",
          "name": "age",
          "type": "uint8"
        }
      ],
      "name": "UserUnregistered",
      "type": "event"
    },
    {
      "anonymous": false,
      "inputs": [
        {
          "indexed": true,
          "internalType": "address",
          "name": "user",
          "type": "address"
        },
        {
          "indexed": false,
          "internalType": "uint256",
          "name": "amount",
          "type": "uint256"
        }
      ],
      "name": "Withdrawal",
      "type": "event"
    },
    {
      "anonymous": false,
      "inputs": [
        {
          "indexed": false,
          "internalType": "uint256",
          "name": "NewmemberStakePercentReward",
          "type": "uint256"
        }
      ],
      "name": "memberStakePercentRewardChanged",
      "type": "event"
    },
    {
      "stateMutability": "payable",
      "type": "fallback"
    },
    {
      "inputs": [
        {
          "internalType": "string",
          "name": "Name",
          "type": "string"
        },
        {
          "internalType": "uint8",
          "name": "Age",
          "type": "uint8"
        }
      ],
      "name": "Register",
      "outputs": [],
      "stateMutability": "nonpayable",
      "type": "function"
    },
    {
      "inputs": [
        {
          "internalType": "uint256",
          "name": "",
          "type": "uint256"
        }
      ],
      "name": "TaskSubmits",
      "outputs": [
        {
          "internalType": "string",
          "name": "githubURL",
          "type": "string"
        },
        {
          "internalType": "address",
          "name": "sender",
          "type": "address"
        },
        {
          "internalType": "string",
          "name": "note",
          "type": "string"
        },
        {
          "internalType": "enum TrustlessTeamProtocol.SubmitStatus",
          "name": "status",
          "type": "uint8"
        },
        {
          "internalType": "uint8",
          "name": "revisionTime",
          "type": "uint8"
        },
        {
          "internalType": "uint256",
          "name": "newDeadline",
          "type": "uint256"
        }
      ],
      "stateMutability": "view",
      "type": "function"
    },
    {
      "inputs": [
        {
          "internalType": "uint256",
          "name": "",
          "type": "uint256"
        }
      ],
      "name": "Tasks",
      "outputs": [
        {
          "internalType": "uint256",
          "name": "taskId",
          "type": "uint256"
        },
        {
          "internalType": "enum TrustlessTeamProtocol.TaskStatus",
          "name": "status",
          "type": "uint8"
        },
        {
          "internalType": "enum TrustlessTeamProtocol.TaskValue",
          "name": "value",
          "type": "uint8"
        },
        {
          "internalType": "address",
          "name": "creator",
          "type": "address"
        },
        {
          "internalType": "address",
          "name": "member",
          "type": "address"
        },
        {
          "internalType": "string",
          "name": "title",
          "type": "string"
        },
        {
          "internalType": "string",
          "name": "githubURL",
          "type": "string"
        },
        {
          "internalType": "uint256",
          "name": "reward",
          "type": "uint256"
        },
        {
          "internalType": "uint32",
          "name": "deadlineHours",
          "type": "uint32"
        },
        {
          "internalType": "uint256",
          "name": "deadlineAt",
          "type": "uint256"
        },
        {
          "internalType": "uint256",
          "name": "createdAt",
          "type": "uint256"
        },
        {
          "internalType": "uint256",
          "name": "creatorStake",
          "type": "uint256"
        },
        {
          "internalType": "uint256",
          "name": "memberStake",
          "type": "uint256"
        },
        {
          "internalType": "uint8",
          "name": "maxRevision",
          "type": "uint8"
        },
        {
          "internalType": "bool",
          "name": "isMemberStakeLocked",
          "type": "bool"
        },
        {
          "internalType": "bool",
          "name": "isCreatorStakeLocked",
          "type": "bool"
        },
        {
          "internalType": "bool",
          "name": "isRewardClaimed",
          "type": "bool"
        },
        {
          "internalType": "bool",
          "name": "exists",
          "type": "bool"
        }
      ],
      "stateMutability": "view",
      "type": "function"
    },
    {
      "inputs": [],
      "name": "UPGRADE_INTERFACE_VERSION",
      "outputs": [
        {
          "internalType": "string",
          "name": "",
          "type": "string"
        }
      ],
      "stateMutability": "view",
      "type": "function"
    },
    {
      "inputs": [],
      "name": "Unregister",
      "outputs": [
        {
          "internalType": "string",
          "name": "",
          "type": "string"
        }
      ],
      "stateMutability": "nonpayable",
      "type": "function"
    },
    {
      "inputs": [
        {
          "internalType": "address",
          "name": "",
          "type": "address"
        }
      ],
      "name": "Users",
      "outputs": [
        {
          "internalType": "uint256",
          "name": "totalTasksCreated",
          "type": "uint256"
        },
        {
          "internalType": "uint256",
          "name": "totalTasksCompleted",
          "type": "uint256"
        },
        {
          "internalType": "uint256",
          "name": "totalTasksFailed",
          "type": "uint256"
        },
        {
          "internalType": "uint32",
          "name": "reputation",
          "type": "uint32"
        },
        {
          "internalType": "uint8",
          "name": "age",
          "type": "uint8"
        },
        {
          "internalType": "bool",
          "name": "isRegistered",
          "type": "bool"
        },
        {
          "internalType": "string",
          "name": "name",
          "type": "string"
        }
      ],
      "stateMutability": "view",
      "type": "function"
    },
    {
      "inputs": [
        {
          "internalType": "uint32",
          "name": "DeadlineHours",
          "type": "uint32"
        },
        {
          "internalType": "uint8",
          "name": "MaximumRevision",
          "type": "uint8"
        },
        {
          "internalType": "uint256",
          "name": "rewardWei",
          "type": "uint256"
        },
        {
          "internalType": "address",
          "name": "Caller",
          "type": "address"
        }
      ],
      "name": "__getCreatorStake",
      "outputs": [
        {
          "internalType": "uint256",
          "name": "",
          "type": "uint256"
        }
      ],
      "stateMutability": "view",
      "type": "function"
    },
    {
      "inputs": [],
      "name": "accessControl",
      "outputs": [
        {
          "internalType": "contract IAccessControl",
          "name": "",
          "type": "address"
        }
      ],
      "stateMutability": "view",
      "type": "function"
    },
    {
      "inputs": [
        {
          "internalType": "uint256",
          "name": "taskId",
          "type": "uint256"
        }
      ],
      "name": "activateTask",
      "outputs": [],
      "stateMutability": "payable",
      "type": "function"
    },
    {
      "inputs": [
        {
          "internalType": "uint256",
          "name": "taskId",
          "type": "uint256"
        },
        {
          "internalType": "address",
          "name": "_applicant",
          "type": "address"
        }
      ],
      "name": "approveJoinRequest",
      "outputs": [],
      "stateMutability": "nonpayable",
      "type": "function"
    },
    {
      "inputs": [
        {
          "internalType": "uint256",
          "name": "taskId",
          "type": "uint256"
        }
      ],
      "name": "approveTask",
      "outputs": [],
      "stateMutability": "nonpayable",
      "type": "function"
    },
    {
      "inputs": [
        {
          "internalType": "uint256",
          "name": "taskId",
          "type": "uint256"
        }
      ],
      "name": "cancelByMe",
      "outputs": [],
      "stateMutability": "nonpayable",
      "type": "function"
    },
    {
      "inputs": [
        {
          "internalType": "address",
          "name": "_newAccesControl",
          "type": "address"
        }
      ],
      "name": "changeAccessControl",
      "outputs": [],
      "stateMutability": "nonpayable",
      "type": "function"
    },
    {
      "inputs": [
        {
          "internalType": "address",
          "name": "_newStateVar",
          "type": "address"
        }
      ],
      "name": "changeStateVarAddress",
      "outputs": [],
      "stateMutability": "nonpayable",
      "type": "function"
    },
    {
      "inputs": [
        {
          "internalType": "address payable",
          "name": "_NewsystemWallet",
          "type": "address"
        }
      ],
      "name": "changeSystemwallet",
      "outputs": [],
      "stateMutability": "nonpayable",
      "type": "function"
    },
    {
      "inputs": [
        {
          "internalType": "uint256",
          "name": "taskId",
          "type": "uint256"
        }
      ],
      "name": "closeRegistration",
      "outputs": [],
      "stateMutability": "nonpayable",
      "type": "function"
    },
    {
      "inputs": [
        {
          "internalType": "string",
          "name": "Title",
          "type": "string"
        },
        {
          "internalType": "string",
          "name": "GithubURL",
          "type": "string"
        },
        {
          "internalType": "uint32",
          "name": "DeadlineHours",
          "type": "uint32"
        },
        {
          "internalType": "uint8",
          "name": "MaximumRevision",
          "type": "uint8"
        }
      ],
      "name": "createTask",
      "outputs": [],
      "stateMutability": "payable",
      "type": "function"
    },
    {
      "inputs": [],
      "name": "feeCollected",
      "outputs": [
        {
          "internalType": "uint256",
          "name": "",
          "type": "uint256"
        }
      ],
      "stateMutability": "view",
      "type": "function"
    },
    {
      "inputs": [],
      "name": "getAllComponentWeightPercentage",
      "outputs": [
        {
          "internalType": "uint64",
          "name": "rewardScore",
          "type": "uint64"
        },
        {
          "internalType": "uint64",
          "name": "reputationScore",
          "type": "uint64"
        },
        {
          "internalType": "uint64",
          "name": "deadlineScore",
          "type": "uint64"
        },
        {
          "internalType": "uint64",
          "name": "revisionScore",
          "type": "uint64"
        }
      ],
      "stateMutability": "view",
      "type": "function"
    },
    {
      "inputs": [],
      "name": "getAllReputationPoint",
      "outputs": [
        {
          "internalType": "uint32",
          "name": "cancelByMe",
          "type": "uint32"
        },
        {
          "internalType": "uint32",
          "name": "requestCancel",
          "type": "uint32"
        },
        {
          "internalType": "uint32",
          "name": "respondCancel",
          "type": "uint32"
        },
        {
          "internalType": "uint32",
          "name": "revisionPenalty",
          "type": "uint32"
        },
        {
          "internalType": "uint32",
          "name": "taskAcceptCreator",
          "type": "uint32"
        },
        {
          "internalType": "uint32",
          "name": "taskAcceptMember",
          "type": "uint32"
        },
        {
          "internalType": "uint32",
          "name": "deadlineHitCreator",
          "type": "uint32"
        },
        {
          "internalType": "uint32",
          "name": "deadlineHitMember",
          "type": "uint32"
        }
      ],
      "stateMutability": "view",
      "type": "function"
    },
    {
      "inputs": [],
      "name": "getAllStakeAmount",
      "outputs": [
        {
          "internalType": "uint256",
          "name": "stakeLow",
          "type": "uint256"
        },
        {
          "internalType": "uint256",
          "name": "stakeMidLow",
          "type": "uint256"
        },
        {
          "internalType": "uint256",
          "name": "stakeMid",
          "type": "uint256"
        },
        {
          "internalType": "uint256",
          "name": "stakeMidHigh",
          "type": "uint256"
        },
        {
          "internalType": "uint256",
          "name": "stakeHigh",
          "type": "uint256"
        },
        {
          "internalType": "uint256",
          "name": "stakeUltraHigh",
          "type": "uint256"
        }
      ],
      "stateMutability": "view",
      "type": "function"
    },
    {
      "inputs": [],
      "name": "getAllStakeCategory",
      "outputs": [
        {
          "internalType": "uint256",
          "name": "categoryLow",
          "type": "uint256"
        },
        {
          "internalType": "uint256",
          "name": "categoryMidleLow",
          "type": "uint256"
        },
        {
          "internalType": "uint256",
          "name": "categoryMidle",
          "type": "uint256"
        },
        {
          "internalType": "uint256",
          "name": "categoryMidleHigh",
          "type": "uint256"
        },
        {
          "internalType": "uint256",
          "name": "categoryHigh",
          "type": "uint256"
        },
        {
          "internalType": "uint256",
          "name": "categoryUltraHigh",
          "type": "uint256"
        }
      ],
      "stateMutability": "view",
      "type": "function"
    },
    {
      "inputs": [],
      "name": "getAllStateVar",
      "outputs": [
        {
          "internalType": "uint32",
          "name": "cooldownInHour",
          "type": "uint32"
        },
        {
          "internalType": "uint32",
          "name": "minRevisionTimeInHour",
          "type": "uint32"
        },
        {
          "internalType": "uint32",
          "name": "negPenalty",
          "type": "uint32"
        },
        {
          "internalType": "uint64",
          "name": "maxReward",
          "type": "uint64"
        },
        {
          "internalType": "uint32",
          "name": "feePercentage",
          "type": "uint32"
        },
        {
          "internalType": "uint64",
          "name": "maxStake",
          "type": "uint64"
        },
        {
          "internalType": "uint32",
          "name": "maxRevision",
          "type": "uint32"
        }
      ],
      "stateMutability": "view",
      "type": "function"
    },
    {
      "inputs": [
        {
          "internalType": "uint256",
          "name": "taskId",
          "type": "uint256"
        }
      ],
      "name": "getCreatorStake",
      "outputs": [
        {
          "internalType": "uint256",
          "name": "",
          "type": "uint256"
        }
      ],
      "stateMutability": "view",
      "type": "function"
    },
    {
      "inputs": [
        {
          "internalType": "uint256",
          "name": "taskId",
          "type": "uint256"
        }
      ],
      "name": "getJoinRequests",
      "outputs": [
        {
          "components": [
            {
              "internalType": "address",
              "name": "applicant",
              "type": "address"
            },
            {
              "internalType": "uint256",
              "name": "stakeAmount",
              "type": "uint256"
            },
            {
              "internalType": "enum TrustlessTeamProtocol.UserTask",
              "name": "status",
              "type": "uint8"
            },
            {
              "internalType": "bool",
              "name": "isPending",
              "type": "bool"
            },
            {
              "internalType": "bool",
              "name": "hasWithdrawn",
              "type": "bool"
            }
          ],
          "internalType": "struct TrustlessTeamProtocol.JoinRequest[]",
          "name": "",
          "type": "tuple[]"
        }
      ],
      "stateMutability": "view",
      "type": "function"
    },
    {
      "inputs": [
        {
          "internalType": "uint256",
          "name": "taskId",
          "type": "uint256"
        }
      ],
      "name": "getMemberRequiredStake",
      "outputs": [
        {
          "internalType": "uint256",
          "name": "",
          "type": "uint256"
        }
      ],
      "stateMutability": "view",
      "type": "function"
    },
    {
      "inputs": [],
      "name": "getMyData",
      "outputs": [
        {
          "components": [
            {
              "internalType": "uint256",
              "name": "totalTasksCreated",
              "type": "uint256"
            },
            {
              "internalType": "uint256",
              "name": "totalTasksCompleted",
              "type": "uint256"
            },
            {
              "internalType": "uint256",
              "name": "totalTasksFailed",
              "type": "uint256"
            },
            {
              "internalType": "uint32",
              "name": "reputation",
              "type": "uint32"
            },
            {
              "internalType": "uint8",
              "name": "age",
              "type": "uint8"
            },
            {
              "internalType": "bool",
              "name": "isRegistered",
              "type": "bool"
            },
            {
              "internalType": "string",
              "name": "name",
              "type": "string"
            }
          ],
          "internalType": "struct TrustlessTeamProtocol.User",
          "name": "",
          "type": "tuple"
        }
      ],
      "stateMutability": "view",
      "type": "function"
    },
    {
      "inputs": [
        {
          "internalType": "uint256",
          "name": "taskId",
          "type": "uint256"
        }
      ],
      "name": "getTaskSubmit",
      "outputs": [
        {
          "components": [
            {
              "internalType": "string",
              "name": "githubURL",
              "type": "string"
            },
            {
              "internalType": "address",
              "name": "sender",
              "type": "address"
            },
            {
              "internalType": "string",
              "name": "note",
              "type": "string"
            },
            {
              "internalType": "enum TrustlessTeamProtocol.SubmitStatus",
              "name": "status",
              "type": "uint8"
            },
            {
              "internalType": "uint8",
              "name": "revisionTime",
              "type": "uint8"
            },
            {
              "internalType": "uint256",
              "name": "newDeadline",
              "type": "uint256"
            }
          ],
          "internalType": "struct TrustlessTeamProtocol.TaskSubmit",
          "name": "",
          "type": "tuple"
        }
      ],
      "stateMutability": "view",
      "type": "function"
    },
    {
      "inputs": [],
      "name": "getWithdrawableAmount",
      "outputs": [
        {
          "internalType": "uint256",
          "name": "",
          "type": "uint256"
        }
      ],
      "stateMutability": "view",
      "type": "function"
    },
    {
      "inputs": [
        {
          "internalType": "address",
          "name": "_accessControl",
          "type": "address"
        },
        {
          "internalType": "address payable",
          "name": "_systemWallet",
          "type": "address"
        },
        {
          "internalType": "address",
          "name": "_stateVar",
          "type": "address"
        },
        {
          "internalType": "uint256",
          "name": "_initialmemberStakePercentReward",
          "type": "uint256"
        }
      ],
      "name": "initialize",
      "outputs": [],
      "stateMutability": "nonpayable",
      "type": "function"
    },
    {
      "inputs": [],
      "name": "isRegistered",
      "outputs": [
        {
          "internalType": "bool",
          "name": "",
          "type": "bool"
        }
      ],
      "stateMutability": "view",
      "type": "function"
    },
    {
      "inputs": [
        {
          "internalType": "uint256",
          "name": "",
          "type": "uint256"
        },
        {
          "internalType": "uint256",
          "name": "",
          "type": "uint256"
        }
      ],
      "name": "joinRequests",
      "outputs": [
        {
          "internalType": "address",
          "name": "applicant",
          "type": "address"
        },
        {
          "internalType": "uint256",
          "name": "stakeAmount",
          "type": "uint256"
        },
        {
          "internalType": "enum TrustlessTeamProtocol.UserTask",
          "name": "status",
          "type": "uint8"
        },
        {
          "internalType": "bool",
          "name": "isPending",
          "type": "bool"
        },
        {
          "internalType": "bool",
          "name": "hasWithdrawn",
          "type": "bool"
        }
      ],
      "stateMutability": "view",
      "type": "function"
    },
    {
      "inputs": [],
      "name": "memberStakePercentReward",
      "outputs": [
        {
          "internalType": "uint256",
          "name": "",
          "type": "uint256"
        }
      ],
      "stateMutability": "view",
      "type": "function"
    },
    {
      "inputs": [
        {
          "internalType": "uint256",
          "name": "taskId",
          "type": "uint256"
        }
      ],
      "name": "openRegistration",
      "outputs": [],
      "stateMutability": "nonpayable",
      "type": "function"
    },
    {
      "inputs": [],
      "name": "pause",
      "outputs": [],
      "stateMutability": "nonpayable",
      "type": "function"
    },
    {
      "inputs": [],
      "name": "paused",
      "outputs": [
        {
          "internalType": "bool",
          "name": "",
          "type": "bool"
        }
      ],
      "stateMutability": "view",
      "type": "function"
    },
    {
      "inputs": [],
      "name": "proxiableUUID",
      "outputs": [
        {
          "internalType": "bytes32",
          "name": "",
          "type": "bytes32"
        }
      ],
      "stateMutability": "view",
      "type": "function"
    },
    {
      "inputs": [
        {
          "internalType": "uint256",
          "name": "taskId",
          "type": "uint256"
        },
        {
          "internalType": "string",
          "name": "Note",
          "type": "string"
        },
        {
          "internalType": "string",
          "name": "GithubFixedURL",
          "type": "string"
        }
      ],
      "name": "reSubmitTask",
      "outputs": [],
      "stateMutability": "nonpayable",
      "type": "function"
    },
    {
      "inputs": [
        {
          "internalType": "uint256",
          "name": "taskId",
          "type": "uint256"
        },
        {
          "internalType": "address",
          "name": "_applicant",
          "type": "address"
        }
      ],
      "name": "rejectJoinRequest",
      "outputs": [],
      "stateMutability": "nonpayable",
      "type": "function"
    },
    {
      "inputs": [
        {
          "internalType": "uint256",
          "name": "taskId",
          "type": "uint256"
        }
      ],
      "name": "requestJoinTask",
      "outputs": [],
      "stateMutability": "payable",
      "type": "function"
    },
    {
      "inputs": [
        {
          "internalType": "uint256",
          "name": "taskId",
          "type": "uint256"
        },
        {
          "internalType": "string",
          "name": "Note",
          "type": "string"
        },
        {
          "internalType": "uint256",
          "name": "additionalDeadlineHours",
          "type": "uint256"
        }
      ],
      "name": "requestRevision",
      "outputs": [],
      "stateMutability": "nonpayable",
      "type": "function"
    },
    {
      "inputs": [
        {
          "internalType": "uint256",
          "name": "taskId",
          "type": "uint256"
        },
        {
          "internalType": "string",
          "name": "PullRequestURL",
          "type": "string"
        },
        {
          "internalType": "string",
          "name": "Note",
          "type": "string"
        }
      ],
      "name": "requestSubmitTask",
      "outputs": [],
      "stateMutability": "nonpayable",
      "type": "function"
    },
    {
      "inputs": [
        {
          "internalType": "uint256",
          "name": "NewmemberStakePercentReward",
          "type": "uint256"
        }
      ],
      "name": "setMemberStakePercentageFromStake",
      "outputs": [],
      "stateMutability": "nonpayable",
      "type": "function"
    },
    {
      "inputs": [],
      "name": "stateVar",
      "outputs": [
        {
          "internalType": "contract stateVariable",
          "name": "",
          "type": "address"
        }
      ],
      "stateMutability": "view",
      "type": "function"
    },
    {
      "inputs": [],
      "name": "systemWallet",
      "outputs": [
        {
          "internalType": "address payable",
          "name": "",
          "type": "address"
        }
      ],
      "stateMutability": "view",
      "type": "function"
    },
    {
      "inputs": [],
      "name": "taskCounter",
      "outputs": [
        {
          "internalType": "uint256",
          "name": "",
          "type": "uint256"
        }
      ],
      "stateMutability": "view",
      "type": "function"
    },
    {
      "inputs": [
        {
          "internalType": "uint256",
          "name": "taskId",
          "type": "uint256"
        }
      ],
      "name": "triggerDeadline",
      "outputs": [],
      "stateMutability": "nonpayable",
      "type": "function"
    },
    {
      "inputs": [],
      "name": "unpause",
      "outputs": [],
      "stateMutability": "nonpayable",
      "type": "function"
    },
    {
      "inputs": [
        {
          "internalType": "address",
          "name": "newImplementation",
          "type": "address"
        },
        {
          "internalType": "bytes",
          "name": "data",
          "type": "bytes"
        }
      ],
      "name": "upgradeToAndCall",
      "outputs": [],
      "stateMutability": "payable",
      "type": "function"
    },
    {
      "inputs": [],
      "name": "withdraw",
      "outputs": [],
      "stateMutability": "nonpayable",
      "type": "function"
    },
    {
      "inputs": [
        {
          "internalType": "uint256",
          "name": "taskId",
          "type": "uint256"
        }
      ],
      "name": "withdrawJoinRequest",
      "outputs": [],
      "stateMutability": "nonpayable",
      "type": "function"
    },
    {
      "inputs": [],
      "name": "withdrawToSystemWallet",
      "outputs": [],
      "stateMutability": "nonpayable",
      "type": "function"
    },
    {
      "inputs": [
        {
          "internalType": "address",
          "name": "",
          "type": "address"
        }
      ],
      "name": "withdrawable",
      "outputs": [
        {
          "internalType": "uint256",
          "name": "",
          "type": "uint256"
        }
      ],
      "stateMutability": "view",
      "type": "function"
    },
    {
      "stateMutability": "payable",
      "type": "receive"
    }
  ],
  "bytecode": "0x60a0806040523460295730608052615c18908161002f823960805181818161345a01526135a30152f35b600080fdfe60806040526004361015610013575b600080fd5b60003560e01c806302cb134e14613e6e5780630a07fae614613e0057806310384ce914613b2657806313007d5514613afd5780632236684414613ac85780632737399014613a3c578063294c5374146139c25780633ccfd60b146138aa5780633f4ba83a146137c65780634ee4de7d146137a85780634f1ef286146135555780634f51595f146134b157806352d1902d14613447578063553659f514613429578063586717301461340b5780635c975abb146133db5780635d0e05de14612fe75780635d8ad9f814612f945780635e54a14014612edf57806360c9574714612e8a57806369ad31a514612dd15780636ca7f95c14612db35780636d8ed69214612c20578063793816ec14612bf75780638456cb5914612b225780638cab7be414612a675780638e5c166a146127ab5780638ff388c71461258c57806390be10cc146125455780639387730c1461246f57806399b956a0146123d6578063a12d93f81461234e578063a914297614612207578063a95e861714612124578063ad3cb1cc146120dd578063ad7d3a72146120b4578063ae204d9614611fd7578063b8be2fea14611ed2578063ba55b46114611def578063cca84a0c14611d29578063ccc4ac7514611cc9578063ce513b6f14611c8f578063cf756fdf14611aa0578063d9c8a38b14611977578063db3b675d14611328578063e0d42e9614611254578063e5c910e314611102578063e92553d214610e8e578063f4b2a46e14610d34578063fc9e439314610bbc578063fef5d39014610715578063ff54068b146106c15763ff91221f0361000e573461000e57602036600319011261000e5760043580600052600560205260ff600b6040600020015460201c16156106b057610298614ecb565b6102a0614e8f565b806000526005602052604060002081600052600360205260ff6003604060002001541660048110156106895760011461069f576001810180549160ff83166008811015610689576004036106785760078101548015610667574210610656576002810180549093600b92916001600160a01b0316151580610649575b156105ff57506103a4610399600a83015460646103688161034a63ffffffff610343615361565b1685614331565b049263ffffffff61036161035c615361565b614522565b1690614331565b049060018060a01b03885416600052600460205261038c604060002091825461436b565b905560098401549061436b565b60058301549061436b565b60018060a01b03845460101c1660005260046020526103c9604060002091825461436b565b905501805462ffff00191690555b81546001600160a01b031660008181526002602052604090206003015460281c60ff16610567575b50805460101c6001600160a01b031660008181526002602052604090206003015460281c60ff166104cc575b50600760ff1982541617815560018060a01b03905460101c166000526002602052600260406000200161045e81546149bb565b9055546001600160a01b0316806104aa575b507f69c3ad79d0e13d549ed2cf8009be68e25ffa6a38699d0e1983d13a7e3a77e1c6600080a26001600080516020615ba383398151915255005b600052600260205260026040600020016104c481546149bb565b905538610470565b80600052600260205263ffffffff6003604060002001541663ffffffff6104f16159e1565b16111561052a5750805460101c6001600160a01b03166000908152600260205260409020600301805463ffffffff191690555b3861042b565b6105326159e1565b90600052600260205263ffffffff61055560036040600020019282845416614539565b1663ffffffff19825416179055610524565b80600052600260205263ffffffff6003604060002001541663ffffffff61058c615a19565b1611156105c2575081546001600160a01b03166000908152600260205260409020600301805463ffffffff191690555b386103ff565b6105ca615a19565b90600052600260205263ffffffff6105ed60036040600020019282845416614539565b1663ffffffff198254161790556105bc565b610612600983015460058401549061436b565b9060018060a01b039060101c166000526004602052610637604060002091825461436b565b905501805462ffff00191690556103d7565b50600a820154151561031c565b6370affcf560e11b60005260046000fd5b631da7447960e21b60005260046000fd5b63fe89421760e01b60005260046000fd5b634e487b7160e01b600052602160045260246000fd5b63eff3ce5d60e01b60005260046000fd5b63da319dff60e01b60005260046000fd5b3461000e57608036600319011261000e5760043563ffffffff8116810361000e576106ea614272565b6064356001600160a01b038116810361000e5760209261070d9260443591614dfd565b604051908152f35b3461000e57610723366142be565b91939283600052600560205260ff600b6040600020015460201c16156106b0576000848152600560205260409020600201546001600160a01b03163303610b435761076c614ecb565b600054604051633f784de560e11b8152336004820152906001600160a01b0316602082602481845afa908115610b83576107b4602092600494600091610b8f575b5015614390565b604051638da5cb5b60e01b815292839182905afa8015610b83576107ec91600091610b54575b506001600160a01b03163314156143e9565b836000526005602052604060002060ff600182015416600881101561068957600403610678576002810154336001600160a01b0390911603610b43578515610b32578315610b2157600085815260036020526040902060018101546001600160a01b031615159081610b06575b50610af557600701549161088f6040519161087383614073565b61087e3689866140e7565b8352602083019533875236916140e7565b926040820193845260608201936001855260808301956000875260a084019283528760005260036020526040600020935180519060018060401b038211610a6d576108e4826108de885461411e565b886144ca565b602090601f8311600114610a8e57610907929160009183610a83575b505061450f565b84555b516001840180546001600160a01b0319166001600160a01b039290921691909117905551805160028401916001600160401b038211610a6d5761095782610951855461411e565b856144ca565b602090601f8311600114610a06576109799291600091836109fb57505061450f565b90555b600382019351906004821015610689576109dc6109f69560ff7f9989978868daa22b7a8a054a31e686ab83a420750a2a60b58facca87bf7c1219986004958280198554169116178355511661ff0082549160081b169061ff001916179055565b519101556040519182916020835233966020840191614b96565b0390a3005b015190508b80610900565b90601f1983169184600052816000209260005b818110610a555750908460019594939210610a3c575b505050811b01905561097c565b015160001960f88460031b161c191690558a8080610a2f565b92936020600181928786015181550195019301610a19565b634e487b7160e01b600052604160045260246000fd5b015190508c80610900565b90601f1983169187600052816000209260005b818110610add5750908460019594939210610ac4575b505050811b01845561090a565b015160001960f88460031b161c191690558b8080610ab7565b92936020600181928786015181550195019301610aa1565b63710b41a360e01b60005260046000fd5b60ff9150600301541660048110156106895760011487610859565b6324317f8b60e11b60005260046000fd5b631ca4916960e21b60005260046000fd5b631e50374d60e01b60005260046000fd5b610b76915060203d602011610b7c575b610b6e81836140a9565b8101906143ca565b876107da565b503d610b64565b6040513d6000823e3d90fd5b610baf9150843d8611610bb5575b610ba781836140a9565b810190614378565b8a6107ad565b503d610b9d565b3461000e57602036600319011261000e5733600052600260205260ff60036040600020015460281c1615610d235760043560009081526006602052604090208054906001600160401b038211610a6d5760405191610c2060208260051b01846140a9565b80835260208301809260005260206000206000915b838310610cbf5784866040519182916020830190602084525180915260408301919060005b818110610c68575050500390f35b91935091602060a0600192608087518580851b03815116835284810151858401526040810151610c97816142b4565b6040840152606081015115156060840152015115156080820152019401910191849392610c5a565b60036020600192604051610cd281614058565b848060a01b038654168152848601548382015260ff6002870154818116610cf8816142b4565b6040840152818160081c161515606084015260101c1615156080820152815201920192019190610c35565b63aba4733960e01b60005260046000fd5b3461000e57602036600319011261000e5760043560005260056020526040600020805490600181015460ff811660ff8260081c169260018060a01b0360028201541690610d8360038201614158565b91610d9060048301614158565b60058301549563ffffffff600685015416600785015491600886015493600987015495600b600a890154980154986040519d8e5260088b10156106895761024060a08f9e8f9094610e279760ff9f96610e19976020850152610df1816142b4565b604084015260101c6000196001851b01166060830152608082015201526102408d01906141fc565b908b820360c08d01526141fc565b9760e08a01526101008901526101208801526101408701526101608601526101808501528181166101a0850152818160081c1615156101c0850152818160101c1615156101e0850152818160181c16151561020085015260201c1615156102208301520390f35b3461000e57600036600319011261000e5733600052600260205260ff60036040600020015460281c1615610d2357600054604051633f784de560e11b8152336004820152906001600160a01b0316602082602481845afa908115610b8357610f036020926004946000916110e5575015614390565b604051638da5cb5b60e01b815292839182905afa8015610b8357610f3a916000916110c657506001600160a01b03163314156143e9565b610f45331515614427565b33600052600260205260c07f8b005d78378f863da631633b02176b4364095ccf2cc5303c1d28cf8c77c5afa160ff6040600020604051610f848161408e565b815481526001820154602082015260028201546040820152610fd2600460038401549363ffffffff85166060850152856080850195818160201c16875260281c16151560a085015201614158565b9485910152511691610fef604051916040835260408301906141fc565b9260208201528033930390a233600052600260205260046040600020600081556000600182015560006002820155600060038201550161102f815461411e565b9081611082575b61107e604080519061104881836140a9565b6017825276556e7265676973746572205375636365737366756c6c7960481b6020830152519182916020835260208301906141fc565b0390f35b81601f6000931160011461109a5750555b8080611036565b818352602083206110b691601f0160051c81019060010161448b565b8082528160208120915555611093565b6110df915060203d602011610b7c57610b6e81836140a9565b826107da565b6110fc9150843d8611610bb557610ba781836140a9565b856107ad565b3461000e57600036600319011261000e5761111b615399565b600154604051630af2820760e21b8152906001600160a01b0316602082600481845afa918215610b835760009261122f575b50602060049160405192838092636ab984c160e01b82525afa908115610b8357600091611200575b5061117e615329565b611186615971565b61118e6159a9565b916111976159e1565b936111a0615a19565b956040519763ffffffff16885263ffffffff16602088015263ffffffff16604087015263ffffffff16606086015263ffffffff16608085015263ffffffff1660a084015263ffffffff1660c083015263ffffffff1660e082015261010090f35b611222915060203d602011611228575b61121a81836140a9565b8101906152bd565b83611175565b503d611210565b600491925061124c602091823d84116112285761121a81836140a9565b92915061114d565b3461000e57602036600319011261000e576004356024602060018060a01b036000541660405192838092633f784de560e11b82523360048301525afa8015610b83576112a891600091611309575b50614940565b6112b0614ecb565b801580156112ff575b6112ee576020817f9024f7ca871b3c50efdc18a9da9c9c109f3970b5097980db2c602dd7cc0dead792600955604051908152a1005b630b417afb60e11b60005260046000fd5b50606481116112b9565b611322915060203d602011610bb557610ba781836140a9565b836112a2565b608036600319011261000e576004356001600160401b03811161000e57611353903690600401614313565b6024356001600160401b03811161000e57611372903690600401614313565b9060443563ffffffff81169283820361000e576064359160ff83169081840361000e5761139d614ecb565b33600052600260205260ff60036040600020015460281c1615610d23576113c2614e8f565b600054604051633f784de560e11b8152336004820152906001600160a01b0316602082602481845afa908115610b835761140960209260049460009161195a575015614390565b604051638da5cb5b60e01b815292839182905afa8015610b83576114409160009161193b57506001600160a01b03163314156143e9565b61144b331515614427565b6114566007546149bb565b938460075585511561192a57835115610b32578663ffffffff6114776152d9565b1611610667578261ffff611489615704565b161061191a5734158015611901575b6118f0576114a9913391349161581c565b6040519095909261024084016001600160401b03811185821017610a6d576040528484526020840196600188526114df816142b4565b6040850152336060850152600060808501528560a085015260c08401523460e0840152610100830152600061012083015242610140830152600061016083015260006101808301526101a082015260006101c082015260006101e08201526000610200820152600161022082015281600052600560205260406000209381518555519360088510156106895760009460ff80196001840154169116176001820155604082015161158e816142b4565b611597816142b4565b6001820180546060850151610100600160b01b031990911660089390931b61ff00169290921760109290921b62010000600160b01b031691909117905560808201516002820180546001600160a01b0319166001600160a01b039290921691909117905560a08201518051906001600160401b0382116118685761162b82611622600386015461411e565b600386016144ca565b602090601f83116001146118875761164c929188918361187c57505061450f565b60038201555b60c08201518051906001600160401b0382116118685761168282611679600486015461411e565b600486016144ca565b602090601f83116001146117f95782600b9361022095936116aa938b926117ee57505061450f565b60048201555b60e0840151600582015563ffffffff6101008501511663ffffffff60068301911663ffffffff19825416179055610120840151600782015561014084015160088201556101608401516009820155610180840151600a820155019160ff6101a08201511660ff1984541617835561172e6101c0820151151584614473565b61173f6101e0820151151584614351565b6102008101518354929091015164ffff0000001990921690151560181b63ff0000001617901515602090811b60ff60201b16919091179091553384526002905260408320805461178e906149bb565b90557f9dda774dc9cd26aa151d38f0382b90219cad43a5beafe7761bf9ace382799cb36117c6604051936060855260608501906141fc565b923460208201528460408201528033940390a36001600080516020615ba38339815191525580f35b015190508a80610900565b6004840188528188209190601f198416895b8181106118505750926001928592600b96610220989610611837575b505050811b0160048201556116b0565b015160001960f88460031b161c19169055898080611827565b9293602060018192878601518155019501930161180b565b634e487b7160e01b87526041600452602487fd5b015190508880610900565b6003840188528188209190601f198416895b8181106118d857509084600195949392106118bf575b505050811b016003820155611652565b015160001960f88460031b161c191690558780806118af565b92936020600181928786015181550195019301611899565b633853986560e01b60005260046000fd5b506001600160401b036119126156cc565b163411611498565b6255af5f60e91b60005260046000fd5b6306232dbd60e31b60005260046000fd5b611954915060203d602011610b7c57610b6e81836140a9565b886107da565b6119719150843d8611610bb557610ba781836140a9565b8b6107ad565b3461000e57600036600319011261000e57606060c06040516119988161408e565b60008152600060208201526000604082015260008382015260006080820152600060a0820152015233600052600260205260ff60036040600020015460281c1615610d235733600052600260205260406000206040516119f78161408e565b8154815261107e600183015492602083019384526002810154906040840191825260ff60038201549163ffffffff606087018185168152611a54600460808a0194868860201c1686528660a08c019860281c161515885201614158565b9560c08901968752604051998a9960208b525160208b01525160408a015251606089015251166080870152511660a085015251151560c08401525160e0808401526101008301906141fc565b3461000e57608036600319011261000e57611ab961402c565b611ac1614042565b90604435906001600160a01b0382169081830361000e57600080516020615bc383398151915254604081901c60ff1615946001600160401b03821680159081611c87575b6001149081611c7d575b159081611c74575b50611c63576001600160401b03198216600117600080516020615bc383398151915255611b669186611c3a575b506001600160a01b031693611b5885615667565b611b6183615667565b615667565b611b6e615a51565b611b76615a51565b611b7e615a51565b6001600080516020615ba383398151915255611b98615a51565b60018060a01b031660018060a01b0319600054161760005560018060a01b0319600154161760015560018060a01b0319600a541617600a5560006007556000600855606435600955611be657005b60ff60401b19600080516020615bc38339815191525416600080516020615bc3833981519152557fc7f505b2f371ae2175ee4913f4499e1f2633a7b5936321eed1cdaeb6115181d2602060405160018152a1005b6001600160481b0319166001600160401b0117600080516020615bc38339815191525586611b44565b63f92ee8a960e01b60005260046000fd5b90501587611b17565b303b159150611b0f565b879150611b05565b3461000e57602036600319011261000e576001600160a01b03611cb061402c565b1660005260046020526020604060002054604051908152f35b3461000e57600036600319011261000e576080611ce461573c565b611cec615774565b611cf46157ac565b611cfc6157e4565b604080516001600160401b0395861681529385166020850152918416918301919091529091166060820152f35b3461000e57602036600319011261000e5760043580600052600560205260ff600b6040600020015460201c16156106b05760008181526005602052604090206001015460101c6001600160a01b03163303611dde57611d86614ecb565b806000526005602052600160406000200160ff81541660088110156106895760020361067857805460ff191660031790557fe0a3eabfba8d6b242de244fdd6f0372ee66d472686b2cfd89420ef24c0462201600080a2005b63eabf778760e01b60005260046000fd5b3461000e57611dfd366142be565b9284600093929352600560205260ff600b6040600020015460201c16156106b0576000858152600560205260409020600201546001600160a01b03163303610b4357611e47614ecb565b600054604051633f784de560e11b815233600482015295906001600160a01b0316602087602481845afa908115610b8357611e8f602092600499600091610b8f575015614390565b604051638da5cb5b60e01b815297889182905afa958615610b8357611ed096611ecb9160009161193b57506001600160a01b03163314156143e9565b614bb7565b005b3461000e57600036600319011261000e57600054604051633f784de560e11b815233600482015290602090829060249082906001600160a01b03165afa8015610b8357611f2691600091611fb85750614940565b611f2e614e8f565b611f36614ecb565b6008548015611fa75760207f8c982262467417843067e76f4bbf0311c55c60f68259c0082063eee7732a2a1a916000600855611f8c60008080808560018060a01b03600a54165af1611f866148d2565b50614902565b604051908152a16001600080516020615ba383398151915255005b63043f9e1160e41b60005260046000fd5b611fd1915060203d602011610bb557610ba781836140a9565b826112a2565b3461000e57602036600319011261000e576004611ff261402c565b600054604051638da5cb5b60e01b81529260209184919082906001600160a01b03165afa908115610b835761205e6020927f11d810b05b54dd03c008bbf337551fad8a8eda812a32b87593541afb639bca5094600091612097575b506001600160a01b03163314614b5e565b612066614ecb565b61206f81615667565b600180546001600160a01b0319166001600160a01b03929092169182179055604051908152a1005b6120ae9150843d8611610b7c57610b6e81836140a9565b8561204d565b3461000e57600036600319011261000e57600a546040516001600160a01b039091168152602090f35b3461000e57600036600319011261000e5761107e604080519061210081836140a9565b60058252640352e302e360dc1b6020830152519182916020835260208301906141fc565b3461000e57600036600319011261000e57600154604051635fb6bbf760e01b815290602090829060049082906001600160a01b03165afa8015610b835760e0916000916121e8575b506121756152d9565b61217d615361565b6121856156cc565b61ffff612190614f8f565b169063ffffffff61219f614f14565b938161ffff6121ac615704565b1696816040519916895216602088015216604086015260018060401b03166060850152608084015260018060401b031660a083015260c0820152f35b612201915060203d6020116112285761121a81836140a9565b8261216c565b3461000e57602036600319011261000e57600060a060405161222881614073565b6060815282602082015260606040820152826060820152826080820152015233600052600260205260ff60036040600020015460281c1615610d23576004356000526003602052604060002060405161228081614073565b61228982614158565b815260018201546001600160a01b0316602082019081526122ac60028401614158565b60408301908152600384015460608401929060ff811660048110156106895761233160ff93600461230f9961233d9489528660808b019660081c16865201549560a08901968752604051998a9960208b525160c060208c015260e08b01906141fc565b91516001600160a01b031660408a015251888203601f190160608a01526141fc565b9451608087019061423d565b511660a08401525160c08301520390f35b3461000e57604036600319011261000e5760243560043560005260066020526040600020805482101561000e5760a09161238791614282565b5060ff600180841b038254169160026001820154910154908282169060405194855260208501526123b7816142b4565b6040840152818160081c161515606084015260101c1615156080820152f35b3461000e57602036600319011261000e576001600160a01b036123f761402c565b1660005260026020526040600020805461107e60018301549260ff600282015491612429600460038301549201614158565b9260405196879687526020870152604086015263ffffffff81166060860152818160201c16608086015260281c16151560a084015260e060c084015260e08301906141fc565b3461000e57602036600319011261000e5761248861402c565b600054604051638da5cb5b60e01b815291906020836004816001600160a01b0385165afa918215610b83576124f36020937f497acaa34ac19c2a2a579ad43eca493b4fea820459e254e9383e7dda216b0f049560009161252857506001600160a01b03163314614b5e565b6124fb614ecb565b61250481615667565b6001600160a01b03166001600160a01b0319919091168117600055604051908152a1005b61253f9150853d8711610b7c57610b6e81836140a9565b8661204d565b3461000e57600036600319011261000e5733600052600260205260ff60036040600020015460281c1615610d23573360005260046020526020604060002054604051908152f35b3461000e57604036600319011261000e576004356125a8614042565b81600052600560205260ff600b6040600020015460201c16156106b05760008281526005602052604090206001015460101c6001600160a01b03163303611dde57906125f2614e8f565b6125fa614ecb565b6000818152600660209081526040808320600590925282206001600160a01b039094169391929190835b815481101561279e57856126388284614282565b50546001600160a01b03161480612783575b61265657600101612624565b600292939450818361266b836126ca95614282565b5001805461ff0019169055836126818383614282565b5001805460ff19168517905584840180546001600160a01b0319168817905560016126ac8383614282565b500154600a860155600060016126c28484614282565b500155614282565b5001805462ff0000191662010000179055600b8101805461ff0019166101001790556126f66001614b1e565b63ffffffff60068201541690610e10820291808304610e10149015171561276d576127236001924261436b565b600782015501805460ff191660041790557fa15a372eebffa78fac354b5e2229bc1a3bad4e94c881acfb6f86d381c50ba794600080a36001600080516020615ba383398151915255005b634e487b7160e01b600052601160045260246000fd5b5060ff60026127928385614282565b50015460081c1661264a565b505090916126f690614b1e565b3461000e57604036600319011261000e576004356001600160401b03811161000e576127db903690600401613fff565b6127e3614272565b600054604051633f784de560e11b8152336004820152919391906001600160a01b0316602082602481845afa908115610b835761282d602092600494600091612a4a575015614390565b604051638da5cb5b60e01b815292839182905afa8015610b835761286491600091612a2b57506001600160a01b03163314156143e9565b61286f331515614427565b336000526002602052604060002092600384019060ff825460281c16612a1a578315612a095760ff8116946012861080156129ff575b6129ee57825463ffffffff191683556000600182018190556002820155825460ff60281b1916600160281b1783556004016001600160401b038511610a6d576128f8856128f2835461411e565b836144ca565b6000601f8611600114612975579161295c93916129308780600080516020615b4383398151915299989660009161296a575b5061450f565b90555b815460ff60201b191660209190911b60ff60201b16179055604080518181529390840191614b96565b9260208201528033930390a2005b90508601358b61292a565b8181526020812090601f198716815b8181106129d657509161295c95939188600080516020615b4383398151915299989694106129bc575b5050600186811b019055612933565b850135600019600389901b60f8161c1916905588806129ad565b9192602060018192868b013581550194019201612984565b6304530cb760e41b60005260046000fd5b50606486116128a5565b63430f13b360e01b60005260046000fd5b630f018e4960e21b60005260046000fd5b612a44915060203d602011610b7c57610b6e81836140a9565b856107da565b612a619150843d8611610bb557610ba781836140a9565b886107ad565b3461000e57602036600319011261000e576004612a8261402c565b600054604051638da5cb5b60e01b81529260209184919082906001600160a01b03165afa908115610b8357612aed6020927f2e37d39727ffd415860d40304a72d7bab7e1ced441df8ffb9d48cdd0c0aff23c9460009161209757506001600160a01b03163314614b5e565b612af5614ecb565b6001600160a01b0316612b0781615667565b600a80546001600160a01b03191682179055604051908152a1005b3461000e57600036600319011261000e57600054604051633f784de560e11b815233600482015290602090829060249082906001600160a01b03165afa8015610b8357612b7691600091611fb85750614940565b612b7e614ecb565b600160ff19600080516020615b83833981519152541617600080516020615b83833981519152557f62e78cea01bee320cd4e420270b5ea74000d11b0c9f74754ebdbfc544b05a2586020604051338152a1337f81990fd9a5c552b8e3677917d8a03c07678f0d2cb68f88b634aca2022e9bd19f600080a2005b3461000e57600036600319011261000e576001546040516001600160a01b039091168152602090f35b3461000e57604036600319011261000e57600435612c3c614042565b81600052600560205260ff600b6040600020015460201c16156106b05760008281526005602052604090206001015460101c6001600160a01b03163303611dde5790612c86614e8f565b612c8e614ecb565b60008181526006602052604081206001600160a01b0390931692909190825b8154811015612da75784612cc18284614282565b50546001600160a01b03161480612d8c575b612cdf57600101612cad565b81929350806002612cf4612d1d938295614282565b5001805461ff00191690556001612d0b8286614282565b50015493600060016126c28484614282565b50016201000062ff000019825416179055826000526004602052612d47604060002091825461436b565b9055612d536001614b1e565b7f659db9764efb778e1b0294e020cbc7f55b198481945e7dd60910f555b27399dc600080a36001600080516020615ba383398151915255005b5060ff6002612d9b8385614282565b50015460081c16612cd3565b505090612d5390614b1e565b3461000e57600036600319011261000e576020600854604051908152f35b3461000e57600036600319011261000e57612dea61554f565b612df2615587565b906004612dfd6155bf565b612e056155f7565b612e0d61562f565b600154604051637d8d6d0560e01b81529491929160209186919082906001600160a01b03165afa928315610b8357600093612e54575b61107e94506040519687968761424a565b92506020843d602011612e82575b81612e6f602093836140a9565b8101031261000e5761107e935192612e43565b3d9150612e62565b3461000e57602036600319011261000e57612ea3614e8f565b33600052600260205260ff60036040600020015460281c1615610d2357612ecb6004356149ca565b6001600080516020615ba383398151915255005b3461000e57602036600319011261000e5760043580600052600560205260ff600b6040600020015460201c16156106b05760008181526005602052604090206001015460101c6001600160a01b03163303611dde57612f3c614ecb565b806000526005602052600160406000200160ff81541660088110156106895760030361067857805460ff191660021790557f383b6ce38b867405b4f42fa404692e07842868068badd063c9bfeb0e7f263f62600080a2005b3461000e57600036600319011261000e57612fad6153d1565b612fb5615438565b9061107e612fc1615470565b612fc96154a8565b612fd16154df565b90612fda615517565b926040519687968761424a565b3461000e57602036600319011261000e5760043580600052600560205260ff600b6040600020015460201c16156106b057613020614e8f565b600054604051633f784de560e11b8152336004820152906001600160a01b0316602082602481845afa908115610b83576130676020926004946000916133be575015614390565b604051638da5cb5b60e01b815292839182905afa8015610b835761309e9160009161339f57506001600160a01b03163314156143e9565b6130a6614ecb565b80600052600560205260406000206001810190815460018060a01b038160101c1633141580613388575b6133775760ff16600881101561068957600403610678576002810180546001600160a01b031691903383036132b957600b9250600a82015490613155606461313b8161312963ffffffff613122615361565b1687614331565b049463ffffffff61036161035c615361565b0492613150600986015460058701549061436b565b61436b565b60018060a01b03865460101c16600052600460205261317a604060002091825461436b565b9055546001600160a01b03166000908152600460205260409020805490916131a19161436b565b905501805462ffff00191690555b600760ff1982541617905533600052600260205260ff60036040600020015460281c1661322f575b33600052600260205260026040600020016131f281546149bb565b905533907f19f7047fbece8b5fc78b72bcce829a232f26b08806e65852e2e4afb96572b365600080a36001600080516020615ba383398151915255005b33600052600260205263ffffffff6003604060002001541663ffffffff613254615399565b16111561327c57336000526002602052600360406000200163ffffffff1981541690556131d7565b613284615399565b33600052600260205263ffffffff6132a760036040600020019282845416614539565b1663ffffffff198254161790556131d7565b508115613366576009810154600b9261331461330960646132fd816132eb63ffffffff6132e4615361565b1688614331565b049563ffffffff61036161035c615361565b0460058601549061436b565b92600a85015461436b565b90600052600460205261332d604060002091825461436b565b905560018060a01b03845460101c166000526004602052613354604060002091825461436b565b905501805462ffff00191690556131af565b6316f1484160e01b60005260046000fd5b6389f5ad6160e01b60005260046000fd5b5060028201546001600160a01b03163314156130d0565b6133b8915060203d602011610b7c57610b6e81836140a9565b836107da565b6133d59150843d8611610bb557610ba781836140a9565b866107ad565b3461000e57600036600319011261000e57602060ff600080516020615b8383398151915254166040519015158152f35b3461000e57600036600319011261000e576020600754604051908152f35b3461000e57600036600319011261000e576020600954604051908152f35b3461000e57600036600319011261000e577f00000000000000000000000000000000000000000000000000000000000000006001600160a01b031630036134a0576020604051600080516020615b638339815191528152f35b63703e46dd60e11b60005260046000fd5b3461000e57602036600319011261000e57600435600052600360205261352060406000206134de81614158565b60018201549091906001600160a01b031660ff61353361350060028501614158565b92600460038601549501549360405197889760c0895260c08901906141fc565b91602088015286820360408801526141fc565b926135436060860183831661423d565b60081c16608084015260a08301520390f35b604036600319011261000e5761356961402c565b6024356001600160401b03811161000e573660238201121561000e576135999036906024816004013591016140e7565b6001600160a01b037f000000000000000000000000000000000000000000000000000000000000000016308114908115613785575b506134a057600054604051638da5cb5b60e01b815290602090829060049082906001600160a01b03165afa8015610b835761361b9160009161376657506001600160a01b03163314614b5e565b613623614ecb565b6040516352d1902d60e01b81526001600160a01b0383169290602081600481875afa60009181613732575b506136685783634c9c8ce360e01b60005260045260246000fd5b80600080516020615b6383398151915285920361371e5750813b1561370a57600080516020615b6383398151915280546001600160a01b031916821790557fbc7cd75a20ee27fd9adebab32041f755214dbc6bffa90cc0225b39da2e5c2d3b600080a28151156136f057600080836020611ed095519101845af46136ea6148d2565b91615ae1565b5050346136f957005b63b398979f60e01b60005260046000fd5b634c9c8ce360e01b60005260045260246000fd5b632a87526960e21b60005260045260246000fd5b9091506020813d60201161375e575b8161374e602093836140a9565b8101031261000e5751908561364e565b3d9150613741565b61377f915060203d602011610b7c57610b6e81836140a9565b8461204d565b600080516020615b63833981519152546001600160a01b031614159050836135ce565b3461000e57602036600319011261000e57602061070d60043561497b565b3461000e57600036600319011261000e57600054604051633f784de560e11b815233600482015290602090829060249082906001600160a01b03165afa8015610b835761381a91600091611fb85750614940565b600080516020615b838339815191525460ff8116156138995760ff1916600080516020615b83833981519152557f5db9ee0a495bf2e6ff9c91a7834c1ba4fdd244a5e8aa4e537bd38aeae4b073aa6020604051338152a1337f5b65b0c1363b3003db9bcc5e1fd8805a6d6bf5bf6dc9d3431ee4494cd7d11766600080a2005b638dfc202b60e01b60005260046000fd5b3461000e57600036600319011261000e576138c3614e8f565b600054604051633f784de560e11b8152336004820152906001600160a01b0316602082602481845afa908115610b835761390a6020926004946000916110e5575015614390565b604051638da5cb5b60e01b815292839182905afa8015610b8357613941916000916110c657506001600160a01b03163314156143e9565b613949614ecb565b3360005260046020526040600020548015611fa75733600052600460205260006040812055613982600080808085335af1611f866148d2565b6040519081527f7fcf532c15f0a6db0bd6d0e038bea71d30d808c7d98cb3bf7268a95bf5081b6560203392a26001600080516020615ba383398151915255005b3461000e57602036600319011261000e5760043580600052600560205260ff600b6040600020015460201c16156106b0576139fb614ecb565b6000526005602052602061070d604060002063ffffffff6006820154169060ff600b820154166005820154916001808060a01b0391015460101c1692614dfd565b3461000e57606036600319011261000e576004356024356001600160401b03811161000e57613a6f903690600401613fff565b82600093929352600560205260ff600b6040600020015460201c16156106b05760008281526005602052604090206001015460101c6001600160a01b03163303611dde57611ed092613abf614ecb565b60443592614553565b3461000e57600036600319011261000e57336000526002602052602060ff60036040600020015460281c166040519015158152f35b3461000e57600036600319011261000e576000546040516001600160a01b039091168152602090f35b602036600319011261000e5760043580600052600560205260ff600b6040600020015460201c16156106b057613b5a614ecb565b33600052600260205260ff60036040600020015460281c1615610d2357600054604051633f784de560e11b8152336004820152906001600160a01b0316602082602481845afa908115610b8357613bbe6020926004946000916133be575015614390565b604051638da5cb5b60e01b815292839182905afa8015610b8357613bf59160009161339f57506001600160a01b03163314156143e9565b613c00331515614427565b806000526005602052604060002081600052600660205260406000206000908054915b828110613dab5784600185015460ff8116600881101561068957600303610678573360109190911c6001600160a01b03161461067857613c628161497b565b806001600160401b03613c73614f14565b1610613d9a573403613d8957806000526006602052604060002060405190613c9a82614058565b338252602082019034825260408301916001835260608401600181526080850192600084528054600160401b811015610a6d57613cdc91600182018155614282565b959095613d73575185546001600160a01b0319166001600160a01b0391909116178555905160018501559151613d449360020192613d3b91613d1d816142b4565b613d26816142b4565b60ff8019865416911617845551151583614473565b51151590614351565b604051903482527f716834564cb7c8e3d64d2045110836bf24ec2665f21cca881de739333c6d62d760203393a3005b634e487b7160e01b600052600060045260246000fd5b6378de4a6960e11b60005260046000fd5b63c9e0390760e01b60005260046000fd5b613db58183614282565b50546001600160a01b0316331480613de5575b613dd457600101613c23565b6353efb1e560e01b60005260046000fd5b5060ff6002613df48385614282565b50015460081c16613dc8565b3461000e57602036600319011261000e5760043580600052600560205260ff600b6040600020015460201c16156106b05760008181526005602052604090206001015460101c6001600160a01b03163303611dde57612ecb90613e61614e8f565b613e69614ecb565b615009565b602036600319011261000e5760043580600052600560205260ff600b6040600020015460201c16156106b05760008181526005602052604090206001015460101c6001600160a01b03163303611dde57613ec6614e8f565b613ece614ecb565b80600052600560205260406000206001810190815460ff81166008811015610689576001036106785734158015613fe6575b613fd557613f3463ffffffff600684015416600b84019260ff84541660058601549160018060a01b039060101c1692614dfd565b3403613fc457613f88926064613f5561ffff613f4e614f8f565b1634614331565b04926009613f638534614344565b910155805460ff19166002179055805462ff000019166201000017905560085461436b565b6008557f96de4d43d5265ced55b252018f405ed224e0ed3f7c992a8d0115626700feda3e600080a26001600080516020615ba383398151915255005b634581e82760e01b60005260046000fd5b630103be3b60e21b60005260046000fd5b506001600160401b03613ff7614f14565b163411613f00565b9181601f8401121561000e578235916001600160401b03831161000e576020838186019501011161000e57565b600435906001600160a01b038216820361000e57565b602435906001600160a01b038216820361000e57565b60a081019081106001600160401b03821117610a6d57604052565b60c081019081106001600160401b03821117610a6d57604052565b60e081019081106001600160401b03821117610a6d57604052565b601f909101601f19168101906001600160401b03821190821017610a6d57604052565b6001600160401b038111610a6d57601f01601f191660200190565b9291926140f3826140cc565b9161410160405193846140a9565b82948184528183011161000e578281602093846000960137010152565b90600182811c9216801561414e575b602083101461413857565b634e487b7160e01b600052602260045260246000fd5b91607f169161412d565b906040519182600082549261416c8461411e565b80845293600181169081156141da5750600114614193575b50614191925003836140a9565b565b90506000929192526020600020906000915b8183106141be5750509060206141919282010138614184565b60209193508060019154838589010152019101909184926141a5565b90506020925061419194915060ff191682840152151560051b82010138614184565b919082519283825260005b848110614228575050826000602080949584010152601f8019910116010190565b80602080928401015182828601015201614207565b9060048210156106895752565b9260a094919796959260c0850198855260208501526040840152606083015260808201520152565b6024359060ff8216820361000e57565b805482101561429e576000526003602060002091020190600090565b634e487b7160e01b600052603260045260246000fd5b6006111561068957565b90606060031983011261000e57600435916024356001600160401b03811161000e57816142ed91600401613fff565b90929091604435906001600160401b03821161000e5761430f91600401613fff565b9091565b9080601f8301121561000e5781602061432e933591016140e7565b90565b8181029291811591840414171561276d57565b9190820391821161276d57565b9062ff0000825491151560101b169062ff00001916179055565b9190820180921161276d57565b9081602091031261000e5751801515810361000e5790565b1561439757565b60405162461bcd60e51b815260206004820152600b60248201526a497320656d706c6f79656560a81b6044820152606490fd5b9081602091031261000e57516001600160a01b038116810361000e5790565b156143f057565b60405162461bcd60e51b815260206004820152600f60248201526e21b0b63632b91034b99037bbb732b960891b6044820152606490fd5b1561442e57565b60405162461bcd60e51b815260206004820152601d60248201527f63616c6c65722069732063616e74206265207a65726f206164647220210000006044820152606490fd5b9061ff00825491151560081b169061ff001916179055565b818110614496575050565b6000815560010161448b565b90601f81116144af575050565b61419191600052601f6020600020910160051c81019061448b565b9190601f81116144d957505050565b614191926000526020600020906020601f840160051c83019310614505575b601f0160051c019061448b565b90915081906144f8565b8160011b916000199060031b1c19161790565b63ffffffff166064039063ffffffff821161276d57565b9063ffffffff8091169116039063ffffffff821161276d57565b92836000526005602052604060002090846000526003602052604060002092600283019460018060a01b0386541615613366578263ffffffff6145946152d9565b161061066757600385019460ff86541660048110156106895760010361067857610e10840293808504610e10149015171561276d57855460ff19166002908117875501916001600160401b038211610a6d576145f482610951855461411e565b600090601f831160011461486e5761461692916000918361486357505061450f565b90555b60ff835460081c169060ff821461276d5761464b60016146519301859061ff0082549160081b169061ff001916179055565b4261436b565b9260078201938455825460ff600b8401541660ff8260081c1611614830575060409260017f33edbe073d61cf304f0e11256ba07aefb7e60a754d1e12a0f07e5b29cb3d7321959360ff93828060a01b0381541680600052600260205285600389600020015460281c1661479b575b505001805460101c6001600160a01b0316600081815260026020528690206003015460281c8416614701575b50505460081c16905482519182526020820152a2565b80600052600260205263ffffffff60038760002001541663ffffffff614725615329565b16111561475d57505460101c6001600160a01b031660009081526002602052849020600301805463ffffffff191690555b38806146eb565b9050614767615329565b90600052600260205263ffffffff614789600387600020019282845416614539565b1663ffffffff19825416179055614756565b80600052600260205263ffffffff60038960002001541663ffffffff6147bf615329565b1611156147f25750828060a01b0390541660005260026020526003866000200163ffffffff1981541690555b38806146bf565b90506147fc615329565b90600052600260205263ffffffff61481e600389600020019282845416614539565b1663ffffffff198254161790556147eb565b9250505060ff91501660048110156106895760010361485a5763eff3ce5d60e01b60005260046000fd5b61419190615009565b013590503880610900565b8382526020822091601f198416815b8181106148ba57509084600195949392106148a0575b505050811b019055614619565b0135600019600384901b60f8161c19169055388080614893565b9193602060018192878701358155019501920161487d565b3d156148fd573d906148e3826140cc565b916148f160405193846140a9565b82523d6000602084013e565b606090565b1561490957565b60405162461bcd60e51b815260206004820152600f60248201526e1dda5d1a191c985dc819985a5b1959608a1b6044820152606490fd5b1561494757565b60405162461bcd60e51b815260206004820152600c60248201526b4e6f7420656d706c6f79656560a01b6044820152606490fd5b80600052600560205260ff600b6040600020015460201c16156106b057600052600560205260646149b760056040600020015460095490614331565b0490565b600019811461276d5760010190565b80600052600660205260406000209060005b8254811015614ae4576149ef8184614282565b50546001600160a01b0316331480614ac9575b80614aad575b614a14576001016149dc565b6001614a66826002614a2a600095889798614282565b5001805461ff00191690556002614a418287614282565b5001805462ff000019166201000017905582614a5d8287614282565b50015494614282565b500155336000526004602052614a82604060002091825461436b565b905533907f7d8891f107b48a85b66c4f2654182303b5c3b3926287bae8e33ea57f91909a37600080a3565b5060ff6002614abc8386614282565b50015460101c1615614a08565b5060ff6002614ad88386614282565b50015460081c16614a02565b60405162461bcd60e51b81526020600482015260126024820152711b9bc81c195b991a5b99c81c995c5d595cdd60721b6044820152606490fd5b15614b2557565b60405162461bcd60e51b81526020600482015260116024820152701c995c5d595cdd081b9bdd08199bdd5b99607a1b6044820152606490fd5b15614b6557565b60405162461bcd60e51b81526020600482015260096024820152682737ba1037bbb732b960b91b6044820152606490fd5b908060209392818452848401376000828201840152601f01601f1916010190565b9294939083600052600560205260406000209084600052600360205260406000209360018060a01b0360018601541615614dec5760028301546001600160a01b03163303610b43576003850192835460ff811691600483101561068957600283036106785760ff600b81920154169160081c1611614dc757508315610b32578015610b215760028501916001600160401b038211610a6d57614c5d82610951855461411e565b600090601f8311600114614d6357614c7f92916000918361486357505061450f565b90555b805460ff191660011790556001600160401b038111610a6d57614caf81614ca9845461411e565b846144ca565b6000601f8211600114614cff578190614cd39394959660009261486357505061450f565b90555b33907fd91178918ec22e991ec5103aaa21661df1d5ddfeee4571007ad649225c0dad28600080a3565b601f198216958382526020822091805b888110614d4b57508360019596979810614d31575b505050811b019055614cd6565b0135600019600384901b60f8161c19169055388080614d24565b90926020600181928686013581550194019101614d0f565b8382526020822091601f198416815b818110614daf5750908460019594939210614d95575b505050811b019055614c82565b0135600019600384901b60f8161c19169055388080614d88565b91936020600181928787013581550195019201614d72565b9450505050506001919293501460001461485a5763eff3ce5d60e01b60005260046000fd5b631534b94560e21b60005260046000fd5b90614e0993929161581c565b614e12816142b4565b80614e20575061432e6153d1565b614e29816142b4565b60018103614e3a575061432e615438565b614e43816142b4565b60028103614e54575061432e615470565b614e5d816142b4565b60038103614e6e575061432e6154a8565b600490614e7a816142b4565b03614e875761432e6154df565b61432e615517565b6002600080516020615ba38339815191525414614eba576002600080516020615ba383398151915255565b633ee5aeb560e01b60005260046000fd5b60ff600080516020615b838339815191525416614ee457565b63d93c066560e01b60005260046000fd5b9081602091031261000e57516001600160401b038116810361000e5790565b60015460405163baa20a3960e01b815290602090829060049082906001600160a01b03165afa908115610b8357600091614f4c575090565b61432e915060203d602011614f6e575b614f6681836140a9565b810190614ef5565b503d614f5c565b9081602091031261000e575161ffff8116810361000e5790565b60015460405162d1e93b60e31b815290602090829060049082906001600160a01b03165afa908115610b8357600091614fc6575090565b61432e915060203d602011614fe8575b614fe081836140a9565b810190614f75565b503d614fd6565b9063ffffffff8091169116019063ffffffff821161276d57565b8060005260056020526040600020816000526003602052604060002090600181019160ff835416600881101561068957600403610678576003810160ff8154166004811015610689576001036152ac57600b830192600160ff855460181c1615151461529b576001830180549091906001600160a01b031615614dec5760009560049561509f6005840154600a8501549061436b565b926002600982015491019360018060a01b038554168a52886020526150c960408b2091825461436b565b9055825460101c6001600160a01b03168952602088905260408920805490916150f19161436b565b9055805463ffffff0019166301000000179055805460ff1916600617815581546001600160a01b03168088526002602052604088206003015460281c60ff1661525f575b50805460101c6001600160a01b03168088526002602052604088206003015460281c60ff16615223575b505460101c6001600160a01b031686526002602052604086206001018054615186906149bb565b9055546001600160a01b0316855260026020526040852060010180546151ab906149bb565b90556151c06151ba845461411e565b846144a2565b84835580546001600160a01b03191690556002820180548591906151ed906151e79061411e565b826144a2565b55805461ffff1916600317905501557f3e9d27a1c2a828db29e4b2a17fbd1bc70201ef21aec4f74b9fa051b02e38e3f0600080a2565b61522b615971565b908852600260205263ffffffff61524c600360408b20019282845416614fef565b1663ffffffff198254161790553861515f565b6152676159a9565b908852600260205263ffffffff615288600360408b20019282845416614fef565b1663ffffffff1982541617905538615135565b637dbbaaa960e01b60005260046000fd5b632901198f60e01b60005260046000fd5b9081602091031261000e575163ffffffff8116810361000e5790565b6001546040516241930960e91b815290602090829060049082906001600160a01b03165afa908115610b8357600091615310575090565b61432e915060203d6020116112285761121a81836140a9565b600154604051637221ba7960e11b815290602090829060049082906001600160a01b03165afa908115610b8357600091615310575090565b600154604051630b7dadff60e01b815290602090829060049082906001600160a01b03165afa908115610b8357600091615310575090565b60015460405163cf95838b60e01b815290602090829060049082906001600160a01b03165afa908115610b8357600091615310575090565b6001546040516394fb86e560e01b815290602090829060049082906001600160a01b03165afa908115610b8357600091615409575090565b90506020813d602011615430575b81615424602093836140a9565b8101031261000e575190565b3d9150615417565b60015460405163156bebd960e21b815290602090829060049082906001600160a01b03165afa908115610b8357600091615409575090565b6001546040516312c23eb160e01b815290602090829060049082906001600160a01b03165afa908115610b8357600091615409575090565b600154604051628f2c6560e71b815290602090829060049082906001600160a01b03165afa908115610b8357600091615409575090565b60015460405163ca218d7d60e01b815290602090829060049082906001600160a01b03165afa908115610b8357600091615409575090565b6001546040516325ac29e160e01b815290602090829060049082906001600160a01b03165afa908115610b8357600091615409575090565b60015460405163a376ff7d60e01b815290602090829060049082906001600160a01b03165afa908115610b8357600091615409575090565b6001546040516370ffe5a360e11b815290602090829060049082906001600160a01b03165afa908115610b8357600091615409575090565b6001546040516399206b0b60e01b815290602090829060049082906001600160a01b03165afa908115610b8357600091615409575090565b6001546040516384afa48b60e01b815290602090829060049082906001600160a01b03165afa908115610b8357600091615409575090565b60015460405163813b79c160e01b815290602090829060049082906001600160a01b03165afa908115610b8357600091615409575090565b6001600160a01b03161561567757565b60405162461bcd60e51b815260206004820152602760248201527f416363657373436f6e74726f6c3a207a65726f2061646472657373206e6f7420604482015266185b1b1bddd95960ca1b6064820152608490fd5b6001546040516321534f1560e11b815290602090829060049082906001600160a01b03165afa908115610b8357600091614f4c575090565b60015460405163443b204160e11b815290602090829060049082906001600160a01b03165afa908115610b8357600091614fc6575090565b60015460405163a0d0124560e01b815290602090829060049082906001600160a01b03165afa908115610b8357600091614f4c575090565b60015460405163c6de983960e01b815290602090829060049082906001600160a01b03165afa908115610b8357600091614f4c575090565b60015460405163778162d760e11b815290602090829060049082906001600160a01b03165afa908115610b8357600091614f4c575090565b600154604051630963d67f60e21b815290602090829060049082906001600160a01b03165afa908115610b8357600091614f4c575090565b9161588d9161586f9161584a90670de0b6b3a764000090046001600160401b0361584461573c565b16614331565b906158686158566157e4565b6001600160401b039260ff1690615a7f565b169061436b565b9263ffffffff615886615880615774565b92615a9b565b1690615a7f565b906158ae6158996157ac565b6001600160401b039263ffffffff1690615a7f565b166001600160401b039182160190811161276d576001600160401b031680821161596357505060005b670de0b6b3a7640000810290808204670de0b6b3a7640000149015171561276d57600a900461590461554f565b81116159105750600090565b615918615587565b81116159245750600190565b61592c6155bf565b81116159385750600290565b6159406155f7565b811161594c5750600390565b61595461562f565b1061595e57600490565b600590565b61596c91614344565b6158d7565b60015460405163b30e0be360e01b815290602090829060049082906001600160a01b03165afa908115610b8357600091615310575090565b60015460405163c7d3f62f60e01b815290602090829060049082906001600160a01b03165afa908115610b8357600091615310575090565b600154604051633b8664cd60e11b815290602090829060049082906001600160a01b03165afa908115610b8357600091615310575090565b600154604051630d164b1d60e41b815290602090829060049082906001600160a01b03165afa908115610b8357600091615310575090565b60ff600080516020615bc38339815191525460401c1615615a6e57565b631afcd79f60e31b60005260046000fd5b6001600160401b03918216908216029081169190820361276d57565b6001600160a01b031660008181526002602052604090206003015460281c60ff1615615adb57600052600260205263ffffffff6003604060002001541690565b50600090565b90615b075750805115615af657602081519101fd5b63d6bda27560e01b60005260046000fd5b81511580615b39575b615b18575090565b639996b31560e01b60009081526001600160a01b0391909116600452602490fd5b50803b15615b1056fec2e5d5da58bd71d1a2d14cdef02a4256d971b728088f8190d067ccfbae3bd73e360894a13ba1a3210667c828492db98dca3e2076cc3735a920a3ca505d382bbccd5ed15c6e187e77e9aee88184c21f4f2182ab5827cb3b7e07fbedcd63f033009b779b17422d0df92223018b32b4d1fa46e071723d6817e2486d003becc55f00f0c57e16840df040f15088dc2f81fe391c3923bec73e23a9662efc9c229c6a00a264697066735822122078d7d71ef43ae848c00df3385389acf1ee66684b633d2eb986f6ee571a49895764736f6c634300081c0033",
  "linkReferences": {},
  "deployedLinkReferences": {}
}