{
  "_format": "hh-sol-artifact-1",
  "contractName": "StateVarPipes",
  "sourceName": "contracts/Pipe/StateVarPipes.sol",
  "abi": [
    {
      "inputs": [],
      "name": "getAllComponentWeightPercentage",
      "outputs": [
        {
          "internalType": "uint64",
          "name": "rewardScore",
          "type": "uint64"
        },
        {
          "internalType": "uint64",
          "name": "reputationScore",
          "type": "uint64"
        },
        {
          "internalType": "uint64",
          "name": "deadlineScore",
          "type": "uint64"
        },
        {
          "internalType": "uint64",
          "name": "revisionScore",
          "type": "uint64"
        }
      ],
      "stateMutability": "view",
      "type": "function"
    },
    {
      "inputs": [],
      "name": "getAllReputationPoint",
      "outputs": [
        {
          "internalType": "uint32",
          "name": "cancelByMe",
          "type": "uint32"
        },
        {
          "internalType": "uint32",
          "name": "requestCancel",
          "type": "uint32"
        },
        {
          "internalType": "uint32",
          "name": "respondCancel",
          "type": "uint32"
        },
        {
          "internalType": "uint32",
          "name": "revisionPenalty",
          "type": "uint32"
        },
        {
          "internalType": "uint32",
          "name": "taskAcceptCreator",
          "type": "uint32"
        },
        {
          "internalType": "uint32",
          "name": "taskAcceptMember",
          "type": "uint32"
        },
        {
          "internalType": "uint32",
          "name": "deadlineHitCreator",
          "type": "uint32"
        },
        {
          "internalType": "uint32",
          "name": "deadlineHitMember",
          "type": "uint32"
        }
      ],
      "stateMutability": "view",
      "type": "function"
    },
    {
      "inputs": [],
      "name": "getAllStakeAmount",
      "outputs": [
        {
          "internalType": "uint256",
          "name": "stakeLow",
          "type": "uint256"
        },
        {
          "internalType": "uint256",
          "name": "stakeMidLow",
          "type": "uint256"
        },
        {
          "internalType": "uint256",
          "name": "stakeMid",
          "type": "uint256"
        },
        {
          "internalType": "uint256",
          "name": "stakeMidHigh",
          "type": "uint256"
        },
        {
          "internalType": "uint256",
          "name": "stakeHigh",
          "type": "uint256"
        },
        {
          "internalType": "uint256",
          "name": "stakeUltraHigh",
          "type": "uint256"
        }
      ],
      "stateMutability": "view",
      "type": "function"
    },
    {
      "inputs": [],
      "name": "getAllStakeCategory",
      "outputs": [
        {
          "internalType": "uint256",
          "name": "categoryLow",
          "type": "uint256"
        },
        {
          "internalType": "uint256",
          "name": "categoryMidleLow",
          "type": "uint256"
        },
        {
          "internalType": "uint256",
          "name": "categoryMidle",
          "type": "uint256"
        },
        {
          "internalType": "uint256",
          "name": "categoryMidleHigh",
          "type": "uint256"
        },
        {
          "internalType": "uint256",
          "name": "categoryHigh",
          "type": "uint256"
        },
        {
          "internalType": "uint256",
          "name": "categoryUltraHigh",
          "type": "uint256"
        }
      ],
      "stateMutability": "view",
      "type": "function"
    },
    {
      "inputs": [],
      "name": "getAllStateVar",
      "outputs": [
        {
          "internalType": "uint32",
          "name": "cooldownInHour",
          "type": "uint32"
        },
        {
          "internalType": "uint32",
          "name": "minRevisionTimeInHour",
          "type": "uint32"
        },
        {
          "internalType": "uint32",
          "name": "negPenalty",
          "type": "uint32"
        },
        {
          "internalType": "uint64",
          "name": "maxReward",
          "type": "uint64"
        },
        {
          "internalType": "uint32",
          "name": "feePercentage",
          "type": "uint32"
        },
        {
          "internalType": "uint64",
          "name": "maxStake",
          "type": "uint64"
        },
        {
          "internalType": "uint32",
          "name": "maxRevision",
          "type": "uint32"
        }
      ],
      "stateMutability": "view",
      "type": "function"
    },
    {
      "inputs": [],
      "name": "stateVar",
      "outputs": [
        {
          "internalType": "contract stateVariable",
          "name": "",
          "type": "address"
        }
      ],
      "stateMutability": "view",
      "type": "function"
    }
  ],
  "bytecode": "0x60808060405234601557610cae908161001b8239f35b600080fdfe608080604052600436101561001357600080fd5b60003560e01c9081635d8ad9f8146109b05750806369ad31a51461075d578063793816ec14610734578063a95e8617146104b7578063ccc4ac751461033b5763e5c910e31461006157600080fd5b346103365760003660031901126103365760005460405163cf95838b60e01b8152906001600160a01b0316602082600481845afa91821561024657600092610315575b50604051630af2820760e21b815290602082600481845afa918215610246576000926102f4575b50604051636ab984c160e01b8152602081600481855afa908115610246576000916102d5575b50604051637221ba7960e11b8152602081600481865afa908115610246576000916102b6575b5060405163b30e0be360e01b815290602082600481875afa91821561024657600092610295575b5060405163c7d3f62f60e01b815292602084600481885afa93841561024657600094610274575b50604051633b8664cd60e11b815295602087600481895afa95861561024657600497600097610252575b5060209060405198898092630d164b1d60e41b82525afa96871561024657600097610215575b506040519763ffffffff16885263ffffffff16602088015263ffffffff16604087015263ffffffff16606086015263ffffffff16608085015263ffffffff1660a084015263ffffffff1660c083015263ffffffff1660e082015261010090f35b61023891975060203d60201161023f575b6102308183610bea565b810190610c23565b95386101b5565b503d610226565b6040513d6000823e3d90fd5b602091975061026d90823d841161023f576102308183610bea565b969061018f565b61028e91945060203d60201161023f576102308183610bea565b9238610165565b6102af91925060203d60201161023f576102308183610bea565b903861013e565b6102cf915060203d60201161023f576102308183610bea565b38610117565b6102ee915060203d60201161023f576102308183610bea565b386100f1565b61030e91925060203d60201161023f576102308183610bea565b90386100cb565b61032f91925060203d60201161023f576102308183610bea565b90386100a4565b600080fd5b346103365760003660031901126103365760005460405163a0d0124560e01b81526001600160a01b0390911690602081600481855afa90811561024657600091610498575b5060405163c6de983960e01b8152602081600481865afa90811561024657600091610479575b5060405163778162d760e11b815292602084600481845afa90811561024657600494600092610457575b5060209060405195868092630963d67f60e21b82525afa91821561024657608094600093610426575b50604080516001600160401b03958616815291851660208301529184169181019190915291166060820152f35b61044991935060203d602011610450575b6104418183610bea565b810190610c3f565b91856103f9565b503d610437565b602091925061047290823d8411610450576104418183610bea565b91906103d0565b610492915060203d602011610450576104418183610bea565b836103a6565b6104b1915060203d602011610450576104418183610bea565b82610380565b3461033657600036600319011261033657600054604051635fb6bbf760e01b81526001600160a01b0390911690602081600481855afa90811561024657600091610715575b506040516241930960e91b815291602083600481845afa928315610246576000936106f4575b50604051630b7dadff60e01b815292602084600481855afa938415610246576000946106d3575b506040516321534f1560e11b8152602081600481865afa908115610246576000916106b4575b5060405162d1e93b60e31b815292602084600481845afa93841561024657600094610693575b5060405163baa20a3960e01b815293602085600481855afa91821561024657600495600093610671575b506020906040519687809263443b204160e11b82525afa9283156102465760e09761ffff96600095610634575b506040805163ffffffff998a16815296891660208801529716968501969096526001600160401b0395861660608501528416608084015290931660a0820152911660c0820152f35b879495509063ffffffff610660819360203d60201161066a575b6106588183610bea565b810190610c5e565b96955050906105ec565b503d61064e565b602091935061068c90823d8411610450576104418183610bea565b92906105bf565b6106ad91945060203d60201161066a576106588183610bea565b9286610595565b6106cd915060203d602011610450576104418183610bea565b8561056f565b6106ed91945060203d60201161023f576102308183610bea565b9284610549565b61070e91935060203d60201161023f576102308183610bea565b9183610522565b61072e915060203d60201161023f576102308183610bea565b826104fc565b34610336576000366003190112610336576000546040516001600160a01b039091168152602090f35b346103365760003660031901126103365760005460405163a376ff7d60e01b81526001600160a01b0390911690602081600481855afa9081156102465760009161097e575b506040516370ffe5a360e11b815291602083600481845afa9283156102465760009361094a575b506040516399206b0b60e01b8152602081600481855afa90811561024657600091610918575b506040516384afa48b60e01b8152602081600481865afa908115610246576000916108e6575b5060405163813b79c160e01b815290602082600481875afa918215610246576000926108af575b50602060049460405195868092637d8d6d0560e01b82525afa92831561024657600093610879575b610875945060405196879687610bc2565b0390f35b92506020843d6020116108a7575b8161089460209383610bea565b8101031261033657610875935192610864565b3d9150610887565b9391506020843d6020116108de575b816108cb60209383610bea565b810103126103365792519092602061083c565b3d91506108be565b90506020813d602011610910575b8161090160209383610bea565b81010312610336575185610815565b3d91506108f4565b90506020813d602011610942575b8161093360209383610bea565b810103126103365751846107ef565b3d9150610926565b9092506020813d602011610976575b8161096660209383610bea565b81010312610336575191836107c9565b3d9150610959565b90506020813d6020116109a8575b8161099960209383610bea565b810103126103365751826107a2565b3d915061098c565b34610336576000366003190112610336576000546394fb86e560e01b82526001600160a01b031690602081600481855afa90811561024657600091610b90575b5060405163156bebd960e21b815291602083600481845afa92831561024657600093610b5c575b506040516312c23eb160e01b8152602081600481855afa90811561024657600091610b2a575b50604051628f2c6560e71b8152602081600481865afa90811561024657600091610af8575b5060405163ca218d7d60e01b815290602082600481875afa91821561024657600092610ac1575b506020600494604051958680926325ac29e160e01b82525afa9283156102465760009361087957610875945060405196879687610bc2565b9391506020843d602011610af0575b81610add60209383610bea565b8101031261033657925190926020610a89565b3d9150610ad0565b90506020813d602011610b22575b81610b1360209383610bea565b81010312610336575185610a62565b3d9150610b06565b90506020813d602011610b54575b81610b4560209383610bea565b81010312610336575184610a3d565b3d9150610b38565b9092506020813d602011610b88575b81610b7860209383610bea565b8101031261033657519183610a17565b3d9150610b6b565b90506020813d602011610bba575b81610bab60209383610bea565b810103126103365751826109f0565b3d9150610b9e565b9260a094919796959260c0850198855260208501526040840152606083015260808201520152565b601f909101601f19168101906001600160401b03821190821017610c0d57604052565b634e487b7160e01b600052604160045260246000fd5b90816020910312610336575163ffffffff811681036103365790565b9081602091031261033657516001600160401b03811681036103365790565b90816020910312610336575161ffff81168103610336579056fea264697066735822122022645d03872db58df08cd5bc156dda501e448a098165eecc292fe5b373dc494464736f6c634300081c0033",
  "linkReferences": {},
  "deployedLinkReferences": {}
}