{
	"system/AccesControl.sol": {
		"AccessControl": {
			"abi": [
				{
					"inputs": [
						{
							"internalType": "address",
							"name": "target",
							"type": "address"
						}
					],
					"name": "AddressEmptyCode",
					"type": "error"
				},
				{
					"inputs": [],
					"name": "AlredyHaveRole",
					"type": "error"
				},
				{
					"inputs": [],
					"name": "DoesNotHaveRole",
					"type": "error"
				},
				{
					"inputs": [
						{
							"internalType": "address",
							"name": "implementation",
							"type": "address"
						}
					],
					"name": "ERC1967InvalidImplementation",
					"type": "error"
				},
				{
					"inputs": [],
					"name": "ERC1967NonPayable",
					"type": "error"
				},
				{
					"inputs": [],
					"name": "FailedCall",
					"type": "error"
				},
				{
					"inputs": [],
					"name": "InvalidInitialization",
					"type": "error"
				},
				{
					"inputs": [],
					"name": "NotInitializing",
					"type": "error"
				},
				{
					"inputs": [],
					"name": "NotOwner",
					"type": "error"
				},
				{
					"inputs": [],
					"name": "OwnerCannotBeEmployee",
					"type": "error"
				},
				{
					"inputs": [],
					"name": "UUPSUnauthorizedCallContext",
					"type": "error"
				},
				{
					"inputs": [
						{
							"internalType": "bytes32",
							"name": "slot",
							"type": "bytes32"
						}
					],
					"name": "UUPSUnsupportedProxiableUUID",
					"type": "error"
				},
				{
					"inputs": [],
					"name": "ZeroAddress",
					"type": "error"
				},
				{
					"anonymous": false,
					"inputs": [
						{
							"indexed": true,
							"internalType": "address",
							"name": "employee",
							"type": "address"
						}
					],
					"name": "EmployeeAssigned",
					"type": "event"
				},
				{
					"anonymous": false,
					"inputs": [
						{
							"indexed": true,
							"internalType": "address",
							"name": "employee",
							"type": "address"
						}
					],
					"name": "EmployeeRemoved",
					"type": "event"
				},
				{
					"anonymous": false,
					"inputs": [
						{
							"indexed": false,
							"internalType": "uint64",
							"name": "version",
							"type": "uint64"
						}
					],
					"name": "Initialized",
					"type": "event"
				},
				{
					"anonymous": false,
					"inputs": [
						{
							"indexed": true,
							"internalType": "address",
							"name": "oldOwner",
							"type": "address"
						},
						{
							"indexed": true,
							"internalType": "address",
							"name": "newOwner",
							"type": "address"
						}
					],
					"name": "OwnerChanged",
					"type": "event"
				},
				{
					"anonymous": false,
					"inputs": [
						{
							"indexed": true,
							"internalType": "address",
							"name": "implementation",
							"type": "address"
						}
					],
					"name": "Upgraded",
					"type": "event"
				},
				{
					"inputs": [],
					"name": "UPGRADE_INTERFACE_VERSION",
					"outputs": [
						{
							"internalType": "string",
							"name": "",
							"type": "string"
						}
					],
					"stateMutability": "view",
					"type": "function"
				},
				{
					"inputs": [
						{
							"internalType": "address",
							"name": "newEmployee",
							"type": "address"
						}
					],
					"name": "assignNewEmployee",
					"outputs": [],
					"stateMutability": "nonpayable",
					"type": "function"
				},
				{
					"inputs": [
						{
							"internalType": "address",
							"name": "newOwner",
							"type": "address"
						}
					],
					"name": "changeOwner",
					"outputs": [],
					"stateMutability": "nonpayable",
					"type": "function"
				},
				{
					"inputs": [],
					"name": "employeeCount",
					"outputs": [
						{
							"internalType": "uint256",
							"name": "",
							"type": "uint256"
						}
					],
					"stateMutability": "view",
					"type": "function"
				},
				{
					"inputs": [
						{
							"internalType": "address",
							"name": "account",
							"type": "address"
						}
					],
					"name": "hasRole",
					"outputs": [
						{
							"internalType": "bool",
							"name": "",
							"type": "bool"
						}
					],
					"stateMutability": "view",
					"type": "function"
				},
				{
					"inputs": [],
					"name": "initialize",
					"outputs": [],
					"stateMutability": "nonpayable",
					"type": "function"
				},
				{
					"inputs": [],
					"name": "owner",
					"outputs": [
						{
							"internalType": "address",
							"name": "",
							"type": "address"
						}
					],
					"stateMutability": "view",
					"type": "function"
				},
				{
					"inputs": [],
					"name": "proxiableUUID",
					"outputs": [
						{
							"internalType": "bytes32",
							"name": "",
							"type": "bytes32"
						}
					],
					"stateMutability": "view",
					"type": "function"
				},
				{
					"inputs": [
						{
							"internalType": "address",
							"name": "employee",
							"type": "address"
						}
					],
					"name": "removeEmployee",
					"outputs": [],
					"stateMutability": "nonpayable",
					"type": "function"
				},
				{
					"inputs": [
						{
							"internalType": "address",
							"name": "newImplementation",
							"type": "address"
						},
						{
							"internalType": "bytes",
							"name": "data",
							"type": "bytes"
						}
					],
					"name": "upgradeToAndCall",
					"outputs": [],
					"stateMutability": "payable",
					"type": "function"
				}
			],
			"devdoc": {
				"details": "Abstract contract that can be inherited by other contracts to enforce employee-only actions",
				"errors": {
					"AddressEmptyCode(address)": [
						{
							"details": "There's no code at `target` (it is not a contract)."
						}
					],
					"ERC1967InvalidImplementation(address)": [
						{
							"details": "The `implementation` of the proxy is invalid."
						}
					],
					"ERC1967NonPayable()": [
						{
							"details": "An upgrade function sees `msg.value > 0` that may be lost."
						}
					],
					"FailedCall()": [
						{
							"details": "A call to an address target failed. The target may have reverted."
						}
					],
					"InvalidInitialization()": [
						{
							"details": "The contract is already initialized."
						}
					],
					"NotInitializing()": [
						{
							"details": "The contract is not initializing."
						}
					],
					"UUPSUnauthorizedCallContext()": [
						{
							"details": "The call is from an unauthorized context."
						}
					],
					"UUPSUnsupportedProxiableUUID(bytes32)": [
						{
							"details": "The storage `slot` is unsupported as a UUID."
						}
					]
				},
				"events": {
					"EmployeeAssigned(address)": {
						"params": {
							"employee": "The address of the newly assigned employee"
						}
					},
					"EmployeeRemoved(address)": {
						"params": {
							"employee": "The address of the removed employee"
						}
					},
					"Initialized(uint64)": {
						"details": "Triggered when the contract has been initialized or reinitialized."
					},
					"OwnerChanged(address,address)": {
						"params": {
							"newOwner": "The address of the new owner",
							"oldOwner": "The address of the previous owner"
						}
					},
					"Upgraded(address)": {
						"details": "Emitted when the implementation is upgraded."
					}
				},
				"kind": "dev",
				"methods": {
					"assignNewEmployee(address)": {
						"details": "Only the owner can assign new employees. Validates role and address.",
						"params": {
							"newEmployee": "Address of the employee to be assigned"
						}
					},
					"changeOwner(address)": {
						"details": "Only the current owner can call this function. Validates the new owner address.",
						"params": {
							"newOwner": "Address of the new owner"
						}
					},
					"hasRole(address)": {
						"params": {
							"account": "Address to check"
						}
					},
					"proxiableUUID()": {
						"details": "Implementation of the ERC-1822 {proxiableUUID} function. This returns the storage slot used by the implementation. It is used to validate the implementation's compatibility when performing an upgrade. IMPORTANT: A proxy pointing at a proxiable contract should not be considered proxiable itself, because this risks bricking a proxy that upgrades to it, by delegating to itself until out of gas. Thus it is critical that this function revert if invoked through a proxy. This is guaranteed by the `notDelegated` modifier."
					},
					"removeEmployee(address)": {
						"details": "Only the owner can remove employee roles. Validates role and current assignment.",
						"params": {
							"employee": "Address of the employee to remove the role from"
						}
					},
					"upgradeToAndCall(address,bytes)": {
						"custom:oz-upgrades-unsafe-allow-reachable": "delegatecall",
						"details": "Upgrade the implementation of the proxy to `newImplementation`, and subsequently execute the function call encoded in `data`. Calls {_authorizeUpgrade}. Emits an {Upgraded} event."
					}
				},
				"title": "Employee Assignment and Management Contract",
				"version": 1
			},
			"evm": {
				"assembly": "    /* \"system/AccesControl.sol\":464:5543  contract AccessControl is UUPSUpgradeable {... */\n  0xa0\n  dup1\n  0x40\n  mstore\n  jumpi(tag_1, callvalue)\n    /* \"@openzeppelin/contracts-upgradeable/proxy/utils/UUPSUpgradeable.sol\":1171:1175  this */\n  address\n    /* \"@openzeppelin/contracts-upgradeable/proxy/utils/UUPSUpgradeable.sol\":1163:1176  address(this) */\n  0x80\n  mstore\n    /* \"system/AccesControl.sol\":464:5543  contract AccessControl is UUPSUpgradeable {... */\n  dataSize(sub_0)\n  swap1\n  dup2\n  dataOffset(sub_0)\n  dup3\n  codecopy\n    /* \"@openzeppelin/contracts-upgradeable/proxy/utils/UUPSUpgradeable.sol\":1163:1176  address(this) */\n  0x80\n    /* \"system/AccesControl.sol\":464:5543  contract AccessControl is UUPSUpgradeable {... */\n  mload\n  dup2\n  assignImmutable(\"0xbf1fcd4bbdcfbc55a741fb1df45db5ad6a5122c50e7ade06e72a5499ae322de6\")\n  return\ntag_1:\n  0x00\n  dup1\n  revert\nstop\n\nsub_0: assembly {\n        /* \"system/AccesControl.sol\":464:5543  contract AccessControl is UUPSUpgradeable {... */\n      mstore(0x40, 0x80)\n      jumpi(tag_6, iszero(lt(calldatasize, 0x04)))\n      0x00\n      dup1\n      revert\n    tag_6:\n      shr(0xe0, calldataload(0x00))\n      dup1\n      0x4f1ef286\n      eq\n      tag_8\n      jumpi\n      dup1\n      0x52d1902d\n      eq\n      tag_10\n      jumpi\n      dup1\n      0x7ef09bca\n      eq\n      tag_12\n      jumpi\n      dup1\n      0x8129fc1c\n      eq\n      tag_14\n      jumpi\n      dup1\n      0x8da5cb5b\n      eq\n      tag_16\n      jumpi\n      dup1\n      0x9047bf58\n      eq\n      tag_18\n      jumpi\n      dup1\n      0xa6f9dae1\n      eq\n      tag_20\n      jumpi\n      dup1\n      0xad3cb1cc\n      eq\n      tag_22\n      jumpi\n      dup1\n      0xb106539c\n      eq\n      tag_24\n      jumpi\n      0xd108177a\n      eq\n      tag_26\n      jumpi\n      0x00\n      dup1\n      revert\n    tag_26:\n      jumpi(tag_30, callvalue)\n      jumpi(tag_30, slt(add(not(0x03), calldatasize), 0x20))\n      tag_32\n      tag_1\n      jump\t// in\n    tag_32:\n      and(sub(shl(0xa0, 0x01), 0x01), sload(0x00))\n        /* \"system/AccesControl.sol\":2257:2267  msg.sender */\n      caller\n        /* \"system/AccesControl.sol\":2257:2276  msg.sender != owner */\n      sub\n        /* \"system/AccesControl.sol\":2254:2295  if(msg.sender != owner) revert NotOwner() */\n      tag_33\n      jumpi\n      sub(shl(0xa0, 0x01), 0x01)\n        /* \"system/AccesControl.sol\":464:5543  contract AccessControl is UUPSUpgradeable {... */\n      and\n      0x00\n      dup2\n      dup2\n      mstore\n        /* \"system/AccesControl.sol\":4213:4222  employees */\n      0x02\n        /* \"system/AccesControl.sol\":464:5543  contract AccessControl is UUPSUpgradeable {... */\n      0x20\n      mstore\n      0x40\n      swap1\n      keccak256\n      sload\n      0xff\n      and\n        /* \"system/AccesControl.sol\":4212:4232  !employees[employee] */\n      iszero\n        /* \"system/AccesControl.sol\":4208:4258  if (!employees[employee]) revert DoesNotHaveRole() */\n      tag_35\n      jumpi\n        /* \"system/AccesControl.sol\":464:5543  contract AccessControl is UUPSUpgradeable {... */\n      dup1\n      0x00\n      mstore\n        /* \"system/AccesControl.sol\":4213:4222  employees */\n      0x02\n        /* \"system/AccesControl.sol\":464:5543  contract AccessControl is UUPSUpgradeable {... */\n      0x20\n      mstore\n      keccak256(0x00, 0x40)\n      not(0xff)\n      dup2\n      sload\n      and\n      swap1\n      sstore\n      sload(0x01)\n      dup1\n      iszero\n      tag_37\n      jumpi\n      not(0x00)\n      add\n      0x01\n      sstore\n        /* \"system/AccesControl.sol\":4435:4460  EmployeeRemoved(employee) */\n      0xabae6e64cb4315875c29d42347a312f5e9fce4ab564e9722b43dd78d0751135a\n        /* \"system/AccesControl.sol\":464:5543  contract AccessControl is UUPSUpgradeable {... */\n      0x00\n      dup1\n        /* \"system/AccesControl.sol\":4435:4460  EmployeeRemoved(employee) */\n      log2\n        /* \"system/AccesControl.sol\":464:5543  contract AccessControl is UUPSUpgradeable {... */\n      stop\n    tag_37:\n      mstore(0x00, shl(0xe0, 0x4e487b71))\n      mstore(0x04, 0x11)\n      revert(0x00, 0x24)\n        /* \"system/AccesControl.sol\":4208:4258  if (!employees[employee]) revert DoesNotHaveRole() */\n    tag_35:\n        /* \"system/AccesControl.sol\":4241:4258  DoesNotHaveRole() */\n      shl(0xe0, 0x8907dbfd)\n        /* \"system/AccesControl.sol\":464:5543  contract AccessControl is UUPSUpgradeable {... */\n      0x00\n        /* \"system/AccesControl.sol\":4241:4258  DoesNotHaveRole() */\n      mstore\n        /* \"system/AccesControl.sol\":464:5543  contract AccessControl is UUPSUpgradeable {... */\n      0x04\n      0x00\n        /* \"system/AccesControl.sol\":4241:4258  DoesNotHaveRole() */\n      revert\n        /* \"system/AccesControl.sol\":2254:2295  if(msg.sender != owner) revert NotOwner() */\n    tag_33:\n        /* \"system/AccesControl.sol\":2285:2295  NotOwner() */\n      shl(0xe0, 0x30cd7471)\n        /* \"system/AccesControl.sol\":464:5543  contract AccessControl is UUPSUpgradeable {... */\n      0x00\n        /* \"system/AccesControl.sol\":2285:2295  NotOwner() */\n      mstore\n        /* \"system/AccesControl.sol\":464:5543  contract AccessControl is UUPSUpgradeable {... */\n      0x04\n      0x00\n        /* \"system/AccesControl.sol\":2285:2295  NotOwner() */\n      revert\n        /* \"system/AccesControl.sol\":464:5543  contract AccessControl is UUPSUpgradeable {... */\n    tag_30:\n      0x00\n      dup1\n      revert\n    tag_24:\n      jumpi(tag_30, callvalue)\n      jumpi(tag_30, slt(add(not(0x03), calldatasize), 0x20))\n      tag_43\n      tag_1\n      jump\t// in\n    tag_43:\n      and(sub(shl(0xa0, 0x01), 0x01), sload(0x00))\n      swap1\n        /* \"system/AccesControl.sol\":2257:2267  msg.sender */\n      caller\n        /* \"system/AccesControl.sol\":2257:2276  msg.sender != owner */\n      dup3\n      swap1\n      sub\n        /* \"system/AccesControl.sol\":2254:2295  if(msg.sender != owner) revert NotOwner() */\n      tag_33\n      jumpi\n        /* \"system/AccesControl.sol\":3395:3406  newEmployee */\n      tag_46\n      dup2\n      tag_4\n      jump\t// in\n    tag_46:\n      sub(shl(0xa0, 0x01), 0x01)\n        /* \"system/AccesControl.sol\":464:5543  contract AccessControl is UUPSUpgradeable {... */\n      and\n      0x00\n      dup2\n      dup2\n      mstore\n        /* \"system/AccesControl.sol\":3498:3507  employees */\n      0x02\n        /* \"system/AccesControl.sol\":464:5543  contract AccessControl is UUPSUpgradeable {... */\n      0x20\n      mstore\n      0x40\n      swap1\n      keccak256\n      sload\n      swap1\n      swap2\n      swap1\n      0xff\n      and\n        /* \"system/AccesControl.sol\":3494:3545  if (employees[newEmployee]) revert AlredyHaveRole() */\n      tag_47\n      jumpi\n        /* \"system/AccesControl.sol\":3560:3580  newEmployee == owner */\n      dup2\n      eq\n        /* \"system/AccesControl.sol\":3556:3612  if (newEmployee == owner) revert OwnerCannotBeEmployee() */\n      tag_49\n      jumpi\n        /* \"system/AccesControl.sol\":464:5543  contract AccessControl is UUPSUpgradeable {... */\n      dup1\n      0x00\n      mstore\n        /* \"system/AccesControl.sol\":3498:3507  employees */\n      0x02\n        /* \"system/AccesControl.sol\":464:5543  contract AccessControl is UUPSUpgradeable {... */\n      0x20\n      mstore\n      keccak256(0x00, 0x40)\n        /* \"system/AccesControl.sol\":3701:3705  true */\n      0x01\n        /* \"system/AccesControl.sol\":464:5543  contract AccessControl is UUPSUpgradeable {... */\n      not(0xff)\n      dup3\n      sload\n      and\n      or\n      swap1\n      sstore\n        /* \"system/AccesControl.sol\":3701:3705  true */\n      0x01\n        /* \"system/AccesControl.sol\":464:5543  contract AccessControl is UUPSUpgradeable {... */\n      sload\n      not(0x00)\n      dup2\n      eq\n      tag_37\n      jumpi\n        /* \"system/AccesControl.sol\":3701:3705  true */\n      0x01\n        /* \"system/AccesControl.sol\":464:5543  contract AccessControl is UUPSUpgradeable {... */\n      add\n        /* \"system/AccesControl.sol\":3701:3705  true */\n      0x01\n        /* \"system/AccesControl.sol\":464:5543  contract AccessControl is UUPSUpgradeable {... */\n      sstore\n        /* \"system/AccesControl.sol\":3791:3820  EmployeeAssigned(newEmployee) */\n      0x7758ff72b16b98313da220996e94c64524b9776307508b4574d8cc21f1aeb9ee\n        /* \"system/AccesControl.sol\":464:5543  contract AccessControl is UUPSUpgradeable {... */\n      0x00\n        /* \"system/AccesControl.sol\":3791:3820  EmployeeAssigned(newEmployee) */\n      dup1\n      log2\n        /* \"system/AccesControl.sol\":464:5543  contract AccessControl is UUPSUpgradeable {... */\n      stop\n        /* \"system/AccesControl.sol\":3556:3612  if (newEmployee == owner) revert OwnerCannotBeEmployee() */\n    tag_49:\n        /* \"system/AccesControl.sol\":3589:3612  OwnerCannotBeEmployee() */\n      shl(0xe2, 0x137dafb7)\n        /* \"system/AccesControl.sol\":464:5543  contract AccessControl is UUPSUpgradeable {... */\n      0x00\n        /* \"system/AccesControl.sol\":3589:3612  OwnerCannotBeEmployee() */\n      mstore\n        /* \"system/AccesControl.sol\":464:5543  contract AccessControl is UUPSUpgradeable {... */\n      0x04\n      0x00\n        /* \"system/AccesControl.sol\":3589:3612  OwnerCannotBeEmployee() */\n      revert\n        /* \"system/AccesControl.sol\":3494:3545  if (employees[newEmployee]) revert AlredyHaveRole() */\n    tag_47:\n        /* \"system/AccesControl.sol\":3529:3545  AlredyHaveRole() */\n      shl(0xe5, 0x03488cd7)\n        /* \"system/AccesControl.sol\":464:5543  contract AccessControl is UUPSUpgradeable {... */\n      0x00\n        /* \"system/AccesControl.sol\":3529:3545  AlredyHaveRole() */\n      mstore\n        /* \"system/AccesControl.sol\":464:5543  contract AccessControl is UUPSUpgradeable {... */\n      0x04\n      0x00\n        /* \"system/AccesControl.sol\":3529:3545  AlredyHaveRole() */\n      revert\n        /* \"system/AccesControl.sol\":464:5543  contract AccessControl is UUPSUpgradeable {... */\n    tag_22:\n      jumpi(tag_30, callvalue)\n      jumpi(tag_30, slt(add(not(0x03), calldatasize), 0x00))\n      0x40\n      dup1\n      mload\n      swap1\n      tag_57\n      dup2\n      dup4\n      tag_2\n      jump\t// in\n    tag_57:\n      0x05\n      dup3\n      mstore\n      0x20\n      dup3\n      add\n      swap2\n      shl(0xdc, 0x0352e302e3)\n      dup4\n      mstore\n      dup2\n      mload\n      swap3\n      dup4\n      swap2\n      0x20\n      dup4\n      mstore\n      mload\n      dup1\n      swap2\n      dup2\n      0x20\n      dup6\n      add\n      mstore\n      dup5\n      dup5\n      add\n      mcopy\n      0x00\n      dup3\n      dup3\n      add\n      dup5\n      add\n      mstore\n      0x1f\n      add\n      not(0x1f)\n      and\n      dup2\n      add\n      sub\n      add\n      swap1\n      return\n    tag_20:\n      jumpi(tag_30, callvalue)\n      jumpi(tag_30, slt(add(not(0x03), calldatasize), 0x20))\n      tag_62\n      tag_1\n      jump\t// in\n    tag_62:\n      sload(0x00)\n      swap1\n      sub(shl(0xa0, 0x01), 0x01)\n      dup3\n      and\n      swap1\n        /* \"system/AccesControl.sol\":2257:2267  msg.sender */\n      caller\n        /* \"system/AccesControl.sol\":2257:2276  msg.sender != owner */\n      dup3\n      swap1\n      sub\n        /* \"system/AccesControl.sol\":2254:2295  if(msg.sender != owner) revert NotOwner() */\n      tag_33\n      jumpi\n        /* \"system/AccesControl.sol\":5065:5073  newOwner */\n      tag_65\n      dup2\n      tag_4\n      jump\t// in\n    tag_65:\n        /* \"system/AccesControl.sol\":5169:5179  msg.sender */\n      tag_66\n        /* \"system/AccesControl.sol\":2257:2267  msg.sender */\n      caller\n        /* \"system/AccesControl.sol\":5169:5179  msg.sender */\n      tag_4\n      jump\t// in\n    tag_66:\n        /* \"system/AccesControl.sol\":464:5543  contract AccessControl is UUPSUpgradeable {... */\n      0x01\n      dup1\n      0xa0\n      shl\n      sub\n      and\n      dup1\n      swap3\n      shl(0xa0, 0xffffffffffffffffffffffff)\n      and\n      or\n      0x00\n      sstore\n        /* \"system/AccesControl.sol\":5410:5442  OwnerChanged(oldOwner, newOwner) */\n      0xb532073b38c83145e3e5135377a08bf9aab55bc0fd7c1179cd4fb995d2a5159c\n        /* \"system/AccesControl.sol\":464:5543  contract AccessControl is UUPSUpgradeable {... */\n      0x00\n        /* \"system/AccesControl.sol\":5410:5442  OwnerChanged(oldOwner, newOwner) */\n      dup1\n      log3\n        /* \"system/AccesControl.sol\":464:5543  contract AccessControl is UUPSUpgradeable {... */\n      stop\n    tag_18:\n      jumpi(tag_30, callvalue)\n      jumpi(tag_30, slt(add(not(0x03), calldatasize), 0x00))\n      0x20\n        /* \"system/AccesControl.sol\":773:798  uint public employeeCount */\n      0x01\n        /* \"system/AccesControl.sol\":464:5543  contract AccessControl is UUPSUpgradeable {... */\n      sload\n      mload(0x40)\n      swap1\n      dup2\n      mstore\n      return\n    tag_16:\n      jumpi(tag_30, callvalue)\n      jumpi(tag_30, slt(add(not(0x03), calldatasize), 0x00))\n      sload(0x00)\n      mload(0x40)\n      sub(shl(0xa0, 0x01), 0x01)\n      swap1\n      swap2\n      and\n      dup2\n      mstore\n      0x20\n      swap1\n      return\n    tag_14:\n      jumpi(tag_30, callvalue)\n      jumpi(tag_30, slt(add(not(0x03), calldatasize), 0x00))\n      mload(0x00)\n      codecopy(0x00, data_e28a5566b8a884201ab44e2d991177ce8b88325e02e52cbc3da6e67b3ecf29c6, 0x20)\n      mload(0x00)\n      swap1\n      0x00\n      mstore\n      sload\n      0xff\n      dup2\n      0x40\n      shr\n      and\n        /* \"@openzeppelin/contracts-upgradeable/proxy/utils/Initializable.sol\":4301:4317  !$._initializing */\n      iszero\n        /* \"system/AccesControl.sol\":464:5543  contract AccessControl is UUPSUpgradeable {... */\n      swap1\n      0xffffffffffffffff\n      dup2\n      and\n        /* \"@openzeppelin/contracts-upgradeable/proxy/utils/Initializable.sol\":4724:4740  initialized == 0 */\n      dup1\n      iszero\n        /* \"@openzeppelin/contracts-upgradeable/proxy/utils/Initializable.sol\":4724:4758  initialized == 0 && isTopLevelCall */\n      swap1\n      dup2\n      tag_79\n      jumpi\n        /* \"system/AccesControl.sol\":464:5543  contract AccessControl is UUPSUpgradeable {... */\n    tag_80:\n        /* \"@openzeppelin/contracts-upgradeable/proxy/utils/Initializable.sol\":4803:4804  1 */\n      0x01\n        /* \"@openzeppelin/contracts-upgradeable/proxy/utils/Initializable.sol\":4788:4804  initialized == 1 */\n      eq\n        /* \"@openzeppelin/contracts-upgradeable/proxy/utils/Initializable.sol\":4788:4838  initialized == 1 && address(this).code.length == 0 */\n      swap1\n      dup2\n      tag_81\n      jumpi\n        /* \"system/AccesControl.sol\":464:5543  contract AccessControl is UUPSUpgradeable {... */\n    tag_82:\n        /* \"@openzeppelin/contracts-upgradeable/proxy/utils/Initializable.sol\":4853:4866  !initialSetup */\n      iszero\n        /* \"@openzeppelin/contracts-upgradeable/proxy/utils/Initializable.sol\":4853:4883  !initialSetup && !construction */\n      swap1\n      dup2\n      tag_83\n      jumpi\n        /* \"system/AccesControl.sol\":464:5543  contract AccessControl is UUPSUpgradeable {... */\n    tag_84:\n        /* \"@openzeppelin/contracts-upgradeable/proxy/utils/Initializable.sol\":4849:4940  if (!initialSetup && !construction) {... */\n      pop\n      tag_85\n      jumpi\n      not(0xffffffffffffffff)\n        /* \"system/AccesControl.sol\":464:5543  contract AccessControl is UUPSUpgradeable {... */\n      dup2\n      and\n        /* \"@openzeppelin/contracts-upgradeable/proxy/utils/Initializable.sol\":4803:4804  1 */\n      0x01\n        /* \"system/AccesControl.sol\":464:5543  contract AccessControl is UUPSUpgradeable {... */\n      or\n      mload(0x00)\n      codecopy(0x00, data_e28a5566b8a884201ab44e2d991177ce8b88325e02e52cbc3da6e67b3ecf29c6, 0x20)\n      mload(0x00)\n      swap1\n      0x00\n      mstore\n      sstore\n      dup2\n        /* \"@openzeppelin/contracts-upgradeable/proxy/utils/Initializable.sol\":4977:5044  if (isTopLevelCall) {... */\n      tag_87\n      jumpi\n        /* \"system/AccesControl.sol\":464:5543  contract AccessControl is UUPSUpgradeable {... */\n    tag_88:\n      pop\n      mload(0x00)\n      codecopy(0x00, data_e28a5566b8a884201ab44e2d991177ce8b88325e02e52cbc3da6e67b3ecf29c6, 0x20)\n      mload(0x00)\n      swap1\n      0x00\n      mstore\n      sload\n      swap1\n      0xff\n      dup3\n      0x40\n      shr\n      and\n        /* \"@openzeppelin/contracts-upgradeable/proxy/utils/Initializable.sol\":7148:7166  !_isInitializing() */\n      iszero\n        /* \"@openzeppelin/contracts-upgradeable/proxy/utils/Initializable.sol\":7144:7217  if (!_isInitializing()) {... */\n      tag_89\n      jumpi\n        /* \"system/AccesControl.sol\":464:5543  contract AccessControl is UUPSUpgradeable {... */\n      0x00\n      dup1\n      sload\n      not(sub(shl(0xa0, 0x01), 0x01))\n      and\n        /* \"system/AccesControl.sol\":2014:2024  msg.sender */\n      caller\n        /* \"system/AccesControl.sol\":464:5543  contract AccessControl is UUPSUpgradeable {... */\n      or\n      swap1\n      sstore\n        /* \"@openzeppelin/contracts-upgradeable/proxy/utils/Initializable.sol\":5064:5165  if (isTopLevelCall) {... */\n      tag_91\n      jumpi\n        /* \"system/AccesControl.sol\":464:5543  contract AccessControl is UUPSUpgradeable {... */\n      stop\n        /* \"@openzeppelin/contracts-upgradeable/proxy/utils/Initializable.sol\":5064:5165  if (isTopLevelCall) {... */\n    tag_91:\n        /* \"system/AccesControl.sol\":464:5543  contract AccessControl is UUPSUpgradeable {... */\n      not(0xff0000000000000000)\n      and\n      mload(0x00)\n      codecopy(0x00, data_e28a5566b8a884201ab44e2d991177ce8b88325e02e52cbc3da6e67b3ecf29c6, 0x20)\n      mload(0x00)\n      swap1\n      0x00\n      mstore\n      sstore\n        /* \"@openzeppelin/contracts-upgradeable/proxy/utils/Initializable.sol\":5140:5154  Initialized(1) */\n      0xc7f505b2f371ae2175ee4913f4499e1f2633a7b5936321eed1cdaeb6115181d2\n        /* \"system/AccesControl.sol\":464:5543  contract AccessControl is UUPSUpgradeable {... */\n      0x20\n      mload(0x40)\n        /* \"@openzeppelin/contracts-upgradeable/proxy/utils/Initializable.sol\":4803:4804  1 */\n      0x01\n        /* \"system/AccesControl.sol\":464:5543  contract AccessControl is UUPSUpgradeable {... */\n      dup2\n      mstore\n        /* \"@openzeppelin/contracts-upgradeable/proxy/utils/Initializable.sol\":5140:5154  Initialized(1) */\n      log1\n        /* \"system/AccesControl.sol\":464:5543  contract AccessControl is UUPSUpgradeable {... */\n      stop\n        /* \"@openzeppelin/contracts-upgradeable/proxy/utils/Initializable.sol\":7144:7217  if (!_isInitializing()) {... */\n    tag_89:\n        /* \"@openzeppelin/contracts-upgradeable/proxy/utils/Initializable.sol\":7189:7206  NotInitializing() */\n      shl(0xe3, 0x1afcd79f)\n        /* \"system/AccesControl.sol\":464:5543  contract AccessControl is UUPSUpgradeable {... */\n      0x00\n        /* \"@openzeppelin/contracts-upgradeable/proxy/utils/Initializable.sol\":7189:7206  NotInitializing() */\n      mstore\n        /* \"system/AccesControl.sol\":464:5543  contract AccessControl is UUPSUpgradeable {... */\n      0x04\n      0x00\n        /* \"@openzeppelin/contracts-upgradeable/proxy/utils/Initializable.sol\":7189:7206  NotInitializing() */\n      revert\n        /* \"@openzeppelin/contracts-upgradeable/proxy/utils/Initializable.sol\":4977:5044  if (isTopLevelCall) {... */\n    tag_87:\n      not(0xffffffffffffffffff)\n        /* \"system/AccesControl.sol\":464:5543  contract AccessControl is UUPSUpgradeable {... */\n      and\n      0x010000000000000001\n      or\n      mload(0x00)\n      codecopy(0x00, data_e28a5566b8a884201ab44e2d991177ce8b88325e02e52cbc3da6e67b3ecf29c6, 0x20)\n      mload(0x00)\n      swap1\n      0x00\n      mstore\n      sstore\n        /* \"@openzeppelin/contracts-upgradeable/proxy/utils/Initializable.sol\":4977:5044  if (isTopLevelCall) {... */\n      dup2\n      jump(tag_88)\n        /* \"@openzeppelin/contracts-upgradeable/proxy/utils/Initializable.sol\":4849:4940  if (!initialSetup && !construction) {... */\n    tag_85:\n        /* \"@openzeppelin/contracts-upgradeable/proxy/utils/Initializable.sol\":4906:4929  InvalidInitialization() */\n      shl(0xe0, 0xf92ee8a9)\n        /* \"system/AccesControl.sol\":464:5543  contract AccessControl is UUPSUpgradeable {... */\n      0x00\n        /* \"@openzeppelin/contracts-upgradeable/proxy/utils/Initializable.sol\":4906:4929  InvalidInitialization() */\n      mstore\n        /* \"system/AccesControl.sol\":464:5543  contract AccessControl is UUPSUpgradeable {... */\n      0x04\n      0x00\n        /* \"@openzeppelin/contracts-upgradeable/proxy/utils/Initializable.sol\":4906:4929  InvalidInitialization() */\n      revert\n        /* \"@openzeppelin/contracts-upgradeable/proxy/utils/Initializable.sol\":4853:4883  !initialSetup && !construction */\n    tag_83:\n        /* \"@openzeppelin/contracts-upgradeable/proxy/utils/Initializable.sol\":4870:4883  !construction */\n      swap1\n      pop\n      iszero\n        /* \"@openzeppelin/contracts-upgradeable/proxy/utils/Initializable.sol\":4853:4883  !initialSetup && !construction */\n      dup4\n      jump(tag_84)\n        /* \"@openzeppelin/contracts-upgradeable/proxy/utils/Initializable.sol\":4788:4838  initialized == 1 && address(this).code.length == 0 */\n    tag_81:\n        /* \"@openzeppelin/contracts-upgradeable/proxy/utils/Initializable.sol\":4816:4820  this */\n      address\n        /* \"@openzeppelin/contracts-upgradeable/proxy/utils/Initializable.sol\":4808:4833  address(this).code.length */\n      extcodesize\n        /* \"@openzeppelin/contracts-upgradeable/proxy/utils/Initializable.sol\":4808:4838  address(this).code.length == 0 */\n      iszero\n      swap2\n      pop\n        /* \"@openzeppelin/contracts-upgradeable/proxy/utils/Initializable.sol\":4788:4838  initialized == 1 && address(this).code.length == 0 */\n      jump(tag_82)\n        /* \"@openzeppelin/contracts-upgradeable/proxy/utils/Initializable.sol\":4724:4758  initialized == 0 && isTopLevelCall */\n    tag_79:\n      dup4\n      swap2\n      pop\n      jump(tag_80)\n        /* \"system/AccesControl.sol\":464:5543  contract AccessControl is UUPSUpgradeable {... */\n    tag_12:\n      jumpi(tag_30, callvalue)\n      jumpi(tag_30, slt(add(not(0x03), calldatasize), 0x20))\n      sub(shl(0xa0, 0x01), 0x01)\n      tag_97\n      tag_1\n      jump\t// in\n    tag_97:\n      and\n      0x00\n      mstore\n        /* \"system/AccesControl.sol\":4676:4685  employees */\n      0x02\n        /* \"system/AccesControl.sol\":464:5543  contract AccessControl is UUPSUpgradeable {... */\n      0x20\n      mstore\n      0x20\n      and(sload(keccak256(0x00, 0x40)), 0xff)\n      mload(0x40)\n      swap1\n      iszero\n      iszero\n      dup2\n      mstore\n      return\n    tag_10:\n      jumpi(tag_30, callvalue)\n      jumpi(tag_30, slt(add(not(0x03), calldatasize), 0x00))\n        /* \"@openzeppelin/contracts-upgradeable/proxy/utils/UUPSUpgradeable.sol\":5090:5096  __self */\n      immutable(\"0xbf1fcd4bbdcfbc55a741fb1df45db5ad6a5122c50e7ade06e72a5499ae322de6\")\n      sub(shl(0xa0, 0x01), 0x01)\n        /* \"system/AccesControl.sol\":464:5543  contract AccessControl is UUPSUpgradeable {... */\n      and\n        /* \"@openzeppelin/contracts-upgradeable/proxy/utils/UUPSUpgradeable.sol\":5081:5085  this */\n      address\n        /* \"@openzeppelin/contracts-upgradeable/proxy/utils/UUPSUpgradeable.sol\":5073:5096  address(this) != __self */\n      sub\n        /* \"@openzeppelin/contracts-upgradeable/proxy/utils/UUPSUpgradeable.sol\":5069:5214  if (address(this) != __self) {... */\n      tag_102\n      jumpi\n        /* \"system/AccesControl.sol\":464:5543  contract AccessControl is UUPSUpgradeable {... */\n      0x20\n      mload(0x40)\n      mload(0x00)\n      codecopy(0x00, data_75b20eef8615de99c108b05f0dbda081c91897128caa336d75dffb97c4132b4d, 0x20)\n      mload(0x00)\n      swap1\n      0x00\n      mstore\n      dup2\n      mstore\n      return\n        /* \"@openzeppelin/contracts-upgradeable/proxy/utils/UUPSUpgradeable.sol\":5069:5214  if (address(this) != __self) {... */\n    tag_102:\n        /* \"@openzeppelin/contracts-upgradeable/proxy/utils/UUPSUpgradeable.sol\":4844:4873  UUPSUnauthorizedCallContext() */\n      shl(0xe1, 0x703e46dd)\n        /* \"system/AccesControl.sol\":464:5543  contract AccessControl is UUPSUpgradeable {... */\n      0x00\n        /* \"@openzeppelin/contracts-upgradeable/proxy/utils/UUPSUpgradeable.sol\":5174:5203  UUPSUnauthorizedCallContext() */\n      mstore\n        /* \"system/AccesControl.sol\":464:5543  contract AccessControl is UUPSUpgradeable {... */\n      0x04\n      0x00\n        /* \"@openzeppelin/contracts-upgradeable/proxy/utils/UUPSUpgradeable.sol\":5174:5203  UUPSUnauthorizedCallContext() */\n      revert\n        /* \"system/AccesControl.sol\":464:5543  contract AccessControl is UUPSUpgradeable {... */\n    tag_8:\n      jumpi(tag_30, slt(add(not(0x03), calldatasize), 0x40))\n      tag_106\n      tag_1\n      jump\t// in\n    tag_106:\n      calldataload(0x24)\n      swap1\n      0xffffffffffffffff\n      dup3\n      gt\n      tag_30\n      jumpi\n      calldatasize\n      0x23\n      dup4\n      add\n      slt\n      iszero\n      tag_30\n      jumpi\n      dup2\n      0x04\n      add\n      calldataload\n      swap1\n      tag_111\n      dup3\n      tag_3\n      jump\t// in\n    tag_111:\n      swap2\n      tag_112\n      mload(0x40)\n      swap4\n      dup5\n      tag_2\n      jump\t// in\n    tag_112:\n      dup1\n      dup4\n      mstore\n      0x20\n      dup4\n      add\n      swap4\n      calldatasize\n      0x24\n      dup4\n      dup4\n      add\n      add\n      gt\n      tag_30\n      jumpi\n      dup2\n      0x00\n      swap3\n      0x24\n      0x20\n      swap4\n      add\n      dup8\n      calldatacopy\n      dup5\n      add\n      add\n      mstore\n      sub(shl(0xa0, 0x01), 0x01)\n        /* \"@openzeppelin/contracts-upgradeable/proxy/utils/UUPSUpgradeable.sol\":4667:4673  __self */\n      immutable(\"0xbf1fcd4bbdcfbc55a741fb1df45db5ad6a5122c50e7ade06e72a5499ae322de6\")\n        /* \"system/AccesControl.sol\":464:5543  contract AccessControl is UUPSUpgradeable {... */\n      and\n        /* \"@openzeppelin/contracts-upgradeable/proxy/utils/UUPSUpgradeable.sol\":4658:4662  this */\n      address\n        /* \"@openzeppelin/contracts-upgradeable/proxy/utils/UUPSUpgradeable.sol\":4650:4673  address(this) == __self */\n      dup2\n      eq\n      swap1\n        /* \"@openzeppelin/contracts-upgradeable/proxy/utils/UUPSUpgradeable.sol\":4650:4770  address(this) == __self || // Must be called through delegatecall... */\n      dup2\n      iszero\n      tag_115\n      jumpi\n        /* \"system/AccesControl.sol\":464:5543  contract AccessControl is UUPSUpgradeable {... */\n    tag_116:\n        /* \"@openzeppelin/contracts-upgradeable/proxy/utils/UUPSUpgradeable.sol\":4633:4884  if (... */\n      pop\n      tag_102\n      jumpi\n        /* \"system/AccesControl.sol\":464:5543  contract AccessControl is UUPSUpgradeable {... */\n      and(sub(shl(0xa0, 0x01), 0x01), sload(0x00))\n        /* \"system/AccesControl.sol\":2257:2267  msg.sender */\n      caller\n        /* \"system/AccesControl.sol\":2257:2276  msg.sender != owner */\n      sub\n        /* \"system/AccesControl.sol\":2254:2295  if(msg.sender != owner) revert NotOwner() */\n      tag_33\n      jumpi\n        /* \"system/AccesControl.sol\":464:5543  contract AccessControl is UUPSUpgradeable {... */\n      mload(0x40)\n      shl(0xe0, 0x52d1902d)\n        /* \"@openzeppelin/contracts-upgradeable/proxy/utils/UUPSUpgradeable.sol\":6131:6183  IERC1822Proxiable(newImplementation).proxiableUUID() */\n      dup2\n      mstore\n      sub(shl(0xa0, 0x01), 0x01)\n        /* \"system/AccesControl.sol\":464:5543  contract AccessControl is UUPSUpgradeable {... */\n      dup3\n      and\n      swap4\n      swap1\n      0x20\n      dup2\n      0x04\n      dup2\n      dup9\n        /* \"@openzeppelin/contracts-upgradeable/proxy/utils/UUPSUpgradeable.sol\":6131:6183  IERC1822Proxiable(newImplementation).proxiableUUID() */\n      gas\n      staticcall\n        /* \"system/AccesControl.sol\":464:5543  contract AccessControl is UUPSUpgradeable {... */\n      0x00\n      swap2\n        /* \"@openzeppelin/contracts-upgradeable/proxy/utils/UUPSUpgradeable.sol\":6131:6183  IERC1822Proxiable(newImplementation).proxiableUUID() */\n      dup2\n      tag_121\n      jumpi\n        /* \"system/AccesControl.sol\":464:5543  contract AccessControl is UUPSUpgradeable {... */\n    tag_122:\n      pop\n        /* \"@openzeppelin/contracts-upgradeable/proxy/utils/UUPSUpgradeable.sol\":6127:6564  try IERC1822Proxiable(newImplementation).proxiableUUID() returns (bytes32 slot) {... */\n      tag_123\n      jumpi\n        /* \"@openzeppelin/contracts/proxy/ERC1967/ERC1967Utils.sol\":1805:1852  ERC1967InvalidImplementation(newImplementation) */\n      dup5\n      shl(0xe0, 0x4c9c8ce3)\n        /* \"system/AccesControl.sol\":464:5543  contract AccessControl is UUPSUpgradeable {... */\n      0x00\n        /* \"@openzeppelin/contracts-upgradeable/proxy/utils/UUPSUpgradeable.sol\":6493:6553  ERC1967Utils.ERC1967InvalidImplementation(newImplementation) */\n      mstore\n        /* \"system/AccesControl.sol\":464:5543  contract AccessControl is UUPSUpgradeable {... */\n      0x04\n      mstore\n      0x24\n      0x00\n        /* \"@openzeppelin/contracts-upgradeable/proxy/utils/UUPSUpgradeable.sol\":6493:6553  ERC1967Utils.ERC1967InvalidImplementation(newImplementation) */\n      revert\n        /* \"@openzeppelin/contracts-upgradeable/proxy/utils/UUPSUpgradeable.sol\":6127:6564  try IERC1822Proxiable(newImplementation).proxiableUUID() returns (bytes32 slot) {... */\n    tag_123:\n        /* \"@openzeppelin/contracts-upgradeable/proxy/utils/UUPSUpgradeable.sol\":6225:6265  slot != ERC1967Utils.IMPLEMENTATION_SLOT */\n      dup1\n      mload(0x00)\n      codecopy(0x00, data_75b20eef8615de99c108b05f0dbda081c91897128caa336d75dffb97c4132b4d, 0x20)\n      mload(0x00)\n      swap1\n      0x00\n      mstore\n      dup7\n      swap3\n      sub\n        /* \"@openzeppelin/contracts-upgradeable/proxy/utils/UUPSUpgradeable.sol\":6221:6341  if (slot != ERC1967Utils.IMPLEMENTATION_SLOT) {... */\n      tag_125\n      jumpi\n        /* \"@openzeppelin/contracts/proxy/ERC1967/ERC1967Utils.sol\":1748:1777  newImplementation.code.length */\n      pop\n      dup3\n      extcodesize\n        /* \"@openzeppelin/contracts/proxy/ERC1967/ERC1967Utils.sol\":1748:1782  newImplementation.code.length == 0 */\n      iszero\n        /* \"@openzeppelin/contracts/proxy/ERC1967/ERC1967Utils.sol\":1744:1863  if (newImplementation.code.length == 0) {... */\n      tag_127\n      jumpi\n      mload(0x00)\n      codecopy(0x00, data_75b20eef8615de99c108b05f0dbda081c91897128caa336d75dffb97c4132b4d, 0x20)\n      mload(0x00)\n      swap1\n      0x00\n      mstore\n        /* \"system/AccesControl.sol\":464:5543  contract AccessControl is UUPSUpgradeable {... */\n      dup1\n      sload\n      not(sub(shl(0xa0, 0x01), 0x01))\n      and\n      dup3\n      or\n      swap1\n      sstore\n        /* \"@openzeppelin/contracts/proxy/ERC1967/ERC1967Utils.sol\":2407:2443  IERC1967.Upgraded(newImplementation) */\n      0xbc7cd75a20ee27fd9adebab32041f755214dbc6bffa90cc0225b39da2e5c2d3b\n      0x00\n      dup1\n      log2\n        /* \"system/AccesControl.sol\":464:5543  contract AccessControl is UUPSUpgradeable {... */\n      dup3\n      mload\n        /* \"@openzeppelin/contracts/proxy/ERC1967/ERC1967Utils.sol\":2458:2473  data.length > 0 */\n      iszero\n        /* \"@openzeppelin/contracts/proxy/ERC1967/ERC1967Utils.sol\":2458:2469  data.length */\n      tag_129\n      jumpi\n        /* \"system/AccesControl.sol\":464:5543  contract AccessControl is UUPSUpgradeable {... */\n      0x00\n        /* \"@openzeppelin/contracts/utils/Address.sol\":4065:4090  target.delegatecall(data) */\n      dup1\n      swap2\n        /* \"@openzeppelin/contracts/utils/Address.sol\":4107:4162  verifyCallResultFromTarget(target, success, returndata) */\n      tag_131\n        /* \"@openzeppelin/contracts/utils/Address.sol\":4065:4090  target.delegatecall(data) */\n      swap5\n      mload\n      swap1\n      dup5\n      gas\n      delegatecall\n        /* \"system/AccesControl.sol\":464:5543  contract AccessControl is UUPSUpgradeable {... */\n      jumpi(tag_132, iszero(returndatasize))\n      returndatasize\n      swap2\n      tag_134\n      dup4\n      tag_3\n      jump\t// in\n    tag_134:\n      swap3\n      tag_135\n      mload(0x40)\n      swap5\n      dup6\n      tag_2\n      jump\t// in\n    tag_135:\n      dup4\n      mstore\n      returndatasize\n      0x00\n      0x20\n      dup6\n      add\n      returndatacopy\n        /* \"@openzeppelin/contracts/utils/Address.sol\":4107:4162  verifyCallResultFromTarget(target, success, returndata) */\n      tag_5\n      jump\t// in\n    tag_131:\n        /* \"system/AccesControl.sol\":464:5543  contract AccessControl is UUPSUpgradeable {... */\n      stop\n    tag_132:\n      0x60\n      swap2\n        /* \"@openzeppelin/contracts/utils/Address.sol\":4107:4162  verifyCallResultFromTarget(target, success, returndata) */\n      tag_5\n      jump\t// in\n        /* \"@openzeppelin/contracts/proxy/ERC1967/ERC1967Utils.sol\":2454:2602  if (data.length > 0) {... */\n    tag_129:\n        /* \"@openzeppelin/contracts/proxy/ERC1967/ERC1967Utils.sol\":6163:6172  msg.value */\n      pop\n      pop\n      pop\n      callvalue\n        /* \"@openzeppelin/contracts/proxy/ERC1967/ERC1967Utils.sol\":6159:6229  if (msg.value > 0) {... */\n      tag_138\n      jumpi\n        /* \"system/AccesControl.sol\":464:5543  contract AccessControl is UUPSUpgradeable {... */\n      stop\n        /* \"@openzeppelin/contracts/proxy/ERC1967/ERC1967Utils.sol\":6159:6229  if (msg.value > 0) {... */\n    tag_138:\n        /* \"@openzeppelin/contracts/proxy/ERC1967/ERC1967Utils.sol\":6199:6218  ERC1967NonPayable() */\n      shl(0xe0, 0xb398979f)\n        /* \"system/AccesControl.sol\":464:5543  contract AccessControl is UUPSUpgradeable {... */\n      0x00\n        /* \"@openzeppelin/contracts/proxy/ERC1967/ERC1967Utils.sol\":6199:6218  ERC1967NonPayable() */\n      mstore\n        /* \"system/AccesControl.sol\":464:5543  contract AccessControl is UUPSUpgradeable {... */\n      0x04\n      0x00\n        /* \"@openzeppelin/contracts/proxy/ERC1967/ERC1967Utils.sol\":6199:6218  ERC1967NonPayable() */\n      revert\n        /* \"@openzeppelin/contracts/proxy/ERC1967/ERC1967Utils.sol\":1744:1863  if (newImplementation.code.length == 0) {... */\n    tag_127:\n        /* \"@openzeppelin/contracts/proxy/ERC1967/ERC1967Utils.sol\":1805:1852  ERC1967InvalidImplementation(newImplementation) */\n      shl(0xe0, 0x4c9c8ce3)\n        /* \"system/AccesControl.sol\":464:5543  contract AccessControl is UUPSUpgradeable {... */\n      0x00\n        /* \"@openzeppelin/contracts/proxy/ERC1967/ERC1967Utils.sol\":1805:1852  ERC1967InvalidImplementation(newImplementation) */\n      mstore\n        /* \"system/AccesControl.sol\":464:5543  contract AccessControl is UUPSUpgradeable {... */\n      0x04\n      mstore\n      0x24\n      0x00\n        /* \"@openzeppelin/contracts/proxy/ERC1967/ERC1967Utils.sol\":1805:1852  ERC1967InvalidImplementation(newImplementation) */\n      revert\n        /* \"@openzeppelin/contracts-upgradeable/proxy/utils/UUPSUpgradeable.sol\":6221:6341  if (slot != ERC1967Utils.IMPLEMENTATION_SLOT) {... */\n    tag_125:\n        /* \"@openzeppelin/contracts-upgradeable/proxy/utils/UUPSUpgradeable.sol\":6292:6326  UUPSUnsupportedProxiableUUID(slot) */\n      shl(0xe2, 0x2a875269)\n        /* \"system/AccesControl.sol\":464:5543  contract AccessControl is UUPSUpgradeable {... */\n      0x00\n        /* \"@openzeppelin/contracts-upgradeable/proxy/utils/UUPSUpgradeable.sol\":6292:6326  UUPSUnsupportedProxiableUUID(slot) */\n      mstore\n        /* \"system/AccesControl.sol\":464:5543  contract AccessControl is UUPSUpgradeable {... */\n      0x04\n      mstore\n      0x24\n      0x00\n        /* \"@openzeppelin/contracts-upgradeable/proxy/utils/UUPSUpgradeable.sol\":6292:6326  UUPSUnsupportedProxiableUUID(slot) */\n      revert\n        /* \"@openzeppelin/contracts-upgradeable/proxy/utils/UUPSUpgradeable.sol\":6131:6183  IERC1822Proxiable(newImplementation).proxiableUUID() */\n    tag_121:\n      swap1\n      swap2\n      pop\n        /* \"system/AccesControl.sol\":464:5543  contract AccessControl is UUPSUpgradeable {... */\n      0x20\n        /* \"@openzeppelin/contracts-upgradeable/proxy/utils/UUPSUpgradeable.sol\":6131:6183  IERC1822Proxiable(newImplementation).proxiableUUID() */\n      dup2\n      returndatasize\n        /* \"system/AccesControl.sol\":464:5543  contract AccessControl is UUPSUpgradeable {... */\n      0x20\n        /* \"@openzeppelin/contracts-upgradeable/proxy/utils/UUPSUpgradeable.sol\":6131:6183  IERC1822Proxiable(newImplementation).proxiableUUID() */\n      gt\n      tag_140\n      jumpi\n    tag_141:\n      dup2\n      tag_142\n        /* \"system/AccesControl.sol\":464:5543  contract AccessControl is UUPSUpgradeable {... */\n      0x20\n        /* \"@openzeppelin/contracts-upgradeable/proxy/utils/UUPSUpgradeable.sol\":6131:6183  IERC1822Proxiable(newImplementation).proxiableUUID() */\n      swap4\n      dup4\n      tag_2\n      jump\t// in\n    tag_142:\n      dup2\n      add\n        /* \"system/AccesControl.sol\":464:5543  contract AccessControl is UUPSUpgradeable {... */\n      sub\n      slt\n      tag_30\n      jumpi\n      mload\n        /* \"@openzeppelin/contracts-upgradeable/proxy/utils/UUPSUpgradeable.sol\":6131:6183  IERC1822Proxiable(newImplementation).proxiableUUID() */\n      swap1\n      dup7\n      jump(tag_122)\n    tag_140:\n      returndatasize\n      swap2\n      pop\n      jump(tag_141)\n        /* \"@openzeppelin/contracts-upgradeable/proxy/utils/UUPSUpgradeable.sol\":4650:4770  address(this) == __self || // Must be called through delegatecall... */\n    tag_115:\n      mload(0x00)\n      codecopy(0x00, data_75b20eef8615de99c108b05f0dbda081c91897128caa336d75dffb97c4132b4d, 0x20)\n      mload(0x00)\n      swap1\n      0x00\n      mstore\n        /* \"system/AccesControl.sol\":464:5543  contract AccessControl is UUPSUpgradeable {... */\n      sload\n      sub(shl(0xa0, 0x01), 0x01)\n      and\n        /* \"@openzeppelin/contracts-upgradeable/proxy/utils/UUPSUpgradeable.sol\":4728:4770  ERC1967Utils.getImplementation() != __self */\n      eq\n      iszero\n      swap1\n      pop\n        /* \"@openzeppelin/contracts-upgradeable/proxy/utils/UUPSUpgradeable.sol\":4650:4770  address(this) == __self || // Must be called through delegatecall... */\n      dup5\n      jump(tag_116)\n        /* \"system/AccesControl.sol\":464:5543  contract AccessControl is UUPSUpgradeable {... */\n    tag_1:\n      calldataload(0x04)\n      swap1\n      sub(shl(0xa0, 0x01), 0x01)\n      dup3\n      and\n      dup3\n      sub\n      tag_30\n      jumpi\n      jump\t// out\n    tag_2:\n      swap1\n      0x1f\n      dup1\n      not\n      swap2\n      add\n      and\n      dup2\n      add\n      swap1\n      dup2\n      lt\n      0xffffffffffffffff\n      dup3\n      gt\n      or\n      tag_147\n      jumpi\n      0x40\n      mstore\n      jump\t// out\n    tag_147:\n      mstore(0x00, shl(0xe0, 0x4e487b71))\n      mstore(0x04, 0x41)\n      revert(0x00, 0x24)\n    tag_3:\n      0xffffffffffffffff\n      dup2\n      gt\n      tag_147\n      jumpi\n      0x1f\n      add\n      not(0x1f)\n      and\n      0x20\n      add\n      swap1\n      jump\t// out\n        /* \"system/AccesControl.sol\":2620:2727  function zero_Address(address x) internal pure {... */\n    tag_4:\n      sub(shl(0xa0, 0x01), 0x01)\n        /* \"system/AccesControl.sol\":464:5543  contract AccessControl is UUPSUpgradeable {... */\n      and\n        /* \"system/AccesControl.sol\":2682:2697  x == address(0) */\n      iszero\n        /* \"system/AccesControl.sol\":2678:2719  if (x == address(0)) revert ZeroAddress() */\n      tag_151\n      jumpi\n        /* \"system/AccesControl.sol\":2620:2727  function zero_Address(address x) internal pure {... */\n      jump\t// out\n        /* \"system/AccesControl.sol\":2678:2719  if (x == address(0)) revert ZeroAddress() */\n    tag_151:\n        /* \"system/AccesControl.sol\":2706:2719  ZeroAddress() */\n      shl(0xe0, 0xd92e233d)\n        /* \"system/AccesControl.sol\":2695:2696  0 */\n      0x00\n        /* \"system/AccesControl.sol\":2706:2719  ZeroAddress() */\n      mstore\n      0x04\n        /* \"system/AccesControl.sol\":2695:2696  0 */\n      0x00\n        /* \"system/AccesControl.sol\":2706:2719  ZeroAddress() */\n      revert\n        /* \"@openzeppelin/contracts/utils/Address.sol\":4437:5019  function verifyCallResultFromTarget(... */\n    tag_5:\n      swap1\n        /* \"@openzeppelin/contracts/utils/Address.sol\":4609:4617  !success */\n      tag_153\n      jumpi\n      pop\n        /* \"system/AccesControl.sol\":464:5543  contract AccessControl is UUPSUpgradeable {... */\n      dup1\n      mload\n        /* \"@openzeppelin/contracts/utils/Address.sol\":5690:5711  returndata.length > 0 */\n      iszero\n        /* \"@openzeppelin/contracts/utils/Address.sol\":5690:5707  returndata.length */\n      tag_155\n      jumpi\n        /* \"@openzeppelin/contracts/utils/Address.sol\":5815:5920  assembly (\"memory-safe\") {... */\n      0x20\n      dup2\n      mload\n      swap2\n      add\n      revert\n        /* \"@openzeppelin/contracts/utils/Address.sol\":5686:5987  if (returndata.length > 0) {... */\n    tag_155:\n        /* \"@openzeppelin/contracts/utils/Address.sol\":5957:5976  Errors.FailedCall() */\n      shl(0xe0, 0xd6bda275)\n        /* \"@openzeppelin/contracts/utils/Address.sol\":5710:5711  0 */\n      0x00\n        /* \"@openzeppelin/contracts/utils/Address.sol\":5957:5976  Errors.FailedCall() */\n      mstore\n      0x04\n        /* \"@openzeppelin/contracts/utils/Address.sol\":5710:5711  0 */\n      0x00\n        /* \"@openzeppelin/contracts/utils/Address.sol\":5957:5976  Errors.FailedCall() */\n      revert\n        /* \"@openzeppelin/contracts/utils/Address.sol\":4605:5013  if (!success) {... */\n    tag_153:\n        /* \"system/AccesControl.sol\":464:5543  contract AccessControl is UUPSUpgradeable {... */\n      dup2\n      mload\n        /* \"@openzeppelin/contracts/utils/Address.sol\":4857:4879  returndata.length == 0 */\n      iszero\n        /* \"@openzeppelin/contracts/utils/Address.sol\":4857:4906  returndata.length == 0 && target.code.length == 0 */\n      dup1\n      tag_157\n      jumpi\n        /* \"@openzeppelin/contracts/utils/Address.sol\":4605:5013  if (!success) {... */\n    tag_158:\n        /* \"@openzeppelin/contracts/utils/Address.sol\":4853:4972  if (returndata.length == 0 && target.code.length == 0) {... */\n      tag_159\n      jumpi\n        /* \"@openzeppelin/contracts/utils/Address.sol\":4985:5002  return returndata */\n      pop\n      swap1\n      jump\t// out\n        /* \"@openzeppelin/contracts/utils/Address.sol\":4853:4972  if (returndata.length == 0 && target.code.length == 0) {... */\n    tag_159:\n      shl(0xe0, 0x9996b315)\n        /* \"@openzeppelin/contracts/utils/Address.sol\":4878:4879  0 */\n      0x00\n        /* \"@openzeppelin/contracts/utils/Address.sol\":4933:4957  AddressEmptyCode(target) */\n      swap1\n      dup2\n      mstore\n      sub(shl(0xa0, 0x01), 0x01)\n        /* \"system/AccesControl.sol\":464:5543  contract AccessControl is UUPSUpgradeable {... */\n      swap2\n      swap1\n      swap2\n      and\n        /* \"@openzeppelin/contracts/utils/Address.sol\":4933:4957  AddressEmptyCode(target) */\n      0x04\n        /* \"system/AccesControl.sol\":464:5543  contract AccessControl is UUPSUpgradeable {... */\n      mstore\n      0x24\n      swap1\n        /* \"@openzeppelin/contracts/utils/Address.sol\":4933:4957  AddressEmptyCode(target) */\n      revert\n        /* \"@openzeppelin/contracts/utils/Address.sol\":4857:4906  returndata.length == 0 && target.code.length == 0 */\n    tag_157:\n        /* \"@openzeppelin/contracts/utils/Address.sol\":4883:4901  target.code.length */\n      pop\n      dup1\n      extcodesize\n        /* \"@openzeppelin/contracts/utils/Address.sol\":4883:4906  target.code.length == 0 */\n      iszero\n        /* \"@openzeppelin/contracts/utils/Address.sol\":4857:4906  returndata.length == 0 && target.code.length == 0 */\n      jump(tag_158)\n    stop\n    data_75b20eef8615de99c108b05f0dbda081c91897128caa336d75dffb97c4132b4d 360894a13ba1a3210667c828492db98dca3e2076cc3735a920a3ca505d382bbc\n    data_e28a5566b8a884201ab44e2d991177ce8b88325e02e52cbc3da6e67b3ecf29c6 f0c57e16840df040f15088dc2f81fe391c3923bec73e23a9662efc9c229c6a00\n\n    auxdata: 0xa26469706673582212209fa9b3a39049416a24fd0e83492a916719211bc090f8ff4d9404372e1a311d6f64736f6c634300081e0033\n}\n",
				"bytecode": {
					"linkReferences": {},
					"object": "60a08060405234602957306080526108d1908161002e82396080518181816104e601526105b60152f35b5f80fdfe60806040526004361015610011575f80fd5b5f3560e01c80634f1ef2861461053a57806352d1902d146104d45780637ef09bca146104975780638129fc1c1461033f5780638da5cb5b146103185780639047bf58146102fb578063a6f9dae114610276578063ad3cb1cc14610218578063b106539c1461014f5763d108177a14610087575f80fd5b3461014b57602036600319011261014b576100a0610776565b5f546001600160a01b0316330361013c576001600160a01b03165f8181526002602052604090205460ff161561012d57805f52600260205260405f2060ff1981541690556001548015610119575f19016001557fabae6e64cb4315875c29d42347a312f5e9fce4ab564e9722b43dd78d0751135a5f80a2005b634e487b7160e01b5f52601160045260245ffd5b638907dbfd60e01b5f5260045ffd5b6330cd747160e01b5f5260045ffd5b5f80fd5b3461014b57602036600319011261014b57610168610776565b5f546001600160a01b0316903382900361013c57610185816107de565b6001600160a01b03165f8181526002602052604090205490919060ff166102095781146101fa57805f52600260205260405f20600160ff198254161790556001545f198114610119576001016001557f7758ff72b16b98313da220996e94c64524b9776307508b4574d8cc21f1aeb9ee5f80a2005b63137dafb760e21b5f5260045ffd5b6303488cd760e51b5f5260045ffd5b3461014b575f36600319011261014b576040805190610237818361078c565b600582526020820191640352e302e360dc1b83528151928391602083525180918160208501528484015e5f828201840152601f01601f19168101030190f35b3461014b57602036600319011261014b5761028f610776565b5f54906001600160a01b038216903382900361013c576102ae816107de565b6102b7336107de565b60018060a01b031680926bffffffffffffffffffffffff60a01b16175f557fb532073b38c83145e3e5135377a08bf9aab55bc0fd7c1179cd4fb995d2a5159c5f80a3005b3461014b575f36600319011261014b576020600154604051908152f35b3461014b575f36600319011261014b575f546040516001600160a01b039091168152602090f35b3461014b575f36600319011261014b575f51602061087c5f395f51905f525460ff8160401c16159067ffffffffffffffff81168015908161048f575b6001149081610485575b15908161047c575b5061046d5767ffffffffffffffff1981166001175f51602061087c5f395f51905f525581610441575b505f51602061087c5f395f51905f52549060ff8260401c1615610432575f80546001600160a01b031916331790556103ea57005b68ff000000000000000019165f51602061087c5f395f51905f52557fc7f505b2f371ae2175ee4913f4499e1f2633a7b5936321eed1cdaeb6115181d2602060405160018152a1005b631afcd79f60e31b5f5260045ffd5b68ffffffffffffffffff191668010000000000000001175f51602061087c5f395f51905f5255816103b6565b63f92ee8a960e01b5f5260045ffd5b9050158361038d565b303b159150610385565b83915061037b565b3461014b57602036600319011261014b576001600160a01b036104b8610776565b165f526002602052602060ff60405f2054166040519015158152f35b3461014b575f36600319011261014b577f00000000000000000000000000000000000000000000000000000000000000006001600160a01b0316300361052b5760206040515f51602061085c5f395f51905f528152f35b63703e46dd60e11b5f5260045ffd5b604036600319011261014b5761054e610776565b6024359067ffffffffffffffff821161014b573660238301121561014b5781600401359061057b826107c2565b91610589604051938461078c565b8083526020830193366024838301011161014b57815f926024602093018737840101526001600160a01b037f000000000000000000000000000000000000000000000000000000000000000016308114908115610754575b5061052b575f546001600160a01b0316330361013c576040516352d1902d60e01b81526001600160a01b0382169390602081600481885afa5f9181610720575b506106395784634c9c8ce360e01b5f5260045260245ffd5b805f51602061085c5f395f51905f5286920361070e5750823b156106fc575f51602061085c5f395f51905f5280546001600160a01b031916821790557fbc7cd75a20ee27fd9adebab32041f755214dbc6bffa90cc0225b39da2e5c2d3b5f80a28251156106e3575f80916106d9945190845af43d156106db573d916106bd836107c2565b926106cb604051948561078c565b83523d5f602085013e6107fd565b005b6060916107fd565b505050346106ed57005b63b398979f60e01b5f5260045ffd5b634c9c8ce360e01b5f5260045260245ffd5b632a87526960e21b5f5260045260245ffd5b9091506020813d60201161074c575b8161073c6020938361078c565b8101031261014b57519086610621565b3d915061072f565b5f51602061085c5f395f51905f52546001600160a01b031614159050846105e1565b600435906001600160a01b038216820361014b57565b90601f8019910116810190811067ffffffffffffffff8211176107ae57604052565b634e487b7160e01b5f52604160045260245ffd5b67ffffffffffffffff81116107ae57601f01601f191660200190565b6001600160a01b0316156107ee57565b63d92e233d60e01b5f5260045ffd5b90610821575080511561081257602081519101fd5b63d6bda27560e01b5f5260045ffd5b81511580610852575b610832575090565b639996b31560e01b5f9081526001600160a01b0391909116600452602490fd5b50803b1561082a56fe360894a13ba1a3210667c828492db98dca3e2076cc3735a920a3ca505d382bbcf0c57e16840df040f15088dc2f81fe391c3923bec73e23a9662efc9c229c6a00a26469706673582212209fa9b3a39049416a24fd0e83492a916719211bc090f8ff4d9404372e1a311d6f64736f6c634300081e0033",
					"opcodes": "PUSH1 0xA0 DUP1 PUSH1 0x40 MSTORE CALLVALUE PUSH1 0x29 JUMPI ADDRESS PUSH1 0x80 MSTORE PUSH2 0x8D1 SWAP1 DUP2 PUSH2 0x2E DUP3 CODECOPY PUSH1 0x80 MLOAD DUP2 DUP2 DUP2 PUSH2 0x4E6 ADD MSTORE PUSH2 0x5B6 ADD MSTORE RETURN JUMPDEST PUSH0 DUP1 REVERT INVALID PUSH1 0x80 PUSH1 0x40 MSTORE PUSH1 0x4 CALLDATASIZE LT ISZERO PUSH2 0x11 JUMPI PUSH0 DUP1 REVERT JUMPDEST PUSH0 CALLDATALOAD PUSH1 0xE0 SHR DUP1 PUSH4 0x4F1EF286 EQ PUSH2 0x53A JUMPI DUP1 PUSH4 0x52D1902D EQ PUSH2 0x4D4 JUMPI DUP1 PUSH4 0x7EF09BCA EQ PUSH2 0x497 JUMPI DUP1 PUSH4 0x8129FC1C EQ PUSH2 0x33F JUMPI DUP1 PUSH4 0x8DA5CB5B EQ PUSH2 0x318 JUMPI DUP1 PUSH4 0x9047BF58 EQ PUSH2 0x2FB JUMPI DUP1 PUSH4 0xA6F9DAE1 EQ PUSH2 0x276 JUMPI DUP1 PUSH4 0xAD3CB1CC EQ PUSH2 0x218 JUMPI DUP1 PUSH4 0xB106539C EQ PUSH2 0x14F JUMPI PUSH4 0xD108177A EQ PUSH2 0x87 JUMPI PUSH0 DUP1 REVERT JUMPDEST CALLVALUE PUSH2 0x14B JUMPI PUSH1 0x20 CALLDATASIZE PUSH1 0x3 NOT ADD SLT PUSH2 0x14B JUMPI PUSH2 0xA0 PUSH2 0x776 JUMP JUMPDEST PUSH0 SLOAD PUSH1 0x1 PUSH1 0x1 PUSH1 0xA0 SHL SUB AND CALLER SUB PUSH2 0x13C JUMPI PUSH1 0x1 PUSH1 0x1 PUSH1 0xA0 SHL SUB AND PUSH0 DUP2 DUP2 MSTORE PUSH1 0x2 PUSH1 0x20 MSTORE PUSH1 0x40 SWAP1 KECCAK256 SLOAD PUSH1 0xFF AND ISZERO PUSH2 0x12D JUMPI DUP1 PUSH0 MSTORE PUSH1 0x2 PUSH1 0x20 MSTORE PUSH1 0x40 PUSH0 KECCAK256 PUSH1 0xFF NOT DUP2 SLOAD AND SWAP1 SSTORE PUSH1 0x1 SLOAD DUP1 ISZERO PUSH2 0x119 JUMPI PUSH0 NOT ADD PUSH1 0x1 SSTORE PUSH32 0xABAE6E64CB4315875C29D42347A312F5E9FCE4AB564E9722B43DD78D0751135A PUSH0 DUP1 LOG2 STOP JUMPDEST PUSH4 0x4E487B71 PUSH1 0xE0 SHL PUSH0 MSTORE PUSH1 0x11 PUSH1 0x4 MSTORE PUSH1 0x24 PUSH0 REVERT JUMPDEST PUSH4 0x8907DBFD PUSH1 0xE0 SHL PUSH0 MSTORE PUSH1 0x4 PUSH0 REVERT JUMPDEST PUSH4 0x30CD7471 PUSH1 0xE0 SHL PUSH0 MSTORE PUSH1 0x4 PUSH0 REVERT JUMPDEST PUSH0 DUP1 REVERT JUMPDEST CALLVALUE PUSH2 0x14B JUMPI PUSH1 0x20 CALLDATASIZE PUSH1 0x3 NOT ADD SLT PUSH2 0x14B JUMPI PUSH2 0x168 PUSH2 0x776 JUMP JUMPDEST PUSH0 SLOAD PUSH1 0x1 PUSH1 0x1 PUSH1 0xA0 SHL SUB AND SWAP1 CALLER DUP3 SWAP1 SUB PUSH2 0x13C JUMPI PUSH2 0x185 DUP2 PUSH2 0x7DE JUMP JUMPDEST PUSH1 0x1 PUSH1 0x1 PUSH1 0xA0 SHL SUB AND PUSH0 DUP2 DUP2 MSTORE PUSH1 0x2 PUSH1 0x20 MSTORE PUSH1 0x40 SWAP1 KECCAK256 SLOAD SWAP1 SWAP2 SWAP1 PUSH1 0xFF AND PUSH2 0x209 JUMPI DUP2 EQ PUSH2 0x1FA JUMPI DUP1 PUSH0 MSTORE PUSH1 0x2 PUSH1 0x20 MSTORE PUSH1 0x40 PUSH0 KECCAK256 PUSH1 0x1 PUSH1 0xFF NOT DUP3 SLOAD AND OR SWAP1 SSTORE PUSH1 0x1 SLOAD PUSH0 NOT DUP2 EQ PUSH2 0x119 JUMPI PUSH1 0x1 ADD PUSH1 0x1 SSTORE PUSH32 0x7758FF72B16B98313DA220996E94C64524B9776307508B4574D8CC21F1AEB9EE PUSH0 DUP1 LOG2 STOP JUMPDEST PUSH4 0x137DAFB7 PUSH1 0xE2 SHL PUSH0 MSTORE PUSH1 0x4 PUSH0 REVERT JUMPDEST PUSH4 0x3488CD7 PUSH1 0xE5 SHL PUSH0 MSTORE PUSH1 0x4 PUSH0 REVERT JUMPDEST CALLVALUE PUSH2 0x14B JUMPI PUSH0 CALLDATASIZE PUSH1 0x3 NOT ADD SLT PUSH2 0x14B JUMPI PUSH1 0x40 DUP1 MLOAD SWAP1 PUSH2 0x237 DUP2 DUP4 PUSH2 0x78C JUMP JUMPDEST PUSH1 0x5 DUP3 MSTORE PUSH1 0x20 DUP3 ADD SWAP2 PUSH5 0x352E302E3 PUSH1 0xDC SHL DUP4 MSTORE DUP2 MLOAD SWAP3 DUP4 SWAP2 PUSH1 0x20 DUP4 MSTORE MLOAD DUP1 SWAP2 DUP2 PUSH1 0x20 DUP6 ADD MSTORE DUP5 DUP5 ADD MCOPY PUSH0 DUP3 DUP3 ADD DUP5 ADD MSTORE PUSH1 0x1F ADD PUSH1 0x1F NOT AND DUP2 ADD SUB ADD SWAP1 RETURN JUMPDEST CALLVALUE PUSH2 0x14B JUMPI PUSH1 0x20 CALLDATASIZE PUSH1 0x3 NOT ADD SLT PUSH2 0x14B JUMPI PUSH2 0x28F PUSH2 0x776 JUMP JUMPDEST PUSH0 SLOAD SWAP1 PUSH1 0x1 PUSH1 0x1 PUSH1 0xA0 SHL SUB DUP3 AND SWAP1 CALLER DUP3 SWAP1 SUB PUSH2 0x13C JUMPI PUSH2 0x2AE DUP2 PUSH2 0x7DE JUMP JUMPDEST PUSH2 0x2B7 CALLER PUSH2 0x7DE JUMP JUMPDEST PUSH1 0x1 DUP1 PUSH1 0xA0 SHL SUB AND DUP1 SWAP3 PUSH12 0xFFFFFFFFFFFFFFFFFFFFFFFF PUSH1 0xA0 SHL AND OR PUSH0 SSTORE PUSH32 0xB532073B38C83145E3E5135377A08BF9AAB55BC0FD7C1179CD4FB995D2A5159C PUSH0 DUP1 LOG3 STOP JUMPDEST CALLVALUE PUSH2 0x14B JUMPI PUSH0 CALLDATASIZE PUSH1 0x3 NOT ADD SLT PUSH2 0x14B JUMPI PUSH1 0x20 PUSH1 0x1 SLOAD PUSH1 0x40 MLOAD SWAP1 DUP2 MSTORE RETURN JUMPDEST CALLVALUE PUSH2 0x14B JUMPI PUSH0 CALLDATASIZE PUSH1 0x3 NOT ADD SLT PUSH2 0x14B JUMPI PUSH0 SLOAD PUSH1 0x40 MLOAD PUSH1 0x1 PUSH1 0x1 PUSH1 0xA0 SHL SUB SWAP1 SWAP2 AND DUP2 MSTORE PUSH1 0x20 SWAP1 RETURN JUMPDEST CALLVALUE PUSH2 0x14B JUMPI PUSH0 CALLDATASIZE PUSH1 0x3 NOT ADD SLT PUSH2 0x14B JUMPI PUSH0 MLOAD PUSH1 0x20 PUSH2 0x87C PUSH0 CODECOPY PUSH0 MLOAD SWAP1 PUSH0 MSTORE SLOAD PUSH1 0xFF DUP2 PUSH1 0x40 SHR AND ISZERO SWAP1 PUSH8 0xFFFFFFFFFFFFFFFF DUP2 AND DUP1 ISZERO SWAP1 DUP2 PUSH2 0x48F JUMPI JUMPDEST PUSH1 0x1 EQ SWAP1 DUP2 PUSH2 0x485 JUMPI JUMPDEST ISZERO SWAP1 DUP2 PUSH2 0x47C JUMPI JUMPDEST POP PUSH2 0x46D JUMPI PUSH8 0xFFFFFFFFFFFFFFFF NOT DUP2 AND PUSH1 0x1 OR PUSH0 MLOAD PUSH1 0x20 PUSH2 0x87C PUSH0 CODECOPY PUSH0 MLOAD SWAP1 PUSH0 MSTORE SSTORE DUP2 PUSH2 0x441 JUMPI JUMPDEST POP PUSH0 MLOAD PUSH1 0x20 PUSH2 0x87C PUSH0 CODECOPY PUSH0 MLOAD SWAP1 PUSH0 MSTORE SLOAD SWAP1 PUSH1 0xFF DUP3 PUSH1 0x40 SHR AND ISZERO PUSH2 0x432 JUMPI PUSH0 DUP1 SLOAD PUSH1 0x1 PUSH1 0x1 PUSH1 0xA0 SHL SUB NOT AND CALLER OR SWAP1 SSTORE PUSH2 0x3EA JUMPI STOP JUMPDEST PUSH9 0xFF0000000000000000 NOT AND PUSH0 MLOAD PUSH1 0x20 PUSH2 0x87C PUSH0 CODECOPY PUSH0 MLOAD SWAP1 PUSH0 MSTORE SSTORE PUSH32 0xC7F505B2F371AE2175EE4913F4499E1F2633A7B5936321EED1CDAEB6115181D2 PUSH1 0x20 PUSH1 0x40 MLOAD PUSH1 0x1 DUP2 MSTORE LOG1 STOP JUMPDEST PUSH4 0x1AFCD79F PUSH1 0xE3 SHL PUSH0 MSTORE PUSH1 0x4 PUSH0 REVERT JUMPDEST PUSH9 0xFFFFFFFFFFFFFFFFFF NOT AND PUSH9 0x10000000000000001 OR PUSH0 MLOAD PUSH1 0x20 PUSH2 0x87C PUSH0 CODECOPY PUSH0 MLOAD SWAP1 PUSH0 MSTORE SSTORE DUP2 PUSH2 0x3B6 JUMP JUMPDEST PUSH4 0xF92EE8A9 PUSH1 0xE0 SHL PUSH0 MSTORE PUSH1 0x4 PUSH0 REVERT JUMPDEST SWAP1 POP ISZERO DUP4 PUSH2 0x38D JUMP JUMPDEST ADDRESS EXTCODESIZE ISZERO SWAP2 POP PUSH2 0x385 JUMP JUMPDEST DUP4 SWAP2 POP PUSH2 0x37B JUMP JUMPDEST CALLVALUE PUSH2 0x14B JUMPI PUSH1 0x20 CALLDATASIZE PUSH1 0x3 NOT ADD SLT PUSH2 0x14B JUMPI PUSH1 0x1 PUSH1 0x1 PUSH1 0xA0 SHL SUB PUSH2 0x4B8 PUSH2 0x776 JUMP JUMPDEST AND PUSH0 MSTORE PUSH1 0x2 PUSH1 0x20 MSTORE PUSH1 0x20 PUSH1 0xFF PUSH1 0x40 PUSH0 KECCAK256 SLOAD AND PUSH1 0x40 MLOAD SWAP1 ISZERO ISZERO DUP2 MSTORE RETURN JUMPDEST CALLVALUE PUSH2 0x14B JUMPI PUSH0 CALLDATASIZE PUSH1 0x3 NOT ADD SLT PUSH2 0x14B JUMPI PUSH32 0x0 PUSH1 0x1 PUSH1 0x1 PUSH1 0xA0 SHL SUB AND ADDRESS SUB PUSH2 0x52B JUMPI PUSH1 0x20 PUSH1 0x40 MLOAD PUSH0 MLOAD PUSH1 0x20 PUSH2 0x85C PUSH0 CODECOPY PUSH0 MLOAD SWAP1 PUSH0 MSTORE DUP2 MSTORE RETURN JUMPDEST PUSH4 0x703E46DD PUSH1 0xE1 SHL PUSH0 MSTORE PUSH1 0x4 PUSH0 REVERT JUMPDEST PUSH1 0x40 CALLDATASIZE PUSH1 0x3 NOT ADD SLT PUSH2 0x14B JUMPI PUSH2 0x54E PUSH2 0x776 JUMP JUMPDEST PUSH1 0x24 CALLDATALOAD SWAP1 PUSH8 0xFFFFFFFFFFFFFFFF DUP3 GT PUSH2 0x14B JUMPI CALLDATASIZE PUSH1 0x23 DUP4 ADD SLT ISZERO PUSH2 0x14B JUMPI DUP2 PUSH1 0x4 ADD CALLDATALOAD SWAP1 PUSH2 0x57B DUP3 PUSH2 0x7C2 JUMP JUMPDEST SWAP2 PUSH2 0x589 PUSH1 0x40 MLOAD SWAP4 DUP5 PUSH2 0x78C JUMP JUMPDEST DUP1 DUP4 MSTORE PUSH1 0x20 DUP4 ADD SWAP4 CALLDATASIZE PUSH1 0x24 DUP4 DUP4 ADD ADD GT PUSH2 0x14B JUMPI DUP2 PUSH0 SWAP3 PUSH1 0x24 PUSH1 0x20 SWAP4 ADD DUP8 CALLDATACOPY DUP5 ADD ADD MSTORE PUSH1 0x1 PUSH1 0x1 PUSH1 0xA0 SHL SUB PUSH32 0x0 AND ADDRESS DUP2 EQ SWAP1 DUP2 ISZERO PUSH2 0x754 JUMPI JUMPDEST POP PUSH2 0x52B JUMPI PUSH0 SLOAD PUSH1 0x1 PUSH1 0x1 PUSH1 0xA0 SHL SUB AND CALLER SUB PUSH2 0x13C JUMPI PUSH1 0x40 MLOAD PUSH4 0x52D1902D PUSH1 0xE0 SHL DUP2 MSTORE PUSH1 0x1 PUSH1 0x1 PUSH1 0xA0 SHL SUB DUP3 AND SWAP4 SWAP1 PUSH1 0x20 DUP2 PUSH1 0x4 DUP2 DUP9 GAS STATICCALL PUSH0 SWAP2 DUP2 PUSH2 0x720 JUMPI JUMPDEST POP PUSH2 0x639 JUMPI DUP5 PUSH4 0x4C9C8CE3 PUSH1 0xE0 SHL PUSH0 MSTORE PUSH1 0x4 MSTORE PUSH1 0x24 PUSH0 REVERT JUMPDEST DUP1 PUSH0 MLOAD PUSH1 0x20 PUSH2 0x85C PUSH0 CODECOPY PUSH0 MLOAD SWAP1 PUSH0 MSTORE DUP7 SWAP3 SUB PUSH2 0x70E JUMPI POP DUP3 EXTCODESIZE ISZERO PUSH2 0x6FC JUMPI PUSH0 MLOAD PUSH1 0x20 PUSH2 0x85C PUSH0 CODECOPY PUSH0 MLOAD SWAP1 PUSH0 MSTORE DUP1 SLOAD PUSH1 0x1 PUSH1 0x1 PUSH1 0xA0 SHL SUB NOT AND DUP3 OR SWAP1 SSTORE PUSH32 0xBC7CD75A20EE27FD9ADEBAB32041F755214DBC6BFFA90CC0225B39DA2E5C2D3B PUSH0 DUP1 LOG2 DUP3 MLOAD ISZERO PUSH2 0x6E3 JUMPI PUSH0 DUP1 SWAP2 PUSH2 0x6D9 SWAP5 MLOAD SWAP1 DUP5 GAS DELEGATECALL RETURNDATASIZE ISZERO PUSH2 0x6DB JUMPI RETURNDATASIZE SWAP2 PUSH2 0x6BD DUP4 PUSH2 0x7C2 JUMP JUMPDEST SWAP3 PUSH2 0x6CB PUSH1 0x40 MLOAD SWAP5 DUP6 PUSH2 0x78C JUMP JUMPDEST DUP4 MSTORE RETURNDATASIZE PUSH0 PUSH1 0x20 DUP6 ADD RETURNDATACOPY PUSH2 0x7FD JUMP JUMPDEST STOP JUMPDEST PUSH1 0x60 SWAP2 PUSH2 0x7FD JUMP JUMPDEST POP POP POP CALLVALUE PUSH2 0x6ED JUMPI STOP JUMPDEST PUSH4 0xB398979F PUSH1 0xE0 SHL PUSH0 MSTORE PUSH1 0x4 PUSH0 REVERT JUMPDEST PUSH4 0x4C9C8CE3 PUSH1 0xE0 SHL PUSH0 MSTORE PUSH1 0x4 MSTORE PUSH1 0x24 PUSH0 REVERT JUMPDEST PUSH4 0x2A875269 PUSH1 0xE2 SHL PUSH0 MSTORE PUSH1 0x4 MSTORE PUSH1 0x24 PUSH0 REVERT JUMPDEST SWAP1 SWAP2 POP PUSH1 0x20 DUP2 RETURNDATASIZE PUSH1 0x20 GT PUSH2 0x74C JUMPI JUMPDEST DUP2 PUSH2 0x73C PUSH1 0x20 SWAP4 DUP4 PUSH2 0x78C JUMP JUMPDEST DUP2 ADD SUB SLT PUSH2 0x14B JUMPI MLOAD SWAP1 DUP7 PUSH2 0x621 JUMP JUMPDEST RETURNDATASIZE SWAP2 POP PUSH2 0x72F JUMP JUMPDEST PUSH0 MLOAD PUSH1 0x20 PUSH2 0x85C PUSH0 CODECOPY PUSH0 MLOAD SWAP1 PUSH0 MSTORE SLOAD PUSH1 0x1 PUSH1 0x1 PUSH1 0xA0 SHL SUB AND EQ ISZERO SWAP1 POP DUP5 PUSH2 0x5E1 JUMP JUMPDEST PUSH1 0x4 CALLDATALOAD SWAP1 PUSH1 0x1 PUSH1 0x1 PUSH1 0xA0 SHL SUB DUP3 AND DUP3 SUB PUSH2 0x14B JUMPI JUMP JUMPDEST SWAP1 PUSH1 0x1F DUP1 NOT SWAP2 ADD AND DUP2 ADD SWAP1 DUP2 LT PUSH8 0xFFFFFFFFFFFFFFFF DUP3 GT OR PUSH2 0x7AE JUMPI PUSH1 0x40 MSTORE JUMP JUMPDEST PUSH4 0x4E487B71 PUSH1 0xE0 SHL PUSH0 MSTORE PUSH1 0x41 PUSH1 0x4 MSTORE PUSH1 0x24 PUSH0 REVERT JUMPDEST PUSH8 0xFFFFFFFFFFFFFFFF DUP2 GT PUSH2 0x7AE JUMPI PUSH1 0x1F ADD PUSH1 0x1F NOT AND PUSH1 0x20 ADD SWAP1 JUMP JUMPDEST PUSH1 0x1 PUSH1 0x1 PUSH1 0xA0 SHL SUB AND ISZERO PUSH2 0x7EE JUMPI JUMP JUMPDEST PUSH4 0xD92E233D PUSH1 0xE0 SHL PUSH0 MSTORE PUSH1 0x4 PUSH0 REVERT JUMPDEST SWAP1 PUSH2 0x821 JUMPI POP DUP1 MLOAD ISZERO PUSH2 0x812 JUMPI PUSH1 0x20 DUP2 MLOAD SWAP2 ADD REVERT JUMPDEST PUSH4 0xD6BDA275 PUSH1 0xE0 SHL PUSH0 MSTORE PUSH1 0x4 PUSH0 REVERT JUMPDEST DUP2 MLOAD ISZERO DUP1 PUSH2 0x852 JUMPI JUMPDEST PUSH2 0x832 JUMPI POP SWAP1 JUMP JUMPDEST PUSH4 0x9996B315 PUSH1 0xE0 SHL PUSH0 SWAP1 DUP2 MSTORE PUSH1 0x1 PUSH1 0x1 PUSH1 0xA0 SHL SUB SWAP2 SWAP1 SWAP2 AND PUSH1 0x4 MSTORE PUSH1 0x24 SWAP1 REVERT JUMPDEST POP DUP1 EXTCODESIZE ISZERO PUSH2 0x82A JUMP INVALID CALLDATASIZE ADDMOD SWAP5 LOG1 EXTCODESIZE LOG1 LOG3 0x21 MOD PUSH8 0xC828492DB98DCA3E KECCAK256 PUSH23 0xCC3735A920A3CA505D382BBCF0C57E16840DF040F15088 0xDC 0x2F DUP2 INVALID CODECOPY SHR CODECOPY 0x23 0xBE 0xC7 RETURNDATACOPY 0x23 0xA9 PUSH7 0x2EFC9C229C6A00 LOG2 PUSH5 0x6970667358 0x22 SLT KECCAK256 SWAP16 0xA9 0xB3 LOG3 SWAP1 BLOBHASH COINBASE PUSH11 0x24FD0E83492A916719211B 0xC0 SWAP1 EXTCALL SELFDESTRUCT 0x4D SWAP5 DIV CALLDATACOPY 0x2E BYTE BALANCE SAR PUSH16 0x64736F6C634300081E00330000000000 "
				},
				"gasEstimates": {
					"creation": {
						"codeDepositCost": "451400",
						"executionCost": "infinite",
						"totalCost": "infinite"
					},
					"external": {
						"UPGRADE_INTERFACE_VERSION()": "554",
						"assignNewEmployee(address)": "54466",
						"changeOwner(address)": "infinite",
						"employeeCount()": "2358",
						"hasRole(address)": "2454",
						"initialize()": "infinite",
						"owner()": "2359",
						"proxiableUUID()": "infinite",
						"removeEmployee(address)": "54381",
						"upgradeToAndCall(address,bytes)": "infinite"
					},
					"internal": {
						"_authorizeUpgrade(address)": "infinite",
						"zero_Address(address)": "58"
					}
				},
				"methodIdentifiers": {
					"UPGRADE_INTERFACE_VERSION()": "ad3cb1cc",
					"assignNewEmployee(address)": "b106539c",
					"changeOwner(address)": "a6f9dae1",
					"employeeCount()": "9047bf58",
					"hasRole(address)": "7ef09bca",
					"initialize()": "8129fc1c",
					"owner()": "8da5cb5b",
					"proxiableUUID()": "52d1902d",
					"removeEmployee(address)": "d108177a",
					"upgradeToAndCall(address,bytes)": "4f1ef286"
				}
			},
			"storageLayout": {
				"storage": [
					{
						"astId": 1200,
						"contract": "system/AccesControl.sol:AccessControl",
						"label": "owner",
						"offset": 0,
						"slot": "0",
						"type": "t_address"
					},
					{
						"astId": 1203,
						"contract": "system/AccesControl.sol:AccessControl",
						"label": "employeeCount",
						"offset": 0,
						"slot": "1",
						"type": "t_uint256"
					},
					{
						"astId": 1208,
						"contract": "system/AccesControl.sol:AccessControl",
						"label": "employees",
						"offset": 0,
						"slot": "2",
						"type": "t_mapping(t_address,t_bool)"
					}
				],
				"types": {
					"t_address": {
						"encoding": "inplace",
						"label": "address",
						"numberOfBytes": "20"
					},
					"t_bool": {
						"encoding": "inplace",
						"label": "bool",
						"numberOfBytes": "1"
					},
					"t_mapping(t_address,t_bool)": {
						"encoding": "mapping",
						"key": "t_address",
						"label": "mapping(address => bool)",
						"numberOfBytes": "32",
						"value": "t_bool"
					},
					"t_uint256": {
						"encoding": "inplace",
						"label": "uint256",
						"numberOfBytes": "32"
					}
				}
			},
			"userdoc": {
				"events": {
					"EmployeeAssigned(address)": {
						"notice": "Emitted when a new employee is assigned"
					},
					"EmployeeRemoved(address)": {
						"notice": "Emitted when an employee is removed"
					},
					"OwnerChanged(address,address)": {
						"notice": "Emitted when the contract owner is changed"
					}
				},
				"kind": "user",
				"methods": {
					"assignNewEmployee(address)": {
						"notice": "Assigns a new employee with a specific role"
					},
					"changeOwner(address)": {
						"notice": "Transfers ownership to a new address"
					},
					"employeeCount()": {
						"notice": "Total number of employees currently assigned"
					},
					"hasRole(address)": {
						"notice": "Checks if an address has a specific role"
					},
					"owner()": {
						"notice": "Address of the contract owner"
					},
					"removeEmployee(address)": {
						"notice": "Removes an employee's role"
					}
				},
				"notice": "Provides role-based access control with an owner and assigned employees",
				"version": 1
			}
		}
	}
}