{
	"system/StateVariable.sol": {
		"stateVariable": {
			"abi": [
				{
					"inputs": [
						{
							"internalType": "uint64",
							"name": "_rewardScore",
							"type": "uint64"
						},
						{
							"internalType": "uint64",
							"name": "_reputationScore",
							"type": "uint64"
						},
						{
							"internalType": "uint64",
							"name": "_deadlineScore",
							"type": "uint64"
						},
						{
							"internalType": "uint64",
							"name": "_revisionScore",
							"type": "uint64"
						},
						{
							"internalType": "uint256",
							"name": "lowStake",
							"type": "uint256"
						},
						{
							"internalType": "uint256",
							"name": "midLowStake",
							"type": "uint256"
						},
						{
							"internalType": "uint256",
							"name": "midStake",
							"type": "uint256"
						},
						{
							"internalType": "uint256",
							"name": "midHighStake",
							"type": "uint256"
						},
						{
							"internalType": "uint256",
							"name": "highStake",
							"type": "uint256"
						},
						{
							"internalType": "uint256",
							"name": "ultraHighStake",
							"type": "uint256"
						},
						{
							"internalType": "uint64",
							"name": "CancelByMeRP",
							"type": "uint64"
						},
						{
							"internalType": "uint64",
							"name": "revisionRP",
							"type": "uint64"
						},
						{
							"internalType": "uint32",
							"name": "taskAcceptCreatorRP",
							"type": "uint32"
						},
						{
							"internalType": "uint32",
							"name": "taskAcceptMemberRP",
							"type": "uint32"
						},
						{
							"internalType": "uint32",
							"name": "deadlineHitCreatorRP",
							"type": "uint32"
						},
						{
							"internalType": "uint32",
							"name": "deadlineHitMemberRP",
							"type": "uint32"
						},
						{
							"internalType": "uint256",
							"name": "_maxStakeInEther",
							"type": "uint256"
						},
						{
							"internalType": "uint256",
							"name": "_maxRewardInEther",
							"type": "uint256"
						},
						{
							"internalType": "uint64",
							"name": "_minRevisionTimeInHour",
							"type": "uint64"
						},
						{
							"internalType": "uint64",
							"name": "_NegPenalty",
							"type": "uint64"
						},
						{
							"internalType": "uint64",
							"name": "_feePercentage",
							"type": "uint64"
						},
						{
							"internalType": "uint64",
							"name": "_maxRevision",
							"type": "uint64"
						},
						{
							"internalType": "uint256",
							"name": "lowCat",
							"type": "uint256"
						},
						{
							"internalType": "uint256",
							"name": "midLowCat",
							"type": "uint256"
						},
						{
							"internalType": "uint256",
							"name": "midCat",
							"type": "uint256"
						},
						{
							"internalType": "uint256",
							"name": "midHighCat",
							"type": "uint256"
						},
						{
							"internalType": "uint256",
							"name": "highCat",
							"type": "uint256"
						},
						{
							"internalType": "uint256",
							"name": "ultraHighCat",
							"type": "uint256"
						},
						{
							"internalType": "address",
							"name": "_accessControl",
							"type": "address"
						}
					],
					"stateMutability": "nonpayable",
					"type": "constructor"
				},
				{
					"inputs": [],
					"name": "EnforcedPause",
					"type": "error"
				},
				{
					"inputs": [],
					"name": "ExpectedPause",
					"type": "error"
				},
				{
					"inputs": [],
					"name": "FeeCantBe100",
					"type": "error"
				},
				{
					"inputs": [],
					"name": "InvalidInitialization",
					"type": "error"
				},
				{
					"inputs": [],
					"name": "InvalidMaxStakeAmount",
					"type": "error"
				},
				{
					"inputs": [],
					"name": "NegPenaltyCantBe100",
					"type": "error"
				},
				{
					"inputs": [],
					"name": "NotInitializing",
					"type": "error"
				},
				{
					"inputs": [],
					"name": "TotalMustBe100",
					"type": "error"
				},
				{
					"anonymous": false,
					"inputs": [
						{
							"indexed": false,
							"internalType": "address",
							"name": "newAccessControl",
							"type": "address"
						}
					],
					"name": "AccessControlChanged",
					"type": "event"
				},
				{
					"anonymous": false,
					"inputs": [
						{
							"indexed": false,
							"internalType": "address",
							"name": "account",
							"type": "address"
						}
					],
					"name": "ContractPaused",
					"type": "event"
				},
				{
					"anonymous": false,
					"inputs": [
						{
							"indexed": false,
							"internalType": "address",
							"name": "account",
							"type": "address"
						}
					],
					"name": "ContractUnpaused",
					"type": "event"
				},
				{
					"anonymous": false,
					"inputs": [
						{
							"indexed": false,
							"internalType": "uint64",
							"name": "version",
							"type": "uint64"
						}
					],
					"name": "Initialized",
					"type": "event"
				},
				{
					"anonymous": false,
					"inputs": [
						{
							"indexed": false,
							"internalType": "address",
							"name": "account",
							"type": "address"
						}
					],
					"name": "Paused",
					"type": "event"
				},
				{
					"anonymous": false,
					"inputs": [
						{
							"indexed": false,
							"internalType": "uint256",
							"name": "maxStake",
							"type": "uint256"
						},
						{
							"indexed": false,
							"internalType": "uint256",
							"name": "maxReward",
							"type": "uint256"
						},
						{
							"indexed": false,
							"internalType": "uint64",
							"name": "minRevisionTimeInHour",
							"type": "uint64"
						},
						{
							"indexed": false,
							"internalType": "uint64",
							"name": "NegPenalty",
							"type": "uint64"
						},
						{
							"indexed": false,
							"internalType": "uint64",
							"name": "feePercentage",
							"type": "uint64"
						},
						{
							"indexed": false,
							"internalType": "uint64",
							"name": "maxRevision",
							"type": "uint64"
						}
					],
					"name": "StateVarsChanged",
					"type": "event"
				},
				{
					"anonymous": false,
					"inputs": [
						{
							"indexed": false,
							"internalType": "address",
							"name": "account",
							"type": "address"
						}
					],
					"name": "Unpaused",
					"type": "event"
				},
				{
					"anonymous": false,
					"inputs": [
						{
							"indexed": false,
							"internalType": "uint64",
							"name": "rewardScore",
							"type": "uint64"
						},
						{
							"indexed": false,
							"internalType": "uint64",
							"name": "reputationScore",
							"type": "uint64"
						},
						{
							"indexed": false,
							"internalType": "uint64",
							"name": "deadlineScore",
							"type": "uint64"
						},
						{
							"indexed": false,
							"internalType": "uint64",
							"name": "revisionScore",
							"type": "uint64"
						}
					],
					"name": "componentWeightPercentagesChanged",
					"type": "event"
				},
				{
					"anonymous": false,
					"inputs": [
						{
							"indexed": false,
							"internalType": "uint64",
							"name": "CancelByMe",
							"type": "uint64"
						},
						{
							"indexed": false,
							"internalType": "uint64",
							"name": "revision",
							"type": "uint64"
						},
						{
							"indexed": false,
							"internalType": "uint32",
							"name": "taskAcceptCreator",
							"type": "uint32"
						},
						{
							"indexed": false,
							"internalType": "uint32",
							"name": "taskAcceptMember",
							"type": "uint32"
						},
						{
							"indexed": false,
							"internalType": "uint32",
							"name": "deadlineHitCreator",
							"type": "uint32"
						},
						{
							"indexed": false,
							"internalType": "uint32",
							"name": "deadlineHitMember",
							"type": "uint32"
						}
					],
					"name": "reputationPointsChanged",
					"type": "event"
				},
				{
					"anonymous": false,
					"inputs": [
						{
							"indexed": false,
							"internalType": "uint256",
							"name": "low",
							"type": "uint256"
						},
						{
							"indexed": false,
							"internalType": "uint256",
							"name": "midLow",
							"type": "uint256"
						},
						{
							"indexed": false,
							"internalType": "uint256",
							"name": "mid",
							"type": "uint256"
						},
						{
							"indexed": false,
							"internalType": "uint256",
							"name": "midHigh",
							"type": "uint256"
						},
						{
							"indexed": false,
							"internalType": "uint256",
							"name": "high",
							"type": "uint256"
						},
						{
							"indexed": false,
							"internalType": "uint256",
							"name": "ultraHigh",
							"type": "uint256"
						}
					],
					"name": "stakeAmountsChanged",
					"type": "event"
				},
				{
					"anonymous": false,
					"inputs": [
						{
							"indexed": false,
							"internalType": "uint256",
							"name": "low",
							"type": "uint256"
						},
						{
							"indexed": false,
							"internalType": "uint256",
							"name": "midleLow",
							"type": "uint256"
						},
						{
							"indexed": false,
							"internalType": "uint256",
							"name": "midle",
							"type": "uint256"
						},
						{
							"indexed": false,
							"internalType": "uint256",
							"name": "midleHigh",
							"type": "uint256"
						},
						{
							"indexed": false,
							"internalType": "uint256",
							"name": "high",
							"type": "uint256"
						},
						{
							"indexed": false,
							"internalType": "uint256",
							"name": "ultraHigh",
							"type": "uint256"
						}
					],
					"name": "stakeCategorysChanged",
					"type": "event"
				},
				{
					"inputs": [],
					"name": "StakeCategorys",
					"outputs": [
						{
							"internalType": "uint256",
							"name": "low",
							"type": "uint256"
						},
						{
							"internalType": "uint256",
							"name": "midleLow",
							"type": "uint256"
						},
						{
							"internalType": "uint256",
							"name": "midle",
							"type": "uint256"
						},
						{
							"internalType": "uint256",
							"name": "midleHigh",
							"type": "uint256"
						},
						{
							"internalType": "uint256",
							"name": "high",
							"type": "uint256"
						},
						{
							"internalType": "uint256",
							"name": "ultraHigh",
							"type": "uint256"
						}
					],
					"stateMutability": "view",
					"type": "function"
				},
				{
					"inputs": [],
					"name": "StateVars",
					"outputs": [
						{
							"internalType": "uint256",
							"name": "maxStake",
							"type": "uint256"
						},
						{
							"internalType": "uint256",
							"name": "maxReward",
							"type": "uint256"
						},
						{
							"internalType": "uint64",
							"name": "minRevisionTimeInHour",
							"type": "uint64"
						},
						{
							"internalType": "uint64",
							"name": "NegPenalty",
							"type": "uint64"
						},
						{
							"internalType": "uint64",
							"name": "feePercentage",
							"type": "uint64"
						},
						{
							"internalType": "uint64",
							"name": "maxRevision",
							"type": "uint64"
						}
					],
					"stateMutability": "view",
					"type": "function"
				},
				{
					"inputs": [],
					"name": "__getCancelByMe",
					"outputs": [
						{
							"internalType": "uint64",
							"name": "",
							"type": "uint64"
						}
					],
					"stateMutability": "view",
					"type": "function"
				},
				{
					"inputs": [],
					"name": "__getCategoryHigh",
					"outputs": [
						{
							"internalType": "uint256",
							"name": "",
							"type": "uint256"
						}
					],
					"stateMutability": "view",
					"type": "function"
				},
				{
					"inputs": [],
					"name": "__getCategoryLow",
					"outputs": [
						{
							"internalType": "uint256",
							"name": "",
							"type": "uint256"
						}
					],
					"stateMutability": "view",
					"type": "function"
				},
				{
					"inputs": [],
					"name": "__getCategoryMidle",
					"outputs": [
						{
							"internalType": "uint256",
							"name": "",
							"type": "uint256"
						}
					],
					"stateMutability": "view",
					"type": "function"
				},
				{
					"inputs": [],
					"name": "__getCategoryMidleHigh",
					"outputs": [
						{
							"internalType": "uint256",
							"name": "",
							"type": "uint256"
						}
					],
					"stateMutability": "view",
					"type": "function"
				},
				{
					"inputs": [],
					"name": "__getCategoryMidleLow",
					"outputs": [
						{
							"internalType": "uint256",
							"name": "",
							"type": "uint256"
						}
					],
					"stateMutability": "view",
					"type": "function"
				},
				{
					"inputs": [],
					"name": "__getCategoryUltraHigh",
					"outputs": [
						{
							"internalType": "uint256",
							"name": "",
							"type": "uint256"
						}
					],
					"stateMutability": "view",
					"type": "function"
				},
				{
					"inputs": [],
					"name": "__getDeadlineHitCreator",
					"outputs": [
						{
							"internalType": "uint32",
							"name": "",
							"type": "uint32"
						}
					],
					"stateMutability": "view",
					"type": "function"
				},
				{
					"inputs": [],
					"name": "__getDeadlineHitMember",
					"outputs": [
						{
							"internalType": "uint32",
							"name": "",
							"type": "uint32"
						}
					],
					"stateMutability": "view",
					"type": "function"
				},
				{
					"inputs": [],
					"name": "__getDeadlineScore",
					"outputs": [
						{
							"internalType": "uint64",
							"name": "",
							"type": "uint64"
						}
					],
					"stateMutability": "view",
					"type": "function"
				},
				{
					"inputs": [],
					"name": "__getFeePercentage",
					"outputs": [
						{
							"internalType": "uint64",
							"name": "",
							"type": "uint64"
						}
					],
					"stateMutability": "view",
					"type": "function"
				},
				{
					"inputs": [],
					"name": "__getMaxRevision",
					"outputs": [
						{
							"internalType": "uint64",
							"name": "",
							"type": "uint64"
						}
					],
					"stateMutability": "view",
					"type": "function"
				},
				{
					"inputs": [],
					"name": "__getMaxReward",
					"outputs": [
						{
							"internalType": "uint256",
							"name": "",
							"type": "uint256"
						}
					],
					"stateMutability": "view",
					"type": "function"
				},
				{
					"inputs": [],
					"name": "__getMaxStake",
					"outputs": [
						{
							"internalType": "uint256",
							"name": "",
							"type": "uint256"
						}
					],
					"stateMutability": "view",
					"type": "function"
				},
				{
					"inputs": [],
					"name": "__getMinRevisionTimeInHour",
					"outputs": [
						{
							"internalType": "uint64",
							"name": "",
							"type": "uint64"
						}
					],
					"stateMutability": "view",
					"type": "function"
				},
				{
					"inputs": [],
					"name": "__getNegPenalty",
					"outputs": [
						{
							"internalType": "uint64",
							"name": "",
							"type": "uint64"
						}
					],
					"stateMutability": "view",
					"type": "function"
				},
				{
					"inputs": [],
					"name": "__getReputationScore",
					"outputs": [
						{
							"internalType": "uint64",
							"name": "",
							"type": "uint64"
						}
					],
					"stateMutability": "view",
					"type": "function"
				},
				{
					"inputs": [],
					"name": "__getRevisionPenalty",
					"outputs": [
						{
							"internalType": "uint64",
							"name": "",
							"type": "uint64"
						}
					],
					"stateMutability": "view",
					"type": "function"
				},
				{
					"inputs": [],
					"name": "__getRevisionScore",
					"outputs": [
						{
							"internalType": "uint64",
							"name": "",
							"type": "uint64"
						}
					],
					"stateMutability": "view",
					"type": "function"
				},
				{
					"inputs": [],
					"name": "__getRewardScore",
					"outputs": [
						{
							"internalType": "uint64",
							"name": "",
							"type": "uint64"
						}
					],
					"stateMutability": "view",
					"type": "function"
				},
				{
					"inputs": [],
					"name": "__getStakeHigh",
					"outputs": [
						{
							"internalType": "uint256",
							"name": "",
							"type": "uint256"
						}
					],
					"stateMutability": "view",
					"type": "function"
				},
				{
					"inputs": [],
					"name": "__getStakeLow",
					"outputs": [
						{
							"internalType": "uint256",
							"name": "",
							"type": "uint256"
						}
					],
					"stateMutability": "view",
					"type": "function"
				},
				{
					"inputs": [],
					"name": "__getStakeMid",
					"outputs": [
						{
							"internalType": "uint256",
							"name": "",
							"type": "uint256"
						}
					],
					"stateMutability": "view",
					"type": "function"
				},
				{
					"inputs": [],
					"name": "__getStakeMidHigh",
					"outputs": [
						{
							"internalType": "uint256",
							"name": "",
							"type": "uint256"
						}
					],
					"stateMutability": "view",
					"type": "function"
				},
				{
					"inputs": [],
					"name": "__getStakeMidLow",
					"outputs": [
						{
							"internalType": "uint256",
							"name": "",
							"type": "uint256"
						}
					],
					"stateMutability": "view",
					"type": "function"
				},
				{
					"inputs": [],
					"name": "__getStakeUltraHigh",
					"outputs": [
						{
							"internalType": "uint256",
							"name": "",
							"type": "uint256"
						}
					],
					"stateMutability": "view",
					"type": "function"
				},
				{
					"inputs": [],
					"name": "__getTaskAcceptCreator",
					"outputs": [
						{
							"internalType": "uint32",
							"name": "",
							"type": "uint32"
						}
					],
					"stateMutability": "view",
					"type": "function"
				},
				{
					"inputs": [],
					"name": "__getTaskAcceptMember",
					"outputs": [
						{
							"internalType": "uint32",
							"name": "",
							"type": "uint32"
						}
					],
					"stateMutability": "view",
					"type": "function"
				},
				{
					"inputs": [],
					"name": "accessControl",
					"outputs": [
						{
							"internalType": "contract IAccessControl",
							"name": "",
							"type": "address"
						}
					],
					"stateMutability": "view",
					"type": "function"
				},
				{
					"inputs": [
						{
							"internalType": "address",
							"name": "_newAccesControl",
							"type": "address"
						}
					],
					"name": "changeAccessControl",
					"outputs": [],
					"stateMutability": "nonpayable",
					"type": "function"
				},
				{
					"inputs": [],
					"name": "componentWeightPercentages",
					"outputs": [
						{
							"internalType": "uint64",
							"name": "rewardScore",
							"type": "uint64"
						},
						{
							"internalType": "uint64",
							"name": "reputationScore",
							"type": "uint64"
						},
						{
							"internalType": "uint64",
							"name": "deadlineScore",
							"type": "uint64"
						},
						{
							"internalType": "uint64",
							"name": "revisionScore",
							"type": "uint64"
						}
					],
					"stateMutability": "view",
					"type": "function"
				},
				{
					"inputs": [],
					"name": "pause",
					"outputs": [],
					"stateMutability": "nonpayable",
					"type": "function"
				},
				{
					"inputs": [],
					"name": "paused",
					"outputs": [
						{
							"internalType": "bool",
							"name": "",
							"type": "bool"
						}
					],
					"stateMutability": "view",
					"type": "function"
				},
				{
					"inputs": [],
					"name": "reputationPoints",
					"outputs": [
						{
							"internalType": "uint64",
							"name": "CancelByMe",
							"type": "uint64"
						},
						{
							"internalType": "uint64",
							"name": "revision",
							"type": "uint64"
						},
						{
							"internalType": "uint32",
							"name": "taskAcceptCreator",
							"type": "uint32"
						},
						{
							"internalType": "uint32",
							"name": "taskAcceptMember",
							"type": "uint32"
						},
						{
							"internalType": "uint32",
							"name": "deadlineHitCreator",
							"type": "uint32"
						},
						{
							"internalType": "uint32",
							"name": "deadlineHitMember",
							"type": "uint32"
						}
					],
					"stateMutability": "view",
					"type": "function"
				},
				{
					"inputs": [
						{
							"internalType": "uint64",
							"name": "rewardScore",
							"type": "uint64"
						},
						{
							"internalType": "uint64",
							"name": "reputationScore",
							"type": "uint64"
						},
						{
							"internalType": "uint64",
							"name": "deadlineScore",
							"type": "uint64"
						},
						{
							"internalType": "uint64",
							"name": "revisionScore",
							"type": "uint64"
						}
					],
					"name": "setComponentWeightPercentages",
					"outputs": [],
					"stateMutability": "nonpayable",
					"type": "function"
				},
				{
					"inputs": [
						{
							"internalType": "uint64",
							"name": "CancelByMeRP",
							"type": "uint64"
						},
						{
							"internalType": "uint64",
							"name": "revisionRP",
							"type": "uint64"
						},
						{
							"internalType": "uint32",
							"name": "taskAcceptCreatorRP",
							"type": "uint32"
						},
						{
							"internalType": "uint32",
							"name": "taskAcceptMemberRP",
							"type": "uint32"
						},
						{
							"internalType": "uint32",
							"name": "deadlineHitCreatorRP",
							"type": "uint32"
						},
						{
							"internalType": "uint32",
							"name": "deadlineHitMemberRP",
							"type": "uint32"
						}
					],
					"name": "setReputationPoints",
					"outputs": [],
					"stateMutability": "nonpayable",
					"type": "function"
				},
				{
					"inputs": [
						{
							"internalType": "uint256",
							"name": "low",
							"type": "uint256"
						},
						{
							"internalType": "uint256",
							"name": "midLow",
							"type": "uint256"
						},
						{
							"internalType": "uint256",
							"name": "mid",
							"type": "uint256"
						},
						{
							"internalType": "uint256",
							"name": "midHigh",
							"type": "uint256"
						},
						{
							"internalType": "uint256",
							"name": "high",
							"type": "uint256"
						},
						{
							"internalType": "uint256",
							"name": "ultraHigh",
							"type": "uint256"
						}
					],
					"name": "setStakeAmounts",
					"outputs": [],
					"stateMutability": "nonpayable",
					"type": "function"
				},
				{
					"inputs": [
						{
							"internalType": "uint256",
							"name": "low",
							"type": "uint256"
						},
						{
							"internalType": "uint256",
							"name": "midLow",
							"type": "uint256"
						},
						{
							"internalType": "uint256",
							"name": "mid",
							"type": "uint256"
						},
						{
							"internalType": "uint256",
							"name": "midHigh",
							"type": "uint256"
						},
						{
							"internalType": "uint256",
							"name": "high",
							"type": "uint256"
						},
						{
							"internalType": "uint256",
							"name": "ultraHigh",
							"type": "uint256"
						}
					],
					"name": "setStakeCategorys",
					"outputs": [],
					"stateMutability": "nonpayable",
					"type": "function"
				},
				{
					"inputs": [
						{
							"internalType": "uint256",
							"name": "maxStakeInEther",
							"type": "uint256"
						},
						{
							"internalType": "uint256",
							"name": "maxRewardInEther",
							"type": "uint256"
						},
						{
							"internalType": "uint64",
							"name": "minRevisionTimeInHour",
							"type": "uint64"
						},
						{
							"internalType": "uint64",
							"name": "NegPenalty",
							"type": "uint64"
						},
						{
							"internalType": "uint64",
							"name": "feePercentage",
							"type": "uint64"
						},
						{
							"internalType": "uint64",
							"name": "maxRevision",
							"type": "uint64"
						}
					],
					"name": "setStateVars",
					"outputs": [],
					"stateMutability": "nonpayable",
					"type": "function"
				},
				{
					"inputs": [],
					"name": "stakeAmounts",
					"outputs": [
						{
							"internalType": "uint256",
							"name": "low",
							"type": "uint256"
						},
						{
							"internalType": "uint256",
							"name": "midLow",
							"type": "uint256"
						},
						{
							"internalType": "uint256",
							"name": "mid",
							"type": "uint256"
						},
						{
							"internalType": "uint256",
							"name": "midHigh",
							"type": "uint256"
						},
						{
							"internalType": "uint256",
							"name": "high",
							"type": "uint256"
						},
						{
							"internalType": "uint256",
							"name": "ultraHigh",
							"type": "uint256"
						}
					],
					"stateMutability": "view",
					"type": "function"
				},
				{
					"inputs": [],
					"name": "unpause",
					"outputs": [],
					"stateMutability": "nonpayable",
					"type": "function"
				}
			],
			"devdoc": {
				"details": "Uses AccessControl for permissioning and includes setters restricted to employees.",
				"errors": {
					"EnforcedPause()": [
						{
							"details": "The operation failed because the contract is paused."
						}
					],
					"ExpectedPause()": [
						{
							"details": "The operation failed because the contract is not paused."
						}
					],
					"InvalidInitialization()": [
						{
							"details": "The contract is already initialized."
						}
					],
					"NotInitializing()": [
						{
							"details": "The contract is not initializing."
						}
					]
				},
				"events": {
					"Initialized(uint64)": {
						"details": "Triggered when the contract has been initialized or reinitialized."
					},
					"Paused(address)": {
						"details": "Emitted when the pause is triggered by `account`."
					},
					"Unpaused(address)": {
						"details": "Emitted when the pause is lifted by `account`."
					}
				},
				"kind": "dev",
				"methods": {
					"constructor": {
						"details": "Values that represent ETH must be passed in plain integers (e.g., 5 = 5 ETH)."
					},
					"paused()": {
						"details": "Returns true if the contract is paused, and false otherwise."
					},
					"setComponentWeightPercentages(uint64,uint64,uint64,uint64)": {
						"details": "Only callable by employees.",
						"params": {
							"deadlineScore": "Percentage weight for deadline score.",
							"reputationScore": "Percentage weight for reputation score.",
							"revisionScore": "Percentage weight for revision score.",
							"rewardScore": "Percentage weight for reward score."
						}
					},
					"setReputationPoints(uint64,uint64,uint32,uint32,uint32,uint32)": {
						"details": "Only employees can call this function."
					},
					"setStakeAmounts(uint256,uint256,uint256,uint256,uint256,uint256)": {
						"details": "All inputs are converted to wei using * 1 ether.",
						"params": {
							"high": "Value for high tier.",
							"low": "Value for low stake tier (ETH without decimals).",
							"mid": "Value for mid tier.",
							"midHigh": "Value for midHigh tier.",
							"midLow": "Value for midLow tier.",
							"ultraHigh": "Value for ultraHigh tier."
						}
					},
					"setStateVars(uint256,uint256,uint64,uint64,uint64,uint64)": {
						"details": "All stake/reward values must be given in ETH units (converted internally)."
					}
				},
				"title": "stateVariable",
				"version": 1
			},
			"evm": {
				"assembly": "    /* \"system/StateVariable.sol\":447:17631  contract stateVariable is AccesControl, Pausable {... */\n  mstore(0x40, 0x0260)\n  jumpi(tag_25, callvalue)\n  mload(0x40)\n  0x0240\n  dup2\n  swap1\n  mstore\n  bytecodeSize\n  swap1\n  codesize\n  dup3\n  swap1\n  sub\n  swap1\n  not(0x1f)\n  0x1f\n  dup4\n  add\n  and\n  dup2\n  add\n  swap1\n  dup2\n  lt\n  sub(shl(0x40, 0x01), 0x01)\n  dup3\n  gt\n  or\n  tag_32\n  jumpi\n  0x03a0\n  swap3\n  dup3\n  swap2\n  0x40\n  mstore\n  mload(0x0240)\n  codecopy\n  mload(0x0240)\n  swap1\n  dup2\n  add\n  sub\n  slt\n  tag_25\n  jumpi\n  tag_11\n  mload(0x0240)\n  tag_2\n  jump\t// in\ntag_11:\n  0xe0\n  mstore\n  tag_12\n  add(mload(0x0240), 0x20)\n  tag_2\n  jump\t// in\ntag_12:\n  tag_13\n  add(mload(0x0240), 0x40)\n  tag_2\n  jump\t// in\ntag_13:\n  tag_14\n  add(mload(0x0240), 0x60)\n  tag_2\n  jump\t// in\ntag_14:\n  mload(add(mload(0x0240), 0x80))\n  mload(add(mload(0x0240), 0xa0))\n  mload(add(mload(0x0240), 0xc0))\n  mload(add(mload(0x0240), 0xe0))\n  mload(add(mload(0x0240), 0x0100))\n  mload(add(mload(0x0240), 0x0120))\n  swap2\n  tag_15\n  add(mload(0x0240), 0x0140)\n  tag_2\n  jump\t// in\ntag_15:\n  swap4\n  tag_16\n  add(mload(0x0240), 0x0160)\n  tag_2\n  jump\t// in\ntag_16:\n  swap6\n  tag_17\n  add(mload(0x0240), 0x0180)\n  tag_3\n  jump\t// in\ntag_17:\n  swap8\n  tag_18\n  add(mload(0x0240), 0x01a0)\n  tag_3\n  jump\t// in\ntag_18:\n  swap10\n  tag_19\n  add(mload(0x0240), 0x01c0)\n  tag_3\n  jump\t// in\ntag_19:\n  swap12\n  tag_20\n  add(mload(0x0240), 0x01e0)\n  tag_3\n  jump\t// in\ntag_20:\n  swap14\n  mstore(0x80, mload(add(mload(0x0240), 0x0200)))\n  mstore(0x0220, mload(add(mload(0x0240), 0x0220)))\n  tag_21\n  0x0240\n  dup1\n  mload\n  add\n  tag_2\n  jump\t// in\ntag_21:\n  0x0200\n  mstore\n  tag_22\n  add(mload(0x0240), 0x0260)\n  tag_2\n  jump\t// in\ntag_22:\n  0x01e0\n  mstore\n  tag_23\n  add(mload(0x0240), 0x0280)\n  tag_2\n  jump\t// in\ntag_23:\n  0x01c0\n  mstore\n  tag_24\n  add(mload(0x0240), 0x02a0)\n  tag_2\n  jump\t// in\ntag_24:\n  0x01a0\n  mstore\n  mload(0x0240)\n  0x02c0\n  dup2\n  add\n  mload\n  0x0180\n  mstore\n  0x02e0\n  dup2\n  add\n  mload\n  0x0160\n  mstore\n  0x0300\n  dup2\n  add\n  mload\n  0x0140\n  mstore\n  0x0320\n  dup2\n  add\n  mload\n  0x0120\n  mstore\n  0x0340\n  dup2\n  add\n  mload\n  0x0100\n  mstore\n  0x0360\n  dup2\n  add\n  mload\n  0xc0\n  mstore\n  0x0380\n  add\n  mload\n  0xa0\n  dup2\n  swap1\n  mstore\n  sub(shl(0xa0, 0x01), 0x01)\n  dup2\n  and\n  swap1\n  sub\n  tag_25\n  jumpi\n    /* \"system/StateVariable.sol\":5629:5632  100 */\n  0x64\n    /* \"system/StateVariable.sol\":447:17631  contract stateVariable is AccesControl, Pausable {... */\n  0x01\n  dup1\n  0x40\n  shl\n  sub\n    /* \"system/StateVariable.sol\":5540:5605  _rewardScore + _reputationScore + _deadlineScore + _revisionScore */\n  tag_27\n    /* \"system/StateVariable.sol\":5540:5571  _rewardScore + _reputationScore */\n  dup6\n    /* \"system/StateVariable.sol\":5540:5588  _rewardScore + _reputationScore + _deadlineScore */\n  tag_29\n    /* \"system/StateVariable.sol\":5540:5571  _rewardScore + _reputationScore */\n  dup7\n  tag_29\n  dup8\n  mload(0xe0)\n  tag_4\n  jump\t// in\ntag_29:\n    /* \"system/StateVariable.sol\":5540:5588  _rewardScore + _reputationScore + _deadlineScore */\n  tag_4\n  jump\t// in\n    /* \"system/StateVariable.sol\":5540:5605  _rewardScore + _reputationScore + _deadlineScore + _revisionScore */\ntag_27:\n    /* \"system/StateVariable.sol\":447:17631  contract stateVariable is AccesControl, Pausable {... */\n  and\n    /* \"system/StateVariable.sol\":5620:5632  total != 100 */\n  sub\n    /* \"system/StateVariable.sol\":5616:5657  if (total != 100) revert TotalMustBe100() */\n  tag_30\n  jumpi\n    /* \"system/StateVariable.sol\":447:17631  contract stateVariable is AccesControl, Pausable {... */\n  mload(0x40)\n  0x80\n  dup2\n  add\n  sub(shl(0x40, 0x01), 0x01)\n  dup2\n  gt\n  dup3\n  dup3\n  lt\n  or\n  tag_32\n  jumpi\n  0x40\n  swap1\n  dup2\n  mstore\n  mload(0xe0)\n  sub(shl(0x40, 0x01), 0x01)\n  swap1\n  dup2\n  and\n  dup1\n  dup5\n  mstore\n  dup5\n  dup3\n  and\n  0x20\n    /* \"system/StateVariable.sol\":5699:5913  ComponentWeightPercentage({... */\n  dup6\n  add\n    /* \"system/StateVariable.sol\":447:17631  contract stateVariable is AccesControl, Pausable {... */\n  mstore\n  dup6\n  dup3\n  and\n    /* \"system/StateVariable.sol\":5699:5913  ComponentWeightPercentage({... */\n  dup5\n  dup5\n  add\n    /* \"system/StateVariable.sol\":447:17631  contract stateVariable is AccesControl, Pausable {... */\n  mstore\n  swap1\n  dup7\n  and\n  0x60\n    /* \"system/StateVariable.sol\":5699:5913  ComponentWeightPercentage({... */\n  swap1\n  swap4\n  add\n    /* \"system/StateVariable.sol\":447:17631  contract stateVariable is AccesControl, Pausable {... */\n  swap3\n  swap1\n  swap3\n  mstore\n  swap2\n  swap1\n  swap2\n  shl\n  0xffffffffffffffff0000000000000000\n  and\n  or\n  0x80\n  swap2\n  swap1\n  swap2\n  shl\n  sub(shl(0xc0, 0x01), shl(0x80, 0x01))\n  and\n  or\n  0xc0\n  swap2\n  swap1\n  swap2\n  shl\n  not(sub(shl(0xc0, 0x01), 0x01))\n  and\n  or\n  0x01\n  sstore\n    /* \"system/StateVariable.sol\":5984:5991  1 ether */\n  0x0de0b6b3a7640000\n    /* \"system/StateVariable.sol\":447:17631  contract stateVariable is AccesControl, Pausable {... */\n  dup2\n  dup2\n  mul\n  swap2\n  dup1\n  iszero\n  swap1\n  dup4\n  div\n  swap1\n  swap2\n  eq\n  or\n  iszero\n  tag_63\n  jumpi\n    /* \"system/StateVariable.sol\":5984:5991  1 ether */\n  0x0de0b6b3a7640000\n    /* \"system/StateVariable.sol\":447:17631  contract stateVariable is AccesControl, Pausable {... */\n  dup3\n  mul\n  swap2\n  dup1\n  dup4\n  div\n    /* \"system/StateVariable.sol\":5984:5991  1 ether */\n  0x0de0b6b3a7640000\n    /* \"system/StateVariable.sol\":447:17631  contract stateVariable is AccesControl, Pausable {... */\n  eq\n  swap1\n  iszero\n  or\n  iszero\n  tag_63\n  jumpi\n    /* \"system/StateVariable.sol\":5984:5991  1 ether */\n  0x0de0b6b3a7640000\n    /* \"system/StateVariable.sol\":447:17631  contract stateVariable is AccesControl, Pausable {... */\n  dup4\n  mul\n  swap3\n  dup1\n  dup5\n  div\n    /* \"system/StateVariable.sol\":5984:5991  1 ether */\n  0x0de0b6b3a7640000\n    /* \"system/StateVariable.sol\":447:17631  contract stateVariable is AccesControl, Pausable {... */\n  eq\n  swap1\n  iszero\n  or\n  iszero\n  tag_63\n  jumpi\n    /* \"system/StateVariable.sol\":5984:5991  1 ether */\n  0x0de0b6b3a7640000\n    /* \"system/StateVariable.sol\":447:17631  contract stateVariable is AccesControl, Pausable {... */\n  dup5\n  mul\n  swap4\n  dup1\n  dup6\n  div\n    /* \"system/StateVariable.sol\":5984:5991  1 ether */\n  0x0de0b6b3a7640000\n    /* \"system/StateVariable.sol\":447:17631  contract stateVariable is AccesControl, Pausable {... */\n  eq\n  swap1\n  iszero\n  or\n  iszero\n  tag_63\n  jumpi\n    /* \"system/StateVariable.sol\":5984:5991  1 ether */\n  0x0de0b6b3a7640000\n    /* \"system/StateVariable.sol\":447:17631  contract stateVariable is AccesControl, Pausable {... */\n  dup6\n  mul\n  swap5\n  dup1\n  dup7\n  div\n    /* \"system/StateVariable.sol\":5984:5991  1 ether */\n  0x0de0b6b3a7640000\n    /* \"system/StateVariable.sol\":447:17631  contract stateVariable is AccesControl, Pausable {... */\n  eq\n  swap1\n  iszero\n  or\n  iszero\n  tag_63\n  jumpi\n    /* \"system/StateVariable.sol\":5984:5991  1 ether */\n  0x0de0b6b3a7640000\n    /* \"system/StateVariable.sol\":447:17631  contract stateVariable is AccesControl, Pausable {... */\n  dup7\n  mul\n  swap6\n  dup1\n  dup8\n  div\n    /* \"system/StateVariable.sol\":5984:5991  1 ether */\n  0x0de0b6b3a7640000\n    /* \"system/StateVariable.sol\":447:17631  contract stateVariable is AccesControl, Pausable {... */\n  eq\n  swap1\n  iszero\n  or\n  iszero\n  tag_63\n  jumpi\n  tag_46\n  tag_1\n  jump\t// in\ntag_46:\n  dup2\n  dup2\n  mstore\n  0x20\n    /* \"system/StateVariable.sol\":5941:6221  StakeAmount({... */\n  dup2\n  add\n    /* \"system/StateVariable.sol\":447:17631  contract stateVariable is AccesControl, Pausable {... */\n  dup4\n  swap1\n  mstore\n  0x40\n    /* \"system/StateVariable.sol\":5941:6221  StakeAmount({... */\n  dup2\n  add\n    /* \"system/StateVariable.sol\":447:17631  contract stateVariable is AccesControl, Pausable {... */\n  dup5\n  swap1\n  mstore\n  0x60\n    /* \"system/StateVariable.sol\":5941:6221  StakeAmount({... */\n  dup2\n  add\n    /* \"system/StateVariable.sol\":447:17631  contract stateVariable is AccesControl, Pausable {... */\n  dup6\n  swap1\n  mstore\n  0x80\n    /* \"system/StateVariable.sol\":5941:6221  StakeAmount({... */\n  dup2\n  add\n    /* \"system/StateVariable.sol\":447:17631  contract stateVariable is AccesControl, Pausable {... */\n  dup7\n  swap1\n  mstore\n  0xa0\n    /* \"system/StateVariable.sol\":5941:6221  StakeAmount({... */\n  add\n    /* \"system/StateVariable.sol\":447:17631  contract stateVariable is AccesControl, Pausable {... */\n  dup7\n  swap1\n  mstore\n    /* \"system/StateVariable.sol\":5926:6221  stakeAmounts = StakeAmount({... */\n  0x02\n    /* \"system/StateVariable.sol\":447:17631  contract stateVariable is AccesControl, Pausable {... */\n  sstore\n  0x03\n  sstore\n  0x04\n  sstore\n  0x05\n  sstore\n  0x06\n  sstore\n  0x07\n  sstore\n  tag_47\n  tag_1\n  jump\t// in\ntag_47:\n  sub(shl(0x40, 0x01), 0x01)\n  swap2\n  dup3\n  and\n  dup1\n  dup3\n  mstore\n  swap2\n  dup4\n  and\n  0x20\n    /* \"system/StateVariable.sol\":6253:6567  ReputationPoint({... */\n  dup3\n  add\n    /* \"system/StateVariable.sol\":447:17631  contract stateVariable is AccesControl, Pausable {... */\n  mstore\n  0xffffffff\n  dup5\n  dup2\n  and\n  0x40\n    /* \"system/StateVariable.sol\":6253:6567  ReputationPoint({... */\n  dup1\n  dup5\n  add\n    /* \"system/StateVariable.sol\":447:17631  contract stateVariable is AccesControl, Pausable {... */\n  swap2\n  swap1\n  swap2\n  mstore\n  dup7\n  dup3\n  and\n  0x60\n    /* \"system/StateVariable.sol\":6253:6567  ReputationPoint({... */\n  dup5\n  add\n    /* \"system/StateVariable.sol\":447:17631  contract stateVariable is AccesControl, Pausable {... */\n  mstore\n  dup8\n  dup3\n  and\n  0x80\n    /* \"system/StateVariable.sol\":6253:6567  ReputationPoint({... */\n  dup1\n  dup6\n  add\n    /* \"system/StateVariable.sol\":447:17631  contract stateVariable is AccesControl, Pausable {... */\n  swap2\n  swap1\n  swap2\n  mstore\n  swap2\n  dup10\n  and\n  0xa0\n    /* \"system/StateVariable.sol\":6253:6567  ReputationPoint({... */\n  swap4\n  dup5\n  add\n    /* \"system/StateVariable.sol\":447:17631  contract stateVariable is AccesControl, Pausable {... */\n  mstore\n  0xc0\n  swap8\n  swap1\n  swap8\n  shl\n  shl(0xc0, 0xffffffff)\n  and\n  swap6\n  swap1\n  swap2\n  shl\n  shl(0xa0, 0xffffffff)\n  and\n  swap3\n  swap1\n  swap6\n  shl\n  0xffffffffffffffff0000000000000000\n  and\n  or\n  swap2\n  dup5\n  shl\n  shl(0x80, 0xffffffff)\n  and\n  swap2\n  swap1\n  swap2\n  or\n  or\n  or\n  0xe0\n  swap3\n  swap1\n  swap3\n  shl\n  not(sub(shl(0xe0, 0x01), 0x01))\n  and\n  swap2\n  swap1\n  swap2\n  or\n    /* \"system/StateVariable.sol\":6234:6567  reputationPoints = ReputationPoint({... */\n  0x08\n    /* \"system/StateVariable.sol\":447:17631  contract stateVariable is AccesControl, Pausable {... */\n  sstore\n  mload\n    /* \"system/StateVariable.sol\":5984:5991  1 ether */\n  0x0de0b6b3a7640000\n    /* \"system/StateVariable.sol\":447:17631  contract stateVariable is AccesControl, Pausable {... */\n  dup2\n  dup2\n  mul\n  swap2\n  dup1\n  iszero\n  swap1\n  dup4\n  div\n  swap1\n  swap2\n  eq\n  or\n  iszero\n  tag_63\n  jumpi\n    /* \"system/StateVariable.sol\":5984:5991  1 ether */\n  0x0de0b6b3a7640000\n    /* \"system/StateVariable.sol\":447:17631  contract stateVariable is AccesControl, Pausable {... */\n  mload(0x0220)\n  mul\n  mload(0x0220)\n  dup2\n  div\n    /* \"system/StateVariable.sol\":5984:5991  1 ether */\n  0x0de0b6b3a7640000\n    /* \"system/StateVariable.sol\":447:17631  contract stateVariable is AccesControl, Pausable {... */\n  eq\n  iszero(mload(0x0220))\n  or\n  iszero\n  tag_63\n  jumpi\n  tag_52\n  tag_1\n  jump\t// in\ntag_52:\n  dup3\n  dup2\n  mstore\n  0x20\n    /* \"system/StateVariable.sol\":6592:6899  StateVar({... */\n  dup2\n  add\n    /* \"system/StateVariable.sol\":447:17631  contract stateVariable is AccesControl, Pausable {... */\n  dup3\n  swap1\n  mstore\n  mload(0x0200)\n  sub(shl(0x40, 0x01), 0x01)\n  swap1\n  dup2\n  and\n  0x40\n    /* \"system/StateVariable.sol\":6592:6899  StateVar({... */\n  dup1\n  dup5\n  add\n    /* \"system/StateVariable.sol\":447:17631  contract stateVariable is AccesControl, Pausable {... */\n  dup3\n  swap1\n  mstore\n  0x01e0\n  dup1\n  mload\n  dup5\n  and\n  0x60\n    /* \"system/StateVariable.sol\":6592:6899  StateVar({... */\n  dup7\n  add\n    /* \"system/StateVariable.sol\":447:17631  contract stateVariable is AccesControl, Pausable {... */\n  mstore\n  0x01c0\n  dup1\n  mload\n  dup6\n  and\n  0x80\n    /* \"system/StateVariable.sol\":6592:6899  StateVar({... */\n  dup1\n  dup9\n  add\n    /* \"system/StateVariable.sol\":447:17631  contract stateVariable is AccesControl, Pausable {... */\n  swap2\n  swap1\n  swap2\n  mstore\n  0x01a0\n  dup1\n  mload\n  swap1\n  swap7\n  and\n  0xa0\n    /* \"system/StateVariable.sol\":6592:6899  StateVar({... */\n  swap1\n  swap8\n  add\n    /* \"system/StateVariable.sol\":447:17631  contract stateVariable is AccesControl, Pausable {... */\n  swap7\n  swap1\n  swap7\n  mstore\n    /* \"system/StateVariable.sol\":6580:6899  StateVars = StateVar({... */\n  0x09\n    /* \"system/StateVariable.sol\":447:17631  contract stateVariable is AccesControl, Pausable {... */\n  swap8\n  swap1\n  swap8\n  sstore\n  0x0a\n  swap6\n  swap1\n  swap6\n  sstore\n  swap4\n  mload\n  swap5\n  mload\n  swap2\n  mload\n  swap5\n  swap1\n  swap4\n  shl\n  0xffffffffffffffff0000000000000000\n  and\n  swap1\n  swap3\n  or\n  swap2\n  swap1\n  shl\n  sub(shl(0xc0, 0x01), shl(0x80, 0x01))\n  and\n  or\n  0xc0\n  swap2\n  swap1\n  swap2\n  shl\n  not(sub(shl(0xc0, 0x01), 0x01))\n  and\n  or\n  0x0b\n  sstore\n  mload(0x0180)\n    /* \"system/StateVariable.sol\":5984:5991  1 ether */\n  0x0de0b6b3a7640000\n    /* \"system/StateVariable.sol\":447:17631  contract stateVariable is AccesControl, Pausable {... */\n  dup2\n  dup2\n  mul\n  swap2\n  dup1\n  iszero\n  swap1\n  dup4\n  div\n  swap1\n  swap2\n  eq\n  or\n  iszero\n  tag_63\n  jumpi\n    /* \"system/StateVariable.sol\":5984:5991  1 ether */\n  0x0de0b6b3a7640000\n    /* \"system/StateVariable.sol\":447:17631  contract stateVariable is AccesControl, Pausable {... */\n  mload(0x0160)\n  mul\n  mload(0x0160)\n  dup2\n  div\n    /* \"system/StateVariable.sol\":5984:5991  1 ether */\n  0x0de0b6b3a7640000\n    /* \"system/StateVariable.sol\":447:17631  contract stateVariable is AccesControl, Pausable {... */\n  eq\n  iszero(mload(0x0160))\n  or\n  iszero\n  tag_63\n  jumpi\n    /* \"system/StateVariable.sol\":5984:5991  1 ether */\n  0x0de0b6b3a7640000\n    /* \"system/StateVariable.sol\":447:17631  contract stateVariable is AccesControl, Pausable {... */\n  mload(0x0140)\n  mul\n  mload(0x0140)\n  dup2\n  div\n    /* \"system/StateVariable.sol\":5984:5991  1 ether */\n  0x0de0b6b3a7640000\n    /* \"system/StateVariable.sol\":447:17631  contract stateVariable is AccesControl, Pausable {... */\n  eq\n  iszero(mload(0x0140))\n  or\n  iszero\n  tag_63\n  jumpi\n    /* \"system/StateVariable.sol\":5984:5991  1 ether */\n  0x0de0b6b3a7640000\n    /* \"system/StateVariable.sol\":447:17631  contract stateVariable is AccesControl, Pausable {... */\n  mload(0x0120)\n  mul\n  swap1\n  mload(0x0120)\n  dup3\n  div\n    /* \"system/StateVariable.sol\":5984:5991  1 ether */\n  0x0de0b6b3a7640000\n    /* \"system/StateVariable.sol\":447:17631  contract stateVariable is AccesControl, Pausable {... */\n  eq\n  iszero(mload(0x0120))\n  or\n  iszero\n  tag_63\n  jumpi\n    /* \"system/StateVariable.sol\":5984:5991  1 ether */\n  0x0de0b6b3a7640000\n    /* \"system/StateVariable.sol\":447:17631  contract stateVariable is AccesControl, Pausable {... */\n  mload(0x0100)\n  mul\n  swap3\n  mload(0x0100)\n  dup5\n  div\n    /* \"system/StateVariable.sol\":5984:5991  1 ether */\n  0x0de0b6b3a7640000\n    /* \"system/StateVariable.sol\":447:17631  contract stateVariable is AccesControl, Pausable {... */\n  eq\n  iszero(mload(0x0100))\n  or\n  iszero\n  tag_63\n  jumpi\n    /* \"system/StateVariable.sol\":5984:5991  1 ether */\n  0x0de0b6b3a7640000\n    /* \"system/StateVariable.sol\":447:17631  contract stateVariable is AccesControl, Pausable {... */\n  mload(0xc0)\n  mul\n  swap5\n  mload(0xc0)\n  dup7\n  div\n    /* \"system/StateVariable.sol\":5984:5991  1 ether */\n  0x0de0b6b3a7640000\n    /* \"system/StateVariable.sol\":447:17631  contract stateVariable is AccesControl, Pausable {... */\n  eq\n  iszero(mload(0xc0))\n  or\n  iszero\n  tag_63\n  jumpi\n  tag_65\n  tag_1\n  jump\t// in\ntag_65:\n  swap1\n  dup2\n  mstore\n  0x20\n    /* \"system/StateVariable.sol\":6929:7205  StakeCategory({... */\n  dup2\n  add\n    /* \"system/StateVariable.sol\":447:17631  contract stateVariable is AccesControl, Pausable {... */\n  swap2\n  dup3\n  mstore\n  0x40\n    /* \"system/StateVariable.sol\":6929:7205  StakeCategory({... */\n  dup2\n  add\n    /* \"system/StateVariable.sol\":447:17631  contract stateVariable is AccesControl, Pausable {... */\n  swap3\n  dup4\n  mstore\n  0x60\n    /* \"system/StateVariable.sol\":6929:7205  StakeCategory({... */\n  dup2\n  add\n    /* \"system/StateVariable.sol\":447:17631  contract stateVariable is AccesControl, Pausable {... */\n  swap4\n  dup5\n  mstore\n  0x80\n    /* \"system/StateVariable.sol\":6929:7205  StakeCategory({... */\n  dup2\n  add\n    /* \"system/StateVariable.sol\":447:17631  contract stateVariable is AccesControl, Pausable {... */\n  swap5\n  dup6\n  mstore\n  0xa0\n    /* \"system/StateVariable.sol\":6929:7205  StakeCategory({... */\n  dup2\n  add\n    /* \"system/StateVariable.sol\":447:17631  contract stateVariable is AccesControl, Pausable {... */\n  swap6\n  dup7\n  mstore\n  mload\n    /* \"system/StateVariable.sol\":6912:7205  StakeCategorys = StakeCategory({... */\n  0x0c\n    /* \"system/StateVariable.sol\":447:17631  contract stateVariable is AccesControl, Pausable {... */\n  sstore\n  mload\n  0x0d\n  sstore\n  mload\n  0x0e\n  sstore\n  mload\n  0x0f\n  sstore\n  mload\n  0x10\n  sstore\n  mload\n  0x11\n  sstore\n  0x01\n  dup1\n  0xa0\n  shl\n  sub\n  mload(0xa0)\n  and\n    /* \"Pipe/AccesControlPipes.sol\":2628:2643  x != address(0) */\n  iszero\n    /* \"system/StateVariable.sol\":447:17631  contract stateVariable is AccesControl, Pausable {... */\n  tag_66\n  jumpi\n  mload(0xa0)\n  0x00\n  dup1\n  sload\n  not(sub(shl(0xa0, 0x01), 0x01))\n  and\n  sub(shl(0xa0, 0x01), 0x01)\n  swap3\n  swap1\n  swap3\n  and\n  swap2\n  swap1\n  swap2\n  or\n  swap1\n  sstore\n  mload(0x40)\n  dataSize(sub_0)\n  swap1\n  dup2\n  dataOffset(sub_0)\n  dup3\n  codecopy\n  return\ntag_66:\n  mload(0x40)\n  shl(0xe5, 0x461bcd)\n  dup2\n  mstore\n  0x20\n  0x04\n  dup3\n  add\n  mstore\n  0x27\n  0x24\n  dup3\n  add\n  mstore\n  0x416363657373436f6e74726f6c3a207a65726f2061646472657373206e6f7420\n  0x44\n  dup3\n  add\n  mstore\n  shl(0xca, 0x185b1b1bddd959)\n    /* \"system/StateVariable.sol\":5629:5632  100 */\n  0x64\n    /* \"system/StateVariable.sol\":447:17631  contract stateVariable is AccesControl, Pausable {... */\n  dup3\n  add\n  mstore\n  0x84\n  swap1\n  revert\ntag_63:\n  mstore(0x00, shl(0xe0, 0x4e487b71))\n  mstore(0x04, 0x11)\n  revert(0x00, 0x24)\ntag_32:\n  mstore(0x00, shl(0xe0, 0x4e487b71))\n  mstore(0x04, 0x41)\n  revert(0x00, 0x24)\n    /* \"system/StateVariable.sol\":5616:5657  if (total != 100) revert TotalMustBe100() */\ntag_30:\n    /* \"system/StateVariable.sol\":5641:5657  TotalMustBe100() */\n  mstore(0x00, shl(0xe1, 0x62549315))\n  revert(0x00, 0x04)\n    /* \"system/StateVariable.sol\":447:17631  contract stateVariable is AccesControl, Pausable {... */\ntag_25:\n  0x00\n  dup1\n  revert\ntag_1:\n  mload(0x40)\n  swap1\n  0xc0\n  dup3\n  add\n  sub(shl(0x40, 0x01), 0x01)\n  dup2\n  gt\n  dup4\n  dup3\n  lt\n  or\n  tag_32\n  jumpi\n  0x40\n  mstore\n  jump\t// out\ntag_2:\n  mload\n  swap1\n  sub(shl(0x40, 0x01), 0x01)\n  dup3\n  and\n  dup3\n  sub\n  tag_25\n  jumpi\n  jump\t// out\ntag_3:\n  mload\n  swap1\n  0xffffffff\n  dup3\n  and\n  dup3\n  sub\n  tag_25\n  jumpi\n  jump\t// out\ntag_4:\n  sub(shl(0x40, 0x01), 0x01)\n  swap2\n  dup3\n  and\n  swap1\n  dup3\n  and\n  add\n  swap2\n  swap1\n  dup3\n  gt\n  tag_63\n  jumpi\n  jump\t// out\nstop\n\nsub_0: assembly {\n        /* \"system/StateVariable.sol\":447:17631  contract stateVariable is AccesControl, Pausable {... */\n      0x80\n      dup1\n      0x40\n      mstore\n      jumpi(tag_18, iszero(lt(calldatasize, 0x04)))\n      0x00\n      dup1\n      revert\n    tag_18:\n      shr(0xe0, calldataload(0x00))\n      swap1\n      dup2\n      0x068f49d8\n      eq\n      tag_20\n      jumpi\n      pop\n      dup1\n      0x0b7dadff\n      eq\n      tag_22\n      jumpi\n      dup1\n      0x0fcaaf3c\n      eq\n      tag_24\n      jumpi\n      dup1\n      0x12c23eb1\n      eq\n      tag_26\n      jumpi\n      dup1\n      0x13007d55\n      eq\n      tag_28\n      jumpi\n      dup1\n      0x258f59fc\n      eq\n      tag_30\n      jumpi\n      dup1\n      0x25ac29e1\n      eq\n      tag_32\n      jumpi\n      dup1\n      0x2a5c4e5c\n      eq\n      tag_34\n      jumpi\n      dup1\n      0x2aedc618\n      eq\n      tag_36\n      jumpi\n      dup1\n      0x3f4ba83a\n      eq\n      tag_38\n      jumpi\n      dup1\n      0x42a69e2a\n      eq\n      tag_40\n      jumpi\n      dup1\n      0x47963280\n      eq\n      tag_42\n      jumpi\n      dup1\n      0x554faef8\n      eq\n      tag_44\n      jumpi\n      dup1\n      0x55afaf64\n      eq\n      tag_46\n      jumpi\n      dup1\n      0x5c975abb\n      eq\n      tag_48\n      jumpi\n      dup1\n      0x5e8c4c6b\n      eq\n      tag_50\n      jumpi\n      dup1\n      0x770cc99a\n      eq\n      tag_52\n      jumpi\n      dup1\n      0x7d8d6d05\n      eq\n      tag_54\n      jumpi\n      dup1\n      0x813b79c1\n      eq\n      tag_56\n      jumpi\n      dup1\n      0x83261200\n      eq\n      tag_58\n      jumpi\n      dup1\n      0x8456cb59\n      eq\n      tag_60\n      jumpi\n      dup1\n      0x84afa48b\n      eq\n      tag_62\n      jumpi\n      dup1\n      0x88764082\n      eq\n      tag_64\n      jumpi\n      dup1\n      0x9387730c\n      eq\n      tag_66\n      jumpi\n      dup1\n      0x94fb86e5\n      eq\n      tag_68\n      jumpi\n      dup1\n      0x99206b0b\n      eq\n      tag_70\n      jumpi\n      dup1\n      0x99b42ed0\n      eq\n      tag_72\n      jumpi\n      dup1\n      0xa0d01245\n      eq\n      tag_74\n      jumpi\n      dup1\n      0xa376ff7d\n      eq\n      tag_76\n      jumpi\n      dup1\n      0xb30e0be3\n      eq\n      tag_78\n      jumpi\n      dup1\n      0xb38be7e3\n      eq\n      tag_80\n      jumpi\n      dup1\n      0xbaa20a39\n      eq\n      tag_82\n      jumpi\n      dup1\n      0xc6de9839\n      eq\n      tag_84\n      jumpi\n      dup1\n      0xc7d3f62f\n      eq\n      tag_86\n      jumpi\n      dup1\n      0xca218d7d\n      eq\n      tag_88\n      jumpi\n      dup1\n      0xcb101e64\n      eq\n      tag_90\n      jumpi\n      dup1\n      0xcf95838b\n      eq\n      tag_92\n      jumpi\n      dup1\n      0xd164b1d0\n      eq\n      tag_94\n      jumpi\n      dup1\n      0xe1a256a5\n      eq\n      tag_96\n      jumpi\n      dup1\n      0xe1ffcb46\n      eq\n      tag_98\n      jumpi\n      dup1\n      0xe44374f2\n      eq\n      tag_100\n      jumpi\n      dup1\n      0xef02c5ae\n      eq\n      tag_102\n      jumpi\n      0xf012e4e3\n      eq\n      tag_104\n      jumpi\n      0x00\n      dup1\n      revert\n    tag_104:\n      jumpi(tag_118, callvalue)\n      jumpi(tag_118, slt(add(not(0x03), calldatasize), 0xc0))\n      tag_110\n      tag_4\n      jump\t// in\n    tag_110:\n      tag_111\n      tag_5\n      jump\t// in\n    tag_111:\n      calldataload(0x44)\n      swap2\n      0xffffffff\n      dup4\n      and\n      dup1\n      dup5\n      sub\n      tag_118\n      jumpi\n      calldataload(0x64)\n      swap1\n      0xffffffff\n      dup3\n      and\n      swap2\n      dup3\n      dup2\n      sub\n      tag_118\n      jumpi\n      calldataload(0x84)\n      swap1\n      0xffffffff\n      dup3\n      and\n      swap7\n      dup8\n      dup4\n      sub\n      tag_118\n      jumpi\n      calldataload(0xa4)\n      swap4\n      0xffffffff\n      dup6\n      and\n      dup1\n      dup7\n      sub\n      tag_118\n      jumpi\n      sload(0x00)\n      mload(0x40)\n      shl(0xe1, 0x3f784de5)\n        /* \"Pipe/AccesControlPipes.sol\":1908:1941  accessControl.hasRole(msg.sender) */\n      dup2\n      mstore\n        /* \"Pipe/AccesControlPipes.sol\":1930:1940  msg.sender */\n      caller\n        /* \"system/StateVariable.sol\":447:17631  contract stateVariable is AccesControl, Pausable {... */\n      0x04\n        /* \"Pipe/AccesControlPipes.sol\":1908:1941  accessControl.hasRole(msg.sender) */\n      dup3\n      add\n        /* \"system/StateVariable.sol\":447:17631  contract stateVariable is AccesControl, Pausable {... */\n      mstore\n      swap1\n      0x20\n      swap1\n      dup3\n      swap1\n      0x24\n      swap1\n      dup3\n      swap1\n      sub(shl(0xa0, 0x01), 0x01)\n      and\n        /* \"Pipe/AccesControlPipes.sol\":1908:1941  accessControl.hasRole(msg.sender) */\n      gas\n      staticcall\n      dup1\n      iszero\n      tag_120\n      jumpi\n        /* \"system/StateVariable.sol\":14799:15021  reputationPointsChanged(... */\n      0x235e16625910a870c351bbe2f4458a6643b94fc25851129fe8f9a0a86d852db5\n        /* \"Pipe/AccesControlPipes.sol\":1908:1941  accessControl.hasRole(msg.sender) */\n      swap12\n        /* \"system/StateVariable.sol\":14799:15021  reputationPointsChanged(... */\n      tag_122\n        /* \"Pipe/AccesControlPipes.sol\":1908:1941  accessControl.hasRole(msg.sender) */\n      swap10\n      dup13\n      swap6\n        /* \"Pipe/AccesControlPipes.sol\":1900:1958  require(accessControl.hasRole(msg.sender), \"Not employee\") */\n      tag_123\n        /* \"Pipe/AccesControlPipes.sol\":1908:1941  accessControl.hasRole(msg.sender) */\n      dup14\n      swap5\n        /* \"system/StateVariable.sol\":447:17631  contract stateVariable is AccesControl, Pausable {... */\n      0xa0\n        /* \"Pipe/AccesControlPipes.sol\":1908:1941  accessControl.hasRole(msg.sender) */\n      swap7\n        /* \"system/StateVariable.sol\":447:17631  contract stateVariable is AccesControl, Pausable {... */\n      0x00\n        /* \"Pipe/AccesControlPipes.sol\":1908:1941  accessControl.hasRole(msg.sender) */\n      swap2\n      tag_124\n      jumpi\n        /* \"system/StateVariable.sol\":447:17631  contract stateVariable is AccesControl, Pausable {... */\n    tag_125:\n        /* \"Pipe/AccesControlPipes.sol\":1900:1958  require(accessControl.hasRole(msg.sender), \"Not employee\") */\n      pop\n      tag_15\n      jump\t// in\n    tag_123:\n      sub(shl(0x40, 0x01), 0x01)\n        /* \"system/StateVariable.sol\":447:17631  contract stateVariable is AccesControl, Pausable {... */\n      dup1\n      mload(0x40)\n      swap6\n      tag_126\n      dup8\n      tag_10\n      jump\t// in\n    tag_126:\n      and\n      swap8\n      dup9\n      dup7\n      mstore\n      and\n      0x20\n        /* \"system/StateVariable.sol\":14467:14781  ReputationPoint({... */\n      dup6\n      add\n        /* \"system/StateVariable.sol\":447:17631  contract stateVariable is AccesControl, Pausable {... */\n      mstore\n      0x40\n        /* \"system/StateVariable.sol\":14467:14781  ReputationPoint({... */\n      dup5\n      add\n        /* \"system/StateVariable.sol\":447:17631  contract stateVariable is AccesControl, Pausable {... */\n      mstore\n      0x60\n        /* \"system/StateVariable.sol\":14467:14781  ReputationPoint({... */\n      dup4\n      add\n        /* \"system/StateVariable.sol\":447:17631  contract stateVariable is AccesControl, Pausable {... */\n      mstore\n      0x80\n        /* \"system/StateVariable.sol\":14467:14781  ReputationPoint({... */\n      dup3\n      add\n        /* \"system/StateVariable.sol\":447:17631  contract stateVariable is AccesControl, Pausable {... */\n      mstore\n        /* \"system/StateVariable.sol\":14467:14781  ReputationPoint({... */\n      add\n        /* \"system/StateVariable.sol\":447:17631  contract stateVariable is AccesControl, Pausable {... */\n      mstore\n      not(sub(shl(0x40, 0x01), 0x01))\n        /* \"system/StateVariable.sol\":14448:14781  reputationPoints = ReputationPoint({... */\n      0x08\n        /* \"system/StateVariable.sol\":447:17631  contract stateVariable is AccesControl, Pausable {... */\n      sload\n      and\n      or\n        /* \"system/StateVariable.sol\":14448:14781  reputationPoints = ReputationPoint({... */\n      0x08\n        /* \"system/StateVariable.sol\":447:17631  contract stateVariable is AccesControl, Pausable {... */\n      sstore\n        /* \"system/StateVariable.sol\":14448:14781  reputationPoints = ReputationPoint({... */\n      0x08\n        /* \"system/StateVariable.sol\":447:17631  contract stateVariable is AccesControl, Pausable {... */\n      sload\n      shl(0x40, 0xffffffffffffffff)\n      dup1\n      dup10\n      0x40\n      shl\n      and\n      and\n      swap1\n      not(shl(0x40, 0xffffffffffffffff))\n      and\n      or\n        /* \"system/StateVariable.sol\":14448:14781  reputationPoints = ReputationPoint({... */\n      0x08\n        /* \"system/StateVariable.sol\":447:17631  contract stateVariable is AccesControl, Pausable {... */\n      sstore\n        /* \"system/StateVariable.sol\":14448:14781  reputationPoints = ReputationPoint({... */\n      0x08\n        /* \"system/StateVariable.sol\":447:17631  contract stateVariable is AccesControl, Pausable {... */\n      sload\n      shl(0xe0, 0xffffffff)\n      dup6\n      0xe0\n      shl\n      and\n      swap1\n      0x01\n      dup1\n      0xe0\n      shl\n      sub\n      swap1\n      shl(0x80, 0xffffffff)\n      dup5\n      0x80\n      shl\n      and\n      swap1\n      not(shl(0x80, 0xffffffffffffffffffffffff))\n      and\n      or\n      and\n      shl(0xa0, 0xffffffff)\n      dup5\n      0xa0\n      shl\n      and\n      or\n      shl(0xc0, 0xffffffff)\n      dup6\n      0xc0\n      shl\n      and\n      or\n      or\n        /* \"system/StateVariable.sol\":14448:14781  reputationPoints = ReputationPoint({... */\n      0x08\n        /* \"system/StateVariable.sol\":447:17631  contract stateVariable is AccesControl, Pausable {... */\n      sstore\n      mload(0x40)\n        /* \"system/StateVariable.sol\":14799:15021  reputationPointsChanged(... */\n      swap7\n      dup8\n      swap7\n      dup8\n        /* \"system/StateVariable.sol\":447:17631  contract stateVariable is AccesControl, Pausable {... */\n      swap5\n      0xffffffff\n      0xa0\n      swap6\n      dup2\n      dup1\n      swap7\n      sub(shl(0x40, 0x01), 0x01)\n      dup3\n      swap7\n      swap13\n      swap12\n      swap8\n      dup2\n      0xc0\n      dup14\n      add\n      swap15\n      and\n      dup13\n      mstore\n      and\n      0x20\n      dup12\n      add\n      mstore\n      and\n      0x40\n      dup10\n      add\n      mstore\n      and\n      0x60\n      dup8\n      add\n      mstore\n      and\n      0x80\n      dup6\n      add\n      mstore\n      and\n      swap2\n      add\n      mstore\n      jump\n        /* \"system/StateVariable.sol\":14799:15021  reputationPointsChanged(... */\n    tag_122:\n      sub\n      swap1\n      log1\n        /* \"system/StateVariable.sol\":447:17631  contract stateVariable is AccesControl, Pausable {... */\n      stop\n        /* \"Pipe/AccesControlPipes.sol\":1908:1941  accessControl.hasRole(msg.sender) */\n    tag_124:\n      tag_127\n      swap2\n      pop\n        /* \"system/StateVariable.sol\":447:17631  contract stateVariable is AccesControl, Pausable {... */\n      0x20\n        /* \"Pipe/AccesControlPipes.sol\":1908:1941  accessControl.hasRole(msg.sender) */\n      returndatasize\n        /* \"system/StateVariable.sol\":447:17631  contract stateVariable is AccesControl, Pausable {... */\n      0x20\n        /* \"Pipe/AccesControlPipes.sol\":1908:1941  accessControl.hasRole(msg.sender) */\n      gt\n      tag_128\n      jumpi\n    tag_129:\n      tag_130\n      dup2\n      dup4\n      tag_11\n      jump\t// in\n    tag_130:\n      dup2\n      add\n      swap1\n      tag_14\n      jump\t// in\n    tag_127:\n      0x00\n      jump(tag_125)\n    tag_128:\n      pop\n      returndatasize\n      jump(tag_129)\n    tag_120:\n        /* \"system/StateVariable.sol\":447:17631  contract stateVariable is AccesControl, Pausable {... */\n      mload(0x40)\n      returndatasize\n      0x00\n      dup3\n      returndatacopy\n      returndatasize\n      swap1\n      revert\n    tag_118:\n      0x00\n      dup1\n      revert\n    tag_102:\n      jumpi(tag_118, callvalue)\n      jumpi(tag_118, slt(add(not(0x03), calldatasize), 0x00))\n      0x20\n      sub(shl(0x40, 0x01), 0x01)\n        /* \"system/StateVariable.sol\":8018:8044  componentWeightPercentages */\n      0x01\n        /* \"system/StateVariable.sol\":447:17631  contract stateVariable is AccesControl, Pausable {... */\n      sload\n      0x80\n      shr\n      and\n      mload(0x40)\n      swap1\n      dup2\n      mstore\n      return\n    tag_100:\n      jumpi(tag_118, callvalue)\n      jumpi(tag_118, slt(add(not(0x03), calldatasize), 0x00))\n      0x20\n      sub(shl(0x40, 0x01), 0x01)\n        /* \"system/StateVariable.sol\":9301:9317  reputationPoints */\n      0x08\n        /* \"system/StateVariable.sol\":447:17631  contract stateVariable is AccesControl, Pausable {... */\n      sload\n      0x40\n      shr\n      and\n      mload(0x40)\n      swap1\n      dup2\n      mstore\n      return\n    tag_98:\n      jumpi(tag_118, callvalue)\n      jumpi(tag_118, slt(add(not(0x03), calldatasize), 0x00))\n      0x20\n        /* \"system/StateVariable.sol\":10946:10969  StakeCategorys.midleLow */\n      0x0d\n        /* \"system/StateVariable.sol\":447:17631  contract stateVariable is AccesControl, Pausable {... */\n      sload\n      mload(0x40)\n      swap1\n      dup2\n      mstore\n      return\n    tag_96:\n      jumpi(tag_118, callvalue)\n      tag_145\n      calldatasize\n      tag_9\n      jump\t// in\n    tag_145:\n      sload(0x00)\n      mload(0x40)\n      shl(0xe1, 0x3f784de5)\n        /* \"Pipe/AccesControlPipes.sol\":1908:1941  accessControl.hasRole(msg.sender) */\n      dup2\n      mstore\n        /* \"Pipe/AccesControlPipes.sol\":1930:1940  msg.sender */\n      caller\n        /* \"system/StateVariable.sol\":447:17631  contract stateVariable is AccesControl, Pausable {... */\n      0x04\n        /* \"Pipe/AccesControlPipes.sol\":1908:1941  accessControl.hasRole(msg.sender) */\n      dup3\n      add\n        /* \"system/StateVariable.sol\":447:17631  contract stateVariable is AccesControl, Pausable {... */\n      mstore\n      swap4\n      swap7\n      swap5\n      swap4\n      swap2\n      swap3\n      swap2\n      swap1\n      0x20\n      swap1\n      dup3\n      swap1\n        /* \"Pipe/AccesControlPipes.sol\":1908:1941  accessControl.hasRole(msg.sender) */\n      0x24\n      swap1\n        /* \"system/StateVariable.sol\":447:17631  contract stateVariable is AccesControl, Pausable {... */\n      dup3\n      swap1\n      sub(shl(0xa0, 0x01), 0x01)\n      and\n        /* \"Pipe/AccesControlPipes.sol\":1908:1941  accessControl.hasRole(msg.sender) */\n      gas\n      staticcall\n      dup1\n      iszero\n      tag_120\n      jumpi\n        /* \"Pipe/AccesControlPipes.sol\":1900:1958  require(accessControl.hasRole(msg.sender), \"Not employee\") */\n      tag_148\n        /* \"Pipe/AccesControlPipes.sol\":1908:1941  accessControl.hasRole(msg.sender) */\n      swap2\n        /* \"system/StateVariable.sol\":447:17631  contract stateVariable is AccesControl, Pausable {... */\n      0x00\n        /* \"Pipe/AccesControlPipes.sol\":1908:1941  accessControl.hasRole(msg.sender) */\n      swap2\n      tag_149\n      jumpi\n        /* \"Pipe/AccesControlPipes.sol\":1900:1958  require(accessControl.hasRole(msg.sender), \"Not employee\") */\n      pop\n      tag_15\n      jump\t// in\n    tag_148:\n        /* \"system/StateVariable.sol\":13392:13405  low >= midLow */\n      dup5\n      dup5\n      lt\n      dup1\n      iszero\n        /* \"system/StateVariable.sol\":13392:13422  low >= midLow || midLow >= mid */\n      swap1\n      tag_151\n      jumpi\n        /* \"system/StateVariable.sol\":447:17631  contract stateVariable is AccesControl, Pausable {... */\n    tag_152:\n        /* \"system/StateVariable.sol\":13392:13440  low >= midLow || midLow >= mid || mid >= midHigh */\n      dup1\n      iszero\n      tag_153\n      jumpi\n        /* \"system/StateVariable.sol\":447:17631  contract stateVariable is AccesControl, Pausable {... */\n    tag_154:\n        /* \"system/StateVariable.sol\":13392:13459  low >= midLow || midLow >= mid || mid >= midHigh || midHigh >= high */\n      dup1\n      iszero\n      tag_155\n      jumpi\n        /* \"system/StateVariable.sol\":447:17631  contract stateVariable is AccesControl, Pausable {... */\n    tag_156:\n        /* \"system/StateVariable.sol\":13392:13480  low >= midLow || midLow >= mid || mid >= midHigh || midHigh >= high || high >= ultraHigh */\n      dup1\n      iszero\n      tag_157\n      jumpi\n        /* \"system/StateVariable.sol\":447:17631  contract stateVariable is AccesControl, Pausable {... */\n    tag_158:\n        /* \"system/StateVariable.sol\":13388:13512  if (low >= midLow || midLow >= mid || mid >= midHigh || midHigh >= high || high >= ultraHigh) revert InvalidMaxStakeAmount() */\n      tag_161\n      jumpi\n        /* \"system/StateVariable.sol\":13366:13375  StateVars */\n      0x09\n        /* \"system/StateVariable.sol\":447:17631  contract stateVariable is AccesControl, Pausable {... */\n      sload\n        /* \"system/StateVariable.sol\":13529:13552  ultraHigh > sv.maxStake */\n      dup3\n      gt\n        /* \"system/StateVariable.sol\":13525:13584  if (ultraHigh > sv.maxStake) revert InvalidMaxStakeAmount() */\n      tag_161\n      jumpi\n        /* \"system/StateVariable.sol\":447:17631  contract stateVariable is AccesControl, Pausable {... */\n      mload(0x40)\n      tag_163\n      dup2\n      tag_10\n      jump\t// in\n    tag_163:\n      dup5\n      dup2\n      mstore\n      0x20\n        /* \"system/StateVariable.sol\":13612:13802  StakeAmount({... */\n      dup2\n      add\n        /* \"system/StateVariable.sol\":447:17631  contract stateVariable is AccesControl, Pausable {... */\n      dup7\n      dup2\n      mstore\n      0x40\n        /* \"system/StateVariable.sol\":13612:13802  StakeAmount({... */\n      dup3\n      add\n        /* \"system/StateVariable.sol\":447:17631  contract stateVariable is AccesControl, Pausable {... */\n      dup6\n      dup2\n      mstore\n        /* \"system/StateVariable.sol\":13612:13802  StakeAmount({... */\n      0x60\n      dup4\n      add\n        /* \"system/StateVariable.sol\":447:17631  contract stateVariable is AccesControl, Pausable {... */\n      swap1\n      dup10\n      dup3\n      mstore\n        /* \"system/StateVariable.sol\":13612:13802  StakeAmount({... */\n      0x80\n      dup5\n      add\n        /* \"system/StateVariable.sol\":447:17631  contract stateVariable is AccesControl, Pausable {... */\n      swap3\n      dup6\n      dup5\n      mstore\n        /* \"system/StateVariable.sol\":13612:13802  StakeAmount({... */\n      0xa0\n      dup6\n      add\n        /* \"system/StateVariable.sol\":447:17631  contract stateVariable is AccesControl, Pausable {... */\n      swap5\n      dup8\n      dup7\n      mstore\n      mload\n        /* \"system/StateVariable.sol\":13597:13802  stakeAmounts = StakeAmount({... */\n      0x02\n        /* \"system/StateVariable.sol\":447:17631  contract stateVariable is AccesControl, Pausable {... */\n      sstore\n      mload\n      0x03\n      sstore\n      mload\n      0x04\n      sstore\n      mload\n      0x05\n      sstore\n      mload\n      0x06\n      sstore\n      mload\n      0x07\n      sstore\n        /* \"system/StateVariable.sol\":13860:13867  1 ether */\n      0x0de0b6b3a7640000\n        /* \"system/StateVariable.sol\":447:17631  contract stateVariable is AccesControl, Pausable {... */\n      dup5\n      mul\n      swap4\n      dup1\n      dup6\n      div\n        /* \"system/StateVariable.sol\":13860:13867  1 ether */\n      0x0de0b6b3a7640000\n        /* \"system/StateVariable.sol\":447:17631  contract stateVariable is AccesControl, Pausable {... */\n      eq\n      swap1\n      iszero\n      or\n      iszero\n      tag_174\n      jumpi\n        /* \"system/StateVariable.sol\":13860:13867  1 ether */\n      0x0de0b6b3a7640000\n        /* \"system/StateVariable.sol\":447:17631  contract stateVariable is AccesControl, Pausable {... */\n      dup6\n      mul\n      swap5\n      dup1\n      dup7\n      div\n        /* \"system/StateVariable.sol\":13860:13867  1 ether */\n      0x0de0b6b3a7640000\n        /* \"system/StateVariable.sol\":447:17631  contract stateVariable is AccesControl, Pausable {... */\n      eq\n      swap1\n      iszero\n      or\n      iszero\n      tag_174\n      jumpi\n        /* \"system/StateVariable.sol\":13860:13867  1 ether */\n      0x0de0b6b3a7640000\n        /* \"system/StateVariable.sol\":447:17631  contract stateVariable is AccesControl, Pausable {... */\n      dup4\n      mul\n      swap3\n      dup1\n      dup5\n      div\n        /* \"system/StateVariable.sol\":13860:13867  1 ether */\n      0x0de0b6b3a7640000\n        /* \"system/StateVariable.sol\":447:17631  contract stateVariable is AccesControl, Pausable {... */\n      eq\n      swap1\n      iszero\n      or\n      iszero\n      tag_174\n      jumpi\n        /* \"system/StateVariable.sol\":13860:13867  1 ether */\n      0x0de0b6b3a7640000\n        /* \"system/StateVariable.sol\":447:17631  contract stateVariable is AccesControl, Pausable {... */\n      dup7\n      mul\n      swap6\n      dup1\n      dup8\n      div\n        /* \"system/StateVariable.sol\":13860:13867  1 ether */\n      0x0de0b6b3a7640000\n        /* \"system/StateVariable.sol\":447:17631  contract stateVariable is AccesControl, Pausable {... */\n      eq\n      swap1\n      iszero\n      or\n      iszero\n      tag_174\n      jumpi\n        /* \"system/StateVariable.sol\":13860:13867  1 ether */\n      0x0de0b6b3a7640000\n        /* \"system/StateVariable.sol\":447:17631  contract stateVariable is AccesControl, Pausable {... */\n      dup2\n      mul\n      swap1\n      dup1\n      dup3\n      div\n        /* \"system/StateVariable.sol\":13860:13867  1 ether */\n      0x0de0b6b3a7640000\n        /* \"system/StateVariable.sol\":447:17631  contract stateVariable is AccesControl, Pausable {... */\n      eq\n      swap1\n      iszero\n      or\n      iszero\n      tag_174\n      jumpi\n        /* \"system/StateVariable.sol\":13860:13867  1 ether */\n      0x0de0b6b3a7640000\n        /* \"system/StateVariable.sol\":447:17631  contract stateVariable is AccesControl, Pausable {... */\n      dup3\n      mul\n      swap2\n      dup1\n      dup4\n      div\n        /* \"system/StateVariable.sol\":13860:13867  1 ether */\n      0x0de0b6b3a7640000\n        /* \"system/StateVariable.sol\":447:17631  contract stateVariable is AccesControl, Pausable {... */\n      eq\n      swap1\n      iszero\n      or\n      iszero\n      tag_174\n      jumpi\n        /* \"system/StateVariable.sol\":13820:14032  stakeAmountsChanged(... */\n      0xefd16587d517b1989b24b29f937651e8cd66a37df6ade91a30e66500dec41037\n        /* \"system/StateVariable.sol\":447:17631  contract stateVariable is AccesControl, Pausable {... */\n      swap6\n        /* \"system/StateVariable.sol\":13820:14032  stakeAmountsChanged(... */\n      tag_122\n        /* \"system/StateVariable.sol\":447:17631  contract stateVariable is AccesControl, Pausable {... */\n      swap4\n      mload(0x40)\n        /* \"system/StateVariable.sol\":13820:14032  stakeAmountsChanged(... */\n      swap7\n      dup8\n      swap7\n      dup8\n        /* \"system/StateVariable.sol\":447:17631  contract stateVariable is AccesControl, Pausable {... */\n      swap3\n      0xa0\n      swap5\n      swap2\n      swap8\n      swap7\n      swap6\n      swap3\n      0xc0\n      dup6\n      add\n      swap9\n      dup6\n      mstore\n      0x20\n      dup6\n      add\n      mstore\n      0x40\n      dup5\n      add\n      mstore\n      0x60\n      dup4\n      add\n      mstore\n      0x80\n      dup3\n      add\n      mstore\n      add\n      mstore\n      jump\n    tag_174:\n      mstore(0x00, shl(0xe0, 0x4e487b71))\n      mstore(0x04, 0x11)\n        /* \"Pipe/AccesControlPipes.sol\":1908:1941  accessControl.hasRole(msg.sender) */\n      0x24\n        /* \"system/StateVariable.sol\":447:17631  contract stateVariable is AccesControl, Pausable {... */\n      0x00\n      revert\n        /* \"system/StateVariable.sol\":13525:13584  if (ultraHigh > sv.maxStake) revert InvalidMaxStakeAmount() */\n    tag_161:\n        /* \"system/StateVariable.sol\":16582:16605  InvalidMaxStakeAmount() */\n      shl(0xe0, 0x1c6d3b15)\n        /* \"system/StateVariable.sol\":447:17631  contract stateVariable is AccesControl, Pausable {... */\n      0x00\n        /* \"system/StateVariable.sol\":13561:13584  InvalidMaxStakeAmount() */\n      mstore\n        /* \"system/StateVariable.sol\":447:17631  contract stateVariable is AccesControl, Pausable {... */\n      0x04\n      0x00\n        /* \"system/StateVariable.sol\":13561:13584  InvalidMaxStakeAmount() */\n      revert\n        /* \"system/StateVariable.sol\":13392:13480  low >= midLow || midLow >= mid || mid >= midHigh || midHigh >= high || high >= ultraHigh */\n    tag_157:\n        /* \"system/StateVariable.sol\":13463:13480  high >= ultraHigh */\n      pop\n      dup2\n      dup2\n      lt\n      iszero\n        /* \"system/StateVariable.sol\":13392:13480  low >= midLow || midLow >= mid || mid >= midHigh || midHigh >= high || high >= ultraHigh */\n      jump(tag_158)\n        /* \"system/StateVariable.sol\":13392:13459  low >= midLow || midLow >= mid || mid >= midHigh || midHigh >= high */\n    tag_155:\n        /* \"system/StateVariable.sol\":13444:13459  midHigh >= high */\n      pop\n      dup1\n      dup7\n      lt\n      iszero\n        /* \"system/StateVariable.sol\":13392:13459  low >= midLow || midLow >= mid || mid >= midHigh || midHigh >= high */\n      jump(tag_156)\n        /* \"system/StateVariable.sol\":13392:13440  low >= midLow || midLow >= mid || mid >= midHigh */\n    tag_153:\n        /* \"system/StateVariable.sol\":13426:13440  mid >= midHigh */\n      pop\n      dup6\n      dup4\n      lt\n      iszero\n        /* \"system/StateVariable.sol\":13392:13440  low >= midLow || midLow >= mid || mid >= midHigh */\n      jump(tag_154)\n        /* \"system/StateVariable.sol\":13392:13422  low >= midLow || midLow >= mid */\n    tag_151:\n        /* \"system/StateVariable.sol\":13409:13422  midLow >= mid */\n      pop\n      dup3\n      dup6\n      lt\n      iszero\n        /* \"system/StateVariable.sol\":13392:13422  low >= midLow || midLow >= mid */\n      jump(tag_152)\n        /* \"Pipe/AccesControlPipes.sol\":1908:1941  accessControl.hasRole(msg.sender) */\n    tag_149:\n      tag_177\n      swap2\n      pop\n        /* \"system/StateVariable.sol\":447:17631  contract stateVariable is AccesControl, Pausable {... */\n      0x20\n        /* \"Pipe/AccesControlPipes.sol\":1908:1941  accessControl.hasRole(msg.sender) */\n      returndatasize\n        /* \"system/StateVariable.sol\":447:17631  contract stateVariable is AccesControl, Pausable {... */\n      0x20\n        /* \"Pipe/AccesControlPipes.sol\":1908:1941  accessControl.hasRole(msg.sender) */\n      gt\n      tag_128\n      jumpi\n      tag_130\n      dup2\n      dup4\n      tag_11\n      jump\t// in\n    tag_177:\n      dup9\n      jump(tag_125)\n        /* \"system/StateVariable.sol\":447:17631  contract stateVariable is AccesControl, Pausable {... */\n    tag_94:\n      jumpi(tag_118, callvalue)\n      jumpi(tag_118, slt(add(not(0x03), calldatasize), 0x00))\n      0x20\n        /* \"system/StateVariable.sol\":9776:9792  reputationPoints */\n      0x08\n        /* \"system/StateVariable.sol\":447:17631  contract stateVariable is AccesControl, Pausable {... */\n      sload\n      0xe0\n      shr\n      mload(0x40)\n      swap1\n      dup2\n      mstore\n      return\n    tag_92:\n      jumpi(tag_118, callvalue)\n      jumpi(tag_118, slt(add(not(0x03), calldatasize), 0x00))\n      0x20\n      sub(shl(0x40, 0x01), 0x01)\n        /* \"system/StateVariable.sol\":9189:9205  reputationPoints */\n      0x08\n        /* \"system/StateVariable.sol\":447:17631  contract stateVariable is AccesControl, Pausable {... */\n      sload\n      and\n      mload(0x40)\n      swap1\n      dup2\n      mstore\n      return\n    tag_90:\n      jumpi(tag_118, callvalue)\n      jumpi(tag_118, slt(add(not(0x03), calldatasize), 0xc0))\n      calldataload(0x04)\n      calldataload(0x24)\n      tag_193\n      tag_6\n      jump\t// in\n    tag_193:\n      swap2\n      tag_194\n      tag_7\n      jump\t// in\n    tag_194:\n      calldataload(0x84)\n      swap1\n      sub(shl(0x40, 0x01), 0x01)\n      dup3\n      and\n      swap2\n      dup3\n      dup2\n      sub\n      tag_118\n      jumpi\n      calldataload(0xa4)\n      swap2\n      sub(shl(0x40, 0x01), 0x01)\n      dup4\n      and\n      swap7\n      dup8\n      dup5\n      sub\n      tag_118\n      jumpi\n      sload(0x00)\n      mload(0x40)\n      shl(0xe1, 0x3f784de5)\n        /* \"Pipe/AccesControlPipes.sol\":1908:1941  accessControl.hasRole(msg.sender) */\n      dup2\n      mstore\n        /* \"Pipe/AccesControlPipes.sol\":1930:1940  msg.sender */\n      caller\n        /* \"system/StateVariable.sol\":447:17631  contract stateVariable is AccesControl, Pausable {... */\n      0x04\n        /* \"Pipe/AccesControlPipes.sol\":1908:1941  accessControl.hasRole(msg.sender) */\n      dup3\n      add\n        /* \"system/StateVariable.sol\":447:17631  contract stateVariable is AccesControl, Pausable {... */\n      mstore\n      swap1\n      0x20\n      swap1\n      dup3\n      swap1\n      0x24\n      swap1\n      dup3\n      swap1\n      sub(shl(0xa0, 0x01), 0x01)\n      and\n        /* \"Pipe/AccesControlPipes.sol\":1908:1941  accessControl.hasRole(msg.sender) */\n      gas\n      staticcall\n      dup1\n      iszero\n      tag_120\n      jumpi\n        /* \"Pipe/AccesControlPipes.sol\":1900:1958  require(accessControl.hasRole(msg.sender), \"Not employee\") */\n      tag_201\n        /* \"Pipe/AccesControlPipes.sol\":1908:1941  accessControl.hasRole(msg.sender) */\n      swap2\n        /* \"system/StateVariable.sol\":447:17631  contract stateVariable is AccesControl, Pausable {... */\n      0x00\n        /* \"Pipe/AccesControlPipes.sol\":1908:1941  accessControl.hasRole(msg.sender) */\n      swap2\n      tag_202\n      jumpi\n        /* \"Pipe/AccesControlPipes.sol\":1900:1958  require(accessControl.hasRole(msg.sender), \"Not employee\") */\n      pop\n      tag_15\n      jump\t// in\n    tag_201:\n        /* \"system/StateVariable.sol\":447:17631  contract stateVariable is AccesControl, Pausable {... */\n      0x64\n        /* \"system/StateVariable.sol\":15504:15523  feePercentage > 100 */\n      dup6\n      gt\n        /* \"system/StateVariable.sol\":15500:15546  if (feePercentage > 100) revert FeeCantBe100() */\n      tag_204\n      jumpi\n      sub(shl(0x40, 0x01), 0x01)\n        /* \"system/StateVariable.sol\":447:17631  contract stateVariable is AccesControl, Pausable {... */\n      dup3\n      and\n      0x64\n        /* \"system/StateVariable.sol\":15561:15577  NegPenalty > 100 */\n      dup2\n      gt\n        /* \"system/StateVariable.sol\":15557:15607  if (NegPenalty > 100) revert NegPenaltyCantBe100() */\n      tag_206\n      jumpi\n        /* \"system/StateVariable.sol\":15931:16116  StateVarsChanged(... */\n      0x3435d61b755652f7e13587f317c91f07dbb9962edbac881911390791ebaf5dc1\n        /* \"system/StateVariable.sol\":447:17631  contract stateVariable is AccesControl, Pausable {... */\n      swap9\n      0xa0\n        /* \"system/StateVariable.sol\":15931:16116  StateVarsChanged(... */\n      tag_122\n        /* \"system/StateVariable.sol\":447:17631  contract stateVariable is AccesControl, Pausable {... */\n      swap8\n      mload(0x40)\n      swap1\n      tag_209\n      dup3\n      tag_10\n      jump\t// in\n    tag_209:\n      dup11\n      dup3\n      mstore\n      0x20\n        /* \"system/StateVariable.sol\":15632:15913  StateVar({... */\n      dup1\n      dup4\n      add\n        /* \"system/StateVariable.sol\":447:17631  contract stateVariable is AccesControl, Pausable {... */\n      dup14\n      swap1\n      mstore\n      sub(shl(0x40, 0x01), 0x01)\n      swap7\n      dup8\n      and\n      0x40\n        /* \"system/StateVariable.sol\":15632:15913  StateVar({... */\n      dup1\n      dup6\n      add\n        /* \"system/StateVariable.sol\":447:17631  contract stateVariable is AccesControl, Pausable {... */\n      dup3\n      swap1\n      mstore\n      0x60\n        /* \"system/StateVariable.sol\":15632:15913  StateVar({... */\n      dup1\n      dup7\n      add\n        /* \"system/StateVariable.sol\":447:17631  contract stateVariable is AccesControl, Pausable {... */\n      swap9\n      swap1\n      swap9\n      mstore\n      0x80\n        /* \"system/StateVariable.sol\":15632:15913  StateVar({... */\n      dup1\n      dup7\n      add\n        /* \"system/StateVariable.sol\":447:17631  contract stateVariable is AccesControl, Pausable {... */\n      swap5\n      swap1\n      swap5\n      mstore\n        /* \"system/StateVariable.sol\":15632:15913  StateVar({... */\n      swap5\n      swap1\n      swap4\n      add\n        /* \"system/StateVariable.sol\":447:17631  contract stateVariable is AccesControl, Pausable {... */\n      swap5\n      swap1\n      swap5\n      mstore\n        /* \"system/StateVariable.sol\":15620:15913  StateVars = StateVar({... */\n      0x09\n        /* \"system/StateVariable.sol\":447:17631  contract stateVariable is AccesControl, Pausable {... */\n      dup12\n      swap1\n      sstore\n      0x0a\n      dup13\n      swap1\n      sstore\n      dup7\n      dup4\n      shl\n      shl(0x40, 0xffffffffffffffff)\n      and\n      dup3\n      or\n      dup9\n      dup3\n      shl\n      shl(0x80, 0xffffffffffffffff)\n      and\n      or\n      0xc0\n      dup11\n      dup2\n      shl\n      not(sub(shl(0xc0, 0x01), 0x01))\n      and\n      swap2\n      swap1\n      swap2\n      or\n      0x0b\n      sstore\n      dup4\n      mload\n      swap12\n      dup13\n      mstore\n      swap4\n      dup12\n      add\n      swap12\n      swap1\n      swap12\n      mstore\n      swap1\n      dup10\n      add\n      mstore\n      swap3\n      dup3\n      and\n      swap1\n      dup8\n      add\n      mstore\n      swap2\n      dup3\n      and\n      swap6\n      dup6\n      add\n      swap6\n      swap1\n      swap6\n      mstore\n      and\n      0xa0\n      dup4\n      add\n      mstore\n      swap1\n      swap2\n      dup3\n      swap2\n      swap1\n      dup3\n      add\n      swap1\n      jump\n        /* \"system/StateVariable.sol\":15557:15607  if (NegPenalty > 100) revert NegPenaltyCantBe100() */\n    tag_206:\n        /* \"system/StateVariable.sol\":15586:15607  NegPenaltyCantBe100() */\n      shl(0xe4, 0x0a28fb19)\n        /* \"system/StateVariable.sol\":447:17631  contract stateVariable is AccesControl, Pausable {... */\n      0x00\n        /* \"system/StateVariable.sol\":15586:15607  NegPenaltyCantBe100() */\n      mstore\n        /* \"system/StateVariable.sol\":447:17631  contract stateVariable is AccesControl, Pausable {... */\n      0x04\n      0x00\n        /* \"system/StateVariable.sol\":15586:15607  NegPenaltyCantBe100() */\n      revert\n        /* \"system/StateVariable.sol\":15500:15546  if (feePercentage > 100) revert FeeCantBe100() */\n    tag_204:\n        /* \"system/StateVariable.sol\":15532:15546  FeeCantBe100() */\n      shl(0xe1, 0x694035c9)\n        /* \"system/StateVariable.sol\":447:17631  contract stateVariable is AccesControl, Pausable {... */\n      0x00\n        /* \"system/StateVariable.sol\":15532:15546  FeeCantBe100() */\n      mstore\n        /* \"system/StateVariable.sol\":447:17631  contract stateVariable is AccesControl, Pausable {... */\n      0x04\n      0x00\n        /* \"system/StateVariable.sol\":15532:15546  FeeCantBe100() */\n      revert\n        /* \"Pipe/AccesControlPipes.sol\":1908:1941  accessControl.hasRole(msg.sender) */\n    tag_202:\n      tag_210\n      swap2\n      pop\n        /* \"system/StateVariable.sol\":447:17631  contract stateVariable is AccesControl, Pausable {... */\n      0x20\n        /* \"Pipe/AccesControlPipes.sol\":1908:1941  accessControl.hasRole(msg.sender) */\n      returndatasize\n        /* \"system/StateVariable.sol\":447:17631  contract stateVariable is AccesControl, Pausable {... */\n      0x20\n        /* \"Pipe/AccesControlPipes.sol\":1908:1941  accessControl.hasRole(msg.sender) */\n      gt\n      tag_128\n      jumpi\n      tag_130\n      dup2\n      dup4\n      tag_11\n      jump\t// in\n    tag_210:\n      dup11\n      jump(tag_125)\n        /* \"system/StateVariable.sol\":447:17631  contract stateVariable is AccesControl, Pausable {... */\n    tag_88:\n      jumpi(tag_118, callvalue)\n      jumpi(tag_118, slt(add(not(0x03), calldatasize), 0x00))\n      0x20\n        /* \"system/StateVariable.sol\":8818:8835  stakeAmounts.high */\n      0x06\n        /* \"system/StateVariable.sol\":447:17631  contract stateVariable is AccesControl, Pausable {... */\n      sload\n      mload(0x40)\n      swap1\n      dup2\n      mstore\n      return\n    tag_86:\n      jumpi(tag_118, callvalue)\n      jumpi(tag_118, slt(add(not(0x03), calldatasize), 0x00))\n      0x20\n      0xffffffff\n        /* \"system/StateVariable.sol\":9533:9549  reputationPoints */\n      0x08\n        /* \"system/StateVariable.sol\":447:17631  contract stateVariable is AccesControl, Pausable {... */\n      sload\n      0xa0\n      shr\n      and\n      mload(0x40)\n      swap1\n      dup2\n      mstore\n      return\n    tag_84:\n      jumpi(tag_118, callvalue)\n      jumpi(tag_118, slt(add(not(0x03), calldatasize), 0x00))\n      0x20\n      sub(shl(0x40, 0x01), 0x01)\n        /* \"system/StateVariable.sol\":7893:7919  componentWeightPercentages */\n      0x01\n        /* \"system/StateVariable.sol\":447:17631  contract stateVariable is AccesControl, Pausable {... */\n      sload\n      0x40\n      shr\n      and\n      mload(0x40)\n      swap1\n      dup2\n      mstore\n      return\n    tag_82:\n      jumpi(tag_118, callvalue)\n      jumpi(tag_118, slt(add(not(0x03), calldatasize), 0x00))\n      0x20\n        /* \"system/StateVariable.sol\":10049:10058  StateVars */\n      0x09\n        /* \"system/StateVariable.sol\":447:17631  contract stateVariable is AccesControl, Pausable {... */\n      sload\n      mload(0x40)\n      swap1\n      dup2\n      mstore\n      return\n    tag_80:\n      jumpi(tag_118, callvalue)\n      tag_232\n      calldatasize\n      tag_9\n      jump\t// in\n    tag_232:\n      sload(0x00)\n      mload(0x40)\n      shl(0xe1, 0x3f784de5)\n        /* \"Pipe/AccesControlPipes.sol\":1908:1941  accessControl.hasRole(msg.sender) */\n      dup2\n      mstore\n        /* \"Pipe/AccesControlPipes.sol\":1930:1940  msg.sender */\n      caller\n        /* \"system/StateVariable.sol\":447:17631  contract stateVariable is AccesControl, Pausable {... */\n      0x04\n        /* \"Pipe/AccesControlPipes.sol\":1908:1941  accessControl.hasRole(msg.sender) */\n      dup3\n      add\n        /* \"system/StateVariable.sol\":447:17631  contract stateVariable is AccesControl, Pausable {... */\n      mstore\n      swap4\n      swap7\n      swap5\n      swap4\n      swap2\n      swap3\n      swap2\n      swap1\n      0x20\n      swap1\n      dup3\n      swap1\n        /* \"Pipe/AccesControlPipes.sol\":1908:1941  accessControl.hasRole(msg.sender) */\n      0x24\n      swap1\n        /* \"system/StateVariable.sol\":447:17631  contract stateVariable is AccesControl, Pausable {... */\n      dup3\n      swap1\n      sub(shl(0xa0, 0x01), 0x01)\n      and\n        /* \"Pipe/AccesControlPipes.sol\":1908:1941  accessControl.hasRole(msg.sender) */\n      gas\n      staticcall\n      dup1\n      iszero\n      tag_120\n      jumpi\n        /* \"Pipe/AccesControlPipes.sol\":1900:1958  require(accessControl.hasRole(msg.sender), \"Not employee\") */\n      tag_235\n        /* \"Pipe/AccesControlPipes.sol\":1908:1941  accessControl.hasRole(msg.sender) */\n      swap2\n        /* \"system/StateVariable.sol\":447:17631  contract stateVariable is AccesControl, Pausable {... */\n      0x00\n        /* \"Pipe/AccesControlPipes.sol\":1908:1941  accessControl.hasRole(msg.sender) */\n      swap2\n      tag_149\n      jumpi\n        /* \"Pipe/AccesControlPipes.sol\":1900:1958  require(accessControl.hasRole(msg.sender), \"Not employee\") */\n      pop\n      tag_15\n      jump\t// in\n    tag_235:\n        /* \"system/StateVariable.sol\":16485:16498  low >= midLow */\n      dup5\n      dup5\n      lt\n      dup1\n      iszero\n        /* \"system/StateVariable.sol\":16485:16515  low >= midLow || midLow >= mid */\n      swap1\n      tag_238\n      jumpi\n        /* \"system/StateVariable.sol\":447:17631  contract stateVariable is AccesControl, Pausable {... */\n    tag_239:\n        /* \"system/StateVariable.sol\":16485:16533  low >= midLow || midLow >= mid || mid >= midHigh */\n      dup1\n      iszero\n      tag_240\n      jumpi\n        /* \"system/StateVariable.sol\":447:17631  contract stateVariable is AccesControl, Pausable {... */\n    tag_241:\n        /* \"system/StateVariable.sol\":16485:16552  low >= midLow || midLow >= mid || mid >= midHigh || midHigh >= high */\n      dup1\n      iszero\n      tag_242\n      jumpi\n        /* \"system/StateVariable.sol\":447:17631  contract stateVariable is AccesControl, Pausable {... */\n    tag_243:\n        /* \"system/StateVariable.sol\":16485:16573  low >= midLow || midLow >= mid || mid >= midHigh || midHigh >= high || high >= ultraHigh */\n      dup1\n      iszero\n      tag_244\n      jumpi\n        /* \"system/StateVariable.sol\":447:17631  contract stateVariable is AccesControl, Pausable {... */\n    tag_245:\n        /* \"system/StateVariable.sol\":16481:16605  if (low >= midLow || midLow >= mid || mid >= midHigh || midHigh >= high || high >= ultraHigh) revert InvalidMaxStakeAmount() */\n      tag_161\n      jumpi\n        /* \"system/StateVariable.sol\":16459:16468  StateVars */\n      0x09\n        /* \"system/StateVariable.sol\":447:17631  contract stateVariable is AccesControl, Pausable {... */\n      sload\n        /* \"system/StateVariable.sol\":16622:16645  ultraHigh > sv.maxStake */\n      dup3\n      gt\n        /* \"system/StateVariable.sol\":16618:16677  if (ultraHigh > sv.maxStake) revert InvalidMaxStakeAmount() */\n      tag_161\n      jumpi\n        /* \"system/StateVariable.sol\":16923:17077  stakeCategorysChanged(... */\n      0x7a540045a63a511c8e6c029cbc13f3b74cbcba313476464094974f98aaef1cbe\n        /* \"system/StateVariable.sol\":447:17631  contract stateVariable is AccesControl, Pausable {... */\n      swap6\n        /* \"system/StateVariable.sol\":16923:17077  stakeCategorysChanged(... */\n      tag_122\n        /* \"system/StateVariable.sol\":447:17631  contract stateVariable is AccesControl, Pausable {... */\n      swap4\n      mload(0x40)\n      tag_251\n      dup2\n      tag_10\n      jump\t// in\n    tag_251:\n      dup7\n      dup2\n      mstore\n      0x20\n        /* \"system/StateVariable.sol\":16707:16905  StakeCategory({... */\n      dup2\n      add\n        /* \"system/StateVariable.sol\":447:17631  contract stateVariable is AccesControl, Pausable {... */\n      dup9\n      dup2\n      mstore\n      0x40\n        /* \"system/StateVariable.sol\":16707:16905  StakeCategory({... */\n      dup3\n      add\n        /* \"system/StateVariable.sol\":447:17631  contract stateVariable is AccesControl, Pausable {... */\n      dup4\n      dup2\n      mstore\n        /* \"system/StateVariable.sol\":16707:16905  StakeCategory({... */\n      0x60\n      dup4\n      add\n        /* \"system/StateVariable.sol\":447:17631  contract stateVariable is AccesControl, Pausable {... */\n      swap1\n      dup6\n      dup3\n      mstore\n        /* \"system/StateVariable.sol\":16707:16905  StakeCategory({... */\n      0x80\n      dup5\n      add\n        /* \"system/StateVariable.sol\":447:17631  contract stateVariable is AccesControl, Pausable {... */\n      swap3\n      dup8\n      dup5\n      mstore\n        /* \"system/StateVariable.sol\":16707:16905  StakeCategory({... */\n      0xa0\n      dup6\n      add\n        /* \"system/StateVariable.sol\":447:17631  contract stateVariable is AccesControl, Pausable {... */\n      swap5\n      dup10\n      dup7\n      mstore\n      mload\n        /* \"system/StateVariable.sol\":16690:16905  StakeCategorys = StakeCategory({... */\n      0x0c\n        /* \"system/StateVariable.sol\":447:17631  contract stateVariable is AccesControl, Pausable {... */\n      sstore\n      mload\n      0x0d\n      sstore\n      mload\n      0x0e\n      sstore\n      mload\n      0x0f\n      sstore\n      mload\n      0x10\n      sstore\n      mload\n      0x11\n      sstore\n      mload(0x40)\n        /* \"system/StateVariable.sol\":16923:17077  stakeCategorysChanged(... */\n      swap7\n      dup8\n      swap7\n      dup8\n        /* \"system/StateVariable.sol\":447:17631  contract stateVariable is AccesControl, Pausable {... */\n      swap3\n      0xa0\n      swap5\n      swap2\n      swap8\n      swap7\n      swap6\n      swap3\n      0xc0\n      dup6\n      add\n      swap9\n      dup6\n      mstore\n      0x20\n      dup6\n      add\n      mstore\n      0x40\n      dup5\n      add\n      mstore\n      0x60\n      dup4\n      add\n      mstore\n      0x80\n      dup3\n      add\n      mstore\n      add\n      mstore\n      jump\n        /* \"system/StateVariable.sol\":16485:16573  low >= midLow || midLow >= mid || mid >= midHigh || midHigh >= high || high >= ultraHigh */\n    tag_244:\n        /* \"system/StateVariable.sol\":16556:16573  high >= ultraHigh */\n      pop\n      dup2\n      dup2\n      lt\n      iszero\n        /* \"system/StateVariable.sol\":16485:16573  low >= midLow || midLow >= mid || mid >= midHigh || midHigh >= high || high >= ultraHigh */\n      jump(tag_245)\n        /* \"system/StateVariable.sol\":16485:16552  low >= midLow || midLow >= mid || mid >= midHigh || midHigh >= high */\n    tag_242:\n        /* \"system/StateVariable.sol\":16537:16552  midHigh >= high */\n      pop\n      dup1\n      dup7\n      lt\n      iszero\n        /* \"system/StateVariable.sol\":16485:16552  low >= midLow || midLow >= mid || mid >= midHigh || midHigh >= high */\n      jump(tag_243)\n        /* \"system/StateVariable.sol\":16485:16533  low >= midLow || midLow >= mid || mid >= midHigh */\n    tag_240:\n        /* \"system/StateVariable.sol\":16519:16533  mid >= midHigh */\n      pop\n      dup6\n      dup4\n      lt\n      iszero\n        /* \"system/StateVariable.sol\":16485:16533  low >= midLow || midLow >= mid || mid >= midHigh */\n      jump(tag_241)\n        /* \"system/StateVariable.sol\":16485:16515  low >= midLow || midLow >= mid */\n    tag_238:\n        /* \"system/StateVariable.sol\":16502:16515  midLow >= mid */\n      pop\n      dup3\n      dup6\n      lt\n      iszero\n        /* \"system/StateVariable.sol\":16485:16515  low >= midLow || midLow >= mid */\n      jump(tag_239)\n        /* \"system/StateVariable.sol\":447:17631  contract stateVariable is AccesControl, Pausable {... */\n    tag_78:\n      jumpi(tag_118, callvalue)\n      jumpi(tag_118, slt(add(not(0x03), calldatasize), 0x00))\n      0x20\n      0xffffffff\n        /* \"system/StateVariable.sol\":9413:9429  reputationPoints */\n      0x08\n        /* \"system/StateVariable.sol\":447:17631  contract stateVariable is AccesControl, Pausable {... */\n      sload\n      0x80\n      shr\n      and\n      mload(0x40)\n      swap1\n      dup2\n      mstore\n      return\n    tag_76:\n      jumpi(tag_118, callvalue)\n      jumpi(tag_118, slt(add(not(0x03), calldatasize), 0x00))\n      0x20\n        /* \"system/StateVariable.sol\":10841:10855  StakeCategorys */\n      0x0c\n        /* \"system/StateVariable.sol\":447:17631  contract stateVariable is AccesControl, Pausable {... */\n      sload\n      mload(0x40)\n      swap1\n      dup2\n      mstore\n      return\n    tag_74:\n      jumpi(tag_118, callvalue)\n      jumpi(tag_118, slt(add(not(0x03), calldatasize), 0x00))\n      0x20\n      sub(shl(0x40, 0x01), 0x01)\n        /* \"system/StateVariable.sol\":7770:7796  componentWeightPercentages */\n      0x01\n        /* \"system/StateVariable.sol\":447:17631  contract stateVariable is AccesControl, Pausable {... */\n      sload\n      and\n      mload(0x40)\n      swap1\n      dup2\n      mstore\n      return\n    tag_72:\n      jumpi(tag_118, callvalue)\n      jumpi(tag_118, slt(add(not(0x03), calldatasize), 0x00))\n        /* \"system/StateVariable.sol\":2373:2398  StateVar public StateVars */\n      0x09\n        /* \"system/StateVariable.sol\":447:17631  contract stateVariable is AccesControl, Pausable {... */\n      sload\n        /* \"system/StateVariable.sol\":2373:2398  StateVar public StateVars */\n      0x0a\n        /* \"system/StateVariable.sol\":447:17631  contract stateVariable is AccesControl, Pausable {... */\n      sload\n        /* \"system/StateVariable.sol\":2373:2398  StateVar public StateVars */\n      0x0b\n        /* \"system/StateVariable.sol\":447:17631  contract stateVariable is AccesControl, Pausable {... */\n      sload\n      0x40\n      dup1\n      mload\n      swap4\n      dup5\n      mstore\n      0x20\n      dup5\n      add\n      swap3\n      swap1\n      swap3\n      mstore\n      sub(shl(0x40, 0x01), 0x01)\n      dup1\n      dup3\n      and\n      dup5\n      dup5\n      add\n      mstore\n      swap2\n      dup2\n      swap1\n      shr\n      dup3\n      and\n      0x60\n      dup5\n      add\n      mstore\n      0x80\n      dup2\n      dup2\n      shr\n      swap1\n      swap3\n      and\n      swap2\n      dup4\n      add\n      swap2\n      swap1\n      swap2\n      mstore\n      0xc0\n      swap1\n      dup2\n      shr\n      0xa0\n      dup4\n      add\n      mstore\n      swap1\n      return\n    tag_70:\n      jumpi(tag_118, callvalue)\n      jumpi(tag_118, slt(add(not(0x03), calldatasize), 0x00))\n      0x20\n        /* \"system/StateVariable.sol\":11053:11073  StakeCategorys.midle */\n      0x0e\n        /* \"system/StateVariable.sol\":447:17631  contract stateVariable is AccesControl, Pausable {... */\n      sload\n      mload(0x40)\n      swap1\n      dup2\n      mstore\n      return\n    tag_68:\n      jumpi(tag_118, callvalue)\n      jumpi(tag_118, slt(add(not(0x03), calldatasize), 0x00))\n      0x20\n        /* \"system/StateVariable.sol\":8423:8435  stakeAmounts */\n      0x02\n        /* \"system/StateVariable.sol\":447:17631  contract stateVariable is AccesControl, Pausable {... */\n      sload\n      mload(0x40)\n      swap1\n      dup2\n      mstore\n      return\n    tag_66:\n      jumpi(tag_118, callvalue)\n      jumpi(tag_118, slt(add(not(0x03), calldatasize), 0x20))\n      calldataload(0x04)\n      sub(shl(0xa0, 0x01), 0x01)\n      dup2\n      and\n      swap1\n      dup2\n      swap1\n      sub\n      tag_118\n      jumpi\n      sload(0x00)\n      mload(0x40)\n      shl(0xe0, 0x8da5cb5b)\n        /* \"Pipe/AccesControlPipes.sol\":1523:1544  accessControl.owner() */\n      dup2\n      mstore\n        /* \"system/StateVariable.sol\":447:17631  contract stateVariable is AccesControl, Pausable {... */\n      0x20\n      dup2\n      0x04\n      dup2\n      sub(shl(0xa0, 0x01), 0x01)\n      dup7\n      and\n        /* \"Pipe/AccesControlPipes.sol\":1523:1544  accessControl.owner() */\n      gas\n      staticcall\n      dup1\n      iszero\n      tag_120\n      jumpi\n        /* \"Pipe/AccesControlPipes.sol\":1501:1558  require(msg.sender == accessControl.owner(), \"Not owner\") */\n      tag_289\n        /* \"Pipe/AccesControlPipes.sol\":1523:1544  accessControl.owner() */\n      swap2\n        /* \"system/StateVariable.sol\":447:17631  contract stateVariable is AccesControl, Pausable {... */\n      0x00\n        /* \"Pipe/AccesControlPipes.sol\":1523:1544  accessControl.owner() */\n      swap2\n      tag_290\n      jumpi\n        /* \"system/StateVariable.sol\":447:17631  contract stateVariable is AccesControl, Pausable {... */\n    tag_291:\n      pop\n      sub(shl(0xa0, 0x01), 0x01)\n      and\n        /* \"Pipe/AccesControlPipes.sol\":1509:1519  msg.sender */\n      caller\n        /* \"Pipe/AccesControlPipes.sol\":1509:1544  msg.sender == accessControl.owner() */\n      eq\n        /* \"Pipe/AccesControlPipes.sol\":1501:1558  require(msg.sender == accessControl.owner(), \"Not owner\") */\n      tag_13\n      jump\t// in\n    tag_289:\n        /* \"@openzeppelin/contracts/utils/Pausable.sol\":1315:1387  modifier whenNotPaused() {... */\n      tag_292\n      tag_17\n      jump\t// in\n    tag_292:\n        /* \"Pipe/AccesControlPipes.sol\":2628:2643  x != address(0) */\n      dup2\n      iszero\n        /* \"system/StateVariable.sol\":447:17631  contract stateVariable is AccesControl, Pausable {... */\n      tag_293\n      jumpi\n      not(sub(shl(0xa0, 0x01), 0x01))\n      and\n      dup2\n      or\n      0x00\n      sstore\n      mload(0x40)\n      swap1\n      dup2\n      mstore\n        /* \"system/StateVariable.sol\":17334:17372  AccessControlChanged(_newAccesControl) */\n      0x497acaa34ac19c2a2a579ad43eca493b4fea820459e254e9383e7dda216b0f04\n      swap1\n        /* \"system/StateVariable.sol\":447:17631  contract stateVariable is AccesControl, Pausable {... */\n      0x20\n      swap1\n        /* \"system/StateVariable.sol\":17334:17372  AccessControlChanged(_newAccesControl) */\n      log1\n        /* \"system/StateVariable.sol\":447:17631  contract stateVariable is AccesControl, Pausable {... */\n      stop\n    tag_293:\n      mload(0x40)\n      shl(0xe5, 0x461bcd)\n      dup2\n      mstore\n      0x20\n      0x04\n      dup3\n      add\n      mstore\n      0x27\n      0x24\n      dup3\n      add\n      mstore\n      0x416363657373436f6e74726f6c3a207a65726f2061646472657373206e6f7420\n      0x44\n      dup3\n      add\n      mstore\n      shl(0xca, 0x185b1b1bddd959)\n      0x64\n      dup3\n      add\n      mstore\n      0x84\n      swap1\n      revert\n        /* \"Pipe/AccesControlPipes.sol\":1523:1544  accessControl.owner() */\n    tag_290:\n      tag_295\n      swap2\n      pop\n        /* \"system/StateVariable.sol\":447:17631  contract stateVariable is AccesControl, Pausable {... */\n      0x20\n        /* \"Pipe/AccesControlPipes.sol\":1523:1544  accessControl.owner() */\n      returndatasize\n        /* \"system/StateVariable.sol\":447:17631  contract stateVariable is AccesControl, Pausable {... */\n      0x20\n        /* \"Pipe/AccesControlPipes.sol\":1523:1544  accessControl.owner() */\n      gt\n      tag_296\n      jumpi\n    tag_297:\n      tag_298\n      dup2\n      dup4\n      tag_11\n      jump\t// in\n    tag_298:\n      dup2\n      add\n      swap1\n      tag_12\n      jump\t// in\n    tag_295:\n      dup5\n      jump(tag_291)\n    tag_296:\n      pop\n      returndatasize\n      jump(tag_297)\n        /* \"system/StateVariable.sol\":447:17631  contract stateVariable is AccesControl, Pausable {... */\n    tag_64:\n      jumpi(tag_118, callvalue)\n      jumpi(tag_118, slt(add(not(0x03), calldatasize), 0x00))\n      0x20\n        /* \"system/StateVariable.sol\":10575:10596  StateVars.maxRevision */\n      0x0b\n        /* \"system/StateVariable.sol\":447:17631  contract stateVariable is AccesControl, Pausable {... */\n      sload\n      0xc0\n      shr\n      mload(0x40)\n      swap1\n      dup2\n      mstore\n      return\n    tag_62:\n      jumpi(tag_118, callvalue)\n      jumpi(tag_118, slt(add(not(0x03), calldatasize), 0x00))\n      0x20\n        /* \"system/StateVariable.sol\":11161:11185  StakeCategorys.midleHigh */\n      0x0f\n        /* \"system/StateVariable.sol\":447:17631  contract stateVariable is AccesControl, Pausable {... */\n      sload\n      mload(0x40)\n      swap1\n      dup2\n      mstore\n      return\n    tag_60:\n      jumpi(tag_118, callvalue)\n      jumpi(tag_118, slt(add(not(0x03), calldatasize), 0x00))\n      sload(0x00)\n      mload(0x40)\n      shl(0xe0, 0x8da5cb5b)\n        /* \"Pipe/AccesControlPipes.sol\":1523:1544  accessControl.owner() */\n      dup2\n      mstore\n      0x20\n        /* \"system/StateVariable.sol\":447:17631  contract stateVariable is AccesControl, Pausable {... */\n      dup2\n      0x04\n      dup2\n      sub(shl(0xa0, 0x01), 0x01)\n      dup7\n      and\n        /* \"Pipe/AccesControlPipes.sol\":1523:1544  accessControl.owner() */\n      gas\n      staticcall\n      dup1\n      iszero\n      tag_120\n      jumpi\n        /* \"Pipe/AccesControlPipes.sol\":1501:1558  require(msg.sender == accessControl.owner(), \"Not owner\") */\n      tag_313\n        /* \"Pipe/AccesControlPipes.sol\":1523:1544  accessControl.owner() */\n      swap2\n        /* \"system/StateVariable.sol\":447:17631  contract stateVariable is AccesControl, Pausable {... */\n      0x00\n        /* \"Pipe/AccesControlPipes.sol\":1523:1544  accessControl.owner() */\n      swap2\n      tag_314\n      jumpi\n      pop\n      sub(shl(0xa0, 0x01), 0x01)\n        /* \"system/StateVariable.sol\":447:17631  contract stateVariable is AccesControl, Pausable {... */\n      and\n        /* \"Pipe/AccesControlPipes.sol\":1509:1519  msg.sender */\n      caller\n        /* \"Pipe/AccesControlPipes.sol\":1509:1544  msg.sender == accessControl.owner() */\n      eq\n        /* \"Pipe/AccesControlPipes.sol\":1501:1558  require(msg.sender == accessControl.owner(), \"Not owner\") */\n      tag_13\n      jump\t// in\n    tag_313:\n        /* \"@openzeppelin/contracts/utils/Pausable.sol\":1315:1387  modifier whenNotPaused() {... */\n      tag_316\n      tag_17\n      jump\t// in\n    tag_316:\n      not(shl(0xa0, 0xff))\n        /* \"system/StateVariable.sol\":447:17631  contract stateVariable is AccesControl, Pausable {... */\n      and\n      shl(0xa0, 0x01)\n      or\n      0x00\n      sstore\n      mload(0x40)\n        /* \"Pipe/AccesControlPipes.sol\":1509:1519  msg.sender */\n      caller\n        /* \"system/StateVariable.sol\":447:17631  contract stateVariable is AccesControl, Pausable {... */\n      dup2\n      mstore\n        /* \"@openzeppelin/contracts/utils/Pausable.sol\":2427:2447  Paused(_msgSender()) */\n      0x62e78cea01bee320cd4e420270b5ea74000d11b0c9f74754ebdbfc544b05a258\n      swap1\n        /* \"Pipe/AccesControlPipes.sol\":1523:1544  accessControl.owner() */\n      0x20\n      swap1\n        /* \"@openzeppelin/contracts/utils/Pausable.sol\":2427:2447  Paused(_msgSender()) */\n      log1\n        /* \"system/StateVariable.sol\":17483:17509  ContractPaused(msg.sender) */\n      0x81990fd9a5c552b8e3677917d8a03c07678f0d2cb68f88b634aca2022e9bd19f\n        /* \"Pipe/AccesControlPipes.sol\":1523:1544  accessControl.owner() */\n      0x20\n        /* \"system/StateVariable.sol\":447:17631  contract stateVariable is AccesControl, Pausable {... */\n      mload(0x40)\n        /* \"Pipe/AccesControlPipes.sol\":1509:1519  msg.sender */\n      caller\n        /* \"system/StateVariable.sol\":447:17631  contract stateVariable is AccesControl, Pausable {... */\n      dup2\n      mstore\n        /* \"system/StateVariable.sol\":17483:17509  ContractPaused(msg.sender) */\n      log1\n        /* \"system/StateVariable.sol\":447:17631  contract stateVariable is AccesControl, Pausable {... */\n      stop\n        /* \"Pipe/AccesControlPipes.sol\":1523:1544  accessControl.owner() */\n    tag_314:\n      tag_317\n      swap2\n      pop\n      0x20\n      jumpi(tag_296, gt(0x20, returndatasize))\n      tag_298\n      dup2\n      dup4\n      tag_11\n      jump\t// in\n    tag_317:\n      dup4\n      jump(tag_291)\n        /* \"system/StateVariable.sol\":447:17631  contract stateVariable is AccesControl, Pausable {... */\n    tag_58:\n      jumpi(tag_118, callvalue)\n      jumpi(tag_118, slt(add(not(0x03), calldatasize), 0x00))\n      0x20\n      sub(shl(0x40, 0x01), 0x01)\n        /* \"system/StateVariable.sol\":10257:10288  StateVars.minRevisionTimeInHour */\n      0x0b\n        /* \"system/StateVariable.sol\":447:17631  contract stateVariable is AccesControl, Pausable {... */\n      sload\n      and\n      mload(0x40)\n      swap1\n      dup2\n      mstore\n      return\n    tag_56:\n      jumpi(tag_118, callvalue)\n      jumpi(tag_118, slt(add(not(0x03), calldatasize), 0x00))\n      0x20\n        /* \"system/StateVariable.sol\":11268:11287  StakeCategorys.high */\n      0x10\n        /* \"system/StateVariable.sol\":447:17631  contract stateVariable is AccesControl, Pausable {... */\n      sload\n      mload(0x40)\n      swap1\n      dup2\n      mstore\n      return\n    tag_54:\n      jumpi(tag_118, callvalue)\n      jumpi(tag_118, slt(add(not(0x03), calldatasize), 0x00))\n      0x20\n        /* \"system/StateVariable.sol\":11375:11399  StakeCategorys.ultraHigh */\n      0x11\n        /* \"system/StateVariable.sol\":447:17631  contract stateVariable is AccesControl, Pausable {... */\n      sload\n      mload(0x40)\n      swap1\n      dup2\n      mstore\n      return\n    tag_52:\n      jumpi(tag_118, callvalue)\n      jumpi(tag_118, slt(add(not(0x03), calldatasize), 0x00))\n      0x20\n      0xffffffff\n        /* \"system/StateVariable.sol\":9654:9670  reputationPoints */\n      0x08\n        /* \"system/StateVariable.sol\":447:17631  contract stateVariable is AccesControl, Pausable {... */\n      sload\n      0xc0\n      shr\n      and\n      mload(0x40)\n      swap1\n      dup2\n      mstore\n      return\n    tag_50:\n      jumpi(tag_118, callvalue)\n      jumpi(tag_118, slt(add(not(0x03), calldatasize), 0x00))\n        /* \"system/StateVariable.sol\":2405:2440  StakeCategory public StakeCategorys */\n      0x0c\n        /* \"system/StateVariable.sol\":447:17631  contract stateVariable is AccesControl, Pausable {... */\n      sload\n        /* \"system/StateVariable.sol\":2405:2440  StakeCategory public StakeCategorys */\n      0x0d\n        /* \"system/StateVariable.sol\":447:17631  contract stateVariable is AccesControl, Pausable {... */\n      sload\n        /* \"system/StateVariable.sol\":2405:2440  StakeCategory public StakeCategorys */\n      0x0e\n        /* \"system/StateVariable.sol\":447:17631  contract stateVariable is AccesControl, Pausable {... */\n      sload\n        /* \"system/StateVariable.sol\":2405:2440  StakeCategory public StakeCategorys */\n      0x0f\n        /* \"system/StateVariable.sol\":447:17631  contract stateVariable is AccesControl, Pausable {... */\n      sload\n        /* \"system/StateVariable.sol\":2405:2440  StakeCategory public StakeCategorys */\n      0x10\n        /* \"system/StateVariable.sol\":447:17631  contract stateVariable is AccesControl, Pausable {... */\n      sload\n        /* \"system/StateVariable.sol\":2405:2440  StakeCategory public StakeCategorys */\n      0x11\n        /* \"system/StateVariable.sol\":447:17631  contract stateVariable is AccesControl, Pausable {... */\n      sload\n      0x40\n      dup1\n      mload\n      swap7\n      dup8\n      mstore\n      0x20\n      dup8\n      add\n      swap6\n      swap1\n      swap6\n      mstore\n      swap4\n      dup6\n      add\n      swap3\n      swap1\n      swap3\n      mstore\n      0x60\n      dup5\n      add\n      mstore\n      0x80\n      dup4\n      add\n      mstore\n      0xa0\n      dup3\n      add\n      mstore\n      0xc0\n      swap1\n      return\n    tag_48:\n      jumpi(tag_118, callvalue)\n      jumpi(tag_118, slt(add(not(0x03), calldatasize), 0x00))\n      0x20\n      and(shr(0xa0, sload(0x00)), 0xff)\n      mload(0x40)\n      swap1\n      iszero\n      iszero\n      dup2\n      mstore\n      return\n    tag_46:\n      jumpi(tag_118, callvalue)\n      jumpi(tag_118, slt(add(not(0x03), calldatasize), 0x00))\n      0x20\n        /* \"system/StateVariable.sol\":8521:8540  stakeAmounts.midLow */\n      0x03\n        /* \"system/StateVariable.sol\":447:17631  contract stateVariable is AccesControl, Pausable {... */\n      sload\n      mload(0x40)\n      swap1\n      dup2\n      mstore\n      return\n    tag_44:\n      jumpi(tag_118, callvalue)\n      jumpi(tag_118, slt(add(not(0x03), calldatasize), 0x80))\n      tag_354\n      tag_4\n      jump\t// in\n    tag_354:\n      tag_355\n      tag_5\n      jump\t// in\n    tag_355:\n      tag_356\n      tag_6\n      jump\t// in\n    tag_356:\n      swap2\n      tag_357\n      tag_7\n      jump\t// in\n    tag_357:\n      sload(0x00)\n      mload(0x40)\n      shl(0xe1, 0x3f784de5)\n        /* \"Pipe/AccesControlPipes.sol\":1908:1941  accessControl.hasRole(msg.sender) */\n      dup2\n      mstore\n        /* \"Pipe/AccesControlPipes.sol\":1930:1940  msg.sender */\n      caller\n        /* \"system/StateVariable.sol\":447:17631  contract stateVariable is AccesControl, Pausable {... */\n      0x04\n        /* \"Pipe/AccesControlPipes.sol\":1908:1941  accessControl.hasRole(msg.sender) */\n      dup3\n      add\n        /* \"system/StateVariable.sol\":447:17631  contract stateVariable is AccesControl, Pausable {... */\n      mstore\n      swap2\n      swap5\n      swap2\n      swap1\n      0x20\n      swap1\n      dup3\n      swap1\n      0x24\n      swap1\n      dup3\n      swap1\n      sub(shl(0xa0, 0x01), 0x01)\n      and\n        /* \"Pipe/AccesControlPipes.sol\":1908:1941  accessControl.hasRole(msg.sender) */\n      gas\n      staticcall\n      dup1\n      iszero\n      tag_120\n      jumpi\n        /* \"Pipe/AccesControlPipes.sol\":1900:1958  require(accessControl.hasRole(msg.sender), \"Not employee\") */\n      tag_360\n        /* \"Pipe/AccesControlPipes.sol\":1908:1941  accessControl.hasRole(msg.sender) */\n      swap2\n        /* \"system/StateVariable.sol\":447:17631  contract stateVariable is AccesControl, Pausable {... */\n      0x00\n        /* \"Pipe/AccesControlPipes.sol\":1908:1941  accessControl.hasRole(msg.sender) */\n      swap2\n      tag_361\n      jumpi\n        /* \"Pipe/AccesControlPipes.sol\":1900:1958  require(accessControl.hasRole(msg.sender), \"Not employee\") */\n      pop\n      tag_15\n      jump\t// in\n    tag_360:\n        /* \"system/StateVariable.sol\":447:17631  contract stateVariable is AccesControl, Pausable {... */\n      0x64\n      sub(shl(0x40, 0x01), 0x01)\n        /* \"system/StateVariable.sol\":12217:12278  rewardScore + reputationScore + deadlineScore + revisionScore */\n      tag_363\n        /* \"system/StateVariable.sol\":12217:12246  rewardScore + reputationScore */\n      dup7\n        /* \"system/StateVariable.sol\":12217:12262  rewardScore + reputationScore + deadlineScore */\n      tag_365\n        /* \"system/StateVariable.sol\":12217:12246  rewardScore + reputationScore */\n      dup6\n      tag_365\n      dup10\n      dup10\n      tag_16\n      jump\t// in\n    tag_365:\n        /* \"system/StateVariable.sol\":12217:12262  rewardScore + reputationScore + deadlineScore */\n      tag_16\n      jump\t// in\n        /* \"system/StateVariable.sol\":12217:12278  rewardScore + reputationScore + deadlineScore + revisionScore */\n    tag_363:\n        /* \"system/StateVariable.sol\":447:17631  contract stateVariable is AccesControl, Pausable {... */\n      and\n        /* \"system/StateVariable.sol\":12293:12305  total != 100 */\n      sub\n        /* \"system/StateVariable.sol\":12289:12330  if (total != 100) revert TotalMustBe100() */\n      tag_366\n      jumpi\n        /* \"system/StateVariable.sol\":447:17631  contract stateVariable is AccesControl, Pausable {... */\n      mload(0x40)\n      swap4\n      0x80\n      dup6\n      add\n      swap2\n      dup6\n      dup4\n      lt\n      sub(shl(0x40, 0x01), 0x01)\n      dup5\n      gt\n      or\n      tag_368\n      jumpi\n      0x40\n      swap3\n      dup4\n      mstore\n      sub(shl(0x40, 0x01), 0x01)\n      swap4\n      dup5\n      and\n      dup1\n      dup8\n      mstore\n      dup6\n      dup6\n      and\n      0x20\n        /* \"system/StateVariable.sol\":12372:12520  ComponentWeightPercentage(... */\n      dup1\n      dup10\n      add\n        /* \"system/StateVariable.sol\":447:17631  contract stateVariable is AccesControl, Pausable {... */\n      dup3\n      swap1\n      mstore\n      dup4\n      dup8\n      and\n        /* \"system/StateVariable.sol\":12372:12520  ComponentWeightPercentage(... */\n      dup7\n      dup11\n      add\n        /* \"system/StateVariable.sol\":447:17631  contract stateVariable is AccesControl, Pausable {... */\n      dup2\n      swap1\n      mstore\n      swap7\n      dup6\n      and\n      0x60\n        /* \"system/StateVariable.sol\":12372:12520  ComponentWeightPercentage(... */\n      swap10\n      dup11\n      add\n        /* \"system/StateVariable.sol\":447:17631  contract stateVariable is AccesControl, Pausable {... */\n      dup2\n      swap1\n      mstore\n      swap8\n      dup7\n      shl\n      shl(0x40, 0xffffffffffffffff)\n      and\n      dup4\n      or\n      0x80\n      swap5\n      dup6\n      shl\n      shl(0x80, 0xffffffffffffffff)\n      and\n      or\n      0xc0\n      swap6\n      swap1\n      swap6\n      shl\n      not(sub(shl(0xc0, 0x01), 0x01))\n      and\n      swap5\n      swap1\n      swap5\n      or\n        /* \"system/StateVariable.sol\":12343:12520  componentWeightPercentages = ComponentWeightPercentage(... */\n      0x01\n        /* \"system/StateVariable.sol\":447:17631  contract stateVariable is AccesControl, Pausable {... */\n      sstore\n      dup5\n      mload\n      swap2\n      dup3\n      mstore\n      swap3\n      dup2\n      add\n      swap3\n      swap1\n      swap3\n      mstore\n      swap2\n      dup2\n      add\n      swap3\n      swap1\n      swap3\n      mstore\n      swap3\n      dup2\n      add\n      swap2\n      swap1\n      swap2\n      mstore\n        /* \"system/StateVariable.sol\":12538:12694  componentWeightPercentagesChanged(... */\n      0xa1e47e55cf3d1775387922da7bbe4c1d62fc43f2fcf01cac0f579545f2eb98b1\n      swap2\n        /* \"system/StateVariable.sol\":447:17631  contract stateVariable is AccesControl, Pausable {... */\n      dup2\n      swap1\n      dup2\n      add\n        /* \"system/StateVariable.sol\":12538:12694  componentWeightPercentagesChanged(... */\n      tag_122\n        /* \"system/StateVariable.sol\":447:17631  contract stateVariable is AccesControl, Pausable {... */\n      jump\n    tag_368:\n      mstore(0x00, shl(0xe0, 0x4e487b71))\n      mstore(0x04, 0x41)\n      revert(0x00, 0x24)\n        /* \"system/StateVariable.sol\":12289:12330  if (total != 100) revert TotalMustBe100() */\n    tag_366:\n        /* \"system/StateVariable.sol\":12314:12330  TotalMustBe100() */\n      shl(0xe1, 0x62549315)\n        /* \"system/StateVariable.sol\":447:17631  contract stateVariable is AccesControl, Pausable {... */\n      0x00\n        /* \"system/StateVariable.sol\":12314:12330  TotalMustBe100() */\n      mstore\n        /* \"system/StateVariable.sol\":447:17631  contract stateVariable is AccesControl, Pausable {... */\n      0x04\n      0x00\n        /* \"system/StateVariable.sol\":12314:12330  TotalMustBe100() */\n      revert\n        /* \"Pipe/AccesControlPipes.sol\":1908:1941  accessControl.hasRole(msg.sender) */\n    tag_361:\n      tag_371\n      swap2\n      pop\n        /* \"system/StateVariable.sol\":447:17631  contract stateVariable is AccesControl, Pausable {... */\n      0x20\n        /* \"Pipe/AccesControlPipes.sol\":1908:1941  accessControl.hasRole(msg.sender) */\n      returndatasize\n        /* \"system/StateVariable.sol\":447:17631  contract stateVariable is AccesControl, Pausable {... */\n      0x20\n        /* \"Pipe/AccesControlPipes.sol\":1908:1941  accessControl.hasRole(msg.sender) */\n      gt\n      tag_128\n      jumpi\n      tag_130\n      dup2\n      dup4\n      tag_11\n      jump\t// in\n    tag_371:\n      dup7\n      jump(tag_125)\n        /* \"system/StateVariable.sol\":447:17631  contract stateVariable is AccesControl, Pausable {... */\n    tag_42:\n      jumpi(tag_118, callvalue)\n      jumpi(tag_118, slt(add(not(0x03), calldatasize), 0x00))\n      0x20\n        /* \"system/StateVariable.sol\":8718:8738  stakeAmounts.midHigh */\n      0x05\n        /* \"system/StateVariable.sol\":447:17631  contract stateVariable is AccesControl, Pausable {... */\n      sload\n      mload(0x40)\n      swap1\n      dup2\n      mstore\n      return\n    tag_40:\n      jumpi(tag_118, callvalue)\n      jumpi(tag_118, slt(add(not(0x03), calldatasize), 0x00))\n      0x20\n        /* \"system/StateVariable.sol\":10147:10166  StateVars.maxReward */\n      0x0a\n        /* \"system/StateVariable.sol\":447:17631  contract stateVariable is AccesControl, Pausable {... */\n      sload\n      mload(0x40)\n      swap1\n      dup2\n      mstore\n      return\n    tag_38:\n      jumpi(tag_118, callvalue)\n      jumpi(tag_118, slt(add(not(0x03), calldatasize), 0x00))\n      sload(0x00)\n      mload(0x40)\n      shl(0xe0, 0x8da5cb5b)\n        /* \"Pipe/AccesControlPipes.sol\":1523:1544  accessControl.owner() */\n      dup2\n      mstore\n      0x20\n        /* \"system/StateVariable.sol\":447:17631  contract stateVariable is AccesControl, Pausable {... */\n      dup2\n      0x04\n      dup2\n      sub(shl(0xa0, 0x01), 0x01)\n      dup7\n      and\n        /* \"Pipe/AccesControlPipes.sol\":1523:1544  accessControl.owner() */\n      gas\n      staticcall\n      dup1\n      iszero\n      tag_120\n      jumpi\n        /* \"Pipe/AccesControlPipes.sol\":1501:1558  require(msg.sender == accessControl.owner(), \"Not owner\") */\n      tag_389\n        /* \"Pipe/AccesControlPipes.sol\":1523:1544  accessControl.owner() */\n      swap2\n        /* \"system/StateVariable.sol\":447:17631  contract stateVariable is AccesControl, Pausable {... */\n      0x00\n        /* \"Pipe/AccesControlPipes.sol\":1523:1544  accessControl.owner() */\n      swap2\n      tag_314\n      jumpi\n      pop\n      sub(shl(0xa0, 0x01), 0x01)\n        /* \"system/StateVariable.sol\":447:17631  contract stateVariable is AccesControl, Pausable {... */\n      and\n        /* \"Pipe/AccesControlPipes.sol\":1509:1519  msg.sender */\n      caller\n        /* \"Pipe/AccesControlPipes.sol\":1509:1544  msg.sender == accessControl.owner() */\n      eq\n        /* \"Pipe/AccesControlPipes.sol\":1501:1558  require(msg.sender == accessControl.owner(), \"Not owner\") */\n      tag_13\n      jump\t// in\n    tag_389:\n        /* \"system/StateVariable.sol\":447:17631  contract stateVariable is AccesControl, Pausable {... */\n      0xff\n      dup2\n      0xa0\n      shr\n      and\n        /* \"@openzeppelin/contracts/utils/Pausable.sol\":2140:2149  !paused() */\n      iszero\n        /* \"@openzeppelin/contracts/utils/Pausable.sol\":2136:2198  if (!paused()) {... */\n      tag_392\n      jumpi\n      not(shl(0xa0, 0xff))\n        /* \"system/StateVariable.sol\":447:17631  contract stateVariable is AccesControl, Pausable {... */\n      and\n      0x00\n      sstore\n      mload(0x40)\n        /* \"Pipe/AccesControlPipes.sol\":1509:1519  msg.sender */\n      caller\n        /* \"system/StateVariable.sol\":447:17631  contract stateVariable is AccesControl, Pausable {... */\n      dup2\n      mstore\n        /* \"@openzeppelin/contracts/utils/Pausable.sol\":2674:2696  Unpaused(_msgSender()) */\n      0x5db9ee0a495bf2e6ff9c91a7834c1ba4fdd244a5e8aa4e537bd38aeae4b073aa\n      swap1\n        /* \"Pipe/AccesControlPipes.sol\":1523:1544  accessControl.owner() */\n      0x20\n      swap1\n        /* \"@openzeppelin/contracts/utils/Pausable.sol\":2674:2696  Unpaused(_msgSender()) */\n      log1\n        /* \"system/StateVariable.sol\":17590:17618  ContractUnpaused(msg.sender) */\n      0x5b65b0c1363b3003db9bcc5e1fd8805a6d6bf5bf6dc9d3431ee4494cd7d11766\n        /* \"Pipe/AccesControlPipes.sol\":1523:1544  accessControl.owner() */\n      0x20\n        /* \"system/StateVariable.sol\":447:17631  contract stateVariable is AccesControl, Pausable {... */\n      mload(0x40)\n        /* \"Pipe/AccesControlPipes.sol\":1509:1519  msg.sender */\n      caller\n        /* \"system/StateVariable.sol\":447:17631  contract stateVariable is AccesControl, Pausable {... */\n      dup2\n      mstore\n        /* \"system/StateVariable.sol\":17590:17618  ContractUnpaused(msg.sender) */\n      log1\n        /* \"system/StateVariable.sol\":447:17631  contract stateVariable is AccesControl, Pausable {... */\n      stop\n        /* \"@openzeppelin/contracts/utils/Pausable.sol\":2136:2198  if (!paused()) {... */\n    tag_392:\n        /* \"@openzeppelin/contracts/utils/Pausable.sol\":2172:2187  ExpectedPause() */\n      shl(0xe0, 0x8dfc202b)\n        /* \"system/StateVariable.sol\":447:17631  contract stateVariable is AccesControl, Pausable {... */\n      0x00\n        /* \"@openzeppelin/contracts/utils/Pausable.sol\":2172:2187  ExpectedPause() */\n      mstore\n        /* \"system/StateVariable.sol\":447:17631  contract stateVariable is AccesControl, Pausable {... */\n      0x04\n      0x00\n        /* \"@openzeppelin/contracts/utils/Pausable.sol\":2172:2187  ExpectedPause() */\n      revert\n        /* \"system/StateVariable.sol\":447:17631  contract stateVariable is AccesControl, Pausable {... */\n    tag_36:\n      jumpi(tag_118, callvalue)\n      jumpi(tag_118, slt(add(not(0x03), calldatasize), 0x00))\n        /* \"system/StateVariable.sol\":2223:2282  ComponentWeightPercentage public componentWeightPercentages */\n      0x01\n        /* \"system/StateVariable.sol\":447:17631  contract stateVariable is AccesControl, Pausable {... */\n      sload\n      0x40\n      dup1\n      mload\n      sub(shl(0x40, 0x01), 0x01)\n      dup1\n      dup5\n      and\n      dup3\n      mstore\n      dup4\n      dup4\n      shr\n      dup2\n      and\n      0x20\n      dup4\n      add\n      mstore\n      0x80\n      dup5\n      dup2\n      shr\n      swap1\n      swap2\n      and\n      swap3\n      dup3\n      add\n      swap3\n      swap1\n      swap3\n      mstore\n      0xc0\n      swap3\n      swap1\n      swap3\n      shr\n      0x60\n      dup4\n      add\n      mstore\n      swap1\n      return\n    tag_34:\n      jumpi(tag_118, callvalue)\n      jumpi(tag_118, slt(add(not(0x03), calldatasize), 0x00))\n        /* \"system/StateVariable.sol\":2327:2366  ReputationPoint public reputationPoints */\n      0x08\n        /* \"system/StateVariable.sol\":447:17631  contract stateVariable is AccesControl, Pausable {... */\n      sload\n      0x40\n      dup1\n      mload\n      sub(shl(0x40, 0x01), 0x01)\n      dup1\n      dup5\n      and\n      dup3\n      mstore\n      dup4\n      dup4\n      shr\n      and\n      0x20\n      dup3\n      add\n      mstore\n      0xffffffff\n      0x80\n      dup5\n      dup2\n      shr\n      dup3\n      and\n      swap4\n      dup4\n      add\n      swap4\n      swap1\n      swap4\n      mstore\n      0xa0\n      dup5\n      dup2\n      shr\n      dup3\n      and\n      0x60\n      dup5\n      add\n      mstore\n      0xc0\n      dup6\n      dup2\n      shr\n      swap1\n      swap3\n      and\n      swap4\n      dup4\n      add\n      swap4\n      swap1\n      swap4\n      mstore\n      0xe0\n      swap4\n      swap1\n      swap4\n      shr\n      swap2\n      dup2\n      add\n      swap2\n      swap1\n      swap2\n      mstore\n      return\n    tag_32:\n      jumpi(tag_118, callvalue)\n      jumpi(tag_118, slt(add(not(0x03), calldatasize), 0x00))\n      0x20\n        /* \"system/StateVariable.sol\":8920:8942  stakeAmounts.ultraHigh */\n      0x07\n        /* \"system/StateVariable.sol\":447:17631  contract stateVariable is AccesControl, Pausable {... */\n      sload\n      mload(0x40)\n      swap1\n      dup2\n      mstore\n      return\n    tag_30:\n      jumpi(tag_118, callvalue)\n      jumpi(tag_118, slt(add(not(0x03), calldatasize), 0x00))\n      0x20\n        /* \"system/StateVariable.sol\":8141:8167  componentWeightPercentages */\n      0x01\n        /* \"system/StateVariable.sol\":447:17631  contract stateVariable is AccesControl, Pausable {... */\n      sload\n      0xc0\n      shr\n      mload(0x40)\n      swap1\n      dup2\n      mstore\n      return\n    tag_28:\n      jumpi(tag_118, callvalue)\n      jumpi(tag_118, slt(add(not(0x03), calldatasize), 0x00))\n      sload(0x00)\n      mload(0x40)\n      sub(shl(0xa0, 0x01), 0x01)\n      swap1\n      swap2\n      and\n      dup2\n      mstore\n      0x20\n      swap1\n      return\n    tag_26:\n      jumpi(tag_118, callvalue)\n      jumpi(tag_118, slt(add(not(0x03), calldatasize), 0x00))\n      0x20\n      sload(0x04)\n      mload(0x40)\n      swap1\n      dup2\n      mstore\n      return\n    tag_24:\n      jumpi(tag_118, callvalue)\n      jumpi(tag_118, slt(add(not(0x03), calldatasize), 0x00))\n        /* \"system/StateVariable.sol\":2289:2320  StakeAmount public stakeAmounts */\n      0x02\n        /* \"system/StateVariable.sol\":447:17631  contract stateVariable is AccesControl, Pausable {... */\n      sload\n        /* \"system/StateVariable.sol\":2289:2320  StakeAmount public stakeAmounts */\n      0x03\n        /* \"system/StateVariable.sol\":447:17631  contract stateVariable is AccesControl, Pausable {... */\n      sload\n      sload(0x04)\n        /* \"system/StateVariable.sol\":2289:2320  StakeAmount public stakeAmounts */\n      0x05\n        /* \"system/StateVariable.sol\":447:17631  contract stateVariable is AccesControl, Pausable {... */\n      sload\n        /* \"system/StateVariable.sol\":2289:2320  StakeAmount public stakeAmounts */\n      0x06\n        /* \"system/StateVariable.sol\":447:17631  contract stateVariable is AccesControl, Pausable {... */\n      sload\n        /* \"system/StateVariable.sol\":2289:2320  StakeAmount public stakeAmounts */\n      0x07\n        /* \"system/StateVariable.sol\":447:17631  contract stateVariable is AccesControl, Pausable {... */\n      sload\n      0x40\n      dup1\n      mload\n      swap7\n      dup8\n      mstore\n      0x20\n      dup8\n      add\n      swap6\n      swap1\n      swap6\n      mstore\n      swap4\n      dup6\n      add\n      swap3\n      swap1\n      swap3\n      mstore\n      0x60\n      dup5\n      add\n      mstore\n      0x80\n      dup4\n      add\n      mstore\n      0xa0\n      dup3\n      add\n      mstore\n      0xc0\n      swap1\n      return\n    tag_22:\n      jumpi(tag_118, callvalue)\n      jumpi(tag_118, slt(add(not(0x03), calldatasize), 0x00))\n      0x20\n      sub(shl(0x40, 0x01), 0x01)\n        /* \"system/StateVariable.sol\":10368:10388  StateVars.NegPenalty */\n      0x0b\n        /* \"system/StateVariable.sol\":447:17631  contract stateVariable is AccesControl, Pausable {... */\n      sload\n      0x40\n      shr\n      and\n      mload(0x40)\n      swap1\n      dup2\n      mstore\n      return\n    tag_20:\n      jumpi(tag_118, callvalue)\n      jumpi(tag_118, slt(add(not(0x03), calldatasize), 0x00))\n      0x20\n      swap1\n      sub(shl(0x40, 0x01), 0x01)\n        /* \"system/StateVariable.sol\":10471:10494  StateVars.feePercentage */\n      0x0b\n        /* \"system/StateVariable.sol\":447:17631  contract stateVariable is AccesControl, Pausable {... */\n      sload\n      0x80\n      shr\n      and\n      dup2\n      mstore\n      return\n    tag_4:\n      calldataload(0x04)\n      swap1\n      sub(shl(0x40, 0x01), 0x01)\n      dup3\n      and\n      dup3\n      sub\n      tag_118\n      jumpi\n      jump\t// out\n    tag_5:\n      calldataload(0x24)\n      swap1\n      sub(shl(0x40, 0x01), 0x01)\n      dup3\n      and\n      dup3\n      sub\n      tag_118\n      jumpi\n      jump\t// out\n    tag_6:\n      calldataload(0x44)\n      swap1\n      sub(shl(0x40, 0x01), 0x01)\n      dup3\n      and\n      dup3\n      sub\n      tag_118\n      jumpi\n      jump\t// out\n    tag_7:\n      calldataload(0x64)\n      swap1\n      sub(shl(0x40, 0x01), 0x01)\n      dup3\n      and\n      dup3\n      sub\n      tag_118\n      jumpi\n      jump\t// out\n    tag_9:\n      0xc0\n      swap1\n      not(0x03)\n      add\n      slt\n      tag_118\n      jumpi\n      calldataload(0x04)\n      swap1\n      calldataload(0x24)\n      swap1\n      calldataload(0x44)\n      swap1\n      calldataload(0x64)\n      swap1\n      calldataload(0x84)\n      swap1\n      calldataload(0xa4)\n      swap1\n      jump\t// out\n    tag_10:\n      0xc0\n      dup2\n      add\n      swap1\n      dup2\n      lt\n      sub(shl(0x40, 0x01), 0x01)\n      dup3\n      gt\n      or\n      tag_368\n      jumpi\n      0x40\n      mstore\n      jump\t// out\n    tag_11:\n      swap1\n      0x1f\n      dup1\n      not\n      swap2\n      add\n      and\n      dup2\n      add\n      swap1\n      dup2\n      lt\n      sub(shl(0x40, 0x01), 0x01)\n      dup3\n      gt\n      or\n      tag_368\n      jumpi\n      0x40\n      mstore\n      jump\t// out\n    tag_12:\n      swap1\n      dup2\n      0x20\n      swap2\n      sub\n      slt\n      tag_118\n      jumpi\n      mload\n      sub(shl(0xa0, 0x01), 0x01)\n      dup2\n      and\n      dup2\n      sub\n      tag_118\n      jumpi\n      swap1\n      jump\t// out\n    tag_13:\n      iszero\n      tag_455\n      jumpi\n      jump\t// out\n    tag_455:\n      mload(0x40)\n      shl(0xe5, 0x461bcd)\n      dup2\n      mstore\n      0x20\n      0x04\n      dup3\n      add\n      mstore\n      0x09\n      0x24\n      dup3\n      add\n      mstore\n      shl(0xb9, 0x2737ba1037bbb732b9)\n      0x44\n      dup3\n      add\n      mstore\n      0x64\n      swap1\n      revert\n    tag_14:\n      swap1\n      dup2\n      0x20\n      swap2\n      sub\n      slt\n      tag_118\n      jumpi\n      mload\n      dup1\n      iszero\n      iszero\n      dup2\n      sub\n      tag_118\n      jumpi\n      swap1\n      jump\t// out\n    tag_15:\n      iszero\n      tag_461\n      jumpi\n      jump\t// out\n    tag_461:\n      mload(0x40)\n      shl(0xe5, 0x461bcd)\n      dup2\n      mstore\n      0x20\n      0x04\n      dup3\n      add\n      mstore\n      0x0c\n      0x24\n      dup3\n      add\n      mstore\n      shl(0xa0, 0x4e6f7420656d706c6f796565)\n      0x44\n      dup3\n      add\n      mstore\n      0x64\n      swap1\n      revert\n    tag_16:\n      swap1\n      sub(shl(0x40, 0x01), 0x01)\n      dup1\n      swap2\n      and\n      swap2\n      and\n      add\n      swap1\n      sub(shl(0x40, 0x01), 0x01)\n      dup3\n      gt\n      tag_174\n      jumpi\n      jump\t// out\n        /* \"@openzeppelin/contracts/utils/Pausable.sol\":1878:2006  function _requireNotPaused() internal view virtual {... */\n    tag_17:\n        /* \"system/StateVariable.sol\":447:17631  contract stateVariable is AccesControl, Pausable {... */\n      0xff\n        /* \"@openzeppelin/contracts/utils/Pausable.sol\":1796:1803  _paused */\n      0x00\n        /* \"system/StateVariable.sol\":447:17631  contract stateVariable is AccesControl, Pausable {... */\n      sload\n      0xa0\n      shr\n      and\n        /* \"@openzeppelin/contracts/utils/Pausable.sol\":1939:2000  if (paused()) {... */\n      tag_465\n      jumpi\n        /* \"@openzeppelin/contracts/utils/Pausable.sol\":1878:2006  function _requireNotPaused() internal view virtual {... */\n      jump\t// out\n        /* \"@openzeppelin/contracts/utils/Pausable.sol\":1939:2000  if (paused()) {... */\n    tag_465:\n        /* \"@openzeppelin/contracts/utils/Pausable.sol\":1974:1989  EnforcedPause() */\n      shl(0xe0, 0xd93c0665)\n        /* \"@openzeppelin/contracts/utils/Pausable.sol\":1796:1803  _paused */\n      0x00\n        /* \"@openzeppelin/contracts/utils/Pausable.sol\":1974:1989  EnforcedPause() */\n      mstore\n      0x04\n        /* \"@openzeppelin/contracts/utils/Pausable.sol\":1796:1803  _paused */\n      0x00\n        /* \"@openzeppelin/contracts/utils/Pausable.sol\":1974:1989  EnforcedPause() */\n      revert\n\n    auxdata: 0xa264697066735822122092e6d33c53a9aa23eb4d578bea3d78bb546038cb8518b20970e0c340585c2b1f64736f6c634300081e0033\n}\n",
				"bytecode": {
					"linkReferences": {},
					"object": "6102606040523461072857604051610240819052611d1b903882900390601f19601f83011681019081106001600160401b03821117610705576103a092829160405261024051396102405190810103126107285761005f6102405161074b565b60e0526100716020610240510161074b565b6100806040610240510161074b565b61008f6060610240510161074b565b608061024051015160a061024051015160c061024051015160e0610240510151610100610240510151610120610240510151916100d2610140610240510161074b565b936100e3610160610240510161074b565b956100f4610180610240510161075f565b976101056101a0610240510161075f565b996101166101c0610240510161075f565b9b6101276101e0610240510161075f565b9d6102006102405101516080526102206102405101516102205261014f61024080510161074b565b61020052610163610260610240510161074b565b6101e052610177610280610240510161074b565b6101c05261018b6102a0610240510161074b565b6101a052610240516102c0810151610180526102e08101516101605261030081015161014052610320810151610120526103408101516101005261036081015160c052610380015160a08190526001600160a01b038116900361072857606460018060401b0361020a85610205866102058760e051610770565b610770565b160361071957604051608081016001600160401b0381118282101761070557604090815260e0516001600160401b039081168084528482166020850152858216848401529086166060909301929092529190911b6fffffffffffffffff0000000000000000161760809190911b600160801b600160c01b03161760c09190911b6001600160c01b03191617600155670de0b6b3a764000081810291801590830490911417156106f157670de0b6b3a7640000820291808304670de0b6b3a764000014901517156106f157670de0b6b3a7640000830292808404670de0b6b3a764000014901517156106f157670de0b6b3a7640000840293808504670de0b6b3a764000014901517156106f157670de0b6b3a7640000850294808604670de0b6b3a764000014901517156106f157670de0b6b3a7640000860295808704670de0b6b3a764000014901517156106f15761036061072c565b8181526020810183905260408101849052606081018590526080810186905260a00186905260025560035560045560055560065560075561039f61072c565b6001600160401b03918216808252918316602082015263ffffffff848116604080840191909152868216606084015287821660808085019190915291891660a09384015260c09790971b63ffffffff60c01b169590911b63ffffffff60a01b169290951b6fffffffffffffffff0000000000000000161791841b63ffffffff60801b1691909117171760e09290921b6001600160e01b0319169190911760085551670de0b6b3a764000081810291801590830490911417156106f157670de0b6b3a76400006102205102610220518104670de0b6b3a764000014610220511517156106f15761048c61072c565b82815260208101829052610200516001600160401b0390811660408084018290526101e08051841660608601526101c0805185166080808801919091526101a0805190961660a090970196909652600997909755600a959095559351945191519490931b6fffffffffffffffff00000000000000001690921791901b600160801b600160c01b03161760c09190911b6001600160c01b03191617600b5561018051670de0b6b3a764000081810291801590830490911417156106f157670de0b6b3a76400006101605102610160518104670de0b6b3a764000014610160511517156106f157670de0b6b3a76400006101405102610140518104670de0b6b3a764000014610140511517156106f157670de0b6b3a7640000610120510290610120518204670de0b6b3a764000014610120511517156106f157670de0b6b3a7640000610100510292610100518404670de0b6b3a764000014610100511517156106f157670de0b6b3a764000060c051029460c0518604670de0b6b3a76400001460c0511517156106f15761061d61072c565b9081526020810191825260408101928352606081019384526080810194855260a0810195865251600c5551600d5551600e5551600f55516010555160115560018060a01b0360a051161561069c5760a0515f80546001600160a01b0319166001600160a01b0392909216919091179055604051611591908161078a8239f35b60405162461bcd60e51b815260206004820152602760248201527f416363657373436f6e74726f6c3a207a65726f2061646472657373206e6f7420604482015266185b1b1bddd95960ca1b6064820152608490fd5b634e487b7160e01b5f52601160045260245ffd5b634e487b7160e01b5f52604160045260245ffd5b636254931560e11b5f5260045ffd5b5f80fd5b6040519060c082016001600160401b0381118382101761070557604052565b51906001600160401b038216820361072857565b519063ffffffff8216820361072857565b6001600160401b0391821690821601919082116106f15756fe6080806040526004361015610012575f80fd5b5f3560e01c908163068f49d814611394575080630b7dadff1461136b5780630fcaaf3c1461131f57806312c23eb11461130257806313007d55146112db578063258f59fc146112bb57806325ac29e11461129e5780632a5c4e5c146112345780632aedc618146111e95780633f4ba83a1461111b57806342a69e2a146110fe57806347963280146110e1578063554faef814610f3457806355afaf6414610f175780635c975abb14610ef35780635e8c4c6b14610ea7578063770cc99a14610e815780637d8d6d0514610e64578063813b79c114610e475780638326120014610e215780638456cb5914610d4157806384afa48b14610d245780638876408214610d045780639387730c14610bcd57806394fb86e514610bb057806399206b0b14610b9357806399b42ed014610b35578063a0d0124514610b0f578063a376ff7d14610af2578063b30e0be314610acc578063b38be7e31461097f578063baa20a3914610962578063c6de983914610939578063c7d3f62f14610913578063ca218d7d146108f6578063cb101e6414610729578063cf95838b14610703578063d164b1d0146106e3578063e1a256a51461048e578063e1ffcb4614610471578063e44374f214610448578063ef02c5ae1461041f5763f012e4e3146101f5575f80fd5b3461041b5760c036600319011261041b5761020e6113ba565b6102166113d0565b6044359163ffffffff831680840361041b576064359063ffffffff82169182810361041b576084359063ffffffff82169687830361041b5760a4359363ffffffff851680860361041b575f54604051633f784de560e11b815233600482015290602090829060249082906001600160a01b03165afa8015610410577f235e16625910a870c351bbe2f4458a6643b94fc25851129fe8f9a0a86d852db59b6103dc998c956102ce8d9460a0965f916103e1575b506114e3565b6001600160401b0380604051956102e487611438565b169788865216602085015260408401526060830152608082015201526001600160401b0319600854161760085560085467ffffffffffffffff60401b808960401b16169067ffffffffffffffff60401b19161760085560085463ffffffff60e01b8560e01b169060018060e01b039063ffffffff60801b8460801b16906bffffffffffffffffffffffff60801b1916171663ffffffff60a01b8460a01b161763ffffffff60c01b8560c01b161717600855604051968796879463ffffffff60a0958180966001600160401b0382969c9b978160c08d019e168c521660208b015216604089015216606087015216608085015216910152565b0390a1005b610403915060203d602011610409575b6103fb8183611453565b8101906114cb565b5f6102c8565b503d6103f1565b6040513d5f823e3d90fd5b5f80fd5b3461041b575f36600319011261041b5760206001600160401b0360015460801c16604051908152f35b3461041b575f36600319011261041b5760206001600160401b0360085460401c16604051908152f35b3461041b575f36600319011261041b576020600d54604051908152f35b3461041b5761049c36611412565b5f54604051633f784de560e11b81523360048201529396949391929190602090829060249082906001600160a01b03165afa8015610410576104e4915f916106c457506114e3565b8484108015906106ba575b80156106b0575b80156106a6575b801561069c575b61068d57600954821161068d5760405161051d81611438565b84815260208101868152604082018581526060830190898252608084019285845260a0850194878652516002555160035551600455516005555160065551600755670de0b6b3a7640000840293808504670de0b6b3a7640000149015171561067957670de0b6b3a7640000850294808604670de0b6b3a7640000149015171561067957670de0b6b3a7640000830292808404670de0b6b3a7640000149015171561067957670de0b6b3a7640000860295808704670de0b6b3a7640000149015171561067957670de0b6b3a7640000810290808204670de0b6b3a7640000149015171561067957670de0b6b3a7640000820291808304670de0b6b3a76400001490151715610679577fefd16587d517b1989b24b29f937651e8cd66a37df6ade91a30e66500dec41037956103dc93604051968796879260a094919796959260c0850198855260208501526040840152606083015260808201520152565b634e487b7160e01b5f52601160045260245ffd5b631c6d3b1560e01b5f5260045ffd5b5081811015610504565b50808610156104fd565b50858310156104f6565b50828510156104ef565b6106dd915060203d602011610409576103fb8183611453565b886102c8565b3461041b575f36600319011261041b57602060085460e01c604051908152f35b3461041b575f36600319011261041b5760206001600160401b0360085416604051908152f35b3461041b5760c036600319011261041b576004356024356107486113e6565b916107516113fc565b608435906001600160401b0382169182810361041b5760a435916001600160401b0383169687840361041b575f54604051633f784de560e11b815233600482015290602090829060249082906001600160a01b03165afa8015610410576107be915f916108d757506114e3565b606485116108c8576001600160401b038216606481116108b9577f3435d61b755652f7e13587f317c91f07dbb9962edbac881911390791ebaf5dc19860a06103dc976040519061080d82611438565b8a825260208083018d90526001600160401b039687166040808501829052606080860198909852608080860194909452949093019490945260098b9055600a8c905586831b67ffffffffffffffff60401b16821788821b67ffffffffffffffff60801b161760c08a811b6001600160c01b03191691909117600b5583519b8c52938b019b909b529089015292821690870152918216958501959095521660a08301529091829190820190565b630a28fb1960e41b5f5260045ffd5b63694035c960e11b5f5260045ffd5b6108f0915060203d602011610409576103fb8183611453565b8a6102c8565b3461041b575f36600319011261041b576020600654604051908152f35b3461041b575f36600319011261041b57602063ffffffff60085460a01c16604051908152f35b3461041b575f36600319011261041b5760206001600160401b0360015460401c16604051908152f35b3461041b575f36600319011261041b576020600954604051908152f35b3461041b5761098d36611412565b5f54604051633f784de560e11b81523360048201529396949391929190602090829060249082906001600160a01b03165afa8015610410576109d5915f916106c457506114e3565b848410801590610ac2575b8015610ab8575b8015610aae575b8015610aa4575b61068d57600954821161068d577f7a540045a63a511c8e6c029cbc13f3b74cbcba313476464094974f98aaef1cbe956103dc93604051610a3481611438565b86815260208101888152604082018381526060830190858252608084019287845260a085019489865251600c5551600d5551600e5551600f555160105551601155604051968796879260a094919796959260c0850198855260208501526040840152606083015260808201520152565b50818110156109f5565b50808610156109ee565b50858310156109e7565b50828510156109e0565b3461041b575f36600319011261041b57602063ffffffff60085460801c16604051908152f35b3461041b575f36600319011261041b576020600c54604051908152f35b3461041b575f36600319011261041b5760206001600160401b0360015416604051908152f35b3461041b575f36600319011261041b57600954600a54600b546040805193845260208401929092526001600160401b03808216848401529181901c82166060840152608081811c9092169183019190915260c090811c60a083015290f35b3461041b575f36600319011261041b576020600e54604051908152f35b3461041b575f36600319011261041b576020600254604051908152f35b3461041b57602036600319011261041b576004356001600160a01b0381169081900361041b575f54604051638da5cb5b60e01b81526020816004816001600160a01b0386165afa801561041057610c36915f91610cd5575b506001600160a01b03163314611493565b610c3e61153e565b8115610c80576001600160a01b03191681175f556040519081527f497acaa34ac19c2a2a579ad43eca493b4fea820459e254e9383e7dda216b0f0490602090a1005b60405162461bcd60e51b815260206004820152602760248201527f416363657373436f6e74726f6c3a207a65726f2061646472657373206e6f7420604482015266185b1b1bddd95960ca1b6064820152608490fd5b610cf7915060203d602011610cfd575b610cef8183611453565b810190611474565b84610c25565b503d610ce5565b3461041b575f36600319011261041b576020600b5460c01c604051908152f35b3461041b575f36600319011261041b576020600f54604051908152f35b3461041b575f36600319011261041b575f54604051638da5cb5b60e01b81526020816004816001600160a01b0386165afa801561041057610d93915f91610e0257506001600160a01b03163314611493565b610d9b61153e565b60ff60a01b1916600160a01b175f556040513381527f62e78cea01bee320cd4e420270b5ea74000d11b0c9f74754ebdbfc544b05a25890602090a17f81990fd9a5c552b8e3677917d8a03c07678f0d2cb68f88b634aca2022e9bd19f6020604051338152a1005b610e1b915060203d602011610cfd57610cef8183611453565b83610c25565b3461041b575f36600319011261041b5760206001600160401b03600b5416604051908152f35b3461041b575f36600319011261041b576020601054604051908152f35b3461041b575f36600319011261041b576020601154604051908152f35b3461041b575f36600319011261041b57602063ffffffff60085460c01c16604051908152f35b3461041b575f36600319011261041b57600c54600d54600e54600f54601054601154604080519687526020870195909552938501929092526060840152608083015260a082015260c090f35b3461041b575f36600319011261041b57602060ff5f5460a01c166040519015158152f35b3461041b575f36600319011261041b576020600354604051908152f35b3461041b57608036600319011261041b57610f4d6113ba565b610f556113d0565b610f5d6113e6565b91610f666113fc565b5f54604051633f784de560e11b815233600482015291949190602090829060249082906001600160a01b03165afa801561041057610faa915f916110c257506114e3565b60646001600160401b03610fcb86610fc685610fc6898961151e565b61151e565b16036110b3576040519360808501918583106001600160401b0384111761109f5760409283526001600160401b039384168087528585166020808901829052838716868a018190529685166060998a0181905297861b67ffffffffffffffff60401b168317608094851b67ffffffffffffffff60801b161760c09590951b6001600160c01b0319169490941760015584519182529281019290925291810192909252928101919091527fa1e47e55cf3d1775387922da7bbe4c1d62fc43f2fcf01cac0f579545f2eb98b191819081016103dc565b634e487b7160e01b5f52604160045260245ffd5b636254931560e11b5f5260045ffd5b6110db915060203d602011610409576103fb8183611453565b866102c8565b3461041b575f36600319011261041b576020600554604051908152f35b3461041b575f36600319011261041b576020600a54604051908152f35b3461041b575f36600319011261041b575f54604051638da5cb5b60e01b81526020816004816001600160a01b0386165afa80156104105761116d915f91610e0257506001600160a01b03163314611493565b60ff8160a01c16156111da5760ff60a01b19165f556040513381527f5db9ee0a495bf2e6ff9c91a7834c1ba4fdd244a5e8aa4e537bd38aeae4b073aa90602090a17f5b65b0c1363b3003db9bcc5e1fd8805a6d6bf5bf6dc9d3431ee4494cd7d117666020604051338152a1005b638dfc202b60e01b5f5260045ffd5b3461041b575f36600319011261041b57600154604080516001600160401b03808416825283831c81166020830152608084811c9091169282019290925260c09290921c606083015290f35b3461041b575f36600319011261041b57600854604080516001600160401b03808416825283831c16602082015263ffffffff608084811c82169383019390935260a084811c8216606084015260c085811c9092169383019390935260e09390931c91810191909152f35b3461041b575f36600319011261041b576020600754604051908152f35b3461041b575f36600319011261041b57602060015460c01c604051908152f35b3461041b575f36600319011261041b575f546040516001600160a01b039091168152602090f35b3461041b575f36600319011261041b576020600454604051908152f35b3461041b575f36600319011261041b57600254600354600454600554600654600754604080519687526020870195909552938501929092526060840152608083015260a082015260c090f35b3461041b575f36600319011261041b5760206001600160401b03600b5460401c16604051908152f35b3461041b575f36600319011261041b576020906001600160401b03600b5460801c168152f35b600435906001600160401b038216820361041b57565b602435906001600160401b038216820361041b57565b604435906001600160401b038216820361041b57565b606435906001600160401b038216820361041b57565b60c090600319011261041b57600435906024359060443590606435906084359060a43590565b60c081019081106001600160401b0382111761109f57604052565b90601f801991011681019081106001600160401b0382111761109f57604052565b9081602091031261041b57516001600160a01b038116810361041b5790565b1561149a57565b60405162461bcd60e51b81526020600482015260096024820152682737ba1037bbb732b960b91b6044820152606490fd5b9081602091031261041b5751801515810361041b5790565b156114ea57565b60405162461bcd60e51b815260206004820152600c60248201526b4e6f7420656d706c6f79656560a01b6044820152606490fd5b906001600160401b03809116911601906001600160401b03821161067957565b60ff5f5460a01c1661154c57565b63d93c066560e01b5f5260045ffdfea264697066735822122092e6d33c53a9aa23eb4d578bea3d78bb546038cb8518b20970e0c340585c2b1f64736f6c634300081e0033",
					"opcodes": "PUSH2 0x260 PUSH1 0x40 MSTORE CALLVALUE PUSH2 0x728 JUMPI PUSH1 0x40 MLOAD PUSH2 0x240 DUP2 SWAP1 MSTORE PUSH2 0x1D1B SWAP1 CODESIZE DUP3 SWAP1 SUB SWAP1 PUSH1 0x1F NOT PUSH1 0x1F DUP4 ADD AND DUP2 ADD SWAP1 DUP2 LT PUSH1 0x1 PUSH1 0x1 PUSH1 0x40 SHL SUB DUP3 GT OR PUSH2 0x705 JUMPI PUSH2 0x3A0 SWAP3 DUP3 SWAP2 PUSH1 0x40 MSTORE PUSH2 0x240 MLOAD CODECOPY PUSH2 0x240 MLOAD SWAP1 DUP2 ADD SUB SLT PUSH2 0x728 JUMPI PUSH2 0x5F PUSH2 0x240 MLOAD PUSH2 0x74B JUMP JUMPDEST PUSH1 0xE0 MSTORE PUSH2 0x71 PUSH1 0x20 PUSH2 0x240 MLOAD ADD PUSH2 0x74B JUMP JUMPDEST PUSH2 0x80 PUSH1 0x40 PUSH2 0x240 MLOAD ADD PUSH2 0x74B JUMP JUMPDEST PUSH2 0x8F PUSH1 0x60 PUSH2 0x240 MLOAD ADD PUSH2 0x74B JUMP JUMPDEST PUSH1 0x80 PUSH2 0x240 MLOAD ADD MLOAD PUSH1 0xA0 PUSH2 0x240 MLOAD ADD MLOAD PUSH1 0xC0 PUSH2 0x240 MLOAD ADD MLOAD PUSH1 0xE0 PUSH2 0x240 MLOAD ADD MLOAD PUSH2 0x100 PUSH2 0x240 MLOAD ADD MLOAD PUSH2 0x120 PUSH2 0x240 MLOAD ADD MLOAD SWAP2 PUSH2 0xD2 PUSH2 0x140 PUSH2 0x240 MLOAD ADD PUSH2 0x74B JUMP JUMPDEST SWAP4 PUSH2 0xE3 PUSH2 0x160 PUSH2 0x240 MLOAD ADD PUSH2 0x74B JUMP JUMPDEST SWAP6 PUSH2 0xF4 PUSH2 0x180 PUSH2 0x240 MLOAD ADD PUSH2 0x75F JUMP JUMPDEST SWAP8 PUSH2 0x105 PUSH2 0x1A0 PUSH2 0x240 MLOAD ADD PUSH2 0x75F JUMP JUMPDEST SWAP10 PUSH2 0x116 PUSH2 0x1C0 PUSH2 0x240 MLOAD ADD PUSH2 0x75F JUMP JUMPDEST SWAP12 PUSH2 0x127 PUSH2 0x1E0 PUSH2 0x240 MLOAD ADD PUSH2 0x75F JUMP JUMPDEST SWAP14 PUSH2 0x200 PUSH2 0x240 MLOAD ADD MLOAD PUSH1 0x80 MSTORE PUSH2 0x220 PUSH2 0x240 MLOAD ADD MLOAD PUSH2 0x220 MSTORE PUSH2 0x14F PUSH2 0x240 DUP1 MLOAD ADD PUSH2 0x74B JUMP JUMPDEST PUSH2 0x200 MSTORE PUSH2 0x163 PUSH2 0x260 PUSH2 0x240 MLOAD ADD PUSH2 0x74B JUMP JUMPDEST PUSH2 0x1E0 MSTORE PUSH2 0x177 PUSH2 0x280 PUSH2 0x240 MLOAD ADD PUSH2 0x74B JUMP JUMPDEST PUSH2 0x1C0 MSTORE PUSH2 0x18B PUSH2 0x2A0 PUSH2 0x240 MLOAD ADD PUSH2 0x74B JUMP JUMPDEST PUSH2 0x1A0 MSTORE PUSH2 0x240 MLOAD PUSH2 0x2C0 DUP2 ADD MLOAD PUSH2 0x180 MSTORE PUSH2 0x2E0 DUP2 ADD MLOAD PUSH2 0x160 MSTORE PUSH2 0x300 DUP2 ADD MLOAD PUSH2 0x140 MSTORE PUSH2 0x320 DUP2 ADD MLOAD PUSH2 0x120 MSTORE PUSH2 0x340 DUP2 ADD MLOAD PUSH2 0x100 MSTORE PUSH2 0x360 DUP2 ADD MLOAD PUSH1 0xC0 MSTORE PUSH2 0x380 ADD MLOAD PUSH1 0xA0 DUP2 SWAP1 MSTORE PUSH1 0x1 PUSH1 0x1 PUSH1 0xA0 SHL SUB DUP2 AND SWAP1 SUB PUSH2 0x728 JUMPI PUSH1 0x64 PUSH1 0x1 DUP1 PUSH1 0x40 SHL SUB PUSH2 0x20A DUP6 PUSH2 0x205 DUP7 PUSH2 0x205 DUP8 PUSH1 0xE0 MLOAD PUSH2 0x770 JUMP JUMPDEST PUSH2 0x770 JUMP JUMPDEST AND SUB PUSH2 0x719 JUMPI PUSH1 0x40 MLOAD PUSH1 0x80 DUP2 ADD PUSH1 0x1 PUSH1 0x1 PUSH1 0x40 SHL SUB DUP2 GT DUP3 DUP3 LT OR PUSH2 0x705 JUMPI PUSH1 0x40 SWAP1 DUP2 MSTORE PUSH1 0xE0 MLOAD PUSH1 0x1 PUSH1 0x1 PUSH1 0x40 SHL SUB SWAP1 DUP2 AND DUP1 DUP5 MSTORE DUP5 DUP3 AND PUSH1 0x20 DUP6 ADD MSTORE DUP6 DUP3 AND DUP5 DUP5 ADD MSTORE SWAP1 DUP7 AND PUSH1 0x60 SWAP1 SWAP4 ADD SWAP3 SWAP1 SWAP3 MSTORE SWAP2 SWAP1 SWAP2 SHL PUSH16 0xFFFFFFFFFFFFFFFF0000000000000000 AND OR PUSH1 0x80 SWAP2 SWAP1 SWAP2 SHL PUSH1 0x1 PUSH1 0x80 SHL PUSH1 0x1 PUSH1 0xC0 SHL SUB AND OR PUSH1 0xC0 SWAP2 SWAP1 SWAP2 SHL PUSH1 0x1 PUSH1 0x1 PUSH1 0xC0 SHL SUB NOT AND OR PUSH1 0x1 SSTORE PUSH8 0xDE0B6B3A7640000 DUP2 DUP2 MUL SWAP2 DUP1 ISZERO SWAP1 DUP4 DIV SWAP1 SWAP2 EQ OR ISZERO PUSH2 0x6F1 JUMPI PUSH8 0xDE0B6B3A7640000 DUP3 MUL SWAP2 DUP1 DUP4 DIV PUSH8 0xDE0B6B3A7640000 EQ SWAP1 ISZERO OR ISZERO PUSH2 0x6F1 JUMPI PUSH8 0xDE0B6B3A7640000 DUP4 MUL SWAP3 DUP1 DUP5 DIV PUSH8 0xDE0B6B3A7640000 EQ SWAP1 ISZERO OR ISZERO PUSH2 0x6F1 JUMPI PUSH8 0xDE0B6B3A7640000 DUP5 MUL SWAP4 DUP1 DUP6 DIV PUSH8 0xDE0B6B3A7640000 EQ SWAP1 ISZERO OR ISZERO PUSH2 0x6F1 JUMPI PUSH8 0xDE0B6B3A7640000 DUP6 MUL SWAP5 DUP1 DUP7 DIV PUSH8 0xDE0B6B3A7640000 EQ SWAP1 ISZERO OR ISZERO PUSH2 0x6F1 JUMPI PUSH8 0xDE0B6B3A7640000 DUP7 MUL SWAP6 DUP1 DUP8 DIV PUSH8 0xDE0B6B3A7640000 EQ SWAP1 ISZERO OR ISZERO PUSH2 0x6F1 JUMPI PUSH2 0x360 PUSH2 0x72C JUMP JUMPDEST DUP2 DUP2 MSTORE PUSH1 0x20 DUP2 ADD DUP4 SWAP1 MSTORE PUSH1 0x40 DUP2 ADD DUP5 SWAP1 MSTORE PUSH1 0x60 DUP2 ADD DUP6 SWAP1 MSTORE PUSH1 0x80 DUP2 ADD DUP7 SWAP1 MSTORE PUSH1 0xA0 ADD DUP7 SWAP1 MSTORE PUSH1 0x2 SSTORE PUSH1 0x3 SSTORE PUSH1 0x4 SSTORE PUSH1 0x5 SSTORE PUSH1 0x6 SSTORE PUSH1 0x7 SSTORE PUSH2 0x39F PUSH2 0x72C JUMP JUMPDEST PUSH1 0x1 PUSH1 0x1 PUSH1 0x40 SHL SUB SWAP2 DUP3 AND DUP1 DUP3 MSTORE SWAP2 DUP4 AND PUSH1 0x20 DUP3 ADD MSTORE PUSH4 0xFFFFFFFF DUP5 DUP2 AND PUSH1 0x40 DUP1 DUP5 ADD SWAP2 SWAP1 SWAP2 MSTORE DUP7 DUP3 AND PUSH1 0x60 DUP5 ADD MSTORE DUP8 DUP3 AND PUSH1 0x80 DUP1 DUP6 ADD SWAP2 SWAP1 SWAP2 MSTORE SWAP2 DUP10 AND PUSH1 0xA0 SWAP4 DUP5 ADD MSTORE PUSH1 0xC0 SWAP8 SWAP1 SWAP8 SHL PUSH4 0xFFFFFFFF PUSH1 0xC0 SHL AND SWAP6 SWAP1 SWAP2 SHL PUSH4 0xFFFFFFFF PUSH1 0xA0 SHL AND SWAP3 SWAP1 SWAP6 SHL PUSH16 0xFFFFFFFFFFFFFFFF0000000000000000 AND OR SWAP2 DUP5 SHL PUSH4 0xFFFFFFFF PUSH1 0x80 SHL AND SWAP2 SWAP1 SWAP2 OR OR OR PUSH1 0xE0 SWAP3 SWAP1 SWAP3 SHL PUSH1 0x1 PUSH1 0x1 PUSH1 0xE0 SHL SUB NOT AND SWAP2 SWAP1 SWAP2 OR PUSH1 0x8 SSTORE MLOAD PUSH8 0xDE0B6B3A7640000 DUP2 DUP2 MUL SWAP2 DUP1 ISZERO SWAP1 DUP4 DIV SWAP1 SWAP2 EQ OR ISZERO PUSH2 0x6F1 JUMPI PUSH8 0xDE0B6B3A7640000 PUSH2 0x220 MLOAD MUL PUSH2 0x220 MLOAD DUP2 DIV PUSH8 0xDE0B6B3A7640000 EQ PUSH2 0x220 MLOAD ISZERO OR ISZERO PUSH2 0x6F1 JUMPI PUSH2 0x48C PUSH2 0x72C JUMP JUMPDEST DUP3 DUP2 MSTORE PUSH1 0x20 DUP2 ADD DUP3 SWAP1 MSTORE PUSH2 0x200 MLOAD PUSH1 0x1 PUSH1 0x1 PUSH1 0x40 SHL SUB SWAP1 DUP2 AND PUSH1 0x40 DUP1 DUP5 ADD DUP3 SWAP1 MSTORE PUSH2 0x1E0 DUP1 MLOAD DUP5 AND PUSH1 0x60 DUP7 ADD MSTORE PUSH2 0x1C0 DUP1 MLOAD DUP6 AND PUSH1 0x80 DUP1 DUP9 ADD SWAP2 SWAP1 SWAP2 MSTORE PUSH2 0x1A0 DUP1 MLOAD SWAP1 SWAP7 AND PUSH1 0xA0 SWAP1 SWAP8 ADD SWAP7 SWAP1 SWAP7 MSTORE PUSH1 0x9 SWAP8 SWAP1 SWAP8 SSTORE PUSH1 0xA SWAP6 SWAP1 SWAP6 SSTORE SWAP4 MLOAD SWAP5 MLOAD SWAP2 MLOAD SWAP5 SWAP1 SWAP4 SHL PUSH16 0xFFFFFFFFFFFFFFFF0000000000000000 AND SWAP1 SWAP3 OR SWAP2 SWAP1 SHL PUSH1 0x1 PUSH1 0x80 SHL PUSH1 0x1 PUSH1 0xC0 SHL SUB AND OR PUSH1 0xC0 SWAP2 SWAP1 SWAP2 SHL PUSH1 0x1 PUSH1 0x1 PUSH1 0xC0 SHL SUB NOT AND OR PUSH1 0xB SSTORE PUSH2 0x180 MLOAD PUSH8 0xDE0B6B3A7640000 DUP2 DUP2 MUL SWAP2 DUP1 ISZERO SWAP1 DUP4 DIV SWAP1 SWAP2 EQ OR ISZERO PUSH2 0x6F1 JUMPI PUSH8 0xDE0B6B3A7640000 PUSH2 0x160 MLOAD MUL PUSH2 0x160 MLOAD DUP2 DIV PUSH8 0xDE0B6B3A7640000 EQ PUSH2 0x160 MLOAD ISZERO OR ISZERO PUSH2 0x6F1 JUMPI PUSH8 0xDE0B6B3A7640000 PUSH2 0x140 MLOAD MUL PUSH2 0x140 MLOAD DUP2 DIV PUSH8 0xDE0B6B3A7640000 EQ PUSH2 0x140 MLOAD ISZERO OR ISZERO PUSH2 0x6F1 JUMPI PUSH8 0xDE0B6B3A7640000 PUSH2 0x120 MLOAD MUL SWAP1 PUSH2 0x120 MLOAD DUP3 DIV PUSH8 0xDE0B6B3A7640000 EQ PUSH2 0x120 MLOAD ISZERO OR ISZERO PUSH2 0x6F1 JUMPI PUSH8 0xDE0B6B3A7640000 PUSH2 0x100 MLOAD MUL SWAP3 PUSH2 0x100 MLOAD DUP5 DIV PUSH8 0xDE0B6B3A7640000 EQ PUSH2 0x100 MLOAD ISZERO OR ISZERO PUSH2 0x6F1 JUMPI PUSH8 0xDE0B6B3A7640000 PUSH1 0xC0 MLOAD MUL SWAP5 PUSH1 0xC0 MLOAD DUP7 DIV PUSH8 0xDE0B6B3A7640000 EQ PUSH1 0xC0 MLOAD ISZERO OR ISZERO PUSH2 0x6F1 JUMPI PUSH2 0x61D PUSH2 0x72C JUMP JUMPDEST SWAP1 DUP2 MSTORE PUSH1 0x20 DUP2 ADD SWAP2 DUP3 MSTORE PUSH1 0x40 DUP2 ADD SWAP3 DUP4 MSTORE PUSH1 0x60 DUP2 ADD SWAP4 DUP5 MSTORE PUSH1 0x80 DUP2 ADD SWAP5 DUP6 MSTORE PUSH1 0xA0 DUP2 ADD SWAP6 DUP7 MSTORE MLOAD PUSH1 0xC SSTORE MLOAD PUSH1 0xD SSTORE MLOAD PUSH1 0xE SSTORE MLOAD PUSH1 0xF SSTORE MLOAD PUSH1 0x10 SSTORE MLOAD PUSH1 0x11 SSTORE PUSH1 0x1 DUP1 PUSH1 0xA0 SHL SUB PUSH1 0xA0 MLOAD AND ISZERO PUSH2 0x69C JUMPI PUSH1 0xA0 MLOAD PUSH0 DUP1 SLOAD PUSH1 0x1 PUSH1 0x1 PUSH1 0xA0 SHL SUB NOT AND PUSH1 0x1 PUSH1 0x1 PUSH1 0xA0 SHL SUB SWAP3 SWAP1 SWAP3 AND SWAP2 SWAP1 SWAP2 OR SWAP1 SSTORE PUSH1 0x40 MLOAD PUSH2 0x1591 SWAP1 DUP2 PUSH2 0x78A DUP3 CODECOPY RETURN JUMPDEST PUSH1 0x40 MLOAD PUSH3 0x461BCD PUSH1 0xE5 SHL DUP2 MSTORE PUSH1 0x20 PUSH1 0x4 DUP3 ADD MSTORE PUSH1 0x27 PUSH1 0x24 DUP3 ADD MSTORE PUSH32 0x416363657373436F6E74726F6C3A207A65726F2061646472657373206E6F7420 PUSH1 0x44 DUP3 ADD MSTORE PUSH7 0x185B1B1BDDD959 PUSH1 0xCA SHL PUSH1 0x64 DUP3 ADD MSTORE PUSH1 0x84 SWAP1 REVERT JUMPDEST PUSH4 0x4E487B71 PUSH1 0xE0 SHL PUSH0 MSTORE PUSH1 0x11 PUSH1 0x4 MSTORE PUSH1 0x24 PUSH0 REVERT JUMPDEST PUSH4 0x4E487B71 PUSH1 0xE0 SHL PUSH0 MSTORE PUSH1 0x41 PUSH1 0x4 MSTORE PUSH1 0x24 PUSH0 REVERT JUMPDEST PUSH4 0x62549315 PUSH1 0xE1 SHL PUSH0 MSTORE PUSH1 0x4 PUSH0 REVERT JUMPDEST PUSH0 DUP1 REVERT JUMPDEST PUSH1 0x40 MLOAD SWAP1 PUSH1 0xC0 DUP3 ADD PUSH1 0x1 PUSH1 0x1 PUSH1 0x40 SHL SUB DUP2 GT DUP4 DUP3 LT OR PUSH2 0x705 JUMPI PUSH1 0x40 MSTORE JUMP JUMPDEST MLOAD SWAP1 PUSH1 0x1 PUSH1 0x1 PUSH1 0x40 SHL SUB DUP3 AND DUP3 SUB PUSH2 0x728 JUMPI JUMP JUMPDEST MLOAD SWAP1 PUSH4 0xFFFFFFFF DUP3 AND DUP3 SUB PUSH2 0x728 JUMPI JUMP JUMPDEST PUSH1 0x1 PUSH1 0x1 PUSH1 0x40 SHL SUB SWAP2 DUP3 AND SWAP1 DUP3 AND ADD SWAP2 SWAP1 DUP3 GT PUSH2 0x6F1 JUMPI JUMP INVALID PUSH1 0x80 DUP1 PUSH1 0x40 MSTORE PUSH1 0x4 CALLDATASIZE LT ISZERO PUSH2 0x12 JUMPI PUSH0 DUP1 REVERT JUMPDEST PUSH0 CALLDATALOAD PUSH1 0xE0 SHR SWAP1 DUP2 PUSH4 0x68F49D8 EQ PUSH2 0x1394 JUMPI POP DUP1 PUSH4 0xB7DADFF EQ PUSH2 0x136B JUMPI DUP1 PUSH4 0xFCAAF3C EQ PUSH2 0x131F JUMPI DUP1 PUSH4 0x12C23EB1 EQ PUSH2 0x1302 JUMPI DUP1 PUSH4 0x13007D55 EQ PUSH2 0x12DB JUMPI DUP1 PUSH4 0x258F59FC EQ PUSH2 0x12BB JUMPI DUP1 PUSH4 0x25AC29E1 EQ PUSH2 0x129E JUMPI DUP1 PUSH4 0x2A5C4E5C EQ PUSH2 0x1234 JUMPI DUP1 PUSH4 0x2AEDC618 EQ PUSH2 0x11E9 JUMPI DUP1 PUSH4 0x3F4BA83A EQ PUSH2 0x111B JUMPI DUP1 PUSH4 0x42A69E2A EQ PUSH2 0x10FE JUMPI DUP1 PUSH4 0x47963280 EQ PUSH2 0x10E1 JUMPI DUP1 PUSH4 0x554FAEF8 EQ PUSH2 0xF34 JUMPI DUP1 PUSH4 0x55AFAF64 EQ PUSH2 0xF17 JUMPI DUP1 PUSH4 0x5C975ABB EQ PUSH2 0xEF3 JUMPI DUP1 PUSH4 0x5E8C4C6B EQ PUSH2 0xEA7 JUMPI DUP1 PUSH4 0x770CC99A EQ PUSH2 0xE81 JUMPI DUP1 PUSH4 0x7D8D6D05 EQ PUSH2 0xE64 JUMPI DUP1 PUSH4 0x813B79C1 EQ PUSH2 0xE47 JUMPI DUP1 PUSH4 0x83261200 EQ PUSH2 0xE21 JUMPI DUP1 PUSH4 0x8456CB59 EQ PUSH2 0xD41 JUMPI DUP1 PUSH4 0x84AFA48B EQ PUSH2 0xD24 JUMPI DUP1 PUSH4 0x88764082 EQ PUSH2 0xD04 JUMPI DUP1 PUSH4 0x9387730C EQ PUSH2 0xBCD JUMPI DUP1 PUSH4 0x94FB86E5 EQ PUSH2 0xBB0 JUMPI DUP1 PUSH4 0x99206B0B EQ PUSH2 0xB93 JUMPI DUP1 PUSH4 0x99B42ED0 EQ PUSH2 0xB35 JUMPI DUP1 PUSH4 0xA0D01245 EQ PUSH2 0xB0F JUMPI DUP1 PUSH4 0xA376FF7D EQ PUSH2 0xAF2 JUMPI DUP1 PUSH4 0xB30E0BE3 EQ PUSH2 0xACC JUMPI DUP1 PUSH4 0xB38BE7E3 EQ PUSH2 0x97F JUMPI DUP1 PUSH4 0xBAA20A39 EQ PUSH2 0x962 JUMPI DUP1 PUSH4 0xC6DE9839 EQ PUSH2 0x939 JUMPI DUP1 PUSH4 0xC7D3F62F EQ PUSH2 0x913 JUMPI DUP1 PUSH4 0xCA218D7D EQ PUSH2 0x8F6 JUMPI DUP1 PUSH4 0xCB101E64 EQ PUSH2 0x729 JUMPI DUP1 PUSH4 0xCF95838B EQ PUSH2 0x703 JUMPI DUP1 PUSH4 0xD164B1D0 EQ PUSH2 0x6E3 JUMPI DUP1 PUSH4 0xE1A256A5 EQ PUSH2 0x48E JUMPI DUP1 PUSH4 0xE1FFCB46 EQ PUSH2 0x471 JUMPI DUP1 PUSH4 0xE44374F2 EQ PUSH2 0x448 JUMPI DUP1 PUSH4 0xEF02C5AE EQ PUSH2 0x41F JUMPI PUSH4 0xF012E4E3 EQ PUSH2 0x1F5 JUMPI PUSH0 DUP1 REVERT JUMPDEST CALLVALUE PUSH2 0x41B JUMPI PUSH1 0xC0 CALLDATASIZE PUSH1 0x3 NOT ADD SLT PUSH2 0x41B JUMPI PUSH2 0x20E PUSH2 0x13BA JUMP JUMPDEST PUSH2 0x216 PUSH2 0x13D0 JUMP JUMPDEST PUSH1 0x44 CALLDATALOAD SWAP2 PUSH4 0xFFFFFFFF DUP4 AND DUP1 DUP5 SUB PUSH2 0x41B JUMPI PUSH1 0x64 CALLDATALOAD SWAP1 PUSH4 0xFFFFFFFF DUP3 AND SWAP2 DUP3 DUP2 SUB PUSH2 0x41B JUMPI PUSH1 0x84 CALLDATALOAD SWAP1 PUSH4 0xFFFFFFFF DUP3 AND SWAP7 DUP8 DUP4 SUB PUSH2 0x41B JUMPI PUSH1 0xA4 CALLDATALOAD SWAP4 PUSH4 0xFFFFFFFF DUP6 AND DUP1 DUP7 SUB PUSH2 0x41B JUMPI PUSH0 SLOAD PUSH1 0x40 MLOAD PUSH4 0x3F784DE5 PUSH1 0xE1 SHL DUP2 MSTORE CALLER PUSH1 0x4 DUP3 ADD MSTORE SWAP1 PUSH1 0x20 SWAP1 DUP3 SWAP1 PUSH1 0x24 SWAP1 DUP3 SWAP1 PUSH1 0x1 PUSH1 0x1 PUSH1 0xA0 SHL SUB AND GAS STATICCALL DUP1 ISZERO PUSH2 0x410 JUMPI PUSH32 0x235E16625910A870C351BBE2F4458A6643B94FC25851129FE8F9A0A86D852DB5 SWAP12 PUSH2 0x3DC SWAP10 DUP13 SWAP6 PUSH2 0x2CE DUP14 SWAP5 PUSH1 0xA0 SWAP7 PUSH0 SWAP2 PUSH2 0x3E1 JUMPI JUMPDEST POP PUSH2 0x14E3 JUMP JUMPDEST PUSH1 0x1 PUSH1 0x1 PUSH1 0x40 SHL SUB DUP1 PUSH1 0x40 MLOAD SWAP6 PUSH2 0x2E4 DUP8 PUSH2 0x1438 JUMP JUMPDEST AND SWAP8 DUP9 DUP7 MSTORE AND PUSH1 0x20 DUP6 ADD MSTORE PUSH1 0x40 DUP5 ADD MSTORE PUSH1 0x60 DUP4 ADD MSTORE PUSH1 0x80 DUP3 ADD MSTORE ADD MSTORE PUSH1 0x1 PUSH1 0x1 PUSH1 0x40 SHL SUB NOT PUSH1 0x8 SLOAD AND OR PUSH1 0x8 SSTORE PUSH1 0x8 SLOAD PUSH8 0xFFFFFFFFFFFFFFFF PUSH1 0x40 SHL DUP1 DUP10 PUSH1 0x40 SHL AND AND SWAP1 PUSH8 0xFFFFFFFFFFFFFFFF PUSH1 0x40 SHL NOT AND OR PUSH1 0x8 SSTORE PUSH1 0x8 SLOAD PUSH4 0xFFFFFFFF PUSH1 0xE0 SHL DUP6 PUSH1 0xE0 SHL AND SWAP1 PUSH1 0x1 DUP1 PUSH1 0xE0 SHL SUB SWAP1 PUSH4 0xFFFFFFFF PUSH1 0x80 SHL DUP5 PUSH1 0x80 SHL AND SWAP1 PUSH12 0xFFFFFFFFFFFFFFFFFFFFFFFF PUSH1 0x80 SHL NOT AND OR AND PUSH4 0xFFFFFFFF PUSH1 0xA0 SHL DUP5 PUSH1 0xA0 SHL AND OR PUSH4 0xFFFFFFFF PUSH1 0xC0 SHL DUP6 PUSH1 0xC0 SHL AND OR OR PUSH1 0x8 SSTORE PUSH1 0x40 MLOAD SWAP7 DUP8 SWAP7 DUP8 SWAP5 PUSH4 0xFFFFFFFF PUSH1 0xA0 SWAP6 DUP2 DUP1 SWAP7 PUSH1 0x1 PUSH1 0x1 PUSH1 0x40 SHL SUB DUP3 SWAP7 SWAP13 SWAP12 SWAP8 DUP2 PUSH1 0xC0 DUP14 ADD SWAP15 AND DUP13 MSTORE AND PUSH1 0x20 DUP12 ADD MSTORE AND PUSH1 0x40 DUP10 ADD MSTORE AND PUSH1 0x60 DUP8 ADD MSTORE AND PUSH1 0x80 DUP6 ADD MSTORE AND SWAP2 ADD MSTORE JUMP JUMPDEST SUB SWAP1 LOG1 STOP JUMPDEST PUSH2 0x403 SWAP2 POP PUSH1 0x20 RETURNDATASIZE PUSH1 0x20 GT PUSH2 0x409 JUMPI JUMPDEST PUSH2 0x3FB DUP2 DUP4 PUSH2 0x1453 JUMP JUMPDEST DUP2 ADD SWAP1 PUSH2 0x14CB JUMP JUMPDEST PUSH0 PUSH2 0x2C8 JUMP JUMPDEST POP RETURNDATASIZE PUSH2 0x3F1 JUMP JUMPDEST PUSH1 0x40 MLOAD RETURNDATASIZE PUSH0 DUP3 RETURNDATACOPY RETURNDATASIZE SWAP1 REVERT JUMPDEST PUSH0 DUP1 REVERT JUMPDEST CALLVALUE PUSH2 0x41B JUMPI PUSH0 CALLDATASIZE PUSH1 0x3 NOT ADD SLT PUSH2 0x41B JUMPI PUSH1 0x20 PUSH1 0x1 PUSH1 0x1 PUSH1 0x40 SHL SUB PUSH1 0x1 SLOAD PUSH1 0x80 SHR AND PUSH1 0x40 MLOAD SWAP1 DUP2 MSTORE RETURN JUMPDEST CALLVALUE PUSH2 0x41B JUMPI PUSH0 CALLDATASIZE PUSH1 0x3 NOT ADD SLT PUSH2 0x41B JUMPI PUSH1 0x20 PUSH1 0x1 PUSH1 0x1 PUSH1 0x40 SHL SUB PUSH1 0x8 SLOAD PUSH1 0x40 SHR AND PUSH1 0x40 MLOAD SWAP1 DUP2 MSTORE RETURN JUMPDEST CALLVALUE PUSH2 0x41B JUMPI PUSH0 CALLDATASIZE PUSH1 0x3 NOT ADD SLT PUSH2 0x41B JUMPI PUSH1 0x20 PUSH1 0xD SLOAD PUSH1 0x40 MLOAD SWAP1 DUP2 MSTORE RETURN JUMPDEST CALLVALUE PUSH2 0x41B JUMPI PUSH2 0x49C CALLDATASIZE PUSH2 0x1412 JUMP JUMPDEST PUSH0 SLOAD PUSH1 0x40 MLOAD PUSH4 0x3F784DE5 PUSH1 0xE1 SHL DUP2 MSTORE CALLER PUSH1 0x4 DUP3 ADD MSTORE SWAP4 SWAP7 SWAP5 SWAP4 SWAP2 SWAP3 SWAP2 SWAP1 PUSH1 0x20 SWAP1 DUP3 SWAP1 PUSH1 0x24 SWAP1 DUP3 SWAP1 PUSH1 0x1 PUSH1 0x1 PUSH1 0xA0 SHL SUB AND GAS STATICCALL DUP1 ISZERO PUSH2 0x410 JUMPI PUSH2 0x4E4 SWAP2 PUSH0 SWAP2 PUSH2 0x6C4 JUMPI POP PUSH2 0x14E3 JUMP JUMPDEST DUP5 DUP5 LT DUP1 ISZERO SWAP1 PUSH2 0x6BA JUMPI JUMPDEST DUP1 ISZERO PUSH2 0x6B0 JUMPI JUMPDEST DUP1 ISZERO PUSH2 0x6A6 JUMPI JUMPDEST DUP1 ISZERO PUSH2 0x69C JUMPI JUMPDEST PUSH2 0x68D JUMPI PUSH1 0x9 SLOAD DUP3 GT PUSH2 0x68D JUMPI PUSH1 0x40 MLOAD PUSH2 0x51D DUP2 PUSH2 0x1438 JUMP JUMPDEST DUP5 DUP2 MSTORE PUSH1 0x20 DUP2 ADD DUP7 DUP2 MSTORE PUSH1 0x40 DUP3 ADD DUP6 DUP2 MSTORE PUSH1 0x60 DUP4 ADD SWAP1 DUP10 DUP3 MSTORE PUSH1 0x80 DUP5 ADD SWAP3 DUP6 DUP5 MSTORE PUSH1 0xA0 DUP6 ADD SWAP5 DUP8 DUP7 MSTORE MLOAD PUSH1 0x2 SSTORE MLOAD PUSH1 0x3 SSTORE MLOAD PUSH1 0x4 SSTORE MLOAD PUSH1 0x5 SSTORE MLOAD PUSH1 0x6 SSTORE MLOAD PUSH1 0x7 SSTORE PUSH8 0xDE0B6B3A7640000 DUP5 MUL SWAP4 DUP1 DUP6 DIV PUSH8 0xDE0B6B3A7640000 EQ SWAP1 ISZERO OR ISZERO PUSH2 0x679 JUMPI PUSH8 0xDE0B6B3A7640000 DUP6 MUL SWAP5 DUP1 DUP7 DIV PUSH8 0xDE0B6B3A7640000 EQ SWAP1 ISZERO OR ISZERO PUSH2 0x679 JUMPI PUSH8 0xDE0B6B3A7640000 DUP4 MUL SWAP3 DUP1 DUP5 DIV PUSH8 0xDE0B6B3A7640000 EQ SWAP1 ISZERO OR ISZERO PUSH2 0x679 JUMPI PUSH8 0xDE0B6B3A7640000 DUP7 MUL SWAP6 DUP1 DUP8 DIV PUSH8 0xDE0B6B3A7640000 EQ SWAP1 ISZERO OR ISZERO PUSH2 0x679 JUMPI PUSH8 0xDE0B6B3A7640000 DUP2 MUL SWAP1 DUP1 DUP3 DIV PUSH8 0xDE0B6B3A7640000 EQ SWAP1 ISZERO OR ISZERO PUSH2 0x679 JUMPI PUSH8 0xDE0B6B3A7640000 DUP3 MUL SWAP2 DUP1 DUP4 DIV PUSH8 0xDE0B6B3A7640000 EQ SWAP1 ISZERO OR ISZERO PUSH2 0x679 JUMPI PUSH32 0xEFD16587D517B1989B24B29F937651E8CD66A37DF6ADE91A30E66500DEC41037 SWAP6 PUSH2 0x3DC SWAP4 PUSH1 0x40 MLOAD SWAP7 DUP8 SWAP7 DUP8 SWAP3 PUSH1 0xA0 SWAP5 SWAP2 SWAP8 SWAP7 SWAP6 SWAP3 PUSH1 0xC0 DUP6 ADD SWAP9 DUP6 MSTORE PUSH1 0x20 DUP6 ADD MSTORE PUSH1 0x40 DUP5 ADD MSTORE PUSH1 0x60 DUP4 ADD MSTORE PUSH1 0x80 DUP3 ADD MSTORE ADD MSTORE JUMP JUMPDEST PUSH4 0x4E487B71 PUSH1 0xE0 SHL PUSH0 MSTORE PUSH1 0x11 PUSH1 0x4 MSTORE PUSH1 0x24 PUSH0 REVERT JUMPDEST PUSH4 0x1C6D3B15 PUSH1 0xE0 SHL PUSH0 MSTORE PUSH1 0x4 PUSH0 REVERT JUMPDEST POP DUP2 DUP2 LT ISZERO PUSH2 0x504 JUMP JUMPDEST POP DUP1 DUP7 LT ISZERO PUSH2 0x4FD JUMP JUMPDEST POP DUP6 DUP4 LT ISZERO PUSH2 0x4F6 JUMP JUMPDEST POP DUP3 DUP6 LT ISZERO PUSH2 0x4EF JUMP JUMPDEST PUSH2 0x6DD SWAP2 POP PUSH1 0x20 RETURNDATASIZE PUSH1 0x20 GT PUSH2 0x409 JUMPI PUSH2 0x3FB DUP2 DUP4 PUSH2 0x1453 JUMP JUMPDEST DUP9 PUSH2 0x2C8 JUMP JUMPDEST CALLVALUE PUSH2 0x41B JUMPI PUSH0 CALLDATASIZE PUSH1 0x3 NOT ADD SLT PUSH2 0x41B JUMPI PUSH1 0x20 PUSH1 0x8 SLOAD PUSH1 0xE0 SHR PUSH1 0x40 MLOAD SWAP1 DUP2 MSTORE RETURN JUMPDEST CALLVALUE PUSH2 0x41B JUMPI PUSH0 CALLDATASIZE PUSH1 0x3 NOT ADD SLT PUSH2 0x41B JUMPI PUSH1 0x20 PUSH1 0x1 PUSH1 0x1 PUSH1 0x40 SHL SUB PUSH1 0x8 SLOAD AND PUSH1 0x40 MLOAD SWAP1 DUP2 MSTORE RETURN JUMPDEST CALLVALUE PUSH2 0x41B JUMPI PUSH1 0xC0 CALLDATASIZE PUSH1 0x3 NOT ADD SLT PUSH2 0x41B JUMPI PUSH1 0x4 CALLDATALOAD PUSH1 0x24 CALLDATALOAD PUSH2 0x748 PUSH2 0x13E6 JUMP JUMPDEST SWAP2 PUSH2 0x751 PUSH2 0x13FC JUMP JUMPDEST PUSH1 0x84 CALLDATALOAD SWAP1 PUSH1 0x1 PUSH1 0x1 PUSH1 0x40 SHL SUB DUP3 AND SWAP2 DUP3 DUP2 SUB PUSH2 0x41B JUMPI PUSH1 0xA4 CALLDATALOAD SWAP2 PUSH1 0x1 PUSH1 0x1 PUSH1 0x40 SHL SUB DUP4 AND SWAP7 DUP8 DUP5 SUB PUSH2 0x41B JUMPI PUSH0 SLOAD PUSH1 0x40 MLOAD PUSH4 0x3F784DE5 PUSH1 0xE1 SHL DUP2 MSTORE CALLER PUSH1 0x4 DUP3 ADD MSTORE SWAP1 PUSH1 0x20 SWAP1 DUP3 SWAP1 PUSH1 0x24 SWAP1 DUP3 SWAP1 PUSH1 0x1 PUSH1 0x1 PUSH1 0xA0 SHL SUB AND GAS STATICCALL DUP1 ISZERO PUSH2 0x410 JUMPI PUSH2 0x7BE SWAP2 PUSH0 SWAP2 PUSH2 0x8D7 JUMPI POP PUSH2 0x14E3 JUMP JUMPDEST PUSH1 0x64 DUP6 GT PUSH2 0x8C8 JUMPI PUSH1 0x1 PUSH1 0x1 PUSH1 0x40 SHL SUB DUP3 AND PUSH1 0x64 DUP2 GT PUSH2 0x8B9 JUMPI PUSH32 0x3435D61B755652F7E13587F317C91F07DBB9962EDBAC881911390791EBAF5DC1 SWAP9 PUSH1 0xA0 PUSH2 0x3DC SWAP8 PUSH1 0x40 MLOAD SWAP1 PUSH2 0x80D DUP3 PUSH2 0x1438 JUMP JUMPDEST DUP11 DUP3 MSTORE PUSH1 0x20 DUP1 DUP4 ADD DUP14 SWAP1 MSTORE PUSH1 0x1 PUSH1 0x1 PUSH1 0x40 SHL SUB SWAP7 DUP8 AND PUSH1 0x40 DUP1 DUP6 ADD DUP3 SWAP1 MSTORE PUSH1 0x60 DUP1 DUP7 ADD SWAP9 SWAP1 SWAP9 MSTORE PUSH1 0x80 DUP1 DUP7 ADD SWAP5 SWAP1 SWAP5 MSTORE SWAP5 SWAP1 SWAP4 ADD SWAP5 SWAP1 SWAP5 MSTORE PUSH1 0x9 DUP12 SWAP1 SSTORE PUSH1 0xA DUP13 SWAP1 SSTORE DUP7 DUP4 SHL PUSH8 0xFFFFFFFFFFFFFFFF PUSH1 0x40 SHL AND DUP3 OR DUP9 DUP3 SHL PUSH8 0xFFFFFFFFFFFFFFFF PUSH1 0x80 SHL AND OR PUSH1 0xC0 DUP11 DUP2 SHL PUSH1 0x1 PUSH1 0x1 PUSH1 0xC0 SHL SUB NOT AND SWAP2 SWAP1 SWAP2 OR PUSH1 0xB SSTORE DUP4 MLOAD SWAP12 DUP13 MSTORE SWAP4 DUP12 ADD SWAP12 SWAP1 SWAP12 MSTORE SWAP1 DUP10 ADD MSTORE SWAP3 DUP3 AND SWAP1 DUP8 ADD MSTORE SWAP2 DUP3 AND SWAP6 DUP6 ADD SWAP6 SWAP1 SWAP6 MSTORE AND PUSH1 0xA0 DUP4 ADD MSTORE SWAP1 SWAP2 DUP3 SWAP2 SWAP1 DUP3 ADD SWAP1 JUMP JUMPDEST PUSH4 0xA28FB19 PUSH1 0xE4 SHL PUSH0 MSTORE PUSH1 0x4 PUSH0 REVERT JUMPDEST PUSH4 0x694035C9 PUSH1 0xE1 SHL PUSH0 MSTORE PUSH1 0x4 PUSH0 REVERT JUMPDEST PUSH2 0x8F0 SWAP2 POP PUSH1 0x20 RETURNDATASIZE PUSH1 0x20 GT PUSH2 0x409 JUMPI PUSH2 0x3FB DUP2 DUP4 PUSH2 0x1453 JUMP JUMPDEST DUP11 PUSH2 0x2C8 JUMP JUMPDEST CALLVALUE PUSH2 0x41B JUMPI PUSH0 CALLDATASIZE PUSH1 0x3 NOT ADD SLT PUSH2 0x41B JUMPI PUSH1 0x20 PUSH1 0x6 SLOAD PUSH1 0x40 MLOAD SWAP1 DUP2 MSTORE RETURN JUMPDEST CALLVALUE PUSH2 0x41B JUMPI PUSH0 CALLDATASIZE PUSH1 0x3 NOT ADD SLT PUSH2 0x41B JUMPI PUSH1 0x20 PUSH4 0xFFFFFFFF PUSH1 0x8 SLOAD PUSH1 0xA0 SHR AND PUSH1 0x40 MLOAD SWAP1 DUP2 MSTORE RETURN JUMPDEST CALLVALUE PUSH2 0x41B JUMPI PUSH0 CALLDATASIZE PUSH1 0x3 NOT ADD SLT PUSH2 0x41B JUMPI PUSH1 0x20 PUSH1 0x1 PUSH1 0x1 PUSH1 0x40 SHL SUB PUSH1 0x1 SLOAD PUSH1 0x40 SHR AND PUSH1 0x40 MLOAD SWAP1 DUP2 MSTORE RETURN JUMPDEST CALLVALUE PUSH2 0x41B JUMPI PUSH0 CALLDATASIZE PUSH1 0x3 NOT ADD SLT PUSH2 0x41B JUMPI PUSH1 0x20 PUSH1 0x9 SLOAD PUSH1 0x40 MLOAD SWAP1 DUP2 MSTORE RETURN JUMPDEST CALLVALUE PUSH2 0x41B JUMPI PUSH2 0x98D CALLDATASIZE PUSH2 0x1412 JUMP JUMPDEST PUSH0 SLOAD PUSH1 0x40 MLOAD PUSH4 0x3F784DE5 PUSH1 0xE1 SHL DUP2 MSTORE CALLER PUSH1 0x4 DUP3 ADD MSTORE SWAP4 SWAP7 SWAP5 SWAP4 SWAP2 SWAP3 SWAP2 SWAP1 PUSH1 0x20 SWAP1 DUP3 SWAP1 PUSH1 0x24 SWAP1 DUP3 SWAP1 PUSH1 0x1 PUSH1 0x1 PUSH1 0xA0 SHL SUB AND GAS STATICCALL DUP1 ISZERO PUSH2 0x410 JUMPI PUSH2 0x9D5 SWAP2 PUSH0 SWAP2 PUSH2 0x6C4 JUMPI POP PUSH2 0x14E3 JUMP JUMPDEST DUP5 DUP5 LT DUP1 ISZERO SWAP1 PUSH2 0xAC2 JUMPI JUMPDEST DUP1 ISZERO PUSH2 0xAB8 JUMPI JUMPDEST DUP1 ISZERO PUSH2 0xAAE JUMPI JUMPDEST DUP1 ISZERO PUSH2 0xAA4 JUMPI JUMPDEST PUSH2 0x68D JUMPI PUSH1 0x9 SLOAD DUP3 GT PUSH2 0x68D JUMPI PUSH32 0x7A540045A63A511C8E6C029CBC13F3B74CBCBA313476464094974F98AAEF1CBE SWAP6 PUSH2 0x3DC SWAP4 PUSH1 0x40 MLOAD PUSH2 0xA34 DUP2 PUSH2 0x1438 JUMP JUMPDEST DUP7 DUP2 MSTORE PUSH1 0x20 DUP2 ADD DUP9 DUP2 MSTORE PUSH1 0x40 DUP3 ADD DUP4 DUP2 MSTORE PUSH1 0x60 DUP4 ADD SWAP1 DUP6 DUP3 MSTORE PUSH1 0x80 DUP5 ADD SWAP3 DUP8 DUP5 MSTORE PUSH1 0xA0 DUP6 ADD SWAP5 DUP10 DUP7 MSTORE MLOAD PUSH1 0xC SSTORE MLOAD PUSH1 0xD SSTORE MLOAD PUSH1 0xE SSTORE MLOAD PUSH1 0xF SSTORE MLOAD PUSH1 0x10 SSTORE MLOAD PUSH1 0x11 SSTORE PUSH1 0x40 MLOAD SWAP7 DUP8 SWAP7 DUP8 SWAP3 PUSH1 0xA0 SWAP5 SWAP2 SWAP8 SWAP7 SWAP6 SWAP3 PUSH1 0xC0 DUP6 ADD SWAP9 DUP6 MSTORE PUSH1 0x20 DUP6 ADD MSTORE PUSH1 0x40 DUP5 ADD MSTORE PUSH1 0x60 DUP4 ADD MSTORE PUSH1 0x80 DUP3 ADD MSTORE ADD MSTORE JUMP JUMPDEST POP DUP2 DUP2 LT ISZERO PUSH2 0x9F5 JUMP JUMPDEST POP DUP1 DUP7 LT ISZERO PUSH2 0x9EE JUMP JUMPDEST POP DUP6 DUP4 LT ISZERO PUSH2 0x9E7 JUMP JUMPDEST POP DUP3 DUP6 LT ISZERO PUSH2 0x9E0 JUMP JUMPDEST CALLVALUE PUSH2 0x41B JUMPI PUSH0 CALLDATASIZE PUSH1 0x3 NOT ADD SLT PUSH2 0x41B JUMPI PUSH1 0x20 PUSH4 0xFFFFFFFF PUSH1 0x8 SLOAD PUSH1 0x80 SHR AND PUSH1 0x40 MLOAD SWAP1 DUP2 MSTORE RETURN JUMPDEST CALLVALUE PUSH2 0x41B JUMPI PUSH0 CALLDATASIZE PUSH1 0x3 NOT ADD SLT PUSH2 0x41B JUMPI PUSH1 0x20 PUSH1 0xC SLOAD PUSH1 0x40 MLOAD SWAP1 DUP2 MSTORE RETURN JUMPDEST CALLVALUE PUSH2 0x41B JUMPI PUSH0 CALLDATASIZE PUSH1 0x3 NOT ADD SLT PUSH2 0x41B JUMPI PUSH1 0x20 PUSH1 0x1 PUSH1 0x1 PUSH1 0x40 SHL SUB PUSH1 0x1 SLOAD AND PUSH1 0x40 MLOAD SWAP1 DUP2 MSTORE RETURN JUMPDEST CALLVALUE PUSH2 0x41B JUMPI PUSH0 CALLDATASIZE PUSH1 0x3 NOT ADD SLT PUSH2 0x41B JUMPI PUSH1 0x9 SLOAD PUSH1 0xA SLOAD PUSH1 0xB SLOAD PUSH1 0x40 DUP1 MLOAD SWAP4 DUP5 MSTORE PUSH1 0x20 DUP5 ADD SWAP3 SWAP1 SWAP3 MSTORE PUSH1 0x1 PUSH1 0x1 PUSH1 0x40 SHL SUB DUP1 DUP3 AND DUP5 DUP5 ADD MSTORE SWAP2 DUP2 SWAP1 SHR DUP3 AND PUSH1 0x60 DUP5 ADD MSTORE PUSH1 0x80 DUP2 DUP2 SHR SWAP1 SWAP3 AND SWAP2 DUP4 ADD SWAP2 SWAP1 SWAP2 MSTORE PUSH1 0xC0 SWAP1 DUP2 SHR PUSH1 0xA0 DUP4 ADD MSTORE SWAP1 RETURN JUMPDEST CALLVALUE PUSH2 0x41B JUMPI PUSH0 CALLDATASIZE PUSH1 0x3 NOT ADD SLT PUSH2 0x41B JUMPI PUSH1 0x20 PUSH1 0xE SLOAD PUSH1 0x40 MLOAD SWAP1 DUP2 MSTORE RETURN JUMPDEST CALLVALUE PUSH2 0x41B JUMPI PUSH0 CALLDATASIZE PUSH1 0x3 NOT ADD SLT PUSH2 0x41B JUMPI PUSH1 0x20 PUSH1 0x2 SLOAD PUSH1 0x40 MLOAD SWAP1 DUP2 MSTORE RETURN JUMPDEST CALLVALUE PUSH2 0x41B JUMPI PUSH1 0x20 CALLDATASIZE PUSH1 0x3 NOT ADD SLT PUSH2 0x41B JUMPI PUSH1 0x4 CALLDATALOAD PUSH1 0x1 PUSH1 0x1 PUSH1 0xA0 SHL SUB DUP2 AND SWAP1 DUP2 SWAP1 SUB PUSH2 0x41B JUMPI PUSH0 SLOAD PUSH1 0x40 MLOAD PUSH4 0x8DA5CB5B PUSH1 0xE0 SHL DUP2 MSTORE PUSH1 0x20 DUP2 PUSH1 0x4 DUP2 PUSH1 0x1 PUSH1 0x1 PUSH1 0xA0 SHL SUB DUP7 AND GAS STATICCALL DUP1 ISZERO PUSH2 0x410 JUMPI PUSH2 0xC36 SWAP2 PUSH0 SWAP2 PUSH2 0xCD5 JUMPI JUMPDEST POP PUSH1 0x1 PUSH1 0x1 PUSH1 0xA0 SHL SUB AND CALLER EQ PUSH2 0x1493 JUMP JUMPDEST PUSH2 0xC3E PUSH2 0x153E JUMP JUMPDEST DUP2 ISZERO PUSH2 0xC80 JUMPI PUSH1 0x1 PUSH1 0x1 PUSH1 0xA0 SHL SUB NOT AND DUP2 OR PUSH0 SSTORE PUSH1 0x40 MLOAD SWAP1 DUP2 MSTORE PUSH32 0x497ACAA34AC19C2A2A579AD43ECA493B4FEA820459E254E9383E7DDA216B0F04 SWAP1 PUSH1 0x20 SWAP1 LOG1 STOP JUMPDEST PUSH1 0x40 MLOAD PUSH3 0x461BCD PUSH1 0xE5 SHL DUP2 MSTORE PUSH1 0x20 PUSH1 0x4 DUP3 ADD MSTORE PUSH1 0x27 PUSH1 0x24 DUP3 ADD MSTORE PUSH32 0x416363657373436F6E74726F6C3A207A65726F2061646472657373206E6F7420 PUSH1 0x44 DUP3 ADD MSTORE PUSH7 0x185B1B1BDDD959 PUSH1 0xCA SHL PUSH1 0x64 DUP3 ADD MSTORE PUSH1 0x84 SWAP1 REVERT JUMPDEST PUSH2 0xCF7 SWAP2 POP PUSH1 0x20 RETURNDATASIZE PUSH1 0x20 GT PUSH2 0xCFD JUMPI JUMPDEST PUSH2 0xCEF DUP2 DUP4 PUSH2 0x1453 JUMP JUMPDEST DUP2 ADD SWAP1 PUSH2 0x1474 JUMP JUMPDEST DUP5 PUSH2 0xC25 JUMP JUMPDEST POP RETURNDATASIZE PUSH2 0xCE5 JUMP JUMPDEST CALLVALUE PUSH2 0x41B JUMPI PUSH0 CALLDATASIZE PUSH1 0x3 NOT ADD SLT PUSH2 0x41B JUMPI PUSH1 0x20 PUSH1 0xB SLOAD PUSH1 0xC0 SHR PUSH1 0x40 MLOAD SWAP1 DUP2 MSTORE RETURN JUMPDEST CALLVALUE PUSH2 0x41B JUMPI PUSH0 CALLDATASIZE PUSH1 0x3 NOT ADD SLT PUSH2 0x41B JUMPI PUSH1 0x20 PUSH1 0xF SLOAD PUSH1 0x40 MLOAD SWAP1 DUP2 MSTORE RETURN JUMPDEST CALLVALUE PUSH2 0x41B JUMPI PUSH0 CALLDATASIZE PUSH1 0x3 NOT ADD SLT PUSH2 0x41B JUMPI PUSH0 SLOAD PUSH1 0x40 MLOAD PUSH4 0x8DA5CB5B PUSH1 0xE0 SHL DUP2 MSTORE PUSH1 0x20 DUP2 PUSH1 0x4 DUP2 PUSH1 0x1 PUSH1 0x1 PUSH1 0xA0 SHL SUB DUP7 AND GAS STATICCALL DUP1 ISZERO PUSH2 0x410 JUMPI PUSH2 0xD93 SWAP2 PUSH0 SWAP2 PUSH2 0xE02 JUMPI POP PUSH1 0x1 PUSH1 0x1 PUSH1 0xA0 SHL SUB AND CALLER EQ PUSH2 0x1493 JUMP JUMPDEST PUSH2 0xD9B PUSH2 0x153E JUMP JUMPDEST PUSH1 0xFF PUSH1 0xA0 SHL NOT AND PUSH1 0x1 PUSH1 0xA0 SHL OR PUSH0 SSTORE PUSH1 0x40 MLOAD CALLER DUP2 MSTORE PUSH32 0x62E78CEA01BEE320CD4E420270B5EA74000D11B0C9F74754EBDBFC544B05A258 SWAP1 PUSH1 0x20 SWAP1 LOG1 PUSH32 0x81990FD9A5C552B8E3677917D8A03C07678F0D2CB68F88B634ACA2022E9BD19F PUSH1 0x20 PUSH1 0x40 MLOAD CALLER DUP2 MSTORE LOG1 STOP JUMPDEST PUSH2 0xE1B SWAP2 POP PUSH1 0x20 RETURNDATASIZE PUSH1 0x20 GT PUSH2 0xCFD JUMPI PUSH2 0xCEF DUP2 DUP4 PUSH2 0x1453 JUMP JUMPDEST DUP4 PUSH2 0xC25 JUMP JUMPDEST CALLVALUE PUSH2 0x41B JUMPI PUSH0 CALLDATASIZE PUSH1 0x3 NOT ADD SLT PUSH2 0x41B JUMPI PUSH1 0x20 PUSH1 0x1 PUSH1 0x1 PUSH1 0x40 SHL SUB PUSH1 0xB SLOAD AND PUSH1 0x40 MLOAD SWAP1 DUP2 MSTORE RETURN JUMPDEST CALLVALUE PUSH2 0x41B JUMPI PUSH0 CALLDATASIZE PUSH1 0x3 NOT ADD SLT PUSH2 0x41B JUMPI PUSH1 0x20 PUSH1 0x10 SLOAD PUSH1 0x40 MLOAD SWAP1 DUP2 MSTORE RETURN JUMPDEST CALLVALUE PUSH2 0x41B JUMPI PUSH0 CALLDATASIZE PUSH1 0x3 NOT ADD SLT PUSH2 0x41B JUMPI PUSH1 0x20 PUSH1 0x11 SLOAD PUSH1 0x40 MLOAD SWAP1 DUP2 MSTORE RETURN JUMPDEST CALLVALUE PUSH2 0x41B JUMPI PUSH0 CALLDATASIZE PUSH1 0x3 NOT ADD SLT PUSH2 0x41B JUMPI PUSH1 0x20 PUSH4 0xFFFFFFFF PUSH1 0x8 SLOAD PUSH1 0xC0 SHR AND PUSH1 0x40 MLOAD SWAP1 DUP2 MSTORE RETURN JUMPDEST CALLVALUE PUSH2 0x41B JUMPI PUSH0 CALLDATASIZE PUSH1 0x3 NOT ADD SLT PUSH2 0x41B JUMPI PUSH1 0xC SLOAD PUSH1 0xD SLOAD PUSH1 0xE SLOAD PUSH1 0xF SLOAD PUSH1 0x10 SLOAD PUSH1 0x11 SLOAD PUSH1 0x40 DUP1 MLOAD SWAP7 DUP8 MSTORE PUSH1 0x20 DUP8 ADD SWAP6 SWAP1 SWAP6 MSTORE SWAP4 DUP6 ADD SWAP3 SWAP1 SWAP3 MSTORE PUSH1 0x60 DUP5 ADD MSTORE PUSH1 0x80 DUP4 ADD MSTORE PUSH1 0xA0 DUP3 ADD MSTORE PUSH1 0xC0 SWAP1 RETURN JUMPDEST CALLVALUE PUSH2 0x41B JUMPI PUSH0 CALLDATASIZE PUSH1 0x3 NOT ADD SLT PUSH2 0x41B JUMPI PUSH1 0x20 PUSH1 0xFF PUSH0 SLOAD PUSH1 0xA0 SHR AND PUSH1 0x40 MLOAD SWAP1 ISZERO ISZERO DUP2 MSTORE RETURN JUMPDEST CALLVALUE PUSH2 0x41B JUMPI PUSH0 CALLDATASIZE PUSH1 0x3 NOT ADD SLT PUSH2 0x41B JUMPI PUSH1 0x20 PUSH1 0x3 SLOAD PUSH1 0x40 MLOAD SWAP1 DUP2 MSTORE RETURN JUMPDEST CALLVALUE PUSH2 0x41B JUMPI PUSH1 0x80 CALLDATASIZE PUSH1 0x3 NOT ADD SLT PUSH2 0x41B JUMPI PUSH2 0xF4D PUSH2 0x13BA JUMP JUMPDEST PUSH2 0xF55 PUSH2 0x13D0 JUMP JUMPDEST PUSH2 0xF5D PUSH2 0x13E6 JUMP JUMPDEST SWAP2 PUSH2 0xF66 PUSH2 0x13FC JUMP JUMPDEST PUSH0 SLOAD PUSH1 0x40 MLOAD PUSH4 0x3F784DE5 PUSH1 0xE1 SHL DUP2 MSTORE CALLER PUSH1 0x4 DUP3 ADD MSTORE SWAP2 SWAP5 SWAP2 SWAP1 PUSH1 0x20 SWAP1 DUP3 SWAP1 PUSH1 0x24 SWAP1 DUP3 SWAP1 PUSH1 0x1 PUSH1 0x1 PUSH1 0xA0 SHL SUB AND GAS STATICCALL DUP1 ISZERO PUSH2 0x410 JUMPI PUSH2 0xFAA SWAP2 PUSH0 SWAP2 PUSH2 0x10C2 JUMPI POP PUSH2 0x14E3 JUMP JUMPDEST PUSH1 0x64 PUSH1 0x1 PUSH1 0x1 PUSH1 0x40 SHL SUB PUSH2 0xFCB DUP7 PUSH2 0xFC6 DUP6 PUSH2 0xFC6 DUP10 DUP10 PUSH2 0x151E JUMP JUMPDEST PUSH2 0x151E JUMP JUMPDEST AND SUB PUSH2 0x10B3 JUMPI PUSH1 0x40 MLOAD SWAP4 PUSH1 0x80 DUP6 ADD SWAP2 DUP6 DUP4 LT PUSH1 0x1 PUSH1 0x1 PUSH1 0x40 SHL SUB DUP5 GT OR PUSH2 0x109F JUMPI PUSH1 0x40 SWAP3 DUP4 MSTORE PUSH1 0x1 PUSH1 0x1 PUSH1 0x40 SHL SUB SWAP4 DUP5 AND DUP1 DUP8 MSTORE DUP6 DUP6 AND PUSH1 0x20 DUP1 DUP10 ADD DUP3 SWAP1 MSTORE DUP4 DUP8 AND DUP7 DUP11 ADD DUP2 SWAP1 MSTORE SWAP7 DUP6 AND PUSH1 0x60 SWAP10 DUP11 ADD DUP2 SWAP1 MSTORE SWAP8 DUP7 SHL PUSH8 0xFFFFFFFFFFFFFFFF PUSH1 0x40 SHL AND DUP4 OR PUSH1 0x80 SWAP5 DUP6 SHL PUSH8 0xFFFFFFFFFFFFFFFF PUSH1 0x80 SHL AND OR PUSH1 0xC0 SWAP6 SWAP1 SWAP6 SHL PUSH1 0x1 PUSH1 0x1 PUSH1 0xC0 SHL SUB NOT AND SWAP5 SWAP1 SWAP5 OR PUSH1 0x1 SSTORE DUP5 MLOAD SWAP2 DUP3 MSTORE SWAP3 DUP2 ADD SWAP3 SWAP1 SWAP3 MSTORE SWAP2 DUP2 ADD SWAP3 SWAP1 SWAP3 MSTORE SWAP3 DUP2 ADD SWAP2 SWAP1 SWAP2 MSTORE PUSH32 0xA1E47E55CF3D1775387922DA7BBE4C1D62FC43F2FCF01CAC0F579545F2EB98B1 SWAP2 DUP2 SWAP1 DUP2 ADD PUSH2 0x3DC JUMP JUMPDEST PUSH4 0x4E487B71 PUSH1 0xE0 SHL PUSH0 MSTORE PUSH1 0x41 PUSH1 0x4 MSTORE PUSH1 0x24 PUSH0 REVERT JUMPDEST PUSH4 0x62549315 PUSH1 0xE1 SHL PUSH0 MSTORE PUSH1 0x4 PUSH0 REVERT JUMPDEST PUSH2 0x10DB SWAP2 POP PUSH1 0x20 RETURNDATASIZE PUSH1 0x20 GT PUSH2 0x409 JUMPI PUSH2 0x3FB DUP2 DUP4 PUSH2 0x1453 JUMP JUMPDEST DUP7 PUSH2 0x2C8 JUMP JUMPDEST CALLVALUE PUSH2 0x41B JUMPI PUSH0 CALLDATASIZE PUSH1 0x3 NOT ADD SLT PUSH2 0x41B JUMPI PUSH1 0x20 PUSH1 0x5 SLOAD PUSH1 0x40 MLOAD SWAP1 DUP2 MSTORE RETURN JUMPDEST CALLVALUE PUSH2 0x41B JUMPI PUSH0 CALLDATASIZE PUSH1 0x3 NOT ADD SLT PUSH2 0x41B JUMPI PUSH1 0x20 PUSH1 0xA SLOAD PUSH1 0x40 MLOAD SWAP1 DUP2 MSTORE RETURN JUMPDEST CALLVALUE PUSH2 0x41B JUMPI PUSH0 CALLDATASIZE PUSH1 0x3 NOT ADD SLT PUSH2 0x41B JUMPI PUSH0 SLOAD PUSH1 0x40 MLOAD PUSH4 0x8DA5CB5B PUSH1 0xE0 SHL DUP2 MSTORE PUSH1 0x20 DUP2 PUSH1 0x4 DUP2 PUSH1 0x1 PUSH1 0x1 PUSH1 0xA0 SHL SUB DUP7 AND GAS STATICCALL DUP1 ISZERO PUSH2 0x410 JUMPI PUSH2 0x116D SWAP2 PUSH0 SWAP2 PUSH2 0xE02 JUMPI POP PUSH1 0x1 PUSH1 0x1 PUSH1 0xA0 SHL SUB AND CALLER EQ PUSH2 0x1493 JUMP JUMPDEST PUSH1 0xFF DUP2 PUSH1 0xA0 SHR AND ISZERO PUSH2 0x11DA JUMPI PUSH1 0xFF PUSH1 0xA0 SHL NOT AND PUSH0 SSTORE PUSH1 0x40 MLOAD CALLER DUP2 MSTORE PUSH32 0x5DB9EE0A495BF2E6FF9C91A7834C1BA4FDD244A5E8AA4E537BD38AEAE4B073AA SWAP1 PUSH1 0x20 SWAP1 LOG1 PUSH32 0x5B65B0C1363B3003DB9BCC5E1FD8805A6D6BF5BF6DC9D3431EE4494CD7D11766 PUSH1 0x20 PUSH1 0x40 MLOAD CALLER DUP2 MSTORE LOG1 STOP JUMPDEST PUSH4 0x8DFC202B PUSH1 0xE0 SHL PUSH0 MSTORE PUSH1 0x4 PUSH0 REVERT JUMPDEST CALLVALUE PUSH2 0x41B JUMPI PUSH0 CALLDATASIZE PUSH1 0x3 NOT ADD SLT PUSH2 0x41B JUMPI PUSH1 0x1 SLOAD PUSH1 0x40 DUP1 MLOAD PUSH1 0x1 PUSH1 0x1 PUSH1 0x40 SHL SUB DUP1 DUP5 AND DUP3 MSTORE DUP4 DUP4 SHR DUP2 AND PUSH1 0x20 DUP4 ADD MSTORE PUSH1 0x80 DUP5 DUP2 SHR SWAP1 SWAP2 AND SWAP3 DUP3 ADD SWAP3 SWAP1 SWAP3 MSTORE PUSH1 0xC0 SWAP3 SWAP1 SWAP3 SHR PUSH1 0x60 DUP4 ADD MSTORE SWAP1 RETURN JUMPDEST CALLVALUE PUSH2 0x41B JUMPI PUSH0 CALLDATASIZE PUSH1 0x3 NOT ADD SLT PUSH2 0x41B JUMPI PUSH1 0x8 SLOAD PUSH1 0x40 DUP1 MLOAD PUSH1 0x1 PUSH1 0x1 PUSH1 0x40 SHL SUB DUP1 DUP5 AND DUP3 MSTORE DUP4 DUP4 SHR AND PUSH1 0x20 DUP3 ADD MSTORE PUSH4 0xFFFFFFFF PUSH1 0x80 DUP5 DUP2 SHR DUP3 AND SWAP4 DUP4 ADD SWAP4 SWAP1 SWAP4 MSTORE PUSH1 0xA0 DUP5 DUP2 SHR DUP3 AND PUSH1 0x60 DUP5 ADD MSTORE PUSH1 0xC0 DUP6 DUP2 SHR SWAP1 SWAP3 AND SWAP4 DUP4 ADD SWAP4 SWAP1 SWAP4 MSTORE PUSH1 0xE0 SWAP4 SWAP1 SWAP4 SHR SWAP2 DUP2 ADD SWAP2 SWAP1 SWAP2 MSTORE RETURN JUMPDEST CALLVALUE PUSH2 0x41B JUMPI PUSH0 CALLDATASIZE PUSH1 0x3 NOT ADD SLT PUSH2 0x41B JUMPI PUSH1 0x20 PUSH1 0x7 SLOAD PUSH1 0x40 MLOAD SWAP1 DUP2 MSTORE RETURN JUMPDEST CALLVALUE PUSH2 0x41B JUMPI PUSH0 CALLDATASIZE PUSH1 0x3 NOT ADD SLT PUSH2 0x41B JUMPI PUSH1 0x20 PUSH1 0x1 SLOAD PUSH1 0xC0 SHR PUSH1 0x40 MLOAD SWAP1 DUP2 MSTORE RETURN JUMPDEST CALLVALUE PUSH2 0x41B JUMPI PUSH0 CALLDATASIZE PUSH1 0x3 NOT ADD SLT PUSH2 0x41B JUMPI PUSH0 SLOAD PUSH1 0x40 MLOAD PUSH1 0x1 PUSH1 0x1 PUSH1 0xA0 SHL SUB SWAP1 SWAP2 AND DUP2 MSTORE PUSH1 0x20 SWAP1 RETURN JUMPDEST CALLVALUE PUSH2 0x41B JUMPI PUSH0 CALLDATASIZE PUSH1 0x3 NOT ADD SLT PUSH2 0x41B JUMPI PUSH1 0x20 PUSH1 0x4 SLOAD PUSH1 0x40 MLOAD SWAP1 DUP2 MSTORE RETURN JUMPDEST CALLVALUE PUSH2 0x41B JUMPI PUSH0 CALLDATASIZE PUSH1 0x3 NOT ADD SLT PUSH2 0x41B JUMPI PUSH1 0x2 SLOAD PUSH1 0x3 SLOAD PUSH1 0x4 SLOAD PUSH1 0x5 SLOAD PUSH1 0x6 SLOAD PUSH1 0x7 SLOAD PUSH1 0x40 DUP1 MLOAD SWAP7 DUP8 MSTORE PUSH1 0x20 DUP8 ADD SWAP6 SWAP1 SWAP6 MSTORE SWAP4 DUP6 ADD SWAP3 SWAP1 SWAP3 MSTORE PUSH1 0x60 DUP5 ADD MSTORE PUSH1 0x80 DUP4 ADD MSTORE PUSH1 0xA0 DUP3 ADD MSTORE PUSH1 0xC0 SWAP1 RETURN JUMPDEST CALLVALUE PUSH2 0x41B JUMPI PUSH0 CALLDATASIZE PUSH1 0x3 NOT ADD SLT PUSH2 0x41B JUMPI PUSH1 0x20 PUSH1 0x1 PUSH1 0x1 PUSH1 0x40 SHL SUB PUSH1 0xB SLOAD PUSH1 0x40 SHR AND PUSH1 0x40 MLOAD SWAP1 DUP2 MSTORE RETURN JUMPDEST CALLVALUE PUSH2 0x41B JUMPI PUSH0 CALLDATASIZE PUSH1 0x3 NOT ADD SLT PUSH2 0x41B JUMPI PUSH1 0x20 SWAP1 PUSH1 0x1 PUSH1 0x1 PUSH1 0x40 SHL SUB PUSH1 0xB SLOAD PUSH1 0x80 SHR AND DUP2 MSTORE RETURN JUMPDEST PUSH1 0x4 CALLDATALOAD SWAP1 PUSH1 0x1 PUSH1 0x1 PUSH1 0x40 SHL SUB DUP3 AND DUP3 SUB PUSH2 0x41B JUMPI JUMP JUMPDEST PUSH1 0x24 CALLDATALOAD SWAP1 PUSH1 0x1 PUSH1 0x1 PUSH1 0x40 SHL SUB DUP3 AND DUP3 SUB PUSH2 0x41B JUMPI JUMP JUMPDEST PUSH1 0x44 CALLDATALOAD SWAP1 PUSH1 0x1 PUSH1 0x1 PUSH1 0x40 SHL SUB DUP3 AND DUP3 SUB PUSH2 0x41B JUMPI JUMP JUMPDEST PUSH1 0x64 CALLDATALOAD SWAP1 PUSH1 0x1 PUSH1 0x1 PUSH1 0x40 SHL SUB DUP3 AND DUP3 SUB PUSH2 0x41B JUMPI JUMP JUMPDEST PUSH1 0xC0 SWAP1 PUSH1 0x3 NOT ADD SLT PUSH2 0x41B JUMPI PUSH1 0x4 CALLDATALOAD SWAP1 PUSH1 0x24 CALLDATALOAD SWAP1 PUSH1 0x44 CALLDATALOAD SWAP1 PUSH1 0x64 CALLDATALOAD SWAP1 PUSH1 0x84 CALLDATALOAD SWAP1 PUSH1 0xA4 CALLDATALOAD SWAP1 JUMP JUMPDEST PUSH1 0xC0 DUP2 ADD SWAP1 DUP2 LT PUSH1 0x1 PUSH1 0x1 PUSH1 0x40 SHL SUB DUP3 GT OR PUSH2 0x109F JUMPI PUSH1 0x40 MSTORE JUMP JUMPDEST SWAP1 PUSH1 0x1F DUP1 NOT SWAP2 ADD AND DUP2 ADD SWAP1 DUP2 LT PUSH1 0x1 PUSH1 0x1 PUSH1 0x40 SHL SUB DUP3 GT OR PUSH2 0x109F JUMPI PUSH1 0x40 MSTORE JUMP JUMPDEST SWAP1 DUP2 PUSH1 0x20 SWAP2 SUB SLT PUSH2 0x41B JUMPI MLOAD PUSH1 0x1 PUSH1 0x1 PUSH1 0xA0 SHL SUB DUP2 AND DUP2 SUB PUSH2 0x41B JUMPI SWAP1 JUMP JUMPDEST ISZERO PUSH2 0x149A JUMPI JUMP JUMPDEST PUSH1 0x40 MLOAD PUSH3 0x461BCD PUSH1 0xE5 SHL DUP2 MSTORE PUSH1 0x20 PUSH1 0x4 DUP3 ADD MSTORE PUSH1 0x9 PUSH1 0x24 DUP3 ADD MSTORE PUSH9 0x2737BA1037BBB732B9 PUSH1 0xB9 SHL PUSH1 0x44 DUP3 ADD MSTORE PUSH1 0x64 SWAP1 REVERT JUMPDEST SWAP1 DUP2 PUSH1 0x20 SWAP2 SUB SLT PUSH2 0x41B JUMPI MLOAD DUP1 ISZERO ISZERO DUP2 SUB PUSH2 0x41B JUMPI SWAP1 JUMP JUMPDEST ISZERO PUSH2 0x14EA JUMPI JUMP JUMPDEST PUSH1 0x40 MLOAD PUSH3 0x461BCD PUSH1 0xE5 SHL DUP2 MSTORE PUSH1 0x20 PUSH1 0x4 DUP3 ADD MSTORE PUSH1 0xC PUSH1 0x24 DUP3 ADD MSTORE PUSH12 0x4E6F7420656D706C6F796565 PUSH1 0xA0 SHL PUSH1 0x44 DUP3 ADD MSTORE PUSH1 0x64 SWAP1 REVERT JUMPDEST SWAP1 PUSH1 0x1 PUSH1 0x1 PUSH1 0x40 SHL SUB DUP1 SWAP2 AND SWAP2 AND ADD SWAP1 PUSH1 0x1 PUSH1 0x1 PUSH1 0x40 SHL SUB DUP3 GT PUSH2 0x679 JUMPI JUMP JUMPDEST PUSH1 0xFF PUSH0 SLOAD PUSH1 0xA0 SHR AND PUSH2 0x154C JUMPI JUMP JUMPDEST PUSH4 0xD93C0665 PUSH1 0xE0 SHL PUSH0 MSTORE PUSH1 0x4 PUSH0 REVERT INVALID LOG2 PUSH5 0x6970667358 0x22 SLT KECCAK256 SWAP3 DUPN 0xD3 EXTCODECOPY MSTORE8 0xA9 0xAA 0x23 0xEB 0x4D JUMPI DUP12 0xEA RETURNDATASIZE PUSH25 0xBB546038CB8518B20970E0C340585C2B1F64736F6C63430008 0x1E STOP CALLER "
				},
				"gasEstimates": {
					"creation": {
						"codeDepositCost": "1104200",
						"executionCost": "infinite",
						"totalCost": "infinite"
					},
					"external": {
						"StakeCategorys()": "13200",
						"StateVars()": "7205",
						"__getCancelByMe()": "3066",
						"__getCategoryHigh()": "2652",
						"__getCategoryLow()": "2872",
						"__getCategoryMidle()": "2806",
						"__getCategoryMidleHigh()": "2718",
						"__getCategoryMidleLow()": "3114",
						"__getCategoryUltraHigh()": "2630",
						"__getDeadlineHitCreator()": "2620",
						"__getDeadlineHitMember()": "3076",
						"__getDeadlineScore()": "3182",
						"__getFeePercentage()": "2272",
						"__getMaxRevision()": "2746",
						"__getMaxReward()": "2476",
						"__getMaxStake()": "2938",
						"__getMinRevisionTimeInHour()": "2692",
						"__getNegPenalty()": "2302",
						"__getReputationScore()": "2984",
						"__getRevisionPenalty()": "3160",
						"__getRevisionScore()": "2372",
						"__getRewardScore()": "2868",
						"__getStakeHigh()": "3004",
						"__getStakeLow()": "2784",
						"__getStakeMid()": "2322",
						"__getStakeMidHigh()": "2498",
						"__getStakeMidLow()": "2542",
						"__getStakeUltraHigh()": "2388",
						"__getTaskAcceptCreator()": "2906",
						"__getTaskAcceptMember()": "2994",
						"accessControl()": "2367",
						"changeAccessControl(address)": "infinite",
						"componentWeightPercentages()": "2561",
						"pause()": "infinite",
						"paused()": "2581",
						"reputationPoints()": "2620",
						"setComponentWeightPercentages(uint64,uint64,uint64,uint64)": "infinite",
						"setReputationPoints(uint64,uint64,uint32,uint32,uint32,uint32)": "infinite",
						"setStakeAmounts(uint256,uint256,uint256,uint256,uint256,uint256)": "infinite",
						"setStakeCategorys(uint256,uint256,uint256,uint256,uint256,uint256)": "infinite",
						"setStateVars(uint256,uint256,uint64,uint64,uint64,uint64)": "infinite",
						"stakeAmounts()": "12914",
						"unpause()": "infinite"
					}
				},
				"methodIdentifiers": {
					"StakeCategorys()": "5e8c4c6b",
					"StateVars()": "99b42ed0",
					"__getCancelByMe()": "cf95838b",
					"__getCategoryHigh()": "813b79c1",
					"__getCategoryLow()": "a376ff7d",
					"__getCategoryMidle()": "99206b0b",
					"__getCategoryMidleHigh()": "84afa48b",
					"__getCategoryMidleLow()": "e1ffcb46",
					"__getCategoryUltraHigh()": "7d8d6d05",
					"__getDeadlineHitCreator()": "770cc99a",
					"__getDeadlineHitMember()": "d164b1d0",
					"__getDeadlineScore()": "ef02c5ae",
					"__getFeePercentage()": "068f49d8",
					"__getMaxRevision()": "88764082",
					"__getMaxReward()": "42a69e2a",
					"__getMaxStake()": "baa20a39",
					"__getMinRevisionTimeInHour()": "83261200",
					"__getNegPenalty()": "0b7dadff",
					"__getReputationScore()": "c6de9839",
					"__getRevisionPenalty()": "e44374f2",
					"__getRevisionScore()": "258f59fc",
					"__getRewardScore()": "a0d01245",
					"__getStakeHigh()": "ca218d7d",
					"__getStakeLow()": "94fb86e5",
					"__getStakeMid()": "12c23eb1",
					"__getStakeMidHigh()": "47963280",
					"__getStakeMidLow()": "55afaf64",
					"__getStakeUltraHigh()": "25ac29e1",
					"__getTaskAcceptCreator()": "b30e0be3",
					"__getTaskAcceptMember()": "c7d3f62f",
					"accessControl()": "13007d55",
					"changeAccessControl(address)": "9387730c",
					"componentWeightPercentages()": "2aedc618",
					"pause()": "8456cb59",
					"paused()": "5c975abb",
					"reputationPoints()": "2a5c4e5c",
					"setComponentWeightPercentages(uint64,uint64,uint64,uint64)": "554faef8",
					"setReputationPoints(uint64,uint64,uint32,uint32,uint32,uint32)": "f012e4e3",
					"setStakeAmounts(uint256,uint256,uint256,uint256,uint256,uint256)": "e1a256a5",
					"setStakeCategorys(uint256,uint256,uint256,uint256,uint256,uint256)": "b38be7e3",
					"setStateVars(uint256,uint256,uint64,uint64,uint64,uint64)": "cb101e64",
					"stakeAmounts()": "0fcaaf3c",
					"unpause()": "3f4ba83a"
				}
			},
			"storageLayout": {
				"storage": [
					{
						"astId": 431,
						"contract": "system/StateVariable.sol:stateVariable",
						"label": "accessControl",
						"offset": 0,
						"slot": "0",
						"type": "t_contract(IAccessControl)424"
					},
					{
						"astId": 306,
						"contract": "system/StateVariable.sol:stateVariable",
						"label": "_paused",
						"offset": 20,
						"slot": "0",
						"type": "t_bool"
					},
					{
						"astId": 612,
						"contract": "system/StateVariable.sol:stateVariable",
						"label": "componentWeightPercentages",
						"offset": 0,
						"slot": "1",
						"type": "t_struct(ComponentWeightPercentage)553_storage"
					},
					{
						"astId": 615,
						"contract": "system/StateVariable.sol:stateVariable",
						"label": "stakeAmounts",
						"offset": 0,
						"slot": "2",
						"type": "t_struct(StakeAmount)567_storage"
					},
					{
						"astId": 618,
						"contract": "system/StateVariable.sol:stateVariable",
						"label": "reputationPoints",
						"offset": 0,
						"slot": "8",
						"type": "t_struct(ReputationPoint)581_storage"
					},
					{
						"astId": 621,
						"contract": "system/StateVariable.sol:stateVariable",
						"label": "StateVars",
						"offset": 0,
						"slot": "9",
						"type": "t_struct(StateVar)595_storage"
					},
					{
						"astId": 624,
						"contract": "system/StateVariable.sol:stateVariable",
						"label": "StakeCategorys",
						"offset": 0,
						"slot": "12",
						"type": "t_struct(StakeCategory)609_storage"
					}
				],
				"types": {
					"t_bool": {
						"encoding": "inplace",
						"label": "bool",
						"numberOfBytes": "1"
					},
					"t_contract(IAccessControl)424": {
						"encoding": "inplace",
						"label": "contract IAccessControl",
						"numberOfBytes": "20"
					},
					"t_struct(ComponentWeightPercentage)553_storage": {
						"encoding": "inplace",
						"label": "struct stateVariable.ComponentWeightPercentage",
						"members": [
							{
								"astId": 546,
								"contract": "system/StateVariable.sol:stateVariable",
								"label": "rewardScore",
								"offset": 0,
								"slot": "0",
								"type": "t_uint64"
							},
							{
								"astId": 548,
								"contract": "system/StateVariable.sol:stateVariable",
								"label": "reputationScore",
								"offset": 8,
								"slot": "0",
								"type": "t_uint64"
							},
							{
								"astId": 550,
								"contract": "system/StateVariable.sol:stateVariable",
								"label": "deadlineScore",
								"offset": 16,
								"slot": "0",
								"type": "t_uint64"
							},
							{
								"astId": 552,
								"contract": "system/StateVariable.sol:stateVariable",
								"label": "revisionScore",
								"offset": 24,
								"slot": "0",
								"type": "t_uint64"
							}
						],
						"numberOfBytes": "32"
					},
					"t_struct(ReputationPoint)581_storage": {
						"encoding": "inplace",
						"label": "struct stateVariable.ReputationPoint",
						"members": [
							{
								"astId": 570,
								"contract": "system/StateVariable.sol:stateVariable",
								"label": "CancelByMe",
								"offset": 0,
								"slot": "0",
								"type": "t_uint64"
							},
							{
								"astId": 572,
								"contract": "system/StateVariable.sol:stateVariable",
								"label": "revision",
								"offset": 8,
								"slot": "0",
								"type": "t_uint64"
							},
							{
								"astId": 574,
								"contract": "system/StateVariable.sol:stateVariable",
								"label": "taskAcceptCreator",
								"offset": 16,
								"slot": "0",
								"type": "t_uint32"
							},
							{
								"astId": 576,
								"contract": "system/StateVariable.sol:stateVariable",
								"label": "taskAcceptMember",
								"offset": 20,
								"slot": "0",
								"type": "t_uint32"
							},
							{
								"astId": 578,
								"contract": "system/StateVariable.sol:stateVariable",
								"label": "deadlineHitCreator",
								"offset": 24,
								"slot": "0",
								"type": "t_uint32"
							},
							{
								"astId": 580,
								"contract": "system/StateVariable.sol:stateVariable",
								"label": "deadlineHitMember",
								"offset": 28,
								"slot": "0",
								"type": "t_uint32"
							}
						],
						"numberOfBytes": "32"
					},
					"t_struct(StakeAmount)567_storage": {
						"encoding": "inplace",
						"label": "struct stateVariable.StakeAmount",
						"members": [
							{
								"astId": 556,
								"contract": "system/StateVariable.sol:stateVariable",
								"label": "low",
								"offset": 0,
								"slot": "0",
								"type": "t_uint256"
							},
							{
								"astId": 558,
								"contract": "system/StateVariable.sol:stateVariable",
								"label": "midLow",
								"offset": 0,
								"slot": "1",
								"type": "t_uint256"
							},
							{
								"astId": 560,
								"contract": "system/StateVariable.sol:stateVariable",
								"label": "mid",
								"offset": 0,
								"slot": "2",
								"type": "t_uint256"
							},
							{
								"astId": 562,
								"contract": "system/StateVariable.sol:stateVariable",
								"label": "midHigh",
								"offset": 0,
								"slot": "3",
								"type": "t_uint256"
							},
							{
								"astId": 564,
								"contract": "system/StateVariable.sol:stateVariable",
								"label": "high",
								"offset": 0,
								"slot": "4",
								"type": "t_uint256"
							},
							{
								"astId": 566,
								"contract": "system/StateVariable.sol:stateVariable",
								"label": "ultraHigh",
								"offset": 0,
								"slot": "5",
								"type": "t_uint256"
							}
						],
						"numberOfBytes": "192"
					},
					"t_struct(StakeCategory)609_storage": {
						"encoding": "inplace",
						"label": "struct stateVariable.StakeCategory",
						"members": [
							{
								"astId": 598,
								"contract": "system/StateVariable.sol:stateVariable",
								"label": "low",
								"offset": 0,
								"slot": "0",
								"type": "t_uint256"
							},
							{
								"astId": 600,
								"contract": "system/StateVariable.sol:stateVariable",
								"label": "midleLow",
								"offset": 0,
								"slot": "1",
								"type": "t_uint256"
							},
							{
								"astId": 602,
								"contract": "system/StateVariable.sol:stateVariable",
								"label": "midle",
								"offset": 0,
								"slot": "2",
								"type": "t_uint256"
							},
							{
								"astId": 604,
								"contract": "system/StateVariable.sol:stateVariable",
								"label": "midleHigh",
								"offset": 0,
								"slot": "3",
								"type": "t_uint256"
							},
							{
								"astId": 606,
								"contract": "system/StateVariable.sol:stateVariable",
								"label": "high",
								"offset": 0,
								"slot": "4",
								"type": "t_uint256"
							},
							{
								"astId": 608,
								"contract": "system/StateVariable.sol:stateVariable",
								"label": "ultraHigh",
								"offset": 0,
								"slot": "5",
								"type": "t_uint256"
							}
						],
						"numberOfBytes": "192"
					},
					"t_struct(StateVar)595_storage": {
						"encoding": "inplace",
						"label": "struct stateVariable.StateVar",
						"members": [
							{
								"astId": 584,
								"contract": "system/StateVariable.sol:stateVariable",
								"label": "maxStake",
								"offset": 0,
								"slot": "0",
								"type": "t_uint256"
							},
							{
								"astId": 586,
								"contract": "system/StateVariable.sol:stateVariable",
								"label": "maxReward",
								"offset": 0,
								"slot": "1",
								"type": "t_uint256"
							},
							{
								"astId": 588,
								"contract": "system/StateVariable.sol:stateVariable",
								"label": "minRevisionTimeInHour",
								"offset": 0,
								"slot": "2",
								"type": "t_uint64"
							},
							{
								"astId": 590,
								"contract": "system/StateVariable.sol:stateVariable",
								"label": "NegPenalty",
								"offset": 8,
								"slot": "2",
								"type": "t_uint64"
							},
							{
								"astId": 592,
								"contract": "system/StateVariable.sol:stateVariable",
								"label": "feePercentage",
								"offset": 16,
								"slot": "2",
								"type": "t_uint64"
							},
							{
								"astId": 594,
								"contract": "system/StateVariable.sol:stateVariable",
								"label": "maxRevision",
								"offset": 24,
								"slot": "2",
								"type": "t_uint64"
							}
						],
						"numberOfBytes": "96"
					},
					"t_uint256": {
						"encoding": "inplace",
						"label": "uint256",
						"numberOfBytes": "32"
					},
					"t_uint32": {
						"encoding": "inplace",
						"label": "uint32",
						"numberOfBytes": "4"
					},
					"t_uint64": {
						"encoding": "inplace",
						"label": "uint64",
						"numberOfBytes": "8"
					}
				}
			},
			"userdoc": {
				"kind": "user",
				"methods": {
					"accessControl()": {
						"notice": "Reference to the central EmployeeAssignment contract."
					},
					"constructor": {
						"notice": "Initializes the contract with default configuration values."
					},
					"setComponentWeightPercentages(uint64,uint64,uint64,uint64)": {
						"notice": "Updates weight percentages used for scoring calculations."
					},
					"setReputationPoints(uint64,uint64,uint32,uint32,uint32,uint32)": {
						"notice": "Updates all reputation point values."
					},
					"setStakeAmounts(uint256,uint256,uint256,uint256,uint256,uint256)": {
						"notice": "Updates predefined stake tiers."
					},
					"setStakeCategorys(uint256,uint256,uint256,uint256,uint256,uint256)": {
						"notice": "Updates stake category values used for classification."
					},
					"setStateVars(uint256,uint256,uint64,uint64,uint64,uint64)": {
						"notice": "Updates global system variables such as max stake, penalties, and reward limits."
					}
				},
				"notice": "Contract for managing configurable system state variables, including weights,         stake categories, reputation points, limits, and penalties.",
				"version": 1
			}
		}
	}
}