{
	"system/Wallet.sol": {
		"System_wallet": {
			"abi": [
				{
					"inputs": [
						{
							"internalType": "address",
							"name": "target",
							"type": "address"
						}
					],
					"name": "AddressEmptyCode",
					"type": "error"
				},
				{
					"inputs": [
						{
							"internalType": "address",
							"name": "implementation",
							"type": "address"
						}
					],
					"name": "ERC1967InvalidImplementation",
					"type": "error"
				},
				{
					"inputs": [],
					"name": "ERC1967NonPayable",
					"type": "error"
				},
				{
					"inputs": [],
					"name": "EnforcedPause",
					"type": "error"
				},
				{
					"inputs": [],
					"name": "ExpectedPause",
					"type": "error"
				},
				{
					"inputs": [],
					"name": "FailedCall",
					"type": "error"
				},
				{
					"inputs": [],
					"name": "InsufficientFunds",
					"type": "error"
				},
				{
					"inputs": [],
					"name": "InvalidInitialization",
					"type": "error"
				},
				{
					"inputs": [],
					"name": "NotInitializing",
					"type": "error"
				},
				{
					"inputs": [],
					"name": "ReentrancyGuardReentrantCall",
					"type": "error"
				},
				{
					"inputs": [],
					"name": "UUPSUnauthorizedCallContext",
					"type": "error"
				},
				{
					"inputs": [
						{
							"internalType": "bytes32",
							"name": "slot",
							"type": "bytes32"
						}
					],
					"name": "UUPSUnsupportedProxiableUUID",
					"type": "error"
				},
				{
					"inputs": [],
					"name": "ZeroAddress",
					"type": "error"
				},
				{
					"anonymous": false,
					"inputs": [
						{
							"indexed": false,
							"internalType": "address",
							"name": "newAccessControl",
							"type": "address"
						}
					],
					"name": "AccessControlChanged",
					"type": "event"
				},
				{
					"anonymous": false,
					"inputs": [
						{
							"indexed": true,
							"internalType": "address",
							"name": "caller",
							"type": "address"
						}
					],
					"name": "ContractPaused",
					"type": "event"
				},
				{
					"anonymous": false,
					"inputs": [
						{
							"indexed": true,
							"internalType": "address",
							"name": "caller",
							"type": "address"
						}
					],
					"name": "ContractUnpaused",
					"type": "event"
				},
				{
					"anonymous": false,
					"inputs": [
						{
							"indexed": false,
							"internalType": "uint64",
							"name": "version",
							"type": "uint64"
						}
					],
					"name": "Initialized",
					"type": "event"
				},
				{
					"anonymous": false,
					"inputs": [
						{
							"indexed": false,
							"internalType": "address",
							"name": "account",
							"type": "address"
						}
					],
					"name": "Paused",
					"type": "event"
				},
				{
					"anonymous": false,
					"inputs": [
						{
							"indexed": false,
							"internalType": "address",
							"name": "account",
							"type": "address"
						}
					],
					"name": "Unpaused",
					"type": "event"
				},
				{
					"anonymous": false,
					"inputs": [
						{
							"indexed": true,
							"internalType": "address",
							"name": "implementation",
							"type": "address"
						}
					],
					"name": "Upgraded",
					"type": "event"
				},
				{
					"anonymous": false,
					"inputs": [
						{
							"indexed": true,
							"internalType": "address",
							"name": "from",
							"type": "address"
						},
						{
							"indexed": true,
							"internalType": "uint256",
							"name": "amount",
							"type": "uint256"
						}
					],
					"name": "contract_received_fund",
					"type": "event"
				},
				{
					"anonymous": false,
					"inputs": [
						{
							"indexed": true,
							"internalType": "address",
							"name": "to",
							"type": "address"
						},
						{
							"indexed": true,
							"internalType": "uint256",
							"name": "amount",
							"type": "uint256"
						}
					],
					"name": "contract_transfered_fund",
					"type": "event"
				},
				{
					"stateMutability": "payable",
					"type": "fallback"
				},
				{
					"inputs": [],
					"name": "UPGRADE_INTERFACE_VERSION",
					"outputs": [
						{
							"internalType": "string",
							"name": "",
							"type": "string"
						}
					],
					"stateMutability": "view",
					"type": "function"
				},
				{
					"inputs": [],
					"name": "accessControl",
					"outputs": [
						{
							"internalType": "contract IAccessControl",
							"name": "",
							"type": "address"
						}
					],
					"stateMutability": "view",
					"type": "function"
				},
				{
					"inputs": [
						{
							"internalType": "address",
							"name": "_newAccesControl",
							"type": "address"
						}
					],
					"name": "changeAccessControl",
					"outputs": [],
					"stateMutability": "nonpayable",
					"type": "function"
				},
				{
					"inputs": [
						{
							"internalType": "address",
							"name": "_accessControl",
							"type": "address"
						}
					],
					"name": "initialize",
					"outputs": [],
					"stateMutability": "nonpayable",
					"type": "function"
				},
				{
					"inputs": [],
					"name": "pause",
					"outputs": [],
					"stateMutability": "nonpayable",
					"type": "function"
				},
				{
					"inputs": [],
					"name": "paused",
					"outputs": [
						{
							"internalType": "bool",
							"name": "",
							"type": "bool"
						}
					],
					"stateMutability": "view",
					"type": "function"
				},
				{
					"inputs": [],
					"name": "proxiableUUID",
					"outputs": [
						{
							"internalType": "bytes32",
							"name": "",
							"type": "bytes32"
						}
					],
					"stateMutability": "view",
					"type": "function"
				},
				{
					"inputs": [
						{
							"internalType": "address payable",
							"name": "_to",
							"type": "address"
						},
						{
							"internalType": "uint256",
							"name": "_amount",
							"type": "uint256"
						}
					],
					"name": "transfer",
					"outputs": [],
					"stateMutability": "nonpayable",
					"type": "function"
				},
				{
					"inputs": [],
					"name": "unpause",
					"outputs": [],
					"stateMutability": "nonpayable",
					"type": "function"
				},
				{
					"inputs": [
						{
							"internalType": "address",
							"name": "newImplementation",
							"type": "address"
						},
						{
							"internalType": "bytes",
							"name": "data",
							"type": "bytes"
						}
					],
					"name": "upgradeToAndCall",
					"outputs": [],
					"stateMutability": "payable",
					"type": "function"
				},
				{
					"stateMutability": "payable",
					"type": "receive"
				}
			],
			"devdoc": {
				"author": "nugi",
				"details": "This contract handles receiving and transferring funds with proper access control and reentrancy protection",
				"errors": {
					"AddressEmptyCode(address)": [
						{
							"details": "There's no code at `target` (it is not a contract)."
						}
					],
					"ERC1967InvalidImplementation(address)": [
						{
							"details": "The `implementation` of the proxy is invalid."
						}
					],
					"ERC1967NonPayable()": [
						{
							"details": "An upgrade function sees `msg.value > 0` that may be lost."
						}
					],
					"EnforcedPause()": [
						{
							"details": "The operation failed because the contract is paused."
						}
					],
					"ExpectedPause()": [
						{
							"details": "The operation failed because the contract is not paused."
						}
					],
					"FailedCall()": [
						{
							"details": "A call to an address target failed. The target may have reverted."
						}
					],
					"InvalidInitialization()": [
						{
							"details": "The contract is already initialized."
						}
					],
					"NotInitializing()": [
						{
							"details": "The contract is not initializing."
						}
					],
					"ReentrancyGuardReentrantCall()": [
						{
							"details": "Unauthorized reentrant call."
						}
					],
					"UUPSUnauthorizedCallContext()": [
						{
							"details": "The call is from an unauthorized context."
						}
					],
					"UUPSUnsupportedProxiableUUID(bytes32)": [
						{
							"details": "The storage `slot` is unsupported as a UUID."
						}
					]
				},
				"events": {
					"Initialized(uint64)": {
						"details": "Triggered when the contract has been initialized or reinitialized."
					},
					"Paused(address)": {
						"details": "Emitted when the pause is triggered by `account`."
					},
					"Unpaused(address)": {
						"details": "Emitted when the pause is lifted by `account`."
					},
					"Upgraded(address)": {
						"details": "Emitted when the implementation is upgraded."
					},
					"contract_received_fund(address,uint256)": {
						"params": {
							"amount": "The amount of funds received (in wei)",
							"from": "The address sending the funds"
						}
					},
					"contract_transfered_fund(address,uint256)": {
						"params": {
							"amount": "The amount of funds transferred (in wei)",
							"to": "The address receiving the funds"
						}
					}
				},
				"kind": "dev",
				"methods": {
					"initialize(address)": {
						"details": "This function replaces the constructor for upgradeable contracts",
						"params": {
							"_accessControl": "The address of the EmployeeAssignment contract that manages roles"
						}
					},
					"pause()": {
						"details": "Only callable by employees, prevents most state-changing functions"
					},
					"paused()": {
						"details": "Returns true if the contract is paused, and false otherwise."
					},
					"proxiableUUID()": {
						"details": "Implementation of the ERC-1822 {proxiableUUID} function. This returns the storage slot used by the implementation. It is used to validate the implementation's compatibility when performing an upgrade. IMPORTANT: A proxy pointing at a proxiable contract should not be considered proxiable itself, because this risks bricking a proxy that upgrades to it, by delegating to itself until out of gas. Thus it is critical that this function revert if invoked through a proxy. This is guaranteed by the `notDelegated` modifier."
					},
					"transfer(address,uint256)": {
						"custom:security": "Checks: Zero address validation, insufficient balance check, transfer success validation",
						"details": "Only the owner can call this function. Protected by reentrancy guard.",
						"params": {
							"_amount": "The amount of funds to transfer (in wei)",
							"_to": "The address to send funds to (must not be zero address)"
						}
					},
					"unpause()": {
						"details": "Only callable by employees, restores normal operation"
					},
					"upgradeToAndCall(address,bytes)": {
						"custom:oz-upgrades-unsafe-allow-reachable": "delegatecall",
						"details": "Upgrade the implementation of the proxy to `newImplementation`, and subsequently execute the function call encoded in `data`. Calls {_authorizeUpgrade}. Emits an {Upgraded} event."
					}
				},
				"title": "System Wallet",
				"version": 1
			},
			"evm": {
				"assembly": "    /* \"system/Wallet.sol\":597:4879  contract System_wallet is AccesControl, UUPSUpgradeable, PausableUpgradeable, ReentrancyGuardUpgradeable {... */\n  0xa0\n  dup1\n  0x40\n  mstore\n  jumpi(tag_1, callvalue)\n    /* \"@openzeppelin/contracts-upgradeable/proxy/utils/UUPSUpgradeable.sol\":1171:1175  this */\n  address\n    /* \"@openzeppelin/contracts-upgradeable/proxy/utils/UUPSUpgradeable.sol\":1163:1176  address(this) */\n  0x80\n  mstore\n    /* \"system/Wallet.sol\":597:4879  contract System_wallet is AccesControl, UUPSUpgradeable, PausableUpgradeable, ReentrancyGuardUpgradeable {... */\n  dataSize(sub_0)\n  swap1\n  dup2\n  dataOffset(sub_0)\n  dup3\n  codecopy\n    /* \"@openzeppelin/contracts-upgradeable/proxy/utils/UUPSUpgradeable.sol\":1163:1176  address(this) */\n  0x80\n    /* \"system/Wallet.sol\":597:4879  contract System_wallet is AccesControl, UUPSUpgradeable, PausableUpgradeable, ReentrancyGuardUpgradeable {... */\n  mload\n  dup2\n  assignImmutable(\"0xbf1fcd4bbdcfbc55a741fb1df45db5ad6a5122c50e7ade06e72a5499ae322de6\")\n  return\ntag_1:\n  0x00\n  dup1\n  revert\nstop\n\nsub_0: assembly {\n        /* \"system/Wallet.sol\":597:4879  contract System_wallet is AccesControl, UUPSUpgradeable, PausableUpgradeable, ReentrancyGuardUpgradeable {... */\n      0x80\n      dup1\n      0x40\n      mstore\n      jumpi(tag_10, iszero(lt(calldatasize, 0x04)))\n    tag_11:\n      pop\n      jumpi(tag_12, iszero(calldatasize))\n        /* \"system/Wallet.sol\":4762:4771  msg.value */\n      callvalue\n        /* \"system/Wallet.sol\":4750:4760  msg.sender */\n      caller\n        /* \"system/Wallet.sol\":4727:4772  contract_received_fund(msg.sender, msg.value) */\n      0x9a910e4510aced4a032c4797a04f4c9b32316bcde4dfc60c7c73d88f936428c8\n      0x00\n      dup1\n      log3\n        /* \"system/Wallet.sol\":597:4879  contract System_wallet is AccesControl, UUPSUpgradeable, PausableUpgradeable, ReentrancyGuardUpgradeable {... */\n      stop\n    tag_12:\n        /* \"system/Wallet.sol\":4762:4771  msg.value */\n      callvalue\n        /* \"system/Wallet.sol\":4750:4760  msg.sender */\n      caller\n        /* \"system/Wallet.sol\":4727:4772  contract_received_fund(msg.sender, msg.value) */\n      0x9a910e4510aced4a032c4797a04f4c9b32316bcde4dfc60c7c73d88f936428c8\n      0x00\n      dup1\n      log3\n        /* \"system/Wallet.sol\":597:4879  contract System_wallet is AccesControl, UUPSUpgradeable, PausableUpgradeable, ReentrancyGuardUpgradeable {... */\n      stop\n    tag_10:\n      shr(0xe0, calldataload(0x00))\n      swap1\n      dup2\n      0x13007d55\n      eq\n      tag_14\n      jumpi\n      pop\n      dup1\n      0x3f4ba83a\n      eq\n      tag_16\n      jumpi\n      dup1\n      0x4f1ef286\n      eq\n      tag_18\n      jumpi\n      dup1\n      0x52d1902d\n      eq\n      tag_20\n      jumpi\n      dup1\n      0x5c975abb\n      eq\n      tag_22\n      jumpi\n      dup1\n      0x8456cb59\n      eq\n      tag_24\n      jumpi\n      dup1\n      0x9387730c\n      eq\n      tag_26\n      jumpi\n      dup1\n      0xa9059cbb\n      eq\n      tag_28\n      jumpi\n      dup1\n      0xad3cb1cc\n      eq\n      tag_30\n      jumpi\n      0xc4d66de8\n      eq\n      tag_32\n      jumpi\n      0x00\n      jump(tag_11)\n    tag_32:\n      jumpi(tag_36, callvalue)\n      jumpi(tag_36, slt(add(not(0x03), calldatasize), 0x20))\n      tag_38\n      tag_1\n      jump\t// in\n    tag_38:\n      mload(0x00)\n      codecopy(0x00, data_e28a5566b8a884201ab44e2d991177ce8b88325e02e52cbc3da6e67b3ecf29c6, 0x20)\n      mload(0x00)\n      swap1\n      0x00\n      mstore\n      sload\n      swap1\n      0xff\n      dup3\n      0x40\n      shr\n      and\n        /* \"@openzeppelin/contracts-upgradeable/proxy/utils/Initializable.sol\":4301:4317  !$._initializing */\n      iszero\n        /* \"system/Wallet.sol\":597:4879  contract System_wallet is AccesControl, UUPSUpgradeable, PausableUpgradeable, ReentrancyGuardUpgradeable {... */\n      swap2\n      0xffffffffffffffff\n      dup2\n      and\n        /* \"@openzeppelin/contracts-upgradeable/proxy/utils/Initializable.sol\":4724:4740  initialized == 0 */\n      dup1\n      iszero\n        /* \"@openzeppelin/contracts-upgradeable/proxy/utils/Initializable.sol\":4724:4758  initialized == 0 && isTopLevelCall */\n      swap1\n      dup2\n      tag_39\n      jumpi\n        /* \"system/Wallet.sol\":597:4879  contract System_wallet is AccesControl, UUPSUpgradeable, PausableUpgradeable, ReentrancyGuardUpgradeable {... */\n    tag_40:\n        /* \"@openzeppelin/contracts-upgradeable/proxy/utils/Initializable.sol\":4803:4804  1 */\n      0x01\n        /* \"@openzeppelin/contracts-upgradeable/proxy/utils/Initializable.sol\":4788:4804  initialized == 1 */\n      eq\n        /* \"@openzeppelin/contracts-upgradeable/proxy/utils/Initializable.sol\":4788:4838  initialized == 1 && address(this).code.length == 0 */\n      swap1\n      dup2\n      tag_41\n      jumpi\n        /* \"system/Wallet.sol\":597:4879  contract System_wallet is AccesControl, UUPSUpgradeable, PausableUpgradeable, ReentrancyGuardUpgradeable {... */\n    tag_42:\n        /* \"@openzeppelin/contracts-upgradeable/proxy/utils/Initializable.sol\":4853:4866  !initialSetup */\n      iszero\n        /* \"@openzeppelin/contracts-upgradeable/proxy/utils/Initializable.sol\":4853:4883  !initialSetup && !construction */\n      swap1\n      dup2\n      tag_43\n      jumpi\n        /* \"system/Wallet.sol\":597:4879  contract System_wallet is AccesControl, UUPSUpgradeable, PausableUpgradeable, ReentrancyGuardUpgradeable {... */\n    tag_44:\n        /* \"@openzeppelin/contracts-upgradeable/proxy/utils/Initializable.sol\":4849:4940  if (!initialSetup && !construction) {... */\n      pop\n      tag_45\n      jumpi\n      not(0xffffffffffffffff)\n        /* \"system/Wallet.sol\":597:4879  contract System_wallet is AccesControl, UUPSUpgradeable, PausableUpgradeable, ReentrancyGuardUpgradeable {... */\n      dup2\n      and\n        /* \"@openzeppelin/contracts-upgradeable/proxy/utils/Initializable.sol\":4803:4804  1 */\n      0x01\n        /* \"system/Wallet.sol\":597:4879  contract System_wallet is AccesControl, UUPSUpgradeable, PausableUpgradeable, ReentrancyGuardUpgradeable {... */\n      or\n      mload(0x00)\n      codecopy(0x00, data_e28a5566b8a884201ab44e2d991177ce8b88325e02e52cbc3da6e67b3ecf29c6, 0x20)\n      mload(0x00)\n      swap1\n      0x00\n      mstore\n      sstore\n      dup3\n        /* \"@openzeppelin/contracts-upgradeable/proxy/utils/Initializable.sol\":4977:5044  if (isTopLevelCall) {... */\n      tag_47\n      jumpi\n        /* \"system/Wallet.sol\":597:4879  contract System_wallet is AccesControl, UUPSUpgradeable, PausableUpgradeable, ReentrancyGuardUpgradeable {... */\n    tag_48:\n        /* \"system/Wallet.sol\":2088:2102  _accessControl */\n      pop\n      tag_49\n      dup2\n      tag_7\n      jump\t// in\n    tag_49:\n        /* \"@openzeppelin/contracts-upgradeable/proxy/utils/Initializable.sol\":6891:6967  modifier onlyInitializing() {... */\n      tag_50\n      tag_8\n      jump\t// in\n    tag_50:\n      tag_51\n      tag_8\n      jump\t// in\n    tag_51:\n      tag_52\n      tag_8\n      jump\t// in\n    tag_52:\n        /* \"@openzeppelin/contracts-upgradeable/proxy/utils/Initializable.sol\":4803:4804  1 */\n      0x01\n      mload(0x00)\n      codecopy(0x00, data_c8669cf8eaf883002b9f48e28846a8d408c9b58ea6613bace374265e43c9bc43, 0x20)\n      mload(0x00)\n      swap1\n      0x00\n      mstore\n        /* \"@openzeppelin/contracts-upgradeable/utils/ReentrancyGuardUpgradeable.sol\":1991:1992  2 */\n      sstore\n        /* \"system/Wallet.sol\":597:4879  contract System_wallet is AccesControl, UUPSUpgradeable, PausableUpgradeable, ReentrancyGuardUpgradeable {... */\n      0x01\n      dup1\n      0xa0\n      shl\n      sub\n      and\n      and(sload(0x00), shl(0xa0, 0xffffffffffffffffffffffff))\n      or\n      0x00\n      sstore\n        /* \"@openzeppelin/contracts-upgradeable/proxy/utils/Initializable.sol\":5064:5165  if (isTopLevelCall) {... */\n      tag_53\n      jumpi\n        /* \"system/Wallet.sol\":597:4879  contract System_wallet is AccesControl, UUPSUpgradeable, PausableUpgradeable, ReentrancyGuardUpgradeable {... */\n      stop\n        /* \"@openzeppelin/contracts-upgradeable/proxy/utils/Initializable.sol\":5064:5165  if (isTopLevelCall) {... */\n    tag_53:\n        /* \"system/Wallet.sol\":597:4879  contract System_wallet is AccesControl, UUPSUpgradeable, PausableUpgradeable, ReentrancyGuardUpgradeable {... */\n      not(0xff0000000000000000)\n      mload(0x00)\n      codecopy(0x00, data_e28a5566b8a884201ab44e2d991177ce8b88325e02e52cbc3da6e67b3ecf29c6, 0x20)\n      mload(0x00)\n      swap1\n      0x00\n      mstore\n      sload\n      and\n      mload(0x00)\n      codecopy(0x00, data_e28a5566b8a884201ab44e2d991177ce8b88325e02e52cbc3da6e67b3ecf29c6, 0x20)\n      mload(0x00)\n      swap1\n      0x00\n      mstore\n      sstore\n        /* \"@openzeppelin/contracts-upgradeable/proxy/utils/Initializable.sol\":5140:5154  Initialized(1) */\n      0xc7f505b2f371ae2175ee4913f4499e1f2633a7b5936321eed1cdaeb6115181d2\n        /* \"system/Wallet.sol\":597:4879  contract System_wallet is AccesControl, UUPSUpgradeable, PausableUpgradeable, ReentrancyGuardUpgradeable {... */\n      0x20\n      mload(0x40)\n        /* \"@openzeppelin/contracts-upgradeable/proxy/utils/Initializable.sol\":4803:4804  1 */\n      0x01\n        /* \"system/Wallet.sol\":597:4879  contract System_wallet is AccesControl, UUPSUpgradeable, PausableUpgradeable, ReentrancyGuardUpgradeable {... */\n      dup2\n      mstore\n        /* \"@openzeppelin/contracts-upgradeable/proxy/utils/Initializable.sol\":5140:5154  Initialized(1) */\n      log1\n        /* \"system/Wallet.sol\":597:4879  contract System_wallet is AccesControl, UUPSUpgradeable, PausableUpgradeable, ReentrancyGuardUpgradeable {... */\n      stop\n        /* \"@openzeppelin/contracts-upgradeable/proxy/utils/Initializable.sol\":4977:5044  if (isTopLevelCall) {... */\n    tag_47:\n      not(0xffffffffffffffffff)\n        /* \"system/Wallet.sol\":597:4879  contract System_wallet is AccesControl, UUPSUpgradeable, PausableUpgradeable, ReentrancyGuardUpgradeable {... */\n      and\n      0x010000000000000001\n      or\n      mload(0x00)\n      codecopy(0x00, data_e28a5566b8a884201ab44e2d991177ce8b88325e02e52cbc3da6e67b3ecf29c6, 0x20)\n      mload(0x00)\n      swap1\n      0x00\n      mstore\n      sstore\n        /* \"@openzeppelin/contracts-upgradeable/proxy/utils/Initializable.sol\":4977:5044  if (isTopLevelCall) {... */\n      0x00\n      jump(tag_48)\n        /* \"@openzeppelin/contracts-upgradeable/proxy/utils/Initializable.sol\":4849:4940  if (!initialSetup && !construction) {... */\n    tag_45:\n        /* \"@openzeppelin/contracts-upgradeable/proxy/utils/Initializable.sol\":4906:4929  InvalidInitialization() */\n      shl(0xe0, 0xf92ee8a9)\n        /* \"system/Wallet.sol\":597:4879  contract System_wallet is AccesControl, UUPSUpgradeable, PausableUpgradeable, ReentrancyGuardUpgradeable {... */\n      0x00\n        /* \"@openzeppelin/contracts-upgradeable/proxy/utils/Initializable.sol\":4906:4929  InvalidInitialization() */\n      mstore\n        /* \"system/Wallet.sol\":597:4879  contract System_wallet is AccesControl, UUPSUpgradeable, PausableUpgradeable, ReentrancyGuardUpgradeable {... */\n      0x04\n      0x00\n        /* \"@openzeppelin/contracts-upgradeable/proxy/utils/Initializable.sol\":4906:4929  InvalidInitialization() */\n      revert\n        /* \"@openzeppelin/contracts-upgradeable/proxy/utils/Initializable.sol\":4853:4883  !initialSetup && !construction */\n    tag_43:\n        /* \"@openzeppelin/contracts-upgradeable/proxy/utils/Initializable.sol\":4870:4883  !construction */\n      swap1\n      pop\n      iszero\n        /* \"@openzeppelin/contracts-upgradeable/proxy/utils/Initializable.sol\":4853:4883  !initialSetup && !construction */\n      0x00\n      jump(tag_44)\n        /* \"@openzeppelin/contracts-upgradeable/proxy/utils/Initializable.sol\":4788:4838  initialized == 1 && address(this).code.length == 0 */\n    tag_41:\n        /* \"@openzeppelin/contracts-upgradeable/proxy/utils/Initializable.sol\":4816:4820  this */\n      address\n        /* \"@openzeppelin/contracts-upgradeable/proxy/utils/Initializable.sol\":4808:4833  address(this).code.length */\n      extcodesize\n        /* \"@openzeppelin/contracts-upgradeable/proxy/utils/Initializable.sol\":4808:4838  address(this).code.length == 0 */\n      iszero\n      swap2\n      pop\n        /* \"@openzeppelin/contracts-upgradeable/proxy/utils/Initializable.sol\":4788:4838  initialized == 1 && address(this).code.length == 0 */\n      jump(tag_42)\n        /* \"@openzeppelin/contracts-upgradeable/proxy/utils/Initializable.sol\":4724:4758  initialized == 0 && isTopLevelCall */\n    tag_39:\n      dup5\n      swap2\n      pop\n      jump(tag_40)\n        /* \"system/Wallet.sol\":597:4879  contract System_wallet is AccesControl, UUPSUpgradeable, PausableUpgradeable, ReentrancyGuardUpgradeable {... */\n    tag_36:\n      0x00\n      dup1\n      revert\n    tag_30:\n      jumpi(tag_36, callvalue)\n      jumpi(tag_36, slt(add(not(0x03), calldatasize), 0x00))\n      0x40\n      dup1\n      mload\n      swap1\n      tag_59\n      dup2\n      dup4\n      tag_2\n      jump\t// in\n    tag_59:\n      0x05\n      dup3\n      mstore\n      0x20\n      dup3\n      add\n      swap2\n      shl(0xdc, 0x0352e302e3)\n      dup4\n      mstore\n      dup2\n      mload\n      swap3\n      dup4\n      swap2\n      0x20\n      dup4\n      mstore\n      mload\n      dup1\n      swap2\n      dup2\n      0x20\n      dup6\n      add\n      mstore\n      dup5\n      dup5\n      add\n      mcopy\n      0x00\n      dup3\n      dup3\n      add\n      dup5\n      add\n      mstore\n      0x1f\n      add\n      not(0x1f)\n      and\n      dup2\n      add\n      sub\n      add\n      swap1\n      return\n    tag_28:\n      jumpi(tag_36, callvalue)\n      jumpi(tag_36, slt(add(not(0x03), calldatasize), 0x40))\n      calldataload(0x04)\n      sub(shl(0xa0, 0x01), 0x01)\n      dup2\n      and\n      swap1\n      dup2\n      swap1\n      sub\n      tag_36\n      jumpi\n      sload(0x00)\n      mload(0x40)\n      shl(0xe0, 0x8da5cb5b)\n        /* \"Pipe/AccesControlPipes.sol\":1523:1544  accessControl.owner() */\n      dup2\n      mstore\n        /* \"system/Wallet.sol\":597:4879  contract System_wallet is AccesControl, UUPSUpgradeable, PausableUpgradeable, ReentrancyGuardUpgradeable {... */\n      calldataload(0x24)\n      swap3\n      swap2\n      0x20\n      swap1\n      dup3\n      swap1\n      0x04\n      swap1\n      dup3\n      swap1\n      sub(shl(0xa0, 0x01), 0x01)\n      and\n        /* \"Pipe/AccesControlPipes.sol\":1523:1544  accessControl.owner() */\n      gas\n      staticcall\n      dup1\n      iszero\n      tag_66\n      jumpi\n        /* \"Pipe/AccesControlPipes.sol\":1501:1558  require(msg.sender == accessControl.owner(), \"Not owner\") */\n      tag_68\n        /* \"Pipe/AccesControlPipes.sol\":1523:1544  accessControl.owner() */\n      swap2\n        /* \"system/Wallet.sol\":597:4879  contract System_wallet is AccesControl, UUPSUpgradeable, PausableUpgradeable, ReentrancyGuardUpgradeable {... */\n      0x00\n        /* \"Pipe/AccesControlPipes.sol\":1523:1544  accessControl.owner() */\n      swap2\n      tag_69\n      jumpi\n        /* \"system/Wallet.sol\":597:4879  contract System_wallet is AccesControl, UUPSUpgradeable, PausableUpgradeable, ReentrancyGuardUpgradeable {... */\n    tag_70:\n      pop\n      sub(shl(0xa0, 0x01), 0x01)\n      and\n        /* \"Pipe/AccesControlPipes.sol\":1509:1519  msg.sender */\n      caller\n        /* \"Pipe/AccesControlPipes.sol\":1509:1544  msg.sender == accessControl.owner() */\n      eq\n        /* \"Pipe/AccesControlPipes.sol\":1501:1558  require(msg.sender == accessControl.owner(), \"Not owner\") */\n      tag_5\n      jump\t// in\n    tag_68:\n        /* \"@openzeppelin/contracts-upgradeable/utils/ReentrancyGuardUpgradeable.sol\":1991:1992  2 */\n      0x02\n      mload(0x00)\n      codecopy(0x00, data_c8669cf8eaf883002b9f48e28846a8d408c9b58ea6613bace374265e43c9bc43, 0x20)\n      mload(0x00)\n      swap1\n      0x00\n      mstore\n        /* \"system/Wallet.sol\":597:4879  contract System_wallet is AccesControl, UUPSUpgradeable, PausableUpgradeable, ReentrancyGuardUpgradeable {... */\n      sload\n        /* \"@openzeppelin/contracts-upgradeable/utils/ReentrancyGuardUpgradeable.sol\":3670:3690  $._status == ENTERED */\n      eq\n        /* \"@openzeppelin/contracts-upgradeable/utils/ReentrancyGuardUpgradeable.sol\":3666:3754  if ($._status == ENTERED) {... */\n      tag_71\n      jumpi\n        /* \"@openzeppelin/contracts-upgradeable/utils/ReentrancyGuardUpgradeable.sol\":1991:1992  2 */\n      0x02\n      mload(0x00)\n      codecopy(0x00, data_c8669cf8eaf883002b9f48e28846a8d408c9b58ea6613bace374265e43c9bc43, 0x20)\n      mload(0x00)\n      swap1\n      0x00\n      mstore\n      sstore\n        /* \"Pipe/AccesControlPipes.sol\":1509:1519  msg.sender */\n      caller\n        /* \"Pipe/AccesControlPipes.sol\":2804:2828  msg.sender != address(0) */\n      iszero\n        /* \"system/Wallet.sol\":597:4879  contract System_wallet is AccesControl, UUPSUpgradeable, PausableUpgradeable, ReentrancyGuardUpgradeable {... */\n      tag_73\n      jumpi\n        /* \"system/Wallet.sol\":2833:2850  _to == address(0) */\n      dup1\n      iszero\n        /* \"system/Wallet.sol\":2829:2872  if (_to == address(0)) revert ZeroAddress() */\n      tag_75\n      jumpi\n        /* \"system/Wallet.sol\":2948:2969  address(this).balance */\n      dup2\n      selfbalance\n        /* \"system/Wallet.sol\":2948:2979  address(this).balance < _amount */\n      lt\n        /* \"system/Wallet.sol\":2944:3221  if (address(this).balance < _amount){... */\n      0x00\n        /* \"system/Wallet.sol\":2948:2979  address(this).balance < _amount */\n      eq\n      tag_77\n      jumpi\n        /* \"system/Wallet.sol\":3002:3021  InsufficientFunds() */\n      shl(0xe0, 0x356680b7)\n        /* \"system/Wallet.sol\":597:4879  contract System_wallet is AccesControl, UUPSUpgradeable, PausableUpgradeable, ReentrancyGuardUpgradeable {... */\n      0x00\n        /* \"system/Wallet.sol\":3002:3021  InsufficientFunds() */\n      mstore\n        /* \"system/Wallet.sol\":597:4879  contract System_wallet is AccesControl, UUPSUpgradeable, PausableUpgradeable, ReentrancyGuardUpgradeable {... */\n      0x04\n      0x00\n        /* \"system/Wallet.sol\":3002:3021  InsufficientFunds() */\n      revert\n        /* \"system/Wallet.sol\":2944:3221  if (address(this).balance < _amount){... */\n    tag_77:\n        /* \"system/Wallet.sol\":597:4879  contract System_wallet is AccesControl, UUPSUpgradeable, PausableUpgradeable, ReentrancyGuardUpgradeable {... */\n      0x00\n        /* \"system/Wallet.sol\":3131:3159  _to.call{value: _amount}(\"\") */\n      dup1\n      dup1\n      dup1\n      dup6\n      dup6\n      gas\n      call\n      tag_79\n      tag_6\n      jump\t// in\n    tag_79:\n      pop\n        /* \"system/Wallet.sol\":597:4879  contract System_wallet is AccesControl, UUPSUpgradeable, PausableUpgradeable, ReentrancyGuardUpgradeable {... */\n      iszero\n      tag_80\n      jumpi\n        /* \"system/Wallet.sol\":3289:3327  contract_transfered_fund(_to, _amount) */\n      0xae538a1b9462f6288da1c1912c6d7e22fc226dff723d1cc897cfc7727255ea70\n        /* \"system/Wallet.sol\":597:4879  contract System_wallet is AccesControl, UUPSUpgradeable, PausableUpgradeable, ReentrancyGuardUpgradeable {... */\n      0x00\n        /* \"system/Wallet.sol\":3289:3327  contract_transfered_fund(_to, _amount) */\n      dup1\n      log3\n        /* \"system/Wallet.sol\":597:4879  contract System_wallet is AccesControl, UUPSUpgradeable, PausableUpgradeable, ReentrancyGuardUpgradeable {... */\n      0x01\n      mload(0x00)\n      codecopy(0x00, data_c8669cf8eaf883002b9f48e28846a8d408c9b58ea6613bace374265e43c9bc43, 0x20)\n      mload(0x00)\n      swap1\n      0x00\n      mstore\n        /* \"@openzeppelin/contracts-upgradeable/utils/ReentrancyGuardUpgradeable.sol\":1991:1992  2 */\n      sstore\n        /* \"system/Wallet.sol\":597:4879  contract System_wallet is AccesControl, UUPSUpgradeable, PausableUpgradeable, ReentrancyGuardUpgradeable {... */\n      stop\n    tag_80:\n      mload(0x40)\n      shl(0xe5, 0x461bcd)\n      dup2\n      mstore\n      0x20\n      0x04\n      dup3\n      add\n      mstore\n      0x0f\n      0x24\n      dup3\n      add\n      mstore\n      shl(0x8a, 0x1d1c985b9cd9995c8819985a5b1959)\n      0x44\n      dup3\n      add\n      mstore\n      0x64\n      swap1\n      revert\n        /* \"system/Wallet.sol\":2829:2872  if (_to == address(0)) revert ZeroAddress() */\n    tag_75:\n        /* \"system/Wallet.sol\":2859:2872  ZeroAddress() */\n      shl(0xe0, 0xd92e233d)\n        /* \"system/Wallet.sol\":597:4879  contract System_wallet is AccesControl, UUPSUpgradeable, PausableUpgradeable, ReentrancyGuardUpgradeable {... */\n      0x00\n        /* \"system/Wallet.sol\":2859:2872  ZeroAddress() */\n      mstore\n        /* \"system/Wallet.sol\":597:4879  contract System_wallet is AccesControl, UUPSUpgradeable, PausableUpgradeable, ReentrancyGuardUpgradeable {... */\n      0x04\n      0x00\n        /* \"system/Wallet.sol\":2859:2872  ZeroAddress() */\n      revert\n        /* \"system/Wallet.sol\":597:4879  contract System_wallet is AccesControl, UUPSUpgradeable, PausableUpgradeable, ReentrancyGuardUpgradeable {... */\n    tag_73:\n      mload(0x40)\n      shl(0xe5, 0x461bcd)\n      dup2\n      mstore\n      0x20\n      0x04\n      dup3\n      add\n      mstore\n      0x1d\n      0x24\n      dup3\n      add\n      mstore\n      0x63616c6c65722069732063616e74206265207a65726f20616464722021000000\n      0x44\n      dup3\n      add\n      mstore\n      0x64\n      swap1\n      revert\n        /* \"@openzeppelin/contracts-upgradeable/utils/ReentrancyGuardUpgradeable.sol\":3666:3754  if ($._status == ENTERED) {... */\n    tag_71:\n        /* \"@openzeppelin/contracts-upgradeable/utils/ReentrancyGuardUpgradeable.sol\":3713:3743  ReentrancyGuardReentrantCall() */\n      shl(0xe0, 0x3ee5aeb5)\n        /* \"system/Wallet.sol\":597:4879  contract System_wallet is AccesControl, UUPSUpgradeable, PausableUpgradeable, ReentrancyGuardUpgradeable {... */\n      0x00\n        /* \"@openzeppelin/contracts-upgradeable/utils/ReentrancyGuardUpgradeable.sol\":3713:3743  ReentrancyGuardReentrantCall() */\n      mstore\n        /* \"system/Wallet.sol\":597:4879  contract System_wallet is AccesControl, UUPSUpgradeable, PausableUpgradeable, ReentrancyGuardUpgradeable {... */\n      0x04\n      0x00\n        /* \"@openzeppelin/contracts-upgradeable/utils/ReentrancyGuardUpgradeable.sol\":3713:3743  ReentrancyGuardReentrantCall() */\n      revert\n        /* \"Pipe/AccesControlPipes.sol\":1523:1544  accessControl.owner() */\n    tag_69:\n      tag_82\n      swap2\n      pop\n        /* \"system/Wallet.sol\":597:4879  contract System_wallet is AccesControl, UUPSUpgradeable, PausableUpgradeable, ReentrancyGuardUpgradeable {... */\n      0x20\n        /* \"Pipe/AccesControlPipes.sol\":1523:1544  accessControl.owner() */\n      returndatasize\n        /* \"system/Wallet.sol\":597:4879  contract System_wallet is AccesControl, UUPSUpgradeable, PausableUpgradeable, ReentrancyGuardUpgradeable {... */\n      0x20\n        /* \"Pipe/AccesControlPipes.sol\":1523:1544  accessControl.owner() */\n      gt\n      tag_83\n      jumpi\n    tag_84:\n      tag_85\n      dup2\n      dup4\n      tag_2\n      jump\t// in\n    tag_85:\n      dup2\n      add\n      swap1\n      tag_4\n      jump\t// in\n    tag_82:\n      dup5\n      jump(tag_70)\n    tag_83:\n      pop\n      returndatasize\n      jump(tag_84)\n    tag_66:\n        /* \"system/Wallet.sol\":597:4879  contract System_wallet is AccesControl, UUPSUpgradeable, PausableUpgradeable, ReentrancyGuardUpgradeable {... */\n      mload(0x40)\n      returndatasize\n      0x00\n      dup3\n      returndatacopy\n      returndatasize\n      swap1\n      revert\n    tag_26:\n      jumpi(tag_36, callvalue)\n      jumpi(tag_36, slt(add(not(0x03), calldatasize), 0x20))\n      tag_90\n      tag_1\n      jump\t// in\n    tag_90:\n      sload(0x00)\n      mload(0x40)\n      shl(0xe0, 0x8da5cb5b)\n        /* \"Pipe/AccesControlPipes.sol\":1523:1544  accessControl.owner() */\n      dup2\n      mstore\n        /* \"system/Wallet.sol\":597:4879  contract System_wallet is AccesControl, UUPSUpgradeable, PausableUpgradeable, ReentrancyGuardUpgradeable {... */\n      swap2\n      swap1\n      0x20\n      dup4\n      0x04\n      dup2\n      sub(shl(0xa0, 0x01), 0x01)\n      dup6\n      and\n        /* \"Pipe/AccesControlPipes.sol\":1523:1544  accessControl.owner() */\n      gas\n      staticcall\n      swap2\n      dup3\n      iszero\n      tag_66\n      jumpi\n        /* \"Pipe/AccesControlPipes.sol\":1501:1558  require(msg.sender == accessControl.owner(), \"Not owner\") */\n      tag_93\n        /* \"system/Wallet.sol\":597:4879  contract System_wallet is AccesControl, UUPSUpgradeable, PausableUpgradeable, ReentrancyGuardUpgradeable {... */\n      0x20\n        /* \"Pipe/AccesControlPipes.sol\":1523:1544  accessControl.owner() */\n      swap4\n        /* \"system/Wallet.sol\":3533:3571  AccessControlChanged(_newAccesControl) */\n      0x497acaa34ac19c2a2a579ad43eca493b4fea820459e254e9383e7dda216b0f04\n        /* \"Pipe/AccesControlPipes.sol\":1523:1544  accessControl.owner() */\n      swap6\n        /* \"system/Wallet.sol\":597:4879  contract System_wallet is AccesControl, UUPSUpgradeable, PausableUpgradeable, ReentrancyGuardUpgradeable {... */\n      0x00\n        /* \"Pipe/AccesControlPipes.sol\":1523:1544  accessControl.owner() */\n      swap2\n      tag_94\n      jumpi\n      pop\n      sub(shl(0xa0, 0x01), 0x01)\n        /* \"system/Wallet.sol\":597:4879  contract System_wallet is AccesControl, UUPSUpgradeable, PausableUpgradeable, ReentrancyGuardUpgradeable {... */\n      and\n        /* \"Pipe/AccesControlPipes.sol\":1509:1519  msg.sender */\n      caller\n        /* \"Pipe/AccesControlPipes.sol\":1509:1544  msg.sender == accessControl.owner() */\n      eq\n        /* \"Pipe/AccesControlPipes.sol\":1501:1558  require(msg.sender == accessControl.owner(), \"Not owner\") */\n      tag_5\n      jump\t// in\n    tag_93:\n        /* \"system/Wallet.sol\":3441:3457  _newAccesControl */\n      tag_96\n      dup2\n      tag_7\n      jump\t// in\n    tag_96:\n      sub(shl(0xa0, 0x01), 0x01)\n        /* \"system/Wallet.sol\":597:4879  contract System_wallet is AccesControl, UUPSUpgradeable, PausableUpgradeable, ReentrancyGuardUpgradeable {... */\n      and\n      not(sub(shl(0xa0, 0x01), 0x01))\n      swap2\n      swap1\n      swap2\n      and\n      dup2\n      or\n      0x00\n      sstore\n      mload(0x40)\n      swap1\n      dup2\n      mstore\n        /* \"system/Wallet.sol\":3533:3571  AccessControlChanged(_newAccesControl) */\n      log1\n        /* \"system/Wallet.sol\":597:4879  contract System_wallet is AccesControl, UUPSUpgradeable, PausableUpgradeable, ReentrancyGuardUpgradeable {... */\n      stop\n        /* \"Pipe/AccesControlPipes.sol\":1523:1544  accessControl.owner() */\n    tag_94:\n      tag_97\n      swap2\n      pop\n      dup6\n      returndatasize\n      dup8\n      gt\n      tag_83\n      jumpi\n      tag_85\n      dup2\n      dup4\n      tag_2\n      jump\t// in\n    tag_97:\n      dup7\n      jump(tag_70)\n        /* \"system/Wallet.sol\":597:4879  contract System_wallet is AccesControl, UUPSUpgradeable, PausableUpgradeable, ReentrancyGuardUpgradeable {... */\n    tag_24:\n      jumpi(tag_36, callvalue)\n      jumpi(tag_36, slt(add(not(0x03), calldatasize), 0x00))\n      sload(0x00)\n      mload(0x40)\n      shl(0xe0, 0x8da5cb5b)\n        /* \"Pipe/AccesControlPipes.sol\":1523:1544  accessControl.owner() */\n      dup2\n      mstore\n        /* \"system/Wallet.sol\":597:4879  contract System_wallet is AccesControl, UUPSUpgradeable, PausableUpgradeable, ReentrancyGuardUpgradeable {... */\n      swap1\n        /* \"Pipe/AccesControlPipes.sol\":1523:1544  accessControl.owner() */\n      0x20\n      swap1\n        /* \"system/Wallet.sol\":597:4879  contract System_wallet is AccesControl, UUPSUpgradeable, PausableUpgradeable, ReentrancyGuardUpgradeable {... */\n      dup3\n      swap1\n      0x04\n      swap1\n      dup3\n      swap1\n      sub(shl(0xa0, 0x01), 0x01)\n      and\n        /* \"Pipe/AccesControlPipes.sol\":1523:1544  accessControl.owner() */\n      gas\n      staticcall\n      dup1\n      iszero\n      tag_66\n      jumpi\n        /* \"Pipe/AccesControlPipes.sol\":1501:1558  require(msg.sender == accessControl.owner(), \"Not owner\") */\n      tag_107\n        /* \"Pipe/AccesControlPipes.sol\":1523:1544  accessControl.owner() */\n      swap2\n        /* \"system/Wallet.sol\":597:4879  contract System_wallet is AccesControl, UUPSUpgradeable, PausableUpgradeable, ReentrancyGuardUpgradeable {... */\n      0x00\n        /* \"Pipe/AccesControlPipes.sol\":1523:1544  accessControl.owner() */\n      swap2\n      tag_108\n      jumpi\n      pop\n      sub(shl(0xa0, 0x01), 0x01)\n        /* \"system/Wallet.sol\":597:4879  contract System_wallet is AccesControl, UUPSUpgradeable, PausableUpgradeable, ReentrancyGuardUpgradeable {... */\n      and\n        /* \"Pipe/AccesControlPipes.sol\":1509:1519  msg.sender */\n      caller\n        /* \"Pipe/AccesControlPipes.sol\":1509:1544  msg.sender == accessControl.owner() */\n      eq\n        /* \"Pipe/AccesControlPipes.sol\":1501:1558  require(msg.sender == accessControl.owner(), \"Not owner\") */\n      tag_5\n      jump\t// in\n    tag_107:\n      mload(0x00)\n      codecopy(0x00, data_c0c65a3718f3702d917c44106b91645b509d2e2d0979b70495c3babce192339f, 0x20)\n      mload(0x00)\n      swap1\n      0x00\n      mstore\n        /* \"system/Wallet.sol\":597:4879  contract System_wallet is AccesControl, UUPSUpgradeable, PausableUpgradeable, ReentrancyGuardUpgradeable {... */\n      sload\n      0xff\n      dup2\n      and\n        /* \"@openzeppelin/contracts-upgradeable/utils/PausableUpgradeable.sol\":2770:2831  if (paused()) {... */\n      tag_110\n      jumpi\n        /* \"@openzeppelin/contracts-upgradeable/utils/PausableUpgradeable.sol\":3300:3304  true */\n      0x01\n        /* \"system/Wallet.sol\":597:4879  contract System_wallet is AccesControl, UUPSUpgradeable, PausableUpgradeable, ReentrancyGuardUpgradeable {... */\n      swap1\n      not(0xff)\n      and\n      or\n      mload(0x00)\n      codecopy(0x00, data_c0c65a3718f3702d917c44106b91645b509d2e2d0979b70495c3babce192339f, 0x20)\n      mload(0x00)\n      swap1\n      0x00\n      mstore\n      sstore\n        /* \"@openzeppelin/contracts-upgradeable/utils/PausableUpgradeable.sol\":3319:3339  Paused(_msgSender()) */\n      0x62e78cea01bee320cd4e420270b5ea74000d11b0c9f74754ebdbfc544b05a258\n        /* \"Pipe/AccesControlPipes.sol\":1523:1544  accessControl.owner() */\n      0x20\n        /* \"system/Wallet.sol\":597:4879  contract System_wallet is AccesControl, UUPSUpgradeable, PausableUpgradeable, ReentrancyGuardUpgradeable {... */\n      mload(0x40)\n        /* \"Pipe/AccesControlPipes.sol\":1509:1519  msg.sender */\n      caller\n        /* \"system/Wallet.sol\":597:4879  contract System_wallet is AccesControl, UUPSUpgradeable, PausableUpgradeable, ReentrancyGuardUpgradeable {... */\n      dup2\n      mstore\n        /* \"@openzeppelin/contracts-upgradeable/utils/PausableUpgradeable.sol\":3319:3339  Paused(_msgSender()) */\n      log1\n        /* \"Pipe/AccesControlPipes.sol\":1509:1519  msg.sender */\n      caller\n        /* \"system/Wallet.sol\":3806:3832  ContractPaused(msg.sender) */\n      0x81990fd9a5c552b8e3677917d8a03c07678f0d2cb68f88b634aca2022e9bd19f\n        /* \"system/Wallet.sol\":597:4879  contract System_wallet is AccesControl, UUPSUpgradeable, PausableUpgradeable, ReentrancyGuardUpgradeable {... */\n      0x00\n        /* \"system/Wallet.sol\":3806:3832  ContractPaused(msg.sender) */\n      dup1\n      log2\n        /* \"system/Wallet.sol\":597:4879  contract System_wallet is AccesControl, UUPSUpgradeable, PausableUpgradeable, ReentrancyGuardUpgradeable {... */\n      stop\n        /* \"@openzeppelin/contracts-upgradeable/utils/PausableUpgradeable.sol\":2770:2831  if (paused()) {... */\n    tag_110:\n        /* \"@openzeppelin/contracts-upgradeable/utils/PausableUpgradeable.sol\":2805:2820  EnforcedPause() */\n      shl(0xe0, 0xd93c0665)\n        /* \"system/Wallet.sol\":597:4879  contract System_wallet is AccesControl, UUPSUpgradeable, PausableUpgradeable, ReentrancyGuardUpgradeable {... */\n      0x00\n        /* \"@openzeppelin/contracts-upgradeable/utils/PausableUpgradeable.sol\":2805:2820  EnforcedPause() */\n      mstore\n        /* \"system/Wallet.sol\":597:4879  contract System_wallet is AccesControl, UUPSUpgradeable, PausableUpgradeable, ReentrancyGuardUpgradeable {... */\n      0x04\n      0x00\n        /* \"@openzeppelin/contracts-upgradeable/utils/PausableUpgradeable.sol\":2805:2820  EnforcedPause() */\n      revert\n        /* \"Pipe/AccesControlPipes.sol\":1523:1544  accessControl.owner() */\n    tag_108:\n      tag_112\n      swap2\n      pop\n      0x20\n      jumpi(tag_83, gt(0x20, returndatasize))\n      tag_85\n      dup2\n      dup4\n      tag_2\n      jump\t// in\n    tag_112:\n      dup3\n      jump(tag_70)\n        /* \"system/Wallet.sol\":597:4879  contract System_wallet is AccesControl, UUPSUpgradeable, PausableUpgradeable, ReentrancyGuardUpgradeable {... */\n    tag_22:\n      jumpi(tag_36, callvalue)\n      jumpi(tag_36, slt(add(not(0x03), calldatasize), 0x00))\n      0x20\n      0xff\n      mload(0x00)\n      codecopy(0x00, data_c0c65a3718f3702d917c44106b91645b509d2e2d0979b70495c3babce192339f, 0x20)\n      mload(0x00)\n      swap1\n      0x00\n      mstore\n      sload\n      and\n      mload(0x40)\n      swap1\n      iszero\n      iszero\n      dup2\n      mstore\n      return\n    tag_20:\n      jumpi(tag_36, callvalue)\n      jumpi(tag_36, slt(add(not(0x03), calldatasize), 0x00))\n        /* \"@openzeppelin/contracts-upgradeable/proxy/utils/UUPSUpgradeable.sol\":5090:5096  __self */\n      immutable(\"0xbf1fcd4bbdcfbc55a741fb1df45db5ad6a5122c50e7ade06e72a5499ae322de6\")\n      sub(shl(0xa0, 0x01), 0x01)\n        /* \"system/Wallet.sol\":597:4879  contract System_wallet is AccesControl, UUPSUpgradeable, PausableUpgradeable, ReentrancyGuardUpgradeable {... */\n      and\n        /* \"@openzeppelin/contracts-upgradeable/proxy/utils/UUPSUpgradeable.sol\":5081:5085  this */\n      address\n        /* \"@openzeppelin/contracts-upgradeable/proxy/utils/UUPSUpgradeable.sol\":5073:5096  address(this) != __self */\n      sub\n        /* \"@openzeppelin/contracts-upgradeable/proxy/utils/UUPSUpgradeable.sol\":5069:5214  if (address(this) != __self) {... */\n      tag_124\n      jumpi\n        /* \"system/Wallet.sol\":597:4879  contract System_wallet is AccesControl, UUPSUpgradeable, PausableUpgradeable, ReentrancyGuardUpgradeable {... */\n      0x20\n      mload(0x40)\n      mload(0x00)\n      codecopy(0x00, data_75b20eef8615de99c108b05f0dbda081c91897128caa336d75dffb97c4132b4d, 0x20)\n      mload(0x00)\n      swap1\n      0x00\n      mstore\n      dup2\n      mstore\n      return\n        /* \"@openzeppelin/contracts-upgradeable/proxy/utils/UUPSUpgradeable.sol\":5069:5214  if (address(this) != __self) {... */\n    tag_124:\n        /* \"@openzeppelin/contracts-upgradeable/proxy/utils/UUPSUpgradeable.sol\":4844:4873  UUPSUnauthorizedCallContext() */\n      shl(0xe1, 0x703e46dd)\n        /* \"system/Wallet.sol\":597:4879  contract System_wallet is AccesControl, UUPSUpgradeable, PausableUpgradeable, ReentrancyGuardUpgradeable {... */\n      0x00\n        /* \"@openzeppelin/contracts-upgradeable/proxy/utils/UUPSUpgradeable.sol\":5174:5203  UUPSUnauthorizedCallContext() */\n      mstore\n        /* \"system/Wallet.sol\":597:4879  contract System_wallet is AccesControl, UUPSUpgradeable, PausableUpgradeable, ReentrancyGuardUpgradeable {... */\n      0x04\n      0x00\n        /* \"@openzeppelin/contracts-upgradeable/proxy/utils/UUPSUpgradeable.sol\":5174:5203  UUPSUnauthorizedCallContext() */\n      revert\n        /* \"system/Wallet.sol\":597:4879  contract System_wallet is AccesControl, UUPSUpgradeable, PausableUpgradeable, ReentrancyGuardUpgradeable {... */\n    tag_18:\n      jumpi(tag_36, slt(add(not(0x03), calldatasize), 0x40))\n      tag_128\n      tag_1\n      jump\t// in\n    tag_128:\n      calldataload(0x24)\n      swap1\n      0xffffffffffffffff\n      dup3\n      gt\n      tag_36\n      jumpi\n      calldatasize\n      0x23\n      dup4\n      add\n      slt\n      iszero\n      tag_36\n      jumpi\n      dup2\n      0x04\n      add\n      calldataload\n      swap1\n      tag_133\n      dup3\n      tag_3\n      jump\t// in\n    tag_133:\n      swap2\n      tag_134\n      mload(0x40)\n      swap4\n      dup5\n      tag_2\n      jump\t// in\n    tag_134:\n      dup1\n      dup4\n      mstore\n      0x20\n      dup4\n      add\n      swap4\n      calldatasize\n      0x24\n      dup4\n      dup4\n      add\n      add\n      gt\n      tag_36\n      jumpi\n      dup2\n      0x00\n      swap3\n      0x24\n      0x20\n      swap4\n      add\n      dup8\n      calldatacopy\n      dup5\n      add\n      add\n      mstore\n      sub(shl(0xa0, 0x01), 0x01)\n        /* \"@openzeppelin/contracts-upgradeable/proxy/utils/UUPSUpgradeable.sol\":4667:4673  __self */\n      immutable(\"0xbf1fcd4bbdcfbc55a741fb1df45db5ad6a5122c50e7ade06e72a5499ae322de6\")\n        /* \"system/Wallet.sol\":597:4879  contract System_wallet is AccesControl, UUPSUpgradeable, PausableUpgradeable, ReentrancyGuardUpgradeable {... */\n      and\n        /* \"@openzeppelin/contracts-upgradeable/proxy/utils/UUPSUpgradeable.sol\":4658:4662  this */\n      address\n        /* \"@openzeppelin/contracts-upgradeable/proxy/utils/UUPSUpgradeable.sol\":4650:4673  address(this) == __self */\n      dup2\n      eq\n      swap1\n        /* \"@openzeppelin/contracts-upgradeable/proxy/utils/UUPSUpgradeable.sol\":4650:4770  address(this) == __self || // Must be called through delegatecall... */\n      dup2\n      iszero\n      tag_137\n      jumpi\n        /* \"system/Wallet.sol\":597:4879  contract System_wallet is AccesControl, UUPSUpgradeable, PausableUpgradeable, ReentrancyGuardUpgradeable {... */\n    tag_138:\n        /* \"@openzeppelin/contracts-upgradeable/proxy/utils/UUPSUpgradeable.sol\":4633:4884  if (... */\n      pop\n      tag_124\n      jumpi\n        /* \"system/Wallet.sol\":597:4879  contract System_wallet is AccesControl, UUPSUpgradeable, PausableUpgradeable, ReentrancyGuardUpgradeable {... */\n      sload(0x00)\n      mload(0x40)\n      shl(0xe0, 0x8da5cb5b)\n        /* \"Pipe/AccesControlPipes.sol\":1523:1544  accessControl.owner() */\n      dup2\n      mstore\n        /* \"system/Wallet.sol\":597:4879  contract System_wallet is AccesControl, UUPSUpgradeable, PausableUpgradeable, ReentrancyGuardUpgradeable {... */\n      swap1\n      0x20\n      swap1\n      dup3\n      swap1\n      0x04\n      swap1\n      dup3\n      swap1\n      sub(shl(0xa0, 0x01), 0x01)\n      and\n        /* \"Pipe/AccesControlPipes.sol\":1523:1544  accessControl.owner() */\n      gas\n      staticcall\n      dup1\n      iszero\n      tag_66\n      jumpi\n        /* \"Pipe/AccesControlPipes.sol\":1501:1558  require(msg.sender == accessControl.owner(), \"Not owner\") */\n      tag_143\n        /* \"Pipe/AccesControlPipes.sol\":1523:1544  accessControl.owner() */\n      swap2\n        /* \"system/Wallet.sol\":597:4879  contract System_wallet is AccesControl, UUPSUpgradeable, PausableUpgradeable, ReentrancyGuardUpgradeable {... */\n      0x00\n        /* \"Pipe/AccesControlPipes.sol\":1523:1544  accessControl.owner() */\n      swap2\n      tag_144\n      jumpi\n      pop\n      sub(shl(0xa0, 0x01), 0x01)\n        /* \"system/Wallet.sol\":597:4879  contract System_wallet is AccesControl, UUPSUpgradeable, PausableUpgradeable, ReentrancyGuardUpgradeable {... */\n      and\n        /* \"Pipe/AccesControlPipes.sol\":1509:1519  msg.sender */\n      caller\n        /* \"Pipe/AccesControlPipes.sol\":1509:1544  msg.sender == accessControl.owner() */\n      eq\n        /* \"Pipe/AccesControlPipes.sol\":1501:1558  require(msg.sender == accessControl.owner(), \"Not owner\") */\n      tag_5\n      jump\t// in\n    tag_143:\n        /* \"system/Wallet.sol\":597:4879  contract System_wallet is AccesControl, UUPSUpgradeable, PausableUpgradeable, ReentrancyGuardUpgradeable {... */\n      mload(0x40)\n      shl(0xe0, 0x52d1902d)\n        /* \"@openzeppelin/contracts-upgradeable/proxy/utils/UUPSUpgradeable.sol\":6131:6183  IERC1822Proxiable(newImplementation).proxiableUUID() */\n      dup2\n      mstore\n      sub(shl(0xa0, 0x01), 0x01)\n        /* \"system/Wallet.sol\":597:4879  contract System_wallet is AccesControl, UUPSUpgradeable, PausableUpgradeable, ReentrancyGuardUpgradeable {... */\n      dup3\n      and\n      swap4\n      swap1\n      0x20\n      dup2\n      0x04\n      dup2\n      dup9\n        /* \"@openzeppelin/contracts-upgradeable/proxy/utils/UUPSUpgradeable.sol\":6131:6183  IERC1822Proxiable(newImplementation).proxiableUUID() */\n      gas\n      staticcall\n        /* \"system/Wallet.sol\":597:4879  contract System_wallet is AccesControl, UUPSUpgradeable, PausableUpgradeable, ReentrancyGuardUpgradeable {... */\n      0x00\n      swap2\n        /* \"@openzeppelin/contracts-upgradeable/proxy/utils/UUPSUpgradeable.sol\":6131:6183  IERC1822Proxiable(newImplementation).proxiableUUID() */\n      dup2\n      tag_146\n      jumpi\n        /* \"system/Wallet.sol\":597:4879  contract System_wallet is AccesControl, UUPSUpgradeable, PausableUpgradeable, ReentrancyGuardUpgradeable {... */\n    tag_147:\n      pop\n        /* \"@openzeppelin/contracts-upgradeable/proxy/utils/UUPSUpgradeable.sol\":6127:6564  try IERC1822Proxiable(newImplementation).proxiableUUID() returns (bytes32 slot) {... */\n      tag_148\n      jumpi\n        /* \"@openzeppelin/contracts/proxy/ERC1967/ERC1967Utils.sol\":1805:1852  ERC1967InvalidImplementation(newImplementation) */\n      dup5\n      shl(0xe0, 0x4c9c8ce3)\n        /* \"system/Wallet.sol\":597:4879  contract System_wallet is AccesControl, UUPSUpgradeable, PausableUpgradeable, ReentrancyGuardUpgradeable {... */\n      0x00\n        /* \"@openzeppelin/contracts-upgradeable/proxy/utils/UUPSUpgradeable.sol\":6493:6553  ERC1967Utils.ERC1967InvalidImplementation(newImplementation) */\n      mstore\n        /* \"system/Wallet.sol\":597:4879  contract System_wallet is AccesControl, UUPSUpgradeable, PausableUpgradeable, ReentrancyGuardUpgradeable {... */\n      0x04\n      mstore\n      0x24\n      0x00\n        /* \"@openzeppelin/contracts-upgradeable/proxy/utils/UUPSUpgradeable.sol\":6493:6553  ERC1967Utils.ERC1967InvalidImplementation(newImplementation) */\n      revert\n        /* \"@openzeppelin/contracts-upgradeable/proxy/utils/UUPSUpgradeable.sol\":6127:6564  try IERC1822Proxiable(newImplementation).proxiableUUID() returns (bytes32 slot) {... */\n    tag_148:\n        /* \"@openzeppelin/contracts-upgradeable/proxy/utils/UUPSUpgradeable.sol\":6225:6265  slot != ERC1967Utils.IMPLEMENTATION_SLOT */\n      dup1\n      mload(0x00)\n      codecopy(0x00, data_75b20eef8615de99c108b05f0dbda081c91897128caa336d75dffb97c4132b4d, 0x20)\n      mload(0x00)\n      swap1\n      0x00\n      mstore\n      dup7\n      swap3\n      sub\n        /* \"@openzeppelin/contracts-upgradeable/proxy/utils/UUPSUpgradeable.sol\":6221:6341  if (slot != ERC1967Utils.IMPLEMENTATION_SLOT) {... */\n      tag_150\n      jumpi\n        /* \"@openzeppelin/contracts/proxy/ERC1967/ERC1967Utils.sol\":1748:1777  newImplementation.code.length */\n      pop\n      dup3\n      extcodesize\n        /* \"@openzeppelin/contracts/proxy/ERC1967/ERC1967Utils.sol\":1748:1782  newImplementation.code.length == 0 */\n      iszero\n        /* \"@openzeppelin/contracts/proxy/ERC1967/ERC1967Utils.sol\":1744:1863  if (newImplementation.code.length == 0) {... */\n      tag_152\n      jumpi\n      mload(0x00)\n      codecopy(0x00, data_75b20eef8615de99c108b05f0dbda081c91897128caa336d75dffb97c4132b4d, 0x20)\n      mload(0x00)\n      swap1\n      0x00\n      mstore\n        /* \"system/Wallet.sol\":597:4879  contract System_wallet is AccesControl, UUPSUpgradeable, PausableUpgradeable, ReentrancyGuardUpgradeable {... */\n      dup1\n      sload\n      not(sub(shl(0xa0, 0x01), 0x01))\n      and\n      dup3\n      or\n      swap1\n      sstore\n        /* \"@openzeppelin/contracts/proxy/ERC1967/ERC1967Utils.sol\":2407:2443  IERC1967.Upgraded(newImplementation) */\n      0xbc7cd75a20ee27fd9adebab32041f755214dbc6bffa90cc0225b39da2e5c2d3b\n      0x00\n      dup1\n      log2\n        /* \"system/Wallet.sol\":597:4879  contract System_wallet is AccesControl, UUPSUpgradeable, PausableUpgradeable, ReentrancyGuardUpgradeable {... */\n      dup3\n      mload\n        /* \"@openzeppelin/contracts/proxy/ERC1967/ERC1967Utils.sol\":2458:2473  data.length > 0 */\n      iszero\n        /* \"@openzeppelin/contracts/proxy/ERC1967/ERC1967Utils.sol\":2458:2469  data.length */\n      tag_154\n      jumpi\n        /* \"system/Wallet.sol\":597:4879  contract System_wallet is AccesControl, UUPSUpgradeable, PausableUpgradeable, ReentrancyGuardUpgradeable {... */\n      0x00\n        /* \"@openzeppelin/contracts/utils/Address.sol\":4065:4090  target.delegatecall(data) */\n      dup1\n      swap2\n        /* \"@openzeppelin/contracts/utils/Address.sol\":4107:4162  verifyCallResultFromTarget(target, success, returndata) */\n      tag_156\n        /* \"@openzeppelin/contracts/utils/Address.sol\":4065:4090  target.delegatecall(data) */\n      swap5\n      mload\n      swap1\n      dup5\n      gas\n      delegatecall\n      tag_157\n      tag_6\n      jump\t// in\n    tag_157:\n        /* \"@openzeppelin/contracts/utils/Address.sol\":4107:4162  verifyCallResultFromTarget(target, success, returndata) */\n      swap2\n      tag_9\n      jump\t// in\n    tag_156:\n        /* \"system/Wallet.sol\":597:4879  contract System_wallet is AccesControl, UUPSUpgradeable, PausableUpgradeable, ReentrancyGuardUpgradeable {... */\n      stop\n        /* \"@openzeppelin/contracts/proxy/ERC1967/ERC1967Utils.sol\":2454:2602  if (data.length > 0) {... */\n    tag_154:\n        /* \"@openzeppelin/contracts/proxy/ERC1967/ERC1967Utils.sol\":6163:6172  msg.value */\n      pop\n      pop\n      pop\n      callvalue\n        /* \"@openzeppelin/contracts/proxy/ERC1967/ERC1967Utils.sol\":6159:6229  if (msg.value > 0) {... */\n      tag_159\n      jumpi\n        /* \"system/Wallet.sol\":597:4879  contract System_wallet is AccesControl, UUPSUpgradeable, PausableUpgradeable, ReentrancyGuardUpgradeable {... */\n      stop\n        /* \"@openzeppelin/contracts/proxy/ERC1967/ERC1967Utils.sol\":6159:6229  if (msg.value > 0) {... */\n    tag_159:\n        /* \"@openzeppelin/contracts/proxy/ERC1967/ERC1967Utils.sol\":6199:6218  ERC1967NonPayable() */\n      shl(0xe0, 0xb398979f)\n        /* \"system/Wallet.sol\":597:4879  contract System_wallet is AccesControl, UUPSUpgradeable, PausableUpgradeable, ReentrancyGuardUpgradeable {... */\n      0x00\n        /* \"@openzeppelin/contracts/proxy/ERC1967/ERC1967Utils.sol\":6199:6218  ERC1967NonPayable() */\n      mstore\n        /* \"system/Wallet.sol\":597:4879  contract System_wallet is AccesControl, UUPSUpgradeable, PausableUpgradeable, ReentrancyGuardUpgradeable {... */\n      0x04\n      0x00\n        /* \"@openzeppelin/contracts/proxy/ERC1967/ERC1967Utils.sol\":6199:6218  ERC1967NonPayable() */\n      revert\n        /* \"@openzeppelin/contracts/proxy/ERC1967/ERC1967Utils.sol\":1744:1863  if (newImplementation.code.length == 0) {... */\n    tag_152:\n        /* \"@openzeppelin/contracts/proxy/ERC1967/ERC1967Utils.sol\":1805:1852  ERC1967InvalidImplementation(newImplementation) */\n      shl(0xe0, 0x4c9c8ce3)\n        /* \"system/Wallet.sol\":597:4879  contract System_wallet is AccesControl, UUPSUpgradeable, PausableUpgradeable, ReentrancyGuardUpgradeable {... */\n      0x00\n        /* \"@openzeppelin/contracts/proxy/ERC1967/ERC1967Utils.sol\":1805:1852  ERC1967InvalidImplementation(newImplementation) */\n      mstore\n        /* \"system/Wallet.sol\":597:4879  contract System_wallet is AccesControl, UUPSUpgradeable, PausableUpgradeable, ReentrancyGuardUpgradeable {... */\n      0x04\n      mstore\n      0x24\n      0x00\n        /* \"@openzeppelin/contracts/proxy/ERC1967/ERC1967Utils.sol\":1805:1852  ERC1967InvalidImplementation(newImplementation) */\n      revert\n        /* \"@openzeppelin/contracts-upgradeable/proxy/utils/UUPSUpgradeable.sol\":6221:6341  if (slot != ERC1967Utils.IMPLEMENTATION_SLOT) {... */\n    tag_150:\n        /* \"@openzeppelin/contracts-upgradeable/proxy/utils/UUPSUpgradeable.sol\":6292:6326  UUPSUnsupportedProxiableUUID(slot) */\n      shl(0xe2, 0x2a875269)\n        /* \"system/Wallet.sol\":597:4879  contract System_wallet is AccesControl, UUPSUpgradeable, PausableUpgradeable, ReentrancyGuardUpgradeable {... */\n      0x00\n        /* \"@openzeppelin/contracts-upgradeable/proxy/utils/UUPSUpgradeable.sol\":6292:6326  UUPSUnsupportedProxiableUUID(slot) */\n      mstore\n        /* \"system/Wallet.sol\":597:4879  contract System_wallet is AccesControl, UUPSUpgradeable, PausableUpgradeable, ReentrancyGuardUpgradeable {... */\n      0x04\n      mstore\n      0x24\n      0x00\n        /* \"@openzeppelin/contracts-upgradeable/proxy/utils/UUPSUpgradeable.sol\":6292:6326  UUPSUnsupportedProxiableUUID(slot) */\n      revert\n        /* \"@openzeppelin/contracts-upgradeable/proxy/utils/UUPSUpgradeable.sol\":6131:6183  IERC1822Proxiable(newImplementation).proxiableUUID() */\n    tag_146:\n      swap1\n      swap2\n      pop\n        /* \"system/Wallet.sol\":597:4879  contract System_wallet is AccesControl, UUPSUpgradeable, PausableUpgradeable, ReentrancyGuardUpgradeable {... */\n      0x20\n        /* \"@openzeppelin/contracts-upgradeable/proxy/utils/UUPSUpgradeable.sol\":6131:6183  IERC1822Proxiable(newImplementation).proxiableUUID() */\n      dup2\n      returndatasize\n        /* \"system/Wallet.sol\":597:4879  contract System_wallet is AccesControl, UUPSUpgradeable, PausableUpgradeable, ReentrancyGuardUpgradeable {... */\n      0x20\n        /* \"@openzeppelin/contracts-upgradeable/proxy/utils/UUPSUpgradeable.sol\":6131:6183  IERC1822Proxiable(newImplementation).proxiableUUID() */\n      gt\n      tag_161\n      jumpi\n    tag_162:\n      dup2\n      tag_163\n        /* \"system/Wallet.sol\":597:4879  contract System_wallet is AccesControl, UUPSUpgradeable, PausableUpgradeable, ReentrancyGuardUpgradeable {... */\n      0x20\n        /* \"@openzeppelin/contracts-upgradeable/proxy/utils/UUPSUpgradeable.sol\":6131:6183  IERC1822Proxiable(newImplementation).proxiableUUID() */\n      swap4\n      dup4\n      tag_2\n      jump\t// in\n    tag_163:\n      dup2\n      add\n        /* \"system/Wallet.sol\":597:4879  contract System_wallet is AccesControl, UUPSUpgradeable, PausableUpgradeable, ReentrancyGuardUpgradeable {... */\n      sub\n      slt\n      tag_36\n      jumpi\n      mload\n        /* \"@openzeppelin/contracts-upgradeable/proxy/utils/UUPSUpgradeable.sol\":6131:6183  IERC1822Proxiable(newImplementation).proxiableUUID() */\n      swap1\n      dup7\n      jump(tag_147)\n    tag_161:\n      returndatasize\n      swap2\n      pop\n      jump(tag_162)\n        /* \"Pipe/AccesControlPipes.sol\":1523:1544  accessControl.owner() */\n    tag_144:\n      tag_166\n      swap2\n      pop\n        /* \"system/Wallet.sol\":597:4879  contract System_wallet is AccesControl, UUPSUpgradeable, PausableUpgradeable, ReentrancyGuardUpgradeable {... */\n      0x20\n        /* \"Pipe/AccesControlPipes.sol\":1523:1544  accessControl.owner() */\n      returndatasize\n        /* \"system/Wallet.sol\":597:4879  contract System_wallet is AccesControl, UUPSUpgradeable, PausableUpgradeable, ReentrancyGuardUpgradeable {... */\n      0x20\n        /* \"Pipe/AccesControlPipes.sol\":1523:1544  accessControl.owner() */\n      gt\n      tag_83\n      jumpi\n      tag_85\n      dup2\n      dup4\n      tag_2\n      jump\t// in\n    tag_166:\n      dup6\n      jump(tag_70)\n        /* \"@openzeppelin/contracts-upgradeable/proxy/utils/UUPSUpgradeable.sol\":4650:4770  address(this) == __self || // Must be called through delegatecall... */\n    tag_137:\n      mload(0x00)\n      codecopy(0x00, data_75b20eef8615de99c108b05f0dbda081c91897128caa336d75dffb97c4132b4d, 0x20)\n      mload(0x00)\n      swap1\n      0x00\n      mstore\n        /* \"system/Wallet.sol\":597:4879  contract System_wallet is AccesControl, UUPSUpgradeable, PausableUpgradeable, ReentrancyGuardUpgradeable {... */\n      sload\n      sub(shl(0xa0, 0x01), 0x01)\n      and\n        /* \"@openzeppelin/contracts-upgradeable/proxy/utils/UUPSUpgradeable.sol\":4728:4770  ERC1967Utils.getImplementation() != __self */\n      eq\n      iszero\n      swap1\n      pop\n        /* \"@openzeppelin/contracts-upgradeable/proxy/utils/UUPSUpgradeable.sol\":4650:4770  address(this) == __self || // Must be called through delegatecall... */\n      dup5\n      jump(tag_138)\n        /* \"system/Wallet.sol\":597:4879  contract System_wallet is AccesControl, UUPSUpgradeable, PausableUpgradeable, ReentrancyGuardUpgradeable {... */\n    tag_16:\n      jumpi(tag_36, callvalue)\n      jumpi(tag_36, slt(add(not(0x03), calldatasize), 0x00))\n      sload(0x00)\n      mload(0x40)\n      shl(0xe0, 0x8da5cb5b)\n        /* \"Pipe/AccesControlPipes.sol\":1523:1544  accessControl.owner() */\n      dup2\n      mstore\n        /* \"system/Wallet.sol\":597:4879  contract System_wallet is AccesControl, UUPSUpgradeable, PausableUpgradeable, ReentrancyGuardUpgradeable {... */\n      swap1\n        /* \"Pipe/AccesControlPipes.sol\":1523:1544  accessControl.owner() */\n      0x20\n      swap1\n        /* \"system/Wallet.sol\":597:4879  contract System_wallet is AccesControl, UUPSUpgradeable, PausableUpgradeable, ReentrancyGuardUpgradeable {... */\n      dup3\n      swap1\n      0x04\n      swap1\n      dup3\n      swap1\n      sub(shl(0xa0, 0x01), 0x01)\n      and\n        /* \"Pipe/AccesControlPipes.sol\":1523:1544  accessControl.owner() */\n      gas\n      staticcall\n      dup1\n      iszero\n      tag_66\n      jumpi\n        /* \"Pipe/AccesControlPipes.sol\":1501:1558  require(msg.sender == accessControl.owner(), \"Not owner\") */\n      tag_176\n        /* \"Pipe/AccesControlPipes.sol\":1523:1544  accessControl.owner() */\n      swap2\n        /* \"system/Wallet.sol\":597:4879  contract System_wallet is AccesControl, UUPSUpgradeable, PausableUpgradeable, ReentrancyGuardUpgradeable {... */\n      0x00\n        /* \"Pipe/AccesControlPipes.sol\":1523:1544  accessControl.owner() */\n      swap2\n      tag_108\n      jumpi\n      pop\n      sub(shl(0xa0, 0x01), 0x01)\n        /* \"system/Wallet.sol\":597:4879  contract System_wallet is AccesControl, UUPSUpgradeable, PausableUpgradeable, ReentrancyGuardUpgradeable {... */\n      and\n        /* \"Pipe/AccesControlPipes.sol\":1509:1519  msg.sender */\n      caller\n        /* \"Pipe/AccesControlPipes.sol\":1509:1544  msg.sender == accessControl.owner() */\n      eq\n        /* \"Pipe/AccesControlPipes.sol\":1501:1558  require(msg.sender == accessControl.owner(), \"Not owner\") */\n      tag_5\n      jump\t// in\n    tag_176:\n      mload(0x00)\n      codecopy(0x00, data_c0c65a3718f3702d917c44106b91645b509d2e2d0979b70495c3babce192339f, 0x20)\n      mload(0x00)\n      swap1\n      0x00\n      mstore\n        /* \"system/Wallet.sol\":597:4879  contract System_wallet is AccesControl, UUPSUpgradeable, PausableUpgradeable, ReentrancyGuardUpgradeable {... */\n      sload\n      0xff\n      dup2\n      and\n        /* \"@openzeppelin/contracts-upgradeable/utils/PausableUpgradeable.sol\":2971:2980  !paused() */\n      iszero\n        /* \"@openzeppelin/contracts-upgradeable/utils/PausableUpgradeable.sol\":2967:3029  if (!paused()) {... */\n      tag_179\n      jumpi\n        /* \"system/Wallet.sol\":597:4879  contract System_wallet is AccesControl, UUPSUpgradeable, PausableUpgradeable, ReentrancyGuardUpgradeable {... */\n      not(0xff)\n      and\n      mload(0x00)\n      codecopy(0x00, data_c0c65a3718f3702d917c44106b91645b509d2e2d0979b70495c3babce192339f, 0x20)\n      mload(0x00)\n      swap1\n      0x00\n      mstore\n      sstore\n        /* \"@openzeppelin/contracts-upgradeable/utils/PausableUpgradeable.sol\":3627:3649  Unpaused(_msgSender()) */\n      0x5db9ee0a495bf2e6ff9c91a7834c1ba4fdd244a5e8aa4e537bd38aeae4b073aa\n        /* \"Pipe/AccesControlPipes.sol\":1523:1544  accessControl.owner() */\n      0x20\n        /* \"system/Wallet.sol\":597:4879  contract System_wallet is AccesControl, UUPSUpgradeable, PausableUpgradeable, ReentrancyGuardUpgradeable {... */\n      mload(0x40)\n        /* \"Pipe/AccesControlPipes.sol\":1509:1519  msg.sender */\n      caller\n        /* \"system/Wallet.sol\":597:4879  contract System_wallet is AccesControl, UUPSUpgradeable, PausableUpgradeable, ReentrancyGuardUpgradeable {... */\n      dup2\n      mstore\n        /* \"@openzeppelin/contracts-upgradeable/utils/PausableUpgradeable.sol\":3627:3649  Unpaused(_msgSender()) */\n      log1\n        /* \"Pipe/AccesControlPipes.sol\":1509:1519  msg.sender */\n      caller\n        /* \"system/Wallet.sol\":4056:4084  ContractUnpaused(msg.sender) */\n      0x5b65b0c1363b3003db9bcc5e1fd8805a6d6bf5bf6dc9d3431ee4494cd7d11766\n        /* \"system/Wallet.sol\":597:4879  contract System_wallet is AccesControl, UUPSUpgradeable, PausableUpgradeable, ReentrancyGuardUpgradeable {... */\n      0x00\n        /* \"system/Wallet.sol\":4056:4084  ContractUnpaused(msg.sender) */\n      dup1\n      log2\n        /* \"system/Wallet.sol\":597:4879  contract System_wallet is AccesControl, UUPSUpgradeable, PausableUpgradeable, ReentrancyGuardUpgradeable {... */\n      stop\n        /* \"@openzeppelin/contracts-upgradeable/utils/PausableUpgradeable.sol\":2967:3029  if (!paused()) {... */\n    tag_179:\n        /* \"@openzeppelin/contracts-upgradeable/utils/PausableUpgradeable.sol\":3003:3018  ExpectedPause() */\n      shl(0xe0, 0x8dfc202b)\n        /* \"system/Wallet.sol\":597:4879  contract System_wallet is AccesControl, UUPSUpgradeable, PausableUpgradeable, ReentrancyGuardUpgradeable {... */\n      0x00\n        /* \"@openzeppelin/contracts-upgradeable/utils/PausableUpgradeable.sol\":3003:3018  ExpectedPause() */\n      mstore\n        /* \"system/Wallet.sol\":597:4879  contract System_wallet is AccesControl, UUPSUpgradeable, PausableUpgradeable, ReentrancyGuardUpgradeable {... */\n      0x04\n      0x00\n        /* \"@openzeppelin/contracts-upgradeable/utils/PausableUpgradeable.sol\":3003:3018  ExpectedPause() */\n      revert\n        /* \"system/Wallet.sol\":597:4879  contract System_wallet is AccesControl, UUPSUpgradeable, PausableUpgradeable, ReentrancyGuardUpgradeable {... */\n    tag_14:\n      jumpi(tag_36, callvalue)\n      jumpi(tag_36, slt(add(not(0x03), calldatasize), 0x00))\n      and(sub(shl(0xa0, 0x01), 0x01), sload(0x00))\n      dup2\n      mstore\n      0x20\n      swap1\n      return\n    tag_1:\n      calldataload(0x04)\n      swap1\n      sub(shl(0xa0, 0x01), 0x01)\n      dup3\n      and\n      dup3\n      sub\n      tag_36\n      jumpi\n      jump\t// out\n    tag_2:\n      swap1\n      0x1f\n      dup1\n      not\n      swap2\n      add\n      and\n      dup2\n      add\n      swap1\n      dup2\n      lt\n      0xffffffffffffffff\n      dup3\n      gt\n      or\n      tag_191\n      jumpi\n      0x40\n      mstore\n      jump\t// out\n    tag_191:\n      mstore(0x00, shl(0xe0, 0x4e487b71))\n      mstore(0x04, 0x41)\n      revert(0x00, 0x24)\n    tag_3:\n      0xffffffffffffffff\n      dup2\n      gt\n      tag_191\n      jumpi\n      0x1f\n      add\n      not(0x1f)\n      and\n      0x20\n      add\n      swap1\n      jump\t// out\n    tag_4:\n      swap1\n      dup2\n      0x20\n      swap2\n      sub\n      slt\n      tag_36\n      jumpi\n      mload\n      sub(shl(0xa0, 0x01), 0x01)\n      dup2\n      and\n      dup2\n      sub\n      tag_36\n      jumpi\n      swap1\n      jump\t// out\n    tag_5:\n      iszero\n      tag_199\n      jumpi\n      jump\t// out\n    tag_199:\n      mload(0x40)\n      shl(0xe5, 0x461bcd)\n      dup2\n      mstore\n      0x20\n      0x04\n      dup3\n      add\n      mstore\n      0x09\n      0x24\n      dup3\n      add\n      mstore\n      shl(0xb9, 0x2737ba1037bbb732b9)\n      0x44\n      dup3\n      add\n      mstore\n      0x64\n      swap1\n      revert\n    tag_6:\n      jumpi(tag_201, iszero(returndatasize))\n      returndatasize\n      swap1\n      tag_203\n      dup3\n      tag_3\n      jump\t// in\n    tag_203:\n      swap2\n      tag_204\n      mload(0x40)\n      swap4\n      dup5\n      tag_2\n      jump\t// in\n    tag_204:\n      dup3\n      mstore\n      returndatasize\n      0x00\n      0x20\n      dup5\n      add\n      returndatacopy\n      jump\t// out\n    tag_201:\n      0x60\n      swap1\n      jump\t// out\n        /* \"Pipe/AccesControlPipes.sol\":2562:2695  function zero_Address(address x) internal pure {... */\n    tag_7:\n      sub(shl(0xa0, 0x01), 0x01)\n        /* \"system/Wallet.sol\":597:4879  contract System_wallet is AccesControl, UUPSUpgradeable, PausableUpgradeable, ReentrancyGuardUpgradeable {... */\n      and\n        /* \"Pipe/AccesControlPipes.sol\":2628:2643  x != address(0) */\n      iszero\n        /* \"system/Wallet.sol\":597:4879  contract System_wallet is AccesControl, UUPSUpgradeable, PausableUpgradeable, ReentrancyGuardUpgradeable {... */\n      tag_206\n      jumpi\n        /* \"Pipe/AccesControlPipes.sol\":2562:2695  function zero_Address(address x) internal pure {... */\n      jump\t// out\n        /* \"system/Wallet.sol\":597:4879  contract System_wallet is AccesControl, UUPSUpgradeable, PausableUpgradeable, ReentrancyGuardUpgradeable {... */\n    tag_206:\n      mload(0x40)\n      shl(0xe5, 0x461bcd)\n      dup2\n      mstore\n      0x20\n      0x04\n      dup3\n      add\n      mstore\n      0x27\n      0x24\n      dup3\n      add\n      mstore\n      0x416363657373436f6e74726f6c3a207a65726f2061646472657373206e6f7420\n      0x44\n      dup3\n      add\n      mstore\n      shl(0xca, 0x185b1b1bddd959)\n      0x64\n      dup3\n      add\n      mstore\n      0x84\n      swap1\n      revert\n        /* \"@openzeppelin/contracts-upgradeable/proxy/utils/Initializable.sol\":7082:7223  function _checkInitializing() internal view virtual {... */\n    tag_8:\n        /* \"system/Wallet.sol\":597:4879  contract System_wallet is AccesControl, UUPSUpgradeable, PausableUpgradeable, ReentrancyGuardUpgradeable {... */\n      0xff\n      mload(0x00)\n      codecopy(0x00, data_e28a5566b8a884201ab44e2d991177ce8b88325e02e52cbc3da6e67b3ecf29c6, 0x20)\n      mload(0x00)\n      swap1\n      0x00\n      mstore\n      sload\n      0x40\n      shr\n      and\n        /* \"@openzeppelin/contracts-upgradeable/proxy/utils/Initializable.sol\":7148:7166  !_isInitializing() */\n      iszero\n        /* \"@openzeppelin/contracts-upgradeable/proxy/utils/Initializable.sol\":7144:7217  if (!_isInitializing()) {... */\n      tag_208\n      jumpi\n        /* \"@openzeppelin/contracts-upgradeable/proxy/utils/Initializable.sol\":7082:7223  function _checkInitializing() internal view virtual {... */\n      jump\t// out\n        /* \"@openzeppelin/contracts-upgradeable/proxy/utils/Initializable.sol\":7144:7217  if (!_isInitializing()) {... */\n    tag_208:\n        /* \"@openzeppelin/contracts-upgradeable/proxy/utils/Initializable.sol\":7189:7206  NotInitializing() */\n      mstore(0x00, shl(0xe3, 0x1afcd79f))\n      revert(0x00, 0x04)\n        /* \"@openzeppelin/contracts/utils/Address.sol\":4437:5019  function verifyCallResultFromTarget(... */\n    tag_9:\n      swap1\n        /* \"@openzeppelin/contracts/utils/Address.sol\":4609:4617  !success */\n      tag_210\n      jumpi\n      pop\n        /* \"system/Wallet.sol\":597:4879  contract System_wallet is AccesControl, UUPSUpgradeable, PausableUpgradeable, ReentrancyGuardUpgradeable {... */\n      dup1\n      mload\n        /* \"@openzeppelin/contracts/utils/Address.sol\":5690:5711  returndata.length > 0 */\n      iszero\n        /* \"@openzeppelin/contracts/utils/Address.sol\":5690:5707  returndata.length */\n      tag_212\n      jumpi\n        /* \"@openzeppelin/contracts/utils/Address.sol\":5815:5920  assembly (\"memory-safe\") {... */\n      0x20\n      dup2\n      mload\n      swap2\n      add\n      revert\n        /* \"@openzeppelin/contracts/utils/Address.sol\":5686:5987  if (returndata.length > 0) {... */\n    tag_212:\n        /* \"@openzeppelin/contracts/utils/Address.sol\":5957:5976  Errors.FailedCall() */\n      shl(0xe0, 0xd6bda275)\n        /* \"@openzeppelin/contracts/utils/Address.sol\":5710:5711  0 */\n      0x00\n        /* \"@openzeppelin/contracts/utils/Address.sol\":5957:5976  Errors.FailedCall() */\n      mstore\n      0x04\n        /* \"@openzeppelin/contracts/utils/Address.sol\":5710:5711  0 */\n      0x00\n        /* \"@openzeppelin/contracts/utils/Address.sol\":5957:5976  Errors.FailedCall() */\n      revert\n        /* \"@openzeppelin/contracts/utils/Address.sol\":4605:5013  if (!success) {... */\n    tag_210:\n        /* \"system/Wallet.sol\":597:4879  contract System_wallet is AccesControl, UUPSUpgradeable, PausableUpgradeable, ReentrancyGuardUpgradeable {... */\n      dup2\n      mload\n        /* \"@openzeppelin/contracts/utils/Address.sol\":4857:4879  returndata.length == 0 */\n      iszero\n        /* \"@openzeppelin/contracts/utils/Address.sol\":4857:4906  returndata.length == 0 && target.code.length == 0 */\n      dup1\n      tag_214\n      jumpi\n        /* \"@openzeppelin/contracts/utils/Address.sol\":4605:5013  if (!success) {... */\n    tag_215:\n        /* \"@openzeppelin/contracts/utils/Address.sol\":4853:4972  if (returndata.length == 0 && target.code.length == 0) {... */\n      tag_216\n      jumpi\n        /* \"@openzeppelin/contracts/utils/Address.sol\":4985:5002  return returndata */\n      pop\n      swap1\n      jump\t// out\n        /* \"@openzeppelin/contracts/utils/Address.sol\":4853:4972  if (returndata.length == 0 && target.code.length == 0) {... */\n    tag_216:\n      shl(0xe0, 0x9996b315)\n        /* \"@openzeppelin/contracts/utils/Address.sol\":4878:4879  0 */\n      0x00\n        /* \"@openzeppelin/contracts/utils/Address.sol\":4933:4957  AddressEmptyCode(target) */\n      swap1\n      dup2\n      mstore\n      sub(shl(0xa0, 0x01), 0x01)\n        /* \"system/Wallet.sol\":597:4879  contract System_wallet is AccesControl, UUPSUpgradeable, PausableUpgradeable, ReentrancyGuardUpgradeable {... */\n      swap2\n      swap1\n      swap2\n      and\n        /* \"@openzeppelin/contracts/utils/Address.sol\":4933:4957  AddressEmptyCode(target) */\n      0x04\n        /* \"system/Wallet.sol\":597:4879  contract System_wallet is AccesControl, UUPSUpgradeable, PausableUpgradeable, ReentrancyGuardUpgradeable {... */\n      mstore\n      0x24\n      swap1\n        /* \"@openzeppelin/contracts/utils/Address.sol\":4933:4957  AddressEmptyCode(target) */\n      revert\n        /* \"@openzeppelin/contracts/utils/Address.sol\":4857:4906  returndata.length == 0 && target.code.length == 0 */\n    tag_214:\n        /* \"@openzeppelin/contracts/utils/Address.sol\":4883:4901  target.code.length */\n      pop\n      dup1\n      extcodesize\n        /* \"@openzeppelin/contracts/utils/Address.sol\":4883:4906  target.code.length == 0 */\n      iszero\n        /* \"@openzeppelin/contracts/utils/Address.sol\":4857:4906  returndata.length == 0 && target.code.length == 0 */\n      jump(tag_215)\n    stop\n    data_75b20eef8615de99c108b05f0dbda081c91897128caa336d75dffb97c4132b4d 360894a13ba1a3210667c828492db98dca3e2076cc3735a920a3ca505d382bbc\n    data_c0c65a3718f3702d917c44106b91645b509d2e2d0979b70495c3babce192339f cd5ed15c6e187e77e9aee88184c21f4f2182ab5827cb3b7e07fbedcd63f03300\n    data_c8669cf8eaf883002b9f48e28846a8d408c9b58ea6613bace374265e43c9bc43 9b779b17422d0df92223018b32b4d1fa46e071723d6817e2486d003becc55f00\n    data_e28a5566b8a884201ab44e2d991177ce8b88325e02e52cbc3da6e67b3ecf29c6 f0c57e16840df040f15088dc2f81fe391c3923bec73e23a9662efc9c229c6a00\n\n    auxdata: 0xa2646970667358221220b717a34ccd67303ad7d59800bf3c0bd5bda0cc215212acb07fb847026220ac5264736f6c634300081e0033\n}\n",
				"bytecode": {
					"linkReferences": {},
					"object": "60a0806040523460295730608052610d04908161002e82396080518181816106b201526107820152f35b5f80fdfe6080806040526004361015610066575b50361561003e5734337f9a910e4510aced4a032c4797a04f4c9b32316bcde4dfc60c7c73d88f936428c85f80a3005b34337f9a910e4510aced4a032c4797a04f4c9b32316bcde4dfc60c7c73d88f936428c85f80a3005b5f3560e01c90816313007d5514610a50575080633f4ba83a1461096f5780634f1ef2861461070657806352d1902d146106a05780635c975abb146106725780638456cb591461056f5780639387730c146104a4578063a9059cbb146102c7578063ad3cb1cc146102695763c4d66de8146100e0575f61000f565b34610265576020366003190112610265576100f9610a72565b5f516020610caf5f395f51905f52549060ff8260401c16159167ffffffffffffffff81168015908161025d575b6001149081610253575b15908161024a575b5061023b5767ffffffffffffffff1981166001175f516020610caf5f395f51905f52558261020f575b5061016b81610b60565b610173610bc5565b61017b610bc5565b610183610bc5565b60015f516020610c8f5f395f51905f525560018060a01b03166bffffffffffffffffffffffff60a01b5f5416175f556101b857005b68ff0000000000000000195f516020610caf5f395f51905f5254165f516020610caf5f395f51905f52557fc7f505b2f371ae2175ee4913f4499e1f2633a7b5936321eed1cdaeb6115181d2602060405160018152a1005b68ffffffffffffffffff191668010000000000000001175f516020610caf5f395f51905f52555f610161565b63f92ee8a960e01b5f5260045ffd5b9050155f610138565b303b159150610130565b849150610126565b5f80fd5b34610265575f3660031901126102655760408051906102888183610a88565b600582526020820191640352e302e360dc1b83528151928391602083525180918160208501528484015e5f828201840152601f01601f19168101030190f35b34610265576040366003190112610265576004356001600160a01b03811690819003610265575f54604051638da5cb5b60e01b81526024359291602090829060049082906001600160a01b03165afa801561049957610338915f9161046a575b506001600160a01b03163314610af9565b60025f516020610c8f5f395f51905f52541461045b5760025f516020610c8f5f395f51905f52553315610416578015610407578147105f146103835763356680b760e01b5f5260045ffd5b5f80808085855af1610393610b31565b50156103d0577fae538a1b9462f6288da1c1912c6d7e22fc226dff723d1cc897cfc7727255ea705f80a360015f516020610c8f5f395f51905f5255005b60405162461bcd60e51b815260206004820152600f60248201526e1d1c985b9cd9995c8819985a5b1959608a1b6044820152606490fd5b63d92e233d60e01b5f5260045ffd5b60405162461bcd60e51b815260206004820152601d60248201527f63616c6c65722069732063616e74206265207a65726f206164647220210000006044820152606490fd5b633ee5aeb560e01b5f5260045ffd5b61048c915060203d602011610492575b6104848183610a88565b810190610ada565b84610327565b503d61047a565b6040513d5f823e3d90fd5b34610265576020366003190112610265576104bd610a72565b5f54604051638da5cb5b60e01b815291906020836004816001600160a01b0385165afa918215610499576105266020937f497acaa34ac19c2a2a579ad43eca493b4fea820459e254e9383e7dda216b0f04955f9161055257506001600160a01b03163314610af9565b61052f81610b60565b6001600160a01b03166001600160a01b03199190911681175f55604051908152a1005b6105699150853d8711610492576104848183610a88565b86610327565b34610265575f366003190112610265575f54604051638da5cb5b60e01b815290602090829060049082906001600160a01b03165afa8015610499576105c5915f9161065357506001600160a01b03163314610af9565b5f516020610c6f5f395f51905f525460ff81166106445760019060ff1916175f516020610c6f5f395f51905f52557f62e78cea01bee320cd4e420270b5ea74000d11b0c9f74754ebdbfc544b05a2586020604051338152a1337f81990fd9a5c552b8e3677917d8a03c07678f0d2cb68f88b634aca2022e9bd19f5f80a2005b63d93c066560e01b5f5260045ffd5b61066c915060203d602011610492576104848183610a88565b82610327565b34610265575f36600319011261026557602060ff5f516020610c6f5f395f51905f5254166040519015158152f35b34610265575f366003190112610265577f00000000000000000000000000000000000000000000000000000000000000006001600160a01b031630036106f75760206040515f516020610c4f5f395f51905f528152f35b63703e46dd60e11b5f5260045ffd5b60403660031901126102655761071a610a72565b6024359067ffffffffffffffff821161026557366023830112156102655781600401359061074782610abe565b916107556040519384610a88565b8083526020830193366024838301011161026557815f926024602093018737840101526001600160a01b037f00000000000000000000000000000000000000000000000000000000000000001630811490811561094d575b506106f7575f54604051638da5cb5b60e01b815290602090829060049082906001600160a01b03165afa8015610499576107f8915f9161092e57506001600160a01b03163314610af9565b6040516352d1902d60e01b81526001600160a01b0382169390602081600481885afa5f91816108fa575b5061083a5784634c9c8ce360e01b5f5260045260245ffd5b805f516020610c4f5f395f51905f528692036108e85750823b156108d6575f516020610c4f5f395f51905f5280546001600160a01b031916821790557fbc7cd75a20ee27fd9adebab32041f755214dbc6bffa90cc0225b39da2e5c2d3b5f80a28251156108bd575f80916108bb945190845af46108b5610b31565b91610bf0565b005b505050346108c757005b63b398979f60e01b5f5260045ffd5b634c9c8ce360e01b5f5260045260245ffd5b632a87526960e21b5f5260045260245ffd5b9091506020813d602011610926575b8161091660209383610a88565b8101031261026557519086610822565b3d9150610909565b610947915060203d602011610492576104848183610a88565b85610327565b5f516020610c4f5f395f51905f52546001600160a01b031614159050846107ad565b34610265575f366003190112610265575f54604051638da5cb5b60e01b815290602090829060049082906001600160a01b03165afa8015610499576109c5915f9161065357506001600160a01b03163314610af9565b5f516020610c6f5f395f51905f525460ff811615610a415760ff19165f516020610c6f5f395f51905f52557f5db9ee0a495bf2e6ff9c91a7834c1ba4fdd244a5e8aa4e537bd38aeae4b073aa6020604051338152a1337f5b65b0c1363b3003db9bcc5e1fd8805a6d6bf5bf6dc9d3431ee4494cd7d117665f80a2005b638dfc202b60e01b5f5260045ffd5b34610265575f366003190112610265575f546001600160a01b03168152602090f35b600435906001600160a01b038216820361026557565b90601f8019910116810190811067ffffffffffffffff821117610aaa57604052565b634e487b7160e01b5f52604160045260245ffd5b67ffffffffffffffff8111610aaa57601f01601f191660200190565b9081602091031261026557516001600160a01b03811681036102655790565b15610b0057565b60405162461bcd60e51b81526020600482015260096024820152682737ba1037bbb732b960b91b6044820152606490fd5b3d15610b5b573d90610b4282610abe565b91610b506040519384610a88565b82523d5f602084013e565b606090565b6001600160a01b031615610b7057565b60405162461bcd60e51b815260206004820152602760248201527f416363657373436f6e74726f6c3a207a65726f2061646472657373206e6f7420604482015266185b1b1bddd95960ca1b6064820152608490fd5b60ff5f516020610caf5f395f51905f525460401c1615610be157565b631afcd79f60e31b5f5260045ffd5b90610c145750805115610c0557602081519101fd5b63d6bda27560e01b5f5260045ffd5b81511580610c45575b610c25575090565b639996b31560e01b5f9081526001600160a01b0391909116600452602490fd5b50803b15610c1d56fe360894a13ba1a3210667c828492db98dca3e2076cc3735a920a3ca505d382bbccd5ed15c6e187e77e9aee88184c21f4f2182ab5827cb3b7e07fbedcd63f033009b779b17422d0df92223018b32b4d1fa46e071723d6817e2486d003becc55f00f0c57e16840df040f15088dc2f81fe391c3923bec73e23a9662efc9c229c6a00a2646970667358221220b717a34ccd67303ad7d59800bf3c0bd5bda0cc215212acb07fb847026220ac5264736f6c634300081e0033",
					"opcodes": "PUSH1 0xA0 DUP1 PUSH1 0x40 MSTORE CALLVALUE PUSH1 0x29 JUMPI ADDRESS PUSH1 0x80 MSTORE PUSH2 0xD04 SWAP1 DUP2 PUSH2 0x2E DUP3 CODECOPY PUSH1 0x80 MLOAD DUP2 DUP2 DUP2 PUSH2 0x6B2 ADD MSTORE PUSH2 0x782 ADD MSTORE RETURN JUMPDEST PUSH0 DUP1 REVERT INVALID PUSH1 0x80 DUP1 PUSH1 0x40 MSTORE PUSH1 0x4 CALLDATASIZE LT ISZERO PUSH2 0x66 JUMPI JUMPDEST POP CALLDATASIZE ISZERO PUSH2 0x3E JUMPI CALLVALUE CALLER PUSH32 0x9A910E4510ACED4A032C4797A04F4C9B32316BCDE4DFC60C7C73D88F936428C8 PUSH0 DUP1 LOG3 STOP JUMPDEST CALLVALUE CALLER PUSH32 0x9A910E4510ACED4A032C4797A04F4C9B32316BCDE4DFC60C7C73D88F936428C8 PUSH0 DUP1 LOG3 STOP JUMPDEST PUSH0 CALLDATALOAD PUSH1 0xE0 SHR SWAP1 DUP2 PUSH4 0x13007D55 EQ PUSH2 0xA50 JUMPI POP DUP1 PUSH4 0x3F4BA83A EQ PUSH2 0x96F JUMPI DUP1 PUSH4 0x4F1EF286 EQ PUSH2 0x706 JUMPI DUP1 PUSH4 0x52D1902D EQ PUSH2 0x6A0 JUMPI DUP1 PUSH4 0x5C975ABB EQ PUSH2 0x672 JUMPI DUP1 PUSH4 0x8456CB59 EQ PUSH2 0x56F JUMPI DUP1 PUSH4 0x9387730C EQ PUSH2 0x4A4 JUMPI DUP1 PUSH4 0xA9059CBB EQ PUSH2 0x2C7 JUMPI DUP1 PUSH4 0xAD3CB1CC EQ PUSH2 0x269 JUMPI PUSH4 0xC4D66DE8 EQ PUSH2 0xE0 JUMPI PUSH0 PUSH2 0xF JUMP JUMPDEST CALLVALUE PUSH2 0x265 JUMPI PUSH1 0x20 CALLDATASIZE PUSH1 0x3 NOT ADD SLT PUSH2 0x265 JUMPI PUSH2 0xF9 PUSH2 0xA72 JUMP JUMPDEST PUSH0 MLOAD PUSH1 0x20 PUSH2 0xCAF PUSH0 CODECOPY PUSH0 MLOAD SWAP1 PUSH0 MSTORE SLOAD SWAP1 PUSH1 0xFF DUP3 PUSH1 0x40 SHR AND ISZERO SWAP2 PUSH8 0xFFFFFFFFFFFFFFFF DUP2 AND DUP1 ISZERO SWAP1 DUP2 PUSH2 0x25D JUMPI JUMPDEST PUSH1 0x1 EQ SWAP1 DUP2 PUSH2 0x253 JUMPI JUMPDEST ISZERO SWAP1 DUP2 PUSH2 0x24A JUMPI JUMPDEST POP PUSH2 0x23B JUMPI PUSH8 0xFFFFFFFFFFFFFFFF NOT DUP2 AND PUSH1 0x1 OR PUSH0 MLOAD PUSH1 0x20 PUSH2 0xCAF PUSH0 CODECOPY PUSH0 MLOAD SWAP1 PUSH0 MSTORE SSTORE DUP3 PUSH2 0x20F JUMPI JUMPDEST POP PUSH2 0x16B DUP2 PUSH2 0xB60 JUMP JUMPDEST PUSH2 0x173 PUSH2 0xBC5 JUMP JUMPDEST PUSH2 0x17B PUSH2 0xBC5 JUMP JUMPDEST PUSH2 0x183 PUSH2 0xBC5 JUMP JUMPDEST PUSH1 0x1 PUSH0 MLOAD PUSH1 0x20 PUSH2 0xC8F PUSH0 CODECOPY PUSH0 MLOAD SWAP1 PUSH0 MSTORE SSTORE PUSH1 0x1 DUP1 PUSH1 0xA0 SHL SUB AND PUSH12 0xFFFFFFFFFFFFFFFFFFFFFFFF PUSH1 0xA0 SHL PUSH0 SLOAD AND OR PUSH0 SSTORE PUSH2 0x1B8 JUMPI STOP JUMPDEST PUSH9 0xFF0000000000000000 NOT PUSH0 MLOAD PUSH1 0x20 PUSH2 0xCAF PUSH0 CODECOPY PUSH0 MLOAD SWAP1 PUSH0 MSTORE SLOAD AND PUSH0 MLOAD PUSH1 0x20 PUSH2 0xCAF PUSH0 CODECOPY PUSH0 MLOAD SWAP1 PUSH0 MSTORE SSTORE PUSH32 0xC7F505B2F371AE2175EE4913F4499E1F2633A7B5936321EED1CDAEB6115181D2 PUSH1 0x20 PUSH1 0x40 MLOAD PUSH1 0x1 DUP2 MSTORE LOG1 STOP JUMPDEST PUSH9 0xFFFFFFFFFFFFFFFFFF NOT AND PUSH9 0x10000000000000001 OR PUSH0 MLOAD PUSH1 0x20 PUSH2 0xCAF PUSH0 CODECOPY PUSH0 MLOAD SWAP1 PUSH0 MSTORE SSTORE PUSH0 PUSH2 0x161 JUMP JUMPDEST PUSH4 0xF92EE8A9 PUSH1 0xE0 SHL PUSH0 MSTORE PUSH1 0x4 PUSH0 REVERT JUMPDEST SWAP1 POP ISZERO PUSH0 PUSH2 0x138 JUMP JUMPDEST ADDRESS EXTCODESIZE ISZERO SWAP2 POP PUSH2 0x130 JUMP JUMPDEST DUP5 SWAP2 POP PUSH2 0x126 JUMP JUMPDEST PUSH0 DUP1 REVERT JUMPDEST CALLVALUE PUSH2 0x265 JUMPI PUSH0 CALLDATASIZE PUSH1 0x3 NOT ADD SLT PUSH2 0x265 JUMPI PUSH1 0x40 DUP1 MLOAD SWAP1 PUSH2 0x288 DUP2 DUP4 PUSH2 0xA88 JUMP JUMPDEST PUSH1 0x5 DUP3 MSTORE PUSH1 0x20 DUP3 ADD SWAP2 PUSH5 0x352E302E3 PUSH1 0xDC SHL DUP4 MSTORE DUP2 MLOAD SWAP3 DUP4 SWAP2 PUSH1 0x20 DUP4 MSTORE MLOAD DUP1 SWAP2 DUP2 PUSH1 0x20 DUP6 ADD MSTORE DUP5 DUP5 ADD MCOPY PUSH0 DUP3 DUP3 ADD DUP5 ADD MSTORE PUSH1 0x1F ADD PUSH1 0x1F NOT AND DUP2 ADD SUB ADD SWAP1 RETURN JUMPDEST CALLVALUE PUSH2 0x265 JUMPI PUSH1 0x40 CALLDATASIZE PUSH1 0x3 NOT ADD SLT PUSH2 0x265 JUMPI PUSH1 0x4 CALLDATALOAD PUSH1 0x1 PUSH1 0x1 PUSH1 0xA0 SHL SUB DUP2 AND SWAP1 DUP2 SWAP1 SUB PUSH2 0x265 JUMPI PUSH0 SLOAD PUSH1 0x40 MLOAD PUSH4 0x8DA5CB5B PUSH1 0xE0 SHL DUP2 MSTORE PUSH1 0x24 CALLDATALOAD SWAP3 SWAP2 PUSH1 0x20 SWAP1 DUP3 SWAP1 PUSH1 0x4 SWAP1 DUP3 SWAP1 PUSH1 0x1 PUSH1 0x1 PUSH1 0xA0 SHL SUB AND GAS STATICCALL DUP1 ISZERO PUSH2 0x499 JUMPI PUSH2 0x338 SWAP2 PUSH0 SWAP2 PUSH2 0x46A JUMPI JUMPDEST POP PUSH1 0x1 PUSH1 0x1 PUSH1 0xA0 SHL SUB AND CALLER EQ PUSH2 0xAF9 JUMP JUMPDEST PUSH1 0x2 PUSH0 MLOAD PUSH1 0x20 PUSH2 0xC8F PUSH0 CODECOPY PUSH0 MLOAD SWAP1 PUSH0 MSTORE SLOAD EQ PUSH2 0x45B JUMPI PUSH1 0x2 PUSH0 MLOAD PUSH1 0x20 PUSH2 0xC8F PUSH0 CODECOPY PUSH0 MLOAD SWAP1 PUSH0 MSTORE SSTORE CALLER ISZERO PUSH2 0x416 JUMPI DUP1 ISZERO PUSH2 0x407 JUMPI DUP2 SELFBALANCE LT PUSH0 EQ PUSH2 0x383 JUMPI PUSH4 0x356680B7 PUSH1 0xE0 SHL PUSH0 MSTORE PUSH1 0x4 PUSH0 REVERT JUMPDEST PUSH0 DUP1 DUP1 DUP1 DUP6 DUP6 GAS CALL PUSH2 0x393 PUSH2 0xB31 JUMP JUMPDEST POP ISZERO PUSH2 0x3D0 JUMPI PUSH32 0xAE538A1B9462F6288DA1C1912C6D7E22FC226DFF723D1CC897CFC7727255EA70 PUSH0 DUP1 LOG3 PUSH1 0x1 PUSH0 MLOAD PUSH1 0x20 PUSH2 0xC8F PUSH0 CODECOPY PUSH0 MLOAD SWAP1 PUSH0 MSTORE SSTORE STOP JUMPDEST PUSH1 0x40 MLOAD PUSH3 0x461BCD PUSH1 0xE5 SHL DUP2 MSTORE PUSH1 0x20 PUSH1 0x4 DUP3 ADD MSTORE PUSH1 0xF PUSH1 0x24 DUP3 ADD MSTORE PUSH15 0x1D1C985B9CD9995C8819985A5B1959 PUSH1 0x8A SHL PUSH1 0x44 DUP3 ADD MSTORE PUSH1 0x64 SWAP1 REVERT JUMPDEST PUSH4 0xD92E233D PUSH1 0xE0 SHL PUSH0 MSTORE PUSH1 0x4 PUSH0 REVERT JUMPDEST PUSH1 0x40 MLOAD PUSH3 0x461BCD PUSH1 0xE5 SHL DUP2 MSTORE PUSH1 0x20 PUSH1 0x4 DUP3 ADD MSTORE PUSH1 0x1D PUSH1 0x24 DUP3 ADD MSTORE PUSH32 0x63616C6C65722069732063616E74206265207A65726F20616464722021000000 PUSH1 0x44 DUP3 ADD MSTORE PUSH1 0x64 SWAP1 REVERT JUMPDEST PUSH4 0x3EE5AEB5 PUSH1 0xE0 SHL PUSH0 MSTORE PUSH1 0x4 PUSH0 REVERT JUMPDEST PUSH2 0x48C SWAP2 POP PUSH1 0x20 RETURNDATASIZE PUSH1 0x20 GT PUSH2 0x492 JUMPI JUMPDEST PUSH2 0x484 DUP2 DUP4 PUSH2 0xA88 JUMP JUMPDEST DUP2 ADD SWAP1 PUSH2 0xADA JUMP JUMPDEST DUP5 PUSH2 0x327 JUMP JUMPDEST POP RETURNDATASIZE PUSH2 0x47A JUMP JUMPDEST PUSH1 0x40 MLOAD RETURNDATASIZE PUSH0 DUP3 RETURNDATACOPY RETURNDATASIZE SWAP1 REVERT JUMPDEST CALLVALUE PUSH2 0x265 JUMPI PUSH1 0x20 CALLDATASIZE PUSH1 0x3 NOT ADD SLT PUSH2 0x265 JUMPI PUSH2 0x4BD PUSH2 0xA72 JUMP JUMPDEST PUSH0 SLOAD PUSH1 0x40 MLOAD PUSH4 0x8DA5CB5B PUSH1 0xE0 SHL DUP2 MSTORE SWAP2 SWAP1 PUSH1 0x20 DUP4 PUSH1 0x4 DUP2 PUSH1 0x1 PUSH1 0x1 PUSH1 0xA0 SHL SUB DUP6 AND GAS STATICCALL SWAP2 DUP3 ISZERO PUSH2 0x499 JUMPI PUSH2 0x526 PUSH1 0x20 SWAP4 PUSH32 0x497ACAA34AC19C2A2A579AD43ECA493B4FEA820459E254E9383E7DDA216B0F04 SWAP6 PUSH0 SWAP2 PUSH2 0x552 JUMPI POP PUSH1 0x1 PUSH1 0x1 PUSH1 0xA0 SHL SUB AND CALLER EQ PUSH2 0xAF9 JUMP JUMPDEST PUSH2 0x52F DUP2 PUSH2 0xB60 JUMP JUMPDEST PUSH1 0x1 PUSH1 0x1 PUSH1 0xA0 SHL SUB AND PUSH1 0x1 PUSH1 0x1 PUSH1 0xA0 SHL SUB NOT SWAP2 SWAP1 SWAP2 AND DUP2 OR PUSH0 SSTORE PUSH1 0x40 MLOAD SWAP1 DUP2 MSTORE LOG1 STOP JUMPDEST PUSH2 0x569 SWAP2 POP DUP6 RETURNDATASIZE DUP8 GT PUSH2 0x492 JUMPI PUSH2 0x484 DUP2 DUP4 PUSH2 0xA88 JUMP JUMPDEST DUP7 PUSH2 0x327 JUMP JUMPDEST CALLVALUE PUSH2 0x265 JUMPI PUSH0 CALLDATASIZE PUSH1 0x3 NOT ADD SLT PUSH2 0x265 JUMPI PUSH0 SLOAD PUSH1 0x40 MLOAD PUSH4 0x8DA5CB5B PUSH1 0xE0 SHL DUP2 MSTORE SWAP1 PUSH1 0x20 SWAP1 DUP3 SWAP1 PUSH1 0x4 SWAP1 DUP3 SWAP1 PUSH1 0x1 PUSH1 0x1 PUSH1 0xA0 SHL SUB AND GAS STATICCALL DUP1 ISZERO PUSH2 0x499 JUMPI PUSH2 0x5C5 SWAP2 PUSH0 SWAP2 PUSH2 0x653 JUMPI POP PUSH1 0x1 PUSH1 0x1 PUSH1 0xA0 SHL SUB AND CALLER EQ PUSH2 0xAF9 JUMP JUMPDEST PUSH0 MLOAD PUSH1 0x20 PUSH2 0xC6F PUSH0 CODECOPY PUSH0 MLOAD SWAP1 PUSH0 MSTORE SLOAD PUSH1 0xFF DUP2 AND PUSH2 0x644 JUMPI PUSH1 0x1 SWAP1 PUSH1 0xFF NOT AND OR PUSH0 MLOAD PUSH1 0x20 PUSH2 0xC6F PUSH0 CODECOPY PUSH0 MLOAD SWAP1 PUSH0 MSTORE SSTORE PUSH32 0x62E78CEA01BEE320CD4E420270B5EA74000D11B0C9F74754EBDBFC544B05A258 PUSH1 0x20 PUSH1 0x40 MLOAD CALLER DUP2 MSTORE LOG1 CALLER PUSH32 0x81990FD9A5C552B8E3677917D8A03C07678F0D2CB68F88B634ACA2022E9BD19F PUSH0 DUP1 LOG2 STOP JUMPDEST PUSH4 0xD93C0665 PUSH1 0xE0 SHL PUSH0 MSTORE PUSH1 0x4 PUSH0 REVERT JUMPDEST PUSH2 0x66C SWAP2 POP PUSH1 0x20 RETURNDATASIZE PUSH1 0x20 GT PUSH2 0x492 JUMPI PUSH2 0x484 DUP2 DUP4 PUSH2 0xA88 JUMP JUMPDEST DUP3 PUSH2 0x327 JUMP JUMPDEST CALLVALUE PUSH2 0x265 JUMPI PUSH0 CALLDATASIZE PUSH1 0x3 NOT ADD SLT PUSH2 0x265 JUMPI PUSH1 0x20 PUSH1 0xFF PUSH0 MLOAD PUSH1 0x20 PUSH2 0xC6F PUSH0 CODECOPY PUSH0 MLOAD SWAP1 PUSH0 MSTORE SLOAD AND PUSH1 0x40 MLOAD SWAP1 ISZERO ISZERO DUP2 MSTORE RETURN JUMPDEST CALLVALUE PUSH2 0x265 JUMPI PUSH0 CALLDATASIZE PUSH1 0x3 NOT ADD SLT PUSH2 0x265 JUMPI PUSH32 0x0 PUSH1 0x1 PUSH1 0x1 PUSH1 0xA0 SHL SUB AND ADDRESS SUB PUSH2 0x6F7 JUMPI PUSH1 0x20 PUSH1 0x40 MLOAD PUSH0 MLOAD PUSH1 0x20 PUSH2 0xC4F PUSH0 CODECOPY PUSH0 MLOAD SWAP1 PUSH0 MSTORE DUP2 MSTORE RETURN JUMPDEST PUSH4 0x703E46DD PUSH1 0xE1 SHL PUSH0 MSTORE PUSH1 0x4 PUSH0 REVERT JUMPDEST PUSH1 0x40 CALLDATASIZE PUSH1 0x3 NOT ADD SLT PUSH2 0x265 JUMPI PUSH2 0x71A PUSH2 0xA72 JUMP JUMPDEST PUSH1 0x24 CALLDATALOAD SWAP1 PUSH8 0xFFFFFFFFFFFFFFFF DUP3 GT PUSH2 0x265 JUMPI CALLDATASIZE PUSH1 0x23 DUP4 ADD SLT ISZERO PUSH2 0x265 JUMPI DUP2 PUSH1 0x4 ADD CALLDATALOAD SWAP1 PUSH2 0x747 DUP3 PUSH2 0xABE JUMP JUMPDEST SWAP2 PUSH2 0x755 PUSH1 0x40 MLOAD SWAP4 DUP5 PUSH2 0xA88 JUMP JUMPDEST DUP1 DUP4 MSTORE PUSH1 0x20 DUP4 ADD SWAP4 CALLDATASIZE PUSH1 0x24 DUP4 DUP4 ADD ADD GT PUSH2 0x265 JUMPI DUP2 PUSH0 SWAP3 PUSH1 0x24 PUSH1 0x20 SWAP4 ADD DUP8 CALLDATACOPY DUP5 ADD ADD MSTORE PUSH1 0x1 PUSH1 0x1 PUSH1 0xA0 SHL SUB PUSH32 0x0 AND ADDRESS DUP2 EQ SWAP1 DUP2 ISZERO PUSH2 0x94D JUMPI JUMPDEST POP PUSH2 0x6F7 JUMPI PUSH0 SLOAD PUSH1 0x40 MLOAD PUSH4 0x8DA5CB5B PUSH1 0xE0 SHL DUP2 MSTORE SWAP1 PUSH1 0x20 SWAP1 DUP3 SWAP1 PUSH1 0x4 SWAP1 DUP3 SWAP1 PUSH1 0x1 PUSH1 0x1 PUSH1 0xA0 SHL SUB AND GAS STATICCALL DUP1 ISZERO PUSH2 0x499 JUMPI PUSH2 0x7F8 SWAP2 PUSH0 SWAP2 PUSH2 0x92E JUMPI POP PUSH1 0x1 PUSH1 0x1 PUSH1 0xA0 SHL SUB AND CALLER EQ PUSH2 0xAF9 JUMP JUMPDEST PUSH1 0x40 MLOAD PUSH4 0x52D1902D PUSH1 0xE0 SHL DUP2 MSTORE PUSH1 0x1 PUSH1 0x1 PUSH1 0xA0 SHL SUB DUP3 AND SWAP4 SWAP1 PUSH1 0x20 DUP2 PUSH1 0x4 DUP2 DUP9 GAS STATICCALL PUSH0 SWAP2 DUP2 PUSH2 0x8FA JUMPI JUMPDEST POP PUSH2 0x83A JUMPI DUP5 PUSH4 0x4C9C8CE3 PUSH1 0xE0 SHL PUSH0 MSTORE PUSH1 0x4 MSTORE PUSH1 0x24 PUSH0 REVERT JUMPDEST DUP1 PUSH0 MLOAD PUSH1 0x20 PUSH2 0xC4F PUSH0 CODECOPY PUSH0 MLOAD SWAP1 PUSH0 MSTORE DUP7 SWAP3 SUB PUSH2 0x8E8 JUMPI POP DUP3 EXTCODESIZE ISZERO PUSH2 0x8D6 JUMPI PUSH0 MLOAD PUSH1 0x20 PUSH2 0xC4F PUSH0 CODECOPY PUSH0 MLOAD SWAP1 PUSH0 MSTORE DUP1 SLOAD PUSH1 0x1 PUSH1 0x1 PUSH1 0xA0 SHL SUB NOT AND DUP3 OR SWAP1 SSTORE PUSH32 0xBC7CD75A20EE27FD9ADEBAB32041F755214DBC6BFFA90CC0225B39DA2E5C2D3B PUSH0 DUP1 LOG2 DUP3 MLOAD ISZERO PUSH2 0x8BD JUMPI PUSH0 DUP1 SWAP2 PUSH2 0x8BB SWAP5 MLOAD SWAP1 DUP5 GAS DELEGATECALL PUSH2 0x8B5 PUSH2 0xB31 JUMP JUMPDEST SWAP2 PUSH2 0xBF0 JUMP JUMPDEST STOP JUMPDEST POP POP POP CALLVALUE PUSH2 0x8C7 JUMPI STOP JUMPDEST PUSH4 0xB398979F PUSH1 0xE0 SHL PUSH0 MSTORE PUSH1 0x4 PUSH0 REVERT JUMPDEST PUSH4 0x4C9C8CE3 PUSH1 0xE0 SHL PUSH0 MSTORE PUSH1 0x4 MSTORE PUSH1 0x24 PUSH0 REVERT JUMPDEST PUSH4 0x2A875269 PUSH1 0xE2 SHL PUSH0 MSTORE PUSH1 0x4 MSTORE PUSH1 0x24 PUSH0 REVERT JUMPDEST SWAP1 SWAP2 POP PUSH1 0x20 DUP2 RETURNDATASIZE PUSH1 0x20 GT PUSH2 0x926 JUMPI JUMPDEST DUP2 PUSH2 0x916 PUSH1 0x20 SWAP4 DUP4 PUSH2 0xA88 JUMP JUMPDEST DUP2 ADD SUB SLT PUSH2 0x265 JUMPI MLOAD SWAP1 DUP7 PUSH2 0x822 JUMP JUMPDEST RETURNDATASIZE SWAP2 POP PUSH2 0x909 JUMP JUMPDEST PUSH2 0x947 SWAP2 POP PUSH1 0x20 RETURNDATASIZE PUSH1 0x20 GT PUSH2 0x492 JUMPI PUSH2 0x484 DUP2 DUP4 PUSH2 0xA88 JUMP JUMPDEST DUP6 PUSH2 0x327 JUMP JUMPDEST PUSH0 MLOAD PUSH1 0x20 PUSH2 0xC4F PUSH0 CODECOPY PUSH0 MLOAD SWAP1 PUSH0 MSTORE SLOAD PUSH1 0x1 PUSH1 0x1 PUSH1 0xA0 SHL SUB AND EQ ISZERO SWAP1 POP DUP5 PUSH2 0x7AD JUMP JUMPDEST CALLVALUE PUSH2 0x265 JUMPI PUSH0 CALLDATASIZE PUSH1 0x3 NOT ADD SLT PUSH2 0x265 JUMPI PUSH0 SLOAD PUSH1 0x40 MLOAD PUSH4 0x8DA5CB5B PUSH1 0xE0 SHL DUP2 MSTORE SWAP1 PUSH1 0x20 SWAP1 DUP3 SWAP1 PUSH1 0x4 SWAP1 DUP3 SWAP1 PUSH1 0x1 PUSH1 0x1 PUSH1 0xA0 SHL SUB AND GAS STATICCALL DUP1 ISZERO PUSH2 0x499 JUMPI PUSH2 0x9C5 SWAP2 PUSH0 SWAP2 PUSH2 0x653 JUMPI POP PUSH1 0x1 PUSH1 0x1 PUSH1 0xA0 SHL SUB AND CALLER EQ PUSH2 0xAF9 JUMP JUMPDEST PUSH0 MLOAD PUSH1 0x20 PUSH2 0xC6F PUSH0 CODECOPY PUSH0 MLOAD SWAP1 PUSH0 MSTORE SLOAD PUSH1 0xFF DUP2 AND ISZERO PUSH2 0xA41 JUMPI PUSH1 0xFF NOT AND PUSH0 MLOAD PUSH1 0x20 PUSH2 0xC6F PUSH0 CODECOPY PUSH0 MLOAD SWAP1 PUSH0 MSTORE SSTORE PUSH32 0x5DB9EE0A495BF2E6FF9C91A7834C1BA4FDD244A5E8AA4E537BD38AEAE4B073AA PUSH1 0x20 PUSH1 0x40 MLOAD CALLER DUP2 MSTORE LOG1 CALLER PUSH32 0x5B65B0C1363B3003DB9BCC5E1FD8805A6D6BF5BF6DC9D3431EE4494CD7D11766 PUSH0 DUP1 LOG2 STOP JUMPDEST PUSH4 0x8DFC202B PUSH1 0xE0 SHL PUSH0 MSTORE PUSH1 0x4 PUSH0 REVERT JUMPDEST CALLVALUE PUSH2 0x265 JUMPI PUSH0 CALLDATASIZE PUSH1 0x3 NOT ADD SLT PUSH2 0x265 JUMPI PUSH0 SLOAD PUSH1 0x1 PUSH1 0x1 PUSH1 0xA0 SHL SUB AND DUP2 MSTORE PUSH1 0x20 SWAP1 RETURN JUMPDEST PUSH1 0x4 CALLDATALOAD SWAP1 PUSH1 0x1 PUSH1 0x1 PUSH1 0xA0 SHL SUB DUP3 AND DUP3 SUB PUSH2 0x265 JUMPI JUMP JUMPDEST SWAP1 PUSH1 0x1F DUP1 NOT SWAP2 ADD AND DUP2 ADD SWAP1 DUP2 LT PUSH8 0xFFFFFFFFFFFFFFFF DUP3 GT OR PUSH2 0xAAA JUMPI PUSH1 0x40 MSTORE JUMP JUMPDEST PUSH4 0x4E487B71 PUSH1 0xE0 SHL PUSH0 MSTORE PUSH1 0x41 PUSH1 0x4 MSTORE PUSH1 0x24 PUSH0 REVERT JUMPDEST PUSH8 0xFFFFFFFFFFFFFFFF DUP2 GT PUSH2 0xAAA JUMPI PUSH1 0x1F ADD PUSH1 0x1F NOT AND PUSH1 0x20 ADD SWAP1 JUMP JUMPDEST SWAP1 DUP2 PUSH1 0x20 SWAP2 SUB SLT PUSH2 0x265 JUMPI MLOAD PUSH1 0x1 PUSH1 0x1 PUSH1 0xA0 SHL SUB DUP2 AND DUP2 SUB PUSH2 0x265 JUMPI SWAP1 JUMP JUMPDEST ISZERO PUSH2 0xB00 JUMPI JUMP JUMPDEST PUSH1 0x40 MLOAD PUSH3 0x461BCD PUSH1 0xE5 SHL DUP2 MSTORE PUSH1 0x20 PUSH1 0x4 DUP3 ADD MSTORE PUSH1 0x9 PUSH1 0x24 DUP3 ADD MSTORE PUSH9 0x2737BA1037BBB732B9 PUSH1 0xB9 SHL PUSH1 0x44 DUP3 ADD MSTORE PUSH1 0x64 SWAP1 REVERT JUMPDEST RETURNDATASIZE ISZERO PUSH2 0xB5B JUMPI RETURNDATASIZE SWAP1 PUSH2 0xB42 DUP3 PUSH2 0xABE JUMP JUMPDEST SWAP2 PUSH2 0xB50 PUSH1 0x40 MLOAD SWAP4 DUP5 PUSH2 0xA88 JUMP JUMPDEST DUP3 MSTORE RETURNDATASIZE PUSH0 PUSH1 0x20 DUP5 ADD RETURNDATACOPY JUMP JUMPDEST PUSH1 0x60 SWAP1 JUMP JUMPDEST PUSH1 0x1 PUSH1 0x1 PUSH1 0xA0 SHL SUB AND ISZERO PUSH2 0xB70 JUMPI JUMP JUMPDEST PUSH1 0x40 MLOAD PUSH3 0x461BCD PUSH1 0xE5 SHL DUP2 MSTORE PUSH1 0x20 PUSH1 0x4 DUP3 ADD MSTORE PUSH1 0x27 PUSH1 0x24 DUP3 ADD MSTORE PUSH32 0x416363657373436F6E74726F6C3A207A65726F2061646472657373206E6F7420 PUSH1 0x44 DUP3 ADD MSTORE PUSH7 0x185B1B1BDDD959 PUSH1 0xCA SHL PUSH1 0x64 DUP3 ADD MSTORE PUSH1 0x84 SWAP1 REVERT JUMPDEST PUSH1 0xFF PUSH0 MLOAD PUSH1 0x20 PUSH2 0xCAF PUSH0 CODECOPY PUSH0 MLOAD SWAP1 PUSH0 MSTORE SLOAD PUSH1 0x40 SHR AND ISZERO PUSH2 0xBE1 JUMPI JUMP JUMPDEST PUSH4 0x1AFCD79F PUSH1 0xE3 SHL PUSH0 MSTORE PUSH1 0x4 PUSH0 REVERT JUMPDEST SWAP1 PUSH2 0xC14 JUMPI POP DUP1 MLOAD ISZERO PUSH2 0xC05 JUMPI PUSH1 0x20 DUP2 MLOAD SWAP2 ADD REVERT JUMPDEST PUSH4 0xD6BDA275 PUSH1 0xE0 SHL PUSH0 MSTORE PUSH1 0x4 PUSH0 REVERT JUMPDEST DUP2 MLOAD ISZERO DUP1 PUSH2 0xC45 JUMPI JUMPDEST PUSH2 0xC25 JUMPI POP SWAP1 JUMP JUMPDEST PUSH4 0x9996B315 PUSH1 0xE0 SHL PUSH0 SWAP1 DUP2 MSTORE PUSH1 0x1 PUSH1 0x1 PUSH1 0xA0 SHL SUB SWAP2 SWAP1 SWAP2 AND PUSH1 0x4 MSTORE PUSH1 0x24 SWAP1 REVERT JUMPDEST POP DUP1 EXTCODESIZE ISZERO PUSH2 0xC1D JUMP INVALID CALLDATASIZE ADDMOD SWAP5 LOG1 EXTCODESIZE LOG1 LOG3 0x21 MOD PUSH8 0xC828492DB98DCA3E KECCAK256 PUSH23 0xCC3735A920A3CA505D382BBCCD5ED15C6E187E77E9AEE8 DUP2 DUP5 0xC2 0x1F 0x4F 0x21 DUP3 0xAB PC 0x27 0xCB EXTCODESIZE PUSH31 0x7FBEDCD63F033009B779B17422D0DF92223018B32B4D1FA46E071723D6817 0xE2 BASEFEE PUSH14 0x3BECC55F00F0C57E16840DF040 CALL POP DUP9 0xDC 0x2F DUP2 INVALID CODECOPY SHR CODECOPY 0x23 0xBE 0xC7 RETURNDATACOPY 0x23 0xA9 PUSH7 0x2EFC9C229C6A00 LOG2 PUSH5 0x6970667358 0x22 SLT KECCAK256 0xB7 OR LOG3 0x4C 0xCD PUSH8 0x303AD7D59800BF3C SIGNEXTEND 0xD5 0xBD LOG0 0xCC 0x21 MSTORE SLT 0xAC 0xB0 PUSH32 0xB847026220AC5264736F6C634300081E00330000000000000000000000000000 "
				},
				"gasEstimates": {
					"creation": {
						"codeDepositCost": "666400",
						"executionCost": "infinite",
						"totalCost": "infinite"
					},
					"external": {
						"": "1826",
						"UPGRADE_INTERFACE_VERSION()": "584",
						"accessControl()": "2265",
						"changeAccessControl(address)": "infinite",
						"initialize(address)": "infinite",
						"pause()": "infinite",
						"paused()": "infinite",
						"proxiableUUID()": "infinite",
						"transfer(address,uint256)": "infinite",
						"unpause()": "infinite",
						"upgradeToAndCall(address,bytes)": "infinite"
					},
					"internal": {
						"_authorizeUpgrade(address)": "infinite"
					}
				},
				"methodIdentifiers": {
					"UPGRADE_INTERFACE_VERSION()": "ad3cb1cc",
					"accessControl()": "13007d55",
					"changeAccessControl(address)": "9387730c",
					"initialize(address)": "c4d66de8",
					"pause()": "8456cb59",
					"paused()": "5c975abb",
					"proxiableUUID()": "52d1902d",
					"transfer(address,uint256)": "a9059cbb",
					"unpause()": "3f4ba83a",
					"upgradeToAndCall(address,bytes)": "4f1ef286"
				}
			},
			"storageLayout": {
				"storage": [
					{
						"astId": 1551,
						"contract": "system/Wallet.sol:System_wallet",
						"label": "accessControl",
						"offset": 0,
						"slot": "0",
						"type": "t_contract(IAccessControl)1544"
					},
					{
						"astId": 1672,
						"contract": "system/Wallet.sol:System_wallet",
						"label": "Total_Equity",
						"offset": 0,
						"slot": "1",
						"type": "t_uint256"
					},
					{
						"astId": 1677,
						"contract": "system/Wallet.sol:System_wallet",
						"label": "___gap",
						"offset": 0,
						"slot": "2",
						"type": "t_array(t_uint256)50_storage"
					}
				],
				"types": {
					"t_array(t_uint256)50_storage": {
						"base": "t_uint256",
						"encoding": "inplace",
						"label": "uint256[50]",
						"numberOfBytes": "1600"
					},
					"t_contract(IAccessControl)1544": {
						"encoding": "inplace",
						"label": "contract IAccessControl",
						"numberOfBytes": "20"
					},
					"t_uint256": {
						"encoding": "inplace",
						"label": "uint256",
						"numberOfBytes": "32"
					}
				}
			},
			"userdoc": {
				"errors": {
					"InsufficientFunds()": [
						{
							"notice": "Custom error for insufficient funds in the wallet"
						}
					]
				},
				"events": {
					"contract_received_fund(address,uint256)": {
						"notice": "Emitted when funds are received into the wallet"
					},
					"contract_transfered_fund(address,uint256)": {
						"notice": "Emitted when funds are transferred out of the wallet"
					}
				},
				"kind": "user",
				"methods": {
					"accessControl()": {
						"notice": "Reference to the central EmployeeAssignment contract."
					},
					"initialize(address)": {
						"notice": "Initializes the contract with the employee assignment address"
					},
					"pause()": {
						"notice": "Pauses contract functionality"
					},
					"transfer(address,uint256)": {
						"notice": "Transfers funds from the wallet to a specified address"
					},
					"unpause()": {
						"notice": "Unpauses contract functionality"
					}
				},
				"notice": "Upgradeable contract for managing system funds with role-based access control",
				"version": 1
			}
		}
	}
}