{
  "_format": "hh-sol-artifact-1",
  "contractName": "TrustlessTeamProtocol",
  "sourceName": "contracts/User/TrustlessTeamProtocol.sol",
  "abi": [
    {
      "inputs": [
        {
          "internalType": "address",
          "name": "target",
          "type": "address"
        }
      ],
      "name": "AddressEmptyCode",
      "type": "error"
    },
    {
      "inputs": [],
      "name": "AlreadyRequestedJoin",
      "type": "error"
    },
    {
      "inputs": [],
      "name": "AlredyClaimed",
      "type": "error"
    },
    {
      "inputs": [],
      "name": "AlredyRegistered",
      "type": "error"
    },
    {
      "inputs": [],
      "name": "CancelOnlyWhenMemberAssigned",
      "type": "error"
    },
    {
      "inputs": [],
      "name": "DeadlineNotExceeded",
      "type": "error"
    },
    {
      "inputs": [
        {
          "internalType": "address",
          "name": "implementation",
          "type": "address"
        }
      ],
      "name": "ERC1967InvalidImplementation",
      "type": "error"
    },
    {
      "inputs": [],
      "name": "ERC1967NonPayable",
      "type": "error"
    },
    {
      "inputs": [],
      "name": "EnforcedPause",
      "type": "error"
    },
    {
      "inputs": [],
      "name": "ExpectedPause",
      "type": "error"
    },
    {
      "inputs": [],
      "name": "FailedCall",
      "type": "error"
    },
    {
      "inputs": [],
      "name": "InsufficientStake",
      "type": "error"
    },
    {
      "inputs": [],
      "name": "InvalidAge",
      "type": "error"
    },
    {
      "inputs": [],
      "name": "InvalidDeadline",
      "type": "error"
    },
    {
      "inputs": [],
      "name": "InvalidGithubURL",
      "type": "error"
    },
    {
      "inputs": [],
      "name": "InvalidInitialization",
      "type": "error"
    },
    {
      "inputs": [],
      "name": "InvalidMemberStakePercentReward",
      "type": "error"
    },
    {
      "inputs": [],
      "name": "InvalidName",
      "type": "error"
    },
    {
      "inputs": [],
      "name": "InvalidNote",
      "type": "error"
    },
    {
      "inputs": [],
      "name": "InvalidReason",
      "type": "error"
    },
    {
      "inputs": [],
      "name": "InvalidRewardAmount",
      "type": "error"
    },
    {
      "inputs": [],
      "name": "InvalidStakeAmount",
      "type": "error"
    },
    {
      "inputs": [],
      "name": "InvalidTitle",
      "type": "error"
    },
    {
      "inputs": [],
      "name": "NoFunds",
      "type": "error"
    },
    {
      "inputs": [],
      "name": "NoSubmision",
      "type": "error"
    },
    {
      "inputs": [],
      "name": "NotCounterparty",
      "type": "error"
    },
    {
      "inputs": [],
      "name": "NotInitializing",
      "type": "error"
    },
    {
      "inputs": [],
      "name": "NotRegistered",
      "type": "error"
    },
    {
      "inputs": [],
      "name": "NotTaskCreator",
      "type": "error"
    },
    {
      "inputs": [],
      "name": "NotTaskMember",
      "type": "error"
    },
    {
      "inputs": [],
      "name": "ReentrancyGuardReentrantCall",
      "type": "error"
    },
    {
      "inputs": [],
      "name": "RewardOverflow",
      "type": "error"
    },
    {
      "inputs": [],
      "name": "StakeHitLimit",
      "type": "error"
    },
    {
      "inputs": [],
      "name": "StakeMismatch",
      "type": "error"
    },
    {
      "inputs": [],
      "name": "StakeOverflow",
      "type": "error"
    },
    {
      "inputs": [],
      "name": "TaskDoesNotExist",
      "type": "error"
    },
    {
      "inputs": [],
      "name": "TaskNotOpen",
      "type": "error"
    },
    {
      "inputs": [],
      "name": "TaskNotSubmittedYet",
      "type": "error"
    },
    {
      "inputs": [],
      "name": "TooManyRevisions",
      "type": "error"
    },
    {
      "inputs": [],
      "name": "UUPSUnauthorizedCallContext",
      "type": "error"
    },
    {
      "inputs": [
        {
          "internalType": "bytes32",
          "name": "slot",
          "type": "bytes32"
        }
      ],
      "name": "UUPSUnsupportedProxiableUUID",
      "type": "error"
    },
    {
      "inputs": [],
      "name": "ValueMismatch",
      "type": "error"
    },
    {
      "inputs": [],
      "name": "alredyInPending",
      "type": "error"
    },
    {
      "inputs": [],
      "name": "submissionAlreadyPending",
      "type": "error"
    },
    {
      "anonymous": false,
      "inputs": [
        {
          "indexed": false,
          "internalType": "address",
          "name": "newAccessControl",
          "type": "address"
        }
      ],
      "name": "AccessControlChanged",
      "type": "event"
    },
    {
      "anonymous": false,
      "inputs": [
        {
          "indexed": true,
          "internalType": "address",
          "name": "caller",
          "type": "address"
        }
      ],
      "name": "ContractPaused",
      "type": "event"
    },
    {
      "anonymous": false,
      "inputs": [
        {
          "indexed": true,
          "internalType": "address",
          "name": "caller",
          "type": "address"
        }
      ],
      "name": "ContractUnpaused",
      "type": "event"
    },
    {
      "anonymous": false,
      "inputs": [
        {
          "indexed": true,
          "internalType": "uint256",
          "name": "taskId",
          "type": "uint256"
        }
      ],
      "name": "DeadlineTriggered",
      "type": "event"
    },
    {
      "anonymous": false,
      "inputs": [
        {
          "indexed": false,
          "internalType": "uint256",
          "name": "amount",
          "type": "uint256"
        }
      ],
      "name": "FeeWithdrawnToSystemWallet",
      "type": "event"
    },
    {
      "anonymous": false,
      "inputs": [
        {
          "indexed": false,
          "internalType": "uint64",
          "name": "version",
          "type": "uint64"
        }
      ],
      "name": "Initialized",
      "type": "event"
    },
    {
      "anonymous": false,
      "inputs": [
        {
          "indexed": true,
          "internalType": "uint256",
          "name": "taskId",
          "type": "uint256"
        },
        {
          "indexed": true,
          "internalType": "address",
          "name": "applicant",
          "type": "address"
        }
      ],
      "name": "JoinApproved",
      "type": "event"
    },
    {
      "anonymous": false,
      "inputs": [
        {
          "indexed": true,
          "internalType": "uint256",
          "name": "taskId",
          "type": "uint256"
        },
        {
          "indexed": true,
          "internalType": "address",
          "name": "applicant",
          "type": "address"
        }
      ],
      "name": "JoinRejected",
      "type": "event"
    },
    {
      "anonymous": false,
      "inputs": [
        {
          "indexed": true,
          "internalType": "uint256",
          "name": "taskId",
          "type": "uint256"
        },
        {
          "indexed": true,
          "internalType": "address",
          "name": "applicant",
          "type": "address"
        },
        {
          "indexed": false,
          "internalType": "uint256",
          "name": "stakeAmount",
          "type": "uint256"
        }
      ],
      "name": "JoinRequested",
      "type": "event"
    },
    {
      "anonymous": false,
      "inputs": [
        {
          "indexed": true,
          "internalType": "uint256",
          "name": "taskId",
          "type": "uint256"
        },
        {
          "indexed": true,
          "internalType": "address",
          "name": "user",
          "type": "address"
        }
      ],
      "name": "JoinrequestCancelled",
      "type": "event"
    },
    {
      "anonymous": false,
      "inputs": [
        {
          "indexed": false,
          "internalType": "address",
          "name": "account",
          "type": "address"
        }
      ],
      "name": "Paused",
      "type": "event"
    },
    {
      "anonymous": false,
      "inputs": [
        {
          "indexed": true,
          "internalType": "uint256",
          "name": "taskId",
          "type": "uint256"
        }
      ],
      "name": "RegistrationClosed",
      "type": "event"
    },
    {
      "anonymous": false,
      "inputs": [
        {
          "indexed": true,
          "internalType": "uint256",
          "name": "taskId",
          "type": "uint256"
        }
      ],
      "name": "RegistrationOpened",
      "type": "event"
    },
    {
      "anonymous": false,
      "inputs": [
        {
          "indexed": true,
          "internalType": "uint256",
          "name": "taskId",
          "type": "uint256"
        },
        {
          "indexed": false,
          "internalType": "uint8",
          "name": "revisionCount",
          "type": "uint8"
        },
        {
          "indexed": false,
          "internalType": "uint256",
          "name": "newDeadline",
          "type": "uint256"
        }
      ],
      "name": "RevisionRequested",
      "type": "event"
    },
    {
      "anonymous": false,
      "inputs": [
        {
          "indexed": false,
          "internalType": "address",
          "name": "newStateVar",
          "type": "address"
        }
      ],
      "name": "StateVarChanged",
      "type": "event"
    },
    {
      "anonymous": false,
      "inputs": [
        {
          "indexed": false,
          "internalType": "address",
          "name": "newWallet",
          "type": "address"
        }
      ],
      "name": "SystemWalletChanged",
      "type": "event"
    },
    {
      "anonymous": false,
      "inputs": [
        {
          "indexed": true,
          "internalType": "uint256",
          "name": "taskId",
          "type": "uint256"
        }
      ],
      "name": "TaskActive",
      "type": "event"
    },
    {
      "anonymous": false,
      "inputs": [
        {
          "indexed": true,
          "internalType": "uint256",
          "name": "taskId",
          "type": "uint256"
        }
      ],
      "name": "TaskApproved",
      "type": "event"
    },
    {
      "anonymous": false,
      "inputs": [
        {
          "indexed": true,
          "internalType": "uint256",
          "name": "taskId",
          "type": "uint256"
        },
        {
          "indexed": true,
          "internalType": "address",
          "name": "initiator",
          "type": "address"
        }
      ],
      "name": "TaskCancelledByMe",
      "type": "event"
    },
    {
      "anonymous": false,
      "inputs": [
        {
          "indexed": false,
          "internalType": "string",
          "name": "title",
          "type": "string"
        },
        {
          "indexed": true,
          "internalType": "uint256",
          "name": "taskId",
          "type": "uint256"
        },
        {
          "indexed": true,
          "internalType": "address",
          "name": "creator",
          "type": "address"
        },
        {
          "indexed": false,
          "internalType": "uint256",
          "name": "reward",
          "type": "uint256"
        },
        {
          "indexed": false,
          "internalType": "uint256",
          "name": "creatorStake",
          "type": "uint256"
        }
      ],
      "name": "TaskCreated",
      "type": "event"
    },
    {
      "anonymous": false,
      "inputs": [
        {
          "indexed": false,
          "internalType": "uint256",
          "name": "taskId",
          "type": "uint256"
        }
      ],
      "name": "TaskDeleted",
      "type": "event"
    },
    {
      "anonymous": false,
      "inputs": [
        {
          "indexed": true,
          "internalType": "uint256",
          "name": "taskId",
          "type": "uint256"
        },
        {
          "indexed": true,
          "internalType": "address",
          "name": "member",
          "type": "address"
        }
      ],
      "name": "TaskReSubmitted",
      "type": "event"
    },
    {
      "anonymous": false,
      "inputs": [
        {
          "indexed": true,
          "internalType": "uint256",
          "name": "taskId",
          "type": "uint256"
        },
        {
          "indexed": true,
          "internalType": "address",
          "name": "member",
          "type": "address"
        },
        {
          "indexed": false,
          "internalType": "string",
          "name": "githubURL",
          "type": "string"
        }
      ],
      "name": "TaskSubmitted",
      "type": "event"
    },
    {
      "anonymous": false,
      "inputs": [
        {
          "indexed": false,
          "internalType": "address",
          "name": "account",
          "type": "address"
        }
      ],
      "name": "Unpaused",
      "type": "event"
    },
    {
      "anonymous": false,
      "inputs": [
        {
          "indexed": true,
          "internalType": "address",
          "name": "implementation",
          "type": "address"
        }
      ],
      "name": "Upgraded",
      "type": "event"
    },
    {
      "anonymous": false,
      "inputs": [
        {
          "indexed": true,
          "internalType": "address",
          "name": "user",
          "type": "address"
        },
        {
          "indexed": false,
          "internalType": "string",
          "name": "name",
          "type": "string"
        },
        {
          "indexed": false,
          "internalType": "uint128",
          "name": "age",
          "type": "uint128"
        }
      ],
      "name": "UserRegistered",
      "type": "event"
    },
    {
      "anonymous": false,
      "inputs": [
        {
          "indexed": true,
          "internalType": "address",
          "name": "user",
          "type": "address"
        },
        {
          "indexed": false,
          "internalType": "string",
          "name": "name",
          "type": "string"
        },
        {
          "indexed": false,
          "internalType": "uint128",
          "name": "age",
          "type": "uint128"
        }
      ],
      "name": "UserUnregistered",
      "type": "event"
    },
    {
      "anonymous": false,
      "inputs": [
        {
          "indexed": true,
          "internalType": "address",
          "name": "user",
          "type": "address"
        },
        {
          "indexed": false,
          "internalType": "uint256",
          "name": "amount",
          "type": "uint256"
        }
      ],
      "name": "Withdrawal",
      "type": "event"
    },
    {
      "anonymous": false,
      "inputs": [
        {
          "indexed": false,
          "internalType": "uint256",
          "name": "NewmemberStakePercentReward",
          "type": "uint256"
        }
      ],
      "name": "memberStakePercentRewardChanged",
      "type": "event"
    },
    {
      "stateMutability": "payable",
      "type": "fallback"
    },
    {
      "inputs": [
        {
          "internalType": "string",
          "name": "Name",
          "type": "string"
        },
        {
          "internalType": "uint128",
          "name": "Age",
          "type": "uint128"
        },
        {
          "internalType": "string",
          "name": "githubURL",
          "type": "string"
        },
        {
          "internalType": "address",
          "name": "user",
          "type": "address"
        }
      ],
      "name": "Register",
      "outputs": [],
      "stateMutability": "nonpayable",
      "type": "function"
    },
    {
      "inputs": [
        {
          "internalType": "uint256",
          "name": "",
          "type": "uint256"
        }
      ],
      "name": "TaskSubmits",
      "outputs": [
        {
          "internalType": "string",
          "name": "githubURL",
          "type": "string"
        },
        {
          "internalType": "address",
          "name": "sender",
          "type": "address"
        },
        {
          "internalType": "string",
          "name": "note",
          "type": "string"
        },
        {
          "internalType": "enum TrustlessTeamProtocol.SubmitStatus",
          "name": "status",
          "type": "uint8"
        },
        {
          "internalType": "uint8",
          "name": "revisionTime",
          "type": "uint8"
        },
        {
          "internalType": "uint256",
          "name": "newDeadline",
          "type": "uint256"
        }
      ],
      "stateMutability": "view",
      "type": "function"
    },
    {
      "inputs": [
        {
          "internalType": "uint256",
          "name": "",
          "type": "uint256"
        }
      ],
      "name": "Tasks",
      "outputs": [
        {
          "internalType": "uint256",
          "name": "taskId",
          "type": "uint256"
        },
        {
          "internalType": "enum TrustlessTeamProtocol.TaskStatus",
          "name": "status",
          "type": "uint8"
        },
        {
          "internalType": "enum TrustlessTeamProtocol.TaskValue",
          "name": "value",
          "type": "uint8"
        },
        {
          "internalType": "address",
          "name": "creator",
          "type": "address"
        },
        {
          "internalType": "address",
          "name": "member",
          "type": "address"
        },
        {
          "internalType": "string",
          "name": "title",
          "type": "string"
        },
        {
          "internalType": "string",
          "name": "githubURL",
          "type": "string"
        },
        {
          "internalType": "uint256",
          "name": "reward",
          "type": "uint256"
        },
        {
          "internalType": "uint32",
          "name": "deadlineHours",
          "type": "uint32"
        },
        {
          "internalType": "uint256",
          "name": "deadlineAt",
          "type": "uint256"
        },
        {
          "internalType": "uint256",
          "name": "createdAt",
          "type": "uint256"
        },
        {
          "internalType": "uint256",
          "name": "creatorStake",
          "type": "uint256"
        },
        {
          "internalType": "uint256",
          "name": "memberStake",
          "type": "uint256"
        },
        {
          "internalType": "uint8",
          "name": "maxRevision",
          "type": "uint8"
        },
        {
          "internalType": "bool",
          "name": "isMemberStakeLocked",
          "type": "bool"
        },
        {
          "internalType": "bool",
          "name": "isCreatorStakeLocked",
          "type": "bool"
        },
        {
          "internalType": "bool",
          "name": "isRewardClaimed",
          "type": "bool"
        },
        {
          "internalType": "bool",
          "name": "exists",
          "type": "bool"
        }
      ],
      "stateMutability": "view",
      "type": "function"
    },
    {
      "inputs": [],
      "name": "UPGRADE_INTERFACE_VERSION",
      "outputs": [
        {
          "internalType": "string",
          "name": "",
          "type": "string"
        }
      ],
      "stateMutability": "view",
      "type": "function"
    },
    {
      "inputs": [
        {
          "internalType": "address",
          "name": "user",
          "type": "address"
        }
      ],
      "name": "Unregister",
      "outputs": [
        {
          "internalType": "string",
          "name": "",
          "type": "string"
        }
      ],
      "stateMutability": "nonpayable",
      "type": "function"
    },
    {
      "inputs": [
        {
          "internalType": "address",
          "name": "",
          "type": "address"
        }
      ],
      "name": "Users",
      "outputs": [
        {
          "internalType": "uint256",
          "name": "totalTasksCreated",
          "type": "uint256"
        },
        {
          "internalType": "uint256",
          "name": "totalTasksCompleted",
          "type": "uint256"
        },
        {
          "internalType": "uint256",
          "name": "totalTasksFailed",
          "type": "uint256"
        },
        {
          "internalType": "uint128",
          "name": "reputation",
          "type": "uint128"
        },
        {
          "internalType": "uint128",
          "name": "age",
          "type": "uint128"
        },
        {
          "internalType": "bool",
          "name": "isRegistered",
          "type": "bool"
        },
        {
          "internalType": "string",
          "name": "name",
          "type": "string"
        },
        {
          "internalType": "string",
          "name": "GitProfile",
          "type": "string"
        }
      ],
      "stateMutability": "view",
      "type": "function"
    },
    {
      "inputs": [
        {
          "internalType": "uint32",
          "name": "DeadlineHours",
          "type": "uint32"
        },
        {
          "internalType": "uint8",
          "name": "MaximumRevision",
          "type": "uint8"
        },
        {
          "internalType": "uint256",
          "name": "rewardWei",
          "type": "uint256"
        },
        {
          "internalType": "address",
          "name": "Caller",
          "type": "address"
        }
      ],
      "name": "__getCreatorStake",
      "outputs": [
        {
          "internalType": "uint256",
          "name": "",
          "type": "uint256"
        }
      ],
      "stateMutability": "view",
      "type": "function"
    },
    {
      "inputs": [],
      "name": "accessControl",
      "outputs": [
        {
          "internalType": "contract IAccessControl",
          "name": "",
          "type": "address"
        }
      ],
      "stateMutability": "view",
      "type": "function"
    },
    {
      "inputs": [
        {
          "internalType": "uint256",
          "name": "taskId",
          "type": "uint256"
        }
      ],
      "name": "activateTask",
      "outputs": [],
      "stateMutability": "payable",
      "type": "function"
    },
    {
      "inputs": [
        {
          "internalType": "uint256",
          "name": "taskId",
          "type": "uint256"
        }
      ],
      "name": "approveJoinRequest",
      "outputs": [],
      "stateMutability": "nonpayable",
      "type": "function"
    },
    {
      "inputs": [
        {
          "internalType": "uint256",
          "name": "taskId",
          "type": "uint256"
        },
        {
          "internalType": "uint256",
          "name": "SubmitId",
          "type": "uint256"
        }
      ],
      "name": "approveTask",
      "outputs": [],
      "stateMutability": "nonpayable",
      "type": "function"
    },
    {
      "inputs": [
        {
          "internalType": "uint256",
          "name": "taskId",
          "type": "uint256"
        },
        {
          "internalType": "address",
          "name": "user",
          "type": "address"
        }
      ],
      "name": "cancelByMe",
      "outputs": [],
      "stateMutability": "nonpayable",
      "type": "function"
    },
    {
      "inputs": [
        {
          "internalType": "uint256",
          "name": "taskId",
          "type": "uint256"
        }
      ],
      "name": "closeRegistration",
      "outputs": [],
      "stateMutability": "nonpayable",
      "type": "function"
    },
    {
      "inputs": [
        {
          "internalType": "string",
          "name": "Title",
          "type": "string"
        },
        {
          "internalType": "string",
          "name": "GithubURL",
          "type": "string"
        },
        {
          "internalType": "uint32",
          "name": "DeadlineHours",
          "type": "uint32"
        },
        {
          "internalType": "uint8",
          "name": "MaximumRevision",
          "type": "uint8"
        },
        {
          "internalType": "address",
          "name": "user",
          "type": "address"
        }
      ],
      "name": "createTask",
      "outputs": [],
      "stateMutability": "payable",
      "type": "function"
    },
    {
      "inputs": [
        {
          "internalType": "uint256",
          "name": "taskId",
          "type": "uint256"
        },
        {
          "internalType": "address",
          "name": "user",
          "type": "address"
        }
      ],
      "name": "deleteTask",
      "outputs": [],
      "stateMutability": "nonpayable",
      "type": "function"
    },
    {
      "inputs": [],
      "name": "feeCollected",
      "outputs": [
        {
          "internalType": "uint256",
          "name": "",
          "type": "uint256"
        }
      ],
      "stateMutability": "view",
      "type": "function"
    },
    {
      "inputs": [
        {
          "internalType": "uint256",
          "name": "taskId",
          "type": "uint256"
        }
      ],
      "name": "getCreatorStake",
      "outputs": [
        {
          "internalType": "uint256",
          "name": "",
          "type": "uint256"
        }
      ],
      "stateMutability": "view",
      "type": "function"
    },
    {
      "inputs": [
        {
          "internalType": "uint256",
          "name": "taskId",
          "type": "uint256"
        }
      ],
      "name": "getJoinRequests",
      "outputs": [
        {
          "components": [
            {
              "internalType": "address",
              "name": "applicant",
              "type": "address"
            },
            {
              "internalType": "uint256",
              "name": "stakeAmount",
              "type": "uint256"
            },
            {
              "internalType": "enum TrustlessTeamProtocol.UserTask",
              "name": "status",
              "type": "uint8"
            },
            {
              "internalType": "bool",
              "name": "isPending",
              "type": "bool"
            },
            {
              "internalType": "bool",
              "name": "hasWithdrawn",
              "type": "bool"
            }
          ],
          "internalType": "struct TrustlessTeamProtocol.JoinRequest[]",
          "name": "",
          "type": "tuple[]"
        }
      ],
      "stateMutability": "view",
      "type": "function"
    },
    {
      "inputs": [
        {
          "internalType": "uint256",
          "name": "taskId",
          "type": "uint256"
        }
      ],
      "name": "getMemberRequiredStake",
      "outputs": [
        {
          "internalType": "uint256",
          "name": "",
          "type": "uint256"
        }
      ],
      "stateMutability": "view",
      "type": "function"
    },
    {
      "inputs": [
        {
          "internalType": "address",
          "name": "user",
          "type": "address"
        }
      ],
      "name": "getMyData",
      "outputs": [
        {
          "components": [
            {
              "internalType": "uint256",
              "name": "totalTasksCreated",
              "type": "uint256"
            },
            {
              "internalType": "uint256",
              "name": "totalTasksCompleted",
              "type": "uint256"
            },
            {
              "internalType": "uint256",
              "name": "totalTasksFailed",
              "type": "uint256"
            },
            {
              "internalType": "uint128",
              "name": "reputation",
              "type": "uint128"
            },
            {
              "internalType": "uint128",
              "name": "age",
              "type": "uint128"
            },
            {
              "internalType": "bool",
              "name": "isRegistered",
              "type": "bool"
            },
            {
              "internalType": "string",
              "name": "name",
              "type": "string"
            },
            {
              "internalType": "string",
              "name": "GitProfile",
              "type": "string"
            }
          ],
          "internalType": "struct TrustlessTeamProtocol.User",
          "name": "",
          "type": "tuple"
        }
      ],
      "stateMutability": "view",
      "type": "function"
    },
    {
      "inputs": [
        {
          "internalType": "uint256",
          "name": "taskId",
          "type": "uint256"
        }
      ],
      "name": "getTaskSubmit",
      "outputs": [
        {
          "components": [
            {
              "internalType": "string",
              "name": "githubURL",
              "type": "string"
            },
            {
              "internalType": "address",
              "name": "sender",
              "type": "address"
            },
            {
              "internalType": "string",
              "name": "note",
              "type": "string"
            },
            {
              "internalType": "enum TrustlessTeamProtocol.SubmitStatus",
              "name": "status",
              "type": "uint8"
            },
            {
              "internalType": "uint8",
              "name": "revisionTime",
              "type": "uint8"
            },
            {
              "internalType": "uint256",
              "name": "newDeadline",
              "type": "uint256"
            }
          ],
          "internalType": "struct TrustlessTeamProtocol.TaskSubmit",
          "name": "",
          "type": "tuple"
        }
      ],
      "stateMutability": "view",
      "type": "function"
    },
    {
      "inputs": [
        {
          "internalType": "address",
          "name": "user",
          "type": "address"
        }
      ],
      "name": "getWithdrawableAmount",
      "outputs": [
        {
          "internalType": "uint256",
          "name": "",
          "type": "uint256"
        }
      ],
      "stateMutability": "view",
      "type": "function"
    },
    {
      "inputs": [
        {
          "internalType": "address",
          "name": "_accessControl",
          "type": "address"
        },
        {
          "internalType": "address payable",
          "name": "_systemWallet",
          "type": "address"
        },
        {
          "internalType": "address",
          "name": "_stateVar",
          "type": "address"
        },
        {
          "internalType": "uint256",
          "name": "_initialmemberStakePercentReward",
          "type": "uint256"
        }
      ],
      "name": "initialize",
      "outputs": [],
      "stateMutability": "nonpayable",
      "type": "function"
    },
    {
      "inputs": [
        {
          "internalType": "address",
          "name": "user",
          "type": "address"
        }
      ],
      "name": "isRegistered",
      "outputs": [
        {
          "internalType": "bool",
          "name": "",
          "type": "bool"
        }
      ],
      "stateMutability": "view",
      "type": "function"
    },
    {
      "inputs": [
        {
          "internalType": "uint256",
          "name": "",
          "type": "uint256"
        },
        {
          "internalType": "uint256",
          "name": "",
          "type": "uint256"
        }
      ],
      "name": "joinRequests",
      "outputs": [
        {
          "internalType": "address",
          "name": "applicant",
          "type": "address"
        },
        {
          "internalType": "uint256",
          "name": "stakeAmount",
          "type": "uint256"
        },
        {
          "internalType": "enum TrustlessTeamProtocol.UserTask",
          "name": "status",
          "type": "uint8"
        },
        {
          "internalType": "bool",
          "name": "isPending",
          "type": "bool"
        },
        {
          "internalType": "bool",
          "name": "hasWithdrawn",
          "type": "bool"
        }
      ],
      "stateMutability": "view",
      "type": "function"
    },
    {
      "inputs": [],
      "name": "memberStakePercentReward",
      "outputs": [
        {
          "internalType": "uint256",
          "name": "",
          "type": "uint256"
        }
      ],
      "stateMutability": "view",
      "type": "function"
    },
    {
      "inputs": [
        {
          "internalType": "uint256",
          "name": "taskId",
          "type": "uint256"
        }
      ],
      "name": "openRegistration",
      "outputs": [],
      "stateMutability": "nonpayable",
      "type": "function"
    },
    {
      "inputs": [
        {
          "internalType": "address",
          "name": "caller",
          "type": "address"
        }
      ],
      "name": "pause",
      "outputs": [],
      "stateMutability": "nonpayable",
      "type": "function"
    },
    {
      "inputs": [],
      "name": "paused",
      "outputs": [
        {
          "internalType": "bool",
          "name": "",
          "type": "bool"
        }
      ],
      "stateMutability": "view",
      "type": "function"
    },
    {
      "inputs": [],
      "name": "proxiableUUID",
      "outputs": [
        {
          "internalType": "bytes32",
          "name": "",
          "type": "bytes32"
        }
      ],
      "stateMutability": "view",
      "type": "function"
    },
    {
      "inputs": [
        {
          "internalType": "uint256",
          "name": "taskId",
          "type": "uint256"
        },
        {
          "internalType": "string",
          "name": "Note",
          "type": "string"
        },
        {
          "internalType": "string",
          "name": "GithubFixedURL",
          "type": "string"
        },
        {
          "internalType": "address",
          "name": "user",
          "type": "address"
        }
      ],
      "name": "reSubmitTask",
      "outputs": [],
      "stateMutability": "nonpayable",
      "type": "function"
    },
    {
      "inputs": [
        {
          "internalType": "uint256",
          "name": "taskId",
          "type": "uint256"
        },
        {
          "internalType": "address",
          "name": "_applicant",
          "type": "address"
        }
      ],
      "name": "rejectJoinRequest",
      "outputs": [],
      "stateMutability": "nonpayable",
      "type": "function"
    },
    {
      "inputs": [
        {
          "internalType": "uint256",
          "name": "taskId",
          "type": "uint256"
        },
        {
          "internalType": "address",
          "name": "user",
          "type": "address"
        }
      ],
      "name": "requestJoinTask",
      "outputs": [],
      "stateMutability": "payable",
      "type": "function"
    },
    {
      "inputs": [
        {
          "internalType": "uint256",
          "name": "taskId",
          "type": "uint256"
        },
        {
          "internalType": "string",
          "name": "Note",
          "type": "string"
        },
        {
          "internalType": "uint256",
          "name": "additionalDeadlineHours",
          "type": "uint256"
        }
      ],
      "name": "requestRevision",
      "outputs": [],
      "stateMutability": "nonpayable",
      "type": "function"
    },
    {
      "inputs": [
        {
          "internalType": "uint256",
          "name": "taskId",
          "type": "uint256"
        },
        {
          "internalType": "string",
          "name": "PullRequestURL",
          "type": "string"
        },
        {
          "internalType": "string",
          "name": "Note",
          "type": "string"
        },
        {
          "internalType": "address",
          "name": "user",
          "type": "address"
        }
      ],
      "name": "requestSubmitTask",
      "outputs": [],
      "stateMutability": "nonpayable",
      "type": "function"
    },
    {
      "inputs": [
        {
          "internalType": "uint256",
          "name": "NewmemberStakePercentReward",
          "type": "uint256"
        }
      ],
      "name": "setMemberStakePercentageFromStake",
      "outputs": [],
      "stateMutability": "nonpayable",
      "type": "function"
    },
    {
      "inputs": [],
      "name": "stateVar",
      "outputs": [
        {
          "internalType": "contract stateVariable",
          "name": "",
          "type": "address"
        }
      ],
      "stateMutability": "view",
      "type": "function"
    },
    {
      "inputs": [],
      "name": "systemWallet",
      "outputs": [
        {
          "internalType": "address payable",
          "name": "",
          "type": "address"
        }
      ],
      "stateMutability": "view",
      "type": "function"
    },
    {
      "inputs": [],
      "name": "taskCounter",
      "outputs": [
        {
          "internalType": "uint256",
          "name": "",
          "type": "uint256"
        }
      ],
      "stateMutability": "view",
      "type": "function"
    },
    {
      "inputs": [
        {
          "internalType": "uint256",
          "name": "taskId",
          "type": "uint256"
        }
      ],
      "name": "triggerDeadline",
      "outputs": [],
      "stateMutability": "nonpayable",
      "type": "function"
    },
    {
      "inputs": [
        {
          "internalType": "address",
          "name": "caller",
          "type": "address"
        }
      ],
      "name": "unpause",
      "outputs": [],
      "stateMutability": "nonpayable",
      "type": "function"
    },
    {
      "inputs": [
        {
          "internalType": "address",
          "name": "newImplementation",
          "type": "address"
        },
        {
          "internalType": "bytes",
          "name": "data",
          "type": "bytes"
        }
      ],
      "name": "upgradeToAndCall",
      "outputs": [],
      "stateMutability": "payable",
      "type": "function"
    },
    {
      "inputs": [
        {
          "internalType": "address",
          "name": "user",
          "type": "address"
        }
      ],
      "name": "withdraw",
      "outputs": [],
      "stateMutability": "nonpayable",
      "type": "function"
    },
    {
      "inputs": [
        {
          "internalType": "uint256",
          "name": "taskId",
          "type": "uint256"
        },
        {
          "internalType": "address",
          "name": "user",
          "type": "address"
        }
      ],
      "name": "withdrawJoinRequest",
      "outputs": [],
      "stateMutability": "nonpayable",
      "type": "function"
    },
    {
      "inputs": [],
      "name": "withdrawToSystemWallet",
      "outputs": [],
      "stateMutability": "nonpayable",
      "type": "function"
    },
    {
      "inputs": [
        {
          "internalType": "address",
          "name": "",
          "type": "address"
        }
      ],
      "name": "withdrawable",
      "outputs": [
        {
          "internalType": "uint256",
          "name": "",
          "type": "uint256"
        }
      ],
      "stateMutability": "view",
      "type": "function"
    },
    {
      "stateMutability": "payable",
      "type": "receive"
    }
  ],
  "bytecode": "0x60a0806040523460295730608052615de8908161002f8239608051818181612df2015261309e0152f35b600080fdfe60806040526004361015610013575b600080fd5b60003560e01c806302cb134e14613f7d5780630cc0df9314613d7457806313007d5514613d4b5780631a9a872314613b275780632737399014613a9b578063294c537414613a215780633cc8e544146139c6578063437b5684146132c15780634ee4de7d146132a35780634f1ef286146130505780634f51595f14612fac57806351cff8d914612e4957806352d1902d14612ddf578063553659f514612dc157806357b001f914612cc85780635867173014612caa5780635c975abb14612c7a5780635e54a14014612bc55780636ca7f95c14612ba75780636d8ed69214612a0c57806375ae3a6e1461290a57806376a67a5114612800578063793816ec146127d757806397f8a8d8146124ff57806399b956a0146124455780639f8d5aa114612345578063a12d93f8146122c5578063a914297614612181578063aadd4b2a14611d82578063ad3cb1cc14611d3b578063ad7d3a7214611d12578063b26ecb37146118ee578063b8be2fea146117e9578063c0a5dded14611392578063c3c5a54714611350578063cca84a0c1461128a578063ce513b6f14611250578063cf756fdf1461105f578063e0d42e9614610f8b578063e1af626414610e0f578063f4b2a46e14610cb5578063f677717514610c62578063fc9e439314610aed578063ff54068b14610a9d578063ff91221f1461060f5763ff9df4220361000e573461000e57608036600319011261000e576004356001600160401b03811161000e576102429036906004016141da565b6024356001600160801b03811692909183830361000e576044356001600160401b03811161000e576102789036906004016141da565b9490610282614183565b600054604051633f784de560e11b8152336004820152906001600160a01b0316602082602481845afa9081156105d6576102ca6020926004946000916105e2575b5015614549565b604051638da5cb5b60e01b815292839182905afa80156105d657610302916000916105a7575b506001600160a01b03163314156145a2565b61030d3315156145e0565b6001600160a01b0316600081815260026020526040902060048101805492979260ff166105965785156105855760128510801561057b575b61056a576003820180546001600160801b0319168155600060018085018290556002850191909155825460ff19161790915560058201926001600160401b0387116104e05761039e8761039886546142ec565b866146cd565b60009387601f811160011461050157806103c3916006976000916104f6575b50614643565b90555b81546001600160801b031660809190911b6001600160801b03191617905501906001600160401b0387116104e0576104088761040284546142ec565b846146cd565b600090601f881160011461046c57968061043c92600080516020615cf38339815191529899600092610461575b5050614643565b90555b610456604051938493604085526040850191614f88565b9060208301520390a2005b013590503880610435565b8282526020822091601f198916815b8181106104c8575091600193918a600080516020615cf38339815191529a9b94106104ae575b505050811b01905561043f565b0135600019600384901b60f8161c191690553880806104a1565b9193602060018192878701358155019501920161047b565b634e487b7160e01b600052604160045260246000fd5b90508b0135386103bd565b50808552602085208589601f1981165b8c818a1061054d57506006985010610533575b5050600188811b0190556103c6565b8a013560001960038b901b60f8161c191690553880610524565b8301358455602098890198600190940193909201918b9150610511565b6304530cb760e41b60005260046000fd5b5060648511610345565b63430f13b360e01b60005260046000fd5b630f018e4960e21b60005260046000fd5b6105c9915060203d6020116105cf575b6105c18183614259565b810190614583565b386102f0565b503d6105b7565b6040513d6000823e3d90fd5b6106029150843d8611610608575b6105fa8183614259565b810190614531565b386102c3565b503d6105f0565b3461000e57602036600319011261000e5760043580600052600560205260ff600b6040600020015460201c1615610a8c576106486151c5565b610650615189565b806000526005602052604060002081600052600360205260ff600360406000200154166004811015610a6557600114610a7b576001810180549160ff83166007811015610a6557600403610a545760078101548015610a43574210610a32576002810180549093600b92916001600160a01b0316151580610a25575b156109db5750600a81015461075490610749906064610718816106ff6001600160401b036106f8615a41565b1685614492565b04926001600160401b03610711615a79565b1690614492565b049060018060a01b03885416600052600460205261073c60406000209182546144cc565b90556009840154906144cc565b6005830154906144cc565b60018060a01b03845460101c16600052600460205261077960406000209182546144cc565b905501805462ffff00191690555b81546001600160a01b031660008181526002602052604090206004015460ff1661092a575b50805460101c6001600160a01b031660008181526002602052604090206004015460ff16610876575b50600660ff1982541617815560018060a01b03905460101c16600052600260205260026040600020016108088154614c28565b9055546001600160a01b031680610854575b507f69c3ad79d0e13d549ed2cf8009be68e25ffa6a38699d0e1983d13a7e3a77e1c6600080a26001600080516020615d5383398151915255005b6000526002602052600260406000200161086e8154614c28565b90558161081a565b6000818152600260205260409020600301546001600160801b031663ffffffff61089e615ba8565b1611156108da5750805460101c6001600160a01b0316600090815260026020526040902060030180546001600160801b03191690555b836107d5565b63ffffffff6108e7615ba8565b600092835260026020526040909220600301805490926001600160801b0392610914929116908316614728565b82546001600160801b03191691161790556108d4565b6000818152600260205260409020600301546001600160801b031663ffffffff610952615b57565b16111561098b575081546001600160a01b0316600090815260026020526040902060030180546001600160801b03191690555b836107ac565b63ffffffff610998615b57565b600092835260026020526040909220600301805490926001600160801b03926109c5929116908316614728565b82546001600160801b0319169116179055610985565b6109ee60098301546005840154906144cc565b9060018060a01b039060101c166000526004602052610a1360406000209182546144cc565b905501805462ffff0019169055610787565b50600a82015415156106cc565b6370affcf560e11b60005260046000fd5b631da7447960e21b60005260046000fd5b63fe89421760e01b60005260046000fd5b634e487b7160e01b600052602160045260246000fd5b63eff3ce5d60e01b60005260046000fd5b63da319dff60e01b60005260046000fd5b3461000e57608036600319011261000e5760043563ffffffff8116810361000e576024359060ff8216820361000e57602091610ae591610adb614183565b9160443591614fa9565b604051908152f35b3461000e57602036600319011261000e5733600052600260205260ff6004604060002001541615610c515760043560009081526006602052604090208054906001600160401b0382116104e05760405191610b4e60208260051b0184614259565b80835260208301809260005260206000206000915b838310610bed5784866040519182916020830190602084525180915260408301919060005b818110610b96575050500390f35b91935091602060a0600192608087518580851b03815116835284810151858401526040810151610bc581614488565b6040840152606081015115156060840152015115156080820152019401910191849392610b88565b60036020600192604051610c0081614223565b848060a01b038654168152848601548382015260ff6002870154818116610c2681614488565b6040840152818160081c161515606084015260101c1615156080820152815201920192019190610b63565b63aba4733960e01b60005260046000fd5b3461000e57602036600319011261000e57610c7b614157565b33600052600260205260ff6004604060002001541615610c515760018060a01b031660005260046020526020604060002054604051908152f35b3461000e57602036600319011261000e5760043560005260056020526040600020805490600181015460ff811660ff8260081c169260018060a01b0360028201541690610d0460038201614326565b91610d1160048301614326565b60058301549563ffffffff600685015416600785015491600886015493600987015495600b600a890154980154986040519d8e5260078b1015610a655761024060a08f9e8f9094610da89760ff9f96610d9a976020850152610d7281614488565b604084015260101c6000196001851b01166060830152608082015201526102408d0190614199565b908b820360c08d0152614199565b9760e08a01526101008901526101208801526101408701526101608601526101808501528181166101a0850152818160081c1615156101c0850152818160101c1615156101e0850152818160181c16151561020085015260201c1615156102208301520390f35b3461000e57602036600319011261000e57610e28614157565b606060e0604051610e3881614207565b60008152600060208201526000604082015260008382015260006080820152600060a08201528260c0820152015233600052600260205260ff6004604060002001541615610c515760018060a01b031660005260026020526040600020604051610ea181614207565b81548152610f8760018301549260208301938452610f73600282015491604085019283526003810154606086019060018060801b0381168252608087019060801c815260ff6004840154169160a088019215158352610f156006610f0760058701614326565b9560c08b0196875201614326565b9560e08901968752604051998a9960208b525160208b01525160408a015251606089015260018060801b03905116608088015260018060801b0390511660a087015251151560c08601525161010060e0860152610120850190614199565b9051838203601f1901610100850152614199565b0390f35b3461000e57602036600319011261000e576004356024602060018060a01b036000541660405192838092633f784de560e11b82523360048301525afa80156105d657610fdf91600091611040575b50614f4d565b610fe76151c5565b80158015611036575b611025576020817f9024f7ca871b3c50efdc18a9da9c9c109f3970b5097980db2c602dd7cc0dead792600955604051908152a1005b630b417afb60e11b60005260046000fd5b5060648111610ff0565b611059915060203d602011610608576105fa8183614259565b83610fd9565b3461000e57608036600319011261000e57611078614157565b6024356001600160a01b0381169081900361000e57604435916001600160a01b0383169081840361000e57600080516020615d7383398151915254604081901c60ff1615946001600160401b03821680159081611248575b600114908161123e575b159081611235575b50611224576001600160401b03198216600117600080516020615d738339815191525561112791866111fb575b5061111985615ad6565b61112283615ad6565b615ad6565b61112f615bfc565b611137615bfc565b61113f615bfc565b6001600080516020615d5383398151915255611159615bfc565b60018060a01b031660018060a01b0319600054161760005560018060a01b0319600154161760015560018060a01b0319600a541617600a55600060075560006008556064356009556111a757005b60ff60401b19600080516020615d738339815191525416600080516020615d73833981519152557fc7f505b2f371ae2175ee4913f4499e1f2633a7b5936321eed1cdaeb6115181d2602060405160018152a1005b6001600160481b0319166001600160401b0117600080516020615d73833981519152558661110f565b63f92ee8a960e01b60005260046000fd5b905015876110e2565b303b1591506110da565b8791506110d0565b3461000e57602036600319011261000e576001600160a01b03611271614157565b1660005260046020526020604060002054604051908152f35b3461000e57602036600319011261000e5760043580600052600560205260ff600b6040600020015460201c1615610a8c5760008181526005602052604090206001015460101c6001600160a01b0316330361133f576112e76151c5565b806000526005602052600160406000200160ff8154166007811015610a6557600203610a5457805460ff191660031790557fe0a3eabfba8d6b242de244fdd6f0372ee66d472686b2cfd89420ef24c0462201600080a2005b63eabf778760e01b60005260046000fd5b3461000e57602036600319011261000e576001600160a01b03611371614157565b166000526002602052602060ff600460406000200154166040519015158152f35b3461000e576113a0366143d7565b94939184600094929452600560205260ff600b6040600020015460201c1615610a8c576000858152600560205260409020600201546001600160a01b0316330361179c576113ec6151c5565b600054604051633f784de560e11b8152336004820152906001600160a01b0316602082602481845afa9081156105d6576114336020926004946000916117cc575015614549565b604051638da5cb5b60e01b815292839182905afa80156105d65761146a916000916117ad57506001600160a01b03163314156145a2565b846000526005602052604060002060ff6001820154166007811015610a6557600403610a545760028101546001600160a01b03978816971687900361179c57821561178b57841561177a57600086815260036020526040902060018101546001600160a01b03161515908161175f575b5061174e576007015493611510604051926114f48461423e565b6114ff368688614297565b845260208401928984523691614297565b946040830195865260608301956001875260808401926000845260a085019283528860005260036020526040600020945180519060018060401b0382116104e0576115658261155f89546142ec565b896146cd565b602090601f83116001146116e7576115879291600091836116dc575050614643565b85555b516001850180546001600160a01b0319166001600160a01b039290921691909117905551805160028501916001600160401b0382116104e0576115d7826115d185546142ec565b856146cd565b602090601f8311600114611675576115f992916000918361166a575050614643565b90555b600383019551916004831015610a65577f9989978868daa22b7a8a054a31e686ab83a420750a2a60b58facca87bf7c12199660ff61164a926004958280198554169116178355511690614712565b51910155611665604051928392602084526020840191614f88565b0390a3005b015190508c80610435565b90601f1983169184600052816000209260005b8181106116c457509084600195949392106116ab575b505050811b0190556115fc565b015160001960f88460031b161c191690558b808061169e565b92936020600181928786015181550195019301611688565b015190508d80610435565b90601f1983169188600052816000209260005b818110611736575090846001959493921061171d575b505050811b01855561158a565b015160001960f88460031b161c191690558c8080611710565b929360206001819287860151815501950193016116fa565b63710b41a360e01b60005260046000fd5b60ff915060030154166004811015610a6557600114886114da565b6324317f8b60e11b60005260046000fd5b631ca4916960e21b60005260046000fd5b631e50374d60e01b60005260046000fd5b6117c6915060203d6020116105cf576105c18183614259565b886102f0565b6117e39150843d8611610608576105fa8183614259565b8b6102c3565b3461000e57600036600319011261000e57600054604051633f784de560e11b815233600482015290602090829060249082906001600160a01b03165afa80156105d65761183d916000916118cf5750614f4d565b611845615189565b61184d6151c5565b60085480156118be5760207f8c982262467417843067e76f4bbf0311c55c60f68259c0082063eee7732a2a1a9160006008556118a360008080808560018060a01b03600a54165af161189d614c77565b50614ca7565b604051908152a16001600080516020615d5383398151915255005b63043f9e1160e41b60005260046000fd5b6118e8915060203d602011610608576105fa8183614259565b82610fd9565b3461000e57604036600319011261000e5760043561190a61416d565b9080600052600560205260ff600b6040600020015460201c1615610a8c57611930615189565b600054604051633f784de560e11b8152336004820152906001600160a01b0316602082602481845afa9081156105d657611977602092600494600091611cf5575015614549565b604051638da5cb5b60e01b815292839182905afa80156105d6576119ae91600091611cd657506001600160a01b03163314156145a2565b6119b66151c5565b60008181526005602052604090206001810180546001600160a01b0394851694919291601082901c1685141580611cbf575b611cae5760ff166007811015610a6557600403610a54576002810180546001600160a01b03169190858303611bed57600a820154600b935090611a706064611a5681611a446001600160401b03611a3d615a41565b1687614492565b04946001600160401b03610711615a79565b0492611a6b60098601546005870154906144cc565b6144cc565b60018060a01b03865460101c166000526004602052611a9560406000209182546144cc565b9055546001600160a01b0316600090815260046020526040902080549091611abc916144cc565b905501805462ffff00191690555b600660ff1982541617905581600052600260205260ff60046040600020015416611b45575b8160005260026020526002604060002001611b0a8154614c28565b90557f19f7047fbece8b5fc78b72bcce829a232f26b08806e65852e2e4afb96572b365600080a36001600080516020615d5383398151915255005b6000828152600260205260409020600301546001600160801b03166001600160401b03611b70615a9e565b161115611b9b57600082815260026020526040902060030180546001600160801b0319169055611aef565b6001600160401b03611bab615a9e565b6000848152600260205260409020600301805490926001600160801b0392611bd7929116908316614728565b82546001600160801b0319169116179055611aef565b508115611c9d576009810154600b92611c4b611c406064611c3481611c226001600160401b03611c1b615a41565b1688614492565b04956001600160401b03610711615a79565b046005860154906144cc565b92600a8501546144cc565b906000526004602052611c6460406000209182546144cc565b905560018060a01b03845460101c166000526004602052611c8b60406000209182546144cc565b905501805462ffff0019169055611aca565b6316f1484160e01b60005260046000fd5b6389f5ad6160e01b60005260046000fd5b5060028201546001600160a01b03168514156119e8565b611cef915060203d6020116105cf576105c18183614259565b846102f0565b611d0c9150843d8611610608576105fa8183614259565b876102c3565b3461000e57600036600319011261000e57600a546040516001600160a01b039091168152602090f35b3461000e57600036600319011261000e57610f876040805190611d5e8183614259565b60058252640352e302e360dc1b602083015251918291602083526020830190614199565b3461000e57611d9036614440565b81600052600560205260ff600b6040600020015460201c1615610a8c5760008281526005602052604090206001015460101c6001600160a01b0316330361133f57611dd9615189565b611de16151c5565b816000526005602052604060002090600052600360205260406000206001820160ff8154166007811015610a6557600403610a5457600382019260ff8454166004811015610a655760010361217057600b810191600160ff845460181c1615151461215f576001840180549093906001600160a01b03161561214e57611e706005840154600a850154906144cc565b926002600982015491019360018060a01b038554166000526004602052611e9d60406000209182546144cc565b905560018060a01b03835460101c166000526004602052611ec460406000209182546144cc565b9055805463ffffff0019166301000000179055805460ff1916600517815581546001600160a01b031660008181526002602052604090206004015460ff166120af575b50805460101c6001600160a01b031660008181526002602052604090206004015460ff16611ffc575b5091600094916004949360018060a01b03905460101c168652600260205260016040872001611f5f8154614c28565b9055546001600160a01b031685526002602052604085206001018054611f8490614c28565b9055611f99611f9384546142ec565b846146a5565b84835580546001600160a01b0319169055600282018054859190611fc690611fc0906142ec565b826146a5565b55805461ffff191660031790550155600080516020615cd3833981519152600080a26001600080516020615d5383398151915255005b94916004949391602060018060a01b03600154166040519788809263b30e0be360e01b82525afa80156105d657600097600497899261207e575b508852600260205260408820600301805490916001600160801b03916120649163ffffffff16908316615296565b1660018060801b0319825416179055919394509194611f30565b6120a191925060203d6020116120a8575b6120998183614259565b810190615b3b565b908a612036565b503d61208f565b60015460405163c7d3f62f60e01b81529190602090839060049082906001600160a01b03165afa9182156105d65760009261212d575b506000908152600260205260409020600301805490916001600160801b03916121169163ffffffff16908316615296565b82546001600160801b031916911617905586611f07565b61214791925060203d6020116120a8576120998183614259565b90886120e5565b631534b94560e21b60005260046000fd5b637dbbaaa960e01b60005260046000fd5b632901198f60e01b60005260046000fd5b3461000e57602036600319011261000e57600060a06040516121a28161423e565b6060815282602082015260606040820152826060820152826080820152015233600052600260205260ff6004604060002001541615610c5157600435600052600360205260406000206040516121f78161423e565b61220082614326565b815260018201546001600160a01b03166020820190815261222360028401614326565b60408301908152600384015460608401929060ff81166004811015610a65576122a860ff936004612286996122b49489528660808b019660081c16865201549560a08901968752604051998a9960208b525160c060208c015260e08b0190614199565b91516001600160a01b031660408a015251888203601f190160608a0152614199565b945160808701906143ca565b511660a08401525160c08301520390f35b3461000e576122d336614440565b9060005260066020526040600020805482101561000e5760a0916122f691614456565b5060ff600180841b0382541691600260018201549101549082821690604051948552602085015261232681614488565b6040840152818160081c161515606084015260101c1615156080820152f35b3461000e57604036600319011261000e5760043561236161416d565b612369615189565b33600052600260205260ff6004604060002001541615610c5157816020917fd078b251d950cc55c44340be1db732337ef4939a76e1367ee271ad2cb19c46af93600052600583526009604060002060018101600660ff19825416179055600b810164ff00ff000019815416905560058101549260018060a01b03169283600052600486526123fd60406000209182546144cc565b905501549081612425575b5050604051908152a16001600080516020615d5383398151915255005b6000526004835261243c60406000209182546144cc565b90558380612408565b3461000e57602036600319011261000e576001600160a01b03612466614157565b16600052600260205260406000208054610f876001830154926124f1600282015491600381015460ff600483015416906124ae60066124a760058601614326565b9401614326565b9460405198899889526020890152604088015260018060801b038116606088015260801c6080870152151560a086015261010060c0860152610100850190614199565b9083820360e0850152614199565b604036600319011261000e5760043561251661416d565b9080600052600560205260ff600b6040600020015460201c1615610a8c5761253c6151c5565b33600052600260205260ff6004604060002001541615610c5157600054604051633f784de560e11b8152336004820152906001600160a01b0316602082602481845afa9081156105d65761259d602092600494600091611cf5575015614549565b604051638da5cb5b60e01b815292839182905afa80156105d6576125d491600091611cd657506001600160a01b03163314156145a2565b6125df3315156145e0565b60008181526005602090815260408083206006909252822080546001600160a01b039095169491925b828110612782575050506001015460ff81166007811015610a6557600303610a545760101c6001600160a01b03168214610a545761264581614c37565b8061264e6151ef565b106127715734036127605780600052600660205260406000206040519061267482614223565b838252602082019034825260408301916001835260608401600181526080850192600084528054600160401b8110156104e0576126b691600182018155614456565b95909561274a575185546001600160a01b0319166001600160a01b039190911617855590516001850155915161271e9360020192612715916126f781614488565b61270081614488565b60ff80198654169116178455511515836144d9565b511515906144b2565b7f716834564cb7c8e3d64d2045110836bf24ec2665f21cca881de739333c6d62d76020604051348152a3005b634e487b7160e01b600052600060045260246000fd5b6378de4a6960e11b60005260046000fd5b63c9e0390760e01b60005260046000fd5b8561278d8284614456565b50546001600160a01b031614806127bc575b6127ab57600101612608565b6353efb1e560e01b60005260046000fd5b5060ff60026127cb8385614456565b50015460081c1661279f565b3461000e57600036600319011261000e576001546040516001600160a01b039091168152602090f35b3461000e57602036600319011261000e57612819614157565b600054604051638da5cb5b60e01b815290602090829060049082906001600160a01b03165afa80156105d657612862916000916128eb575b506001600160a01b03163314614ce5565b61286a6151c5565b600160ff19600080516020615d33833981519152541617600080516020615d33833981519152557f62e78cea01bee320cd4e420270b5ea74000d11b0c9f74754ebdbfc544b05a2586020604051338152a16001600160a01b03167f81990fd9a5c552b8e3677917d8a03c07678f0d2cb68f88b634aca2022e9bd19f600080a2005b612904915060203d6020116105cf576105c18183614259565b83612851565b3461000e57612918366143d7565b9385600094929452600560205260ff600b6040600020015460201c1615610a8c576000868152600560205260409020600201546001600160a01b0316330361179c576129626151c5565b600054604051633f784de560e11b815233600482015296906001600160a01b0316602088602481845afa9081156105d6576129aa60209260049a6000916117cc575015614549565b604051638da5cb5b60e01b815298899182905afa9687156105d6576129eb976129e6916000916129ed57506001600160a01b03163314156145a2565b614d1d565b005b612a06915060203d6020116105cf576105c18183614259565b896102f0565b3461000e57604036600319011261000e57600435612a2861416d565b81600052600560205260ff600b6040600020015460201c1615610a8c5760008281526005602052604090206001015460101c6001600160a01b0316330361133f5790612a72615189565b612a7a6151c5565b60008181526006602052604081206001600160a01b0390931692909190825b8154811015612b9b5784612aad8284614456565b50546001600160a01b03161480612b80575b612acb57600101612a99565b81929350806002612ae0612b11938295614456565b5001805461ff00191690556001612af78286614456565b5001549360006001612b098484614456565b500155614456565b50016201000062ff000019825416179055826000526004602052612b3b60406000209182546144cc565b9055612b4760016144f1565b7f659db9764efb778e1b0294e020cbc7f55b198481945e7dd60910f555b27399dc600080a36001600080516020615d5383398151915255005b5060ff6002612b8f8385614456565b50015460081c16612abf565b505090612b47906144f1565b3461000e57600036600319011261000e576020600854604051908152f35b3461000e57602036600319011261000e5760043580600052600560205260ff600b6040600020015460201c1615610a8c5760008181526005602052604090206001015460101c6001600160a01b0316330361133f57612c226151c5565b806000526005602052600160406000200160ff8154166007811015610a6557600303610a5457805460ff191660021790557f383b6ce38b867405b4f42fa404692e07842868068badd063c9bfeb0e7f263f62600080a2005b3461000e57600036600319011261000e57602060ff600080516020615d3383398151915254166040519015158152f35b3461000e57600036600319011261000e576020600754604051908152f35b3461000e57602036600319011261000e57612ce1614157565b600054604051638da5cb5b60e01b815290602090829060049082906001600160a01b03165afa80156105d657612d29916000916128eb57506001600160a01b03163314614ce5565b600080516020615d338339815191525460ff811615612db05760ff1916600080516020615d33833981519152557f5db9ee0a495bf2e6ff9c91a7834c1ba4fdd244a5e8aa4e537bd38aeae4b073aa6020604051338152a16001600160a01b03167f5b65b0c1363b3003db9bcc5e1fd8805a6d6bf5bf6dc9d3431ee4494cd7d11766600080a2005b638dfc202b60e01b60005260046000fd5b3461000e57600036600319011261000e576020600954604051908152f35b3461000e57600036600319011261000e577f00000000000000000000000000000000000000000000000000000000000000006001600160a01b03163003612e38576020604051600080516020615d138339815191528152f35b63703e46dd60e11b60005260046000fd5b3461000e57602036600319011261000e57612e62614157565b612e6a615189565b600054604051633f784de560e11b8152336004820152906001600160a01b0316602082602481845afa9081156105d657612eb1602092600494600091612f8f575015614549565b604051638da5cb5b60e01b815292839182905afa80156105d657612ee891600091612f7057506001600160a01b03163314156145a2565b612ef06151c5565b6001600160a01b031660008181526004602052604090205480156118be5760207f7fcf532c15f0a6db0bd6d0e038bea71d30d808c7d98cb3bf7268a95bf5081b6591836000526004825260006040812055612f55600080808085895af161189d614c77565b604051908152a26001600080516020615d5383398151915255005b612f89915060203d6020116105cf576105c18183614259565b836102f0565b612fa69150843d8611610608576105fa8183614259565b866102c3565b3461000e57602036600319011261000e57600435600052600360205261301b6040600020612fd981614326565b60018201549091906001600160a01b031660ff61302e612ffb60028501614326565b92600460038601549501549360405197889760c0895260c0890190614199565b9160208801528682036040880152614199565b9261303e606086018383166143ca565b60081c16608084015260a08301520390f35b604036600319011261000e57613064614157565b6024356001600160401b03811161000e573660238201121561000e57613094903690602481600401359101614297565b6001600160a01b037f000000000000000000000000000000000000000000000000000000000000000016308114908115613280575b50612e3857600054604051638da5cb5b60e01b815290602090829060049082906001600160a01b03165afa80156105d6576131169160009161326157506001600160a01b03163314614ce5565b61311e6151c5565b6040516352d1902d60e01b81526001600160a01b0383169290602081600481875afa6000918161322d575b506131635783634c9c8ce360e01b60005260045260246000fd5b80600080516020615d138339815191528592036132195750813b1561320557600080516020615d1383398151915280546001600160a01b031916821790557fbc7cd75a20ee27fd9adebab32041f755214dbc6bffa90cc0225b39da2e5c2d3b600080a28151156131eb576000808360206129eb95519101845af46131e5614c77565b91615c71565b5050346131f457005b63b398979f60e01b60005260046000fd5b634c9c8ce360e01b60005260045260246000fd5b632a87526960e21b60005260045260246000fd5b9091506020813d602011613259575b8161324960209383614259565b8101031261000e57519085613149565b3d915061323c565b61327a915060203d6020116105cf576105c18183614259565b84612851565b600080516020615d13833981519152546001600160a01b031614159050836130c9565b3461000e57602036600319011261000e576020610ae5600435614c37565b60a036600319011261000e576004356001600160401b03811161000e576132ec9036906004016142ce565b6024356001600160401b03811161000e5761330b9036906004016142ce565b6044359063ffffffff82169283830361000e576064359160ff831680840361000e57608435946001600160a01b038616860361000e576133496151c5565b33600052600260205260ff6004604060002001541615610c515761336b615189565b600054604051633f784de560e11b8152336004820152906001600160a01b0316602082602481845afa9081156105d6576133b26020926004946000916139a9575015614549565b604051638da5cb5b60e01b815292839182905afa80156105d6576133e9916000916129ed57506001600160a01b03163314156145a2565b6133f43315156145e0565b6133ff600754614c28565b94856007558451156139985783511561178b57876001600160401b03613423615246565b1611610a435760015460405163443b204160e11b81526001600160a01b0390911690602081600481855afa80156105d6578591600091613969575b506001600160401b0316106139595734159081156138f4575b506138e3576134899187913491615626565b6040519096909261024084016001600160401b038111858210176104e0576040528584526020840197600189526134bf81614488565b604085015260018060a01b0387166060850152600060808501528460a085015260c08401523460e0840152610100830152600061012083015242610140830152600061016083015260006101808301526101a082015260006101c082015260006101e0820152600061020082015260016102208201528260005260056020526040600020948151865551946007861015610a655760009560ff80196001840154169116176001820155604082015161357681614488565b61357f81614488565b6001820180546060850151610100600160b01b031990911660089390931b61ff00169290921760109290921b62010000600160b01b031691909117905560808201516002820180546001600160a01b0319166001600160a01b039290921691909117905560a08201518051906001600160401b03821161385b576136138261360a60038601546142ec565b600386016146cd565b602090601f831160011461387a57613634929189918361386f575050614643565b60038201555b60c08201518051906001600160401b03821161385b5761366a8261366160048601546142ec565b600486016146cd565b60209088601f84116001146137d457936136a7846137a3979561022095600b95600080516020615d938339815191529b99926116dc575050614643565b60048201555b60e084015160058201556006810163ffffffff6101008601511663ffffffff19825416179055610120840151600782015561014084015160088201556101608401516009820155610180840151600a820155019160ff6101a08201511660ff198454161783556137246101c08201511515846144d9565b6137356101e08201511515846144b2565b6102008101518354929091015164ffff0000001990921690151560181b63ff0000001617901515602090811b60ff60201b16919091179091556001600160a01b03861687526002905260408620805461378d90614c28565b9055604051918291606083526060830190614199565b346020830152604082018790526001600160a01b03909516940390a36001600080516020615d538339815191525580f35b509060048401895280892091895b601f198516811061384357509360018461022094600b94600080516020615d938339815191529a986137a39a98601f1981161061382a575b505050811b0160048201556136ad565b015160001960f88460031b161c191690558c808061381a565b919260206001819286850151815501940192016137e2565b634e487b7160e01b88526041600452602488fd5b015190508980610435565b6003840189528189209190601f1984168a5b8181106138cb57509084600195949392106138b2575b505050811b01600382015561363a565b015160001960f88460031b161c191690558880806138a2565b9293602060018192878601518155019501930161388c565b633853986560e01b60005260046000fd5b6040516321534f1560e11b81529150602090829060049082905afa9081156105d657600091613927575b50341189613477565b90506020813d602011613951575b8161394260209383614259565b8101031261000e57518961391e565b3d9150613935565b6255af5f60e91b60005260046000fd5b61398b915060203d602011613991575b6139838183614259565b810190615227565b8b61345e565b503d613979565b6306232dbd60e31b60005260046000fd5b6139c09150843d8611610608576105fa8183614259565b8c6102c3565b3461000e57604036600319011261000e576139df61416d565b6139e7615189565b33600052600260205260ff6004604060002001541615610c5157613a0d90600435614ace565b6001600080516020615d5383398151915255005b3461000e57602036600319011261000e5760043580600052600560205260ff600b6040600020015460201c1615610a8c57613a5a6151c5565b60005260056020526020610ae5604060002063ffffffff6006820154169060ff600b820154166005820154916001808060a01b0391015460101c1692614fa9565b3461000e57606036600319011261000e576004356024356001600160401b03811161000e57613ace9036906004016141da565b82600093929352600560205260ff600b6040600020015460201c1615610a8c5760008281526005602052604090206001015460101c6001600160a01b0316330361133f576129eb92613b1e6151c5565b60443592614741565b3461000e57602036600319011261000e57613b40614157565b33600052600260205260ff6004604060002001541615610c5157600054604051633f784de560e11b8152336004820152906001600160a01b0316602082602481845afa9081156105d657613ba1602092600494600091612f8f575015614549565b604051638da5cb5b60e01b815292839182905afa80156105d657613bd891600091612f7057506001600160a01b03163314156145a2565b613be33315156145e0565b60018060a01b0316806000526002602052807f9e5018ee7d6d2d38c3282ec3d1bfeadd0d8129dce80e06a127569ad99565fc7f613cb6604060002060405190613c2b82614207565b80548252600181015460208301526002810154604083015260038101546001600160801b0381166060840152608090811c908301908152600482015460ff16151560a08401529160e0613c936006613c8560058601614326565b9460c0850195865201614326565b910152519060018060801b03905116604051928392604084526040840190614199565b9060208301520390a26000526002602052613d03600660406000206000815560006001820155600060028201556000600382015560006004820155613cfd60058201614656565b01614656565b610f876040805190613d158183614259565b6017825276556e7265676973746572205375636365737366756c6c7960481b602083015251918291602083526020830190614199565b3461000e57600036600319011261000e576000546040516001600160a01b039091168152602090f35b3461000e57602036600319011261000e5760043580600052600560205260ff600b6040600020015460201c1615610a8c5760008181526005602052604090206001015460101c6001600160a01b0316330361133f57613dd1615189565b613dd96151c5565b8060005260066020526040600020816000526005602052604060002060009160005b8154811015613f715760ff6002613e128385614456565b50015460081c16613e2557600101613dfb565b60029293508183613e3983613eaa95614456565b5001805461ff001916905583613e4f8383614456565b5001805460ff191685179055613e658282614456565b505485850180546001600160a01b0319166001600160a01b03929092169190911790556001613e948383614456565b500154600a86015560006001612b098484614456565b5001805462ff0000191662010000179055600b8101805461ff001916610100179055613ed660016144f1565b63ffffffff600682015416610e10810290808204610e101490151715613f5b57613f0090426144cc565b600782015560018101805460ff19166004179055600201546001600160a01b0316907fa15a372eebffa78fac354b5e2229bc1a3bad4e94c881acfb6f86d381c50ba794600080a36001600080516020615d5383398151915255005b634e487b7160e01b600052601160045260246000fd5b505090613ed6906144f1565b602036600319011261000e5760043580600052600560205260ff600b6040600020015460201c1615610a8c5760008181526005602052604090206001015460101c6001600160a01b0316330361133f57613fd5615189565b613fdd6151c5565b80600052600560205260406000206001810190815460ff81166007811015610a6557600103610a545734158015614147575b6141365761404363ffffffff600684015416600b84019260ff84541660058601549160018060a01b039060101c1692614fa9565b34036141255760015460405162d1e93b60e31b81529390602090859060049082906001600160a01b03165afa80156105d6576140976064916140ca96600091614106575b506001600160401b031634614492565b049260096140a585346144a5565b910155805460ff19166002179055805462ff00001916620100001790556008546144cc565b6008557f96de4d43d5265ced55b252018f405ed224e0ed3f7c992a8d0115626700feda3e600080a26001600080516020615d5383398151915255005b61411f915060203d602011613991576139838183614259565b88614087565b634581e82760e01b60005260046000fd5b630103be3b60e21b60005260046000fd5b506141506151ef565b341161400f565b600435906001600160a01b038216820361000e57565b602435906001600160a01b038216820361000e57565b606435906001600160a01b038216820361000e57565b919082519283825260005b8481106141c5575050826000602080949584010152601f8019910116010190565b806020809284010151828286010152016141a4565b9181601f8401121561000e578235916001600160401b03831161000e576020838186019501011161000e57565b61010081019081106001600160401b038211176104e057604052565b60a081019081106001600160401b038211176104e057604052565b60c081019081106001600160401b038211176104e057604052565b601f909101601f19168101906001600160401b038211908210176104e057604052565b6001600160401b0381116104e057601f01601f191660200190565b9291926142a38261427c565b916142b16040519384614259565b82948184528183011161000e578281602093846000960137010152565b9080601f8301121561000e578160206142e993359101614297565b90565b90600182811c9216801561431c575b602083101461430657565b634e487b7160e01b600052602260045260246000fd5b91607f16916142fb565b906040519182600082549261433a846142ec565b80845293600181169081156143a85750600114614361575b5061435f92500383614259565b565b90506000929192526020600020906000915b81831061438c57505090602061435f9282010138614352565b6020919350806001915483858901015201910190918492614373565b90506020925061435f94915060ff191682840152151560051b82010138614352565b906004821015610a655752565b90608060031983011261000e57600435916024356001600160401b03811161000e5781614406916004016141da565b90929091604435906001600160401b03821161000e57614428916004016141da565b90916064356001600160a01b038116810361000e5790565b604090600319011261000e576004359060243590565b8054821015614472576000526003602060002091020190600090565b634e487b7160e01b600052603260045260246000fd5b60061115610a6557565b81810292918115918404141715613f5b57565b91908203918211613f5b57565b9062ff0000825491151560101b169062ff00001916179055565b91908201809211613f5b57565b9061ff00825491151560081b169061ff001916179055565b156144f857565b60405162461bcd60e51b81526020600482015260116024820152701c995c5d595cdd081b9bdd08199bdd5b99607a1b6044820152606490fd5b9081602091031261000e5751801515810361000e5790565b1561455057565b60405162461bcd60e51b815260206004820152600b60248201526a497320656d706c6f79656560a81b6044820152606490fd5b9081602091031261000e57516001600160a01b038116810361000e5790565b156145a957565b60405162461bcd60e51b815260206004820152600f60248201526e21b0b63632b91034b99037bbb732b960891b6044820152606490fd5b156145e757565b60405162461bcd60e51b815260206004820152601d60248201527f63616c6c65722069732063616e74206265207a65726f206164647220210000006044820152606490fd5b818110614637575050565b6000815560010161462c565b8160011b916000199060031b1c19161790565b61466081546142ec565b908161466a575050565b81601f6000931160011461467c575055565b8183526020832061469891601f0160051c81019060010161462c565b8082528160208120915555565b90601f81116146b2575050565b61435f91600052601f6020600020910160051c81019061462c565b9190601f81116146dc57505050565b61435f926000526020600020906020601f840160051c83019310614708575b601f0160051c019061462c565b90915081906146fb565b9061ff0082549160081b169061ff001916179055565b6001600160801b039182169082160391908211613f5b57565b92836000526005602052604060002090846000526003602052604060002092600283019460018060a01b0386541615611c9d57826001600160401b03614785615246565b1610610a4357600385019460ff8654166004811015610a6557600103610a5457610e10840293808504610e101490151715613f5b57855460ff19166002908117875501916001600160401b0382116104e0576147e5826115d185546142ec565b600090601f8311600114614a6a57614807929160009183610461575050614643565b90555b60ff835460081c169060ff8214613f5b5761482b6001614831930185614712565b426144cc565b9260078201938455825460ff600b8401541660ff8260081c1611614a37575060409260017f33edbe073d61cf304f0e11256ba07aefb7e60a754d1e12a0f07e5b29cb3d7321959360ff93828060a01b0381541680600052600260205285600489600020015416614992575b505001805460101c6001600160a01b0316600081815260026020528690206004015484166148db575b50505460081c16905482519182526020820152a2565b60008181526002602052869020600301546001600160801b03166000196001881b016149056155ee565b16111561494057505460101c6001600160a01b03166000908152600260205284902060030180546001600160801b03191690555b38806148c5565b9050600180861b036149506155ee565b6000928352600260205291869020600301805490926001600160801b039261497c929116908316614728565b82546001600160801b0319169116179055614939565b806000526002602052838060801b0360038960002001541684808a1b036149b76155ee565b1611156149eb5750828060a01b03905416600052600260205260038660002001828060801b031981541690555b388061489c565b90508280881b036149fa6155ee565b169060005260026020526003876000200190614a24848060801b0391858060801b03845416614728565b16838060801b03198254161790556149e4565b9250505060ff9150166004811015610a6557600103614a615763eff3ce5d60e01b60005260046000fd5b61435f906152af565b8382526020822091601f198416815b818110614ab65750908460019594939210614a9c575b505050811b01905561480a565b0135600019600384901b60f8161c19169055388080614a8f565b91936020600181928787013581550195019201614a79565b9081600052600660205260406000209160005b8354811015614bee57614af48185614456565b50546001600160a01b038481169116811480614bd3575b80614bb7575b614b1e5750600101614ae1565b939192506001614b72826002614b3660009587614456565b5001805461ff00191690556002614b4d8287614456565b5001805462ff000019166201000017905582614b698287614456565b50015494614456565b500155826000526004602052614b8e60406000209182546144cc565b90557f7d8891f107b48a85b66c4f2654182303b5c3b3926287bae8e33ea57f91909a37600080a3565b5060ff6002614bc68488614456565b50015460101c1615614b11565b5060ff6002614be28488614456565b50015460081c16614b0b565b60405162461bcd60e51b81526020600482015260126024820152711b9bc81c195b991a5b99c81c995c5d595cdd60721b6044820152606490fd5b6000198114613f5b5760010190565b80600052600560205260ff600b6040600020015460201c1615610a8c5760005260056020526064614c7360056040600020015460095490614492565b0490565b3d15614ca2573d90614c888261427c565b91614c966040519384614259565b82523d6000602084013e565b606090565b15614cae57565b60405162461bcd60e51b815260206004820152600f60248201526e1dda5d1a191c985dc819985a5b1959608a1b6044820152606490fd5b15614cec57565b60405162461bcd60e51b81526020600482015260096024820152682737ba1037bbb732b960b91b6044820152606490fd5b9391929084600052600560205260406000209085600052600360205260406000209460018060a01b036001870154161561214e5760028301546001600160a01b03988916981688900361179c576003860192835460ff8116916004831015610a655760028303610a545760ff600b81920154169160081c1611614f285750841561178b57801561177a5760028601916001600160401b0382116104e057614dc8826115d185546142ec565b600090601f8311600114614ec457614dea929160009183610461575050614643565b90555b805460ff191660011790556001600160401b0382116104e057614e14826115d185546142ec565b600090601f8311600114614e6057614e36929160009183610461575050614643565b90555b7fd91178918ec22e991ec5103aaa21661df1d5ddfeee4571007ad649225c0dad28600080a3565b8382526020822091601f198416815b818110614eac5750908460019594939210614e92575b505050811b019055614e39565b0135600019600384901b60f8161c19169055388080614e85565b91936020600181928787013581550195019201614e6f565b8382526020822091601f198416815b818110614f105750908460019594939210614ef6575b505050811b019055614ded565b0135600019600384901b60f8161c19169055388080614ee9565b91936020600181928787013581550195019201614ed3565b95505050505050600191925014600014614a615763eff3ce5d60e01b60005260046000fd5b15614f5457565b60405162461bcd60e51b815260206004820152600c60248201526b4e6f7420656d706c6f79656560a01b6044820152606490fd5b908060209392818452848401376000828201840152601f01601f1916010190565b90614fb5939291615626565b614fbe81614488565b8061502b57506001546040516394fb86e560e01b815290602090829060049082906001600160a01b03165afa9081156105d657600091614ffc575090565b90506020813d602011615023575b8161501760209383614259565b8101031261000e575190565b3d915061500a565b61503481614488565b60018103615075575060015460405163156bebd960e21b815290602090829060049082906001600160a01b03165afa9081156105d657600091614ffc575090565b61507e81614488565b600281036150bf57506001546040516312c23eb160e01b815290602090829060049082906001600160a01b03165afa9081156105d657600091614ffc575090565b6150c881614488565b600381036151085750600154604051628f2c6560e71b815290602090829060049082906001600160a01b03165afa9081156105d657600091614ffc575090565b60049061511481614488565b036151515760015460405163ca218d7d60e01b815290602090829060049082906001600160a01b03165afa9081156105d657600091614ffc575090565b6001546040516325ac29e160e01b815290602090829060049082906001600160a01b03165afa9081156105d657600091614ffc575090565b6002600080516020615d5383398151915254146151b4576002600080516020615d5383398151915255565b633ee5aeb560e01b60005260046000fd5b60ff600080516020615d3383398151915254166151de57565b63d93c066560e01b60005260046000fd5b60015460405163baa20a3960e01b815290602090829060049082906001600160a01b03165afa9081156105d657600091614ffc575090565b9081602091031261000e57516001600160401b038116810361000e5790565b6001546040516241930960e91b815290602090829060049082906001600160a01b03165afa9081156105d65760009161527d575090565b6142e9915060203d602011613991576139838183614259565b6001600160801b039182169082160191908211613f5b57565b806000526005602052604060002060008052600360205260406000206001820160ff8154166007811015610a6557600403610a5457600382019260ff8454166004811015610a655760010361217057600b810191600160ff845460181c1615151461215f576001840180549093906001600160a01b03161561214e5761533e6005840154600a850154906144cc565b926002600982015491019360018060a01b03855416600052600460205261536b60406000209182546144cc565b905560018060a01b03835460101c16600052600460205261539260406000209182546144cc565b9055805463ffffff0019166301000000179055805460ff1916600517815581546001600160a01b031660008181526002602052604090206004015460ff1661554f575b50805460101c6001600160a01b031660008181526002602052604090206004015460ff166154ac575b5091600094916004949360018060a01b03905460101c16865260026020526001604087200161542d8154614c28565b9055546001600160a01b03168552600260205260408520600101805461545290614c28565b9055615461611f9384546142ec565b84835580546001600160a01b031916905560028201805485919061548890611fc0906142ec565b55805461ffff191660031790550155600080516020615cd3833981519152600080a2565b94916004949391602060018060a01b03600154166040519788809263b30e0be360e01b82525afa80156105d657600097600497899261552e575b508852600260205260408820600301805490916001600160801b03916155149163ffffffff16908316615296565b1660018060801b03198254161790559193945091946153fe565b61554891925060203d6020116120a8576120998183614259565b90386154e6565b60015460405163c7d3f62f60e01b81529190602090839060049082906001600160a01b03165afa9182156105d6576000926155cd575b506000908152600260205260409020600301805490916001600160801b03916155b69163ffffffff16908316615296565b82546001600160801b0319169116179055386153d5565b6155e791925060203d6020116120a8576120998183614259565b9038615585565b600154604051637221ba7960e11b815290602090829060049082906001600160a01b03165afa9081156105d65760009161527d575090565b60015460405163a0d0124560e01b81526001600160a01b039091169493919291602082600481895afa9081156105d65761567d92600092615a16575b50670de0b6b3a76400009004906001600160401b0316614492565b604051630963d67f60e21b815291602083600481895afa9283156105d6576156c5936156be916000916159f7575b506001600160401b039260ff1690615be0565b16906144cc565b60405163c6de983960e01b81529092602082600481885afa9182156105d6576000926159d6575b506001600160801b03906156ff90615c2a565b166001600160401b0391909116026001600160801b038116908103613f5b5760405163778162d760e11b815290602082600481885afa9182156105d6576000926159b3575b506001600160801b0392615774926001600160401b039161576d9163ffffffff90911690615be0565b1690615296565b168082116159a557505060005b670de0b6b3a7640000810290808204670de0b6b3a76400001490151715613f5b576064900460405163a376ff7d60e01b8152602081600481865afa9081156105d657600091615973575b5081116157d9575050600090565b6040516370ffe5a360e11b8152602081600481865afa9081156105d657600091615941575b50811161580c575050600190565b6040516399206b0b60e01b8152602081600481865afa9081156105d65760009161590f575b50811161583f575050600290565b6040516384afa48b60e01b8152602081600481865afa9081156105d6576000916158dd575b508111615872575050600390565b60206004926040519384809263813b79c160e01b82525afa9182156105d6576000926158a9575b50116158a457600490565b600590565b9091506020813d6020116158d5575b816158c560209383614259565b8101031261000e57519038615899565b3d91506158b8565b90506020813d602011615907575b816158f860209383614259565b8101031261000e575138615864565b3d91506158eb565b90506020813d602011615939575b8161592a60209383614259565b8101031261000e575138615831565b3d915061591d565b90506020813d60201161596b575b8161595c60209383614259565b8101031261000e5751386157fe565b3d915061594f565b90506020813d60201161599d575b8161598e60209383614259565b8101031261000e5751386157cb565b3d9150615981565b6159ae916144a5565b615781565b61577492506159d09060203d602011613991576139838183614259565b91615744565b6159f091925060203d602011613991576139838183614259565b90386156ec565b615a10915060203d602011613991576139838183614259565b386156ab565b670de0b6b3a7640000919250615a3a9060203d602011613991576139838183614259565b9190615662565b600154604051630b7dadff60e01b815290602090829060049082906001600160a01b03165afa9081156105d65760009161527d575090565b6001600160401b03615a89615a41565b166064036001600160401b038111613f5b5790565b60015460405163cf95838b60e01b815290602090829060049082906001600160a01b03165afa9081156105d65760009161527d575090565b6001600160a01b031615615ae657565b60405162461bcd60e51b815260206004820152602760248201527f416363657373436f6e74726f6c3a207a65726f2061646472657373206e6f7420604482015266185b1b1bddd95960ca1b6064820152608490fd5b9081602091031261000e575163ffffffff8116810361000e5790565b600154604051630d164b1d60e41b815290602090829060049082906001600160a01b03165afa9081156105d657600091615b8f575090565b6142e9915060203d6020116120a8576120998183614259565b600154604051633b8664cd60e11b815290602090829060049082906001600160a01b03165afa9081156105d657600091615b8f575090565b6001600160401b039182169082160290811691908203613f5b57565b60ff600080516020615d738339815191525460401c1615615c1957565b631afcd79f60e31b60005260046000fd5b6001600160a01b031660008181526002602052604090206004015460ff1615615c6b576000908152600260205260409020600301546001600160801b031690565b50600090565b90615c975750805115615c8657602081519101fd5b63d6bda27560e01b60005260046000fd5b81511580615cc9575b615ca8575090565b639996b31560e01b60009081526001600160a01b0391909116600452602490fd5b50803b15615ca056fe3e9d27a1c2a828db29e4b2a17fbd1bc70201ef21aec4f74b9fa051b02e38e3f01bfdcd45dd860c112f48920703980e72901feca6fa0fa8a5ff1258f0fe606795360894a13ba1a3210667c828492db98dca3e2076cc3735a920a3ca505d382bbccd5ed15c6e187e77e9aee88184c21f4f2182ab5827cb3b7e07fbedcd63f033009b779b17422d0df92223018b32b4d1fa46e071723d6817e2486d003becc55f00f0c57e16840df040f15088dc2f81fe391c3923bec73e23a9662efc9c229c6a009dda774dc9cd26aa151d38f0382b90219cad43a5beafe7761bf9ace382799cb3a26469706673582212200e99c51b04ff07dbe09eaf9f5b33944fb363c3b6d47ac91a5c4795645ba9e18464736f6c634300081c0033",
  "linkReferences": {},
  "deployedLinkReferences": {}
}