{
  "_format": "hh-sol-artifact-1",
  "contractName": "TrustlessTeamProtocol",
  "sourceName": "contracts/User/TrustlessTeamProtocol.sol",
  "abi": [
    {
      "inputs": [
        {
          "internalType": "address",
          "name": "target",
          "type": "address"
        }
      ],
      "name": "AddressEmptyCode",
      "type": "error"
    },
    {
      "inputs": [],
      "name": "AlreadyRequestedJoin",
      "type": "error"
    },
    {
      "inputs": [],
      "name": "AlredyClaimed",
      "type": "error"
    },
    {
      "inputs": [],
      "name": "AlredyRegistered",
      "type": "error"
    },
    {
      "inputs": [],
      "name": "CancelOnlyWhenMemberAssigned",
      "type": "error"
    },
    {
      "inputs": [],
      "name": "DeadlineNotExceeded",
      "type": "error"
    },
    {
      "inputs": [
        {
          "internalType": "address",
          "name": "implementation",
          "type": "address"
        }
      ],
      "name": "ERC1967InvalidImplementation",
      "type": "error"
    },
    {
      "inputs": [],
      "name": "ERC1967NonPayable",
      "type": "error"
    },
    {
      "inputs": [],
      "name": "EnforcedPause",
      "type": "error"
    },
    {
      "inputs": [],
      "name": "ExpectedPause",
      "type": "error"
    },
    {
      "inputs": [],
      "name": "FailedCall",
      "type": "error"
    },
    {
      "inputs": [],
      "name": "InsufficientStake",
      "type": "error"
    },
    {
      "inputs": [],
      "name": "InvalidDeadline",
      "type": "error"
    },
    {
      "inputs": [],
      "name": "InvalidInitialization",
      "type": "error"
    },
    {
      "inputs": [],
      "name": "InvalidMemberStakePercentReward",
      "type": "error"
    },
    {
      "inputs": [],
      "name": "InvalidReason",
      "type": "error"
    },
    {
      "inputs": [],
      "name": "InvalidRewardAmount",
      "type": "error"
    },
    {
      "inputs": [],
      "name": "InvalidStakeAmount",
      "type": "error"
    },
    {
      "inputs": [],
      "name": "InvalidTitle",
      "type": "error"
    },
    {
      "inputs": [],
      "name": "NoSubmision",
      "type": "error"
    },
    {
      "inputs": [],
      "name": "NotCounterparty",
      "type": "error"
    },
    {
      "inputs": [],
      "name": "NotInitializing",
      "type": "error"
    },
    {
      "inputs": [],
      "name": "NotRegistered",
      "type": "error"
    },
    {
      "inputs": [],
      "name": "NotTaskCreator",
      "type": "error"
    },
    {
      "inputs": [],
      "name": "NotTaskMember",
      "type": "error"
    },
    {
      "inputs": [],
      "name": "ReentrancyGuardReentrantCall",
      "type": "error"
    },
    {
      "inputs": [],
      "name": "RewardOverflow",
      "type": "error"
    },
    {
      "inputs": [],
      "name": "StakeHitLimit",
      "type": "error"
    },
    {
      "inputs": [],
      "name": "StakeMismatch",
      "type": "error"
    },
    {
      "inputs": [],
      "name": "StakeOverflow",
      "type": "error"
    },
    {
      "inputs": [],
      "name": "TaskDoesNotExist",
      "type": "error"
    },
    {
      "inputs": [],
      "name": "TaskNotOpen",
      "type": "error"
    },
    {
      "inputs": [],
      "name": "TaskNotSubmittedYet",
      "type": "error"
    },
    {
      "inputs": [],
      "name": "TooManyRevisions",
      "type": "error"
    },
    {
      "inputs": [],
      "name": "UUPSUnauthorizedCallContext",
      "type": "error"
    },
    {
      "inputs": [
        {
          "internalType": "bytes32",
          "name": "slot",
          "type": "bytes32"
        }
      ],
      "name": "UUPSUnsupportedProxiableUUID",
      "type": "error"
    },
    {
      "inputs": [],
      "name": "ValueMismatch",
      "type": "error"
    },
    {
      "inputs": [],
      "name": "alredyInPending",
      "type": "error"
    },
    {
      "inputs": [],
      "name": "submissionAlreadyPending",
      "type": "error"
    },
    {
      "anonymous": false,
      "inputs": [
        {
          "indexed": true,
          "internalType": "uint256",
          "name": "taskId",
          "type": "uint256"
        }
      ],
      "name": "DeadlineTriggered",
      "type": "event"
    },
    {
      "anonymous": false,
      "inputs": [
        {
          "indexed": false,
          "internalType": "uint64",
          "name": "version",
          "type": "uint64"
        }
      ],
      "name": "Initialized",
      "type": "event"
    },
    {
      "anonymous": false,
      "inputs": [
        {
          "indexed": true,
          "internalType": "uint256",
          "name": "taskId",
          "type": "uint256"
        },
        {
          "indexed": true,
          "internalType": "address",
          "name": "applicant",
          "type": "address"
        }
      ],
      "name": "JoinApproved",
      "type": "event"
    },
    {
      "anonymous": false,
      "inputs": [
        {
          "indexed": true,
          "internalType": "uint256",
          "name": "taskId",
          "type": "uint256"
        },
        {
          "indexed": true,
          "internalType": "address",
          "name": "applicant",
          "type": "address"
        }
      ],
      "name": "JoinRejected",
      "type": "event"
    },
    {
      "anonymous": false,
      "inputs": [
        {
          "indexed": true,
          "internalType": "uint256",
          "name": "taskId",
          "type": "uint256"
        },
        {
          "indexed": true,
          "internalType": "address",
          "name": "applicant",
          "type": "address"
        },
        {
          "indexed": false,
          "internalType": "uint256",
          "name": "stakeAmount",
          "type": "uint256"
        }
      ],
      "name": "JoinRequested",
      "type": "event"
    },
    {
      "anonymous": false,
      "inputs": [
        {
          "indexed": true,
          "internalType": "uint256",
          "name": "taskId",
          "type": "uint256"
        },
        {
          "indexed": true,
          "internalType": "address",
          "name": "user",
          "type": "address"
        }
      ],
      "name": "JoinrequestCancelled",
      "type": "event"
    },
    {
      "anonymous": false,
      "inputs": [
        {
          "indexed": false,
          "internalType": "address",
          "name": "account",
          "type": "address"
        }
      ],
      "name": "Paused",
      "type": "event"
    },
    {
      "anonymous": false,
      "inputs": [
        {
          "indexed": true,
          "internalType": "uint256",
          "name": "taskId",
          "type": "uint256"
        }
      ],
      "name": "RegistrationClosed",
      "type": "event"
    },
    {
      "anonymous": false,
      "inputs": [
        {
          "indexed": true,
          "internalType": "uint256",
          "name": "taskId",
          "type": "uint256"
        }
      ],
      "name": "RegistrationOpened",
      "type": "event"
    },
    {
      "anonymous": false,
      "inputs": [
        {
          "indexed": true,
          "internalType": "uint256",
          "name": "taskId",
          "type": "uint256"
        },
        {
          "indexed": false,
          "internalType": "uint8",
          "name": "revisionCount",
          "type": "uint8"
        },
        {
          "indexed": false,
          "internalType": "uint256",
          "name": "newDeadline",
          "type": "uint256"
        }
      ],
      "name": "RevisionRequested",
      "type": "event"
    },
    {
      "anonymous": false,
      "inputs": [
        {
          "indexed": true,
          "internalType": "uint256",
          "name": "taskId",
          "type": "uint256"
        }
      ],
      "name": "TaskActive",
      "type": "event"
    },
    {
      "anonymous": false,
      "inputs": [
        {
          "indexed": true,
          "internalType": "uint256",
          "name": "taskId",
          "type": "uint256"
        }
      ],
      "name": "TaskApproved",
      "type": "event"
    },
    {
      "anonymous": false,
      "inputs": [
        {
          "indexed": true,
          "internalType": "uint256",
          "name": "taskId",
          "type": "uint256"
        },
        {
          "indexed": true,
          "internalType": "address",
          "name": "initiator",
          "type": "address"
        }
      ],
      "name": "TaskCancelledByMe",
      "type": "event"
    },
    {
      "anonymous": false,
      "inputs": [
        {
          "indexed": false,
          "internalType": "string",
          "name": "title",
          "type": "string"
        },
        {
          "indexed": true,
          "internalType": "uint256",
          "name": "taskId",
          "type": "uint256"
        },
        {
          "indexed": true,
          "internalType": "address",
          "name": "creator",
          "type": "address"
        },
        {
          "indexed": false,
          "internalType": "uint256",
          "name": "reward",
          "type": "uint256"
        },
        {
          "indexed": false,
          "internalType": "uint256",
          "name": "creatorStake",
          "type": "uint256"
        }
      ],
      "name": "TaskCreated",
      "type": "event"
    },
    {
      "anonymous": false,
      "inputs": [
        {
          "indexed": false,
          "internalType": "uint256",
          "name": "taskId",
          "type": "uint256"
        }
      ],
      "name": "TaskDeleted",
      "type": "event"
    },
    {
      "anonymous": false,
      "inputs": [
        {
          "indexed": true,
          "internalType": "uint256",
          "name": "taskId",
          "type": "uint256"
        },
        {
          "indexed": true,
          "internalType": "address",
          "name": "member",
          "type": "address"
        }
      ],
      "name": "TaskReSubmitted",
      "type": "event"
    },
    {
      "anonymous": false,
      "inputs": [
        {
          "indexed": true,
          "internalType": "uint256",
          "name": "taskId",
          "type": "uint256"
        },
        {
          "indexed": true,
          "internalType": "address",
          "name": "member",
          "type": "address"
        },
        {
          "indexed": false,
          "internalType": "string",
          "name": "githubURL",
          "type": "string"
        }
      ],
      "name": "TaskSubmitted",
      "type": "event"
    },
    {
      "anonymous": false,
      "inputs": [
        {
          "indexed": false,
          "internalType": "address",
          "name": "account",
          "type": "address"
        }
      ],
      "name": "Unpaused",
      "type": "event"
    },
    {
      "anonymous": false,
      "inputs": [
        {
          "indexed": true,
          "internalType": "address",
          "name": "implementation",
          "type": "address"
        }
      ],
      "name": "Upgraded",
      "type": "event"
    },
    {
      "anonymous": false,
      "inputs": [
        {
          "indexed": true,
          "internalType": "address",
          "name": "user",
          "type": "address"
        },
        {
          "indexed": false,
          "internalType": "string",
          "name": "name",
          "type": "string"
        },
        {
          "indexed": false,
          "internalType": "uint128",
          "name": "age",
          "type": "uint128"
        }
      ],
      "name": "UserRegistered",
      "type": "event"
    },
    {
      "anonymous": false,
      "inputs": [
        {
          "indexed": true,
          "internalType": "address",
          "name": "user",
          "type": "address"
        },
        {
          "indexed": false,
          "internalType": "string",
          "name": "name",
          "type": "string"
        },
        {
          "indexed": false,
          "internalType": "uint128",
          "name": "age",
          "type": "uint128"
        }
      ],
      "name": "UserUnregistered",
      "type": "event"
    },
    {
      "anonymous": false,
      "inputs": [
        {
          "indexed": true,
          "internalType": "address",
          "name": "user",
          "type": "address"
        },
        {
          "indexed": false,
          "internalType": "uint256",
          "name": "amount",
          "type": "uint256"
        }
      ],
      "name": "Withdrawal",
      "type": "event"
    },
    {
      "anonymous": false,
      "inputs": [
        {
          "indexed": false,
          "internalType": "string",
          "name": "info",
          "type": "string"
        },
        {
          "indexed": true,
          "internalType": "address",
          "name": "newAddress",
          "type": "address"
        },
        {
          "indexed": true,
          "internalType": "uint256",
          "name": "value",
          "type": "uint256"
        }
      ],
      "name": "systemChanged",
      "type": "event"
    },
    {
      "stateMutability": "payable",
      "type": "fallback"
    },
    {
      "inputs": [
        {
          "internalType": "string",
          "name": "Name",
          "type": "string"
        },
        {
          "internalType": "uint128",
          "name": "Age",
          "type": "uint128"
        },
        {
          "internalType": "string",
          "name": "githubURL",
          "type": "string"
        },
        {
          "internalType": "address",
          "name": "user",
          "type": "address"
        }
      ],
      "name": "Register",
      "outputs": [],
      "stateMutability": "nonpayable",
      "type": "function"
    },
    {
      "inputs": [
        {
          "internalType": "uint256",
          "name": "",
          "type": "uint256"
        }
      ],
      "name": "TaskSubmits",
      "outputs": [
        {
          "internalType": "string",
          "name": "githubURL",
          "type": "string"
        },
        {
          "internalType": "address",
          "name": "sender",
          "type": "address"
        },
        {
          "internalType": "string",
          "name": "note",
          "type": "string"
        },
        {
          "internalType": "enum TrustlessTeamProtocol.SubmitStatus",
          "name": "status",
          "type": "uint8"
        },
        {
          "internalType": "uint8",
          "name": "revisionTime",
          "type": "uint8"
        },
        {
          "internalType": "uint256",
          "name": "newDeadline",
          "type": "uint256"
        }
      ],
      "stateMutability": "view",
      "type": "function"
    },
    {
      "inputs": [
        {
          "internalType": "uint256",
          "name": "",
          "type": "uint256"
        }
      ],
      "name": "Tasks",
      "outputs": [
        {
          "internalType": "uint256",
          "name": "taskId",
          "type": "uint256"
        },
        {
          "internalType": "enum TrustlessTeamProtocol.TaskStatus",
          "name": "status",
          "type": "uint8"
        },
        {
          "internalType": "enum TrustlessTeamProtocol.TaskValue",
          "name": "value",
          "type": "uint8"
        },
        {
          "internalType": "address",
          "name": "creator",
          "type": "address"
        },
        {
          "internalType": "address",
          "name": "member",
          "type": "address"
        },
        {
          "internalType": "string",
          "name": "title",
          "type": "string"
        },
        {
          "internalType": "string",
          "name": "githubURL",
          "type": "string"
        },
        {
          "internalType": "uint256",
          "name": "reward",
          "type": "uint256"
        },
        {
          "internalType": "uint32",
          "name": "deadlineHours",
          "type": "uint32"
        },
        {
          "internalType": "uint256",
          "name": "deadlineAt",
          "type": "uint256"
        },
        {
          "internalType": "uint256",
          "name": "createdAt",
          "type": "uint256"
        },
        {
          "internalType": "uint256",
          "name": "creatorStake",
          "type": "uint256"
        },
        {
          "internalType": "uint256",
          "name": "memberStake",
          "type": "uint256"
        },
        {
          "internalType": "uint8",
          "name": "maxRevision",
          "type": "uint8"
        },
        {
          "internalType": "bool",
          "name": "isMemberStakeLocked",
          "type": "bool"
        },
        {
          "internalType": "bool",
          "name": "isCreatorStakeLocked",
          "type": "bool"
        },
        {
          "internalType": "bool",
          "name": "isRewardClaimed",
          "type": "bool"
        },
        {
          "internalType": "bool",
          "name": "exists",
          "type": "bool"
        }
      ],
      "stateMutability": "view",
      "type": "function"
    },
    {
      "inputs": [],
      "name": "UPGRADE_INTERFACE_VERSION",
      "outputs": [
        {
          "internalType": "string",
          "name": "",
          "type": "string"
        }
      ],
      "stateMutability": "view",
      "type": "function"
    },
    {
      "inputs": [
        {
          "internalType": "address",
          "name": "user",
          "type": "address"
        }
      ],
      "name": "Unregister",
      "outputs": [
        {
          "internalType": "string",
          "name": "",
          "type": "string"
        }
      ],
      "stateMutability": "nonpayable",
      "type": "function"
    },
    {
      "inputs": [
        {
          "internalType": "address",
          "name": "",
          "type": "address"
        }
      ],
      "name": "Users",
      "outputs": [
        {
          "internalType": "uint256",
          "name": "totalTasksCreated",
          "type": "uint256"
        },
        {
          "internalType": "uint256",
          "name": "totalTasksCompleted",
          "type": "uint256"
        },
        {
          "internalType": "uint256",
          "name": "totalTasksFailed",
          "type": "uint256"
        },
        {
          "internalType": "uint128",
          "name": "reputation",
          "type": "uint128"
        },
        {
          "internalType": "uint128",
          "name": "age",
          "type": "uint128"
        },
        {
          "internalType": "bool",
          "name": "isRegistered",
          "type": "bool"
        },
        {
          "internalType": "string",
          "name": "name",
          "type": "string"
        },
        {
          "internalType": "string",
          "name": "GitProfile",
          "type": "string"
        }
      ],
      "stateMutability": "view",
      "type": "function"
    },
    {
      "inputs": [
        {
          "internalType": "uint32",
          "name": "DeadlineHours",
          "type": "uint32"
        },
        {
          "internalType": "uint8",
          "name": "MaximumRevision",
          "type": "uint8"
        },
        {
          "internalType": "uint256",
          "name": "rewardWei",
          "type": "uint256"
        },
        {
          "internalType": "address",
          "name": "Caller",
          "type": "address"
        }
      ],
      "name": "__getCreatorStake",
      "outputs": [
        {
          "internalType": "uint256",
          "name": "",
          "type": "uint256"
        }
      ],
      "stateMutability": "view",
      "type": "function"
    },
    {
      "inputs": [],
      "name": "accessControl",
      "outputs": [
        {
          "internalType": "contract IAccessControl",
          "name": "",
          "type": "address"
        }
      ],
      "stateMutability": "view",
      "type": "function"
    },
    {
      "inputs": [
        {
          "internalType": "uint256",
          "name": "taskId",
          "type": "uint256"
        }
      ],
      "name": "activateTask",
      "outputs": [],
      "stateMutability": "payable",
      "type": "function"
    },
    {
      "inputs": [
        {
          "internalType": "uint256",
          "name": "taskId",
          "type": "uint256"
        }
      ],
      "name": "approveJoinRequest",
      "outputs": [],
      "stateMutability": "nonpayable",
      "type": "function"
    },
    {
      "inputs": [
        {
          "internalType": "uint256",
          "name": "taskId",
          "type": "uint256"
        },
        {
          "internalType": "uint256",
          "name": "SubmitId",
          "type": "uint256"
        }
      ],
      "name": "approveTask",
      "outputs": [],
      "stateMutability": "nonpayable",
      "type": "function"
    },
    {
      "inputs": [
        {
          "internalType": "uint256",
          "name": "taskId",
          "type": "uint256"
        },
        {
          "internalType": "address",
          "name": "user",
          "type": "address"
        }
      ],
      "name": "cancelByMe",
      "outputs": [],
      "stateMutability": "nonpayable",
      "type": "function"
    },
    {
      "inputs": [
        {
          "internalType": "address",
          "name": "_newAccesControl",
          "type": "address"
        }
      ],
      "name": "changeAccessControl",
      "outputs": [],
      "stateMutability": "nonpayable",
      "type": "function"
    },
    {
      "inputs": [
        {
          "internalType": "address",
          "name": "_newStateVar",
          "type": "address"
        }
      ],
      "name": "changeStateVarAddress",
      "outputs": [],
      "stateMutability": "nonpayable",
      "type": "function"
    },
    {
      "inputs": [
        {
          "internalType": "address payable",
          "name": "_NewsystemWallet",
          "type": "address"
        }
      ],
      "name": "changeSystemwallet",
      "outputs": [],
      "stateMutability": "nonpayable",
      "type": "function"
    },
    {
      "inputs": [
        {
          "internalType": "uint256",
          "name": "taskId",
          "type": "uint256"
        }
      ],
      "name": "closeRegistration",
      "outputs": [],
      "stateMutability": "nonpayable",
      "type": "function"
    },
    {
      "inputs": [
        {
          "internalType": "string",
          "name": "Title",
          "type": "string"
        },
        {
          "internalType": "string",
          "name": "GithubURL",
          "type": "string"
        },
        {
          "internalType": "uint32",
          "name": "DeadlineHours",
          "type": "uint32"
        },
        {
          "internalType": "uint8",
          "name": "MaximumRevision",
          "type": "uint8"
        },
        {
          "internalType": "address",
          "name": "user",
          "type": "address"
        }
      ],
      "name": "createTask",
      "outputs": [],
      "stateMutability": "payable",
      "type": "function"
    },
    {
      "inputs": [
        {
          "internalType": "uint256",
          "name": "taskId",
          "type": "uint256"
        },
        {
          "internalType": "address",
          "name": "user",
          "type": "address"
        }
      ],
      "name": "deleteTask",
      "outputs": [],
      "stateMutability": "nonpayable",
      "type": "function"
    },
    {
      "inputs": [],
      "name": "feeCollected",
      "outputs": [
        {
          "internalType": "uint256",
          "name": "",
          "type": "uint256"
        }
      ],
      "stateMutability": "view",
      "type": "function"
    },
    {
      "inputs": [
        {
          "internalType": "uint256",
          "name": "taskId",
          "type": "uint256"
        }
      ],
      "name": "getCreatorStake",
      "outputs": [
        {
          "internalType": "uint256",
          "name": "",
          "type": "uint256"
        }
      ],
      "stateMutability": "view",
      "type": "function"
    },
    {
      "inputs": [
        {
          "internalType": "uint256",
          "name": "taskId",
          "type": "uint256"
        }
      ],
      "name": "getMemberRequiredStake",
      "outputs": [
        {
          "internalType": "uint256",
          "name": "",
          "type": "uint256"
        }
      ],
      "stateMutability": "view",
      "type": "function"
    },
    {
      "inputs": [
        {
          "internalType": "address",
          "name": "_accessControl",
          "type": "address"
        },
        {
          "internalType": "address payable",
          "name": "_systemWallet",
          "type": "address"
        },
        {
          "internalType": "address",
          "name": "_stateVar",
          "type": "address"
        },
        {
          "internalType": "uint256",
          "name": "_initialmemberStakePercentReward",
          "type": "uint256"
        }
      ],
      "name": "initialize",
      "outputs": [],
      "stateMutability": "nonpayable",
      "type": "function"
    },
    {
      "inputs": [
        {
          "internalType": "address",
          "name": "user",
          "type": "address"
        }
      ],
      "name": "isRegistered",
      "outputs": [
        {
          "internalType": "bool",
          "name": "",
          "type": "bool"
        }
      ],
      "stateMutability": "view",
      "type": "function"
    },
    {
      "inputs": [
        {
          "internalType": "uint256",
          "name": "",
          "type": "uint256"
        },
        {
          "internalType": "uint256",
          "name": "",
          "type": "uint256"
        }
      ],
      "name": "joinRequests",
      "outputs": [
        {
          "internalType": "address",
          "name": "applicant",
          "type": "address"
        },
        {
          "internalType": "uint256",
          "name": "stakeAmount",
          "type": "uint256"
        },
        {
          "internalType": "enum TrustlessTeamProtocol.UserTask",
          "name": "status",
          "type": "uint8"
        },
        {
          "internalType": "bool",
          "name": "isPending",
          "type": "bool"
        },
        {
          "internalType": "bool",
          "name": "hasWithdrawn",
          "type": "bool"
        }
      ],
      "stateMutability": "view",
      "type": "function"
    },
    {
      "inputs": [],
      "name": "memberStakePercentReward",
      "outputs": [
        {
          "internalType": "uint256",
          "name": "",
          "type": "uint256"
        }
      ],
      "stateMutability": "view",
      "type": "function"
    },
    {
      "inputs": [
        {
          "internalType": "uint256",
          "name": "taskId",
          "type": "uint256"
        }
      ],
      "name": "openRegistration",
      "outputs": [],
      "stateMutability": "nonpayable",
      "type": "function"
    },
    {
      "inputs": [
        {
          "internalType": "address",
          "name": "caller",
          "type": "address"
        }
      ],
      "name": "pause",
      "outputs": [],
      "stateMutability": "nonpayable",
      "type": "function"
    },
    {
      "inputs": [],
      "name": "paused",
      "outputs": [
        {
          "internalType": "bool",
          "name": "",
          "type": "bool"
        }
      ],
      "stateMutability": "view",
      "type": "function"
    },
    {
      "inputs": [],
      "name": "proxiableUUID",
      "outputs": [
        {
          "internalType": "bytes32",
          "name": "",
          "type": "bytes32"
        }
      ],
      "stateMutability": "view",
      "type": "function"
    },
    {
      "inputs": [
        {
          "internalType": "uint256",
          "name": "taskId",
          "type": "uint256"
        },
        {
          "internalType": "string",
          "name": "Note",
          "type": "string"
        },
        {
          "internalType": "string",
          "name": "GithubFixedURL",
          "type": "string"
        },
        {
          "internalType": "address",
          "name": "user",
          "type": "address"
        }
      ],
      "name": "reSubmitTask",
      "outputs": [],
      "stateMutability": "nonpayable",
      "type": "function"
    },
    {
      "inputs": [
        {
          "internalType": "uint256",
          "name": "taskId",
          "type": "uint256"
        },
        {
          "internalType": "address",
          "name": "_applicant",
          "type": "address"
        }
      ],
      "name": "rejectJoinRequest",
      "outputs": [],
      "stateMutability": "nonpayable",
      "type": "function"
    },
    {
      "inputs": [
        {
          "internalType": "uint256",
          "name": "taskId",
          "type": "uint256"
        },
        {
          "internalType": "address",
          "name": "user",
          "type": "address"
        }
      ],
      "name": "requestJoinTask",
      "outputs": [],
      "stateMutability": "payable",
      "type": "function"
    },
    {
      "inputs": [
        {
          "internalType": "uint256",
          "name": "taskId",
          "type": "uint256"
        },
        {
          "internalType": "string",
          "name": "Note",
          "type": "string"
        },
        {
          "internalType": "uint256",
          "name": "additionalDeadlineHours",
          "type": "uint256"
        }
      ],
      "name": "requestRevision",
      "outputs": [],
      "stateMutability": "nonpayable",
      "type": "function"
    },
    {
      "inputs": [
        {
          "internalType": "uint256",
          "name": "taskId",
          "type": "uint256"
        },
        {
          "internalType": "string",
          "name": "PullRequestURL",
          "type": "string"
        },
        {
          "internalType": "string",
          "name": "Note",
          "type": "string"
        },
        {
          "internalType": "address",
          "name": "user",
          "type": "address"
        }
      ],
      "name": "requestSubmitTask",
      "outputs": [],
      "stateMutability": "nonpayable",
      "type": "function"
    },
    {
      "inputs": [
        {
          "internalType": "uint256",
          "name": "NewmemberStakePercentReward",
          "type": "uint256"
        }
      ],
      "name": "setMemberStakePercentageFromStake",
      "outputs": [],
      "stateMutability": "nonpayable",
      "type": "function"
    },
    {
      "inputs": [],
      "name": "stateVar",
      "outputs": [
        {
          "internalType": "contract stateVariable",
          "name": "",
          "type": "address"
        }
      ],
      "stateMutability": "view",
      "type": "function"
    },
    {
      "inputs": [],
      "name": "systemWallet",
      "outputs": [
        {
          "internalType": "address payable",
          "name": "",
          "type": "address"
        }
      ],
      "stateMutability": "view",
      "type": "function"
    },
    {
      "inputs": [],
      "name": "taskCounter",
      "outputs": [
        {
          "internalType": "uint256",
          "name": "",
          "type": "uint256"
        }
      ],
      "stateMutability": "view",
      "type": "function"
    },
    {
      "inputs": [
        {
          "internalType": "uint256",
          "name": "taskId",
          "type": "uint256"
        }
      ],
      "name": "triggerDeadline",
      "outputs": [],
      "stateMutability": "nonpayable",
      "type": "function"
    },
    {
      "inputs": [
        {
          "internalType": "address",
          "name": "caller",
          "type": "address"
        }
      ],
      "name": "unpause",
      "outputs": [],
      "stateMutability": "nonpayable",
      "type": "function"
    },
    {
      "inputs": [
        {
          "internalType": "address",
          "name": "newImplementation",
          "type": "address"
        },
        {
          "internalType": "bytes",
          "name": "data",
          "type": "bytes"
        }
      ],
      "name": "upgradeToAndCall",
      "outputs": [],
      "stateMutability": "payable",
      "type": "function"
    },
    {
      "inputs": [
        {
          "internalType": "address",
          "name": "user",
          "type": "address"
        }
      ],
      "name": "withdraw",
      "outputs": [],
      "stateMutability": "nonpayable",
      "type": "function"
    },
    {
      "inputs": [
        {
          "internalType": "uint256",
          "name": "taskId",
          "type": "uint256"
        },
        {
          "internalType": "address",
          "name": "user",
          "type": "address"
        }
      ],
      "name": "withdrawJoinRequest",
      "outputs": [],
      "stateMutability": "nonpayable",
      "type": "function"
    },
    {
      "inputs": [],
      "name": "withdrawToSystemWallet",
      "outputs": [],
      "stateMutability": "nonpayable",
      "type": "function"
    },
    {
      "inputs": [
        {
          "internalType": "address",
          "name": "",
          "type": "address"
        }
      ],
      "name": "withdrawable",
      "outputs": [
        {
          "internalType": "uint256",
          "name": "",
          "type": "uint256"
        }
      ],
      "stateMutability": "view",
      "type": "function"
    },
    {
      "stateMutability": "payable",
      "type": "receive"
    }
  ],
  "bytecode": "0x60a0806040523460295730608052615b67908161002f8239608051818181612d150152612fb20152f35b600080fdfe60806040526004361015610013575b600080fd5b60003560e01c806302cb134e14613dc65780630cc0df9314613bbd57806313007d5514613b945780631a9a87231461395b57806327373990146138cf578063294c5374146138555780633cc8e544146137fa578063437b5684146131b65780634ee4de7d146131985780634f1ef28614612f645780634f51595f14612ebe57806351cff8d914612d6c57806352d1902d14612d02578063553659f514612ce457806357b001f914612bb25780635867173014612b945780635c975abb14612b645780635e54a14014612aaf5780636ca7f95c14612a915780636d8ed692146128f657806375ae3a6e146127f457806376a67a51146126f3578063793816ec146126ca5780638cab7be4146125fb5780639387730c1461251357806397f8a8d8146121a757806399b956a0146120ec5780639f8d5aa114611fdb578063a12d93f814611f5b578063aadd4b2a14611b55578063ad3cb1cc14611b0a578063ad7d3a7214611ae1578063ae204d96146119f0578063b26ecb37146115d2578063b8be2fea146114ce578063c0a5dded14611067578063c3c5a54714611025578063cca84a0c14610f5f578063ce513b6f14610f25578063cf756fdf14610d24578063e0d42e9614610c29578063f4b2a46e14610acf578063ff54068b14610a7f578063ff91221f146106015763ff9df4220361000e573461000e57608036600319011261000e576004356001600160401b03811161000e57610237903690600401614006565b90602435906001600160801b0382169283830361000e576044356001600160401b03811161000e5761026d903690600401614006565b9490610277613faf565b600054604051633f784de560e11b8152336004820152906001600160a01b0316602082602481845afa9081156105c8576102bf6020926004946000916105d4575b50156142e2565b604051638da5cb5b60e01b815292839182905afa80156105c8576102f791600091610599575b506001600160a01b031633141561433b565b610302331515614379565b6001600160a01b0316600081815260026020526040902060048101805492979260ff166105885760038201906001600160801b031982541682556000600184015560006002840155600160ff1982541617905560058201926001600160401b0387116104fe5761037c8761037686546140c4565b86614453565b60009387601f811160011461051f57806103af91600697600091610514575b508160011b916000199060031b1c19161790565b90555b81546001600160801b031660809190911b6001600160801b03191617905501906001600160401b0387116104fe576103f4876103ee84546140c4565b84614453565b600090601f8811600114610478579680610448927f1bfdcd45dd860c112f48920703980e72901feca6fa0fa8a5ff1258f0fe606795989960009261046d575b50508160011b916000199060031b1c19161790565b90555b610462604051938493604085526040850191614d7f565b9060208301520390a2005b013590503880610433565b8282526020822091601f198916815b8181106104e6575091600193918a7f1bfdcd45dd860c112f48920703980e72901feca6fa0fa8a5ff1258f0fe6067959a9b94106104cc575b505050811b01905561044b565b0135600019600384901b60f8161c191690553880806104bf565b91936020600181928787013581550195019201610487565b634e487b7160e01b600052604160045260246000fd5b90508b01353861039b565b50808552602085208589601f1981165b8c818a1061056b57506006985010610551575b5050600188811b0190556103b2565b8a013560001960038b901b60f8161c191690553880610542565b8301358455602098890198600190940193909201918b915061052f565b630f018e4960e21b60005260046000fd5b6105bb915060203d6020116105c1575b6105b38183614033565b81019061431c565b386102e5565b503d6105a9565b6040513d6000823e3d90fd5b6105f49150843d86116105fa575b6105ec8183614033565b8101906142ca565b386102b8565b503d6105e2565b3461000e57602036600319011261000e5760043580600052600560205260ff600b6040600020015460201c1615610a6e5761063a614fbc565b610642614f80565b806000526005602052604060002081600052600360205260ff600360406000200154166004811015610a4757600114610a5d576001810180549160ff83166007811015610a4757600403610a365760078101548015610a25574210610a14576002810180549093600b92916001600160a01b0316151580610a07575b156109bd5750610744610739600a8301546064610708816106ef6001600160401b036106e861585f565b168561425d565b04926001600160401b03610701615897565b169061425d565b049060018060a01b03885416600052600460205261072c604060002091825461427d565b905560098401549061427d565b60058301549061427d565b60018060a01b03845460101c166000526004602052610769604060002091825461427d565b905501805462ffff00191690555b81546001600160a01b031660008181526002602052604090206004015460ff16610913575b50805460101c6001600160a01b031660008181526002602052604090206004015460ff16610866575b50600660ff1982541617815560018060a01b03905460101c16600052600260205260026040600020016107f88154614a0f565b9055546001600160a01b031680610844575b507f69c3ad79d0e13d549ed2cf8009be68e25ffa6a38699d0e1983d13a7e3a77e1c6600080a26001600080516020615af283398151915255005b6000526002602052600260406000200161085e8154614a0f565b90558161080a565b8060005260026020526001600160801b036003604060002001541663ffffffff61088e615961565b1611156108ca5750805460101c6001600160a01b0316600090815260026020526040902060030180546001600160801b03191690555b836107c5565b63ffffffff6108d7615961565b169060005260026020526001600160801b036108fe60036040600020019282845416614498565b166001600160801b03198254161790556108c4565b8060005260026020526001600160801b036003604060002001541663ffffffff61093b615910565b161115610974575081546001600160a01b0316600090815260026020526040902060030180546001600160801b03191690555b8361079c565b63ffffffff610981615910565b169060005260026020526001600160801b036109a860036040600020019282845416614498565b166001600160801b031982541617905561096e565b6109d0600983015460058401549061427d565b9060018060a01b039060101c1660005260046020526109f5604060002091825461427d565b905501805462ffff0019169055610777565b50600a82015415156106be565b6370affcf560e11b60005260046000fd5b631da7447960e21b60005260046000fd5b63fe89421760e01b60005260046000fd5b634e487b7160e01b600052602160045260246000fd5b63eff3ce5d60e01b60005260046000fd5b63da319dff60e01b60005260046000fd5b3461000e57608036600319011261000e5760043563ffffffff8116810361000e576024359060ff8216820361000e57602091610ac791610abd613faf565b9160443591614da0565b604051908152f35b3461000e57602036600319011261000e5760043560005260056020526040600020805490600181015460ff811660ff8260081c169260018060a01b0360028201541690610b1e600382016140fe565b91610b2b600483016140fe565b60058301549563ffffffff600685015416600785015491600886015493600987015495600b600a890154980154986040519d8e5260078b1015610a475761024060a08f9e8f9094610bc29760ff9f96610bb4976020850152610b8c81614253565b604084015260101c6000196001851b01166060830152608082015201526102408d0190613fc5565b908b820360c08d0152613fc5565b9760e08a01526101008901526101208801526101408701526101608601526101808501528181166101a0850152818160081c1615156101c0850152818160101c1615156101e0850152818160181c16151561020085015260201c1615156102208301520390f35b3461000e57602036600319011261000e576004356024602060018060a01b036000541660405192838092633f784de560e11b82523360048301525afa80156105c857610c7d91600091610d05575b50614d44565b610c85614fbc565b80158015610cfb575b610cea57806009556000600080516020615a92833981519152608060405160208152602160208201527f7365744d656d6265725374616b6550657263656e7461676546726f6d5374616b6040820152606560f81b6060820152a3005b630b417afb60e11b60005260046000fd5b5060648111610c8e565b610d1e915060203d6020116105fa576105ec8183614033565b83610c77565b3461000e57608036600319011261000e57610d3d613f83565b610d45613f99565b90604435906001600160a01b0382169081830361000e57600080516020615b128339815191525460ff8160401c1615946001600160401b03821680159081610f1d575b6001149081610f13575b159081610f0a575b50610ef95767ffffffffffffffff198216600117600080516020615b1283398151915255610dea9186610ecc575b506001600160a01b031693610ddc856157fa565b610de5836157fa565b6157fa565b610df26159bc565b610dfa6159bc565b610e026159bc565b6001600080516020615af283398151915255610e1c6159bc565b60018060a01b03166001600160601b0360a01b60005416176000556001600160601b0360a01b60015416176001556001600160601b0360a01b600a541617600a5560006007556000600855606435600955610e7357005b68ff000000000000000019600080516020615b128339815191525416600080516020615b12833981519152557fc7f505b2f371ae2175ee4913f4499e1f2633a7b5936321eed1cdaeb6115181d2602060405160018152a1005b68ffffffffffffffffff19166801000000000000000117600080516020615b128339815191525586610dc8565b63f92ee8a960e01b60005260046000fd5b90501587610d9a565b303b159150610d92565b879150610d88565b3461000e57602036600319011261000e576001600160a01b03610f46613f83565b1660005260046020526020604060002054604051908152f35b3461000e57602036600319011261000e5760043580600052600560205260ff600b6040600020015460201c1615610a6e5760008181526005602052604090206001015460101c6001600160a01b0316330361101457610fbc614fbc565b806000526005602052600160406000200160ff8154166007811015610a4757600203610a3657805460ff191660031790557fe0a3eabfba8d6b242de244fdd6f0372ee66d472686b2cfd89420ef24c0462201600080a2005b63eabf778760e01b60005260046000fd5b3461000e57602036600319011261000e576001600160a01b03611046613f83565b166000526002602052602060ff600460406000200154166040519015158152f35b3461000e57611075366141a2565b94939184600094929452600560205260ff600b6040600020015460201c1615610a6e576000858152600560205260409020600201546001600160a01b03163303611481576110c1614fbc565b600054604051633f784de560e11b8152336004820152906001600160a01b0316602082602481845afa9081156105c8576111086020926004946000916114b15750156142e2565b604051638da5cb5b60e01b815292839182905afa80156105c85761113f9160009161149257506001600160a01b031633141561433b565b846000526005602052604060002060ff6001820154166007811015610a4757600403610a365760028101546001600160a01b03978816971687900361148157600086815260036020526040902060018101546001600160a01b031615159081611466575b506114555760070154936040519160c08301908382106001600160401b038311176104fe576111eb916040526111da36868861406f565b84526020840192898452369161406f565b946040830195865260608301956001875260808401926000845260a08501928352886000526003602052604060002094518051906001600160401b0382116104fe576112418261123b89546140c4565b89614453565b602090601f83116001146113ee576112719291600091836113e35750508160011b916000199060031b1c19161790565b85555b516001850180546001600160a01b0319166001600160a01b039290921691909117905551805160028501916001600160401b0382116104fe576112c1826112bb85546140c4565b85614453565b602090601f831160011461137c576112f19291600091836113715750508160011b916000199060031b1c19161790565b90555b600383019551916004831015610a47577f9989978868daa22b7a8a054a31e686ab83a420750a2a60b58facca87bf7c12199660ff611351926004958280198554169116178355511661ff0082549160081b169061ff001916179055565b5191015561136c604051928392602084526020840191614d7f565b0390a3005b015190508c80610433565b90601f1983169184600052816000209260005b8181106113cb57509084600195949392106113b2575b505050811b0190556112f4565b015160001960f88460031b161c191690558b80806113a5565b9293602060018192878601518155019501930161138f565b015190508d80610433565b90601f1983169188600052816000209260005b81811061143d5750908460019594939210611424575b505050811b018555611274565b015160001960f88460031b161c191690558c8080611417565b92936020600181928786015181550195019301611401565b63710b41a360e01b60005260046000fd5b60ff915060030154166004811015610a4757600114886111a3565b631e50374d60e01b60005260046000fd5b6114ab915060203d6020116105c1576105b38183614033565b886102e5565b6114c89150843d86116105fa576105ec8183614033565b8b6102b8565b3461000e57600036600319011261000e57600054604051633f784de560e11b815233600482015290602090829060249082906001600160a01b03165afa80156105c857611522916000916115b35750614d44565b61152a614f80565b611532614fbc565b600854600060085561155e60008080808560018060a01b03600a54165af1611558614a5e565b50614a8e565b6000600080516020615a9283398151915260606040516020815260166020820152751dda5d1a191c985dd51bd4de5cdd195b55d85b1b195d60521b6040820152a36001600080516020615af283398151915255005b6115cc915060203d6020116105fa576105ec8183614033565b82610c77565b3461000e57604036600319011261000e576004356115ee613f99565b9080600052600560205260ff600b6040600020015460201c1615610a6e57611614614f80565b600054604051633f784de560e11b8152336004820152906001600160a01b0316602082602481845afa9081156105c85761165b6020926004946000916119d35750156142e2565b604051638da5cb5b60e01b815292839182905afa80156105c857611692916000916119b457506001600160a01b031633141561433b565b61169a614fbc565b60008181526005602052604090206001810180546001600160a01b0394851694919291601082901c168514158061199d575b61198c5760ff166007811015610a4757600403610a36576002810180546001600160a01b031691908583036118cb57600b9250600a82015490611754606461173a816117286001600160401b0361172161585f565b168761425d565b04946001600160401b03610701615897565b049261174f600986015460058701549061427d565b61427d565b60018060a01b03865460101c166000526004602052611779604060002091825461427d565b9055546001600160a01b03166000908152600460205260409020805490916117a09161427d565b905501805462ffff00191690555b600660ff1982541617905581600052600260205260ff60046040600020015416611829575b81600052600260205260026040600020016117ee8154614a0f565b90557f19f7047fbece8b5fc78b72bcce829a232f26b08806e65852e2e4afb96572b365600080a36001600080516020615af283398151915255005b8160005260026020526001600160801b03600360406000200154166001600160401b036118546158bc565b16111561187f5781600052600260205260036040600020016001600160801b031981541690556117d3565b6001600160401b0361188f6158bc565b168260005260026020526001600160801b036118b660036040600020019282845416614498565b166001600160801b03198254161790556117d3565b50811561197b576009810154600b9261192961191e6064611912816119006001600160401b036118f961585f565b168861425d565b04956001600160401b03610701615897565b0460058601549061427d565b92600a85015461427d565b906000526004602052611942604060002091825461427d565b905560018060a01b03845460101c166000526004602052611969604060002091825461427d565b905501805462ffff00191690556117ae565b6316f1484160e01b60005260046000fd5b6389f5ad6160e01b60005260046000fd5b5060028201546001600160a01b03168514156116cc565b6119cd915060203d6020116105c1576105b38183614033565b846102e5565b6119ea9150843d86116105fa576105ec8183614033565b876102b8565b3461000e57602036600319011261000e576004611a0b613f83565b600054604051638da5cb5b60e01b81529260209184919082906001600160a01b03165afa9182156105c857600092611a55918491611ac2575b506001600160a01b03163314614acc565b611a5d614fbc565b611a66816157fa565b60018060a01b0316806001600160601b0360a01b6001541617600155600080516020615a9283398151915260606040516020815260156020820152746368616e676553746174655661724164647265737360581b6040820152a3005b611adb915060203d6020116105c1576105b38183614033565b84611a44565b3461000e57600036600319011261000e57600a546040516001600160a01b039091168152602090f35b3461000e57600036600319011261000e57611b516040805190611b2d8183614033565b60058252640352e302e360dc1b602083015251918291602083526020830190613fc5565b0390f35b3461000e57611b633661420b565b81600052600560205260ff600b6040600020015460201c1615610a6e5760008281526005602052604090206001015460101c6001600160a01b0316330361101457611bac614f80565b611bb4614fbc565b816000526005602052604060002090600052600360205260406000206001820160ff8154166007811015610a4757600403610a3657600382019260ff8454166004811015610a4757600103611f4a57600b810191600160ff845460181c16151514611f39576001840180549093906001600160a01b031615611f2857611c436005840154600a8501549061427d565b926002600982015491019360018060a01b038554166000526004602052611c70604060002091825461427d565b905560018060a01b03835460101c166000526004602052611c97604060002091825461427d565b9055805463ffffff0019166301000000179055805460ff1916600517815581546001600160a01b031660008181526002602052604090206004015460ff16611e8f575b50805460101c6001600160a01b031660008181526002602052604090206004015460ff16611ddf575b5091600094916004949360018060a01b03905460101c168652600260205260016040872001611d328154614a0f565b9055546001600160a01b031685526002602052604085206001018054611d5790614a0f565b9055611d6c611d6684546140c4565b8461442b565b8483556001600160601b0360a01b81541690558360028301611d97611d9182546140c4565b8261442b565b55805461ffff1916600317905501557f3e9d27a1c2a828db29e4b2a17fbd1bc70201ef21aec4f74b9fa051b02e38e3f0600080a26001600080516020615af283398151915255005b94916004949391602060018060a01b03600154166040519788809263b30e0be360e01b82525afa80156105c8576000976004978992611e5e575b50885260026020526001600160801b03611e4363ffffffff600360408c2001931682845416615005565b166001600160801b0319825416179055919394509194611d03565b611e8191925060203d602011611e88575b611e798183614033565b8101906158f4565b908a611e19565b503d611e6f565b60015460405163c7d3f62f60e01b81529190602090839060049082906001600160a01b03165afa9182156105c857600092611f07575b5060005260026020526001600160801b03611ef163ffffffff6003604060002001931682845416615005565b166001600160801b031982541617905586611cda565b611f2191925060203d602011611e8857611e798183614033565b9088611ec5565b631534b94560e21b60005260046000fd5b637dbbaaa960e01b60005260046000fd5b632901198f60e01b60005260046000fd5b3461000e57611f693661420b565b9060005260066020526040600020805482101561000e5760a091611f8c91614221565b5060ff600180841b03825416916002600182015491015490828216906040519485526020850152611fbc81614253565b6040840152818160081c161515606084015260101c1615156080820152f35b3461000e57604036600319011261000e57600435611ff7613f99565b611fff614f80565b33600052600260205260ff60046040600020015416156120db57816020917fd078b251d950cc55c44340be1db732337ef4939a76e1367ee271ad2cb19c46af93600052600583526009604060002060018101600660ff19825416179055600b810164ff00ff000019815416905560058101549260018060a01b0316928360005260048652612093604060002091825461427d565b9055015490816120bb575b5050604051908152a16001600080516020615af283398151915255005b600052600483526120d2604060002091825461427d565b9055838061209e565b63aba4733960e01b60005260046000fd5b3461000e57602036600319011261000e576001600160a01b0361210d613f83565b16600052600260205260406000208054611b51600183015492612199600282015491600381015460ff60048301541690612155600661214e600586016140fe565b94016140fe565b946040519889988952602089015260408801526001600160801b038116606088015260801c6080870152151560a086015261010060c0860152610100850190613fc5565b9083820360e0850152613fc5565b604036600319011261000e576004356121be613f99565b9080600052600560205260ff600b6040600020015460201c1615610a6e576121e4614fbc565b33600052600260205260ff60046040600020015416156120db57600054604051633f784de560e11b8152336004820152906001600160a01b0316602082602481845afa9081156105c8576122456020926004946000916119d35750156142e2565b604051638da5cb5b60e01b815292839182905afa80156105c85761227c916000916119b457506001600160a01b031633141561433b565b612287331515614379565b60008181526005602090815260408083206006909252822080546001600160a01b039095169491925b8281106124be575050506001015460ff81166007811015610a4757600303610a365760101c6001600160a01b03168214610a36576122ed81614a1e565b60015460405163baa20a3960e01b815290602090829060049082906001600160a01b03165afa80156105c8578291600091612489575b50106124785734036124675780600052600660205260406000206040519060a082018281106001600160401b038211176104fe57604052838252602082019034825260408301916001835260608401600181526080850192600084528054680100000000000000008110156104fe576123a191600182018155614221565b959095612451575185546001600160a01b0319166001600160a01b0391909116178555905160018501559151612425936002019261240c916123e281614253565b6123eb81614253565b8454915161ffff1990921660ff919091161790151560081b61ff0016178355565b51815462ff0000191690151560101b62ff000016179055565b7f716834564cb7c8e3d64d2045110836bf24ec2665f21cca881de739333c6d62d76020604051348152a3005b634e487b7160e01b600052600060045260246000fd5b6378de4a6960e11b60005260046000fd5b63c9e0390760e01b60005260046000fd5b9150506020813d6020116124b6575b816124a560209383614033565b8101031261000e5781905185612323565b3d9150612498565b856124c98284614221565b50546001600160a01b031614806124f8575b6124e7576001016122b0565b6353efb1e560e01b60005260046000fd5b5060ff60026125078385614221565b50015460081c166124db565b3461000e57602036600319011261000e5761252c613f83565b600054604051638da5cb5b60e01b8152916020836004816001600160a01b0386165afa9283156105c8576000936125749185916125dc57506001600160a01b03163314614acc565b61257c614fbc565b612585816157fa565b60018060a01b031680916001600160601b0360a01b16178255600080516020615a92833981519152606060405160208152601360208201527218da185b99d95058d8d95cdcd0dbdb9d1c9bdb606a1b6040820152a3005b6125f5915060203d6020116105c1576105b38183614033565b85611a44565b3461000e57602036600319011261000e576004612616613f83565b600054604051638da5cb5b60e01b81529260209184919082906001600160a01b03165afa9182156105c85760009261265f918491611ac257506001600160a01b03163314614acc565b612667614fbc565b6001600160a01b0316612679816157fa565b806001600160601b0360a01b600a541617600a55600080516020615a92833981519152606060405160208152601260208201527118da185b99d954de5cdd195b5dd85b1b195d60721b6040820152a3005b3461000e57600036600319011261000e576001546040516001600160a01b039091168152602090f35b3461000e57602036600319011261000e57600461270e613f83565b600054604051638da5cb5b60e01b81529260209184919082906001600160a01b03165afa9182156105c857600092612757918491611ac257506001600160a01b03163314614acc565b61275f614fbc565b600160ff19600080516020615ad2833981519152541617600080516020615ad2833981519152557f62e78cea01bee320cd4e420270b5ea74000d11b0c9f74754ebdbfc544b05a2586020604051338152a1600080516020615a9283398151915260606040519260208452600f60208501526e18dbdb9d1c9858dd081c185d5cd959608a1b604085015260018060a01b031692a3005b3461000e57612802366141a2565b9385600094929452600560205260ff600b6040600020015460201c1615610a6e576000868152600560205260409020600201546001600160a01b031633036114815761284c614fbc565b600054604051633f784de560e11b815233600482015296906001600160a01b0316602088602481845afa9081156105c85761289460209260049a6000916114b15750156142e2565b604051638da5cb5b60e01b815298899182905afa9687156105c8576128d5976128d0916000916128d757506001600160a01b031633141561433b565b614b04565b005b6128f0915060203d6020116105c1576105b38183614033565b896102e5565b3461000e57604036600319011261000e57600435612912613f99565b81600052600560205260ff600b6040600020015460201c1615610a6e5760008281526005602052604090206001015460101c6001600160a01b03163303611014579061295c614f80565b612964614fbc565b60008181526006602052604081206001600160a01b0390931692909190825b8154811015612a8557846129978284614221565b50546001600160a01b03161480612a6a575b6129b557600101612983565b819293508060026129ca6129fb938295614221565b5001805461ff001916905560016129e18286614221565b50015493600060016129f38484614221565b500155614221565b50016201000062ff000019825416179055826000526004602052612a25604060002091825461427d565b9055612a31600161428a565b7f659db9764efb778e1b0294e020cbc7f55b198481945e7dd60910f555b27399dc600080a36001600080516020615af283398151915255005b5060ff6002612a798385614221565b50015460081c166129a9565b505090612a319061428a565b3461000e57600036600319011261000e576020600854604051908152f35b3461000e57602036600319011261000e5760043580600052600560205260ff600b6040600020015460201c1615610a6e5760008181526005602052604090206001015460101c6001600160a01b0316330361101457612b0c614fbc565b806000526005602052600160406000200160ff8154166007811015610a4757600303610a3657805460ff191660021790557f383b6ce38b867405b4f42fa404692e07842868068badd063c9bfeb0e7f263f62600080a2005b3461000e57600036600319011261000e57602060ff600080516020615ad283398151915254166040519015158152f35b3461000e57600036600319011261000e576020600754604051908152f35b3461000e57602036600319011261000e57612bcb613f83565b600054604051638da5cb5b60e01b815290602090829060049082906001600160a01b03165afa80156105c857612c1391600091612cc557506001600160a01b03163314614acc565b600080516020615ad2833981519152549060ff821615612cb45760009160ff1916600080516020615ad2833981519152557f5db9ee0a495bf2e6ff9c91a7834c1ba4fdd244a5e8aa4e537bd38aeae4b073aa6020604051338152a1600080516020615a9283398151915260606040519260208452601160208501527018dbdb9d1c9858dd08155b9c185d5cd959607a1b604085015260018060a01b031692a3005b638dfc202b60e01b60005260046000fd5b612cde915060203d6020116105c1576105b38183614033565b83611a44565b3461000e57600036600319011261000e576020600954604051908152f35b3461000e57600036600319011261000e577f00000000000000000000000000000000000000000000000000000000000000006001600160a01b03163003612d5b576020604051600080516020615ab28339815191528152f35b63703e46dd60e11b60005260046000fd5b3461000e57602036600319011261000e57612d85613f83565b612d8d614f80565b600054604051633f784de560e11b8152336004820152906001600160a01b0316602082602481845afa9081156105c857612dd4602092600494600091612ea15750156142e2565b604051638da5cb5b60e01b815292839182905afa80156105c857612e0b91600091612e8257506001600160a01b031633141561433b565b612e13614fbc565b6001600160a01b0316600081815260046020908152604082208054908390557f7fcf532c15f0a6db0bd6d0e038bea71d30d808c7d98cb3bf7268a95bf5081b6592612e679080808085895af1611558614a5e565b604051908152a26001600080516020615af283398151915255005b612e9b915060203d6020116105c1576105b38183614033565b836102e5565b612eb89150843d86116105fa576105ec8183614033565b866102b8565b3461000e57602036600319011261000e5760043560005260036020526040600020612ee8816140fe565b9060018060a01b0360018201541690612f03600282016140fe565b612f3e600383015493600460ff861694015492612f2b6040519760c0895260c0890190613fc5565b9160208801528682036040880152613fc5565b916004811015610a4757849360ff91606086015260081c16608084015260a08301520390f35b604036600319011261000e57612f78613f83565b6024356001600160401b03811161000e573660238201121561000e57612fa890369060248160040135910161406f565b6001600160a01b037f000000000000000000000000000000000000000000000000000000000000000016308114908115613175575b50612d5b57600054604051638da5cb5b60e01b815290602090829060049082906001600160a01b03165afa80156105c85761302a91600091611ac257506001600160a01b03163314614acc565b613032614fbc565b6040516352d1902d60e01b81526001600160a01b0383169290602081600481875afa60009181613141575b506130775783634c9c8ce360e01b60005260045260246000fd5b80600080516020615ab283398151915285920361312d5750813b1561311957600080516020615ab283398151915280546001600160a01b031916821790557fbc7cd75a20ee27fd9adebab32041f755214dbc6bffa90cc0225b39da2e5c2d3b600080a28151156130ff576000808360206128d595519101845af46130f9614a5e565b91615a30565b50503461310857005b63b398979f60e01b60005260046000fd5b634c9c8ce360e01b60005260045260246000fd5b632a87526960e21b60005260045260246000fd5b9091506020813d60201161316d575b8161315d60209383614033565b8101031261000e5751908561305d565b3d9150613150565b600080516020615ab2833981519152546001600160a01b03161415905083612fdd565b3461000e57602036600319011261000e576020610ac7600435614a1e565b60a036600319011261000e576004356001600160401b03811161000e576131e19036906004016140a6565b6024356001600160401b03811161000e576132009036906004016140a6565b6044359063ffffffff82169283830361000e576064359160ff831680840361000e57608435946001600160a01b038616860361000e5761323e614fbc565b33600052600260205260ff60046040600020015416156120db57613260614f80565b600054604051633f784de560e11b815233600482015291906001600160a01b0316602083602481845afa9081156105c8576132a86020926004956000916137dd5750156142e2565b604051638da5cb5b60e01b815293849182905afa9081156105c8576132e58892613307946000916137be57506001600160a01b031633141561433b565b6132f0331515614379565b6132fb600754614a0f565b968760075534916153bc565b956040519261024084018481106001600160401b038211176104fe5760405285845260208401976001895261333b81614253565b604085015260018060a01b0387166060850152600060808501528460a085015260c08401523460e0840152610100830152600061012083015242610140830152600061016083015260006101808301526101a082015260006101c082015260006101e0820152600061020082015260016102208201528260005260056020526040600020948151865551946007861015610a475760009560ff8019600184015416911617600182015560408201516133f281614253565b6133fb81614253565b6001820180546060850151610100600160b01b031990911660089390931b61ff00169290921760109290921b62010000600160b01b031691909117905560808201516002820180546001600160a01b0319166001600160a01b039290921691909117905560a08201518051906001600160401b0382116137365761348f8261348660038601546140c4565b60038601614453565b602090601f8311600114613755576134be929189918361374a5750508160011b916000199060031b1c19161790565b60038201555b60c08201518051906001600160401b038211613736576134f4826134eb60048601546140c4565b60048601614453565b60209088601f841160011461369d57936135518461366c979561022095600b957f9dda774dc9cd26aa151d38f0382b90219cad43a5beafe7761bf9ace382799cb39b99926113e35750508160011b916000199060031b1c19161790565b60048201555b60e084015160058201556006810163ffffffff6101008601511663ffffffff19825416179055610120840151600782015561014084015160088201556101608401516009820155610180840151600a820155019160ff6101a08201511660ff198454161783556135e16101c08201511515849061ff00825491151560081b169061ff001916179055565b6101e0810151835462ff0000191690151560101b62ff0000161783556102008101518354929091015164ffff0000001990921690151560181b63ff0000001617901515602090811b64ff0000000016919091179091556001600160a01b03861687526002905260408620805461365690614a0f565b9055604051918291606083526060830190613fc5565b346020830152604082018790526001600160a01b03909516940390a36001600080516020615af28339815191525580f35b509060048401895280892091895b601f198516811061371e57509360018461022094600b947f9dda774dc9cd26aa151d38f0382b90219cad43a5beafe7761bf9ace382799cb39a9861366c9a98601f19811610613705575b505050811b016004820155613557565b015160001960f88460031b161c191690558c80806136f5565b919260206001819286850151815501940192016136ab565b634e487b7160e01b88526041600452602488fd5b015190508980610433565b6003840189528189209190601f1984168a5b8181106137a6575090846001959493921061378d575b505050811b0160038201556134c4565b015160001960f88460031b161c1916905588808061377d565b92936020600181928786015181550195019301613767565b6137d7915060203d6020116105c1576105b38183614033565b8b6102e5565b6137f49150843d86116105fa576105ec8183614033565b8c6102b8565b3461000e57604036600319011261000e57613813613f99565b61381b614f80565b33600052600260205260ff60046040600020015416156120db57613841906004356148b5565b6001600080516020615af283398151915255005b3461000e57602036600319011261000e5760043580600052600560205260ff600b6040600020015460201c1615610a6e5761388e614fbc565b60005260056020526020610ac7604060002063ffffffff6006820154169060ff600b820154166005820154916001808060a01b0391015460101c1692614da0565b3461000e57606036600319011261000e576004356024356001600160401b03811161000e57613902903690600401614006565b82600093929352600560205260ff600b6040600020015460201c1615610a6e5760008281526005602052604090206001015460101c6001600160a01b03163303611014576128d592613952614fbc565b604435926144b8565b3461000e57602036600319011261000e57613974613f83565b33600052600260205260ff60046040600020015416156120db57600054604051633f784de560e11b8152336004820152906001600160a01b0316602082602481845afa9081156105c8576139d5602092600494600091612ea15750156142e2565b604051638da5cb5b60e01b815292839182905afa80156105c857613a0c91600091612e8257506001600160a01b031633141561433b565b613a17331515614379565b6001600160a01b0316600081815260026020526040908190209051906101008201906001600160401b038211838310176104fe5783926001600160801b03613af9927f9e5018ee7d6d2d38c3282ec3d1bfeadd0d8129dce80e06a127569ad99565fc7f946040528054835260018101546020840152600281015460408401526003810154928284166060820152608081019360801c845260ff600483015416151560a082015260e0613ade6006613ad0600586016140fe565b9460c08501958652016140fe565b91015251915116604051928392604084526040840190613fc5565b9060208301520390a26000526002602052613b46600660406000206000815560006001820155600060028201556000600382015560006004820155613b40600582016143dc565b016143dc565b611b516040805190613b588183614033565b601782527f556e7265676973746572205375636365737366756c6c79000000000000000000602083015251918291602083526020830190613fc5565b3461000e57600036600319011261000e576000546040516001600160a01b039091168152602090f35b3461000e57602036600319011261000e5760043580600052600560205260ff600b6040600020015460201c1615610a6e5760008181526005602052604090206001015460101c6001600160a01b0316330361101457613c1a614f80565b613c22614fbc565b8060005260066020526040600020816000526005602052604060002060009160005b8154811015613dba5760ff6002613c5b8385614221565b50015460081c16613c6e57600101613c44565b60029293508183613c8283613cf395614221565b5001805461ff001916905583613c988383614221565b5001805460ff191685179055613cae8282614221565b505485850180546001600160a01b0319166001600160a01b03929092169190911790556001613cdd8383614221565b500154600a860155600060016129f38484614221565b5001805462ff0000191662010000179055600b8101805461ff001916610100179055613d1f600161428a565b63ffffffff600682015416610e10810290808204610e101490151715613da457613d49904261427d565b600782015560018101805460ff19166004179055600201546001600160a01b0316907fa15a372eebffa78fac354b5e2229bc1a3bad4e94c881acfb6f86d381c50ba794600080a36001600080516020615af283398151915255005b634e487b7160e01b600052601160045260246000fd5b505090613d1f9061428a565b602036600319011261000e5760043580600052600560205260ff600b6040600020015460201c1615610a6e5760008181526005602052604090206001015460101c6001600160a01b0316330361101457613e1e614f80565b613e26614fbc565b80600052600560205260406000206001810190815460ff81166007811015610a4757600103610a3657613e7f63ffffffff600684015416600b84019260ff84541660058601549160018060a01b039060101c1692614da0565b3403613f725760015460405162d1e93b60e31b81529390602090859060049082906001600160a01b03165afa9384156105c857613ed46001600160401b03613f0796606493600091613f43575b50163461425d565b04926009613ee28534614270565b910155805460ff19166002179055805462ff000019166201000017905560085461427d565b6008557f96de4d43d5265ced55b252018f405ed224e0ed3f7c992a8d0115626700feda3e600080a26001600080516020615af283398151915255005b613f65915060203d602011613f6b575b613f5d8183614033565b810190614fe6565b89613ecc565b503d613f53565b634581e82760e01b60005260046000fd5b600435906001600160a01b038216820361000e57565b602435906001600160a01b038216820361000e57565b606435906001600160a01b038216820361000e57565b919082519283825260005b848110613ff1575050826000602080949584010152601f8019910116010190565b80602080928401015182828601015201613fd0565b9181601f8401121561000e578235916001600160401b03831161000e576020838186019501011161000e57565b90601f801991011681019081106001600160401b038211176104fe57604052565b6001600160401b0381116104fe57601f01601f191660200190565b92919261407b82614054565b916140896040519384614033565b82948184528183011161000e578281602093846000960137010152565b9080601f8301121561000e578160206140c19335910161406f565b90565b90600182811c921680156140f4575b60208310146140de57565b634e487b7160e01b600052602260045260246000fd5b91607f16916140d3565b9060405191826000825492614112846140c4565b80845293600181169081156141805750600114614139575b5061413792500383614033565b565b90506000929192526020600020906000915b818310614164575050906020614137928201013861412a565b602091935080600191548385890101520191019091849261414b565b90506020925061413794915060ff191682840152151560051b8201013861412a565b90608060031983011261000e57600435916024356001600160401b03811161000e57816141d191600401614006565b92909291604435906001600160401b03821161000e576141f391600401614006565b90916064356001600160a01b038116810361000e5790565b604090600319011261000e576004359060243590565b805482101561423d576000526003602060002091020190600090565b634e487b7160e01b600052603260045260246000fd5b60061115610a4757565b81810292918115918404141715613da457565b91908203918211613da457565b91908201809211613da457565b1561429157565b60405162461bcd60e51b81526020600482015260116024820152701c995c5d595cdd081b9bdd08199bdd5b99607a1b6044820152606490fd5b9081602091031261000e5751801515810361000e5790565b156142e957565b60405162461bcd60e51b815260206004820152600b60248201526a497320656d706c6f79656560a81b6044820152606490fd5b9081602091031261000e57516001600160a01b038116810361000e5790565b1561434257565b60405162461bcd60e51b815260206004820152600f60248201526e21b0b63632b91034b99037bbb732b960891b6044820152606490fd5b1561438057565b60405162461bcd60e51b815260206004820152601d60248201527f63616c6c65722069732063616e74206265207a65726f206164647220210000006044820152606490fd5b8181106143d0575050565b600081556001016143c5565b6143e681546140c4565b90816143f0575050565b81601f60009311600114614402575055565b8183526020832061441e91601f0160051c8101906001016143c5565b8082528160208120915555565b90601f8111614438575050565b61413791600052601f6020600020910160051c8101906143c5565b9190601f811161446257505050565b614137926000526020600020906020601f840160051c8301931061448e575b601f0160051c01906143c5565b9091508190614481565b906001600160801b03809116911603906001600160801b038211613da457565b92836000526005602052604060002090846000526003602052604060002092600283019460018060a01b038654161561197b576001546040516241930960e91b815290602090829060049082906001600160a01b03165afa9081156105c85784916001600160401b0391600091614896575b501610610a2557600385019460ff8654166004811015610a4757600103610a3657610e10840293808504610e101490151715613da457855460ff19166002908117875501916001600160401b0382116104fe5761458b826112bb85546140c4565b600090601f8311600114614832576145bb92916000918361046d5750508160011b916000199060031b1c19161790565b90555b60ff835460081c169060ff8214613da4576145f060016145f69301859061ff0082549160081b169061ff001916179055565b4261427d565b9260078201938455825460ff600b8401541660ff8260081c16116147ff575060409260017f33edbe073d61cf304f0e11256ba07aefb7e60a754d1e12a0f07e5b29cb3d7321959360ff93828060a01b0381541680600052600260205285600489600020015416614752575b505001805460101c6001600160a01b0316600081815260026020528690206004015484166146a0575b50505460081c16905482519182526020820152a2565b8060005260026020526001600160801b036003876000200154166001600160401b036146ca61536b565b16111561470557505460101c6001600160a01b03166000908152600260205284902060030180546001600160801b03191690555b388061468a565b90506001600160401b0361471761536b565b169060005260026020526001600160801b0361473d600387600020019282845416614498565b166001600160801b03198254161790556146fe565b8060005260026020526001600160801b036003896000200154166001600160401b0361477c61536b565b1611156147b25750828060a01b039054166000526002602052600386600020016001600160801b031981541690555b3880614661565b90506001600160401b036147c461536b565b169060005260026020526001600160801b036147ea600389600020019282845416614498565b166001600160801b03198254161790556147ab565b9250505060ff9150166004811015610a47576001036148295763eff3ce5d60e01b60005260046000fd5b61413790615025565b8382526020822091601f198416815b81811061487e5750908460019594939210614864575b505050811b0190556145be565b0135600019600384901b60f8161c19169055388080614857565b91936020600181928787013581550195019201614841565b6148af915060203d602011613f6b57613f5d8183614033565b3861452a565b9081600052600660205260406000209160005b83548110156149d5576148db8185614221565b50546001600160a01b0384811691168114806149ba575b8061499e575b61490557506001016148c8565b93919250600161495982600261491d60009587614221565b5001805461ff001916905560026149348287614221565b5001805462ff0000191662010000179055826149508287614221565b50015494614221565b500155826000526004602052614975604060002091825461427d565b90557f7d8891f107b48a85b66c4f2654182303b5c3b3926287bae8e33ea57f91909a37600080a3565b5060ff60026149ad8488614221565b50015460101c16156148f8565b5060ff60026149c98488614221565b50015460081c166148f2565b60405162461bcd60e51b81526020600482015260126024820152711b9bc81c195b991a5b99c81c995c5d595cdd60721b6044820152606490fd5b6000198114613da45760010190565b80600052600560205260ff600b6040600020015460201c1615610a6e5760005260056020526064614a5a6005604060002001546009549061425d565b0490565b3d15614a89573d90614a6f82614054565b91614a7d6040519384614033565b82523d6000602084013e565b606090565b15614a9557565b60405162461bcd60e51b815260206004820152600f60248201526e1dda5d1a191c985dc819985a5b1959608a1b6044820152606490fd5b15614ad357565b60405162461bcd60e51b81526020600482015260096024820152682737ba1037bbb732b960b91b6044820152606490fd5b9391929084600052600560205260406000209085600052600360205260406000209460018060a01b0360018701541615611f285760028301546001600160a01b039889169816889003611481576003860192835460ff8116916004831015610a475760028303610a365760ff600b81920154169160081c1611614d1f575060028601916001600160401b0382116104fe57614ba3826112bb85546140c4565b600090601f8311600114614cbb57614bd392916000918361046d5750508160011b916000199060031b1c19161790565b90555b805460ff191660011790556001600160401b0382116104fe57614bfd826112bb85546140c4565b600090601f8311600114614c5757614c2d92916000918361046d5750508160011b916000199060031b1c19161790565b90555b7fd91178918ec22e991ec5103aaa21661df1d5ddfeee4571007ad649225c0dad28600080a3565b8382526020822091601f198416815b818110614ca35750908460019594939210614c89575b505050811b019055614c30565b0135600019600384901b60f8161c19169055388080614c7c565b91936020600181928787013581550195019201614c66565b8382526020822091601f198416815b818110614d075750908460019594939210614ced575b505050811b019055614bd6565b0135600019600384901b60f8161c19169055388080614ce0565b91936020600181928787013581550195019201614cca565b955050505050506001919250146000146148295763eff3ce5d60e01b60005260046000fd5b15614d4b57565b60405162461bcd60e51b815260206004820152600c60248201526b4e6f7420656d706c6f79656560a01b6044820152606490fd5b908060209392818452848401376000828201840152601f01601f1916010190565b90614dac9392916153bc565b614db581614253565b80614e2257506001546040516394fb86e560e01b815290602090829060049082906001600160a01b03165afa9081156105c857600091614df3575090565b90506020813d602011614e1a575b81614e0e60209383614033565b8101031261000e575190565b3d9150614e01565b614e2b81614253565b60018103614e6c575060015460405163156bebd960e21b815290602090829060049082906001600160a01b03165afa9081156105c857600091614df3575090565b614e7581614253565b60028103614eb657506001546040516312c23eb160e01b815290602090829060049082906001600160a01b03165afa9081156105c857600091614df3575090565b614ebf81614253565b60038103614eff5750600154604051628f2c6560e71b815290602090829060049082906001600160a01b03165afa9081156105c857600091614df3575090565b600490614f0b81614253565b03614f485760015460405163ca218d7d60e01b815290602090829060049082906001600160a01b03165afa9081156105c857600091614df3575090565b6001546040516325ac29e160e01b815290602090829060049082906001600160a01b03165afa9081156105c857600091614df3575090565b6002600080516020615af28339815191525414614fab576002600080516020615af283398151915255565b633ee5aeb560e01b60005260046000fd5b60ff600080516020615ad28339815191525416614fd557565b63d93c066560e01b60005260046000fd5b9081602091031261000e57516001600160401b038116810361000e5790565b906001600160801b03809116911601906001600160801b038211613da457565b806000526005602052604060002060008052600360205260406000206001820160ff8154166007811015610a4757600403610a3657600382019260ff8454166004811015610a4757600103611f4a57600b810191600160ff845460181c16151514611f39576001840180549093906001600160a01b031615611f28576150b46005840154600a8501549061427d565b926002600982015491019360018060a01b0385541660005260046020526150e1604060002091825461427d565b905560018060a01b03835460101c166000526004602052615108604060002091825461427d565b9055805463ffffff0019166301000000179055805460ff1916600517815581546001600160a01b031660008181526002602052604090206004015460ff166152d2575b50805460101c6001600160a01b031660008181526002602052604090206004015460ff16615232575b5091600094916004949360018060a01b03905460101c1686526002602052600160408720016151a38154614a0f565b9055546001600160a01b0316855260026020526040852060010180546151c890614a0f565b90556151d7611d6684546140c4565b8483556001600160601b0360a01b815416905583600283016151fc611d9182546140c4565b55805461ffff1916600317905501557f3e9d27a1c2a828db29e4b2a17fbd1bc70201ef21aec4f74b9fa051b02e38e3f0600080a2565b94916004949391602060018060a01b03600154166040519788809263b30e0be360e01b82525afa80156105c85760009760049789926152b1575b50885260026020526001600160801b0361529663ffffffff600360408c2001931682845416615005565b166001600160801b0319825416179055919394509194615174565b6152cb91925060203d602011611e8857611e798183614033565b903861526c565b60015460405163c7d3f62f60e01b81529190602090839060049082906001600160a01b03165afa9182156105c85760009261534a575b5060005260026020526001600160801b0361533463ffffffff6003604060002001931682845416615005565b166001600160801b03198254161790553861514b565b61536491925060203d602011611e8857611e798183614033565b9038615308565b600154604051637221ba7960e11b815290602090829060049082906001600160a01b03165afa9081156105c8576000916153a3575090565b6140c1915060203d602011613f6b57613f5d8183614033565b60015460405163a0d0124560e01b81526001600160a01b039091169493919291602082600481895afa9081156105c857615413926000926157c6575b50670de0b6b3a76400006001600160401b039104911661425d565b604051630963d67f60e21b815291602083600481895afa9283156105c85761545b936001600160401b0392615454926000926157a2575b5060ff1690615999565b169061427d565b60405163c6de983960e01b81529092602082600481885afa9182156105c85760009261576b575b506001600160801b0361549c6001600160401b03926159ea565b16911602906001600160801b038216918203613da45760405163778162d760e11b815291602083600481885afa9182156105c8576154fe615505936001600160401b03926001600160801b0396600092615744575b5063ffffffff1690615999565b1690615005565b1680821161573657505060005b670de0b6b3a7640000810290808204670de0b6b3a76400001490151715613da4576064900460405163a376ff7d60e01b8152602081600481865afa9081156105c857600091615704575b50811161556a575050600090565b6040516370ffe5a360e11b8152602081600481865afa9081156105c8576000916156d2575b50811161559d575050600190565b6040516399206b0b60e01b8152602081600481865afa9081156105c8576000916156a0575b5081116155d0575050600290565b6040516384afa48b60e01b8152602081600481865afa9081156105c85760009161566e575b508111615603575050600390565b60206004926040519384809263813b79c160e01b82525afa9182156105c85760009261563a575b501161563557600490565b600590565b9091506020813d602011615666575b8161565660209383614033565b8101031261000e5751903861562a565b3d9150615649565b90506020813d602011615698575b8161568960209383614033565b8101031261000e5751386155f5565b3d915061567c565b90506020813d6020116156ca575b816156bb60209383614033565b8101031261000e5751386155c2565b3d91506156ae565b90506020813d6020116156fc575b816156ed60209383614033565b8101031261000e57513861558f565b3d91506156e0565b90506020813d60201161572e575b8161571f60209383614033565b8101031261000e57513861555c565b3d9150615712565b61573f91614270565b615512565b63ffffffff9192506157649060203d602011613f6b57613f5d8183614033565b91906154f1565b6001600160401b0391925061549c6157996001600160801b039260203d602011613f6b57613f5d8183614033565b93925050615482565b60ff9192506157bf9060203d602011613f6b57613f5d8183614033565b919061544a565b6001600160401b039192506157f2670de0b6b3a76400009160203d602011613f6b57613f5d8183614033565b9291506153f8565b6001600160a01b03161561580a57565b60405162461bcd60e51b815260206004820152602760248201527f416363657373436f6e74726f6c3a207a65726f2061646472657373206e6f7420604482015266185b1b1bddd95960ca1b6064820152608490fd5b600154604051630b7dadff60e01b815290602090829060049082906001600160a01b03165afa9081156105c8576000916153a3575090565b6001600160401b036158a761585f565b166064036001600160401b038111613da45790565b60015460405163cf95838b60e01b815290602090829060049082906001600160a01b03165afa9081156105c8576000916153a3575090565b9081602091031261000e575163ffffffff8116810361000e5790565b600154604051630d164b1d60e41b815290602090829060049082906001600160a01b03165afa9081156105c857600091615948575090565b6140c1915060203d602011611e8857611e798183614033565b600154604051633b8664cd60e11b815290602090829060049082906001600160a01b03165afa9081156105c857600091615948575090565b906001600160401b03809116911602906001600160401b038216918203613da457565b60ff600080516020615b128339815191525460401c16156159d957565b631afcd79f60e31b60005260046000fd5b6001600160a01b031660008181526002602052604090206004015460ff1615615a2a5760005260026020526001600160801b036003604060002001541690565b50600090565b90615a565750805115615a4557602081519101fd5b63d6bda27560e01b60005260046000fd5b81511580615a88575b615a67575090565b639996b31560e01b60009081526001600160a01b0391909116600452602490fd5b50803b15615a5f56fe1bce747d41af8244f3246272f08510707b11c277f47de91efab942bd3802c940360894a13ba1a3210667c828492db98dca3e2076cc3735a920a3ca505d382bbccd5ed15c6e187e77e9aee88184c21f4f2182ab5827cb3b7e07fbedcd63f033009b779b17422d0df92223018b32b4d1fa46e071723d6817e2486d003becc55f00f0c57e16840df040f15088dc2f81fe391c3923bec73e23a9662efc9c229c6a00a2646970667358221220c0052268da7c3549edc26ff6eff5cd1b20447c30d6d9188cca7987625bab991b64736f6c634300081c0033",
  "linkReferences": {},
  "deployedLinkReferences": {}
}