{
  "_format": "hh-sol-artifact-1",
  "contractName": "TrustlessTeamProtocol",
  "sourceName": "contracts/User/TrustlessTeamProtocol.sol",
  "abi": [
    {
      "inputs": [
        {
          "internalType": "address",
          "name": "target",
          "type": "address"
        }
      ],
      "name": "AddressEmptyCode",
      "type": "error"
    },
    {
      "inputs": [],
      "name": "AlreadyRequestedJoin",
      "type": "error"
    },
    {
      "inputs": [],
      "name": "AlredyClaimed",
      "type": "error"
    },
    {
      "inputs": [],
      "name": "AlredyRegistered",
      "type": "error"
    },
    {
      "inputs": [],
      "name": "CancelOnlyWhenMemberAssigned",
      "type": "error"
    },
    {
      "inputs": [],
      "name": "DeadlineNotExceeded",
      "type": "error"
    },
    {
      "inputs": [
        {
          "internalType": "address",
          "name": "implementation",
          "type": "address"
        }
      ],
      "name": "ERC1967InvalidImplementation",
      "type": "error"
    },
    {
      "inputs": [],
      "name": "ERC1967NonPayable",
      "type": "error"
    },
    {
      "inputs": [],
      "name": "EnforcedPause",
      "type": "error"
    },
    {
      "inputs": [],
      "name": "ExpectedPause",
      "type": "error"
    },
    {
      "inputs": [],
      "name": "FailedCall",
      "type": "error"
    },
    {
      "inputs": [],
      "name": "InsufficientStake",
      "type": "error"
    },
    {
      "inputs": [],
      "name": "InvalidDeadline",
      "type": "error"
    },
    {
      "inputs": [],
      "name": "InvalidInitialization",
      "type": "error"
    },
    {
      "inputs": [],
      "name": "InvalidMemberStakePercentReward",
      "type": "error"
    },
    {
      "inputs": [],
      "name": "InvalidReason",
      "type": "error"
    },
    {
      "inputs": [],
      "name": "InvalidRewardAmount",
      "type": "error"
    },
    {
      "inputs": [],
      "name": "InvalidStakeAmount",
      "type": "error"
    },
    {
      "inputs": [],
      "name": "InvalidTitle",
      "type": "error"
    },
    {
      "inputs": [],
      "name": "NoSubmision",
      "type": "error"
    },
    {
      "inputs": [],
      "name": "NotCounterparty",
      "type": "error"
    },
    {
      "inputs": [],
      "name": "NotInitializing",
      "type": "error"
    },
    {
      "inputs": [],
      "name": "NotRegistered",
      "type": "error"
    },
    {
      "inputs": [],
      "name": "NotTaskCreator",
      "type": "error"
    },
    {
      "inputs": [],
      "name": "NotTaskMember",
      "type": "error"
    },
    {
      "inputs": [],
      "name": "ReentrancyGuardReentrantCall",
      "type": "error"
    },
    {
      "inputs": [],
      "name": "RewardOverflow",
      "type": "error"
    },
    {
      "inputs": [],
      "name": "StakeHitLimit",
      "type": "error"
    },
    {
      "inputs": [],
      "name": "StakeMismatch",
      "type": "error"
    },
    {
      "inputs": [],
      "name": "StakeOverflow",
      "type": "error"
    },
    {
      "inputs": [],
      "name": "TaskDoesNotExist",
      "type": "error"
    },
    {
      "inputs": [],
      "name": "TaskNotOpen",
      "type": "error"
    },
    {
      "inputs": [],
      "name": "TaskNotSubmittedYet",
      "type": "error"
    },
    {
      "inputs": [],
      "name": "TooManyRevisions",
      "type": "error"
    },
    {
      "inputs": [],
      "name": "UUPSUnauthorizedCallContext",
      "type": "error"
    },
    {
      "inputs": [
        {
          "internalType": "bytes32",
          "name": "slot",
          "type": "bytes32"
        }
      ],
      "name": "UUPSUnsupportedProxiableUUID",
      "type": "error"
    },
    {
      "inputs": [],
      "name": "ValueMismatch",
      "type": "error"
    },
    {
      "inputs": [],
      "name": "alredyInPending",
      "type": "error"
    },
    {
      "inputs": [],
      "name": "submissionAlreadyPending",
      "type": "error"
    },
    {
      "anonymous": false,
      "inputs": [
        {
          "indexed": true,
          "internalType": "uint256",
          "name": "taskId",
          "type": "uint256"
        }
      ],
      "name": "DeadlineTriggered",
      "type": "event"
    },
    {
      "anonymous": false,
      "inputs": [
        {
          "indexed": false,
          "internalType": "uint64",
          "name": "version",
          "type": "uint64"
        }
      ],
      "name": "Initialized",
      "type": "event"
    },
    {
      "anonymous": false,
      "inputs": [
        {
          "indexed": true,
          "internalType": "uint256",
          "name": "taskId",
          "type": "uint256"
        },
        {
          "indexed": true,
          "internalType": "address",
          "name": "applicant",
          "type": "address"
        }
      ],
      "name": "JoinApproved",
      "type": "event"
    },
    {
      "anonymous": false,
      "inputs": [
        {
          "indexed": true,
          "internalType": "uint256",
          "name": "taskId",
          "type": "uint256"
        },
        {
          "indexed": true,
          "internalType": "address",
          "name": "applicant",
          "type": "address"
        }
      ],
      "name": "JoinRejected",
      "type": "event"
    },
    {
      "anonymous": false,
      "inputs": [
        {
          "indexed": true,
          "internalType": "uint256",
          "name": "taskId",
          "type": "uint256"
        },
        {
          "indexed": true,
          "internalType": "address",
          "name": "applicant",
          "type": "address"
        },
        {
          "indexed": false,
          "internalType": "uint256",
          "name": "stakeAmount",
          "type": "uint256"
        }
      ],
      "name": "JoinRequested",
      "type": "event"
    },
    {
      "anonymous": false,
      "inputs": [
        {
          "indexed": true,
          "internalType": "uint256",
          "name": "taskId",
          "type": "uint256"
        },
        {
          "indexed": true,
          "internalType": "address",
          "name": "user",
          "type": "address"
        }
      ],
      "name": "JoinrequestCancelled",
      "type": "event"
    },
    {
      "anonymous": false,
      "inputs": [
        {
          "indexed": false,
          "internalType": "address",
          "name": "account",
          "type": "address"
        }
      ],
      "name": "Paused",
      "type": "event"
    },
    {
      "anonymous": false,
      "inputs": [
        {
          "indexed": true,
          "internalType": "uint256",
          "name": "taskId",
          "type": "uint256"
        }
      ],
      "name": "RegistrationClosed",
      "type": "event"
    },
    {
      "anonymous": false,
      "inputs": [
        {
          "indexed": true,
          "internalType": "uint256",
          "name": "taskId",
          "type": "uint256"
        }
      ],
      "name": "RegistrationOpened",
      "type": "event"
    },
    {
      "anonymous": false,
      "inputs": [
        {
          "indexed": true,
          "internalType": "uint256",
          "name": "taskId",
          "type": "uint256"
        },
        {
          "indexed": false,
          "internalType": "uint8",
          "name": "revisionCount",
          "type": "uint8"
        },
        {
          "indexed": false,
          "internalType": "uint256",
          "name": "newDeadline",
          "type": "uint256"
        }
      ],
      "name": "RevisionRequested",
      "type": "event"
    },
    {
      "anonymous": false,
      "inputs": [
        {
          "indexed": true,
          "internalType": "uint256",
          "name": "taskId",
          "type": "uint256"
        }
      ],
      "name": "TaskActive",
      "type": "event"
    },
    {
      "anonymous": false,
      "inputs": [
        {
          "indexed": true,
          "internalType": "uint256",
          "name": "taskId",
          "type": "uint256"
        }
      ],
      "name": "TaskApproved",
      "type": "event"
    },
    {
      "anonymous": false,
      "inputs": [
        {
          "indexed": true,
          "internalType": "uint256",
          "name": "taskId",
          "type": "uint256"
        },
        {
          "indexed": true,
          "internalType": "address",
          "name": "initiator",
          "type": "address"
        }
      ],
      "name": "TaskCancelledByMe",
      "type": "event"
    },
    {
      "anonymous": false,
      "inputs": [
        {
          "indexed": false,
          "internalType": "string",
          "name": "title",
          "type": "string"
        },
        {
          "indexed": true,
          "internalType": "uint256",
          "name": "taskId",
          "type": "uint256"
        },
        {
          "indexed": true,
          "internalType": "address",
          "name": "creator",
          "type": "address"
        },
        {
          "indexed": false,
          "internalType": "uint256",
          "name": "reward",
          "type": "uint256"
        },
        {
          "indexed": false,
          "internalType": "uint256",
          "name": "creatorStake",
          "type": "uint256"
        }
      ],
      "name": "TaskCreated",
      "type": "event"
    },
    {
      "anonymous": false,
      "inputs": [
        {
          "indexed": false,
          "internalType": "uint256",
          "name": "taskId",
          "type": "uint256"
        }
      ],
      "name": "TaskDeleted",
      "type": "event"
    },
    {
      "anonymous": false,
      "inputs": [
        {
          "indexed": true,
          "internalType": "uint256",
          "name": "taskId",
          "type": "uint256"
        },
        {
          "indexed": true,
          "internalType": "address",
          "name": "member",
          "type": "address"
        }
      ],
      "name": "TaskReSubmitted",
      "type": "event"
    },
    {
      "anonymous": false,
      "inputs": [
        {
          "indexed": true,
          "internalType": "uint256",
          "name": "taskId",
          "type": "uint256"
        },
        {
          "indexed": true,
          "internalType": "address",
          "name": "member",
          "type": "address"
        },
        {
          "indexed": false,
          "internalType": "string",
          "name": "githubURL",
          "type": "string"
        }
      ],
      "name": "TaskSubmitted",
      "type": "event"
    },
    {
      "anonymous": false,
      "inputs": [
        {
          "indexed": false,
          "internalType": "address",
          "name": "account",
          "type": "address"
        }
      ],
      "name": "Unpaused",
      "type": "event"
    },
    {
      "anonymous": false,
      "inputs": [
        {
          "indexed": true,
          "internalType": "address",
          "name": "implementation",
          "type": "address"
        }
      ],
      "name": "Upgraded",
      "type": "event"
    },
    {
      "anonymous": false,
      "inputs": [
        {
          "indexed": true,
          "internalType": "address",
          "name": "user",
          "type": "address"
        },
        {
          "indexed": false,
          "internalType": "string",
          "name": "name",
          "type": "string"
        },
        {
          "indexed": false,
          "internalType": "uint128",
          "name": "age",
          "type": "uint128"
        }
      ],
      "name": "UserRegistered",
      "type": "event"
    },
    {
      "anonymous": false,
      "inputs": [
        {
          "indexed": true,
          "internalType": "address",
          "name": "user",
          "type": "address"
        },
        {
          "indexed": false,
          "internalType": "string",
          "name": "name",
          "type": "string"
        },
        {
          "indexed": false,
          "internalType": "uint128",
          "name": "age",
          "type": "uint128"
        }
      ],
      "name": "UserUnregistered",
      "type": "event"
    },
    {
      "anonymous": false,
      "inputs": [
        {
          "indexed": true,
          "internalType": "address",
          "name": "user",
          "type": "address"
        },
        {
          "indexed": false,
          "internalType": "uint256",
          "name": "amount",
          "type": "uint256"
        }
      ],
      "name": "Withdrawal",
      "type": "event"
    },
    {
      "anonymous": false,
      "inputs": [
        {
          "indexed": false,
          "internalType": "string",
          "name": "info",
          "type": "string"
        },
        {
          "indexed": true,
          "internalType": "address",
          "name": "newAddress",
          "type": "address"
        },
        {
          "indexed": true,
          "internalType": "uint256",
          "name": "value",
          "type": "uint256"
        }
      ],
      "name": "systemChanged",
      "type": "event"
    },
    {
      "stateMutability": "payable",
      "type": "fallback"
    },
    {
      "inputs": [
        {
          "internalType": "string",
          "name": "Name",
          "type": "string"
        },
        {
          "internalType": "uint128",
          "name": "Age",
          "type": "uint128"
        },
        {
          "internalType": "string",
          "name": "githubURL",
          "type": "string"
        },
        {
          "internalType": "address",
          "name": "user",
          "type": "address"
        }
      ],
      "name": "Register",
      "outputs": [],
      "stateMutability": "nonpayable",
      "type": "function"
    },
    {
      "inputs": [
        {
          "internalType": "uint256",
          "name": "",
          "type": "uint256"
        }
      ],
      "name": "TaskSubmits",
      "outputs": [
        {
          "internalType": "string",
          "name": "githubURL",
          "type": "string"
        },
        {
          "internalType": "address",
          "name": "sender",
          "type": "address"
        },
        {
          "internalType": "string",
          "name": "note",
          "type": "string"
        },
        {
          "internalType": "enum TrustlessTeamProtocol.SubmitStatus",
          "name": "status",
          "type": "uint8"
        },
        {
          "internalType": "uint8",
          "name": "revisionTime",
          "type": "uint8"
        },
        {
          "internalType": "uint256",
          "name": "newDeadline",
          "type": "uint256"
        }
      ],
      "stateMutability": "view",
      "type": "function"
    },
    {
      "inputs": [
        {
          "internalType": "uint256",
          "name": "",
          "type": "uint256"
        }
      ],
      "name": "Tasks",
      "outputs": [
        {
          "internalType": "uint256",
          "name": "taskId",
          "type": "uint256"
        },
        {
          "internalType": "enum TrustlessTeamProtocol.TaskStatus",
          "name": "status",
          "type": "uint8"
        },
        {
          "internalType": "enum TrustlessTeamProtocol.TaskValue",
          "name": "value",
          "type": "uint8"
        },
        {
          "internalType": "address",
          "name": "creator",
          "type": "address"
        },
        {
          "internalType": "address",
          "name": "member",
          "type": "address"
        },
        {
          "internalType": "string",
          "name": "title",
          "type": "string"
        },
        {
          "internalType": "string",
          "name": "githubURL",
          "type": "string"
        },
        {
          "internalType": "uint256",
          "name": "reward",
          "type": "uint256"
        },
        {
          "internalType": "uint32",
          "name": "deadlineHours",
          "type": "uint32"
        },
        {
          "internalType": "uint256",
          "name": "deadlineAt",
          "type": "uint256"
        },
        {
          "internalType": "uint256",
          "name": "createdAt",
          "type": "uint256"
        },
        {
          "internalType": "uint256",
          "name": "creatorStake",
          "type": "uint256"
        },
        {
          "internalType": "uint256",
          "name": "memberStake",
          "type": "uint256"
        },
        {
          "internalType": "uint8",
          "name": "maxRevision",
          "type": "uint8"
        },
        {
          "internalType": "bool",
          "name": "isMemberStakeLocked",
          "type": "bool"
        },
        {
          "internalType": "bool",
          "name": "isCreatorStakeLocked",
          "type": "bool"
        },
        {
          "internalType": "bool",
          "name": "isRewardClaimed",
          "type": "bool"
        },
        {
          "internalType": "bool",
          "name": "exists",
          "type": "bool"
        }
      ],
      "stateMutability": "view",
      "type": "function"
    },
    {
      "inputs": [],
      "name": "UPGRADE_INTERFACE_VERSION",
      "outputs": [
        {
          "internalType": "string",
          "name": "",
          "type": "string"
        }
      ],
      "stateMutability": "view",
      "type": "function"
    },
    {
      "inputs": [
        {
          "internalType": "address",
          "name": "user",
          "type": "address"
        }
      ],
      "name": "Unregister",
      "outputs": [
        {
          "internalType": "string",
          "name": "",
          "type": "string"
        }
      ],
      "stateMutability": "nonpayable",
      "type": "function"
    },
    {
      "inputs": [
        {
          "internalType": "address",
          "name": "",
          "type": "address"
        }
      ],
      "name": "Users",
      "outputs": [
        {
          "internalType": "uint256",
          "name": "totalTasksCreated",
          "type": "uint256"
        },
        {
          "internalType": "uint256",
          "name": "totalTasksCompleted",
          "type": "uint256"
        },
        {
          "internalType": "uint256",
          "name": "totalTasksFailed",
          "type": "uint256"
        },
        {
          "internalType": "uint128",
          "name": "reputation",
          "type": "uint128"
        },
        {
          "internalType": "uint128",
          "name": "age",
          "type": "uint128"
        },
        {
          "internalType": "bool",
          "name": "isRegistered",
          "type": "bool"
        },
        {
          "internalType": "string",
          "name": "name",
          "type": "string"
        },
        {
          "internalType": "string",
          "name": "GitProfile",
          "type": "string"
        }
      ],
      "stateMutability": "view",
      "type": "function"
    },
    {
      "inputs": [
        {
          "internalType": "uint32",
          "name": "DeadlineHours",
          "type": "uint32"
        },
        {
          "internalType": "uint8",
          "name": "MaximumRevision",
          "type": "uint8"
        },
        {
          "internalType": "uint256",
          "name": "rewardWei",
          "type": "uint256"
        },
        {
          "internalType": "address",
          "name": "Caller",
          "type": "address"
        }
      ],
      "name": "__getCreatorStake",
      "outputs": [
        {
          "internalType": "uint256",
          "name": "",
          "type": "uint256"
        }
      ],
      "stateMutability": "view",
      "type": "function"
    },
    {
      "inputs": [],
      "name": "accessControl",
      "outputs": [
        {
          "internalType": "contract IAccessControl",
          "name": "",
          "type": "address"
        }
      ],
      "stateMutability": "view",
      "type": "function"
    },
    {
      "inputs": [
        {
          "internalType": "uint256",
          "name": "taskId",
          "type": "uint256"
        }
      ],
      "name": "activateTask",
      "outputs": [],
      "stateMutability": "payable",
      "type": "function"
    },
    {
      "inputs": [
        {
          "internalType": "uint256",
          "name": "taskId",
          "type": "uint256"
        }
      ],
      "name": "approveJoinRequest",
      "outputs": [],
      "stateMutability": "nonpayable",
      "type": "function"
    },
    {
      "inputs": [
        {
          "internalType": "uint256",
          "name": "taskId",
          "type": "uint256"
        },
        {
          "internalType": "uint256",
          "name": "SubmitId",
          "type": "uint256"
        }
      ],
      "name": "approveTask",
      "outputs": [],
      "stateMutability": "nonpayable",
      "type": "function"
    },
    {
      "inputs": [
        {
          "internalType": "uint256",
          "name": "taskId",
          "type": "uint256"
        },
        {
          "internalType": "address",
          "name": "user",
          "type": "address"
        }
      ],
      "name": "cancelByMe",
      "outputs": [],
      "stateMutability": "nonpayable",
      "type": "function"
    },
    {
      "inputs": [
        {
          "internalType": "address",
          "name": "_newAccesControl",
          "type": "address"
        }
      ],
      "name": "changeAccessControl",
      "outputs": [],
      "stateMutability": "nonpayable",
      "type": "function"
    },
    {
      "inputs": [
        {
          "internalType": "address",
          "name": "_newStateVar",
          "type": "address"
        }
      ],
      "name": "changeStateVarAddress",
      "outputs": [],
      "stateMutability": "nonpayable",
      "type": "function"
    },
    {
      "inputs": [
        {
          "internalType": "address payable",
          "name": "_NewsystemWallet",
          "type": "address"
        }
      ],
      "name": "changeSystemwallet",
      "outputs": [],
      "stateMutability": "nonpayable",
      "type": "function"
    },
    {
      "inputs": [
        {
          "internalType": "uint256",
          "name": "taskId",
          "type": "uint256"
        }
      ],
      "name": "closeRegistration",
      "outputs": [],
      "stateMutability": "nonpayable",
      "type": "function"
    },
    {
      "inputs": [
        {
          "internalType": "string",
          "name": "Title",
          "type": "string"
        },
        {
          "internalType": "string",
          "name": "GithubURL",
          "type": "string"
        },
        {
          "internalType": "uint32",
          "name": "DeadlineHours",
          "type": "uint32"
        },
        {
          "internalType": "uint8",
          "name": "MaximumRevision",
          "type": "uint8"
        },
        {
          "internalType": "address",
          "name": "user",
          "type": "address"
        }
      ],
      "name": "createTask",
      "outputs": [],
      "stateMutability": "payable",
      "type": "function"
    },
    {
      "inputs": [
        {
          "internalType": "uint256",
          "name": "taskId",
          "type": "uint256"
        },
        {
          "internalType": "address",
          "name": "user",
          "type": "address"
        }
      ],
      "name": "deleteTask",
      "outputs": [],
      "stateMutability": "nonpayable",
      "type": "function"
    },
    {
      "inputs": [],
      "name": "feeCollected",
      "outputs": [
        {
          "internalType": "uint256",
          "name": "",
          "type": "uint256"
        }
      ],
      "stateMutability": "view",
      "type": "function"
    },
    {
      "inputs": [
        {
          "internalType": "uint256",
          "name": "taskId",
          "type": "uint256"
        }
      ],
      "name": "getCreatorStake",
      "outputs": [
        {
          "internalType": "uint256",
          "name": "",
          "type": "uint256"
        }
      ],
      "stateMutability": "view",
      "type": "function"
    },
    {
      "inputs": [
        {
          "internalType": "uint256",
          "name": "taskId",
          "type": "uint256"
        }
      ],
      "name": "getMemberRequiredStake",
      "outputs": [
        {
          "internalType": "uint256",
          "name": "",
          "type": "uint256"
        }
      ],
      "stateMutability": "view",
      "type": "function"
    },
    {
      "inputs": [
        {
          "internalType": "address",
          "name": "_accessControl",
          "type": "address"
        },
        {
          "internalType": "address payable",
          "name": "_systemWallet",
          "type": "address"
        },
        {
          "internalType": "address",
          "name": "_stateVar",
          "type": "address"
        },
        {
          "internalType": "uint256",
          "name": "_initialmemberStakePercentReward",
          "type": "uint256"
        }
      ],
      "name": "initialize",
      "outputs": [],
      "stateMutability": "nonpayable",
      "type": "function"
    },
    {
      "inputs": [
        {
          "internalType": "address",
          "name": "user",
          "type": "address"
        }
      ],
      "name": "isRegistered",
      "outputs": [
        {
          "internalType": "bool",
          "name": "",
          "type": "bool"
        }
      ],
      "stateMutability": "view",
      "type": "function"
    },
    {
      "inputs": [
        {
          "internalType": "uint256",
          "name": "",
          "type": "uint256"
        },
        {
          "internalType": "uint256",
          "name": "",
          "type": "uint256"
        }
      ],
      "name": "joinRequests",
      "outputs": [
        {
          "internalType": "address",
          "name": "applicant",
          "type": "address"
        },
        {
          "internalType": "uint256",
          "name": "stakeAmount",
          "type": "uint256"
        },
        {
          "internalType": "enum TrustlessTeamProtocol.UserTask",
          "name": "status",
          "type": "uint8"
        },
        {
          "internalType": "bool",
          "name": "isPending",
          "type": "bool"
        },
        {
          "internalType": "bool",
          "name": "hasWithdrawn",
          "type": "bool"
        }
      ],
      "stateMutability": "view",
      "type": "function"
    },
    {
      "inputs": [],
      "name": "memberStakePercentReward",
      "outputs": [
        {
          "internalType": "uint256",
          "name": "",
          "type": "uint256"
        }
      ],
      "stateMutability": "view",
      "type": "function"
    },
    {
      "inputs": [
        {
          "internalType": "uint256",
          "name": "taskId",
          "type": "uint256"
        }
      ],
      "name": "openRegistration",
      "outputs": [],
      "stateMutability": "nonpayable",
      "type": "function"
    },
    {
      "inputs": [
        {
          "internalType": "address",
          "name": "caller",
          "type": "address"
        }
      ],
      "name": "pause",
      "outputs": [],
      "stateMutability": "nonpayable",
      "type": "function"
    },
    {
      "inputs": [],
      "name": "paused",
      "outputs": [
        {
          "internalType": "bool",
          "name": "",
          "type": "bool"
        }
      ],
      "stateMutability": "view",
      "type": "function"
    },
    {
      "inputs": [],
      "name": "proxiableUUID",
      "outputs": [
        {
          "internalType": "bytes32",
          "name": "",
          "type": "bytes32"
        }
      ],
      "stateMutability": "view",
      "type": "function"
    },
    {
      "inputs": [
        {
          "internalType": "uint256",
          "name": "taskId",
          "type": "uint256"
        },
        {
          "internalType": "string",
          "name": "Note",
          "type": "string"
        },
        {
          "internalType": "string",
          "name": "GithubFixedURL",
          "type": "string"
        },
        {
          "internalType": "address",
          "name": "user",
          "type": "address"
        }
      ],
      "name": "reSubmitTask",
      "outputs": [],
      "stateMutability": "nonpayable",
      "type": "function"
    },
    {
      "inputs": [
        {
          "internalType": "uint256",
          "name": "taskId",
          "type": "uint256"
        },
        {
          "internalType": "address",
          "name": "_applicant",
          "type": "address"
        }
      ],
      "name": "rejectJoinRequest",
      "outputs": [],
      "stateMutability": "nonpayable",
      "type": "function"
    },
    {
      "inputs": [
        {
          "internalType": "uint256",
          "name": "taskId",
          "type": "uint256"
        },
        {
          "internalType": "address",
          "name": "user",
          "type": "address"
        }
      ],
      "name": "requestJoinTask",
      "outputs": [],
      "stateMutability": "payable",
      "type": "function"
    },
    {
      "inputs": [
        {
          "internalType": "uint256",
          "name": "taskId",
          "type": "uint256"
        },
        {
          "internalType": "string",
          "name": "Note",
          "type": "string"
        },
        {
          "internalType": "uint256",
          "name": "additionalDeadlineHours",
          "type": "uint256"
        }
      ],
      "name": "requestRevision",
      "outputs": [],
      "stateMutability": "nonpayable",
      "type": "function"
    },
    {
      "inputs": [
        {
          "internalType": "uint256",
          "name": "taskId",
          "type": "uint256"
        },
        {
          "internalType": "string",
          "name": "PullRequestURL",
          "type": "string"
        },
        {
          "internalType": "string",
          "name": "Note",
          "type": "string"
        },
        {
          "internalType": "address",
          "name": "user",
          "type": "address"
        }
      ],
      "name": "requestSubmitTask",
      "outputs": [],
      "stateMutability": "nonpayable",
      "type": "function"
    },
    {
      "inputs": [
        {
          "internalType": "uint256",
          "name": "NewmemberStakePercentReward",
          "type": "uint256"
        }
      ],
      "name": "setMemberStakePercentageFromStake",
      "outputs": [],
      "stateMutability": "nonpayable",
      "type": "function"
    },
    {
      "inputs": [],
      "name": "stateVar",
      "outputs": [
        {
          "internalType": "contract stateVariable",
          "name": "",
          "type": "address"
        }
      ],
      "stateMutability": "view",
      "type": "function"
    },
    {
      "inputs": [],
      "name": "systemWallet",
      "outputs": [
        {
          "internalType": "address payable",
          "name": "",
          "type": "address"
        }
      ],
      "stateMutability": "view",
      "type": "function"
    },
    {
      "inputs": [],
      "name": "taskCounter",
      "outputs": [
        {
          "internalType": "uint256",
          "name": "",
          "type": "uint256"
        }
      ],
      "stateMutability": "view",
      "type": "function"
    },
    {
      "inputs": [
        {
          "internalType": "uint256",
          "name": "taskId",
          "type": "uint256"
        }
      ],
      "name": "triggerDeadline",
      "outputs": [],
      "stateMutability": "nonpayable",
      "type": "function"
    },
    {
      "inputs": [
        {
          "internalType": "address",
          "name": "caller",
          "type": "address"
        }
      ],
      "name": "unpause",
      "outputs": [],
      "stateMutability": "nonpayable",
      "type": "function"
    },
    {
      "inputs": [
        {
          "internalType": "address",
          "name": "newImplementation",
          "type": "address"
        },
        {
          "internalType": "bytes",
          "name": "data",
          "type": "bytes"
        }
      ],
      "name": "upgradeToAndCall",
      "outputs": [],
      "stateMutability": "payable",
      "type": "function"
    },
    {
      "inputs": [
        {
          "internalType": "address",
          "name": "user",
          "type": "address"
        }
      ],
      "name": "withdraw",
      "outputs": [],
      "stateMutability": "nonpayable",
      "type": "function"
    },
    {
      "inputs": [
        {
          "internalType": "uint256",
          "name": "taskId",
          "type": "uint256"
        },
        {
          "internalType": "address",
          "name": "user",
          "type": "address"
        }
      ],
      "name": "withdrawJoinRequest",
      "outputs": [],
      "stateMutability": "nonpayable",
      "type": "function"
    },
    {
      "inputs": [],
      "name": "withdrawToSystemWallet",
      "outputs": [],
      "stateMutability": "nonpayable",
      "type": "function"
    },
    {
      "inputs": [
        {
          "internalType": "address",
          "name": "",
          "type": "address"
        }
      ],
      "name": "withdrawable",
      "outputs": [
        {
          "internalType": "uint256",
          "name": "",
          "type": "uint256"
        }
      ],
      "stateMutability": "view",
      "type": "function"
    },
    {
      "stateMutability": "payable",
      "type": "receive"
    }
  ],
  "bytecode": "0x60a0806040523460295730608052615c5c908161002f8239608051818181612cb20152612f4f0152f35b600080fdfe60806040526004361015610013575b600080fd5b60003560e01c806302cb134e14613e7c5780630cc0df9314613c7357806313007d5514613c4a5780631a9a872314613a115780632737399014613985578063294c53741461390b5780633cc8e544146138b0578063437b5684146131535780634ee4de7d146131355780634f1ef28614612f015780634f51595f14612e5b57806351cff8d914612d0957806352d1902d14612c9f578063553659f514612c8157806357b001f914612b4f5780635867173014612b315780635c975abb14612b015780635e54a14014612a4c5780636ca7f95c14612a2e5780636d8ed6921461289357806375ae3a6e1461279157806376a67a5114612690578063793816ec146126675780638cab7be4146125985780639387730c146124b057806397f8a8d8146121a757806399b956a0146120ec5780639f8d5aa114611fdb578063a12d93f814611f5b578063aadd4b2a14611b55578063ad3cb1cc14611b0a578063ad7d3a7214611ae1578063ae204d96146119f0578063b26ecb37146115d2578063b8be2fea146114ce578063c0a5dded14611067578063c3c5a54714611025578063cca84a0c14610f5f578063ce513b6f14610f25578063cf756fdf14610d24578063e0d42e9614610c29578063f4b2a46e14610acf578063ff54068b14610a7f578063ff91221f146106015763ff9df4220361000e573461000e57608036600319011261000e576004356001600160401b03811161000e576102379036906004016140da565b90602435906001600160801b0382169283830361000e576044356001600160401b03811161000e5761026d9036906004016140da565b9490610277614083565b600054604051633f784de560e11b8152336004820152906001600160a01b0316602082602481845afa9081156105c8576102bf6020926004946000916105d4575b50156143b6565b604051638da5cb5b60e01b815292839182905afa80156105c8576102f791600091610599575b506001600160a01b031633141561440f565b61030233151561444d565b6001600160a01b0316600081815260026020526040902060048101805492979260ff166105885760038201906001600160801b031982541682556000600184015560006002840155600160ff1982541617905560058201926001600160401b0387116104fe5761037c876103768654614198565b86614527565b60009387601f811160011461051f57806103af91600697600091610514575b508160011b916000199060031b1c19161790565b90555b81546001600160801b031660809190911b6001600160801b03191617905501906001600160401b0387116104fe576103f4876103ee8454614198565b84614527565b600090601f8811600114610478579680610448927f1bfdcd45dd860c112f48920703980e72901feca6fa0fa8a5ff1258f0fe606795989960009261046d575b50508160011b916000199060031b1c19161790565b90555b610462604051938493604085526040850191614e05565b9060208301520390a2005b013590503880610433565b8282526020822091601f198916815b8181106104e6575091600193918a7f1bfdcd45dd860c112f48920703980e72901feca6fa0fa8a5ff1258f0fe6067959a9b94106104cc575b505050811b01905561044b565b0135600019600384901b60f8161c191690553880806104bf565b91936020600181928787013581550195019201610487565b634e487b7160e01b600052604160045260246000fd5b90508b01353861039b565b50808552602085208589601f1981165b8c818a1061056b57506006985010610551575b5050600188811b0190556103b2565b8a013560001960038b901b60f8161c191690553880610542565b8301358455602098890198600190940193909201918b915061052f565b630f018e4960e21b60005260046000fd5b6105bb915060203d6020116105c1575b6105b38183614107565b8101906143f0565b386102e5565b503d6105a9565b6040513d6000823e3d90fd5b6105f49150843d86116105fa575b6105ec8183614107565b81019061439e565b386102b8565b503d6105e2565b3461000e57602036600319011261000e5760043580600052600560205260ff600b6040600020015460201c1615610a6e5761063a615042565b610642615006565b806000526005602052604060002081600052600360205260ff600360406000200154166004811015610a4757600114610a5d576001810180549160ff83166007811015610a4757600403610a365760078101548015610a25574210610a14576002810180549093600b92916001600160a01b0316151580610a07575b156109bd5750610744610739600a8301546064610708816106ef6001600160401b036106e8615954565b1685614331565b04926001600160401b0361070161598c565b1690614331565b049060018060a01b03885416600052600460205261072c6040600020918254614351565b9055600984015490614351565b600583015490614351565b60018060a01b03845460101c1660005260046020526107696040600020918254614351565b905501805462ffff00191690555b81546001600160a01b031660008181526002602052604090206004015460ff16610913575b50805460101c6001600160a01b031660008181526002602052604090206004015460ff16610866575b50600660ff1982541617815560018060a01b03905460101c16600052600260205260026040600020016107f88154614a95565b9055546001600160a01b031680610844575b507f69c3ad79d0e13d549ed2cf8009be68e25ffa6a38699d0e1983d13a7e3a77e1c6600080a26001600080516020615be783398151915255005b6000526002602052600260406000200161085e8154614a95565b90558161080a565b8060005260026020526001600160801b036003604060002001541663ffffffff61088e615a56565b1611156108ca5750805460101c6001600160a01b0316600090815260026020526040902060030180546001600160801b03191690555b836107c5565b63ffffffff6108d7615a56565b169060005260026020526001600160801b036108fe6003604060002001928284541661456c565b166001600160801b03198254161790556108c4565b8060005260026020526001600160801b036003604060002001541663ffffffff61093b615a05565b161115610974575081546001600160a01b0316600090815260026020526040902060030180546001600160801b03191690555b8361079c565b63ffffffff610981615a05565b169060005260026020526001600160801b036109a86003604060002001928284541661456c565b166001600160801b031982541617905561096e565b6109d06009830154600584015490614351565b9060018060a01b039060101c1660005260046020526109f56040600020918254614351565b905501805462ffff0019169055610777565b50600a82015415156106be565b6370affcf560e11b60005260046000fd5b631da7447960e21b60005260046000fd5b63fe89421760e01b60005260046000fd5b634e487b7160e01b600052602160045260246000fd5b63eff3ce5d60e01b60005260046000fd5b63da319dff60e01b60005260046000fd5b3461000e57608036600319011261000e5760043563ffffffff8116810361000e576024359060ff8216820361000e57602091610ac791610abd614083565b9160443591614e26565b604051908152f35b3461000e57602036600319011261000e5760043560005260056020526040600020805490600181015460ff811660ff8260081c169260018060a01b0360028201541690610b1e600382016141d2565b91610b2b600483016141d2565b60058301549563ffffffff600685015416600785015491600886015493600987015495600b600a890154980154986040519d8e5260078b1015610a475761024060a08f9e8f9094610bc29760ff9f96610bb4976020850152610b8c81614327565b604084015260101c6000196001851b01166060830152608082015201526102408d0190614099565b908b820360c08d0152614099565b9760e08a01526101008901526101208801526101408701526101608601526101808501528181166101a0850152818160081c1615156101c0850152818160101c1615156101e0850152818160181c16151561020085015260201c1615156102208301520390f35b3461000e57602036600319011261000e576004356024602060018060a01b036000541660405192838092633f784de560e11b82523360048301525afa80156105c857610c7d91600091610d05575b50614dca565b610c85615042565b80158015610cfb575b610cea57806009556000600080516020615b87833981519152608060405160208152602160208201527f7365744d656d6265725374616b6550657263656e7461676546726f6d5374616b6040820152606560f81b6060820152a3005b630b417afb60e11b60005260046000fd5b5060648111610c8e565b610d1e915060203d6020116105fa576105ec8183614107565b83610c77565b3461000e57608036600319011261000e57610d3d614057565b610d4561406d565b90604435906001600160a01b0382169081830361000e57600080516020615c078339815191525460ff8160401c1615946001600160401b03821680159081610f1d575b6001149081610f13575b159081610f0a575b50610ef95767ffffffffffffffff198216600117600080516020615c0783398151915255610dea9186610ecc575b506001600160a01b031693610ddc856158ef565b610de5836158ef565b6158ef565b610df2615ab1565b610dfa615ab1565b610e02615ab1565b6001600080516020615be783398151915255610e1c615ab1565b60018060a01b03166001600160601b0360a01b60005416176000556001600160601b0360a01b60015416176001556001600160601b0360a01b600a541617600a5560006007556000600855606435600955610e7357005b68ff000000000000000019600080516020615c078339815191525416600080516020615c07833981519152557fc7f505b2f371ae2175ee4913f4499e1f2633a7b5936321eed1cdaeb6115181d2602060405160018152a1005b68ffffffffffffffffff19166801000000000000000117600080516020615c078339815191525586610dc8565b63f92ee8a960e01b60005260046000fd5b90501587610d9a565b303b159150610d92565b879150610d88565b3461000e57602036600319011261000e576001600160a01b03610f46614057565b1660005260046020526020604060002054604051908152f35b3461000e57602036600319011261000e5760043580600052600560205260ff600b6040600020015460201c1615610a6e5760008181526005602052604090206001015460101c6001600160a01b0316330361101457610fbc615042565b806000526005602052600160406000200160ff8154166007811015610a4757600203610a3657805460ff191660031790557fe0a3eabfba8d6b242de244fdd6f0372ee66d472686b2cfd89420ef24c0462201600080a2005b63eabf778760e01b60005260046000fd5b3461000e57602036600319011261000e576001600160a01b03611046614057565b166000526002602052602060ff600460406000200154166040519015158152f35b3461000e5761107536614276565b94939184600094929452600560205260ff600b6040600020015460201c1615610a6e576000858152600560205260409020600201546001600160a01b03163303611481576110c1615042565b600054604051633f784de560e11b8152336004820152906001600160a01b0316602082602481845afa9081156105c8576111086020926004946000916114b15750156143b6565b604051638da5cb5b60e01b815292839182905afa80156105c85761113f9160009161149257506001600160a01b031633141561440f565b846000526005602052604060002060ff6001820154166007811015610a4757600403610a365760028101546001600160a01b03978816971687900361148157600086815260036020526040902060018101546001600160a01b031615159081611466575b506114555760070154936040519160c08301908382106001600160401b038311176104fe576111eb916040526111da368688614143565b845260208401928984523691614143565b946040830195865260608301956001875260808401926000845260a08501928352886000526003602052604060002094518051906001600160401b0382116104fe576112418261123b8954614198565b89614527565b602090601f83116001146113ee576112719291600091836113e35750508160011b916000199060031b1c19161790565b85555b516001850180546001600160a01b0319166001600160a01b039290921691909117905551805160028501916001600160401b0382116104fe576112c1826112bb8554614198565b85614527565b602090601f831160011461137c576112f19291600091836113715750508160011b916000199060031b1c19161790565b90555b600383019551916004831015610a47577f9989978868daa22b7a8a054a31e686ab83a420750a2a60b58facca87bf7c12199660ff611351926004958280198554169116178355511661ff0082549160081b169061ff001916179055565b5191015561136c604051928392602084526020840191614e05565b0390a3005b015190508c80610433565b90601f1983169184600052816000209260005b8181106113cb57509084600195949392106113b2575b505050811b0190556112f4565b015160001960f88460031b161c191690558b80806113a5565b9293602060018192878601518155019501930161138f565b015190508d80610433565b90601f1983169188600052816000209260005b81811061143d5750908460019594939210611424575b505050811b018555611274565b015160001960f88460031b161c191690558c8080611417565b92936020600181928786015181550195019301611401565b63710b41a360e01b60005260046000fd5b60ff915060030154166004811015610a4757600114886111a3565b631e50374d60e01b60005260046000fd5b6114ab915060203d6020116105c1576105b38183614107565b886102e5565b6114c89150843d86116105fa576105ec8183614107565b8b6102b8565b3461000e57600036600319011261000e57600054604051633f784de560e11b815233600482015290602090829060249082906001600160a01b03165afa80156105c857611522916000916115b35750614dca565b61152a615006565b611532615042565b600854600060085561155e60008080808560018060a01b03600a54165af1611558614ae4565b50614b14565b6000600080516020615b8783398151915260606040516020815260166020820152751dda5d1a191c985dd51bd4de5cdd195b55d85b1b195d60521b6040820152a36001600080516020615be783398151915255005b6115cc915060203d6020116105fa576105ec8183614107565b82610c77565b3461000e57604036600319011261000e576004356115ee61406d565b9080600052600560205260ff600b6040600020015460201c1615610a6e57611614615006565b600054604051633f784de560e11b8152336004820152906001600160a01b0316602082602481845afa9081156105c85761165b6020926004946000916119d35750156143b6565b604051638da5cb5b60e01b815292839182905afa80156105c857611692916000916119b457506001600160a01b031633141561440f565b61169a615042565b60008181526005602052604090206001810180546001600160a01b0394851694919291601082901c168514158061199d575b61198c5760ff166007811015610a4757600403610a36576002810180546001600160a01b031691908583036118cb57600b9250600a82015490611754606461173a816117286001600160401b03611721615954565b1687614331565b04946001600160401b0361070161598c565b049261174f6009860154600587015490614351565b614351565b60018060a01b03865460101c1660005260046020526117796040600020918254614351565b9055546001600160a01b03166000908152600460205260409020805490916117a091614351565b905501805462ffff00191690555b600660ff1982541617905581600052600260205260ff60046040600020015416611829575b81600052600260205260026040600020016117ee8154614a95565b90557f19f7047fbece8b5fc78b72bcce829a232f26b08806e65852e2e4afb96572b365600080a36001600080516020615be783398151915255005b8160005260026020526001600160801b03600360406000200154166001600160401b036118546159b1565b16111561187f5781600052600260205260036040600020016001600160801b031981541690556117d3565b6001600160401b0361188f6159b1565b168260005260026020526001600160801b036118b66003604060002001928284541661456c565b166001600160801b03198254161790556117d3565b50811561197b576009810154600b9261192961191e6064611912816119006001600160401b036118f9615954565b1688614331565b04956001600160401b0361070161598c565b04600586015490614351565b92600a850154614351565b9060005260046020526119426040600020918254614351565b905560018060a01b03845460101c1660005260046020526119696040600020918254614351565b905501805462ffff00191690556117ae565b6316f1484160e01b60005260046000fd5b6389f5ad6160e01b60005260046000fd5b5060028201546001600160a01b03168514156116cc565b6119cd915060203d6020116105c1576105b38183614107565b846102e5565b6119ea9150843d86116105fa576105ec8183614107565b876102b8565b3461000e57602036600319011261000e576004611a0b614057565b600054604051638da5cb5b60e01b81529260209184919082906001600160a01b03165afa9182156105c857600092611a55918491611ac2575b506001600160a01b03163314614b52565b611a5d615042565b611a66816158ef565b60018060a01b0316806001600160601b0360a01b6001541617600155600080516020615b8783398151915260606040516020815260156020820152746368616e676553746174655661724164647265737360581b6040820152a3005b611adb915060203d6020116105c1576105b38183614107565b84611a44565b3461000e57600036600319011261000e57600a546040516001600160a01b039091168152602090f35b3461000e57600036600319011261000e57611b516040805190611b2d8183614107565b60058252640352e302e360dc1b602083015251918291602083526020830190614099565b0390f35b3461000e57611b63366142df565b81600052600560205260ff600b6040600020015460201c1615610a6e5760008281526005602052604090206001015460101c6001600160a01b0316330361101457611bac615006565b611bb4615042565b816000526005602052604060002090600052600360205260406000206001820160ff8154166007811015610a4757600403610a3657600382019260ff8454166004811015610a4757600103611f4a57600b810191600160ff845460181c16151514611f39576001840180549093906001600160a01b031615611f2857611c436005840154600a85015490614351565b926002600982015491019360018060a01b038554166000526004602052611c706040600020918254614351565b905560018060a01b03835460101c166000526004602052611c976040600020918254614351565b9055805463ffffff0019166301000000179055805460ff1916600517815581546001600160a01b031660008181526002602052604090206004015460ff16611e8f575b50805460101c6001600160a01b031660008181526002602052604090206004015460ff16611ddf575b5091600094916004949360018060a01b03905460101c168652600260205260016040872001611d328154614a95565b9055546001600160a01b031685526002602052604085206001018054611d5790614a95565b9055611d6c611d668454614198565b846144ff565b8483556001600160601b0360a01b81541690558360028301611d97611d918254614198565b826144ff565b55805461ffff1916600317905501557f3e9d27a1c2a828db29e4b2a17fbd1bc70201ef21aec4f74b9fa051b02e38e3f0600080a26001600080516020615be783398151915255005b94916004949391602060018060a01b03600154166040519788809263b30e0be360e01b82525afa80156105c8576000976004978992611e5e575b50885260026020526001600160801b03611e4363ffffffff600360408c2001931682845416615113565b166001600160801b0319825416179055919394509194611d03565b611e8191925060203d602011611e88575b611e798183614107565b8101906159e9565b908a611e19565b503d611e6f565b60015460405163c7d3f62f60e01b81529190602090839060049082906001600160a01b03165afa9182156105c857600092611f07575b5060005260026020526001600160801b03611ef163ffffffff6003604060002001931682845416615113565b166001600160801b031982541617905586611cda565b611f2191925060203d602011611e8857611e798183614107565b9088611ec5565b631534b94560e21b60005260046000fd5b637dbbaaa960e01b60005260046000fd5b632901198f60e01b60005260046000fd5b3461000e57611f69366142df565b9060005260066020526040600020805482101561000e5760a091611f8c916142f5565b5060ff600180841b03825416916002600182015491015490828216906040519485526020850152611fbc81614327565b6040840152818160081c161515606084015260101c1615156080820152f35b3461000e57604036600319011261000e57600435611ff761406d565b611fff615006565b33600052600260205260ff60046040600020015416156120db57816020917fd078b251d950cc55c44340be1db732337ef4939a76e1367ee271ad2cb19c46af93600052600583526009604060002060018101600660ff19825416179055600b810164ff00ff000019815416905560058101549260018060a01b03169283600052600486526120936040600020918254614351565b9055015490816120bb575b5050604051908152a16001600080516020615be783398151915255005b600052600483526120d26040600020918254614351565b9055838061209e565b63aba4733960e01b60005260046000fd5b3461000e57602036600319011261000e576001600160a01b0361210d614057565b16600052600260205260406000208054611b51600183015492612199600282015491600381015460ff60048301541690612155600661214e600586016141d2565b94016141d2565b946040519889988952602089015260408801526001600160801b038116606088015260801c6080870152151560a086015261010060c0860152610100850190614099565b9083820360e0850152614099565b604036600319011261000e576004356121be61406d565b9080600052600560205260ff600b6040600020015460201c1615610a6e576121e4615042565b33600052600260205260ff60046040600020015416156120db57600054604051633f784de560e11b8152336004820152906001600160a01b0316602082602481845afa9081156105c8576122456020926004946000916119d35750156143b6565b604051638da5cb5b60e01b815292839182905afa80156105c85761227c916000916119b457506001600160a01b031633141561440f565b61228733151561444d565b60008181526005602090815260408083206006909252822080546001600160a01b039095169491925b82811061245b575050506001015460ff81166007811015610a4757600303610a365760101c6001600160a01b03168214610a36576122ed81614aa4565b806122f661506c565b1061244a5734036124395780600052600660205260406000206040519060a082018281106001600160401b038211176104fe57604052838252602082019034825260408301916001835260608401600181526080850192600084528054680100000000000000008110156104fe57612373916001820181556142f5565b959095612423575185546001600160a01b0319166001600160a01b03919091161785559051600185015591516123f793600201926123de916123b481614327565b6123bd81614327565b8454915161ffff1990921660ff919091161790151560081b61ff0016178355565b51815462ff0000191690151560101b62ff000016179055565b7f716834564cb7c8e3d64d2045110836bf24ec2665f21cca881de739333c6d62d76020604051348152a3005b634e487b7160e01b600052600060045260246000fd5b6378de4a6960e11b60005260046000fd5b63c9e0390760e01b60005260046000fd5b8561246682846142f5565b50546001600160a01b03161480612495575b612484576001016122b0565b6353efb1e560e01b60005260046000fd5b5060ff60026124a483856142f5565b50015460081c16612478565b3461000e57602036600319011261000e576124c9614057565b600054604051638da5cb5b60e01b8152916020836004816001600160a01b0386165afa9283156105c85760009361251191859161257957506001600160a01b03163314614b52565b612519615042565b612522816158ef565b60018060a01b031680916001600160601b0360a01b16178255600080516020615b87833981519152606060405160208152601360208201527218da185b99d95058d8d95cdcd0dbdb9d1c9bdb606a1b6040820152a3005b612592915060203d6020116105c1576105b38183614107565b85611a44565b3461000e57602036600319011261000e5760046125b3614057565b600054604051638da5cb5b60e01b81529260209184919082906001600160a01b03165afa9182156105c8576000926125fc918491611ac257506001600160a01b03163314614b52565b612604615042565b6001600160a01b0316612616816158ef565b806001600160601b0360a01b600a541617600a55600080516020615b87833981519152606060405160208152601260208201527118da185b99d954de5cdd195b5dd85b1b195d60721b6040820152a3005b3461000e57600036600319011261000e576001546040516001600160a01b039091168152602090f35b3461000e57602036600319011261000e5760046126ab614057565b600054604051638da5cb5b60e01b81529260209184919082906001600160a01b03165afa9182156105c8576000926126f4918491611ac257506001600160a01b03163314614b52565b6126fc615042565b600160ff19600080516020615bc7833981519152541617600080516020615bc7833981519152557f62e78cea01bee320cd4e420270b5ea74000d11b0c9f74754ebdbfc544b05a2586020604051338152a1600080516020615b8783398151915260606040519260208452600f60208501526e18dbdb9d1c9858dd081c185d5cd959608a1b604085015260018060a01b031692a3005b3461000e5761279f36614276565b9385600094929452600560205260ff600b6040600020015460201c1615610a6e576000868152600560205260409020600201546001600160a01b03163303611481576127e9615042565b600054604051633f784de560e11b815233600482015296906001600160a01b0316602088602481845afa9081156105c85761283160209260049a6000916114b15750156143b6565b604051638da5cb5b60e01b815298899182905afa9687156105c8576128729761286d9160009161287457506001600160a01b031633141561440f565b614b8a565b005b61288d915060203d6020116105c1576105b38183614107565b896102e5565b3461000e57604036600319011261000e576004356128af61406d565b81600052600560205260ff600b6040600020015460201c1615610a6e5760008281526005602052604090206001015460101c6001600160a01b0316330361101457906128f9615006565b612901615042565b60008181526006602052604081206001600160a01b0390931692909190825b8154811015612a22578461293482846142f5565b50546001600160a01b03161480612a07575b61295257600101612920565b819293508060026129676129989382956142f5565b5001805461ff0019169055600161297e82866142f5565b500154936000600161299084846142f5565b5001556142f5565b50016201000062ff0000198254161790558260005260046020526129c26040600020918254614351565b90556129ce600161435e565b7f659db9764efb778e1b0294e020cbc7f55b198481945e7dd60910f555b27399dc600080a36001600080516020615be783398151915255005b5060ff6002612a1683856142f5565b50015460081c16612946565b5050906129ce9061435e565b3461000e57600036600319011261000e576020600854604051908152f35b3461000e57602036600319011261000e5760043580600052600560205260ff600b6040600020015460201c1615610a6e5760008181526005602052604090206001015460101c6001600160a01b0316330361101457612aa9615042565b806000526005602052600160406000200160ff8154166007811015610a4757600303610a3657805460ff191660021790557f383b6ce38b867405b4f42fa404692e07842868068badd063c9bfeb0e7f263f62600080a2005b3461000e57600036600319011261000e57602060ff600080516020615bc783398151915254166040519015158152f35b3461000e57600036600319011261000e576020600754604051908152f35b3461000e57602036600319011261000e57612b68614057565b600054604051638da5cb5b60e01b815290602090829060049082906001600160a01b03165afa80156105c857612bb091600091612c6257506001600160a01b03163314614b52565b600080516020615bc7833981519152549060ff821615612c515760009160ff1916600080516020615bc7833981519152557f5db9ee0a495bf2e6ff9c91a7834c1ba4fdd244a5e8aa4e537bd38aeae4b073aa6020604051338152a1600080516020615b8783398151915260606040519260208452601160208501527018dbdb9d1c9858dd08155b9c185d5cd959607a1b604085015260018060a01b031692a3005b638dfc202b60e01b60005260046000fd5b612c7b915060203d6020116105c1576105b38183614107565b83611a44565b3461000e57600036600319011261000e576020600954604051908152f35b3461000e57600036600319011261000e577f00000000000000000000000000000000000000000000000000000000000000006001600160a01b03163003612cf8576020604051600080516020615ba78339815191528152f35b63703e46dd60e11b60005260046000fd5b3461000e57602036600319011261000e57612d22614057565b612d2a615006565b600054604051633f784de560e11b8152336004820152906001600160a01b0316602082602481845afa9081156105c857612d71602092600494600091612e3e5750156143b6565b604051638da5cb5b60e01b815292839182905afa80156105c857612da891600091612e1f57506001600160a01b031633141561440f565b612db0615042565b6001600160a01b0316600081815260046020908152604082208054908390557f7fcf532c15f0a6db0bd6d0e038bea71d30d808c7d98cb3bf7268a95bf5081b6592612e049080808085895af1611558614ae4565b604051908152a26001600080516020615be783398151915255005b612e38915060203d6020116105c1576105b38183614107565b836102e5565b612e559150843d86116105fa576105ec8183614107565b866102b8565b3461000e57602036600319011261000e5760043560005260036020526040600020612e85816141d2565b9060018060a01b0360018201541690612ea0600282016141d2565b612edb600383015493600460ff861694015492612ec86040519760c0895260c0890190614099565b9160208801528682036040880152614099565b916004811015610a4757849360ff91606086015260081c16608084015260a08301520390f35b604036600319011261000e57612f15614057565b6024356001600160401b03811161000e573660238201121561000e57612f45903690602481600401359101614143565b6001600160a01b037f000000000000000000000000000000000000000000000000000000000000000016308114908115613112575b50612cf857600054604051638da5cb5b60e01b815290602090829060049082906001600160a01b03165afa80156105c857612fc791600091611ac257506001600160a01b03163314614b52565b612fcf615042565b6040516352d1902d60e01b81526001600160a01b0383169290602081600481875afa600091816130de575b506130145783634c9c8ce360e01b60005260045260246000fd5b80600080516020615ba78339815191528592036130ca5750813b156130b657600080516020615ba783398151915280546001600160a01b031916821790557fbc7cd75a20ee27fd9adebab32041f755214dbc6bffa90cc0225b39da2e5c2d3b600080a281511561309c5760008083602061287295519101845af4613096614ae4565b91615b25565b5050346130a557005b63b398979f60e01b60005260046000fd5b634c9c8ce360e01b60005260045260246000fd5b632a87526960e21b60005260045260246000fd5b9091506020813d60201161310a575b816130fa60209383614107565b8101031261000e57519085612ffa565b3d91506130ed565b600080516020615ba7833981519152546001600160a01b03161415905083612f7a565b3461000e57602036600319011261000e576020610ac7600435614aa4565b60a036600319011261000e576004356001600160401b03811161000e5761317e90369060040161417a565b6024356001600160401b03811161000e5761319d90369060040161417a565b6044359063ffffffff82169283830361000e576064359160ff831680840361000e57608435946001600160a01b038616860361000e576131db615042565b33600052600260205260ff60046040600020015416156120db576131fd615006565b600054604051633f784de560e11b8152336004820152906001600160a01b0316602082602481845afa9081156105c8576132446020926004946000916138935750156143b6565b604051638da5cb5b60e01b815292839182905afa80156105c85761327b9160009161287457506001600160a01b031633141561440f565b61328633151561444d565b613291600754614a95565b948560075584511561388257876001600160401b036132ae6150c3565b1611610a255760015460405163443b204160e11b81526001600160a01b0390911690602081600481855afa9081156105c85785916001600160401b0391600091613853575b5016106138435734159081156137de575b506137cd5761331691879134916154b1565b956040519261024084018481106001600160401b038211176104fe5760405285845260208401976001895261334a81614327565b604085015260018060a01b0387166060850152600060808501528460a085015260c08401523460e0840152610100830152600061012083015242610140830152600061016083015260006101808301526101a082015260006101c082015260006101e0820152600061020082015260016102208201528260005260056020526040600020948151865551946007861015610a475760009560ff80196001840154169116176001820155604082015161340181614327565b61340a81614327565b6001820180546060850151610100600160b01b031990911660089390931b61ff00169290921760109290921b62010000600160b01b031691909117905560808201516002820180546001600160a01b0319166001600160a01b039290921691909117905560a08201518051906001600160401b0382116137455761349e826134956003860154614198565b60038601614527565b602090601f8311600114613764576134cd92918991836137595750508160011b916000199060031b1c19161790565b60038201555b60c08201518051906001600160401b03821161374557613503826134fa6004860154614198565b60048601614527565b60209088601f84116001146136ac57936135608461367b979561022095600b957f9dda774dc9cd26aa151d38f0382b90219cad43a5beafe7761bf9ace382799cb39b99926113e35750508160011b916000199060031b1c19161790565b60048201555b60e084015160058201556006810163ffffffff6101008601511663ffffffff19825416179055610120840151600782015561014084015160088201556101608401516009820155610180840151600a820155019160ff6101a08201511660ff198454161783556135f06101c08201511515849061ff00825491151560081b169061ff001916179055565b6101e0810151835462ff0000191690151560101b62ff0000161783556102008101518354929091015164ffff0000001990921690151560181b63ff0000001617901515602090811b64ff0000000016919091179091556001600160a01b03861687526002905260408620805461366590614a95565b9055604051918291606083526060830190614099565b346020830152604082018790526001600160a01b03909516940390a36001600080516020615be78339815191525580f35b509060048401895280892091895b601f198516811061372d57509360018461022094600b947f9dda774dc9cd26aa151d38f0382b90219cad43a5beafe7761bf9ace382799cb39a9861367b9a98601f19811610613714575b505050811b016004820155613566565b015160001960f88460031b161c191690558c8080613704565b919260206001819286850151815501940192016136ba565b634e487b7160e01b88526041600452602488fd5b015190508980610433565b6003840189528189209190601f1984168a5b8181106137b5575090846001959493921061379c575b505050811b0160038201556134d3565b015160001960f88460031b161c1916905588808061378c565b92936020600181928786015181550195019301613776565b633853986560e01b60005260046000fd5b6040516321534f1560e11b81529150602090829060049082905afa9081156105c857600091613811575b50341189613304565b90506020813d60201161383b575b8161382c60209383614107565b8101031261000e575189613808565b3d915061381f565b6255af5f60e91b60005260046000fd5b613875915060203d60201161387b575b61386d8183614107565b8101906150a4565b8c6132f3565b503d613863565b6306232dbd60e31b60005260046000fd5b6138aa9150843d86116105fa576105ec8183614107565b8c6102b8565b3461000e57604036600319011261000e576138c961406d565b6138d1615006565b33600052600260205260ff60046040600020015416156120db576138f79060043561493b565b6001600080516020615be783398151915255005b3461000e57602036600319011261000e5760043580600052600560205260ff600b6040600020015460201c1615610a6e57613944615042565b60005260056020526020610ac7604060002063ffffffff6006820154169060ff600b820154166005820154916001808060a01b0391015460101c1692614e26565b3461000e57606036600319011261000e576004356024356001600160401b03811161000e576139b89036906004016140da565b82600093929352600560205260ff600b6040600020015460201c1615610a6e5760008281526005602052604090206001015460101c6001600160a01b031633036110145761287292613a08615042565b6044359261458c565b3461000e57602036600319011261000e57613a2a614057565b33600052600260205260ff60046040600020015416156120db57600054604051633f784de560e11b8152336004820152906001600160a01b0316602082602481845afa9081156105c857613a8b602092600494600091612e3e5750156143b6565b604051638da5cb5b60e01b815292839182905afa80156105c857613ac291600091612e1f57506001600160a01b031633141561440f565b613acd33151561444d565b6001600160a01b0316600081815260026020526040908190209051906101008201906001600160401b038211838310176104fe5783926001600160801b03613baf927f9e5018ee7d6d2d38c3282ec3d1bfeadd0d8129dce80e06a127569ad99565fc7f946040528054835260018101546020840152600281015460408401526003810154928284166060820152608081019360801c845260ff600483015416151560a082015260e0613b946006613b86600586016141d2565b9460c08501958652016141d2565b91015251915116604051928392604084526040840190614099565b9060208301520390a26000526002602052613bfc600660406000206000815560006001820155600060028201556000600382015560006004820155613bf6600582016144b0565b016144b0565b611b516040805190613c0e8183614107565b601782527f556e7265676973746572205375636365737366756c6c79000000000000000000602083015251918291602083526020830190614099565b3461000e57600036600319011261000e576000546040516001600160a01b039091168152602090f35b3461000e57602036600319011261000e5760043580600052600560205260ff600b6040600020015460201c1615610a6e5760008181526005602052604090206001015460101c6001600160a01b0316330361101457613cd0615006565b613cd8615042565b8060005260066020526040600020816000526005602052604060002060009160005b8154811015613e705760ff6002613d1183856142f5565b50015460081c16613d2457600101613cfa565b60029293508183613d3883613da9956142f5565b5001805461ff001916905583613d4e83836142f5565b5001805460ff191685179055613d6482826142f5565b505485850180546001600160a01b0319166001600160a01b03929092169190911790556001613d9383836142f5565b500154600a8601556000600161299084846142f5565b5001805462ff0000191662010000179055600b8101805461ff001916610100179055613dd5600161435e565b63ffffffff600682015416610e10810290808204610e101490151715613e5a57613dff9042614351565b600782015560018101805460ff19166004179055600201546001600160a01b0316907fa15a372eebffa78fac354b5e2229bc1a3bad4e94c881acfb6f86d381c50ba794600080a36001600080516020615be783398151915255005b634e487b7160e01b600052601160045260246000fd5b505090613dd59061435e565b602036600319011261000e5760043580600052600560205260ff600b6040600020015460201c1615610a6e5760008181526005602052604090206001015460101c6001600160a01b0316330361101457613ed4615006565b613edc615042565b80600052600560205260406000206001810190815460ff81166007811015610a4757600103610a365734158015614047575b61403657613f4263ffffffff600684015416600b84019260ff84541660058601549160018060a01b039060101c1692614e26565b34036140255760015460405162d1e93b60e31b81529390602090859060049082906001600160a01b03165afa9384156105c857613f976001600160401b03613fca96606493600091614006575b501634614331565b04926009613fa58534614344565b910155805460ff19166002179055805462ff0000191662010000179055600854614351565b6008557f96de4d43d5265ced55b252018f405ed224e0ed3f7c992a8d0115626700feda3e600080a26001600080516020615be783398151915255005b61401f915060203d60201161387b5761386d8183614107565b89613f8f565b634581e82760e01b60005260046000fd5b630103be3b60e21b60005260046000fd5b5061405061506c565b3411613f0e565b600435906001600160a01b038216820361000e57565b602435906001600160a01b038216820361000e57565b606435906001600160a01b038216820361000e57565b919082519283825260005b8481106140c5575050826000602080949584010152601f8019910116010190565b806020809284010151828286010152016140a4565b9181601f8401121561000e578235916001600160401b03831161000e576020838186019501011161000e57565b90601f801991011681019081106001600160401b038211176104fe57604052565b6001600160401b0381116104fe57601f01601f191660200190565b92919261414f82614128565b9161415d6040519384614107565b82948184528183011161000e578281602093846000960137010152565b9080601f8301121561000e5781602061419593359101614143565b90565b90600182811c921680156141c8575b60208310146141b257565b634e487b7160e01b600052602260045260246000fd5b91607f16916141a7565b90604051918260008254926141e684614198565b8084529360018116908115614254575060011461420d575b5061420b92500383614107565b565b90506000929192526020600020906000915b81831061423857505090602061420b92820101386141fe565b602091935080600191548385890101520191019091849261421f565b90506020925061420b94915060ff191682840152151560051b820101386141fe565b90608060031983011261000e57600435916024356001600160401b03811161000e57816142a5916004016140da565b92909291604435906001600160401b03821161000e576142c7916004016140da565b90916064356001600160a01b038116810361000e5790565b604090600319011261000e576004359060243590565b8054821015614311576000526003602060002091020190600090565b634e487b7160e01b600052603260045260246000fd5b60061115610a4757565b81810292918115918404141715613e5a57565b91908203918211613e5a57565b91908201809211613e5a57565b1561436557565b60405162461bcd60e51b81526020600482015260116024820152701c995c5d595cdd081b9bdd08199bdd5b99607a1b6044820152606490fd5b9081602091031261000e5751801515810361000e5790565b156143bd57565b60405162461bcd60e51b815260206004820152600b60248201526a497320656d706c6f79656560a81b6044820152606490fd5b9081602091031261000e57516001600160a01b038116810361000e5790565b1561441657565b60405162461bcd60e51b815260206004820152600f60248201526e21b0b63632b91034b99037bbb732b960891b6044820152606490fd5b1561445457565b60405162461bcd60e51b815260206004820152601d60248201527f63616c6c65722069732063616e74206265207a65726f206164647220210000006044820152606490fd5b8181106144a4575050565b60008155600101614499565b6144ba8154614198565b90816144c4575050565b81601f600093116001146144d6575055565b818352602083206144f291601f0160051c810190600101614499565b8082528160208120915555565b90601f811161450c575050565b61420b91600052601f6020600020910160051c810190614499565b9190601f811161453657505050565b61420b926000526020600020906020601f840160051c83019310614562575b601f0160051c0190614499565b9091508190614555565b906001600160801b03809116911603906001600160801b038211613e5a57565b92836000526005602052604060002090846000526003602052604060002092600283019460018060a01b038654161561197b57826001600160401b036145d06150c3565b1610610a2557600385019460ff8654166004811015610a4757600103610a3657610e10840293808504610e101490151715613e5a57855460ff19166002908117875501916001600160401b0382116104fe57614630826112bb8554614198565b600090601f83116001146148d75761466092916000918361046d5750508160011b916000199060031b1c19161790565b90555b60ff835460081c169060ff8214613e5a57614695600161469b9301859061ff0082549160081b169061ff001916179055565b42614351565b9260078201938455825460ff600b8401541660ff8260081c16116148a4575060409260017f33edbe073d61cf304f0e11256ba07aefb7e60a754d1e12a0f07e5b29cb3d7321959360ff93828060a01b03815416806000526002602052856004896000200154166147f7575b505001805460101c6001600160a01b031660008181526002602052869020600401548416614745575b50505460081c16905482519182526020820152a2565b8060005260026020526001600160801b036003876000200154166001600160401b0361476f615479565b1611156147aa57505460101c6001600160a01b03166000908152600260205284902060030180546001600160801b03191690555b388061472f565b90506001600160401b036147bc615479565b169060005260026020526001600160801b036147e260038760002001928284541661456c565b166001600160801b03198254161790556147a3565b8060005260026020526001600160801b036003896000200154166001600160401b03614821615479565b1611156148575750828060a01b039054166000526002602052600386600020016001600160801b031981541690555b3880614706565b90506001600160401b03614869615479565b169060005260026020526001600160801b0361488f60038960002001928284541661456c565b166001600160801b0319825416179055614850565b9250505060ff9150166004811015610a47576001036148ce5763eff3ce5d60e01b60005260046000fd5b61420b90615133565b8382526020822091601f198416815b8181106149235750908460019594939210614909575b505050811b019055614663565b0135600019600384901b60f8161c191690553880806148fc565b919360206001819287870135815501950192016148e6565b9081600052600660205260406000209160005b8354811015614a5b5761496181856142f5565b50546001600160a01b038481169116811480614a40575b80614a24575b61498b575060010161494e565b9391925060016149df8260026149a3600095876142f5565b5001805461ff001916905560026149ba82876142f5565b5001805462ff0000191662010000179055826149d682876142f5565b500154946142f5565b5001558260005260046020526149fb6040600020918254614351565b90557f7d8891f107b48a85b66c4f2654182303b5c3b3926287bae8e33ea57f91909a37600080a3565b5060ff6002614a3384886142f5565b50015460101c161561497e565b5060ff6002614a4f84886142f5565b50015460081c16614978565b60405162461bcd60e51b81526020600482015260126024820152711b9bc81c195b991a5b99c81c995c5d595cdd60721b6044820152606490fd5b6000198114613e5a5760010190565b80600052600560205260ff600b6040600020015460201c1615610a6e5760005260056020526064614ae060056040600020015460095490614331565b0490565b3d15614b0f573d90614af582614128565b91614b036040519384614107565b82523d6000602084013e565b606090565b15614b1b57565b60405162461bcd60e51b815260206004820152600f60248201526e1dda5d1a191c985dc819985a5b1959608a1b6044820152606490fd5b15614b5957565b60405162461bcd60e51b81526020600482015260096024820152682737ba1037bbb732b960b91b6044820152606490fd5b9391929084600052600560205260406000209085600052600360205260406000209460018060a01b0360018701541615611f285760028301546001600160a01b039889169816889003611481576003860192835460ff8116916004831015610a475760028303610a365760ff600b81920154169160081c1611614da5575060028601916001600160401b0382116104fe57614c29826112bb8554614198565b600090601f8311600114614d4157614c5992916000918361046d5750508160011b916000199060031b1c19161790565b90555b805460ff191660011790556001600160401b0382116104fe57614c83826112bb8554614198565b600090601f8311600114614cdd57614cb392916000918361046d5750508160011b916000199060031b1c19161790565b90555b7fd91178918ec22e991ec5103aaa21661df1d5ddfeee4571007ad649225c0dad28600080a3565b8382526020822091601f198416815b818110614d295750908460019594939210614d0f575b505050811b019055614cb6565b0135600019600384901b60f8161c19169055388080614d02565b91936020600181928787013581550195019201614cec565b8382526020822091601f198416815b818110614d8d5750908460019594939210614d73575b505050811b019055614c5c565b0135600019600384901b60f8161c19169055388080614d66565b91936020600181928787013581550195019201614d50565b955050505050506001919250146000146148ce5763eff3ce5d60e01b60005260046000fd5b15614dd157565b60405162461bcd60e51b815260206004820152600c60248201526b4e6f7420656d706c6f79656560a01b6044820152606490fd5b908060209392818452848401376000828201840152601f01601f1916010190565b90614e329392916154b1565b614e3b81614327565b80614ea857506001546040516394fb86e560e01b815290602090829060049082906001600160a01b03165afa9081156105c857600091614e79575090565b90506020813d602011614ea0575b81614e9460209383614107565b8101031261000e575190565b3d9150614e87565b614eb181614327565b60018103614ef2575060015460405163156bebd960e21b815290602090829060049082906001600160a01b03165afa9081156105c857600091614e79575090565b614efb81614327565b60028103614f3c57506001546040516312c23eb160e01b815290602090829060049082906001600160a01b03165afa9081156105c857600091614e79575090565b614f4581614327565b60038103614f855750600154604051628f2c6560e71b815290602090829060049082906001600160a01b03165afa9081156105c857600091614e79575090565b600490614f9181614327565b03614fce5760015460405163ca218d7d60e01b815290602090829060049082906001600160a01b03165afa9081156105c857600091614e79575090565b6001546040516325ac29e160e01b815290602090829060049082906001600160a01b03165afa9081156105c857600091614e79575090565b6002600080516020615be78339815191525414615031576002600080516020615be783398151915255565b633ee5aeb560e01b60005260046000fd5b60ff600080516020615bc7833981519152541661505b57565b63d93c066560e01b60005260046000fd5b60015460405163baa20a3960e01b815290602090829060049082906001600160a01b03165afa9081156105c857600091614e79575090565b9081602091031261000e57516001600160401b038116810361000e5790565b6001546040516241930960e91b815290602090829060049082906001600160a01b03165afa9081156105c8576000916150fa575090565b614195915060203d60201161387b5761386d8183614107565b906001600160801b03809116911601906001600160801b038211613e5a57565b806000526005602052604060002060008052600360205260406000206001820160ff8154166007811015610a4757600403610a3657600382019260ff8454166004811015610a4757600103611f4a57600b810191600160ff845460181c16151514611f39576001840180549093906001600160a01b031615611f28576151c26005840154600a85015490614351565b926002600982015491019360018060a01b0385541660005260046020526151ef6040600020918254614351565b905560018060a01b03835460101c1660005260046020526152166040600020918254614351565b9055805463ffffff0019166301000000179055805460ff1916600517815581546001600160a01b031660008181526002602052604090206004015460ff166153e0575b50805460101c6001600160a01b031660008181526002602052604090206004015460ff16615340575b5091600094916004949360018060a01b03905460101c1686526002602052600160408720016152b18154614a95565b9055546001600160a01b0316855260026020526040852060010180546152d690614a95565b90556152e5611d668454614198565b8483556001600160601b0360a01b8154169055836002830161530a611d918254614198565b55805461ffff1916600317905501557f3e9d27a1c2a828db29e4b2a17fbd1bc70201ef21aec4f74b9fa051b02e38e3f0600080a2565b94916004949391602060018060a01b03600154166040519788809263b30e0be360e01b82525afa80156105c85760009760049789926153bf575b50885260026020526001600160801b036153a463ffffffff600360408c2001931682845416615113565b166001600160801b0319825416179055919394509194615282565b6153d991925060203d602011611e8857611e798183614107565b903861537a565b60015460405163c7d3f62f60e01b81529190602090839060049082906001600160a01b03165afa9182156105c857600092615458575b5060005260026020526001600160801b0361544263ffffffff6003604060002001931682845416615113565b166001600160801b031982541617905538615259565b61547291925060203d602011611e8857611e798183614107565b9038615416565b600154604051637221ba7960e11b815290602090829060049082906001600160a01b03165afa9081156105c8576000916150fa575090565b60015460405163a0d0124560e01b81526001600160a01b039091169493919291602082600481895afa9081156105c857615508926000926158bb575b50670de0b6b3a76400006001600160401b0391049116614331565b604051630963d67f60e21b815291602083600481895afa9283156105c857615550936001600160401b039261554992600092615897575b5060ff1690615a8e565b1690614351565b60405163c6de983960e01b81529092602082600481885afa9182156105c857600092615860575b506001600160801b036155916001600160401b0392615adf565b16911602906001600160801b038216918203613e5a5760405163778162d760e11b815291602083600481885afa9182156105c8576155f36155fa936001600160401b03926001600160801b0396600092615839575b5063ffffffff1690615a8e565b1690615113565b1680821161582b57505060005b670de0b6b3a7640000810290808204670de0b6b3a76400001490151715613e5a576064900460405163a376ff7d60e01b8152602081600481865afa9081156105c8576000916157f9575b50811161565f575050600090565b6040516370ffe5a360e11b8152602081600481865afa9081156105c8576000916157c7575b508111615692575050600190565b6040516399206b0b60e01b8152602081600481865afa9081156105c857600091615795575b5081116156c5575050600290565b6040516384afa48b60e01b8152602081600481865afa9081156105c857600091615763575b5081116156f8575050600390565b60206004926040519384809263813b79c160e01b82525afa9182156105c85760009261572f575b501161572a57600490565b600590565b9091506020813d60201161575b575b8161574b60209383614107565b8101031261000e5751903861571f565b3d915061573e565b90506020813d60201161578d575b8161577e60209383614107565b8101031261000e5751386156ea565b3d9150615771565b90506020813d6020116157bf575b816157b060209383614107565b8101031261000e5751386156b7565b3d91506157a3565b90506020813d6020116157f1575b816157e260209383614107565b8101031261000e575138615684565b3d91506157d5565b90506020813d602011615823575b8161581460209383614107565b8101031261000e575138615651565b3d9150615807565b61583491614344565b615607565b63ffffffff9192506158599060203d60201161387b5761386d8183614107565b91906155e6565b6001600160401b0391925061559161588e6001600160801b039260203d60201161387b5761386d8183614107565b93925050615577565b60ff9192506158b49060203d60201161387b5761386d8183614107565b919061553f565b6001600160401b039192506158e7670de0b6b3a76400009160203d60201161387b5761386d8183614107565b9291506154ed565b6001600160a01b0316156158ff57565b60405162461bcd60e51b815260206004820152602760248201527f416363657373436f6e74726f6c3a207a65726f2061646472657373206e6f7420604482015266185b1b1bddd95960ca1b6064820152608490fd5b600154604051630b7dadff60e01b815290602090829060049082906001600160a01b03165afa9081156105c8576000916150fa575090565b6001600160401b0361599c615954565b166064036001600160401b038111613e5a5790565b60015460405163cf95838b60e01b815290602090829060049082906001600160a01b03165afa9081156105c8576000916150fa575090565b9081602091031261000e575163ffffffff8116810361000e5790565b600154604051630d164b1d60e41b815290602090829060049082906001600160a01b03165afa9081156105c857600091615a3d575090565b614195915060203d602011611e8857611e798183614107565b600154604051633b8664cd60e11b815290602090829060049082906001600160a01b03165afa9081156105c857600091615a3d575090565b906001600160401b03809116911602906001600160401b038216918203613e5a57565b60ff600080516020615c078339815191525460401c1615615ace57565b631afcd79f60e31b60005260046000fd5b6001600160a01b031660008181526002602052604090206004015460ff1615615b1f5760005260026020526001600160801b036003604060002001541690565b50600090565b90615b4b5750805115615b3a57602081519101fd5b63d6bda27560e01b60005260046000fd5b81511580615b7d575b615b5c575090565b639996b31560e01b60009081526001600160a01b0391909116600452602490fd5b50803b15615b5456fe1bce747d41af8244f3246272f08510707b11c277f47de91efab942bd3802c940360894a13ba1a3210667c828492db98dca3e2076cc3735a920a3ca505d382bbccd5ed15c6e187e77e9aee88184c21f4f2182ab5827cb3b7e07fbedcd63f033009b779b17422d0df92223018b32b4d1fa46e071723d6817e2486d003becc55f00f0c57e16840df040f15088dc2f81fe391c3923bec73e23a9662efc9c229c6a00a2646970667358221220b464e3e8bddef37b41bc6527ee97eb96b9638f1c27e093f453db1373062a4b1464736f6c634300081c0033",
  "linkReferences": {},
  "deployedLinkReferences": {}
}