{
  "_format": "hh-sol-artifact-1",
  "contractName": "TrustlessTeamProtocol",
  "sourceName": "contracts/User/TrustlessTeamProtocol.sol",
  "abi": [
    {
      "inputs": [
        {
          "internalType": "address",
          "name": "target",
          "type": "address"
        }
      ],
      "name": "AddressEmptyCode",
      "type": "error"
    },
    {
      "inputs": [],
      "name": "AlreadyRequestedJoin",
      "type": "error"
    },
    {
      "inputs": [],
      "name": "AlredyClaimed",
      "type": "error"
    },
    {
      "inputs": [],
      "name": "AlredyRegistered",
      "type": "error"
    },
    {
      "inputs": [],
      "name": "CancelOnlyWhenMemberAssigned",
      "type": "error"
    },
    {
      "inputs": [],
      "name": "DeadlineNotExceeded",
      "type": "error"
    },
    {
      "inputs": [
        {
          "internalType": "address",
          "name": "implementation",
          "type": "address"
        }
      ],
      "name": "ERC1967InvalidImplementation",
      "type": "error"
    },
    {
      "inputs": [],
      "name": "ERC1967NonPayable",
      "type": "error"
    },
    {
      "inputs": [],
      "name": "EnforcedPause",
      "type": "error"
    },
    {
      "inputs": [],
      "name": "ExpectedPause",
      "type": "error"
    },
    {
      "inputs": [],
      "name": "FailedCall",
      "type": "error"
    },
    {
      "inputs": [],
      "name": "InsufficientStake",
      "type": "error"
    },
    {
      "inputs": [],
      "name": "InvalidDeadline",
      "type": "error"
    },
    {
      "inputs": [],
      "name": "InvalidInitialization",
      "type": "error"
    },
    {
      "inputs": [],
      "name": "InvalidMemberStakePercentReward",
      "type": "error"
    },
    {
      "inputs": [],
      "name": "InvalidReason",
      "type": "error"
    },
    {
      "inputs": [],
      "name": "InvalidRewardAmount",
      "type": "error"
    },
    {
      "inputs": [],
      "name": "InvalidStakeAmount",
      "type": "error"
    },
    {
      "inputs": [],
      "name": "InvalidTitle",
      "type": "error"
    },
    {
      "inputs": [],
      "name": "NoSubmision",
      "type": "error"
    },
    {
      "inputs": [],
      "name": "NotCounterparty",
      "type": "error"
    },
    {
      "inputs": [],
      "name": "NotInitializing",
      "type": "error"
    },
    {
      "inputs": [],
      "name": "NotRegistered",
      "type": "error"
    },
    {
      "inputs": [],
      "name": "NotTaskCreator",
      "type": "error"
    },
    {
      "inputs": [],
      "name": "NotTaskMember",
      "type": "error"
    },
    {
      "inputs": [],
      "name": "ReentrancyGuardReentrantCall",
      "type": "error"
    },
    {
      "inputs": [],
      "name": "RewardOverflow",
      "type": "error"
    },
    {
      "inputs": [],
      "name": "StakeHitLimit",
      "type": "error"
    },
    {
      "inputs": [],
      "name": "StakeMismatch",
      "type": "error"
    },
    {
      "inputs": [],
      "name": "StakeOverflow",
      "type": "error"
    },
    {
      "inputs": [],
      "name": "TaskDoesNotExist",
      "type": "error"
    },
    {
      "inputs": [],
      "name": "TaskNotOpen",
      "type": "error"
    },
    {
      "inputs": [],
      "name": "TaskNotSubmittedYet",
      "type": "error"
    },
    {
      "inputs": [],
      "name": "TooManyRevisions",
      "type": "error"
    },
    {
      "inputs": [],
      "name": "UUPSUnauthorizedCallContext",
      "type": "error"
    },
    {
      "inputs": [
        {
          "internalType": "bytes32",
          "name": "slot",
          "type": "bytes32"
        }
      ],
      "name": "UUPSUnsupportedProxiableUUID",
      "type": "error"
    },
    {
      "inputs": [],
      "name": "ValueMismatch",
      "type": "error"
    },
    {
      "inputs": [],
      "name": "alredyInPending",
      "type": "error"
    },
    {
      "inputs": [],
      "name": "submissionAlreadyPending",
      "type": "error"
    },
    {
      "anonymous": false,
      "inputs": [
        {
          "indexed": true,
          "internalType": "uint256",
          "name": "taskId",
          "type": "uint256"
        }
      ],
      "name": "DeadlineTriggered",
      "type": "event"
    },
    {
      "anonymous": false,
      "inputs": [
        {
          "indexed": false,
          "internalType": "uint64",
          "name": "version",
          "type": "uint64"
        }
      ],
      "name": "Initialized",
      "type": "event"
    },
    {
      "anonymous": false,
      "inputs": [
        {
          "indexed": true,
          "internalType": "uint256",
          "name": "taskId",
          "type": "uint256"
        },
        {
          "indexed": true,
          "internalType": "address",
          "name": "applicant",
          "type": "address"
        }
      ],
      "name": "JoinApproved",
      "type": "event"
    },
    {
      "anonymous": false,
      "inputs": [
        {
          "indexed": true,
          "internalType": "uint256",
          "name": "taskId",
          "type": "uint256"
        },
        {
          "indexed": true,
          "internalType": "address",
          "name": "applicant",
          "type": "address"
        }
      ],
      "name": "JoinRejected",
      "type": "event"
    },
    {
      "anonymous": false,
      "inputs": [
        {
          "indexed": true,
          "internalType": "uint256",
          "name": "taskId",
          "type": "uint256"
        },
        {
          "indexed": true,
          "internalType": "address",
          "name": "applicant",
          "type": "address"
        },
        {
          "indexed": false,
          "internalType": "uint256",
          "name": "stakeAmount",
          "type": "uint256"
        }
      ],
      "name": "JoinRequested",
      "type": "event"
    },
    {
      "anonymous": false,
      "inputs": [
        {
          "indexed": true,
          "internalType": "uint256",
          "name": "taskId",
          "type": "uint256"
        },
        {
          "indexed": true,
          "internalType": "address",
          "name": "user",
          "type": "address"
        }
      ],
      "name": "JoinrequestCancelled",
      "type": "event"
    },
    {
      "anonymous": false,
      "inputs": [
        {
          "indexed": false,
          "internalType": "address",
          "name": "account",
          "type": "address"
        }
      ],
      "name": "Paused",
      "type": "event"
    },
    {
      "anonymous": false,
      "inputs": [
        {
          "indexed": true,
          "internalType": "uint256",
          "name": "taskId",
          "type": "uint256"
        }
      ],
      "name": "RegistrationClosed",
      "type": "event"
    },
    {
      "anonymous": false,
      "inputs": [
        {
          "indexed": true,
          "internalType": "uint256",
          "name": "taskId",
          "type": "uint256"
        }
      ],
      "name": "RegistrationOpened",
      "type": "event"
    },
    {
      "anonymous": false,
      "inputs": [
        {
          "indexed": true,
          "internalType": "uint256",
          "name": "taskId",
          "type": "uint256"
        },
        {
          "indexed": false,
          "internalType": "uint8",
          "name": "revisionCount",
          "type": "uint8"
        },
        {
          "indexed": false,
          "internalType": "uint256",
          "name": "newDeadline",
          "type": "uint256"
        }
      ],
      "name": "RevisionRequested",
      "type": "event"
    },
    {
      "anonymous": false,
      "inputs": [
        {
          "indexed": true,
          "internalType": "uint256",
          "name": "taskId",
          "type": "uint256"
        }
      ],
      "name": "TaskActive",
      "type": "event"
    },
    {
      "anonymous": false,
      "inputs": [
        {
          "indexed": true,
          "internalType": "uint256",
          "name": "taskId",
          "type": "uint256"
        }
      ],
      "name": "TaskApproved",
      "type": "event"
    },
    {
      "anonymous": false,
      "inputs": [
        {
          "indexed": true,
          "internalType": "uint256",
          "name": "taskId",
          "type": "uint256"
        },
        {
          "indexed": true,
          "internalType": "address",
          "name": "initiator",
          "type": "address"
        }
      ],
      "name": "TaskCancelledByMe",
      "type": "event"
    },
    {
      "anonymous": false,
      "inputs": [
        {
          "indexed": false,
          "internalType": "string",
          "name": "title",
          "type": "string"
        },
        {
          "indexed": true,
          "internalType": "uint256",
          "name": "taskId",
          "type": "uint256"
        },
        {
          "indexed": true,
          "internalType": "address",
          "name": "creator",
          "type": "address"
        },
        {
          "indexed": false,
          "internalType": "uint256",
          "name": "reward",
          "type": "uint256"
        },
        {
          "indexed": false,
          "internalType": "uint256",
          "name": "creatorStake",
          "type": "uint256"
        }
      ],
      "name": "TaskCreated",
      "type": "event"
    },
    {
      "anonymous": false,
      "inputs": [
        {
          "indexed": false,
          "internalType": "uint256",
          "name": "taskId",
          "type": "uint256"
        }
      ],
      "name": "TaskDeleted",
      "type": "event"
    },
    {
      "anonymous": false,
      "inputs": [
        {
          "indexed": true,
          "internalType": "uint256",
          "name": "taskId",
          "type": "uint256"
        },
        {
          "indexed": true,
          "internalType": "address",
          "name": "member",
          "type": "address"
        }
      ],
      "name": "TaskReSubmitted",
      "type": "event"
    },
    {
      "anonymous": false,
      "inputs": [
        {
          "indexed": true,
          "internalType": "uint256",
          "name": "taskId",
          "type": "uint256"
        },
        {
          "indexed": true,
          "internalType": "address",
          "name": "member",
          "type": "address"
        },
        {
          "indexed": false,
          "internalType": "string",
          "name": "githubURL",
          "type": "string"
        }
      ],
      "name": "TaskSubmitted",
      "type": "event"
    },
    {
      "anonymous": false,
      "inputs": [
        {
          "indexed": false,
          "internalType": "address",
          "name": "account",
          "type": "address"
        }
      ],
      "name": "Unpaused",
      "type": "event"
    },
    {
      "anonymous": false,
      "inputs": [
        {
          "indexed": true,
          "internalType": "address",
          "name": "implementation",
          "type": "address"
        }
      ],
      "name": "Upgraded",
      "type": "event"
    },
    {
      "anonymous": false,
      "inputs": [
        {
          "indexed": true,
          "internalType": "address",
          "name": "user",
          "type": "address"
        },
        {
          "indexed": false,
          "internalType": "string",
          "name": "name",
          "type": "string"
        },
        {
          "indexed": false,
          "internalType": "uint128",
          "name": "age",
          "type": "uint128"
        }
      ],
      "name": "UserRegistered",
      "type": "event"
    },
    {
      "anonymous": false,
      "inputs": [
        {
          "indexed": true,
          "internalType": "address",
          "name": "user",
          "type": "address"
        },
        {
          "indexed": false,
          "internalType": "string",
          "name": "name",
          "type": "string"
        },
        {
          "indexed": false,
          "internalType": "uint128",
          "name": "age",
          "type": "uint128"
        }
      ],
      "name": "UserUnregistered",
      "type": "event"
    },
    {
      "anonymous": false,
      "inputs": [
        {
          "indexed": true,
          "internalType": "address",
          "name": "user",
          "type": "address"
        },
        {
          "indexed": false,
          "internalType": "uint256",
          "name": "amount",
          "type": "uint256"
        }
      ],
      "name": "Withdrawal",
      "type": "event"
    },
    {
      "anonymous": false,
      "inputs": [
        {
          "indexed": false,
          "internalType": "string",
          "name": "info",
          "type": "string"
        },
        {
          "indexed": true,
          "internalType": "address",
          "name": "newAddress",
          "type": "address"
        },
        {
          "indexed": true,
          "internalType": "uint256",
          "name": "value",
          "type": "uint256"
        }
      ],
      "name": "systemChanged",
      "type": "event"
    },
    {
      "stateMutability": "payable",
      "type": "fallback"
    },
    {
      "inputs": [
        {
          "internalType": "string",
          "name": "Name",
          "type": "string"
        },
        {
          "internalType": "uint128",
          "name": "Age",
          "type": "uint128"
        },
        {
          "internalType": "string",
          "name": "githubURL",
          "type": "string"
        },
        {
          "internalType": "address",
          "name": "user",
          "type": "address"
        }
      ],
      "name": "Register",
      "outputs": [],
      "stateMutability": "nonpayable",
      "type": "function"
    },
    {
      "inputs": [
        {
          "internalType": "uint256",
          "name": "",
          "type": "uint256"
        }
      ],
      "name": "TaskSubmits",
      "outputs": [
        {
          "internalType": "string",
          "name": "githubURL",
          "type": "string"
        },
        {
          "internalType": "address",
          "name": "sender",
          "type": "address"
        },
        {
          "internalType": "string",
          "name": "note",
          "type": "string"
        },
        {
          "internalType": "enum TrustlessTeamProtocol.SubmitStatus",
          "name": "status",
          "type": "uint8"
        },
        {
          "internalType": "uint8",
          "name": "revisionTime",
          "type": "uint8"
        },
        {
          "internalType": "uint256",
          "name": "newDeadline",
          "type": "uint256"
        }
      ],
      "stateMutability": "view",
      "type": "function"
    },
    {
      "inputs": [
        {
          "internalType": "uint256",
          "name": "",
          "type": "uint256"
        }
      ],
      "name": "Tasks",
      "outputs": [
        {
          "internalType": "uint256",
          "name": "taskId",
          "type": "uint256"
        },
        {
          "internalType": "enum TrustlessTeamProtocol.TaskStatus",
          "name": "status",
          "type": "uint8"
        },
        {
          "internalType": "enum TrustlessTeamProtocol.TaskValue",
          "name": "value",
          "type": "uint8"
        },
        {
          "internalType": "address",
          "name": "creator",
          "type": "address"
        },
        {
          "internalType": "address",
          "name": "member",
          "type": "address"
        },
        {
          "internalType": "string",
          "name": "title",
          "type": "string"
        },
        {
          "internalType": "string",
          "name": "githubURL",
          "type": "string"
        },
        {
          "internalType": "uint256",
          "name": "reward",
          "type": "uint256"
        },
        {
          "internalType": "uint32",
          "name": "deadlineHours",
          "type": "uint32"
        },
        {
          "internalType": "uint256",
          "name": "deadlineAt",
          "type": "uint256"
        },
        {
          "internalType": "uint256",
          "name": "createdAt",
          "type": "uint256"
        },
        {
          "internalType": "uint256",
          "name": "creatorStake",
          "type": "uint256"
        },
        {
          "internalType": "uint256",
          "name": "memberStake",
          "type": "uint256"
        },
        {
          "internalType": "uint8",
          "name": "maxRevision",
          "type": "uint8"
        },
        {
          "internalType": "bool",
          "name": "isMemberStakeLocked",
          "type": "bool"
        },
        {
          "internalType": "bool",
          "name": "isCreatorStakeLocked",
          "type": "bool"
        },
        {
          "internalType": "bool",
          "name": "isRewardClaimed",
          "type": "bool"
        },
        {
          "internalType": "bool",
          "name": "exists",
          "type": "bool"
        }
      ],
      "stateMutability": "view",
      "type": "function"
    },
    {
      "inputs": [],
      "name": "UPGRADE_INTERFACE_VERSION",
      "outputs": [
        {
          "internalType": "string",
          "name": "",
          "type": "string"
        }
      ],
      "stateMutability": "view",
      "type": "function"
    },
    {
      "inputs": [
        {
          "internalType": "address",
          "name": "user",
          "type": "address"
        }
      ],
      "name": "Unregister",
      "outputs": [
        {
          "internalType": "string",
          "name": "",
          "type": "string"
        }
      ],
      "stateMutability": "nonpayable",
      "type": "function"
    },
    {
      "inputs": [
        {
          "internalType": "address",
          "name": "",
          "type": "address"
        }
      ],
      "name": "Users",
      "outputs": [
        {
          "internalType": "uint256",
          "name": "totalTasksCreated",
          "type": "uint256"
        },
        {
          "internalType": "uint256",
          "name": "totalTasksCompleted",
          "type": "uint256"
        },
        {
          "internalType": "uint256",
          "name": "totalTasksFailed",
          "type": "uint256"
        },
        {
          "internalType": "uint128",
          "name": "reputation",
          "type": "uint128"
        },
        {
          "internalType": "uint128",
          "name": "age",
          "type": "uint128"
        },
        {
          "internalType": "bool",
          "name": "isRegistered",
          "type": "bool"
        },
        {
          "internalType": "string",
          "name": "name",
          "type": "string"
        },
        {
          "internalType": "string",
          "name": "GitProfile",
          "type": "string"
        }
      ],
      "stateMutability": "view",
      "type": "function"
    },
    {
      "inputs": [
        {
          "internalType": "uint32",
          "name": "DeadlineHours",
          "type": "uint32"
        },
        {
          "internalType": "uint8",
          "name": "MaximumRevision",
          "type": "uint8"
        },
        {
          "internalType": "uint256",
          "name": "rewardWei",
          "type": "uint256"
        },
        {
          "internalType": "address",
          "name": "Caller",
          "type": "address"
        }
      ],
      "name": "__getCreatorStake",
      "outputs": [
        {
          "internalType": "uint256",
          "name": "",
          "type": "uint256"
        }
      ],
      "stateMutability": "view",
      "type": "function"
    },
    {
      "inputs": [],
      "name": "accessControl",
      "outputs": [
        {
          "internalType": "contract IAccessControl",
          "name": "",
          "type": "address"
        }
      ],
      "stateMutability": "view",
      "type": "function"
    },
    {
      "inputs": [
        {
          "internalType": "uint256",
          "name": "taskId",
          "type": "uint256"
        }
      ],
      "name": "activateTask",
      "outputs": [],
      "stateMutability": "payable",
      "type": "function"
    },
    {
      "inputs": [
        {
          "internalType": "uint256",
          "name": "taskId",
          "type": "uint256"
        },
        {
          "internalType": "address",
          "name": "applicant",
          "type": "address"
        }
      ],
      "name": "approveJoinRequest",
      "outputs": [],
      "stateMutability": "nonpayable",
      "type": "function"
    },
    {
      "inputs": [
        {
          "internalType": "uint256",
          "name": "taskId",
          "type": "uint256"
        }
      ],
      "name": "approveTask",
      "outputs": [],
      "stateMutability": "nonpayable",
      "type": "function"
    },
    {
      "inputs": [
        {
          "internalType": "uint256",
          "name": "taskId",
          "type": "uint256"
        },
        {
          "internalType": "address",
          "name": "user",
          "type": "address"
        }
      ],
      "name": "cancelByMe",
      "outputs": [],
      "stateMutability": "nonpayable",
      "type": "function"
    },
    {
      "inputs": [
        {
          "internalType": "address",
          "name": "_newAccesControl",
          "type": "address"
        }
      ],
      "name": "changeAccessControl",
      "outputs": [],
      "stateMutability": "nonpayable",
      "type": "function"
    },
    {
      "inputs": [
        {
          "internalType": "address",
          "name": "_newStateVar",
          "type": "address"
        }
      ],
      "name": "changeStateVarAddress",
      "outputs": [],
      "stateMutability": "nonpayable",
      "type": "function"
    },
    {
      "inputs": [
        {
          "internalType": "address payable",
          "name": "_NewsystemWallet",
          "type": "address"
        }
      ],
      "name": "changeSystemwallet",
      "outputs": [],
      "stateMutability": "nonpayable",
      "type": "function"
    },
    {
      "inputs": [
        {
          "internalType": "uint256",
          "name": "taskId",
          "type": "uint256"
        }
      ],
      "name": "closeRegistration",
      "outputs": [],
      "stateMutability": "nonpayable",
      "type": "function"
    },
    {
      "inputs": [
        {
          "internalType": "string",
          "name": "Title",
          "type": "string"
        },
        {
          "internalType": "string",
          "name": "GithubURL",
          "type": "string"
        },
        {
          "internalType": "uint32",
          "name": "DeadlineHours",
          "type": "uint32"
        },
        {
          "internalType": "uint8",
          "name": "MaximumRevision",
          "type": "uint8"
        },
        {
          "internalType": "address",
          "name": "user",
          "type": "address"
        }
      ],
      "name": "createTask",
      "outputs": [],
      "stateMutability": "payable",
      "type": "function"
    },
    {
      "inputs": [
        {
          "internalType": "uint256",
          "name": "taskId",
          "type": "uint256"
        },
        {
          "internalType": "address",
          "name": "user",
          "type": "address"
        }
      ],
      "name": "deleteTask",
      "outputs": [],
      "stateMutability": "nonpayable",
      "type": "function"
    },
    {
      "inputs": [],
      "name": "feeCollected",
      "outputs": [
        {
          "internalType": "uint256",
          "name": "",
          "type": "uint256"
        }
      ],
      "stateMutability": "view",
      "type": "function"
    },
    {
      "inputs": [
        {
          "internalType": "uint256",
          "name": "taskId",
          "type": "uint256"
        }
      ],
      "name": "getCreatorStake",
      "outputs": [
        {
          "internalType": "uint256",
          "name": "",
          "type": "uint256"
        }
      ],
      "stateMutability": "view",
      "type": "function"
    },
    {
      "inputs": [
        {
          "internalType": "uint256",
          "name": "taskId",
          "type": "uint256"
        }
      ],
      "name": "getJoinRequestCount",
      "outputs": [
        {
          "internalType": "uint256",
          "name": "",
          "type": "uint256"
        }
      ],
      "stateMutability": "view",
      "type": "function"
    },
    {
      "inputs": [
        {
          "internalType": "uint256",
          "name": "taskId",
          "type": "uint256"
        }
      ],
      "name": "getMemberRequiredStake",
      "outputs": [
        {
          "internalType": "uint256",
          "name": "",
          "type": "uint256"
        }
      ],
      "stateMutability": "view",
      "type": "function"
    },
    {
      "inputs": [
        {
          "internalType": "address",
          "name": "_accessControl",
          "type": "address"
        },
        {
          "internalType": "address payable",
          "name": "_systemWallet",
          "type": "address"
        },
        {
          "internalType": "address",
          "name": "_stateVar",
          "type": "address"
        },
        {
          "internalType": "uint256",
          "name": "_initialmemberStakePercentReward",
          "type": "uint256"
        }
      ],
      "name": "initialize",
      "outputs": [],
      "stateMutability": "nonpayable",
      "type": "function"
    },
    {
      "inputs": [
        {
          "internalType": "uint256",
          "name": "",
          "type": "uint256"
        },
        {
          "internalType": "uint256",
          "name": "",
          "type": "uint256"
        }
      ],
      "name": "joinRequests",
      "outputs": [
        {
          "internalType": "address",
          "name": "applicant",
          "type": "address"
        },
        {
          "internalType": "uint256",
          "name": "stakeAmount",
          "type": "uint256"
        },
        {
          "internalType": "enum TrustlessTeamProtocol.UserTask",
          "name": "status",
          "type": "uint8"
        },
        {
          "internalType": "bool",
          "name": "isPending",
          "type": "bool"
        },
        {
          "internalType": "bool",
          "name": "hasWithdrawn",
          "type": "bool"
        }
      ],
      "stateMutability": "view",
      "type": "function"
    },
    {
      "inputs": [],
      "name": "memberStakePercentReward",
      "outputs": [
        {
          "internalType": "uint256",
          "name": "",
          "type": "uint256"
        }
      ],
      "stateMutability": "view",
      "type": "function"
    },
    {
      "inputs": [
        {
          "internalType": "uint256",
          "name": "taskId",
          "type": "uint256"
        }
      ],
      "name": "openRegistration",
      "outputs": [],
      "stateMutability": "nonpayable",
      "type": "function"
    },
    {
      "inputs": [
        {
          "internalType": "address",
          "name": "caller",
          "type": "address"
        }
      ],
      "name": "pause",
      "outputs": [],
      "stateMutability": "nonpayable",
      "type": "function"
    },
    {
      "inputs": [],
      "name": "paused",
      "outputs": [
        {
          "internalType": "bool",
          "name": "",
          "type": "bool"
        }
      ],
      "stateMutability": "view",
      "type": "function"
    },
    {
      "inputs": [],
      "name": "proxiableUUID",
      "outputs": [
        {
          "internalType": "bytes32",
          "name": "",
          "type": "bytes32"
        }
      ],
      "stateMutability": "view",
      "type": "function"
    },
    {
      "inputs": [
        {
          "internalType": "uint256",
          "name": "taskId",
          "type": "uint256"
        },
        {
          "internalType": "string",
          "name": "Note",
          "type": "string"
        },
        {
          "internalType": "string",
          "name": "GithubFixedURL",
          "type": "string"
        },
        {
          "internalType": "address",
          "name": "user",
          "type": "address"
        }
      ],
      "name": "reSubmitTask",
      "outputs": [],
      "stateMutability": "nonpayable",
      "type": "function"
    },
    {
      "inputs": [
        {
          "internalType": "uint256",
          "name": "taskId",
          "type": "uint256"
        },
        {
          "internalType": "address",
          "name": "_applicant",
          "type": "address"
        }
      ],
      "name": "rejectJoinRequest",
      "outputs": [],
      "stateMutability": "nonpayable",
      "type": "function"
    },
    {
      "inputs": [
        {
          "internalType": "uint256",
          "name": "taskId",
          "type": "uint256"
        },
        {
          "internalType": "address",
          "name": "user",
          "type": "address"
        }
      ],
      "name": "requestJoinTask",
      "outputs": [],
      "stateMutability": "payable",
      "type": "function"
    },
    {
      "inputs": [
        {
          "internalType": "uint256",
          "name": "taskId",
          "type": "uint256"
        },
        {
          "internalType": "string",
          "name": "Note",
          "type": "string"
        },
        {
          "internalType": "uint256",
          "name": "additionalDeadlineHours",
          "type": "uint256"
        }
      ],
      "name": "requestRevision",
      "outputs": [],
      "stateMutability": "nonpayable",
      "type": "function"
    },
    {
      "inputs": [
        {
          "internalType": "uint256",
          "name": "taskId",
          "type": "uint256"
        },
        {
          "internalType": "string",
          "name": "PullRequestURL",
          "type": "string"
        },
        {
          "internalType": "string",
          "name": "Note",
          "type": "string"
        },
        {
          "internalType": "address",
          "name": "user",
          "type": "address"
        }
      ],
      "name": "requestSubmitTask",
      "outputs": [],
      "stateMutability": "nonpayable",
      "type": "function"
    },
    {
      "inputs": [
        {
          "internalType": "uint256",
          "name": "NewmemberStakePercentReward",
          "type": "uint256"
        }
      ],
      "name": "setMemberStakePercentageFromStake",
      "outputs": [],
      "stateMutability": "nonpayable",
      "type": "function"
    },
    {
      "inputs": [],
      "name": "stateVar",
      "outputs": [
        {
          "internalType": "contract stateVariable",
          "name": "",
          "type": "address"
        }
      ],
      "stateMutability": "view",
      "type": "function"
    },
    {
      "inputs": [],
      "name": "systemWallet",
      "outputs": [
        {
          "internalType": "address payable",
          "name": "",
          "type": "address"
        }
      ],
      "stateMutability": "view",
      "type": "function"
    },
    {
      "inputs": [],
      "name": "taskCounter",
      "outputs": [
        {
          "internalType": "uint256",
          "name": "",
          "type": "uint256"
        }
      ],
      "stateMutability": "view",
      "type": "function"
    },
    {
      "inputs": [
        {
          "internalType": "uint256",
          "name": "taskId",
          "type": "uint256"
        }
      ],
      "name": "triggerDeadline",
      "outputs": [],
      "stateMutability": "nonpayable",
      "type": "function"
    },
    {
      "inputs": [
        {
          "internalType": "address",
          "name": "caller",
          "type": "address"
        }
      ],
      "name": "unpause",
      "outputs": [],
      "stateMutability": "nonpayable",
      "type": "function"
    },
    {
      "inputs": [
        {
          "internalType": "address",
          "name": "newImplementation",
          "type": "address"
        },
        {
          "internalType": "bytes",
          "name": "data",
          "type": "bytes"
        }
      ],
      "name": "upgradeToAndCall",
      "outputs": [],
      "stateMutability": "payable",
      "type": "function"
    },
    {
      "inputs": [
        {
          "internalType": "bytes32",
          "name": "",
          "type": "bytes32"
        }
      ],
      "name": "usedGitURL",
      "outputs": [
        {
          "internalType": "bool",
          "name": "",
          "type": "bool"
        }
      ],
      "stateMutability": "view",
      "type": "function"
    },
    {
      "inputs": [
        {
          "internalType": "address",
          "name": "user",
          "type": "address"
        }
      ],
      "name": "withdraw",
      "outputs": [],
      "stateMutability": "nonpayable",
      "type": "function"
    },
    {
      "inputs": [
        {
          "internalType": "uint256",
          "name": "taskId",
          "type": "uint256"
        },
        {
          "internalType": "address",
          "name": "user",
          "type": "address"
        }
      ],
      "name": "withdrawJoinRequest",
      "outputs": [],
      "stateMutability": "nonpayable",
      "type": "function"
    },
    {
      "inputs": [],
      "name": "withdrawToSystemWallet",
      "outputs": [],
      "stateMutability": "nonpayable",
      "type": "function"
    },
    {
      "inputs": [
        {
          "internalType": "address",
          "name": "",
          "type": "address"
        }
      ],
      "name": "withdrawable",
      "outputs": [
        {
          "internalType": "uint256",
          "name": "",
          "type": "uint256"
        }
      ],
      "stateMutability": "view",
      "type": "function"
    },
    {
      "stateMutability": "payable",
      "type": "receive"
    }
  ],
  "bytecode": "0x60a08060405234602957306080526158e6908161002f8239608051818181612b8f0152612e2c0152f35b600080fdfe60806040526004361015610013575b600080fd5b60003560e01c806302cb134e14613b195780630a07fae614613aab57806313007d5514613a825780631a9a872314613801578063273739901461377557806328319c2c14613749578063294c5374146136cf5780633cc8e54414613674578063437b5684146130305780634ee4de7d146130125780634f1ef28614612dde5780634f51595f14612d3857806351cff8d914612be657806352d1902d14612b7c578063553659f514612b5e57806357b001f914612a2c5780635867173014612a0e5780635c975abb146129de5780635e54a140146129295780636ca7f95c1461290b5780636d8ed6921461277857806375ae3a6e1461267657806376a67a5114612575578063793816ec1461254c5780637f6fc1651461251b5780638cab7be41461244c5780638ff388c71461220a5780639387730c1461212257806397f8a8d814611db657806399b956a014611cfb5780639f8d5aa114611bea578063a12d93f814611b62578063ad3cb1cc14611b17578063ad7d3a7214611aee578063ae204d96146119fd578063b26ecb37146115df578063b8be2fea146114db578063c0a5dded14611074578063cca84a0c14610fae578063ce513b6f14610f74578063cf756fdf14610d73578063e0d42e9614610c78578063f4b2a46e14610b1e578063ff54068b14610ace578063ff91221f146106505763ff9df4220361000e573461000e57608036600319011261000e576004356001600160401b03811161000e57610242903690600401613d60565b602435916001600160801b0383169182840361000e576044356001600160401b03811161000e57610277903690600401613d60565b939094610282613d02565b600054604051633f784de560e11b8152336004820152906001600160a01b0316602082602481845afa908115610617576102ca602092600494600091610623575b5015613fe6565b604051638da5cb5b60e01b815292839182905afa801561061757610302916000916105e8575b506001600160a01b031633141561403f565b61030d33151561407d565b60018060a01b031694856000526002602052604060002091600483019260ff8454166105d7576040516020810190848b833761035d6020828781016000838201520301601f198101835282613d8d565b5190209360038201906001600160801b031982541682556000600184015560006002840155600160ff1982541617905560058201926001600160401b03881161054d576103b4886103ae8654613e1e565b86614157565b60009388601f811160011461056e57806103e791600697600091610563575b508160011b916000199060031b1c19161790565b90555b81546001600160801b031660809190911b6001600160801b03191617905501906001600160401b03811161054d5761042c816104268454613e1e565b84614157565b6000601f82116001146104c757908061047f927f1bfdcd45dd860c112f48920703980e72901feca6fa0fa8a5ff1258f0fe606795999a6000926104bc575b50508160011b916000199060031b1c19161790565b90555b60005260036020526040600020600160ff198254161790556104b1604051938493604085526040850191614ac0565b9060208301520390a2005b01359050388061046a565b8281526020812090601f198316815b8181106105355750998392916001947f1bfdcd45dd860c112f48920703980e72901feca6fa0fa8a5ff1258f0fe6067959b9c1061051b575b505050811b019055610482565b0135600019600384901b60f8161c1916905538808061050e565b9192602060018192868f0135815501940192016104d6565b634e487b7160e01b600052604160045260246000fd5b90508c0135386103d3565b5080855260208520858a601f1981165b8d818a106105ba575060069850106105a0575b5050600189811b0190556103ea565b8b013560001960038c901b60f8161c191690553880610591565b8301358455602098890198600190940193909201918c915061057e565b630f018e4960e21b60005260046000fd5b61060a915060203d602011610610575b6106028183613d8d565b810190614020565b386102f0565b503d6105f8565b6040513d6000823e3d90fd5b6106439150843d8611610649575b61063b8183613d8d565b810190613fce565b386102c3565b503d610631565b3461000e57602036600319011261000e5760043580600052600660205260ff600b6040600020015460201c1615610abd57610689614cfd565b610691614cc1565b806000526006602052604060002081600052600460205260ff600360406000200154166004811015610a9657600114610aac576001810180549160ff83166007811015610a9657600403610a855760078101548015610a74574210610a63576002810180549093600b92916001600160a01b0316151580610a56575b15610a0c5750610793610788600a83015460646107578161073e6001600160401b036107376155de565b1685613fa1565b04926001600160401b03610750615616565b1690613fa1565b049060018060a01b03885416600052600560205261077b6040600020918254613fc1565b9055600984015490613fc1565b600583015490613fc1565b60018060a01b03845460101c1660005260056020526107b86040600020918254613fc1565b905501805462ffff00191690555b81546001600160a01b031660008181526002602052604090206004015460ff16610962575b50805460101c6001600160a01b031660008181526002602052604090206004015460ff166108b5575b50600660ff1982541617815560018060a01b03905460101c166000526002602052600260406000200161084781546146ff565b9055546001600160a01b031680610893575b507f69c3ad79d0e13d549ed2cf8009be68e25ffa6a38699d0e1983d13a7e3a77e1c6600080a2600160008051602061587183398151915255005b600052600260205260026040600020016108ad81546146ff565b905581610859565b8060005260026020526001600160801b036003604060002001541663ffffffff6108dd6156e0565b1611156109195750805460101c6001600160a01b0316600090815260026020526040902060030180546001600160801b03191690555b83610814565b63ffffffff6109266156e0565b169060005260026020526001600160801b0361094d6003604060002001928284541661419c565b166001600160801b0319825416179055610913565b8060005260026020526001600160801b036003604060002001541663ffffffff61098a61568f565b1611156109c3575081546001600160a01b0316600090815260026020526040902060030180546001600160801b03191690555b836107eb565b63ffffffff6109d061568f565b169060005260026020526001600160801b036109f76003604060002001928284541661419c565b166001600160801b03198254161790556109bd565b610a1f6009830154600584015490613fc1565b9060018060a01b039060101c166000526005602052610a446040600020918254613fc1565b905501805462ffff00191690556107c6565b50600a820154151561070d565b6370affcf560e11b60005260046000fd5b631da7447960e21b60005260046000fd5b63fe89421760e01b60005260046000fd5b634e487b7160e01b600052602160045260246000fd5b63eff3ce5d60e01b60005260046000fd5b63da319dff60e01b60005260046000fd5b3461000e57608036600319011261000e5760043563ffffffff8116810361000e576024359060ff8216820361000e57602091610b1691610b0c613d02565b9160443591614ae1565b604051908152f35b3461000e57602036600319011261000e5760043560005260066020526040600020805490600181015460ff811660ff8260081c169260018060a01b0360028201541690610b6d60038201613e58565b91610b7a60048301613e58565b60058301549563ffffffff600685015416600785015491600886015493600987015495600b600a890154980154986040519d8e5260078b1015610a965761024060a08f9e8f9094610c119760ff9f96610c03976020850152610bdb81613f97565b604084015260101c6000196001851b01166060830152608082015201526102408d0190613d3b565b908b820360c08d0152613d3b565b9760e08a01526101008901526101208801526101408701526101608601526101808501528181166101a0850152818160081c1615156101c0850152818160101c1615156101e0850152818160181c16151561020085015260201c1615156102208301520390f35b3461000e57602036600319011261000e576004356024602060018060a01b036000541660405192838092633f784de560e11b82523360048301525afa801561061757610ccc91600091610d54575b50614a85565b610cd4614cfd565b80158015610d4a575b610d395780600a556000600080516020615811833981519152608060405160208152602160208201527f7365744d656d6265725374616b6550657263656e7461676546726f6d5374616b6040820152606560f81b6060820152a3005b630b417afb60e11b60005260046000fd5b5060648111610cdd565b610d6d915060203d6020116106495761063b8183613d8d565b83610cc6565b3461000e57608036600319011261000e57610d8c613cd6565b610d94613cec565b90604435906001600160a01b0382169081830361000e576000805160206158918339815191525460ff8160401c1615946001600160401b03821680159081610f6c575b6001149081610f62575b159081610f59575b50610f485767ffffffffffffffff19821660011760008051602061589183398151915255610e399186610f1b575b506001600160a01b031693610e2b85615579565b610e3483615579565b615579565b610e4161573b565b610e4961573b565b610e5161573b565b600160008051602061587183398151915255610e6b61573b565b60018060a01b03166001600160601b0360a01b60005416176000556001600160601b0360a01b60015416176001556001600160601b0360a01b600b541617600b5560006008556000600955606435600a55610ec257005b68ff0000000000000000196000805160206158918339815191525416600080516020615891833981519152557fc7f505b2f371ae2175ee4913f4499e1f2633a7b5936321eed1cdaeb6115181d2602060405160018152a1005b68ffffffffffffffffff191668010000000000000001176000805160206158918339815191525586610e17565b63f92ee8a960e01b60005260046000fd5b90501587610de9565b303b159150610de1565b879150610dd7565b3461000e57602036600319011261000e576001600160a01b03610f95613cd6565b1660005260056020526020604060002054604051908152f35b3461000e57602036600319011261000e5760043580600052600660205260ff600b6040600020015460201c1615610abd5760008181526006602052604090206001015460101c6001600160a01b031633036110635761100b614cfd565b806000526006602052600160406000200160ff8154166007811015610a9657600203610a8557805460ff191660031790557fe0a3eabfba8d6b242de244fdd6f0372ee66d472686b2cfd89420ef24c0462201600080a2005b63eabf778760e01b60005260046000fd5b3461000e5761108236613efc565b94939184600094929452600660205260ff600b6040600020015460201c1615610abd576000858152600660205260409020600201546001600160a01b0316330361148e576110ce614cfd565b600054604051633f784de560e11b8152336004820152906001600160a01b0316602082602481845afa908115610617576111156020926004946000916114be575015613fe6565b604051638da5cb5b60e01b815292839182905afa80156106175761114c9160009161149f57506001600160a01b031633141561403f565b846000526006602052604060002060ff6001820154166007811015610a9657600403610a855760028101546001600160a01b03978816971687900361148e57600086815260046020526040902060018101546001600160a01b031615159081611473575b506114625760070154936040519160c08301908382106001600160401b0383111761054d576111f8916040526111e7368688613dc9565b845260208401928984523691613dc9565b946040830195865260608301956001875260808401926000845260a08501928352886000526004602052604060002094518051906001600160401b03821161054d5761124e826112488954613e1e565b89614157565b602090601f83116001146113fb5761127e9291600091836113f05750508160011b916000199060031b1c19161790565b85555b516001850180546001600160a01b0319166001600160a01b039290921691909117905551805160028501916001600160401b03821161054d576112ce826112c88554613e1e565b85614157565b602090601f8311600114611389576112fe92916000918361137e5750508160011b916000199060031b1c19161790565b90555b600383019551916004831015610a96577f9989978868daa22b7a8a054a31e686ab83a420750a2a60b58facca87bf7c12199660ff61135e926004958280198554169116178355511661ff0082549160081b169061ff001916179055565b51910155611379604051928392602084526020840191614ac0565b0390a3005b015190508c8061046a565b90601f1983169184600052816000209260005b8181106113d857509084600195949392106113bf575b505050811b019055611301565b015160001960f88460031b161c191690558b80806113b2565b9293602060018192878601518155019501930161139c565b015190508d8061046a565b90601f1983169188600052816000209260005b81811061144a5750908460019594939210611431575b505050811b018555611281565b015160001960f88460031b161c191690558c8080611424565b9293602060018192878601518155019501930161140e565b63710b41a360e01b60005260046000fd5b60ff915060030154166004811015610a9657600114886111b0565b631e50374d60e01b60005260046000fd5b6114b8915060203d602011610610576106028183613d8d565b886102f0565b6114d59150843d86116106495761063b8183613d8d565b8b6102c3565b3461000e57600036600319011261000e57600054604051633f784de560e11b815233600482015290602090829060249082906001600160a01b03165afa80156106175761152f916000916115c05750614a85565b611537614cc1565b61153f614cfd565b600954600060095561156b60008080808560018060a01b03600b54165af161156561474e565b5061477e565b600060008051602061581183398151915260606040516020815260166020820152751dda5d1a191c985dd51bd4de5cdd195b55d85b1b195d60521b6040820152a3600160008051602061587183398151915255005b6115d9915060203d6020116106495761063b8183613d8d565b82610cc6565b3461000e57604036600319011261000e576004356115fb613cec565b9080600052600660205260ff600b6040600020015460201c1615610abd57611621614cc1565b600054604051633f784de560e11b8152336004820152906001600160a01b0316602082602481845afa908115610617576116686020926004946000916119e0575015613fe6565b604051638da5cb5b60e01b815292839182905afa80156106175761169f916000916119c157506001600160a01b031633141561403f565b6116a7614cfd565b60008181526006602052604090206001810180546001600160a01b0394851694919291601082901c16851415806119aa575b6119995760ff166007811015610a9657600403610a85576002810180546001600160a01b031691908583036118d857600b9250600a820154906117616064611747816117356001600160401b0361172e6155de565b1687613fa1565b04946001600160401b03610750615616565b049261175c6009860154600587015490613fc1565b613fc1565b60018060a01b03865460101c1660005260056020526117866040600020918254613fc1565b9055546001600160a01b03166000908152600560205260409020805490916117ad91613fc1565b905501805462ffff00191690555b600660ff1982541617905581600052600260205260ff60046040600020015416611836575b81600052600260205260026040600020016117fb81546146ff565b90557f19f7047fbece8b5fc78b72bcce829a232f26b08806e65852e2e4afb96572b365600080a3600160008051602061587183398151915255005b8160005260026020526001600160801b03600360406000200154166001600160401b0361186161563b565b16111561188c5781600052600260205260036040600020016001600160801b031981541690556117e0565b6001600160401b0361189c61563b565b168260005260026020526001600160801b036118c36003604060002001928284541661419c565b166001600160801b03198254161790556117e0565b508115611988576009810154600b9261193661192b606461191f8161190d6001600160401b036119066155de565b1688613fa1565b04956001600160401b03610750615616565b04600586015490613fc1565b92600a850154613fc1565b90600052600560205261194f6040600020918254613fc1565b905560018060a01b03845460101c1660005260056020526119766040600020918254613fc1565b905501805462ffff00191690556117bb565b6316f1484160e01b60005260046000fd5b6389f5ad6160e01b60005260046000fd5b5060028201546001600160a01b03168514156116d9565b6119da915060203d602011610610576106028183613d8d565b846102f0565b6119f79150843d86116106495761063b8183613d8d565b876102c3565b3461000e57602036600319011261000e576004611a18613cd6565b600054604051638da5cb5b60e01b81529260209184919082906001600160a01b03165afa91821561061757600092611a62918491611acf575b506001600160a01b031633146147bc565b611a6a614cfd565b611a7381615579565b60018060a01b0316806001600160601b0360a01b600154161760015560008051602061581183398151915260606040516020815260156020820152746368616e676553746174655661724164647265737360581b6040820152a3005b611ae8915060203d602011610610576106028183613d8d565b84611a51565b3461000e57600036600319011261000e57600b546040516001600160a01b039091168152602090f35b3461000e57600036600319011261000e57611b5e6040805190611b3a8183613d8d565b60058252640352e302e360dc1b602083015251918291602083526020830190613d3b565b0390f35b3461000e57604036600319011261000e5760243560043560005260076020526040600020805482101561000e5760a091611b9b91613f65565b5060ff600180841b03825416916002600182015491015490828216906040519485526020850152611bcb81613f97565b6040840152818160081c161515606084015260101c1615156080820152f35b3461000e57604036600319011261000e57600435611c06613cec565b611c0e614cc1565b33600052600260205260ff6004604060002001541615611cea57816020917fd078b251d950cc55c44340be1db732337ef4939a76e1367ee271ad2cb19c46af93600052600683526009604060002060018101600660ff19825416179055600b810164ff00ff000019815416905560058101549260018060a01b0316928360005260058652611ca26040600020918254613fc1565b905501549081611cca575b5050604051908152a1600160008051602061587183398151915255005b60005260058352611ce16040600020918254613fc1565b90558380611cad565b63aba4733960e01b60005260046000fd5b3461000e57602036600319011261000e576001600160a01b03611d1c613cd6565b16600052600260205260406000208054611b5e600183015492611da8600282015491600381015460ff60048301541690611d646006611d5d60058601613e58565b9401613e58565b946040519889988952602089015260408801526001600160801b038116606088015260801c6080870152151560a086015261010060c0860152610100850190613d3b565b9083820360e0850152613d3b565b604036600319011261000e57600435611dcd613cec565b9080600052600660205260ff600b6040600020015460201c1615610abd57611df3614cfd565b33600052600260205260ff6004604060002001541615611cea57600054604051633f784de560e11b8152336004820152906001600160a01b0316602082602481845afa90811561061757611e546020926004946000916119e0575015613fe6565b604051638da5cb5b60e01b815292839182905afa801561061757611e8b916000916119c157506001600160a01b031633141561403f565b611e9633151561407d565b60008181526006602090815260408083206007909252822080546001600160a01b039095169491925b8281106120cd575050506001015460ff81166007811015610a9657600303610a855760101c6001600160a01b03168214610a8557611efc8161470e565b60015460405163baa20a3960e01b815290602090829060049082906001600160a01b03165afa8015610617578291600091612098575b50106120875734036120765780600052600760205260406000206040519060a082018281106001600160401b0382111761054d576040528382526020820190348252604083019160018352606084016001815260808501926000845280546801000000000000000081101561054d57611fb091600182018155613f65565b959095612060575185546001600160a01b0319166001600160a01b0391909116178555905160018501559151612034936002019261201b91611ff181613f97565b611ffa81613f97565b8454915161ffff1990921660ff919091161790151560081b61ff0016178355565b51815462ff0000191690151560101b62ff000016179055565b7f716834564cb7c8e3d64d2045110836bf24ec2665f21cca881de739333c6d62d76020604051348152a3005b634e487b7160e01b600052600060045260246000fd5b6378de4a6960e11b60005260046000fd5b63c9e0390760e01b60005260046000fd5b9150506020813d6020116120c5575b816120b460209383613d8d565b8101031261000e5781905185611f32565b3d91506120a7565b856120d88284613f65565b50546001600160a01b03161480612107575b6120f657600101611ebf565b6353efb1e560e01b60005260046000fd5b5060ff60026121168385613f65565b50015460081c166120ea565b3461000e57602036600319011261000e5761213b613cd6565b600054604051638da5cb5b60e01b8152916020836004816001600160a01b0386165afa928315610617576000936121839185916121eb57506001600160a01b031633146147bc565b61218b614cfd565b61219481615579565b60018060a01b031680916001600160601b0360a01b16178255600080516020615811833981519152606060405160208152601360208201527218da185b99d95058d8d95cdcd0dbdb9d1c9bdb606a1b6040820152a3005b612204915060203d602011610610576106028183613d8d565b85611a51565b3461000e57604036600319011261000e57600435612226613cec565b81600052600660205260ff600b6040600020015460201c1615610abd5760008281526006602052604090206001015460101c6001600160a01b031633036110635761226f614cc1565b612277614cfd565b60008281526007602090815260408083206006909252822091926001600160a01b0316835b825481101561243f57816122b08285613f65565b50546001600160a01b03161480612424575b6122ce5760010161229c565b9050600292935081836122e48361235d95613f65565b5001805461ff0019169055836122fa8383613f65565b5001805460ff1916851790556123108282613f65565b505485850180546001600160a01b0319166001600160a01b0392909216919091179055600161233f8383613f65565b500154600a860155600060016123558484613f65565b500155613f65565b5001805462ff0000191662010000179055600b8101805461ff00191661010017905561238960016147f4565b63ffffffff600682015416610e10810290808204610e10149015171561240e576123b39042613fc1565b600782015560018101805460ff19166004179055600201546001600160a01b0316907fa15a372eebffa78fac354b5e2229bc1a3bad4e94c881acfb6f86d381c50ba794600080a3600160008051602061587183398151915255005b634e487b7160e01b600052601160045260246000fd5b5060ff60026124338386613f65565b50015460081c166122c2565b50505090612389906147f4565b3461000e57602036600319011261000e576004612467613cd6565b600054604051638da5cb5b60e01b81529260209184919082906001600160a01b03165afa918215610617576000926124b0918491611acf57506001600160a01b031633146147bc565b6124b8614cfd565b6001600160a01b03166124ca81615579565b806001600160601b0360a01b600b541617600b55600080516020615811833981519152606060405160208152601260208201527118da185b99d954de5cdd195b5dd85b1b195d60721b6040820152a3005b3461000e57602036600319011261000e576004356000526003602052602060ff604060002054166040519015158152f35b3461000e57600036600319011261000e576001546040516001600160a01b039091168152602090f35b3461000e57602036600319011261000e576004612590613cd6565b600054604051638da5cb5b60e01b81529260209184919082906001600160a01b03165afa918215610617576000926125d9918491611acf57506001600160a01b031633146147bc565b6125e1614cfd565b600160ff19600080516020615851833981519152541617600080516020615851833981519152557f62e78cea01bee320cd4e420270b5ea74000d11b0c9f74754ebdbfc544b05a2586020604051338152a160008051602061581183398151915260606040519260208452600f60208501526e18dbdb9d1c9858dd081c185d5cd959608a1b604085015260018060a01b031692a3005b3461000e5761268436613efc565b9385600094929452600660205260ff600b6040600020015460201c1615610abd576000868152600660205260409020600201546001600160a01b0316330361148e576126ce614cfd565b600054604051633f784de560e11b815233600482015296906001600160a01b0316602088602481845afa9081156106175761271660209260049a6000916114be575015613fe6565b604051638da5cb5b60e01b815298899182905afa96871561061757612757976127529160009161275957506001600160a01b031633141561403f565b614834565b005b612772915060203d602011610610576106028183613d8d565b896102f0565b3461000e57604036600319011261000e57600435612794613cec565b81600052600660205260ff600b6040600020015460201c1615610abd5760008281526006602052604090206001015460101c6001600160a01b0316330361106357906127de614cc1565b6127e6614cfd565b60008181526007602052604081206001600160a01b0390931692909190825b81548110156128ff57846128198284613f65565b50546001600160a01b031614806128e4575b61283757600101612805565b8192935080600261284c612875938295613f65565b5001805461ff001916905560016128638286613f65565b50015493600060016123558484613f65565b50016201000062ff00001982541617905582600052600560205261289f6040600020918254613fc1565b90556128ab60016147f4565b7f659db9764efb778e1b0294e020cbc7f55b198481945e7dd60910f555b27399dc600080a3600160008051602061587183398151915255005b5060ff60026128f38385613f65565b50015460081c1661282b565b5050906128ab906147f4565b3461000e57600036600319011261000e576020600954604051908152f35b3461000e57602036600319011261000e5760043580600052600660205260ff600b6040600020015460201c1615610abd5760008181526006602052604090206001015460101c6001600160a01b0316330361106357612986614cfd565b806000526006602052600160406000200160ff8154166007811015610a9657600303610a8557805460ff191660021790557f383b6ce38b867405b4f42fa404692e07842868068badd063c9bfeb0e7f263f62600080a2005b3461000e57600036600319011261000e57602060ff60008051602061585183398151915254166040519015158152f35b3461000e57600036600319011261000e576020600854604051908152f35b3461000e57602036600319011261000e57612a45613cd6565b600054604051638da5cb5b60e01b815290602090829060049082906001600160a01b03165afa801561061757612a8d91600091612b3f57506001600160a01b031633146147bc565b600080516020615851833981519152549060ff821615612b2e5760009160ff1916600080516020615851833981519152557f5db9ee0a495bf2e6ff9c91a7834c1ba4fdd244a5e8aa4e537bd38aeae4b073aa6020604051338152a160008051602061581183398151915260606040519260208452601160208501527018dbdb9d1c9858dd08155b9c185d5cd959607a1b604085015260018060a01b031692a3005b638dfc202b60e01b60005260046000fd5b612b58915060203d602011610610576106028183613d8d565b83611a51565b3461000e57600036600319011261000e576020600a54604051908152f35b3461000e57600036600319011261000e577f00000000000000000000000000000000000000000000000000000000000000006001600160a01b03163003612bd55760206040516000805160206158318339815191528152f35b63703e46dd60e11b60005260046000fd5b3461000e57602036600319011261000e57612bff613cd6565b612c07614cc1565b600054604051633f784de560e11b8152336004820152906001600160a01b0316602082602481845afa90811561061757612c4e602092600494600091612d1b575015613fe6565b604051638da5cb5b60e01b815292839182905afa801561061757612c8591600091612cfc57506001600160a01b031633141561403f565b612c8d614cfd565b6001600160a01b0316600081815260056020908152604082208054908390557f7fcf532c15f0a6db0bd6d0e038bea71d30d808c7d98cb3bf7268a95bf5081b6592612ce19080808085895af161156561474e565b604051908152a2600160008051602061587183398151915255005b612d15915060203d602011610610576106028183613d8d565b836102f0565b612d329150843d86116106495761063b8183613d8d565b866102c3565b3461000e57602036600319011261000e5760043560005260046020526040600020612d6281613e58565b9060018060a01b0360018201541690612d7d60028201613e58565b612db8600383015493600460ff861694015492612da56040519760c0895260c0890190613d3b565b9160208801528682036040880152613d3b565b916004811015610a9657849360ff91606086015260081c16608084015260a08301520390f35b604036600319011261000e57612df2613cd6565b6024356001600160401b03811161000e573660238201121561000e57612e22903690602481600401359101613dc9565b6001600160a01b037f000000000000000000000000000000000000000000000000000000000000000016308114908115612fef575b50612bd557600054604051638da5cb5b60e01b815290602090829060049082906001600160a01b03165afa801561061757612ea491600091611acf57506001600160a01b031633146147bc565b612eac614cfd565b6040516352d1902d60e01b81526001600160a01b0383169290602081600481875afa60009181612fbb575b50612ef15783634c9c8ce360e01b60005260045260246000fd5b80600080516020615831833981519152859203612fa75750813b15612f935760008051602061583183398151915280546001600160a01b031916821790557fbc7cd75a20ee27fd9adebab32041f755214dbc6bffa90cc0225b39da2e5c2d3b600080a2815115612f795760008083602061275795519101845af4612f7361474e565b916157af565b505034612f8257005b63b398979f60e01b60005260046000fd5b634c9c8ce360e01b60005260045260246000fd5b632a87526960e21b60005260045260246000fd5b9091506020813d602011612fe7575b81612fd760209383613d8d565b8101031261000e57519085612ed7565b3d9150612fca565b600080516020615831833981519152546001600160a01b03161415905083612e57565b3461000e57602036600319011261000e576020610b1660043561470e565b60a036600319011261000e576004356001600160401b03811161000e5761305b903690600401613e00565b6024356001600160401b03811161000e5761307a903690600401613e00565b6044359063ffffffff82169283830361000e576064359160ff831680840361000e57608435946001600160a01b038616860361000e576130b8614cfd565b33600052600260205260ff6004604060002001541615611cea576130da614cc1565b600054604051633f784de560e11b815233600482015291906001600160a01b0316602083602481845afa90811561061757613122602092600495600091613657575015613fe6565b604051638da5cb5b60e01b815293849182905afa9081156106175761315f88926131819460009161363857506001600160a01b031633141561403f565b61316a33151561407d565b6131756008546146ff565b9687600855349161513b565b956040519261024084018481106001600160401b0382111761054d576040528584526020840197600189526131b581613f97565b604085015260018060a01b0387166060850152600060808501528460a085015260c08401523460e0840152610100830152600061012083015242610140830152600061016083015260006101808301526101a082015260006101c082015260006101e0820152600061020082015260016102208201528260005260066020526040600020948151865551946007861015610a965760009560ff80196001840154169116176001820155604082015161326c81613f97565b61327581613f97565b6001820180546060850151610100600160b01b031990911660089390931b61ff00169290921760109290921b62010000600160b01b031691909117905560808201516002820180546001600160a01b0319166001600160a01b039290921691909117905560a08201518051906001600160401b0382116135b057613309826133006003860154613e1e565b60038601614157565b602090601f83116001146135cf5761333892918991836135c45750508160011b916000199060031b1c19161790565b60038201555b60c08201518051906001600160401b0382116135b05761336e826133656004860154613e1e565b60048601614157565b60209088601f841160011461351757936133cb846134e6979561022095600b957f9dda774dc9cd26aa151d38f0382b90219cad43a5beafe7761bf9ace382799cb39b99926113f05750508160011b916000199060031b1c19161790565b60048201555b60e084015160058201556006810163ffffffff6101008601511663ffffffff19825416179055610120840151600782015561014084015160088201556101608401516009820155610180840151600a820155019160ff6101a08201511660ff1984541617835561345b6101c08201511515849061ff00825491151560081b169061ff001916179055565b6101e0810151835462ff0000191690151560101b62ff0000161783556102008101518354929091015164ffff0000001990921690151560181b63ff0000001617901515602090811b64ff0000000016919091179091556001600160a01b0386168752600290526040862080546134d0906146ff565b9055604051918291606083526060830190613d3b565b346020830152604082018790526001600160a01b03909516940390a360016000805160206158718339815191525580f35b509060048401895280892091895b601f198516811061359857509360018461022094600b947f9dda774dc9cd26aa151d38f0382b90219cad43a5beafe7761bf9ace382799cb39a986134e69a98601f1981161061357f575b505050811b0160048201556133d1565b015160001960f88460031b161c191690558c808061356f565b91926020600181928685015181550194019201613525565b634e487b7160e01b88526041600452602488fd5b01519050898061046a565b6003840189528189209190601f1984168a5b8181106136205750908460019594939210613607575b505050811b01600382015561333e565b015160001960f88460031b161c191690558880806135f7565b929360206001819287860151815501950193016135e1565b613651915060203d602011610610576106028183613d8d565b8b6102f0565b61366e9150843d86116106495761063b8183613d8d565b8c6102c3565b3461000e57604036600319011261000e5761368d613cec565b613695614cc1565b33600052600260205260ff6004604060002001541615611cea576136bb906004356145a5565b600160008051602061587183398151915255005b3461000e57602036600319011261000e5760043580600052600660205260ff600b6040600020015460201c1615610abd57613708614cfd565b60005260066020526020610b16604060002063ffffffff6006820154169060ff600b820154166005820154916001808060a01b0391015460101c1692614ae1565b3461000e57602036600319011261000e5760043560005260076020526020604060002054604051908152f35b3461000e57606036600319011261000e576004356024356001600160401b03811161000e576137a8903690600401613d60565b82600093929352600660205260ff600b6040600020015460201c1615610abd5760008281526006602052604090206001015460101c6001600160a01b0316330361106357612757926137f8614cfd565b604435926141bc565b3461000e57602036600319011261000e5761381a613cd6565b33600052600260205260ff6004604060002001541615611cea57600054604051633f784de560e11b8152336004820152906001600160a01b0316602082602481845afa9081156106175761387b602092600494600091612d1b575015613fe6565b604051638da5cb5b60e01b815292839182905afa8015610617576138b291600091612cfc57506001600160a01b031633141561403f565b6138bd33151561407d565b6001600160a01b0316600081815260026020526040908190209051906101008201906001600160401b0382118383101761054d5783926001600160801b036139e7927f9e5018ee7d6d2d38c3282ec3d1bfeadd0d8129dce80e06a127569ad99565fc7f9460405280548352600181015460208401526002810154604084015260e06003820154938385166060820152608081019460801c855260ff600484015416151560a0820152613984600661397660058601613e58565b9460c0840195865201613e58565b91829101526040516139b7602082816139a68183019687815193849201613d18565b81010301601f198101835282613d8d565b5190206000526003602052604060002060ff19815416905551915116604051928392604084526040840190613d3b565b9060208301520390a26000526002602052613a34600660406000206000815560006001820155600060028201556000600382015560006004820155613a2e600582016140e0565b016140e0565b611b5e6040805190613a468183613d8d565b601782527f556e7265676973746572205375636365737366756c6c79000000000000000000602083015251918291602083526020830190613d3b565b3461000e57600036600319011261000e576000546040516001600160a01b039091168152602090f35b3461000e57602036600319011261000e5760043580600052600660205260ff600b6040600020015460201c1615610abd5760008181526006602052604090206001015460101c6001600160a01b03163303611063576136bb90613b0c614cc1565b613b14614cfd565b614d66565b602036600319011261000e5760043580600052600660205260ff600b6040600020015460201c1615610abd5760008181526006602052604090206001015460101c6001600160a01b0316330361106357613b71614cc1565b613b79614cfd565b80600052600660205260406000206001810190815460ff81166007811015610a9657600103610a8557613bd263ffffffff600684015416600b84019260ff84541660058601549160018060a01b039060101c1692614ae1565b3403613cc55760015460405162d1e93b60e31b81529390602090859060049082906001600160a01b03165afa93841561061757613c276001600160401b03613c5a96606493600091613c96575b501634613fa1565b04926009613c358534613fb4565b910155805460ff19166002179055805462ff0000191662010000179055600954613fc1565b6009557f96de4d43d5265ced55b252018f405ed224e0ed3f7c992a8d0115626700feda3e600080a2600160008051602061587183398151915255005b613cb8915060203d602011613cbe575b613cb08183613d8d565b810190614d27565b89613c1f565b503d613ca6565b634581e82760e01b60005260046000fd5b600435906001600160a01b038216820361000e57565b602435906001600160a01b038216820361000e57565b606435906001600160a01b038216820361000e57565b60005b838110613d2b5750506000910152565b8181015183820152602001613d1b565b90602091613d5481518092818552858086019101613d18565b601f01601f1916010190565b9181601f8401121561000e578235916001600160401b03831161000e576020838186019501011161000e57565b90601f801991011681019081106001600160401b0382111761054d57604052565b6001600160401b03811161054d57601f01601f191660200190565b929192613dd582613dae565b91613de36040519384613d8d565b82948184528183011161000e578281602093846000960137010152565b9080601f8301121561000e57816020613e1b93359101613dc9565b90565b90600182811c92168015613e4e575b6020831014613e3857565b634e487b7160e01b600052602260045260246000fd5b91607f1691613e2d565b9060405191826000825492613e6c84613e1e565b8084529360018116908115613eda5750600114613e93575b50613e9192500383613d8d565b565b90506000929192526020600020906000915b818310613ebe575050906020613e919282010138613e84565b6020919350806001915483858901015201910190918492613ea5565b905060209250613e9194915060ff191682840152151560051b82010138613e84565b90608060031983011261000e57600435916024356001600160401b03811161000e5781613f2b91600401613d60565b92909291604435906001600160401b03821161000e57613f4d91600401613d60565b90916064356001600160a01b038116810361000e5790565b8054821015613f81576000526003602060002091020190600090565b634e487b7160e01b600052603260045260246000fd5b60061115610a9657565b8181029291811591840414171561240e57565b9190820391821161240e57565b9190820180921161240e57565b9081602091031261000e5751801515810361000e5790565b15613fed57565b60405162461bcd60e51b815260206004820152600b60248201526a497320656d706c6f79656560a81b6044820152606490fd5b9081602091031261000e57516001600160a01b038116810361000e5790565b1561404657565b60405162461bcd60e51b815260206004820152600f60248201526e21b0b63632b91034b99037bbb732b960891b6044820152606490fd5b1561408457565b60405162461bcd60e51b815260206004820152601d60248201527f63616c6c65722069732063616e74206265207a65726f206164647220210000006044820152606490fd5b8181106140d4575050565b600081556001016140c9565b6140ea8154613e1e565b90816140f4575050565b81601f60009311600114614106575055565b8183526020832061412291601f0160051c8101906001016140c9565b8082528160208120915555565b90601f811161413c575050565b613e9191600052601f6020600020910160051c8101906140c9565b9190601f811161416657505050565b613e91926000526020600020906020601f840160051c83019310614192575b601f0160051c01906140c9565b9091508190614185565b906001600160801b03809116911603906001600160801b03821161240e57565b929190918360005260066020526040600020928460005260046020526040600020926004602060018060a01b0360015416604051928380926241930960e91b82525afa9081156106175784916001600160401b0391600091614586575b501610610a7457600384019360ff8554166004811015610a9657600103610a8557610e10840293808504610e10149015171561240e57845460ff19166002908117865501916001600160401b03821161054d5761427a826112c88554613e1e565b600090601f8311600114614522576142aa9291600091836104bc5750508160011b916000199060031b1c19161790565b90555b60ff825460081c169060ff821461240e576142df60016142e59301849061ff0082549160081b169061ff001916179055565b42613fc1565b9160078101928355815460ff600b8301541660ff8260081c16116144f157509160ff60409260018560027f33edbe073d61cf304f0e11256ba07aefb7e60a754d1e12a0f07e5b29cb3d73219701828060a01b0381541680600052600260205285600489600020015416614444575b505001805460101c6001600160a01b031660008181526002602052869020600401548416614392575b50505460081c16905482519182526020820152a2565b8060005260026020526001600160801b036003876000200154166001600160401b036143bc6150ea565b1611156143f757505460101c6001600160a01b03166000908152600260205284902060030180546001600160801b03191690555b388061437c565b90506001600160401b036144096150ea565b169060005260026020526001600160801b0361442f60038760002001928284541661419c565b166001600160801b03198254161790556143f0565b8060005260026020526001600160801b036003896000200154166001600160401b0361446e6150ea565b1611156144a45750828060a01b039054166000526002602052600386600020016001600160801b031981541690555b3880614353565b90506001600160401b036144b66150ea565b169060005260026020526001600160801b036144dc60038960002001928284541661419c565b166001600160801b031982541617905561449d565b60ff16925050506004811015610a96576001036145195763eff3ce5d60e01b60005260046000fd5b613e9190614d66565b8382526020822091601f198416815b81811061456e5750908460019594939210614554575b505050811b0190556142ad565b0135600019600384901b60f8161c19169055388080614547565b91936020600181928787013581550195019201614531565b61459f915060203d602011613cbe57613cb08183613d8d565b38614219565b9081600052600760205260406000209160005b83548110156146c5576145cb8185613f65565b50546001600160a01b0384811691168114806146aa575b8061468e575b6145f557506001016145b8565b93919250600161464982600261460d60009587613f65565b5001805461ff001916905560026146248287613f65565b5001805462ff0000191662010000179055826146408287613f65565b50015494613f65565b5001558260005260056020526146656040600020918254613fc1565b90557f7d8891f107b48a85b66c4f2654182303b5c3b3926287bae8e33ea57f91909a37600080a3565b5060ff600261469d8488613f65565b50015460101c16156145e8565b5060ff60026146b98488613f65565b50015460081c166145e2565b60405162461bcd60e51b81526020600482015260126024820152711b9bc81c195b991a5b99c81c995c5d595cdd60721b6044820152606490fd5b600019811461240e5760010190565b80600052600660205260ff600b6040600020015460201c1615610abd576000526006602052606461474a600560406000200154600a5490613fa1565b0490565b3d15614779573d9061475f82613dae565b9161476d6040519384613d8d565b82523d6000602084013e565b606090565b1561478557565b60405162461bcd60e51b815260206004820152600f60248201526e1dda5d1a191c985dc819985a5b1959608a1b6044820152606490fd5b156147c357565b60405162461bcd60e51b81526020600482015260096024820152682737ba1037bbb732b960b91b6044820152606490fd5b156147fb57565b60405162461bcd60e51b81526020600482015260116024820152701c995c5d595cdd081b9bdd08199bdd5b99607a1b6044820152606490fd5b9391929084600052600660205260406000209085600052600460205260406000209460018060a01b0360018701541615614a745760028301546001600160a01b03988916981688900361148e576003860192835460ff8116916004831015610a965760028303610a855760ff600b81920154169160081c1611614a4f575060028601916001600160401b03821161054d576148d3826112c88554613e1e565b600090601f83116001146149eb576149039291600091836104bc5750508160011b916000199060031b1c19161790565b90555b805460ff191660011790556001600160401b03821161054d5761492d826112c88554613e1e565b600090601f83116001146149875761495d9291600091836104bc5750508160011b916000199060031b1c19161790565b90555b7fd91178918ec22e991ec5103aaa21661df1d5ddfeee4571007ad649225c0dad28600080a3565b8382526020822091601f198416815b8181106149d357509084600195949392106149b9575b505050811b019055614960565b0135600019600384901b60f8161c191690553880806149ac565b91936020600181928787013581550195019201614996565b8382526020822091601f198416815b818110614a375750908460019594939210614a1d575b505050811b019055614906565b0135600019600384901b60f8161c19169055388080614a10565b919360206001819287870135815501950192016149fa565b955050505050506001919250146000146145195763eff3ce5d60e01b60005260046000fd5b631534b94560e21b60005260046000fd5b15614a8c57565b60405162461bcd60e51b815260206004820152600c60248201526b4e6f7420656d706c6f79656560a01b6044820152606490fd5b908060209392818452848401376000828201840152601f01601f1916010190565b90614aed93929161513b565b614af681613f97565b80614b6357506001546040516394fb86e560e01b815290602090829060049082906001600160a01b03165afa90811561061757600091614b34575090565b90506020813d602011614b5b575b81614b4f60209383613d8d565b8101031261000e575190565b3d9150614b42565b614b6c81613f97565b60018103614bad575060015460405163156bebd960e21b815290602090829060049082906001600160a01b03165afa90811561061757600091614b34575090565b614bb681613f97565b60028103614bf757506001546040516312c23eb160e01b815290602090829060049082906001600160a01b03165afa90811561061757600091614b34575090565b614c0081613f97565b60038103614c405750600154604051628f2c6560e71b815290602090829060049082906001600160a01b03165afa90811561061757600091614b34575090565b600490614c4c81613f97565b03614c895760015460405163ca218d7d60e01b815290602090829060049082906001600160a01b03165afa90811561061757600091614b34575090565b6001546040516325ac29e160e01b815290602090829060049082906001600160a01b03165afa90811561061757600091614b34575090565b60026000805160206158718339815191525414614cec57600260008051602061587183398151915255565b633ee5aeb560e01b60005260046000fd5b60ff6000805160206158518339815191525416614d1657565b63d93c066560e01b60005260046000fd5b9081602091031261000e57516001600160401b038116810361000e5790565b906001600160801b03809116911601906001600160801b03821161240e57565b806000526006602052604060002081600052600460205260406000206001820160ff8154166007811015610a9657600403610a8557600382019260ff8454166004811015610a96576001036150d957600b810191600160ff845460181c161515146150c8576001840180549093906001600160a01b031615614a7457614df56005840154600a85015490613fc1565b926002600982015491019360018060a01b038554166000526005602052614e226040600020918254613fc1565b905560018060a01b03835460101c166000526005602052614e496040600020918254613fc1565b9055805463ffffff0019166301000000179055805460ff1916600517815581546001600160a01b031660008181526002602052604090206004015460ff1661502f575b50805460101c6001600160a01b031660008181526002602052604090206004015460ff16614f7f575b5091600094916004949360018060a01b03905460101c168652600260205260016040872001614ee481546146ff565b9055546001600160a01b031685526002602052604085206001018054614f09906146ff565b9055614f1e614f188454613e1e565b8461412f565b8483556001600160601b0360a01b81541690558360028301614f49614f438254613e1e565b8261412f565b55805461ffff1916600317905501557f3e9d27a1c2a828db29e4b2a17fbd1bc70201ef21aec4f74b9fa051b02e38e3f0600080a2565b94916004949391602060018060a01b03600154166040519788809263b30e0be360e01b82525afa8015610617576000976004978992614ffe575b50885260026020526001600160801b03614fe363ffffffff600360408c2001931682845416614d46565b166001600160801b0319825416179055919394509194614eb5565b61502191925060203d602011615028575b6150198183613d8d565b810190615673565b9038614fb9565b503d61500f565b60015460405163c7d3f62f60e01b81529190602090839060049082906001600160a01b03165afa918215610617576000926150a7575b5060005260026020526001600160801b0361509163ffffffff6003604060002001931682845416614d46565b166001600160801b031982541617905538614e8c565b6150c191925060203d602011615028576150198183613d8d565b9038615065565b637dbbaaa960e01b60005260046000fd5b632901198f60e01b60005260046000fd5b600154604051637221ba7960e11b815290602090829060049082906001600160a01b03165afa90811561061757600091615122575090565b613e1b915060203d602011613cbe57613cb08183613d8d565b60015460405163a0d0124560e01b81526001600160a01b039091169493919291602082600481895afa9081156106175761519292600092615545575b50670de0b6b3a76400006001600160401b0391049116613fa1565b604051630963d67f60e21b815291602083600481895afa928315610617576151da936001600160401b03926151d392600092615521575b5060ff1690615718565b1690613fc1565b60405163c6de983960e01b81529092602082600481885afa918215610617576000926154ea575b506001600160801b0361521b6001600160401b0392615769565b16911602906001600160801b03821691820361240e5760405163778162d760e11b815291602083600481885afa9182156106175761527d615284936001600160401b03926001600160801b03966000926154c3575b5063ffffffff1690615718565b1690614d46565b168082116154b557505060005b670de0b6b3a7640000810290808204670de0b6b3a7640000149015171561240e576064900460405163a376ff7d60e01b8152602081600481865afa90811561061757600091615483575b5081116152e9575050600090565b6040516370ffe5a360e11b8152602081600481865afa90811561061757600091615451575b50811161531c575050600190565b6040516399206b0b60e01b8152602081600481865afa9081156106175760009161541f575b50811161534f575050600290565b6040516384afa48b60e01b8152602081600481865afa908115610617576000916153ed575b508111615382575050600390565b60206004926040519384809263813b79c160e01b82525afa918215610617576000926153b9575b50116153b457600490565b600590565b9091506020813d6020116153e5575b816153d560209383613d8d565b8101031261000e575190386153a9565b3d91506153c8565b90506020813d602011615417575b8161540860209383613d8d565b8101031261000e575138615374565b3d91506153fb565b90506020813d602011615449575b8161543a60209383613d8d565b8101031261000e575138615341565b3d915061542d565b90506020813d60201161547b575b8161546c60209383613d8d565b8101031261000e57513861530e565b3d915061545f565b90506020813d6020116154ad575b8161549e60209383613d8d565b8101031261000e5751386152db565b3d9150615491565b6154be91613fb4565b615291565b63ffffffff9192506154e39060203d602011613cbe57613cb08183613d8d565b9190615270565b6001600160401b0391925061521b6155186001600160801b039260203d602011613cbe57613cb08183613d8d565b93925050615201565b60ff91925061553e9060203d602011613cbe57613cb08183613d8d565b91906151c9565b6001600160401b03919250615571670de0b6b3a76400009160203d602011613cbe57613cb08183613d8d565b929150615177565b6001600160a01b03161561558957565b60405162461bcd60e51b815260206004820152602760248201527f416363657373436f6e74726f6c3a207a65726f2061646472657373206e6f7420604482015266185b1b1bddd95960ca1b6064820152608490fd5b600154604051630b7dadff60e01b815290602090829060049082906001600160a01b03165afa90811561061757600091615122575090565b6001600160401b036156266155de565b166064036001600160401b03811161240e5790565b60015460405163cf95838b60e01b815290602090829060049082906001600160a01b03165afa90811561061757600091615122575090565b9081602091031261000e575163ffffffff8116810361000e5790565b600154604051630d164b1d60e41b815290602090829060049082906001600160a01b03165afa908115610617576000916156c7575090565b613e1b915060203d602011615028576150198183613d8d565b600154604051633b8664cd60e11b815290602090829060049082906001600160a01b03165afa908115610617576000916156c7575090565b906001600160401b03809116911602906001600160401b03821691820361240e57565b60ff6000805160206158918339815191525460401c161561575857565b631afcd79f60e31b60005260046000fd5b6001600160a01b031660008181526002602052604090206004015460ff16156157a95760005260026020526001600160801b036003604060002001541690565b50600090565b906157d557508051156157c457602081519101fd5b63d6bda27560e01b60005260046000fd5b81511580615807575b6157e6575090565b639996b31560e01b60009081526001600160a01b0391909116600452602490fd5b50803b156157de56fe1bce747d41af8244f3246272f08510707b11c277f47de91efab942bd3802c940360894a13ba1a3210667c828492db98dca3e2076cc3735a920a3ca505d382bbccd5ed15c6e187e77e9aee88184c21f4f2182ab5827cb3b7e07fbedcd63f033009b779b17422d0df92223018b32b4d1fa46e071723d6817e2486d003becc55f00f0c57e16840df040f15088dc2f81fe391c3923bec73e23a9662efc9c229c6a00a26469706673582212200302594a8171a50c3c9c1d24611ea76aaf6f3fa5637632a36d8e41905ff2a37864736f6c634300081c0033",
  "linkReferences": {},
  "deployedLinkReferences": {}
}