{
	"data": {
		"bytecode": {
			"linkReferences": {},
			"object": "60a0806040523460295730608052610d04908161002e82396080518181816106b201526107820152f35b5f80fdfe6080806040526004361015610066575b50361561003e5734337f9a910e4510aced4a032c4797a04f4c9b32316bcde4dfc60c7c73d88f936428c85f80a3005b34337f9a910e4510aced4a032c4797a04f4c9b32316bcde4dfc60c7c73d88f936428c85f80a3005b5f3560e01c90816313007d5514610a50575080633f4ba83a1461096f5780634f1ef2861461070657806352d1902d146106a05780635c975abb146106725780638456cb591461056f5780639387730c146104a4578063a9059cbb146102c7578063ad3cb1cc146102695763c4d66de8146100e0575f61000f565b34610265576020366003190112610265576100f9610a72565b5f516020610caf5f395f51905f52549060ff8260401c16159167ffffffffffffffff81168015908161025d575b6001149081610253575b15908161024a575b5061023b5767ffffffffffffffff1981166001175f516020610caf5f395f51905f52558261020f575b5061016b81610b60565b610173610bc5565b61017b610bc5565b610183610bc5565b60015f516020610c8f5f395f51905f525560018060a01b03166bffffffffffffffffffffffff60a01b5f5416175f556101b857005b68ff0000000000000000195f516020610caf5f395f51905f5254165f516020610caf5f395f51905f52557fc7f505b2f371ae2175ee4913f4499e1f2633a7b5936321eed1cdaeb6115181d2602060405160018152a1005b68ffffffffffffffffff191668010000000000000001175f516020610caf5f395f51905f52555f610161565b63f92ee8a960e01b5f5260045ffd5b9050155f610138565b303b159150610130565b849150610126565b5f80fd5b34610265575f3660031901126102655760408051906102888183610a88565b600582526020820191640352e302e360dc1b83528151928391602083525180918160208501528484015e5f828201840152601f01601f19168101030190f35b34610265576040366003190112610265576004356001600160a01b03811690819003610265575f54604051638da5cb5b60e01b81526024359291602090829060049082906001600160a01b03165afa801561049957610338915f9161046a575b506001600160a01b03163314610af9565b60025f516020610c8f5f395f51905f52541461045b5760025f516020610c8f5f395f51905f52553315610416578015610407578147105f146103835763356680b760e01b5f5260045ffd5b5f80808085855af1610393610b31565b50156103d0577fae538a1b9462f6288da1c1912c6d7e22fc226dff723d1cc897cfc7727255ea705f80a360015f516020610c8f5f395f51905f5255005b60405162461bcd60e51b815260206004820152600f60248201526e1d1c985b9cd9995c8819985a5b1959608a1b6044820152606490fd5b63d92e233d60e01b5f5260045ffd5b60405162461bcd60e51b815260206004820152601d60248201527f63616c6c65722069732063616e74206265207a65726f206164647220210000006044820152606490fd5b633ee5aeb560e01b5f5260045ffd5b61048c915060203d602011610492575b6104848183610a88565b810190610ada565b84610327565b503d61047a565b6040513d5f823e3d90fd5b34610265576020366003190112610265576104bd610a72565b5f54604051638da5cb5b60e01b815291906020836004816001600160a01b0385165afa918215610499576105266020937f497acaa34ac19c2a2a579ad43eca493b4fea820459e254e9383e7dda216b0f04955f9161055257506001600160a01b03163314610af9565b61052f81610b60565b6001600160a01b03166001600160a01b03199190911681175f55604051908152a1005b6105699150853d8711610492576104848183610a88565b86610327565b34610265575f366003190112610265575f54604051638da5cb5b60e01b815290602090829060049082906001600160a01b03165afa8015610499576105c5915f9161065357506001600160a01b03163314610af9565b5f516020610c6f5f395f51905f525460ff81166106445760019060ff1916175f516020610c6f5f395f51905f52557f62e78cea01bee320cd4e420270b5ea74000d11b0c9f74754ebdbfc544b05a2586020604051338152a1337f81990fd9a5c552b8e3677917d8a03c07678f0d2cb68f88b634aca2022e9bd19f5f80a2005b63d93c066560e01b5f5260045ffd5b61066c915060203d602011610492576104848183610a88565b82610327565b34610265575f36600319011261026557602060ff5f516020610c6f5f395f51905f5254166040519015158152f35b34610265575f366003190112610265577f00000000000000000000000000000000000000000000000000000000000000006001600160a01b031630036106f75760206040515f516020610c4f5f395f51905f528152f35b63703e46dd60e11b5f5260045ffd5b60403660031901126102655761071a610a72565b6024359067ffffffffffffffff821161026557366023830112156102655781600401359061074782610abe565b916107556040519384610a88565b8083526020830193366024838301011161026557815f926024602093018737840101526001600160a01b037f00000000000000000000000000000000000000000000000000000000000000001630811490811561094d575b506106f7575f54604051638da5cb5b60e01b815290602090829060049082906001600160a01b03165afa8015610499576107f8915f9161092e57506001600160a01b03163314610af9565b6040516352d1902d60e01b81526001600160a01b0382169390602081600481885afa5f91816108fa575b5061083a5784634c9c8ce360e01b5f5260045260245ffd5b805f516020610c4f5f395f51905f528692036108e85750823b156108d6575f516020610c4f5f395f51905f5280546001600160a01b031916821790557fbc7cd75a20ee27fd9adebab32041f755214dbc6bffa90cc0225b39da2e5c2d3b5f80a28251156108bd575f80916108bb945190845af46108b5610b31565b91610bf0565b005b505050346108c757005b63b398979f60e01b5f5260045ffd5b634c9c8ce360e01b5f5260045260245ffd5b632a87526960e21b5f5260045260245ffd5b9091506020813d602011610926575b8161091660209383610a88565b8101031261026557519086610822565b3d9150610909565b610947915060203d602011610492576104848183610a88565b85610327565b5f516020610c4f5f395f51905f52546001600160a01b031614159050846107ad565b34610265575f366003190112610265575f54604051638da5cb5b60e01b815290602090829060049082906001600160a01b03165afa8015610499576109c5915f9161065357506001600160a01b03163314610af9565b5f516020610c6f5f395f51905f525460ff811615610a415760ff19165f516020610c6f5f395f51905f52557f5db9ee0a495bf2e6ff9c91a7834c1ba4fdd244a5e8aa4e537bd38aeae4b073aa6020604051338152a1337f5b65b0c1363b3003db9bcc5e1fd8805a6d6bf5bf6dc9d3431ee4494cd7d117665f80a2005b638dfc202b60e01b5f5260045ffd5b34610265575f366003190112610265575f546001600160a01b03168152602090f35b600435906001600160a01b038216820361026557565b90601f8019910116810190811067ffffffffffffffff821117610aaa57604052565b634e487b7160e01b5f52604160045260245ffd5b67ffffffffffffffff8111610aaa57601f01601f191660200190565b9081602091031261026557516001600160a01b03811681036102655790565b15610b0057565b60405162461bcd60e51b81526020600482015260096024820152682737ba1037bbb732b960b91b6044820152606490fd5b3d15610b5b573d90610b4282610abe565b91610b506040519384610a88565b82523d5f602084013e565b606090565b6001600160a01b031615610b7057565b60405162461bcd60e51b815260206004820152602760248201527f416363657373436f6e74726f6c3a207a65726f2061646472657373206e6f7420604482015266185b1b1bddd95960ca1b6064820152608490fd5b60ff5f516020610caf5f395f51905f525460401c1615610be157565b631afcd79f60e31b5f5260045ffd5b90610c145750805115610c0557602081519101fd5b63d6bda27560e01b5f5260045ffd5b81511580610c45575b610c25575090565b639996b31560e01b5f9081526001600160a01b0391909116600452602490fd5b50803b15610c1d56fe360894a13ba1a3210667c828492db98dca3e2076cc3735a920a3ca505d382bbccd5ed15c6e187e77e9aee88184c21f4f2182ab5827cb3b7e07fbedcd63f033009b779b17422d0df92223018b32b4d1fa46e071723d6817e2486d003becc55f00f0c57e16840df040f15088dc2f81fe391c3923bec73e23a9662efc9c229c6a00a2646970667358221220b717a34ccd67303ad7d59800bf3c0bd5bda0cc215212acb07fb847026220ac5264736f6c634300081e0033",
			"opcodes": "PUSH1 0xA0 DUP1 PUSH1 0x40 MSTORE CALLVALUE PUSH1 0x29 JUMPI ADDRESS PUSH1 0x80 MSTORE PUSH2 0xD04 SWAP1 DUP2 PUSH2 0x2E DUP3 CODECOPY PUSH1 0x80 MLOAD DUP2 DUP2 DUP2 PUSH2 0x6B2 ADD MSTORE PUSH2 0x782 ADD MSTORE RETURN JUMPDEST PUSH0 DUP1 REVERT INVALID PUSH1 0x80 DUP1 PUSH1 0x40 MSTORE PUSH1 0x4 CALLDATASIZE LT ISZERO PUSH2 0x66 JUMPI JUMPDEST POP CALLDATASIZE ISZERO PUSH2 0x3E JUMPI CALLVALUE CALLER PUSH32 0x9A910E4510ACED4A032C4797A04F4C9B32316BCDE4DFC60C7C73D88F936428C8 PUSH0 DUP1 LOG3 STOP JUMPDEST CALLVALUE CALLER PUSH32 0x9A910E4510ACED4A032C4797A04F4C9B32316BCDE4DFC60C7C73D88F936428C8 PUSH0 DUP1 LOG3 STOP JUMPDEST PUSH0 CALLDATALOAD PUSH1 0xE0 SHR SWAP1 DUP2 PUSH4 0x13007D55 EQ PUSH2 0xA50 JUMPI POP DUP1 PUSH4 0x3F4BA83A EQ PUSH2 0x96F JUMPI DUP1 PUSH4 0x4F1EF286 EQ PUSH2 0x706 JUMPI DUP1 PUSH4 0x52D1902D EQ PUSH2 0x6A0 JUMPI DUP1 PUSH4 0x5C975ABB EQ PUSH2 0x672 JUMPI DUP1 PUSH4 0x8456CB59 EQ PUSH2 0x56F JUMPI DUP1 PUSH4 0x9387730C EQ PUSH2 0x4A4 JUMPI DUP1 PUSH4 0xA9059CBB EQ PUSH2 0x2C7 JUMPI DUP1 PUSH4 0xAD3CB1CC EQ PUSH2 0x269 JUMPI PUSH4 0xC4D66DE8 EQ PUSH2 0xE0 JUMPI PUSH0 PUSH2 0xF JUMP JUMPDEST CALLVALUE PUSH2 0x265 JUMPI PUSH1 0x20 CALLDATASIZE PUSH1 0x3 NOT ADD SLT PUSH2 0x265 JUMPI PUSH2 0xF9 PUSH2 0xA72 JUMP JUMPDEST PUSH0 MLOAD PUSH1 0x20 PUSH2 0xCAF PUSH0 CODECOPY PUSH0 MLOAD SWAP1 PUSH0 MSTORE SLOAD SWAP1 PUSH1 0xFF DUP3 PUSH1 0x40 SHR AND ISZERO SWAP2 PUSH8 0xFFFFFFFFFFFFFFFF DUP2 AND DUP1 ISZERO SWAP1 DUP2 PUSH2 0x25D JUMPI JUMPDEST PUSH1 0x1 EQ SWAP1 DUP2 PUSH2 0x253 JUMPI JUMPDEST ISZERO SWAP1 DUP2 PUSH2 0x24A JUMPI JUMPDEST POP PUSH2 0x23B JUMPI PUSH8 0xFFFFFFFFFFFFFFFF NOT DUP2 AND PUSH1 0x1 OR PUSH0 MLOAD PUSH1 0x20 PUSH2 0xCAF PUSH0 CODECOPY PUSH0 MLOAD SWAP1 PUSH0 MSTORE SSTORE DUP3 PUSH2 0x20F JUMPI JUMPDEST POP PUSH2 0x16B DUP2 PUSH2 0xB60 JUMP JUMPDEST PUSH2 0x173 PUSH2 0xBC5 JUMP JUMPDEST PUSH2 0x17B PUSH2 0xBC5 JUMP JUMPDEST PUSH2 0x183 PUSH2 0xBC5 JUMP JUMPDEST PUSH1 0x1 PUSH0 MLOAD PUSH1 0x20 PUSH2 0xC8F PUSH0 CODECOPY PUSH0 MLOAD SWAP1 PUSH0 MSTORE SSTORE PUSH1 0x1 DUP1 PUSH1 0xA0 SHL SUB AND PUSH12 0xFFFFFFFFFFFFFFFFFFFFFFFF PUSH1 0xA0 SHL PUSH0 SLOAD AND OR PUSH0 SSTORE PUSH2 0x1B8 JUMPI STOP JUMPDEST PUSH9 0xFF0000000000000000 NOT PUSH0 MLOAD PUSH1 0x20 PUSH2 0xCAF PUSH0 CODECOPY PUSH0 MLOAD SWAP1 PUSH0 MSTORE SLOAD AND PUSH0 MLOAD PUSH1 0x20 PUSH2 0xCAF PUSH0 CODECOPY PUSH0 MLOAD SWAP1 PUSH0 MSTORE SSTORE PUSH32 0xC7F505B2F371AE2175EE4913F4499E1F2633A7B5936321EED1CDAEB6115181D2 PUSH1 0x20 PUSH1 0x40 MLOAD PUSH1 0x1 DUP2 MSTORE LOG1 STOP JUMPDEST PUSH9 0xFFFFFFFFFFFFFFFFFF NOT AND PUSH9 0x10000000000000001 OR PUSH0 MLOAD PUSH1 0x20 PUSH2 0xCAF PUSH0 CODECOPY PUSH0 MLOAD SWAP1 PUSH0 MSTORE SSTORE PUSH0 PUSH2 0x161 JUMP JUMPDEST PUSH4 0xF92EE8A9 PUSH1 0xE0 SHL PUSH0 MSTORE PUSH1 0x4 PUSH0 REVERT JUMPDEST SWAP1 POP ISZERO PUSH0 PUSH2 0x138 JUMP JUMPDEST ADDRESS EXTCODESIZE ISZERO SWAP2 POP PUSH2 0x130 JUMP JUMPDEST DUP5 SWAP2 POP PUSH2 0x126 JUMP JUMPDEST PUSH0 DUP1 REVERT JUMPDEST CALLVALUE PUSH2 0x265 JUMPI PUSH0 CALLDATASIZE PUSH1 0x3 NOT ADD SLT PUSH2 0x265 JUMPI PUSH1 0x40 DUP1 MLOAD SWAP1 PUSH2 0x288 DUP2 DUP4 PUSH2 0xA88 JUMP JUMPDEST PUSH1 0x5 DUP3 MSTORE PUSH1 0x20 DUP3 ADD SWAP2 PUSH5 0x352E302E3 PUSH1 0xDC SHL DUP4 MSTORE DUP2 MLOAD SWAP3 DUP4 SWAP2 PUSH1 0x20 DUP4 MSTORE MLOAD DUP1 SWAP2 DUP2 PUSH1 0x20 DUP6 ADD MSTORE DUP5 DUP5 ADD MCOPY PUSH0 DUP3 DUP3 ADD DUP5 ADD MSTORE PUSH1 0x1F ADD PUSH1 0x1F NOT AND DUP2 ADD SUB ADD SWAP1 RETURN JUMPDEST CALLVALUE PUSH2 0x265 JUMPI PUSH1 0x40 CALLDATASIZE PUSH1 0x3 NOT ADD SLT PUSH2 0x265 JUMPI PUSH1 0x4 CALLDATALOAD PUSH1 0x1 PUSH1 0x1 PUSH1 0xA0 SHL SUB DUP2 AND SWAP1 DUP2 SWAP1 SUB PUSH2 0x265 JUMPI PUSH0 SLOAD PUSH1 0x40 MLOAD PUSH4 0x8DA5CB5B PUSH1 0xE0 SHL DUP2 MSTORE PUSH1 0x24 CALLDATALOAD SWAP3 SWAP2 PUSH1 0x20 SWAP1 DUP3 SWAP1 PUSH1 0x4 SWAP1 DUP3 SWAP1 PUSH1 0x1 PUSH1 0x1 PUSH1 0xA0 SHL SUB AND GAS STATICCALL DUP1 ISZERO PUSH2 0x499 JUMPI PUSH2 0x338 SWAP2 PUSH0 SWAP2 PUSH2 0x46A JUMPI JUMPDEST POP PUSH1 0x1 PUSH1 0x1 PUSH1 0xA0 SHL SUB AND CALLER EQ PUSH2 0xAF9 JUMP JUMPDEST PUSH1 0x2 PUSH0 MLOAD PUSH1 0x20 PUSH2 0xC8F PUSH0 CODECOPY PUSH0 MLOAD SWAP1 PUSH0 MSTORE SLOAD EQ PUSH2 0x45B JUMPI PUSH1 0x2 PUSH0 MLOAD PUSH1 0x20 PUSH2 0xC8F PUSH0 CODECOPY PUSH0 MLOAD SWAP1 PUSH0 MSTORE SSTORE CALLER ISZERO PUSH2 0x416 JUMPI DUP1 ISZERO PUSH2 0x407 JUMPI DUP2 SELFBALANCE LT PUSH0 EQ PUSH2 0x383 JUMPI PUSH4 0x356680B7 PUSH1 0xE0 SHL PUSH0 MSTORE PUSH1 0x4 PUSH0 REVERT JUMPDEST PUSH0 DUP1 DUP1 DUP1 DUP6 DUP6 GAS CALL PUSH2 0x393 PUSH2 0xB31 JUMP JUMPDEST POP ISZERO PUSH2 0x3D0 JUMPI PUSH32 0xAE538A1B9462F6288DA1C1912C6D7E22FC226DFF723D1CC897CFC7727255EA70 PUSH0 DUP1 LOG3 PUSH1 0x1 PUSH0 MLOAD PUSH1 0x20 PUSH2 0xC8F PUSH0 CODECOPY PUSH0 MLOAD SWAP1 PUSH0 MSTORE SSTORE STOP JUMPDEST PUSH1 0x40 MLOAD PUSH3 0x461BCD PUSH1 0xE5 SHL DUP2 MSTORE PUSH1 0x20 PUSH1 0x4 DUP3 ADD MSTORE PUSH1 0xF PUSH1 0x24 DUP3 ADD MSTORE PUSH15 0x1D1C985B9CD9995C8819985A5B1959 PUSH1 0x8A SHL PUSH1 0x44 DUP3 ADD MSTORE PUSH1 0x64 SWAP1 REVERT JUMPDEST PUSH4 0xD92E233D PUSH1 0xE0 SHL PUSH0 MSTORE PUSH1 0x4 PUSH0 REVERT JUMPDEST PUSH1 0x40 MLOAD PUSH3 0x461BCD PUSH1 0xE5 SHL DUP2 MSTORE PUSH1 0x20 PUSH1 0x4 DUP3 ADD MSTORE PUSH1 0x1D PUSH1 0x24 DUP3 ADD MSTORE PUSH32 0x63616C6C65722069732063616E74206265207A65726F20616464722021000000 PUSH1 0x44 DUP3 ADD MSTORE PUSH1 0x64 SWAP1 REVERT JUMPDEST PUSH4 0x3EE5AEB5 PUSH1 0xE0 SHL PUSH0 MSTORE PUSH1 0x4 PUSH0 REVERT JUMPDEST PUSH2 0x48C SWAP2 POP PUSH1 0x20 RETURNDATASIZE PUSH1 0x20 GT PUSH2 0x492 JUMPI JUMPDEST PUSH2 0x484 DUP2 DUP4 PUSH2 0xA88 JUMP JUMPDEST DUP2 ADD SWAP1 PUSH2 0xADA JUMP JUMPDEST DUP5 PUSH2 0x327 JUMP JUMPDEST POP RETURNDATASIZE PUSH2 0x47A JUMP JUMPDEST PUSH1 0x40 MLOAD RETURNDATASIZE PUSH0 DUP3 RETURNDATACOPY RETURNDATASIZE SWAP1 REVERT JUMPDEST CALLVALUE PUSH2 0x265 JUMPI PUSH1 0x20 CALLDATASIZE PUSH1 0x3 NOT ADD SLT PUSH2 0x265 JUMPI PUSH2 0x4BD PUSH2 0xA72 JUMP JUMPDEST PUSH0 SLOAD PUSH1 0x40 MLOAD PUSH4 0x8DA5CB5B PUSH1 0xE0 SHL DUP2 MSTORE SWAP2 SWAP1 PUSH1 0x20 DUP4 PUSH1 0x4 DUP2 PUSH1 0x1 PUSH1 0x1 PUSH1 0xA0 SHL SUB DUP6 AND GAS STATICCALL SWAP2 DUP3 ISZERO PUSH2 0x499 JUMPI PUSH2 0x526 PUSH1 0x20 SWAP4 PUSH32 0x497ACAA34AC19C2A2A579AD43ECA493B4FEA820459E254E9383E7DDA216B0F04 SWAP6 PUSH0 SWAP2 PUSH2 0x552 JUMPI POP PUSH1 0x1 PUSH1 0x1 PUSH1 0xA0 SHL SUB AND CALLER EQ PUSH2 0xAF9 JUMP JUMPDEST PUSH2 0x52F DUP2 PUSH2 0xB60 JUMP JUMPDEST PUSH1 0x1 PUSH1 0x1 PUSH1 0xA0 SHL SUB AND PUSH1 0x1 PUSH1 0x1 PUSH1 0xA0 SHL SUB NOT SWAP2 SWAP1 SWAP2 AND DUP2 OR PUSH0 SSTORE PUSH1 0x40 MLOAD SWAP1 DUP2 MSTORE LOG1 STOP JUMPDEST PUSH2 0x569 SWAP2 POP DUP6 RETURNDATASIZE DUP8 GT PUSH2 0x492 JUMPI PUSH2 0x484 DUP2 DUP4 PUSH2 0xA88 JUMP JUMPDEST DUP7 PUSH2 0x327 JUMP JUMPDEST CALLVALUE PUSH2 0x265 JUMPI PUSH0 CALLDATASIZE PUSH1 0x3 NOT ADD SLT PUSH2 0x265 JUMPI PUSH0 SLOAD PUSH1 0x40 MLOAD PUSH4 0x8DA5CB5B PUSH1 0xE0 SHL DUP2 MSTORE SWAP1 PUSH1 0x20 SWAP1 DUP3 SWAP1 PUSH1 0x4 SWAP1 DUP3 SWAP1 PUSH1 0x1 PUSH1 0x1 PUSH1 0xA0 SHL SUB AND GAS STATICCALL DUP1 ISZERO PUSH2 0x499 JUMPI PUSH2 0x5C5 SWAP2 PUSH0 SWAP2 PUSH2 0x653 JUMPI POP PUSH1 0x1 PUSH1 0x1 PUSH1 0xA0 SHL SUB AND CALLER EQ PUSH2 0xAF9 JUMP JUMPDEST PUSH0 MLOAD PUSH1 0x20 PUSH2 0xC6F PUSH0 CODECOPY PUSH0 MLOAD SWAP1 PUSH0 MSTORE SLOAD PUSH1 0xFF DUP2 AND PUSH2 0x644 JUMPI PUSH1 0x1 SWAP1 PUSH1 0xFF NOT AND OR PUSH0 MLOAD PUSH1 0x20 PUSH2 0xC6F PUSH0 CODECOPY PUSH0 MLOAD SWAP1 PUSH0 MSTORE SSTORE PUSH32 0x62E78CEA01BEE320CD4E420270B5EA74000D11B0C9F74754EBDBFC544B05A258 PUSH1 0x20 PUSH1 0x40 MLOAD CALLER DUP2 MSTORE LOG1 CALLER PUSH32 0x81990FD9A5C552B8E3677917D8A03C07678F0D2CB68F88B634ACA2022E9BD19F PUSH0 DUP1 LOG2 STOP JUMPDEST PUSH4 0xD93C0665 PUSH1 0xE0 SHL PUSH0 MSTORE PUSH1 0x4 PUSH0 REVERT JUMPDEST PUSH2 0x66C SWAP2 POP PUSH1 0x20 RETURNDATASIZE PUSH1 0x20 GT PUSH2 0x492 JUMPI PUSH2 0x484 DUP2 DUP4 PUSH2 0xA88 JUMP JUMPDEST DUP3 PUSH2 0x327 JUMP JUMPDEST CALLVALUE PUSH2 0x265 JUMPI PUSH0 CALLDATASIZE PUSH1 0x3 NOT ADD SLT PUSH2 0x265 JUMPI PUSH1 0x20 PUSH1 0xFF PUSH0 MLOAD PUSH1 0x20 PUSH2 0xC6F PUSH0 CODECOPY PUSH0 MLOAD SWAP1 PUSH0 MSTORE SLOAD AND PUSH1 0x40 MLOAD SWAP1 ISZERO ISZERO DUP2 MSTORE RETURN JUMPDEST CALLVALUE PUSH2 0x265 JUMPI PUSH0 CALLDATASIZE PUSH1 0x3 NOT ADD SLT PUSH2 0x265 JUMPI PUSH32 0x0 PUSH1 0x1 PUSH1 0x1 PUSH1 0xA0 SHL SUB AND ADDRESS SUB PUSH2 0x6F7 JUMPI PUSH1 0x20 PUSH1 0x40 MLOAD PUSH0 MLOAD PUSH1 0x20 PUSH2 0xC4F PUSH0 CODECOPY PUSH0 MLOAD SWAP1 PUSH0 MSTORE DUP2 MSTORE RETURN JUMPDEST PUSH4 0x703E46DD PUSH1 0xE1 SHL PUSH0 MSTORE PUSH1 0x4 PUSH0 REVERT JUMPDEST PUSH1 0x40 CALLDATASIZE PUSH1 0x3 NOT ADD SLT PUSH2 0x265 JUMPI PUSH2 0x71A PUSH2 0xA72 JUMP JUMPDEST PUSH1 0x24 CALLDATALOAD SWAP1 PUSH8 0xFFFFFFFFFFFFFFFF DUP3 GT PUSH2 0x265 JUMPI CALLDATASIZE PUSH1 0x23 DUP4 ADD SLT ISZERO PUSH2 0x265 JUMPI DUP2 PUSH1 0x4 ADD CALLDATALOAD SWAP1 PUSH2 0x747 DUP3 PUSH2 0xABE JUMP JUMPDEST SWAP2 PUSH2 0x755 PUSH1 0x40 MLOAD SWAP4 DUP5 PUSH2 0xA88 JUMP JUMPDEST DUP1 DUP4 MSTORE PUSH1 0x20 DUP4 ADD SWAP4 CALLDATASIZE PUSH1 0x24 DUP4 DUP4 ADD ADD GT PUSH2 0x265 JUMPI DUP2 PUSH0 SWAP3 PUSH1 0x24 PUSH1 0x20 SWAP4 ADD DUP8 CALLDATACOPY DUP5 ADD ADD MSTORE PUSH1 0x1 PUSH1 0x1 PUSH1 0xA0 SHL SUB PUSH32 0x0 AND ADDRESS DUP2 EQ SWAP1 DUP2 ISZERO PUSH2 0x94D JUMPI JUMPDEST POP PUSH2 0x6F7 JUMPI PUSH0 SLOAD PUSH1 0x40 MLOAD PUSH4 0x8DA5CB5B PUSH1 0xE0 SHL DUP2 MSTORE SWAP1 PUSH1 0x20 SWAP1 DUP3 SWAP1 PUSH1 0x4 SWAP1 DUP3 SWAP1 PUSH1 0x1 PUSH1 0x1 PUSH1 0xA0 SHL SUB AND GAS STATICCALL DUP1 ISZERO PUSH2 0x499 JUMPI PUSH2 0x7F8 SWAP2 PUSH0 SWAP2 PUSH2 0x92E JUMPI POP PUSH1 0x1 PUSH1 0x1 PUSH1 0xA0 SHL SUB AND CALLER EQ PUSH2 0xAF9 JUMP JUMPDEST PUSH1 0x40 MLOAD PUSH4 0x52D1902D PUSH1 0xE0 SHL DUP2 MSTORE PUSH1 0x1 PUSH1 0x1 PUSH1 0xA0 SHL SUB DUP3 AND SWAP4 SWAP1 PUSH1 0x20 DUP2 PUSH1 0x4 DUP2 DUP9 GAS STATICCALL PUSH0 SWAP2 DUP2 PUSH2 0x8FA JUMPI JUMPDEST POP PUSH2 0x83A JUMPI DUP5 PUSH4 0x4C9C8CE3 PUSH1 0xE0 SHL PUSH0 MSTORE PUSH1 0x4 MSTORE PUSH1 0x24 PUSH0 REVERT JUMPDEST DUP1 PUSH0 MLOAD PUSH1 0x20 PUSH2 0xC4F PUSH0 CODECOPY PUSH0 MLOAD SWAP1 PUSH0 MSTORE DUP7 SWAP3 SUB PUSH2 0x8E8 JUMPI POP DUP3 EXTCODESIZE ISZERO PUSH2 0x8D6 JUMPI PUSH0 MLOAD PUSH1 0x20 PUSH2 0xC4F PUSH0 CODECOPY PUSH0 MLOAD SWAP1 PUSH0 MSTORE DUP1 SLOAD PUSH1 0x1 PUSH1 0x1 PUSH1 0xA0 SHL SUB NOT AND DUP3 OR SWAP1 SSTORE PUSH32 0xBC7CD75A20EE27FD9ADEBAB32041F755214DBC6BFFA90CC0225B39DA2E5C2D3B PUSH0 DUP1 LOG2 DUP3 MLOAD ISZERO PUSH2 0x8BD JUMPI PUSH0 DUP1 SWAP2 PUSH2 0x8BB SWAP5 MLOAD SWAP1 DUP5 GAS DELEGATECALL PUSH2 0x8B5 PUSH2 0xB31 JUMP JUMPDEST SWAP2 PUSH2 0xBF0 JUMP JUMPDEST STOP JUMPDEST POP POP POP CALLVALUE PUSH2 0x8C7 JUMPI STOP JUMPDEST PUSH4 0xB398979F PUSH1 0xE0 SHL PUSH0 MSTORE PUSH1 0x4 PUSH0 REVERT JUMPDEST PUSH4 0x4C9C8CE3 PUSH1 0xE0 SHL PUSH0 MSTORE PUSH1 0x4 MSTORE PUSH1 0x24 PUSH0 REVERT JUMPDEST PUSH4 0x2A875269 PUSH1 0xE2 SHL PUSH0 MSTORE PUSH1 0x4 MSTORE PUSH1 0x24 PUSH0 REVERT JUMPDEST SWAP1 SWAP2 POP PUSH1 0x20 DUP2 RETURNDATASIZE PUSH1 0x20 GT PUSH2 0x926 JUMPI JUMPDEST DUP2 PUSH2 0x916 PUSH1 0x20 SWAP4 DUP4 PUSH2 0xA88 JUMP JUMPDEST DUP2 ADD SUB SLT PUSH2 0x265 JUMPI MLOAD SWAP1 DUP7 PUSH2 0x822 JUMP JUMPDEST RETURNDATASIZE SWAP2 POP PUSH2 0x909 JUMP JUMPDEST PUSH2 0x947 SWAP2 POP PUSH1 0x20 RETURNDATASIZE PUSH1 0x20 GT PUSH2 0x492 JUMPI PUSH2 0x484 DUP2 DUP4 PUSH2 0xA88 JUMP JUMPDEST DUP6 PUSH2 0x327 JUMP JUMPDEST PUSH0 MLOAD PUSH1 0x20 PUSH2 0xC4F PUSH0 CODECOPY PUSH0 MLOAD SWAP1 PUSH0 MSTORE SLOAD PUSH1 0x1 PUSH1 0x1 PUSH1 0xA0 SHL SUB AND EQ ISZERO SWAP1 POP DUP5 PUSH2 0x7AD JUMP JUMPDEST CALLVALUE PUSH2 0x265 JUMPI PUSH0 CALLDATASIZE PUSH1 0x3 NOT ADD SLT PUSH2 0x265 JUMPI PUSH0 SLOAD PUSH1 0x40 MLOAD PUSH4 0x8DA5CB5B PUSH1 0xE0 SHL DUP2 MSTORE SWAP1 PUSH1 0x20 SWAP1 DUP3 SWAP1 PUSH1 0x4 SWAP1 DUP3 SWAP1 PUSH1 0x1 PUSH1 0x1 PUSH1 0xA0 SHL SUB AND GAS STATICCALL DUP1 ISZERO PUSH2 0x499 JUMPI PUSH2 0x9C5 SWAP2 PUSH0 SWAP2 PUSH2 0x653 JUMPI POP PUSH1 0x1 PUSH1 0x1 PUSH1 0xA0 SHL SUB AND CALLER EQ PUSH2 0xAF9 JUMP JUMPDEST PUSH0 MLOAD PUSH1 0x20 PUSH2 0xC6F PUSH0 CODECOPY PUSH0 MLOAD SWAP1 PUSH0 MSTORE SLOAD PUSH1 0xFF DUP2 AND ISZERO PUSH2 0xA41 JUMPI PUSH1 0xFF NOT AND PUSH0 MLOAD PUSH1 0x20 PUSH2 0xC6F PUSH0 CODECOPY PUSH0 MLOAD SWAP1 PUSH0 MSTORE SSTORE PUSH32 0x5DB9EE0A495BF2E6FF9C91A7834C1BA4FDD244A5E8AA4E537BD38AEAE4B073AA PUSH1 0x20 PUSH1 0x40 MLOAD CALLER DUP2 MSTORE LOG1 CALLER PUSH32 0x5B65B0C1363B3003DB9BCC5E1FD8805A6D6BF5BF6DC9D3431EE4494CD7D11766 PUSH0 DUP1 LOG2 STOP JUMPDEST PUSH4 0x8DFC202B PUSH1 0xE0 SHL PUSH0 MSTORE PUSH1 0x4 PUSH0 REVERT JUMPDEST CALLVALUE PUSH2 0x265 JUMPI PUSH0 CALLDATASIZE PUSH1 0x3 NOT ADD SLT PUSH2 0x265 JUMPI PUSH0 SLOAD PUSH1 0x1 PUSH1 0x1 PUSH1 0xA0 SHL SUB AND DUP2 MSTORE PUSH1 0x20 SWAP1 RETURN JUMPDEST PUSH1 0x4 CALLDATALOAD SWAP1 PUSH1 0x1 PUSH1 0x1 PUSH1 0xA0 SHL SUB DUP3 AND DUP3 SUB PUSH2 0x265 JUMPI JUMP JUMPDEST SWAP1 PUSH1 0x1F DUP1 NOT SWAP2 ADD AND DUP2 ADD SWAP1 DUP2 LT PUSH8 0xFFFFFFFFFFFFFFFF DUP3 GT OR PUSH2 0xAAA JUMPI PUSH1 0x40 MSTORE JUMP JUMPDEST PUSH4 0x4E487B71 PUSH1 0xE0 SHL PUSH0 MSTORE PUSH1 0x41 PUSH1 0x4 MSTORE PUSH1 0x24 PUSH0 REVERT JUMPDEST PUSH8 0xFFFFFFFFFFFFFFFF DUP2 GT PUSH2 0xAAA JUMPI PUSH1 0x1F ADD PUSH1 0x1F NOT AND PUSH1 0x20 ADD SWAP1 JUMP JUMPDEST SWAP1 DUP2 PUSH1 0x20 SWAP2 SUB SLT PUSH2 0x265 JUMPI MLOAD PUSH1 0x1 PUSH1 0x1 PUSH1 0xA0 SHL SUB DUP2 AND DUP2 SUB PUSH2 0x265 JUMPI SWAP1 JUMP JUMPDEST ISZERO PUSH2 0xB00 JUMPI JUMP JUMPDEST PUSH1 0x40 MLOAD PUSH3 0x461BCD PUSH1 0xE5 SHL DUP2 MSTORE PUSH1 0x20 PUSH1 0x4 DUP3 ADD MSTORE PUSH1 0x9 PUSH1 0x24 DUP3 ADD MSTORE PUSH9 0x2737BA1037BBB732B9 PUSH1 0xB9 SHL PUSH1 0x44 DUP3 ADD MSTORE PUSH1 0x64 SWAP1 REVERT JUMPDEST RETURNDATASIZE ISZERO PUSH2 0xB5B JUMPI RETURNDATASIZE SWAP1 PUSH2 0xB42 DUP3 PUSH2 0xABE JUMP JUMPDEST SWAP2 PUSH2 0xB50 PUSH1 0x40 MLOAD SWAP4 DUP5 PUSH2 0xA88 JUMP JUMPDEST DUP3 MSTORE RETURNDATASIZE PUSH0 PUSH1 0x20 DUP5 ADD RETURNDATACOPY JUMP JUMPDEST PUSH1 0x60 SWAP1 JUMP JUMPDEST PUSH1 0x1 PUSH1 0x1 PUSH1 0xA0 SHL SUB AND ISZERO PUSH2 0xB70 JUMPI JUMP JUMPDEST PUSH1 0x40 MLOAD PUSH3 0x461BCD PUSH1 0xE5 SHL DUP2 MSTORE PUSH1 0x20 PUSH1 0x4 DUP3 ADD MSTORE PUSH1 0x27 PUSH1 0x24 DUP3 ADD MSTORE PUSH32 0x416363657373436F6E74726F6C3A207A65726F2061646472657373206E6F7420 PUSH1 0x44 DUP3 ADD MSTORE PUSH7 0x185B1B1BDDD959 PUSH1 0xCA SHL PUSH1 0x64 DUP3 ADD MSTORE PUSH1 0x84 SWAP1 REVERT JUMPDEST PUSH1 0xFF PUSH0 MLOAD PUSH1 0x20 PUSH2 0xCAF PUSH0 CODECOPY PUSH0 MLOAD SWAP1 PUSH0 MSTORE SLOAD PUSH1 0x40 SHR AND ISZERO PUSH2 0xBE1 JUMPI JUMP JUMPDEST PUSH4 0x1AFCD79F PUSH1 0xE3 SHL PUSH0 MSTORE PUSH1 0x4 PUSH0 REVERT JUMPDEST SWAP1 PUSH2 0xC14 JUMPI POP DUP1 MLOAD ISZERO PUSH2 0xC05 JUMPI PUSH1 0x20 DUP2 MLOAD SWAP2 ADD REVERT JUMPDEST PUSH4 0xD6BDA275 PUSH1 0xE0 SHL PUSH0 MSTORE PUSH1 0x4 PUSH0 REVERT JUMPDEST DUP2 MLOAD ISZERO DUP1 PUSH2 0xC45 JUMPI JUMPDEST PUSH2 0xC25 JUMPI POP SWAP1 JUMP JUMPDEST PUSH4 0x9996B315 PUSH1 0xE0 SHL PUSH0 SWAP1 DUP2 MSTORE PUSH1 0x1 PUSH1 0x1 PUSH1 0xA0 SHL SUB SWAP2 SWAP1 SWAP2 AND PUSH1 0x4 MSTORE PUSH1 0x24 SWAP1 REVERT JUMPDEST POP DUP1 EXTCODESIZE ISZERO PUSH2 0xC1D JUMP INVALID CALLDATASIZE ADDMOD SWAP5 LOG1 EXTCODESIZE LOG1 LOG3 0x21 MOD PUSH8 0xC828492DB98DCA3E KECCAK256 PUSH23 0xCC3735A920A3CA505D382BBCCD5ED15C6E187E77E9AEE8 DUP2 DUP5 0xC2 0x1F 0x4F 0x21 DUP3 0xAB PC 0x27 0xCB EXTCODESIZE PUSH31 0x7FBEDCD63F033009B779B17422D0DF92223018B32B4D1FA46E071723D6817 0xE2 BASEFEE PUSH14 0x3BECC55F00F0C57E16840DF040 CALL POP DUP9 0xDC 0x2F DUP2 INVALID CODECOPY SHR CODECOPY 0x23 0xBE 0xC7 RETURNDATACOPY 0x23 0xA9 PUSH7 0x2EFC9C229C6A00 LOG2 PUSH5 0x6970667358 0x22 SLT KECCAK256 0xB7 OR LOG3 0x4C 0xCD PUSH8 0x303AD7D59800BF3C SIGNEXTEND 0xD5 0xBD LOG0 0xCC 0x21 MSTORE SLT 0xAC 0xB0 PUSH32 0xB847026220AC5264736F6C634300081E00330000000000000000000000000000 "
		},
		"gasEstimates": {
			"creation": {
				"codeDepositCost": "666400",
				"executionCost": "infinite",
				"totalCost": "infinite"
			},
			"external": {
				"": "1826",
				"UPGRADE_INTERFACE_VERSION()": "584",
				"accessControl()": "2265",
				"changeAccessControl(address)": "infinite",
				"initialize(address)": "infinite",
				"pause()": "infinite",
				"paused()": "infinite",
				"proxiableUUID()": "infinite",
				"transfer(address,uint256)": "infinite",
				"unpause()": "infinite",
				"upgradeToAndCall(address,bytes)": "infinite"
			},
			"internal": {
				"_authorizeUpgrade(address)": "infinite"
			}
		},
		"methodIdentifiers": {
			"UPGRADE_INTERFACE_VERSION()": "ad3cb1cc",
			"accessControl()": "13007d55",
			"changeAccessControl(address)": "9387730c",
			"initialize(address)": "c4d66de8",
			"pause()": "8456cb59",
			"paused()": "5c975abb",
			"proxiableUUID()": "52d1902d",
			"transfer(address,uint256)": "a9059cbb",
			"unpause()": "3f4ba83a",
			"upgradeToAndCall(address,bytes)": "4f1ef286"
		}
	},
	"abi": [
		{
			"inputs": [
				{
					"internalType": "address",
					"name": "target",
					"type": "address"
				}
			],
			"name": "AddressEmptyCode",
			"type": "error"
		},
		{
			"inputs": [
				{
					"internalType": "address",
					"name": "implementation",
					"type": "address"
				}
			],
			"name": "ERC1967InvalidImplementation",
			"type": "error"
		},
		{
			"inputs": [],
			"name": "ERC1967NonPayable",
			"type": "error"
		},
		{
			"inputs": [],
			"name": "EnforcedPause",
			"type": "error"
		},
		{
			"inputs": [],
			"name": "ExpectedPause",
			"type": "error"
		},
		{
			"inputs": [],
			"name": "FailedCall",
			"type": "error"
		},
		{
			"inputs": [],
			"name": "InsufficientFunds",
			"type": "error"
		},
		{
			"inputs": [],
			"name": "InvalidInitialization",
			"type": "error"
		},
		{
			"inputs": [],
			"name": "NotInitializing",
			"type": "error"
		},
		{
			"inputs": [],
			"name": "ReentrancyGuardReentrantCall",
			"type": "error"
		},
		{
			"inputs": [],
			"name": "UUPSUnauthorizedCallContext",
			"type": "error"
		},
		{
			"inputs": [
				{
					"internalType": "bytes32",
					"name": "slot",
					"type": "bytes32"
				}
			],
			"name": "UUPSUnsupportedProxiableUUID",
			"type": "error"
		},
		{
			"inputs": [],
			"name": "ZeroAddress",
			"type": "error"
		},
		{
			"anonymous": false,
			"inputs": [
				{
					"indexed": false,
					"internalType": "address",
					"name": "newAccessControl",
					"type": "address"
				}
			],
			"name": "AccessControlChanged",
			"type": "event"
		},
		{
			"anonymous": false,
			"inputs": [
				{
					"indexed": true,
					"internalType": "address",
					"name": "caller",
					"type": "address"
				}
			],
			"name": "ContractPaused",
			"type": "event"
		},
		{
			"anonymous": false,
			"inputs": [
				{
					"indexed": true,
					"internalType": "address",
					"name": "caller",
					"type": "address"
				}
			],
			"name": "ContractUnpaused",
			"type": "event"
		},
		{
			"anonymous": false,
			"inputs": [
				{
					"indexed": false,
					"internalType": "uint64",
					"name": "version",
					"type": "uint64"
				}
			],
			"name": "Initialized",
			"type": "event"
		},
		{
			"anonymous": false,
			"inputs": [
				{
					"indexed": false,
					"internalType": "address",
					"name": "account",
					"type": "address"
				}
			],
			"name": "Paused",
			"type": "event"
		},
		{
			"anonymous": false,
			"inputs": [
				{
					"indexed": false,
					"internalType": "address",
					"name": "account",
					"type": "address"
				}
			],
			"name": "Unpaused",
			"type": "event"
		},
		{
			"anonymous": false,
			"inputs": [
				{
					"indexed": true,
					"internalType": "address",
					"name": "implementation",
					"type": "address"
				}
			],
			"name": "Upgraded",
			"type": "event"
		},
		{
			"anonymous": false,
			"inputs": [
				{
					"indexed": true,
					"internalType": "address",
					"name": "from",
					"type": "address"
				},
				{
					"indexed": true,
					"internalType": "uint256",
					"name": "amount",
					"type": "uint256"
				}
			],
			"name": "contract_received_fund",
			"type": "event"
		},
		{
			"anonymous": false,
			"inputs": [
				{
					"indexed": true,
					"internalType": "address",
					"name": "to",
					"type": "address"
				},
				{
					"indexed": true,
					"internalType": "uint256",
					"name": "amount",
					"type": "uint256"
				}
			],
			"name": "contract_transfered_fund",
			"type": "event"
		},
		{
			"stateMutability": "payable",
			"type": "fallback"
		},
		{
			"inputs": [],
			"name": "UPGRADE_INTERFACE_VERSION",
			"outputs": [
				{
					"internalType": "string",
					"name": "",
					"type": "string"
				}
			],
			"stateMutability": "view",
			"type": "function"
		},
		{
			"inputs": [],
			"name": "accessControl",
			"outputs": [
				{
					"internalType": "contract IAccessControl",
					"name": "",
					"type": "address"
				}
			],
			"stateMutability": "view",
			"type": "function"
		},
		{
			"inputs": [
				{
					"internalType": "address",
					"name": "_newAccesControl",
					"type": "address"
				}
			],
			"name": "changeAccessControl",
			"outputs": [],
			"stateMutability": "nonpayable",
			"type": "function"
		},
		{
			"inputs": [
				{
					"internalType": "address",
					"name": "_accessControl",
					"type": "address"
				}
			],
			"name": "initialize",
			"outputs": [],
			"stateMutability": "nonpayable",
			"type": "function"
		},
		{
			"inputs": [],
			"name": "pause",
			"outputs": [],
			"stateMutability": "nonpayable",
			"type": "function"
		},
		{
			"inputs": [],
			"name": "paused",
			"outputs": [
				{
					"internalType": "bool",
					"name": "",
					"type": "bool"
				}
			],
			"stateMutability": "view",
			"type": "function"
		},
		{
			"inputs": [],
			"name": "proxiableUUID",
			"outputs": [
				{
					"internalType": "bytes32",
					"name": "",
					"type": "bytes32"
				}
			],
			"stateMutability": "view",
			"type": "function"
		},
		{
			"inputs": [
				{
					"internalType": "address payable",
					"name": "_to",
					"type": "address"
				},
				{
					"internalType": "uint256",
					"name": "_amount",
					"type": "uint256"
				}
			],
			"name": "transfer",
			"outputs": [],
			"stateMutability": "nonpayable",
			"type": "function"
		},
		{
			"inputs": [],
			"name": "unpause",
			"outputs": [],
			"stateMutability": "nonpayable",
			"type": "function"
		},
		{
			"inputs": [
				{
					"internalType": "address",
					"name": "newImplementation",
					"type": "address"
				},
				{
					"internalType": "bytes",
					"name": "data",
					"type": "bytes"
				}
			],
			"name": "upgradeToAndCall",
			"outputs": [],
			"stateMutability": "payable",
			"type": "function"
		},
		{
			"stateMutability": "payable",
			"type": "receive"
		}
	]
}