{
  "_format": "hh-sol-artifact-1",
  "contractName": "System_wallet",
  "sourceName": "contracts/system/Wallet.sol",
  "abi": [
    {
      "inputs": [
        {
          "internalType": "address",
          "name": "target",
          "type": "address"
        }
      ],
      "name": "AddressEmptyCode",
      "type": "error"
    },
    {
      "inputs": [
        {
          "internalType": "address",
          "name": "implementation",
          "type": "address"
        }
      ],
      "name": "ERC1967InvalidImplementation",
      "type": "error"
    },
    {
      "inputs": [],
      "name": "ERC1967NonPayable",
      "type": "error"
    },
    {
      "inputs": [],
      "name": "FailedCall",
      "type": "error"
    },
    {
      "inputs": [],
      "name": "InvalidInitialization",
      "type": "error"
    },
    {
      "inputs": [],
      "name": "NotInitializing",
      "type": "error"
    },
    {
      "inputs": [],
      "name": "ReentrancyGuardReentrantCall",
      "type": "error"
    },
    {
      "inputs": [],
      "name": "UUPSUnauthorizedCallContext",
      "type": "error"
    },
    {
      "inputs": [
        {
          "internalType": "bytes32",
          "name": "slot",
          "type": "bytes32"
        }
      ],
      "name": "UUPSUnsupportedProxiableUUID",
      "type": "error"
    },
    {
      "anonymous": false,
      "inputs": [
        {
          "indexed": false,
          "internalType": "uint64",
          "name": "version",
          "type": "uint64"
        }
      ],
      "name": "Initialized",
      "type": "event"
    },
    {
      "anonymous": false,
      "inputs": [
        {
          "indexed": true,
          "internalType": "address",
          "name": "implementation",
          "type": "address"
        }
      ],
      "name": "Upgraded",
      "type": "event"
    },
    {
      "anonymous": false,
      "inputs": [
        {
          "indexed": true,
          "internalType": "address",
          "name": "caller",
          "type": "address"
        }
      ],
      "name": "contract_balances_checked",
      "type": "event"
    },
    {
      "anonymous": false,
      "inputs": [
        {
          "indexed": true,
          "internalType": "address",
          "name": "from",
          "type": "address"
        },
        {
          "indexed": true,
          "internalType": "uint256",
          "name": "amount",
          "type": "uint256"
        }
      ],
      "name": "contract_received_fund",
      "type": "event"
    },
    {
      "anonymous": false,
      "inputs": [
        {
          "indexed": true,
          "internalType": "address",
          "name": "to",
          "type": "address"
        },
        {
          "indexed": true,
          "internalType": "uint256",
          "name": "amount",
          "type": "uint256"
        }
      ],
      "name": "contract_transfered_fund",
      "type": "event"
    },
    {
      "stateMutability": "payable",
      "type": "fallback"
    },
    {
      "inputs": [],
      "name": "UPGRADE_INTERFACE_VERSION",
      "outputs": [
        {
          "internalType": "string",
          "name": "",
          "type": "string"
        }
      ],
      "stateMutability": "view",
      "type": "function"
    },
    {
      "inputs": [],
      "name": "accessControl",
      "outputs": [
        {
          "internalType": "contract IAccessControl",
          "name": "",
          "type": "address"
        }
      ],
      "stateMutability": "view",
      "type": "function"
    },
    {
      "inputs": [
        {
          "internalType": "address",
          "name": "_accessControl",
          "type": "address"
        }
      ],
      "name": "initialize",
      "outputs": [],
      "stateMutability": "nonpayable",
      "type": "function"
    },
    {
      "inputs": [],
      "name": "proxiableUUID",
      "outputs": [
        {
          "internalType": "bytes32",
          "name": "",
          "type": "bytes32"
        }
      ],
      "stateMutability": "view",
      "type": "function"
    },
    {
      "inputs": [],
      "name": "seeBalances",
      "outputs": [
        {
          "internalType": "uint256",
          "name": "",
          "type": "uint256"
        }
      ],
      "stateMutability": "nonpayable",
      "type": "function"
    },
    {
      "inputs": [
        {
          "internalType": "address payable",
          "name": "_to",
          "type": "address"
        },
        {
          "internalType": "uint256",
          "name": "_amount",
          "type": "uint256"
        }
      ],
      "name": "transfer",
      "outputs": [],
      "stateMutability": "nonpayable",
      "type": "function"
    },
    {
      "inputs": [
        {
          "internalType": "address",
          "name": "newImplementation",
          "type": "address"
        },
        {
          "internalType": "bytes",
          "name": "data",
          "type": "bytes"
        }
      ],
      "name": "upgradeToAndCall",
      "outputs": [],
      "stateMutability": "payable",
      "type": "function"
    },
    {
      "stateMutability": "payable",
      "type": "receive"
    }
  ],
  "bytecode": "0x60a0806040523460295730608052610b78908161002f823960805181818161059d01526106700152f35b600080fdfe6080806040526004361015610044575b50361561002d573433600080516020610ac3833981519152600080a3005b3433600080516020610ac3833981519152600080a3005b60003560e01c90816313007d551461086d575080634f1ef286146105f457806352d1902d1461058a5780638216c37e1461047c578063a9059cbb146102a4578063ad3cb1cc146102285763c4d66de81461009e573861000f565b34610223576020366003190112610223576100b7610891565b600080516020610b2383398151915254604081901c60ff161591906001600160401b0381168015908161021b575b6001149081610211575b159081610208575b506101f7576001600160401b03198116600117600080516020610b2383398151915255826101ce575b5061012a816109ce565b610132610a33565b61013a610a33565b610142610a33565b6001600080516020610b0383398151915255600080546001600160a01b0319166001600160a01b039290921691909117905561017a57005b60ff60401b19600080516020610b238339815191525416600080516020610b23833981519152557fc7f505b2f371ae2175ee4913f4499e1f2633a7b5936321eed1cdaeb6115181d2602060405160018152a1005b6001600160481b0319166001600160401b0117600080516020610b238339815191525538610120565b63f92ee8a960e01b60005260046000fd5b905015386100f7565b303b1591506100ef565b8491506100e5565b600080fd5b3461022357600036600319011261022357604080519061024881836108a7565b60058252640352e302e360dc1b6020830152805180926020825280519081602084015260005b82811061028d5750506000828201840152601f01601f19168101030190f35b60208282018101518783018701528694500161026e565b34610223576040366003190112610223576004356001600160a01b0381169081900361022357600054604051638da5cb5b60e01b81526024359291602090829060049082906001600160a01b03165afa80156104705761031791600091610441575b506001600160a01b03163314610966565b6002600080516020610b038339815191525414610430576002600080516020610b038339815191525561034b3315156108fb565b610354816109ce565b81471060001461039c5760405162461bcd60e51b8152602060048201526016602482015275696e737566696369656e742062616c616e636573202160501b6044820152606490fd5b600080808085855af16103ad61099e565b50156103ec577fae538a1b9462f6288da1c1912c6d7e22fc226dff723d1cc897cfc7727255ea70600080a36001600080516020610b0383398151915255005b606460405162461bcd60e51b815260206004820152602060248201527f7472616e7366657220746f206c6f616e20636f6e7472616374206661696c65646044820152fd5b633ee5aeb560e01b60005260046000fd5b610463915060203d602011610469575b61045b81836108a7565b810190610947565b84610306565b503d610451565b6040513d6000823e3d90fd5b3461022357600036600319011261022357600054604051633f784de560e11b815233600482015290602090829060249082906001600160a01b03165afa90811561047057600091610548575b5015610514576104d93315156108fb565b6020670de0b6b3a7640000470460405190337ff5afddf1b6f53f85e154c628a39cdd5cea6f2c35e6446999fb69c99ffd3e407e600080a28152f35b60405162461bcd60e51b815260206004820152600c60248201526b4e6f7420656d706c6f79656560a01b6044820152606490fd5b6020813d602011610582575b81610561602093836108a7565b8101031261057e575190811515820361057b5750816104c8565b80fd5b5080fd5b3d9150610554565b34610223576000366003190112610223577f00000000000000000000000000000000000000000000000000000000000000006001600160a01b031630036105e3576020604051600080516020610ae38339815191528152f35b63703e46dd60e11b60005260046000fd5b604036600319011261022357610608610891565b602435906001600160401b038211610223573660238301121561022357816004013590610634826108e0565b9161064260405193846108a7565b8083526020830193366024838301011161022357816000926024602093018737840101526001600160a01b037f00000000000000000000000000000000000000000000000000000000000000001630811490811561084a575b506105e357600054604051638da5cb5b60e01b815290602090829060049082906001600160a01b03165afa8015610470576106e89160009161082b57506001600160a01b03163314610966565b6040516352d1902d60e01b81526001600160a01b0382169390602081600481885afa600091816107f7575b5061072d5784634c9c8ce360e01b60005260045260246000fd5b80600080516020610ae38339815191528692036107e35750823b156107cf57600080516020610ae383398151915280546001600160a01b031916821790557fbc7cd75a20ee27fd9adebab32041f755214dbc6bffa90cc0225b39da2e5c2d3b600080a28251156107b457600080916107b2945190845af46107ac61099e565b91610a61565b005b505050346107be57005b63b398979f60e01b60005260046000fd5b634c9c8ce360e01b60005260045260246000fd5b632a87526960e21b60005260045260246000fd5b9091506020813d602011610823575b81610813602093836108a7565b8101031261022357519086610713565b3d9150610806565b610844915060203d6020116104695761045b81836108a7565b85610306565b600080516020610ae3833981519152546001600160a01b0316141590508461069b565b34610223576000366003190112610223576000546001600160a01b03168152602090f35b600435906001600160a01b038216820361022357565b601f909101601f19168101906001600160401b038211908210176108ca57604052565b634e487b7160e01b600052604160045260246000fd5b6001600160401b0381116108ca57601f01601f191660200190565b1561090257565b60405162461bcd60e51b815260206004820152601d60248201527f63616c6c65722069732063616e74206265207a65726f206164647220210000006044820152606490fd5b9081602091031261022357516001600160a01b03811681036102235790565b1561096d57565b60405162461bcd60e51b81526020600482015260096024820152682737ba1037bbb732b960b91b6044820152606490fd5b3d156109c9573d906109af826108e0565b916109bd60405193846108a7565b82523d6000602084013e565b606090565b6001600160a01b0316156109de57565b60405162461bcd60e51b815260206004820152602760248201527f416363657373436f6e74726f6c3a207a65726f2061646472657373206e6f7420604482015266185b1b1bddd95960ca1b6064820152608490fd5b60ff600080516020610b238339815191525460401c1615610a5057565b631afcd79f60e31b60005260046000fd5b90610a875750805115610a7657602081519101fd5b63d6bda27560e01b60005260046000fd5b81511580610ab9575b610a98575090565b639996b31560e01b60009081526001600160a01b0391909116600452602490fd5b50803b15610a9056fe9a910e4510aced4a032c4797a04f4c9b32316bcde4dfc60c7c73d88f936428c8360894a13ba1a3210667c828492db98dca3e2076cc3735a920a3ca505d382bbc9b779b17422d0df92223018b32b4d1fa46e071723d6817e2486d003becc55f00f0c57e16840df040f15088dc2f81fe391c3923bec73e23a9662efc9c229c6a00a264697066735822122026314868997f7efd68a81f192dde70fb32f1a65bb5e8f08d6e349bf93fa6c61f64736f6c634300081c0033",
  "linkReferences": {},
  "deployedLinkReferences": {}
}