{
  "_format": "hh-sol-artifact-1",
  "contractName": "System_wallet",
  "sourceName": "contracts/system/Wallet.sol",
  "abi": [
    {
      "inputs": [
        {
          "internalType": "address",
          "name": "target",
          "type": "address"
        }
      ],
      "name": "AddressEmptyCode",
      "type": "error"
    },
    {
      "inputs": [
        {
          "internalType": "address",
          "name": "implementation",
          "type": "address"
        }
      ],
      "name": "ERC1967InvalidImplementation",
      "type": "error"
    },
    {
      "inputs": [],
      "name": "ERC1967NonPayable",
      "type": "error"
    },
    {
      "inputs": [],
      "name": "FailedCall",
      "type": "error"
    },
    {
      "inputs": [],
      "name": "InvalidInitialization",
      "type": "error"
    },
    {
      "inputs": [],
      "name": "NotInitializing",
      "type": "error"
    },
    {
      "inputs": [],
      "name": "ReentrancyGuardReentrantCall",
      "type": "error"
    },
    {
      "inputs": [],
      "name": "UUPSUnauthorizedCallContext",
      "type": "error"
    },
    {
      "inputs": [
        {
          "internalType": "bytes32",
          "name": "slot",
          "type": "bytes32"
        }
      ],
      "name": "UUPSUnsupportedProxiableUUID",
      "type": "error"
    },
    {
      "anonymous": false,
      "inputs": [
        {
          "indexed": false,
          "internalType": "uint64",
          "name": "version",
          "type": "uint64"
        }
      ],
      "name": "Initialized",
      "type": "event"
    },
    {
      "anonymous": false,
      "inputs": [
        {
          "indexed": true,
          "internalType": "address",
          "name": "implementation",
          "type": "address"
        }
      ],
      "name": "Upgraded",
      "type": "event"
    },
    {
      "anonymous": false,
      "inputs": [
        {
          "indexed": true,
          "internalType": "address",
          "name": "caller",
          "type": "address"
        }
      ],
      "name": "contract_balances_checked",
      "type": "event"
    },
    {
      "anonymous": false,
      "inputs": [
        {
          "indexed": true,
          "internalType": "address",
          "name": "from",
          "type": "address"
        },
        {
          "indexed": true,
          "internalType": "uint256",
          "name": "amount",
          "type": "uint256"
        }
      ],
      "name": "contract_received_fund",
      "type": "event"
    },
    {
      "anonymous": false,
      "inputs": [
        {
          "indexed": true,
          "internalType": "address",
          "name": "to",
          "type": "address"
        },
        {
          "indexed": true,
          "internalType": "uint256",
          "name": "amount",
          "type": "uint256"
        }
      ],
      "name": "contract_transfered_fund",
      "type": "event"
    },
    {
      "stateMutability": "payable",
      "type": "fallback"
    },
    {
      "inputs": [],
      "name": "UPGRADE_INTERFACE_VERSION",
      "outputs": [
        {
          "internalType": "string",
          "name": "",
          "type": "string"
        }
      ],
      "stateMutability": "view",
      "type": "function"
    },
    {
      "inputs": [],
      "name": "accessControl",
      "outputs": [
        {
          "internalType": "contract IAccessControl",
          "name": "",
          "type": "address"
        }
      ],
      "stateMutability": "view",
      "type": "function"
    },
    {
      "inputs": [
        {
          "internalType": "address",
          "name": "_accessControl",
          "type": "address"
        }
      ],
      "name": "initialize",
      "outputs": [],
      "stateMutability": "nonpayable",
      "type": "function"
    },
    {
      "inputs": [],
      "name": "proxiableUUID",
      "outputs": [
        {
          "internalType": "bytes32",
          "name": "",
          "type": "bytes32"
        }
      ],
      "stateMutability": "view",
      "type": "function"
    },
    {
      "inputs": [],
      "name": "seeBalances",
      "outputs": [
        {
          "internalType": "uint256",
          "name": "",
          "type": "uint256"
        }
      ],
      "stateMutability": "nonpayable",
      "type": "function"
    },
    {
      "inputs": [
        {
          "internalType": "address payable",
          "name": "_to",
          "type": "address"
        },
        {
          "internalType": "uint256",
          "name": "_amount",
          "type": "uint256"
        }
      ],
      "name": "transfer",
      "outputs": [],
      "stateMutability": "nonpayable",
      "type": "function"
    },
    {
      "inputs": [
        {
          "internalType": "address",
          "name": "newImplementation",
          "type": "address"
        },
        {
          "internalType": "bytes",
          "name": "data",
          "type": "bytes"
        }
      ],
      "name": "upgradeToAndCall",
      "outputs": [],
      "stateMutability": "payable",
      "type": "function"
    },
    {
      "stateMutability": "payable",
      "type": "receive"
    }
  ],
  "bytecode": "0x60a0806040523460295730608052610b6b908161002f823960805181818161059001526106630152f35b600080fdfe6080806040526004361015610044575b50361561002d573433600080516020610ab6833981519152600080a3005b3433600080516020610ab6833981519152600080a3005b60003560e01c90816313007d5514610860575080634f1ef286146105e757806352d1902d1461057d5780638216c37e1461046f578063a9059cbb146102a4578063ad3cb1cc146102285763c4d66de81461009e573861000f565b34610223576020366003190112610223576100b7610884565b600080516020610b1683398151915254604081901c60ff161591906001600160401b0381168015908161021b575b6001149081610211575b159081610208575b506101f7576001600160401b03198116600117600080516020610b1683398151915255826101ce575b5061012a816109c1565b610132610a26565b61013a610a26565b610142610a26565b6001600080516020610af683398151915255600080546001600160a01b0319166001600160a01b039290921691909117905561017a57005b60ff60401b19600080516020610b168339815191525416600080516020610b16833981519152557fc7f505b2f371ae2175ee4913f4499e1f2633a7b5936321eed1cdaeb6115181d2602060405160018152a1005b6001600160481b0319166001600160401b0117600080516020610b168339815191525538610120565b63f92ee8a960e01b60005260046000fd5b905015386100f7565b303b1591506100ef565b8491506100e5565b600080fd5b34610223576000366003190112610223576040805190610248818361089a565b60058252640352e302e360dc1b6020830152805180926020825280519081602084015260005b82811061028d5750506000828201840152601f01601f19168101030190f35b60208282018101518783018701528694500161026e565b34610223576040366003190112610223576004356001600160a01b0381169081900361022357600054604051638da5cb5b60e01b81526024359291602090829060049082906001600160a01b03165afa80156104635761031791600091610434575b506001600160a01b03163314610959565b6002600080516020610af68339815191525414610423576002600080516020610af68339815191525561034b3315156108ee565b610354816109c1565b81471060001461039c5760405162461bcd60e51b8152602060048201526016602482015275696e737566696369656e742062616c616e636573202160501b6044820152606490fd5b600080808085855af16103ad610991565b50156103ec577fae538a1b9462f6288da1c1912c6d7e22fc226dff723d1cc897cfc7727255ea70600080a36001600080516020610af683398151915255005b60405162461bcd60e51b815260206004820152600f60248201526e1d1c985b9cd9995c8819985a5b1959608a1b6044820152606490fd5b633ee5aeb560e01b60005260046000fd5b610456915060203d60201161045c575b61044e818361089a565b81019061093a565b84610306565b503d610444565b6040513d6000823e3d90fd5b3461022357600036600319011261022357600054604051633f784de560e11b815233600482015290602090829060249082906001600160a01b03165afa9081156104635760009161053b575b5015610507576104cc3315156108ee565b6020670de0b6b3a7640000470460405190337ff5afddf1b6f53f85e154c628a39cdd5cea6f2c35e6446999fb69c99ffd3e407e600080a28152f35b60405162461bcd60e51b815260206004820152600c60248201526b4e6f7420656d706c6f79656560a01b6044820152606490fd5b6020813d602011610575575b816105546020938361089a565b81010312610571575190811515820361056e5750816104bb565b80fd5b5080fd5b3d9150610547565b34610223576000366003190112610223577f00000000000000000000000000000000000000000000000000000000000000006001600160a01b031630036105d6576020604051600080516020610ad68339815191528152f35b63703e46dd60e11b60005260046000fd5b6040366003190112610223576105fb610884565b602435906001600160401b038211610223573660238301121561022357816004013590610627826108d3565b91610635604051938461089a565b8083526020830193366024838301011161022357816000926024602093018737840101526001600160a01b037f00000000000000000000000000000000000000000000000000000000000000001630811490811561083d575b506105d657600054604051638da5cb5b60e01b815290602090829060049082906001600160a01b03165afa8015610463576106db9160009161081e57506001600160a01b03163314610959565b6040516352d1902d60e01b81526001600160a01b0382169390602081600481885afa600091816107ea575b506107205784634c9c8ce360e01b60005260045260246000fd5b80600080516020610ad68339815191528692036107d65750823b156107c257600080516020610ad683398151915280546001600160a01b031916821790557fbc7cd75a20ee27fd9adebab32041f755214dbc6bffa90cc0225b39da2e5c2d3b600080a28251156107a757600080916107a5945190845af461079f610991565b91610a54565b005b505050346107b157005b63b398979f60e01b60005260046000fd5b634c9c8ce360e01b60005260045260246000fd5b632a87526960e21b60005260045260246000fd5b9091506020813d602011610816575b816108066020938361089a565b8101031261022357519086610706565b3d91506107f9565b610837915060203d60201161045c5761044e818361089a565b85610306565b600080516020610ad6833981519152546001600160a01b0316141590508461068e565b34610223576000366003190112610223576000546001600160a01b03168152602090f35b600435906001600160a01b038216820361022357565b601f909101601f19168101906001600160401b038211908210176108bd57604052565b634e487b7160e01b600052604160045260246000fd5b6001600160401b0381116108bd57601f01601f191660200190565b156108f557565b60405162461bcd60e51b815260206004820152601d60248201527f63616c6c65722069732063616e74206265207a65726f206164647220210000006044820152606490fd5b9081602091031261022357516001600160a01b03811681036102235790565b1561096057565b60405162461bcd60e51b81526020600482015260096024820152682737ba1037bbb732b960b91b6044820152606490fd5b3d156109bc573d906109a2826108d3565b916109b0604051938461089a565b82523d6000602084013e565b606090565b6001600160a01b0316156109d157565b60405162461bcd60e51b815260206004820152602760248201527f416363657373436f6e74726f6c3a207a65726f2061646472657373206e6f7420604482015266185b1b1bddd95960ca1b6064820152608490fd5b60ff600080516020610b168339815191525460401c1615610a4357565b631afcd79f60e31b60005260046000fd5b90610a7a5750805115610a6957602081519101fd5b63d6bda27560e01b60005260046000fd5b81511580610aac575b610a8b575090565b639996b31560e01b60009081526001600160a01b0391909116600452602490fd5b50803b15610a8356fe9a910e4510aced4a032c4797a04f4c9b32316bcde4dfc60c7c73d88f936428c8360894a13ba1a3210667c828492db98dca3e2076cc3735a920a3ca505d382bbc9b779b17422d0df92223018b32b4d1fa46e071723d6817e2486d003becc55f00f0c57e16840df040f15088dc2f81fe391c3923bec73e23a9662efc9c229c6a00a2646970667358221220eb9eb2c980dd700b276f06748f282c7cc385881cee7552741dc28e826c5d87e764736f6c634300081c0033",
  "linkReferences": {},
  "deployedLinkReferences": {}
}