{
  "_format": "hh-sol-artifact-1",
  "contractName": "EmployeeAssignment",
  "sourceName": "contracts/Owner/employe_assignment.sol",
  "abi": [
    {
      "inputs": [
        {
          "internalType": "address",
          "name": "target",
          "type": "address"
        }
      ],
      "name": "AddressEmptyCode",
      "type": "error"
    },
    {
      "inputs": [
        {
          "internalType": "address",
          "name": "implementation",
          "type": "address"
        }
      ],
      "name": "ERC1967InvalidImplementation",
      "type": "error"
    },
    {
      "inputs": [],
      "name": "ERC1967NonPayable",
      "type": "error"
    },
    {
      "inputs": [],
      "name": "FailedCall",
      "type": "error"
    },
    {
      "inputs": [],
      "name": "InvalidInitialization",
      "type": "error"
    },
    {
      "inputs": [],
      "name": "NotInitializing",
      "type": "error"
    },
    {
      "inputs": [],
      "name": "UUPSUnauthorizedCallContext",
      "type": "error"
    },
    {
      "inputs": [
        {
          "internalType": "bytes32",
          "name": "slot",
          "type": "bytes32"
        }
      ],
      "name": "UUPSUnsupportedProxiableUUID",
      "type": "error"
    },
    {
      "anonymous": false,
      "inputs": [
        {
          "indexed": true,
          "internalType": "address",
          "name": "employee",
          "type": "address"
        }
      ],
      "name": "EmployeeAssigned",
      "type": "event"
    },
    {
      "anonymous": false,
      "inputs": [
        {
          "indexed": true,
          "internalType": "address",
          "name": "employee",
          "type": "address"
        }
      ],
      "name": "EmployeeRemoved",
      "type": "event"
    },
    {
      "anonymous": false,
      "inputs": [
        {
          "indexed": false,
          "internalType": "uint64",
          "name": "version",
          "type": "uint64"
        }
      ],
      "name": "Initialized",
      "type": "event"
    },
    {
      "anonymous": false,
      "inputs": [
        {
          "indexed": true,
          "internalType": "address",
          "name": "oldOwner",
          "type": "address"
        },
        {
          "indexed": true,
          "internalType": "address",
          "name": "newOwner",
          "type": "address"
        }
      ],
      "name": "OwnerChanged",
      "type": "event"
    },
    {
      "anonymous": false,
      "inputs": [
        {
          "indexed": true,
          "internalType": "address",
          "name": "implementation",
          "type": "address"
        }
      ],
      "name": "Upgraded",
      "type": "event"
    },
    {
      "inputs": [],
      "name": "UPGRADE_INTERFACE_VERSION",
      "outputs": [
        {
          "internalType": "string",
          "name": "",
          "type": "string"
        }
      ],
      "stateMutability": "view",
      "type": "function"
    },
    {
      "inputs": [
        {
          "internalType": "address",
          "name": "newEmployee",
          "type": "address"
        }
      ],
      "name": "assignNewEmployee",
      "outputs": [],
      "stateMutability": "nonpayable",
      "type": "function"
    },
    {
      "inputs": [
        {
          "internalType": "address",
          "name": "newOwner",
          "type": "address"
        }
      ],
      "name": "changeOwner",
      "outputs": [],
      "stateMutability": "nonpayable",
      "type": "function"
    },
    {
      "inputs": [],
      "name": "employeeCount",
      "outputs": [
        {
          "internalType": "uint256",
          "name": "",
          "type": "uint256"
        }
      ],
      "stateMutability": "view",
      "type": "function"
    },
    {
      "inputs": [
        {
          "internalType": "address",
          "name": "account",
          "type": "address"
        }
      ],
      "name": "hasRole",
      "outputs": [
        {
          "internalType": "bool",
          "name": "",
          "type": "bool"
        }
      ],
      "stateMutability": "view",
      "type": "function"
    },
    {
      "inputs": [],
      "name": "initialize",
      "outputs": [],
      "stateMutability": "nonpayable",
      "type": "function"
    },
    {
      "inputs": [],
      "name": "owner",
      "outputs": [
        {
          "internalType": "address",
          "name": "",
          "type": "address"
        }
      ],
      "stateMutability": "view",
      "type": "function"
    },
    {
      "inputs": [],
      "name": "proxiableUUID",
      "outputs": [
        {
          "internalType": "bytes32",
          "name": "",
          "type": "bytes32"
        }
      ],
      "stateMutability": "view",
      "type": "function"
    },
    {
      "inputs": [
        {
          "internalType": "address",
          "name": "employee",
          "type": "address"
        }
      ],
      "name": "removeEmployee",
      "outputs": [],
      "stateMutability": "nonpayable",
      "type": "function"
    },
    {
      "inputs": [
        {
          "internalType": "address",
          "name": "newImplementation",
          "type": "address"
        },
        {
          "internalType": "bytes",
          "name": "data",
          "type": "bytes"
        }
      ],
      "name": "upgradeToAndCall",
      "outputs": [],
      "stateMutability": "payable",
      "type": "function"
    }
  ],
  "bytecode": "0x60a0806040523460295730608052610b12908161002f823960805181818161066101526107340152f35b600080fdfe6080604052600436101561001257600080fd5b60003560e01c80634f1ef286146106b857806352d1902d1461064e5780637ef09bca1461060f5780638129fc1c146104b45780638da5cb5b1461048b5780639047bf581461046d578063a6f9dae1146103e5578063ad3cb1cc14610369578063b106539c146101a25763d108177a1461008a57600080fd5b3461019d57602036600319011261019d576100a3610907565b6100b860018060a01b03600054163314610971565b6001600160a01b031660008181526002602052604090205460ff161561013b57806000526002602052604060002060ff198154169055600154801561012557600019016001557fabae6e64cb4315875c29d42347a312f5e9fce4ab564e9722b43dd78d0751135a600080a2005b634e487b7160e01b600052601160045260246000fd5b60405162461bcd60e51b815260206004820152603460248201527f456d706c6f79656541737369676e6d656e743a20656d706c6f79656520646f6560448201527373206e6f742068617665207468697320726f6c6560601b6064820152608490fd5b600080fd5b3461019d57602036600319011261019d576101bb610907565b6000546001600160a01b0316906101d3338314610971565b6001600160a01b03169081156103085781600052600260205260ff604060002054166102a8578114610251578060005260026020526040600020600160ff198254161790556001546000198114610125576001016001557f7758ff72b16b98313da220996e94c64524b9776307508b4574d8cc21f1aeb9ee600080a2005b60405162461bcd60e51b815260206004820152602960248201527f456d706c6f79656541737369676e6d656e743a206f776e65722063616e20626560448201526820656d706c6f79656560b81b6064820152608490fd5b60405162461bcd60e51b815260206004820152603260248201527f456d706c6f79656541737369676e6d656e743a20656d706c6f79656520616c726044820152716561647920686173207468697320726f6c6560701b6064820152608490fd5b60405162461bcd60e51b815260206004820152603360248201527f456d706c6f79656541737369676e6d656e743a20656d706c6f7965652063616e6044820152726e6f74206265207a65726f206164647265737360681b6064820152608490fd5b3461019d57600036600319011261019d576040805190610389818361091d565b60058252640352e302e360dc1b6020830152805180926020825280519081602084015260005b8281106103ce5750506000828201840152601f01601f19168101030190f35b6020828201810151878301870152869450016103af565b3461019d57602036600319011261019d576103fe610907565b600054906001600160a01b03821690610418338314610971565b610421816109d1565b61042a336109d1565b6001600160a01b03166001600160a01b031992909216821760009081557fb532073b38c83145e3e5135377a08bf9aab55bc0fd7c1179cd4fb995d2a5159c9080a3005b3461019d57600036600319011261019d576020600154604051908152f35b3461019d57600036600319011261019d576000546040516001600160a01b039091168152602090f35b3461019d57600036600319011261019d57600080516020610abd83398151915254604081901c60ff1615906001600160401b03811680159081610607575b60011490816105fd575b1590816105f4575b506105e3576001600160401b03198116600117600080516020610abd83398151915255816105ba575b50600080516020610abd833981519152549060ff8260401c16156105a957600080546001600160a01b0319163317905561056357005b60ff60401b1916600080516020610abd83398151915255604051600181527fc7f505b2f371ae2175ee4913f4499e1f2633a7b5936321eed1cdaeb6115181d290602090a1005b631afcd79f60e31b60005260046000fd5b6001600160481b0319166001600160401b0117600080516020610abd833981519152558161052d565b63f92ee8a960e01b60005260046000fd5b90501583610504565b303b1591506104fc565b8391506104f2565b3461019d57602036600319011261019d576001600160a01b03610630610907565b166000526002602052602060ff604060002054166040519015158152f35b3461019d57600036600319011261019d577f00000000000000000000000000000000000000000000000000000000000000006001600160a01b031630036106a7576020604051600080516020610a9d8339815191528152f35b63703e46dd60e11b60005260046000fd5b604036600319011261019d576106cc610907565b602435906001600160401b03821161019d573660238301121561019d578160040135906106f882610956565b91610706604051938461091d565b8083526020830193366024838301011161019d57816000926024602093018737840101526001600160a01b037f0000000000000000000000000000000000000000000000000000000000000000163081149081156108e4575b506106a75761077960018060a01b03600054163314610971565b6040516352d1902d60e01b81526001600160a01b0382169390602081600481885afa600091816108b0575b506107be5784634c9c8ce360e01b60005260045260246000fd5b80600080516020610a9d83398151915286920361089c5750823b1561088857600080516020610a9d83398151915280546001600160a01b031916821790557fbc7cd75a20ee27fd9adebab32041f755214dbc6bffa90cc0225b39da2e5c2d3b600080a282511561086d5760008091610863945190845af43d15610865573d9161084683610956565b92610854604051948561091d565b83523d6000602085013e610a3b565b005b606091610a3b565b5050503461087757005b63b398979f60e01b60005260046000fd5b634c9c8ce360e01b60005260045260246000fd5b632a87526960e21b60005260045260246000fd5b9091506020813d6020116108dc575b816108cc6020938361091d565b8101031261019d575190866107a4565b3d91506108bf565b600080516020610a9d833981519152546001600160a01b0316141590508461075f565b600435906001600160a01b038216820361019d57565b601f909101601f19168101906001600160401b0382119082101761094057604052565b634e487b7160e01b600052604160045260246000fd5b6001600160401b03811161094057601f01601f191660200190565b1561097857565b60405162461bcd60e51b815260206004820152602b60248201527f456d706c6f79656541737369676e6d656e743a2063616c6c6572206973206e6f60448201526a3a103a34329037bbb732b960a91b6064820152608490fd5b6001600160a01b0316156109e157565b60405162461bcd60e51b815260206004820152602c60248201527f456d706c6f79656541737369676e6d656e743a207a65726f206164647265737360448201526b081b9bdd08185b1b1bddd95960a21b6064820152608490fd5b90610a615750805115610a5057602081519101fd5b63d6bda27560e01b60005260046000fd5b81511580610a93575b610a72575090565b639996b31560e01b60009081526001600160a01b0391909116600452602490fd5b50803b15610a6a56fe360894a13ba1a3210667c828492db98dca3e2076cc3735a920a3ca505d382bbcf0c57e16840df040f15088dc2f81fe391c3923bec73e23a9662efc9c229c6a00a2646970667358221220cf6fd7f7079247f3027060f058fa7a3aa9e4ab50c9c58feaab114e4198a44f3d64736f6c634300081c0033",
  "linkReferences": {},
  "deployedLinkReferences": {}
}