{
  "_format": "hh-sol-artifact-1",
  "contractName": "stateVariable",
  "sourceName": "contracts/system/StateVariable.sol",
  "abi": [
    {
      "inputs": [
        {
          "internalType": "uint64",
          "name": "_rewardScore",
          "type": "uint64"
        },
        {
          "internalType": "uint64",
          "name": "_reputationScore",
          "type": "uint64"
        },
        {
          "internalType": "uint64",
          "name": "_deadlineScore",
          "type": "uint64"
        },
        {
          "internalType": "uint64",
          "name": "_revisionScore",
          "type": "uint64"
        },
        {
          "internalType": "uint256",
          "name": "lowStake",
          "type": "uint256"
        },
        {
          "internalType": "uint256",
          "name": "midLowStake",
          "type": "uint256"
        },
        {
          "internalType": "uint256",
          "name": "midStake",
          "type": "uint256"
        },
        {
          "internalType": "uint256",
          "name": "midHighStake",
          "type": "uint256"
        },
        {
          "internalType": "uint256",
          "name": "highStake",
          "type": "uint256"
        },
        {
          "internalType": "uint256",
          "name": "ultraHighStake",
          "type": "uint256"
        },
        {
          "internalType": "uint32",
          "name": "CancelByMeRP",
          "type": "uint32"
        },
        {
          "internalType": "uint32",
          "name": "requestCancelRP",
          "type": "uint32"
        },
        {
          "internalType": "uint32",
          "name": "respondCancelRP",
          "type": "uint32"
        },
        {
          "internalType": "uint32",
          "name": "revisionRP",
          "type": "uint32"
        },
        {
          "internalType": "uint32",
          "name": "taskAcceptCreatorRP",
          "type": "uint32"
        },
        {
          "internalType": "uint32",
          "name": "taskAcceptMemberRP",
          "type": "uint32"
        },
        {
          "internalType": "uint32",
          "name": "deadlineHitCreatorRP",
          "type": "uint32"
        },
        {
          "internalType": "uint32",
          "name": "deadlineHitMemberRP",
          "type": "uint32"
        },
        {
          "internalType": "uint64",
          "name": "_maxStakeInEther",
          "type": "uint64"
        },
        {
          "internalType": "uint64",
          "name": "_maxRewardInEther",
          "type": "uint64"
        },
        {
          "internalType": "uint32",
          "name": "_cooldownInHour",
          "type": "uint32"
        },
        {
          "internalType": "uint32",
          "name": "_minRevisionTimeInHour",
          "type": "uint32"
        },
        {
          "internalType": "uint32",
          "name": "_NegPenalty",
          "type": "uint32"
        },
        {
          "internalType": "uint16",
          "name": "_feePercentage",
          "type": "uint16"
        },
        {
          "internalType": "uint16",
          "name": "_maxRevision",
          "type": "uint16"
        },
        {
          "internalType": "uint256",
          "name": "lowCat",
          "type": "uint256"
        },
        {
          "internalType": "uint256",
          "name": "midLowCat",
          "type": "uint256"
        },
        {
          "internalType": "uint256",
          "name": "midCat",
          "type": "uint256"
        },
        {
          "internalType": "uint256",
          "name": "midHighCat",
          "type": "uint256"
        },
        {
          "internalType": "uint256",
          "name": "highCat",
          "type": "uint256"
        },
        {
          "internalType": "uint256",
          "name": "ultraHighCat",
          "type": "uint256"
        },
        {
          "internalType": "address",
          "name": "_accessControl",
          "type": "address"
        }
      ],
      "stateMutability": "nonpayable",
      "type": "constructor"
    },
    {
      "inputs": [],
      "name": "EnforcedPause",
      "type": "error"
    },
    {
      "inputs": [],
      "name": "ExpectedPause",
      "type": "error"
    },
    {
      "inputs": [],
      "name": "InvalidInitialization",
      "type": "error"
    },
    {
      "inputs": [],
      "name": "InvalidMaxStakeAmount",
      "type": "error"
    },
    {
      "inputs": [],
      "name": "NotInitializing",
      "type": "error"
    },
    {
      "inputs": [],
      "name": "TotalMustBe10",
      "type": "error"
    },
    {
      "anonymous": false,
      "inputs": [
        {
          "indexed": false,
          "internalType": "address",
          "name": "newAccessControl",
          "type": "address"
        }
      ],
      "name": "AccessControlChanged",
      "type": "event"
    },
    {
      "anonymous": false,
      "inputs": [
        {
          "indexed": false,
          "internalType": "address",
          "name": "account",
          "type": "address"
        }
      ],
      "name": "ContractPaused",
      "type": "event"
    },
    {
      "anonymous": false,
      "inputs": [
        {
          "indexed": false,
          "internalType": "address",
          "name": "account",
          "type": "address"
        }
      ],
      "name": "ContractUnpaused",
      "type": "event"
    },
    {
      "anonymous": false,
      "inputs": [
        {
          "indexed": false,
          "internalType": "uint64",
          "name": "version",
          "type": "uint64"
        }
      ],
      "name": "Initialized",
      "type": "event"
    },
    {
      "anonymous": false,
      "inputs": [
        {
          "indexed": false,
          "internalType": "address",
          "name": "account",
          "type": "address"
        }
      ],
      "name": "Paused",
      "type": "event"
    },
    {
      "anonymous": false,
      "inputs": [
        {
          "indexed": false,
          "internalType": "uint32",
          "name": "cooldownInHour",
          "type": "uint32"
        },
        {
          "indexed": false,
          "internalType": "uint32",
          "name": "minRevisionTimeInHour",
          "type": "uint32"
        },
        {
          "indexed": false,
          "internalType": "uint32",
          "name": "NegPenalty",
          "type": "uint32"
        },
        {
          "indexed": false,
          "internalType": "uint64",
          "name": "maxReward",
          "type": "uint64"
        },
        {
          "indexed": false,
          "internalType": "uint16",
          "name": "feePercentage",
          "type": "uint16"
        },
        {
          "indexed": false,
          "internalType": "uint64",
          "name": "maxStake",
          "type": "uint64"
        },
        {
          "indexed": false,
          "internalType": "uint16",
          "name": "maxRevision",
          "type": "uint16"
        }
      ],
      "name": "StateVarsChanged",
      "type": "event"
    },
    {
      "anonymous": false,
      "inputs": [
        {
          "indexed": false,
          "internalType": "address",
          "name": "account",
          "type": "address"
        }
      ],
      "name": "Unpaused",
      "type": "event"
    },
    {
      "anonymous": false,
      "inputs": [
        {
          "indexed": false,
          "internalType": "uint64",
          "name": "rewardScore",
          "type": "uint64"
        },
        {
          "indexed": false,
          "internalType": "uint64",
          "name": "reputationScore",
          "type": "uint64"
        },
        {
          "indexed": false,
          "internalType": "uint64",
          "name": "deadlineScore",
          "type": "uint64"
        },
        {
          "indexed": false,
          "internalType": "uint64",
          "name": "revisionScore",
          "type": "uint64"
        }
      ],
      "name": "componentWeightPercentagesChanged",
      "type": "event"
    },
    {
      "anonymous": false,
      "inputs": [
        {
          "indexed": false,
          "internalType": "uint32",
          "name": "CancelByMe",
          "type": "uint32"
        },
        {
          "indexed": false,
          "internalType": "uint32",
          "name": "requestCancel",
          "type": "uint32"
        },
        {
          "indexed": false,
          "internalType": "uint32",
          "name": "respondCancel",
          "type": "uint32"
        },
        {
          "indexed": false,
          "internalType": "uint32",
          "name": "revision",
          "type": "uint32"
        },
        {
          "indexed": false,
          "internalType": "uint32",
          "name": "taskAcceptCreator",
          "type": "uint32"
        },
        {
          "indexed": false,
          "internalType": "uint32",
          "name": "taskAcceptMember",
          "type": "uint32"
        },
        {
          "indexed": false,
          "internalType": "uint32",
          "name": "deadlineHitCreator",
          "type": "uint32"
        },
        {
          "indexed": false,
          "internalType": "uint32",
          "name": "deadlineHitMember",
          "type": "uint32"
        }
      ],
      "name": "reputationPointsChanged",
      "type": "event"
    },
    {
      "anonymous": false,
      "inputs": [
        {
          "indexed": false,
          "internalType": "uint256",
          "name": "low",
          "type": "uint256"
        },
        {
          "indexed": false,
          "internalType": "uint256",
          "name": "midLow",
          "type": "uint256"
        },
        {
          "indexed": false,
          "internalType": "uint256",
          "name": "mid",
          "type": "uint256"
        },
        {
          "indexed": false,
          "internalType": "uint256",
          "name": "midHigh",
          "type": "uint256"
        },
        {
          "indexed": false,
          "internalType": "uint256",
          "name": "high",
          "type": "uint256"
        },
        {
          "indexed": false,
          "internalType": "uint256",
          "name": "ultraHigh",
          "type": "uint256"
        }
      ],
      "name": "stakeAmountsChanged",
      "type": "event"
    },
    {
      "anonymous": false,
      "inputs": [
        {
          "indexed": false,
          "internalType": "uint256",
          "name": "low",
          "type": "uint256"
        },
        {
          "indexed": false,
          "internalType": "uint256",
          "name": "midleLow",
          "type": "uint256"
        },
        {
          "indexed": false,
          "internalType": "uint256",
          "name": "midle",
          "type": "uint256"
        },
        {
          "indexed": false,
          "internalType": "uint256",
          "name": "midleHigh",
          "type": "uint256"
        },
        {
          "indexed": false,
          "internalType": "uint256",
          "name": "high",
          "type": "uint256"
        },
        {
          "indexed": false,
          "internalType": "uint256",
          "name": "ultraHigh",
          "type": "uint256"
        }
      ],
      "name": "stakeCategorysChanged",
      "type": "event"
    },
    {
      "inputs": [],
      "name": "StakeCategorys",
      "outputs": [
        {
          "internalType": "uint256",
          "name": "low",
          "type": "uint256"
        },
        {
          "internalType": "uint256",
          "name": "midleLow",
          "type": "uint256"
        },
        {
          "internalType": "uint256",
          "name": "midle",
          "type": "uint256"
        },
        {
          "internalType": "uint256",
          "name": "midleHigh",
          "type": "uint256"
        },
        {
          "internalType": "uint256",
          "name": "high",
          "type": "uint256"
        },
        {
          "internalType": "uint256",
          "name": "ultraHigh",
          "type": "uint256"
        }
      ],
      "stateMutability": "view",
      "type": "function"
    },
    {
      "inputs": [],
      "name": "StateVars",
      "outputs": [
        {
          "internalType": "uint64",
          "name": "maxStake",
          "type": "uint64"
        },
        {
          "internalType": "uint64",
          "name": "maxReward",
          "type": "uint64"
        },
        {
          "internalType": "uint32",
          "name": "cooldownInHour",
          "type": "uint32"
        },
        {
          "internalType": "uint32",
          "name": "minRevisionTimeInHour",
          "type": "uint32"
        },
        {
          "internalType": "uint32",
          "name": "NegPenalty",
          "type": "uint32"
        },
        {
          "internalType": "uint16",
          "name": "feePercentage",
          "type": "uint16"
        },
        {
          "internalType": "uint16",
          "name": "maxRevision",
          "type": "uint16"
        }
      ],
      "stateMutability": "view",
      "type": "function"
    },
    {
      "inputs": [],
      "name": "__getCancelByMe",
      "outputs": [
        {
          "internalType": "uint32",
          "name": "",
          "type": "uint32"
        }
      ],
      "stateMutability": "view",
      "type": "function"
    },
    {
      "inputs": [],
      "name": "__getCategoryHigh",
      "outputs": [
        {
          "internalType": "uint256",
          "name": "",
          "type": "uint256"
        }
      ],
      "stateMutability": "view",
      "type": "function"
    },
    {
      "inputs": [],
      "name": "__getCategoryLow",
      "outputs": [
        {
          "internalType": "uint256",
          "name": "",
          "type": "uint256"
        }
      ],
      "stateMutability": "view",
      "type": "function"
    },
    {
      "inputs": [],
      "name": "__getCategoryMidle",
      "outputs": [
        {
          "internalType": "uint256",
          "name": "",
          "type": "uint256"
        }
      ],
      "stateMutability": "view",
      "type": "function"
    },
    {
      "inputs": [],
      "name": "__getCategoryMidleHigh",
      "outputs": [
        {
          "internalType": "uint256",
          "name": "",
          "type": "uint256"
        }
      ],
      "stateMutability": "view",
      "type": "function"
    },
    {
      "inputs": [],
      "name": "__getCategoryMidleLow",
      "outputs": [
        {
          "internalType": "uint256",
          "name": "",
          "type": "uint256"
        }
      ],
      "stateMutability": "view",
      "type": "function"
    },
    {
      "inputs": [],
      "name": "__getCategoryUltraHigh",
      "outputs": [
        {
          "internalType": "uint256",
          "name": "",
          "type": "uint256"
        }
      ],
      "stateMutability": "view",
      "type": "function"
    },
    {
      "inputs": [],
      "name": "__getCooldownInHour",
      "outputs": [
        {
          "internalType": "uint32",
          "name": "",
          "type": "uint32"
        }
      ],
      "stateMutability": "view",
      "type": "function"
    },
    {
      "inputs": [],
      "name": "__getDeadlineHitCreator",
      "outputs": [
        {
          "internalType": "uint32",
          "name": "",
          "type": "uint32"
        }
      ],
      "stateMutability": "view",
      "type": "function"
    },
    {
      "inputs": [],
      "name": "__getDeadlineHitMember",
      "outputs": [
        {
          "internalType": "uint32",
          "name": "",
          "type": "uint32"
        }
      ],
      "stateMutability": "view",
      "type": "function"
    },
    {
      "inputs": [],
      "name": "__getDeadlineScore",
      "outputs": [
        {
          "internalType": "uint64",
          "name": "",
          "type": "uint64"
        }
      ],
      "stateMutability": "view",
      "type": "function"
    },
    {
      "inputs": [],
      "name": "__getFeePercentage",
      "outputs": [
        {
          "internalType": "uint16",
          "name": "",
          "type": "uint16"
        }
      ],
      "stateMutability": "view",
      "type": "function"
    },
    {
      "inputs": [],
      "name": "__getMaxRevision",
      "outputs": [
        {
          "internalType": "uint16",
          "name": "",
          "type": "uint16"
        }
      ],
      "stateMutability": "view",
      "type": "function"
    },
    {
      "inputs": [],
      "name": "__getMaxReward",
      "outputs": [
        {
          "internalType": "uint64",
          "name": "",
          "type": "uint64"
        }
      ],
      "stateMutability": "view",
      "type": "function"
    },
    {
      "inputs": [],
      "name": "__getMaxStake",
      "outputs": [
        {
          "internalType": "uint64",
          "name": "",
          "type": "uint64"
        }
      ],
      "stateMutability": "view",
      "type": "function"
    },
    {
      "inputs": [],
      "name": "__getMinRevisionTimeInHour",
      "outputs": [
        {
          "internalType": "uint32",
          "name": "",
          "type": "uint32"
        }
      ],
      "stateMutability": "view",
      "type": "function"
    },
    {
      "inputs": [],
      "name": "__getNegPenalty",
      "outputs": [
        {
          "internalType": "uint32",
          "name": "",
          "type": "uint32"
        }
      ],
      "stateMutability": "view",
      "type": "function"
    },
    {
      "inputs": [],
      "name": "__getReputationScore",
      "outputs": [
        {
          "internalType": "uint64",
          "name": "",
          "type": "uint64"
        }
      ],
      "stateMutability": "view",
      "type": "function"
    },
    {
      "inputs": [],
      "name": "__getRequestCancel",
      "outputs": [
        {
          "internalType": "uint32",
          "name": "",
          "type": "uint32"
        }
      ],
      "stateMutability": "view",
      "type": "function"
    },
    {
      "inputs": [],
      "name": "__getRespondCancel",
      "outputs": [
        {
          "internalType": "uint32",
          "name": "",
          "type": "uint32"
        }
      ],
      "stateMutability": "view",
      "type": "function"
    },
    {
      "inputs": [],
      "name": "__getRevisionPenalty",
      "outputs": [
        {
          "internalType": "uint32",
          "name": "",
          "type": "uint32"
        }
      ],
      "stateMutability": "view",
      "type": "function"
    },
    {
      "inputs": [],
      "name": "__getRevisionScore",
      "outputs": [
        {
          "internalType": "uint64",
          "name": "",
          "type": "uint64"
        }
      ],
      "stateMutability": "view",
      "type": "function"
    },
    {
      "inputs": [],
      "name": "__getRewardScore",
      "outputs": [
        {
          "internalType": "uint64",
          "name": "",
          "type": "uint64"
        }
      ],
      "stateMutability": "view",
      "type": "function"
    },
    {
      "inputs": [],
      "name": "__getStakeHigh",
      "outputs": [
        {
          "internalType": "uint256",
          "name": "",
          "type": "uint256"
        }
      ],
      "stateMutability": "view",
      "type": "function"
    },
    {
      "inputs": [],
      "name": "__getStakeLow",
      "outputs": [
        {
          "internalType": "uint256",
          "name": "",
          "type": "uint256"
        }
      ],
      "stateMutability": "view",
      "type": "function"
    },
    {
      "inputs": [],
      "name": "__getStakeMid",
      "outputs": [
        {
          "internalType": "uint256",
          "name": "",
          "type": "uint256"
        }
      ],
      "stateMutability": "view",
      "type": "function"
    },
    {
      "inputs": [],
      "name": "__getStakeMidHigh",
      "outputs": [
        {
          "internalType": "uint256",
          "name": "",
          "type": "uint256"
        }
      ],
      "stateMutability": "view",
      "type": "function"
    },
    {
      "inputs": [],
      "name": "__getStakeMidLow",
      "outputs": [
        {
          "internalType": "uint256",
          "name": "",
          "type": "uint256"
        }
      ],
      "stateMutability": "view",
      "type": "function"
    },
    {
      "inputs": [],
      "name": "__getStakeUltraHigh",
      "outputs": [
        {
          "internalType": "uint256",
          "name": "",
          "type": "uint256"
        }
      ],
      "stateMutability": "view",
      "type": "function"
    },
    {
      "inputs": [],
      "name": "__getTaskAcceptCreator",
      "outputs": [
        {
          "internalType": "uint32",
          "name": "",
          "type": "uint32"
        }
      ],
      "stateMutability": "view",
      "type": "function"
    },
    {
      "inputs": [],
      "name": "__getTaskAcceptMember",
      "outputs": [
        {
          "internalType": "uint32",
          "name": "",
          "type": "uint32"
        }
      ],
      "stateMutability": "view",
      "type": "function"
    },
    {
      "inputs": [],
      "name": "accessControl",
      "outputs": [
        {
          "internalType": "contract IAccessControl",
          "name": "",
          "type": "address"
        }
      ],
      "stateMutability": "view",
      "type": "function"
    },
    {
      "inputs": [
        {
          "internalType": "address",
          "name": "_newAccesControl",
          "type": "address"
        }
      ],
      "name": "changeAccessControl",
      "outputs": [],
      "stateMutability": "nonpayable",
      "type": "function"
    },
    {
      "inputs": [],
      "name": "componentWeightPercentages",
      "outputs": [
        {
          "internalType": "uint64",
          "name": "rewardScore",
          "type": "uint64"
        },
        {
          "internalType": "uint64",
          "name": "reputationScore",
          "type": "uint64"
        },
        {
          "internalType": "uint64",
          "name": "deadlineScore",
          "type": "uint64"
        },
        {
          "internalType": "uint64",
          "name": "revisionScore",
          "type": "uint64"
        }
      ],
      "stateMutability": "view",
      "type": "function"
    },
    {
      "inputs": [],
      "name": "pause",
      "outputs": [],
      "stateMutability": "nonpayable",
      "type": "function"
    },
    {
      "inputs": [],
      "name": "paused",
      "outputs": [
        {
          "internalType": "bool",
          "name": "",
          "type": "bool"
        }
      ],
      "stateMutability": "view",
      "type": "function"
    },
    {
      "inputs": [],
      "name": "reputationPoints",
      "outputs": [
        {
          "internalType": "uint32",
          "name": "CancelByMe",
          "type": "uint32"
        },
        {
          "internalType": "uint32",
          "name": "requestCancel",
          "type": "uint32"
        },
        {
          "internalType": "uint32",
          "name": "respondCancel",
          "type": "uint32"
        },
        {
          "internalType": "uint32",
          "name": "revision",
          "type": "uint32"
        },
        {
          "internalType": "uint32",
          "name": "taskAcceptCreator",
          "type": "uint32"
        },
        {
          "internalType": "uint32",
          "name": "taskAcceptMember",
          "type": "uint32"
        },
        {
          "internalType": "uint32",
          "name": "deadlineHitCreator",
          "type": "uint32"
        },
        {
          "internalType": "uint32",
          "name": "deadlineHitMember",
          "type": "uint32"
        }
      ],
      "stateMutability": "view",
      "type": "function"
    },
    {
      "inputs": [
        {
          "internalType": "uint64",
          "name": "rewardScore",
          "type": "uint64"
        },
        {
          "internalType": "uint64",
          "name": "reputationScore",
          "type": "uint64"
        },
        {
          "internalType": "uint64",
          "name": "deadlineScore",
          "type": "uint64"
        },
        {
          "internalType": "uint64",
          "name": "revisionScore",
          "type": "uint64"
        }
      ],
      "name": "setComponentWeightPercentages",
      "outputs": [],
      "stateMutability": "nonpayable",
      "type": "function"
    },
    {
      "inputs": [
        {
          "internalType": "uint32",
          "name": "CancelByMeRP",
          "type": "uint32"
        },
        {
          "internalType": "uint32",
          "name": "requestCancelRP",
          "type": "uint32"
        },
        {
          "internalType": "uint32",
          "name": "respondCancelRP",
          "type": "uint32"
        },
        {
          "internalType": "uint32",
          "name": "revisionRP",
          "type": "uint32"
        },
        {
          "internalType": "uint32",
          "name": "taskAcceptCreatorRP",
          "type": "uint32"
        },
        {
          "internalType": "uint32",
          "name": "taskAcceptMemberRP",
          "type": "uint32"
        },
        {
          "internalType": "uint32",
          "name": "deadlineHitCreatorRP",
          "type": "uint32"
        },
        {
          "internalType": "uint32",
          "name": "deadlineHitMemberRP",
          "type": "uint32"
        }
      ],
      "name": "setReputationPoints",
      "outputs": [],
      "stateMutability": "nonpayable",
      "type": "function"
    },
    {
      "inputs": [
        {
          "internalType": "uint256",
          "name": "low",
          "type": "uint256"
        },
        {
          "internalType": "uint256",
          "name": "midLow",
          "type": "uint256"
        },
        {
          "internalType": "uint256",
          "name": "mid",
          "type": "uint256"
        },
        {
          "internalType": "uint256",
          "name": "midHigh",
          "type": "uint256"
        },
        {
          "internalType": "uint256",
          "name": "high",
          "type": "uint256"
        },
        {
          "internalType": "uint256",
          "name": "ultraHigh",
          "type": "uint256"
        }
      ],
      "name": "setStakeAmounts",
      "outputs": [],
      "stateMutability": "nonpayable",
      "type": "function"
    },
    {
      "inputs": [
        {
          "internalType": "uint256",
          "name": "low",
          "type": "uint256"
        },
        {
          "internalType": "uint256",
          "name": "midLow",
          "type": "uint256"
        },
        {
          "internalType": "uint256",
          "name": "mid",
          "type": "uint256"
        },
        {
          "internalType": "uint256",
          "name": "midHigh",
          "type": "uint256"
        },
        {
          "internalType": "uint256",
          "name": "high",
          "type": "uint256"
        },
        {
          "internalType": "uint256",
          "name": "ultraHigh",
          "type": "uint256"
        }
      ],
      "name": "setStakeCategorys",
      "outputs": [],
      "stateMutability": "nonpayable",
      "type": "function"
    },
    {
      "inputs": [
        {
          "internalType": "uint64",
          "name": "maxStakeInEther",
          "type": "uint64"
        },
        {
          "internalType": "uint64",
          "name": "maxRewardInEther",
          "type": "uint64"
        },
        {
          "internalType": "uint32",
          "name": "cooldownInHour",
          "type": "uint32"
        },
        {
          "internalType": "uint32",
          "name": "minRevisionTimeInHour",
          "type": "uint32"
        },
        {
          "internalType": "uint32",
          "name": "NegPenalty",
          "type": "uint32"
        },
        {
          "internalType": "uint16",
          "name": "feePercentage",
          "type": "uint16"
        },
        {
          "internalType": "uint16",
          "name": "maxRevision",
          "type": "uint16"
        }
      ],
      "name": "setStateVars",
      "outputs": [],
      "stateMutability": "nonpayable",
      "type": "function"
    },
    {
      "inputs": [],
      "name": "stakeAmounts",
      "outputs": [
        {
          "internalType": "uint256",
          "name": "low",
          "type": "uint256"
        },
        {
          "internalType": "uint256",
          "name": "midLow",
          "type": "uint256"
        },
        {
          "internalType": "uint256",
          "name": "mid",
          "type": "uint256"
        },
        {
          "internalType": "uint256",
          "name": "midHigh",
          "type": "uint256"
        },
        {
          "internalType": "uint256",
          "name": "high",
          "type": "uint256"
        },
        {
          "internalType": "uint256",
          "name": "ultraHigh",
          "type": "uint256"
        }
      ],
      "stateMutability": "view",
      "type": "function"
    },
    {
      "inputs": [],
      "name": "unpause",
      "outputs": [],
      "stateMutability": "nonpayable",
      "type": "function"
    }
  ],
  "bytecode": "0x6102c0604052346107c6576040516102a0819052611fd2903882900390601f19601f83011681019081106001600160401b038211176107b0576104009282916040526102a051396102a05190810103126107c65761005f6102a0516107ea565b60c05261007160206102a051016107ea565b61008060406102a051016107ea565b61008f60606102a051016107ea565b9060806102a051015160a06102a051015160c06102a05101519060e06102a05101516101006102a05101516101206102a0510151916100d46101406102a051016107fe565b610280526100e86101606102a051016107fe565b946100f96101806102a051016107fe565b9461010a6101a06102a051016107fe565b6102605261011e6101c06102a051016107fe565b9761012f6101e06102a051016107fe565b996101406102006102a051016107fe565b9b6101516102206102a051016107fe565b9d6101626102406102a051016107ea565b6101c0526101766102606102a051016107ea565b6102405261018a6102806102a051016107fe565b6102205261019c6102a08051016107fe565b610200526101b06102c06102a051016107fe565b6101e0526101c46102e06102a0510161080f565b6101a0526101d86103006102a0510161080f565b610180526102a051610320810151610160526103408101516101405261036081015161012052610380810151610100526103a081015160e0526103c081015160a0526103e0015160808190526001600160a01b03811690036107c657604051608081016001600160401b038111828210176107b057604090815260c080516001600160401b0390811680855285821660208601528782168585015290861660609094019390935292901b6fffffffffffffffff0000000000000000161760809390931b600160801b600160c01b031692909217911b6001600160c01b03191617600155670de0b6b3a7640000818102918015908304909114171561079a57670de0b6b3a7640000820291808304670de0b6b3a7640000149015171561079a57670de0b6b3a7640000830292808404670de0b6b3a7640000149015171561079a57670de0b6b3a7640000840293808504670de0b6b3a7640000149015171561079a57670de0b6b3a7640000850294808604670de0b6b3a7640000149015171561079a57670de0b6b3a7640000860295808704670de0b6b3a7640000149015171561079a576103836107cb565b9081526020810191825260408101928352606081019384526080810194855260a081019586525160025551600355516004555160055551600655516007556040519161010083019083821060018060401b038311176107b05760409182526102805163ffffffff90811680865282821660208088019190915285831687860152610260805184166060808a01919091528985166080808b01919091528b861660a0808c01919091528d871660c0808d0191909152968f1660e09b8c015292519690931b67ffffffff00000000169093179690951b6bffffffff0000000000000000169590951792901b6fffffffff00000000000000000000000016919091179490921b63ffffffff60801b16939093179390921b63ffffffff60a01b169290921792901b63ffffffff60c01b169190911791901b6001600160e01b031916176008556101c0516104d29061081e565b6104de6102405161081e565b604051909160e082016001600160401b038111838210176107b05760409081526001600160401b039182168084529184166020840152610220805163ffffffff908116858401526102008051821660608701526101e080519092166080808801919091526101a0805161ffff90811660a0808b0191909152610180805190921660c09a8b0152955193519451905191519990961b6fffffffffffffffff00000000000000001690961791901b63ffffffff60801b1617911b63ffffffff60a01b1617921b63ffffffff60c01b169190911760e09290921b61ffff60e01b169190911760f09190911b6001600160f01b0319161760095561016051670de0b6b3a7640000818102918015908304909114171561079a57670de0b6b3a76400006101405102610140518104670de0b6b3a7640000146101405115171561079a57670de0b6b3a76400006101205102610120518104670de0b6b3a7640000146101205115171561079a57670de0b6b3a7640000610100510290610100518204670de0b6b3a7640000146101005115171561079a57670de0b6b3a764000060e051029260e0518404670de0b6b3a76400001460e05115171561079a57670de0b6b3a764000060a051029460a0518604670de0b6b3a76400001460a05115171561079a576106c56107cb565b9081526020810191825260408101928352606081019384526080810194855260a0810195865251600a5551600b5551600c5551600d5551600e5551600f5560018060a01b03608051161561074557608051600080546001600160a01b0319166001600160a01b039290921691909117905560405161179190816108418239f35b60405162461bcd60e51b815260206004820152602760248201527f416363657373436f6e74726f6c3a207a65726f2061646472657373206e6f7420604482015266185b1b1bddd95960ca1b6064820152608490fd5b634e487b7160e01b600052601160045260246000fd5b634e487b7160e01b600052604160045260246000fd5b600080fd5b6040519060c082016001600160401b038111838210176107b057604052565b51906001600160401b03821682036107c657565b519063ffffffff821682036107c657565b519061ffff821682036107c657565b6001600160401b03908116670de0b6b3a7640000029081169190820361079a5756fe608080604052600436101561001357600080fd5b60003560e01c908163068f49d814611541575080630b7dadff1461151a5780630fcaaf3c146114e557806312c23eb1146114c757806313007d551461149e578063258f59fc1461147d57806325ac29e11461145f5780632a5c4e5c146113f35780632aedc618146113b05780632bca081c1461138a5780633f4ba83a146112bb57806342a69e2a146112905780634796328014611272578063554faef81461113057806355afaf64146111125780635c975abb146110ec5780635e8c4c6b146110b35780635fb6bbf71461108c5780636ab984c114611065578063770cc99a1461103e5780637d8d6d05146110205780637e955b8a14610dca578063813b79c114610dac5780638326120014610d855780638456cb5914610ca657806384afa48b14610c885780638876408214610c675780639387730c14610ae657806394fb86e514610ac857806399206b0b14610aaa57806399b42ed014610a31578063a0d0124514610a08578063a376ff7d146109ea578063b30e0be3146109c3578063b38be7e314610822578063baa20a39146107f9578063bc6c0f151461053e578063c6de983914610513578063c7d3f62f146104ec578063ca218d7d146104ce578063cf95838b146104aa578063d164b1d014610489578063e1a256a514610290578063e1ffcb4614610272578063e44374f21461024b5763ef02c5ae1461021957600080fd5b346102465760003660031901126102465760015460405160809190911c6001600160401b03168152602090f35b600080fd5b3461024657600036600319011261024657602063ffffffff60085460601c16604051908152f35b34610246576000366003190112610246576020600b54604051908152f35b346102465761029e36611662565b600054604051633f784de560e11b8152336004820152949692959492939290602090829060249082906001600160a01b03165afa801561047d576102ea9160009161044e575b506116de565b670de0b6b3a7640000830292808404670de0b6b3a7640000149015171561043857670de0b6b3a7640000840293808504670de0b6b3a7640000149015171561043857670de0b6b3a7640000860295808704670de0b6b3a7640000149015171561043857670de0b6b3a7640000820291808304670de0b6b3a7640000149015171561043857670de0b6b3a7640000850294808604670de0b6b3a7640000149015171561043857670de0b6b3a7640000810290808204670de0b6b3a76400001490151715610438577fefd16587d517b1989b24b29f937651e8cd66a37df6ade91a30e66500dec4103794610432926040516103e281611688565b85815260208101878152604082018a81526060830190848252608084019286845260a085019488865251600255516003555160045551600555516006555160075560009760405196879687611563565b0390a180f35b634e487b7160e01b600052601160045260246000fd5b610470915060203d602011610476575b61046881836116a3565b8101906116c6565b886102e4565b503d61045e565b6040513d6000823e3d90fd5b3461024657600036600319011261024657602060085460e01c604051908152f35b3461024657600036600319011261024657602063ffffffff60085416604051908152f35b34610246576000366003190112610246576020600654604051908152f35b3461024657600036600319011261024657602063ffffffff60085460a01c16604051908152f35b34610246576000366003190112610246576001546040805191901c6001600160401b03168152602090f35b346102465760e0366003190112610246576105576115fd565b61055f611613565b90610568611629565b61057061163c565b9261057961164f565b9260a4359361ffff8516928386036102465760c4359561ffff87169687810361024657600054604051633f784de560e11b815233600482015290602090829060249082906001600160a01b03165afa801561047d576105df916000916107da57506116de565b6105e885611719565b936105f284611719565b604051909a909560e087016001600160401b038111888210176107c457604052600160401b600190031698898752600160401b600190038c16602088015263ffffffff81169b8c604089015263ffffffff83169a8b60608a01528c63ffffffff8616998a60808201528c60a082015260c00152600160401b6001900319600954161760095560095490600160401b600160801b0390600160401b600160801b039060401b161690600160401b600160801b031916176009556009549063ffffffff60801b9063ffffffff60801b9060801b16169063ffffffff60801b1916176009556009549063ffffffff60a01b9063ffffffff60a01b9060a01b16169063ffffffff60a01b1916176009556009549063ffffffff60c01b9063ffffffff60c01b9060c01b16169063ffffffff60c01b1916176009556009549061ffff60f01b9060f01b169161ffff60e01b9060e01b1690600160e01b6001900316171760095561075c90611719565b9161076690611719565b604080519788526020880195909552938601526001600160401b03908116606086015260808501919091521660a083015260c08201527fd695ffa570ae2b43568301d9247e1f007e20c0b696e8cd393b3c820b00ed056d9060e090a1005b634e487b7160e01b600052604160045260246000fd5b6107f3915060203d6020116104765761046881836116a3565b8b6102e4565b34610246576000366003190112610246576009546040516001600160401b039091168152602090f35b346102465761083036611662565b600054604051633f784de560e11b8152336004820152949692959492939290602090829060249082906001600160a01b03165afa801561047d5761087b9160009161044e57506116de565b670de0b6b3a7640000830292808404670de0b6b3a7640000149015171561043857670de0b6b3a7640000840293808504670de0b6b3a7640000149015171561043857670de0b6b3a7640000860295808704670de0b6b3a7640000149015171561043857670de0b6b3a7640000820291808304670de0b6b3a7640000149015171561043857670de0b6b3a7640000850294808604670de0b6b3a7640000149015171561043857670de0b6b3a7640000810290808204670de0b6b3a76400001490151715610438577f7a540045a63a511c8e6c029cbc13f3b74cbcba313476464094974f98aaef1cbe946104329260405161097381611688565b85815260208101878152604082018a81526060830190848252608084019286845260a085019488865251600a5551600b5551600c5551600d5551600e5551600f5560009760405196879687611563565b3461024657600036600319011261024657602063ffffffff60085460801c16604051908152f35b34610246576000366003190112610246576020600a54604051908152f35b34610246576000366003190112610246576001546040516001600160401b039091168152602090f35b346102465760003660031901126102465760e06009546040519060018060401b038116825260018060401b038160401c16602083015263ffffffff8160801c16604083015263ffffffff8160a01c16606083015263ffffffff8160c01c16608083015261ffff81841c1660a083015260f01c60c0820152f35b34610246576000366003190112610246576020600c54604051908152f35b34610246576000366003190112610246576020600254604051908152f35b34610246576020366003190112610246576004356001600160a01b0381169081900361024657600054604051638da5cb5b60e01b81526020816004816001600160a01b0386165afa90811561047d57600091610c1e575b506001600160a01b03163303610bed57610b5561173b565b8115610b98576001600160a01b03191681176000556040519081527f497acaa34ac19c2a2a579ad43eca493b4fea820459e254e9383e7dda216b0f0490602090a1005b60405162461bcd60e51b815260206004820152602760248201527f416363657373436f6e74726f6c3a207a65726f2061646472657373206e6f7420604482015266185b1b1bddd95960ca1b6064820152608490fd5b60405162461bcd60e51b81526020600482015260096024820152682737ba1037bbb732b960b91b6044820152606490fd5b6020813d602011610c5f575b81610c37602093836116a3565b81010312610c5b5751906001600160a01b0382168203610c58575083610b3d565b80fd5b5080fd5b3d9150610c2a565b3461024657600036600319011261024657602060095460f01c604051908152f35b34610246576000366003190112610246576020600d54604051908152f35b3461024657600036600319011261024657600054604051633f784de560e11b81523360048201526020816024816001600160a01b0386165afa801561047d57610cf691600091610d6657506116de565b610cfe61173b565b60ff60a01b1916600160a01b176000556040513381527f62e78cea01bee320cd4e420270b5ea74000d11b0c9f74754ebdbfc544b05a25890602090a17f81990fd9a5c552b8e3677917d8a03c07678f0d2cb68f88b634aca2022e9bd19f6020604051338152a1005b610d7f915060203d6020116104765761046881836116a3565b836102e4565b3461024657600036600319011261024657602063ffffffff60095460a01c16604051908152f35b34610246576000366003190112610246576020600e54604051908152f35b34610246576101003660031901126102465760043563ffffffff811690818103610246576024359063ffffffff821680830361024657610e08611629565b93610e1161163c565b94610e1a61164f565b60a4359063ffffffff8216978883036102465760c4359363ffffffff8516958686036102465760e4359663ffffffff88169081890361024657600054604051633f784de560e11b815233600482015290602090829060249082906001600160a01b03165afa801561047d57610e969160009161100157506116de565b6040516101008101916001600160401b038311828410176107c4577f6cee5c133c445fc7a4cb7811d47325f15589db2e21f5eaa2c370b03afea3ebb69e610ffc9c60e094604052868452602084015263ffffffff8716604084015263ffffffff8816606084015263ffffffff8916608084015260a083015260c0820152015260085463ffffffff60601b8460601b169163ffffffff60601b199160018060601b031916171663ffffffff60201b8b60201b161763ffffffff60401b8360401b16171760085560085463ffffffff60801b63ffffffff60801b8560801b16169063ffffffff60801b19161760085560085463ffffffff60a01b63ffffffff60a01b8660a01b16169063ffffffff60a01b19161760085560085463ffffffff60c01b63ffffffff60c01b8760c01b16169063ffffffff60c01b19161760085560085463ffffffff60e01b8760e01b169060018060e01b0316176008556040519889988961158b565b0390a1005b61101a915060203d6020116104765761046881836116a3565b8f6102e4565b34610246576000366003190112610246576020600f54604051908152f35b3461024657600036600319011261024657602063ffffffff60085460c01c16604051908152f35b3461024657600036600319011261024657602063ffffffff60085460401c16604051908152f35b3461024657600036600319011261024657602063ffffffff60095460801c16604051908152f35b3461024657600036600319011261024657600a54600b54906110e8600c54600d54600e5490600f549260405196879687611563565b0390f35b3461024657600036600319011261024657602060ff60005460a01c166040519015158152f35b34610246576000366003190112610246576020600354604051908152f35b34610246576080366003190112610246576111496115fd565b611151611613565b604435916001600160401b038316808403610246576064356001600160401b0381169485820361024657600054604051633f784de560e11b815233600482015290602090829060249082906001600160a01b03165afa801561047d576111be9160009161044e57506116de565b60405160808101969093906001600160401b038811858910176107c45760409788526001600160401b038681168087529088166020870152888601929092526060949094019390935284861b600160401b600160801b0316909217608083901b600160801b600160c01b03161760c082901b6001600160c01b0319161760015593517fa1e47e55cf3d1775387922da7bbe4c1d62fc43f2fcf01cac0f579545f2eb98b19490938493610ffc939190856115d3565b34610246576000366003190112610246576020600554604051908152f35b34610246576000366003190112610246576009546040805191901c6001600160401b03168152602090f35b3461024657600036600319011261024657600054604051633f784de560e11b81523360048201526020816024816001600160a01b0386165afa801561047d5761130b91600091610d6657506116de565b60ff8160a01c16156113795760ff60a01b19166000556040513381527f5db9ee0a495bf2e6ff9c91a7834c1ba4fdd244a5e8aa4e537bd38aeae4b073aa90602090a17f5b65b0c1363b3003db9bcc5e1fd8805a6d6bf5bf6dc9d3431ee4494cd7d117666020604051338152a1005b638dfc202b60e01b60005260046000fd5b3461024657600036600319011261024657602063ffffffff600854821c16604051908152f35b3461024657600036600319011261024657600154604080519182916110e89160c081901c916001600160401b03608083901c8116929182901c81169116856115d3565b34610246576000366003190112610246576110e86008546040519181839260e01c9063ffffffff8160c01c169063ffffffff8160a01c169063ffffffff8160801c169063ffffffff8160601c169063ffffffff8160401c169063ffffffff808260201c1691168961158b565b34610246576000366003190112610246576020600754604051908152f35b3461024657600036600319011261024657602060015460c01c604051908152f35b34610246576000366003190112610246576000546040516001600160a01b039091168152602090f35b34610246576000366003190112610246576020600454604051908152f35b3461024657600036600319011261024657600254600354906110e8600454600554600654906007549260405196879687611563565b3461024657600036600319011261024657602063ffffffff60095460c01c16604051908152f35b346102465760003660031901126102465760209061ffff60095460e01c168152f35b9260a094919796959260c0850198855260208501526040840152606083015260808201520152565b63ffffffff9182168152918116602083015291821660408201529181166060830152918216608082015291811660a083015291821660c0820152911660e08201526101000190565b6001600160401b039182168152918116602083015291821660408201529116606082015260800190565b600435906001600160401b038216820361024657565b602435906001600160401b038216820361024657565b6044359063ffffffff8216820361024657565b6064359063ffffffff8216820361024657565b6084359063ffffffff8216820361024657565b60c090600319011261024657600435906024359060443590606435906084359060a43590565b60c081019081106001600160401b038211176107c457604052565b601f909101601f19168101906001600160401b038211908210176107c457604052565b90816020910312610246575180151581036102465790565b156116e557565b60405162461bcd60e51b815260206004820152600c60248201526b4e6f7420656d706c6f79656560a01b6044820152606490fd5b6001600160401b03908116670de0b6b3a7640000029081169190820361043857565b60ff60005460a01c1661174a57565b63d93c066560e01b60005260046000fdfea2646970667358221220a7f4a2db8bf7da77fdaa45c0670218595c01955003b5239b5786d32d2c09199564736f6c634300081c0033",
  "linkReferences": {},
  "deployedLinkReferences": {}
}