{
  "_format": "hh-sol-artifact-1",
  "contractName": "AccessControl",
  "sourceName": "contracts/system/AccesControl.sol",
  "abi": [
    {
      "inputs": [
        {
          "internalType": "address",
          "name": "target",
          "type": "address"
        }
      ],
      "name": "AddressEmptyCode",
      "type": "error"
    },
    {
      "inputs": [],
      "name": "AlredyHaveRole",
      "type": "error"
    },
    {
      "inputs": [],
      "name": "DoesNotHaveRole",
      "type": "error"
    },
    {
      "inputs": [
        {
          "internalType": "address",
          "name": "implementation",
          "type": "address"
        }
      ],
      "name": "ERC1967InvalidImplementation",
      "type": "error"
    },
    {
      "inputs": [],
      "name": "ERC1967NonPayable",
      "type": "error"
    },
    {
      "inputs": [],
      "name": "FailedCall",
      "type": "error"
    },
    {
      "inputs": [],
      "name": "InvalidInitialization",
      "type": "error"
    },
    {
      "inputs": [],
      "name": "NotInitializing",
      "type": "error"
    },
    {
      "inputs": [],
      "name": "NotOwner",
      "type": "error"
    },
    {
      "inputs": [],
      "name": "OwnerCannotBeEmployee",
      "type": "error"
    },
    {
      "inputs": [],
      "name": "UUPSUnauthorizedCallContext",
      "type": "error"
    },
    {
      "inputs": [
        {
          "internalType": "bytes32",
          "name": "slot",
          "type": "bytes32"
        }
      ],
      "name": "UUPSUnsupportedProxiableUUID",
      "type": "error"
    },
    {
      "inputs": [],
      "name": "ZeroAddress",
      "type": "error"
    },
    {
      "anonymous": false,
      "inputs": [
        {
          "indexed": true,
          "internalType": "address",
          "name": "employee",
          "type": "address"
        }
      ],
      "name": "EmployeeAssigned",
      "type": "event"
    },
    {
      "anonymous": false,
      "inputs": [
        {
          "indexed": true,
          "internalType": "address",
          "name": "employee",
          "type": "address"
        }
      ],
      "name": "EmployeeRemoved",
      "type": "event"
    },
    {
      "anonymous": false,
      "inputs": [
        {
          "indexed": false,
          "internalType": "uint64",
          "name": "version",
          "type": "uint64"
        }
      ],
      "name": "Initialized",
      "type": "event"
    },
    {
      "anonymous": false,
      "inputs": [
        {
          "indexed": true,
          "internalType": "address",
          "name": "oldOwner",
          "type": "address"
        },
        {
          "indexed": true,
          "internalType": "address",
          "name": "newOwner",
          "type": "address"
        }
      ],
      "name": "OwnerChanged",
      "type": "event"
    },
    {
      "anonymous": false,
      "inputs": [
        {
          "indexed": true,
          "internalType": "address",
          "name": "implementation",
          "type": "address"
        }
      ],
      "name": "Upgraded",
      "type": "event"
    },
    {
      "inputs": [],
      "name": "UPGRADE_INTERFACE_VERSION",
      "outputs": [
        {
          "internalType": "string",
          "name": "",
          "type": "string"
        }
      ],
      "stateMutability": "view",
      "type": "function"
    },
    {
      "inputs": [
        {
          "internalType": "address",
          "name": "newEmployee",
          "type": "address"
        }
      ],
      "name": "assignNewEmployee",
      "outputs": [],
      "stateMutability": "nonpayable",
      "type": "function"
    },
    {
      "inputs": [
        {
          "internalType": "address",
          "name": "newOwner",
          "type": "address"
        }
      ],
      "name": "changeOwner",
      "outputs": [],
      "stateMutability": "nonpayable",
      "type": "function"
    },
    {
      "inputs": [],
      "name": "employeeCount",
      "outputs": [
        {
          "internalType": "uint256",
          "name": "",
          "type": "uint256"
        }
      ],
      "stateMutability": "view",
      "type": "function"
    },
    {
      "inputs": [
        {
          "internalType": "address",
          "name": "",
          "type": "address"
        }
      ],
      "name": "employees",
      "outputs": [
        {
          "internalType": "bool",
          "name": "",
          "type": "bool"
        }
      ],
      "stateMutability": "view",
      "type": "function"
    },
    {
      "inputs": [
        {
          "internalType": "address",
          "name": "account",
          "type": "address"
        }
      ],
      "name": "hasRole",
      "outputs": [
        {
          "internalType": "bool",
          "name": "",
          "type": "bool"
        }
      ],
      "stateMutability": "view",
      "type": "function"
    },
    {
      "inputs": [],
      "name": "initialize",
      "outputs": [],
      "stateMutability": "nonpayable",
      "type": "function"
    },
    {
      "inputs": [],
      "name": "owner",
      "outputs": [
        {
          "internalType": "address",
          "name": "",
          "type": "address"
        }
      ],
      "stateMutability": "view",
      "type": "function"
    },
    {
      "inputs": [],
      "name": "proxiableUUID",
      "outputs": [
        {
          "internalType": "bytes32",
          "name": "",
          "type": "bytes32"
        }
      ],
      "stateMutability": "view",
      "type": "function"
    },
    {
      "inputs": [
        {
          "internalType": "address",
          "name": "employee",
          "type": "address"
        }
      ],
      "name": "removeEmployee",
      "outputs": [],
      "stateMutability": "nonpayable",
      "type": "function"
    },
    {
      "inputs": [
        {
          "internalType": "address",
          "name": "newImplementation",
          "type": "address"
        },
        {
          "internalType": "bytes",
          "name": "data",
          "type": "bytes"
        }
      ],
      "name": "upgradeToAndCall",
      "outputs": [],
      "stateMutability": "payable",
      "type": "function"
    }
  ],
  "bytecode": "0x60a0806040523460295730608052610943908161002f823960805181818161053d01526106110152f35b600080fdfe6080604052600436101561001257600080fd5b60003560e01c80634f1ef2861461059457806352d1902d1461052a5780637ef09bca1461016a5780638129fc1c146103c75780638da5cb5b1461039e5780639047bf5814610380578063a6f9dae1146102f8578063ad3cb1cc1461027c578063b106539c146101a9578063d06789471461016a5763d108177a1461009557600080fd5b34610165576020366003190112610165576100ae6107e1565b6000546001600160a01b03163303610154576001600160a01b031660008181526002602052604090205460ff161561014357806000526002602052604060002060ff198154169055600154801561012d57600019016001557fabae6e64cb4315875c29d42347a312f5e9fce4ab564e9722b43dd78d0751135a600080a2005b634e487b7160e01b600052601160045260246000fd5b638907dbfd60e01b60005260046000fd5b6330cd747160e01b60005260046000fd5b600080fd5b34610165576020366003190112610165576001600160a01b0361018b6107e1565b166000526002602052602060ff604060002054166040519015158152f35b34610165576020366003190112610165576101c26107e1565b6000546001600160a01b03169033829003610154576101e08161084b565b6001600160a01b031660008181526002602052604090205490919060ff1661026b57811461025a578060005260026020526040600020600160ff19825416179055600154600019811461012d576001016001557f7758ff72b16b98313da220996e94c64524b9776307508b4574d8cc21f1aeb9ee600080a2005b63137dafb760e21b60005260046000fd5b6303488cd760e51b60005260046000fd5b3461016557600036600319011261016557604080519061029c81836107f7565b60058252640352e302e360dc1b6020830152805180926020825280519081602084015260005b8281106102e15750506000828201840152601f01601f19168101030190f35b6020828201810151878301870152869450016102c2565b34610165576020366003190112610165576103116107e1565b600054906001600160a01b0382169033829003610154576103318161084b565b61033a3361084b565b60018060a01b031680926bffffffffffffffffffffffff60a01b16176000557fb532073b38c83145e3e5135377a08bf9aab55bc0fd7c1179cd4fb995d2a5159c600080a3005b34610165576000366003190112610165576020600154604051908152f35b34610165576000366003190112610165576000546040516001600160a01b039091168152602090f35b34610165576000366003190112610165576000805160206108ee8339815191525460ff8160401c16159067ffffffffffffffff811680159081610522575b6001149081610518575b15908161050f575b506104fe5767ffffffffffffffff1981166001176000805160206108ee83398151915255816104d1575b506000805160206108ee833981519152549060ff8260401c16156104c057600080546001600160a01b0319163317905561047757005b68ff000000000000000019166000805160206108ee833981519152557fc7f505b2f371ae2175ee4913f4499e1f2633a7b5936321eed1cdaeb6115181d2602060405160018152a1005b631afcd79f60e31b60005260046000fd5b68ffffffffffffffffff191668010000000000000001176000805160206108ee8339815191525581610441565b63f92ee8a960e01b60005260046000fd5b90501583610417565b303b15915061040f565b839150610405565b34610165576000366003190112610165577f00000000000000000000000000000000000000000000000000000000000000006001600160a01b031630036105835760206040516000805160206108ce8339815191528152f35b63703e46dd60e11b60005260046000fd5b6040366003190112610165576105a86107e1565b6024359067ffffffffffffffff82116101655736602383011215610165578160040135906105d58261082f565b916105e360405193846107f7565b8083526020830193366024838301011161016557816000926024602093018737840101526001600160a01b037f0000000000000000000000000000000000000000000000000000000000000000163081149081156107be575b50610583576000546001600160a01b03163303610154576040516352d1902d60e01b81526001600160a01b0382169390602081600481885afa6000918161078a575b506106985784634c9c8ce360e01b60005260045260246000fd5b806000805160206108ce8339815191528692036107765750823b15610762576000805160206108ce83398151915280546001600160a01b031916821790557fbc7cd75a20ee27fd9adebab32041f755214dbc6bffa90cc0225b39da2e5c2d3b600080a2825115610747576000809161073d945190845af43d1561073f573d916107208361082f565b9261072e60405194856107f7565b83523d6000602085013e61086c565b005b60609161086c565b5050503461075157005b63b398979f60e01b60005260046000fd5b634c9c8ce360e01b60005260045260246000fd5b632a87526960e21b60005260045260246000fd5b9091506020813d6020116107b6575b816107a6602093836107f7565b810103126101655751908661067e565b3d9150610799565b6000805160206108ce833981519152546001600160a01b0316141590508461063c565b600435906001600160a01b038216820361016557565b90601f8019910116810190811067ffffffffffffffff82111761081957604052565b634e487b7160e01b600052604160045260246000fd5b67ffffffffffffffff811161081957601f01601f191660200190565b6001600160a01b03161561085b57565b63d92e233d60e01b60005260046000fd5b90610892575080511561088157602081519101fd5b63d6bda27560e01b60005260046000fd5b815115806108c4575b6108a3575090565b639996b31560e01b60009081526001600160a01b0391909116600452602490fd5b50803b1561089b56fe360894a13ba1a3210667c828492db98dca3e2076cc3735a920a3ca505d382bbcf0c57e16840df040f15088dc2f81fe391c3923bec73e23a9662efc9c229c6a00a26469706673582212209f333ef9f623d410a0a78ad8929781a9e3b2c19ba21775016e95c7327807afb864736f6c634300081c0033",
  "linkReferences": {},
  "deployedLinkReferences": {}
}