{
  "_format": "hh-sol-artifact-1",
  "contractName": "System_wallet",
  "sourceName": "contracts/system/Wallet.sol",
  "abi": [
    {
      "inputs": [
        {
          "internalType": "address",
          "name": "target",
          "type": "address"
        }
      ],
      "name": "AddressEmptyCode",
      "type": "error"
    },
    {
      "inputs": [
        {
          "internalType": "address",
          "name": "implementation",
          "type": "address"
        }
      ],
      "name": "ERC1967InvalidImplementation",
      "type": "error"
    },
    {
      "inputs": [],
      "name": "ERC1967NonPayable",
      "type": "error"
    },
    {
      "inputs": [],
      "name": "EnforcedPause",
      "type": "error"
    },
    {
      "inputs": [],
      "name": "ExpectedPause",
      "type": "error"
    },
    {
      "inputs": [],
      "name": "FailedCall",
      "type": "error"
    },
    {
      "inputs": [],
      "name": "InsufficientFunds",
      "type": "error"
    },
    {
      "inputs": [],
      "name": "InvalidInitialization",
      "type": "error"
    },
    {
      "inputs": [],
      "name": "NotInitializing",
      "type": "error"
    },
    {
      "inputs": [],
      "name": "ReentrancyGuardReentrantCall",
      "type": "error"
    },
    {
      "inputs": [],
      "name": "UUPSUnauthorizedCallContext",
      "type": "error"
    },
    {
      "inputs": [
        {
          "internalType": "bytes32",
          "name": "slot",
          "type": "bytes32"
        }
      ],
      "name": "UUPSUnsupportedProxiableUUID",
      "type": "error"
    },
    {
      "inputs": [],
      "name": "ZeroAddress",
      "type": "error"
    },
    {
      "anonymous": false,
      "inputs": [
        {
          "indexed": false,
          "internalType": "address",
          "name": "newAccessControl",
          "type": "address"
        }
      ],
      "name": "AccessControlChanged",
      "type": "event"
    },
    {
      "anonymous": false,
      "inputs": [
        {
          "indexed": true,
          "internalType": "address",
          "name": "caller",
          "type": "address"
        }
      ],
      "name": "ContractPaused",
      "type": "event"
    },
    {
      "anonymous": false,
      "inputs": [
        {
          "indexed": true,
          "internalType": "address",
          "name": "caller",
          "type": "address"
        }
      ],
      "name": "ContractUnpaused",
      "type": "event"
    },
    {
      "anonymous": false,
      "inputs": [
        {
          "indexed": false,
          "internalType": "uint64",
          "name": "version",
          "type": "uint64"
        }
      ],
      "name": "Initialized",
      "type": "event"
    },
    {
      "anonymous": false,
      "inputs": [
        {
          "indexed": false,
          "internalType": "address",
          "name": "account",
          "type": "address"
        }
      ],
      "name": "Paused",
      "type": "event"
    },
    {
      "anonymous": false,
      "inputs": [
        {
          "indexed": false,
          "internalType": "address",
          "name": "account",
          "type": "address"
        }
      ],
      "name": "Unpaused",
      "type": "event"
    },
    {
      "anonymous": false,
      "inputs": [
        {
          "indexed": true,
          "internalType": "address",
          "name": "implementation",
          "type": "address"
        }
      ],
      "name": "Upgraded",
      "type": "event"
    },
    {
      "anonymous": false,
      "inputs": [
        {
          "indexed": true,
          "internalType": "address",
          "name": "from",
          "type": "address"
        },
        {
          "indexed": true,
          "internalType": "uint256",
          "name": "amount",
          "type": "uint256"
        }
      ],
      "name": "contract_received_fund",
      "type": "event"
    },
    {
      "anonymous": false,
      "inputs": [
        {
          "indexed": true,
          "internalType": "address",
          "name": "to",
          "type": "address"
        },
        {
          "indexed": true,
          "internalType": "uint256",
          "name": "amount",
          "type": "uint256"
        }
      ],
      "name": "contract_transfered_fund",
      "type": "event"
    },
    {
      "stateMutability": "payable",
      "type": "fallback"
    },
    {
      "inputs": [],
      "name": "UPGRADE_INTERFACE_VERSION",
      "outputs": [
        {
          "internalType": "string",
          "name": "",
          "type": "string"
        }
      ],
      "stateMutability": "view",
      "type": "function"
    },
    {
      "inputs": [],
      "name": "accessControl",
      "outputs": [
        {
          "internalType": "contract IAccessControl",
          "name": "",
          "type": "address"
        }
      ],
      "stateMutability": "view",
      "type": "function"
    },
    {
      "inputs": [
        {
          "internalType": "address",
          "name": "_newAccesControl",
          "type": "address"
        }
      ],
      "name": "changeAccessControl",
      "outputs": [],
      "stateMutability": "nonpayable",
      "type": "function"
    },
    {
      "inputs": [
        {
          "internalType": "address",
          "name": "_accessControl",
          "type": "address"
        }
      ],
      "name": "initialize",
      "outputs": [],
      "stateMutability": "nonpayable",
      "type": "function"
    },
    {
      "inputs": [],
      "name": "pause",
      "outputs": [],
      "stateMutability": "nonpayable",
      "type": "function"
    },
    {
      "inputs": [],
      "name": "paused",
      "outputs": [
        {
          "internalType": "bool",
          "name": "",
          "type": "bool"
        }
      ],
      "stateMutability": "view",
      "type": "function"
    },
    {
      "inputs": [],
      "name": "proxiableUUID",
      "outputs": [
        {
          "internalType": "bytes32",
          "name": "",
          "type": "bytes32"
        }
      ],
      "stateMutability": "view",
      "type": "function"
    },
    {
      "inputs": [
        {
          "internalType": "address payable",
          "name": "_to",
          "type": "address"
        },
        {
          "internalType": "uint256",
          "name": "_amount",
          "type": "uint256"
        }
      ],
      "name": "transfer",
      "outputs": [],
      "stateMutability": "nonpayable",
      "type": "function"
    },
    {
      "inputs": [],
      "name": "unpause",
      "outputs": [],
      "stateMutability": "nonpayable",
      "type": "function"
    },
    {
      "inputs": [
        {
          "internalType": "address",
          "name": "newImplementation",
          "type": "address"
        },
        {
          "internalType": "bytes",
          "name": "data",
          "type": "bytes"
        }
      ],
      "name": "upgradeToAndCall",
      "outputs": [],
      "stateMutability": "payable",
      "type": "function"
    },
    {
      "stateMutability": "payable",
      "type": "receive"
    }
  ],
  "bytecode": "0x60a0806040523460295730608052610d74908161002f82396080518181816106fb01526107cf0152f35b600080fdfe6080806040526004361015610068575b50361561003f5734337f9a910e4510aced4a032c4797a04f4c9b32316bcde4dfc60c7c73d88f936428c8600080a3005b34337f9a910e4510aced4a032c4797a04f4c9b32316bcde4dfc60c7c73d88f936428c8600080a3005b60003560e01c90816313007d5514610ab5575080633f4ba83a146109cc5780634f1ef2861461075257806352d1902d146106e85780635c975abb146106b85780638456cb59146105ad5780639387730c146104df578063a9059cbb146102f3578063ad3cb1cc146102775763c4d66de8146100e3573861000f565b34610272576020366003190112610272576100fc610ad9565b600080516020610d1f833981519152549060ff8260401c16159167ffffffffffffffff81168015908161026a575b6001149081610260575b159081610257575b506102465767ffffffffffffffff198116600117600080516020610d1f8339815191525582610219575b5061017081610bca565b610178610c2f565b610180610c2f565b610188610c2f565b6001600080516020610cff8339815191525560018060a01b03166bffffffffffffffffffffffff60a01b60005416176000556101c057005b68ff000000000000000019600080516020610d1f8339815191525416600080516020610d1f833981519152557fc7f505b2f371ae2175ee4913f4499e1f2633a7b5936321eed1cdaeb6115181d2602060405160018152a1005b68ffffffffffffffffff19166801000000000000000117600080516020610d1f8339815191525538610166565b63f92ee8a960e01b60005260046000fd5b9050153861013c565b303b159150610134565b84915061012a565b600080fd5b346102725760003660031901126102725760408051906102978183610aef565b60058252640352e302e360dc1b6020830152805180926020825280519081602084015260005b8281106102dc5750506000828201840152601f01601f19168101030190f35b6020828201810151878301870152869450016102bd565b34610272576040366003190112610272576004356001600160a01b0381169081900361027257600054604051638da5cb5b60e01b81526024359291602090829060049082906001600160a01b03165afa80156104d357610366916000916104a4575b506001600160a01b03163314610b62565b6002600080516020610cff8339815191525414610493576002600080516020610cff83398151915255331561044e57801561043d578147106000146103b65763356680b760e01b60005260046000fd5b600080808085855af16103c7610b9a565b5015610406577fae538a1b9462f6288da1c1912c6d7e22fc226dff723d1cc897cfc7727255ea70600080a36001600080516020610cff83398151915255005b60405162461bcd60e51b815260206004820152600f60248201526e1d1c985b9cd9995c8819985a5b1959608a1b6044820152606490fd5b63d92e233d60e01b60005260046000fd5b60405162461bcd60e51b815260206004820152601d60248201527f63616c6c65722069732063616e74206265207a65726f206164647220210000006044820152606490fd5b633ee5aeb560e01b60005260046000fd5b6104c6915060203d6020116104cc575b6104be8183610aef565b810190610b43565b84610355565b503d6104b4565b6040513d6000823e3d90fd5b34610272576020366003190112610272576104f8610ad9565b600054604051638da5cb5b60e01b815291906020836004816001600160a01b0385165afa9182156104d3576105636020937f497acaa34ac19c2a2a579ad43eca493b4fea820459e254e9383e7dda216b0f049560009161059057506001600160a01b03163314610b62565b61056c81610bca565b6001600160a01b03166001600160a01b0319919091168117600055604051908152a1005b6105a79150853d87116104cc576104be8183610aef565b86610355565b3461027257600036600319011261027257600054604051638da5cb5b60e01b815290602090829060049082906001600160a01b03165afa80156104d3576106069160009161069957506001600160a01b03163314610b62565b600080516020610cdf8339815191525460ff81166106885760019060ff191617600080516020610cdf833981519152557f62e78cea01bee320cd4e420270b5ea74000d11b0c9f74754ebdbfc544b05a2586020604051338152a1337f81990fd9a5c552b8e3677917d8a03c07678f0d2cb68f88b634aca2022e9bd19f600080a2005b63d93c066560e01b60005260046000fd5b6106b2915060203d6020116104cc576104be8183610aef565b82610355565b3461027257600036600319011261027257602060ff600080516020610cdf83398151915254166040519015158152f35b34610272576000366003190112610272577f00000000000000000000000000000000000000000000000000000000000000006001600160a01b03163003610741576020604051600080516020610cbf8339815191528152f35b63703e46dd60e11b60005260046000fd5b604036600319011261027257610766610ad9565b6024359067ffffffffffffffff821161027257366023830112156102725781600401359061079382610b27565b916107a16040519384610aef565b8083526020830193366024838301011161027257816000926024602093018737840101526001600160a01b037f0000000000000000000000000000000000000000000000000000000000000000163081149081156109a9575b5061074157600054604051638da5cb5b60e01b815290602090829060049082906001600160a01b03165afa80156104d3576108479160009161098a57506001600160a01b03163314610b62565b6040516352d1902d60e01b81526001600160a01b0382169390602081600481885afa60009181610956575b5061088c5784634c9c8ce360e01b60005260045260246000fd5b80600080516020610cbf8339815191528692036109425750823b1561092e57600080516020610cbf83398151915280546001600160a01b031916821790557fbc7cd75a20ee27fd9adebab32041f755214dbc6bffa90cc0225b39da2e5c2d3b600080a28251156109135760008091610911945190845af461090b610b9a565b91610c5d565b005b5050503461091d57005b63b398979f60e01b60005260046000fd5b634c9c8ce360e01b60005260045260246000fd5b632a87526960e21b60005260045260246000fd5b9091506020813d602011610982575b8161097260209383610aef565b8101031261027257519086610872565b3d9150610965565b6109a3915060203d6020116104cc576104be8183610aef565b85610355565b600080516020610cbf833981519152546001600160a01b031614159050846107fa565b3461027257600036600319011261027257600054604051638da5cb5b60e01b815290602090829060049082906001600160a01b03165afa80156104d357610a259160009161069957506001600160a01b03163314610b62565b600080516020610cdf8339815191525460ff811615610aa45760ff1916600080516020610cdf833981519152557f5db9ee0a495bf2e6ff9c91a7834c1ba4fdd244a5e8aa4e537bd38aeae4b073aa6020604051338152a1337f5b65b0c1363b3003db9bcc5e1fd8805a6d6bf5bf6dc9d3431ee4494cd7d11766600080a2005b638dfc202b60e01b60005260046000fd5b34610272576000366003190112610272576000546001600160a01b03168152602090f35b600435906001600160a01b038216820361027257565b90601f8019910116810190811067ffffffffffffffff821117610b1157604052565b634e487b7160e01b600052604160045260246000fd5b67ffffffffffffffff8111610b1157601f01601f191660200190565b9081602091031261027257516001600160a01b03811681036102725790565b15610b6957565b60405162461bcd60e51b81526020600482015260096024820152682737ba1037bbb732b960b91b6044820152606490fd5b3d15610bc5573d90610bab82610b27565b91610bb96040519384610aef565b82523d6000602084013e565b606090565b6001600160a01b031615610bda57565b60405162461bcd60e51b815260206004820152602760248201527f416363657373436f6e74726f6c3a207a65726f2061646472657373206e6f7420604482015266185b1b1bddd95960ca1b6064820152608490fd5b60ff600080516020610d1f8339815191525460401c1615610c4c57565b631afcd79f60e31b60005260046000fd5b90610c835750805115610c7257602081519101fd5b63d6bda27560e01b60005260046000fd5b81511580610cb5575b610c94575090565b639996b31560e01b60009081526001600160a01b0391909116600452602490fd5b50803b15610c8c56fe360894a13ba1a3210667c828492db98dca3e2076cc3735a920a3ca505d382bbccd5ed15c6e187e77e9aee88184c21f4f2182ab5827cb3b7e07fbedcd63f033009b779b17422d0df92223018b32b4d1fa46e071723d6817e2486d003becc55f00f0c57e16840df040f15088dc2f81fe391c3923bec73e23a9662efc9c229c6a00a2646970667358221220d95c0a6413e8f07a20423d914c873750692ef6d7b6ce19e09f5ad9331b196bf964736f6c634300081c0033",
  "linkReferences": {},
  "deployedLinkReferences": {}
}