{
  "_format": "hh-sol-artifact-1",
  "contractName": "TrustlessTeamProtocol",
  "sourceName": "contracts/User/TrustlessTeamProtocol.sol",
  "abi": [
    {
      "inputs": [
        {
          "internalType": "address",
          "name": "target",
          "type": "address"
        }
      ],
      "name": "AddressEmptyCode",
      "type": "error"
    },
    {
      "inputs": [],
      "name": "AlreadyRequestedJoin",
      "type": "error"
    },
    {
      "inputs": [],
      "name": "AlredyClaimed",
      "type": "error"
    },
    {
      "inputs": [],
      "name": "AlredyRegistered",
      "type": "error"
    },
    {
      "inputs": [],
      "name": "CancelOnlyWhenMemberAssigned",
      "type": "error"
    },
    {
      "inputs": [],
      "name": "DeadlineNotExceeded",
      "type": "error"
    },
    {
      "inputs": [
        {
          "internalType": "address",
          "name": "implementation",
          "type": "address"
        }
      ],
      "name": "ERC1967InvalidImplementation",
      "type": "error"
    },
    {
      "inputs": [],
      "name": "ERC1967NonPayable",
      "type": "error"
    },
    {
      "inputs": [],
      "name": "EnforcedPause",
      "type": "error"
    },
    {
      "inputs": [],
      "name": "ExpectedPause",
      "type": "error"
    },
    {
      "inputs": [],
      "name": "FailedCall",
      "type": "error"
    },
    {
      "inputs": [],
      "name": "InsufficientStake",
      "type": "error"
    },
    {
      "inputs": [],
      "name": "InvalidDeadline",
      "type": "error"
    },
    {
      "inputs": [],
      "name": "InvalidInitialization",
      "type": "error"
    },
    {
      "inputs": [],
      "name": "InvalidMemberStakePercentReward",
      "type": "error"
    },
    {
      "inputs": [],
      "name": "InvalidReason",
      "type": "error"
    },
    {
      "inputs": [],
      "name": "InvalidRewardAmount",
      "type": "error"
    },
    {
      "inputs": [],
      "name": "InvalidStakeAmount",
      "type": "error"
    },
    {
      "inputs": [],
      "name": "InvalidTitle",
      "type": "error"
    },
    {
      "inputs": [],
      "name": "NoSubmision",
      "type": "error"
    },
    {
      "inputs": [],
      "name": "NotCounterparty",
      "type": "error"
    },
    {
      "inputs": [],
      "name": "NotInitializing",
      "type": "error"
    },
    {
      "inputs": [],
      "name": "NotRegistered",
      "type": "error"
    },
    {
      "inputs": [],
      "name": "NotTaskCreator",
      "type": "error"
    },
    {
      "inputs": [],
      "name": "NotTaskMember",
      "type": "error"
    },
    {
      "inputs": [],
      "name": "ReentrancyGuardReentrantCall",
      "type": "error"
    },
    {
      "inputs": [],
      "name": "RewardOverflow",
      "type": "error"
    },
    {
      "inputs": [],
      "name": "StakeHitLimit",
      "type": "error"
    },
    {
      "inputs": [],
      "name": "StakeMismatch",
      "type": "error"
    },
    {
      "inputs": [],
      "name": "StakeOverflow",
      "type": "error"
    },
    {
      "inputs": [],
      "name": "TaskDoesNotExist",
      "type": "error"
    },
    {
      "inputs": [],
      "name": "TaskNotOpen",
      "type": "error"
    },
    {
      "inputs": [],
      "name": "TaskNotSubmittedYet",
      "type": "error"
    },
    {
      "inputs": [],
      "name": "TooManyRevisions",
      "type": "error"
    },
    {
      "inputs": [],
      "name": "UUPSUnauthorizedCallContext",
      "type": "error"
    },
    {
      "inputs": [
        {
          "internalType": "bytes32",
          "name": "slot",
          "type": "bytes32"
        }
      ],
      "name": "UUPSUnsupportedProxiableUUID",
      "type": "error"
    },
    {
      "inputs": [],
      "name": "ValueMismatch",
      "type": "error"
    },
    {
      "inputs": [],
      "name": "alredyInPending",
      "type": "error"
    },
    {
      "inputs": [],
      "name": "submissionAlreadyPending",
      "type": "error"
    },
    {
      "anonymous": false,
      "inputs": [
        {
          "indexed": true,
          "internalType": "uint256",
          "name": "taskId",
          "type": "uint256"
        }
      ],
      "name": "DeadlineTriggered",
      "type": "event"
    },
    {
      "anonymous": false,
      "inputs": [
        {
          "indexed": false,
          "internalType": "uint64",
          "name": "version",
          "type": "uint64"
        }
      ],
      "name": "Initialized",
      "type": "event"
    },
    {
      "anonymous": false,
      "inputs": [
        {
          "indexed": true,
          "internalType": "uint256",
          "name": "taskId",
          "type": "uint256"
        },
        {
          "indexed": true,
          "internalType": "address",
          "name": "applicant",
          "type": "address"
        }
      ],
      "name": "JoinApproved",
      "type": "event"
    },
    {
      "anonymous": false,
      "inputs": [
        {
          "indexed": true,
          "internalType": "uint256",
          "name": "taskId",
          "type": "uint256"
        },
        {
          "indexed": true,
          "internalType": "address",
          "name": "applicant",
          "type": "address"
        }
      ],
      "name": "JoinRejected",
      "type": "event"
    },
    {
      "anonymous": false,
      "inputs": [
        {
          "indexed": true,
          "internalType": "uint256",
          "name": "taskId",
          "type": "uint256"
        },
        {
          "indexed": true,
          "internalType": "address",
          "name": "applicant",
          "type": "address"
        },
        {
          "indexed": false,
          "internalType": "uint256",
          "name": "stakeAmount",
          "type": "uint256"
        }
      ],
      "name": "JoinRequested",
      "type": "event"
    },
    {
      "anonymous": false,
      "inputs": [
        {
          "indexed": true,
          "internalType": "uint256",
          "name": "taskId",
          "type": "uint256"
        },
        {
          "indexed": true,
          "internalType": "address",
          "name": "user",
          "type": "address"
        }
      ],
      "name": "JoinrequestCancelled",
      "type": "event"
    },
    {
      "anonymous": false,
      "inputs": [
        {
          "indexed": false,
          "internalType": "address",
          "name": "account",
          "type": "address"
        }
      ],
      "name": "Paused",
      "type": "event"
    },
    {
      "anonymous": false,
      "inputs": [
        {
          "indexed": true,
          "internalType": "uint256",
          "name": "taskId",
          "type": "uint256"
        }
      ],
      "name": "RegistrationClosed",
      "type": "event"
    },
    {
      "anonymous": false,
      "inputs": [
        {
          "indexed": true,
          "internalType": "uint256",
          "name": "taskId",
          "type": "uint256"
        }
      ],
      "name": "RegistrationOpened",
      "type": "event"
    },
    {
      "anonymous": false,
      "inputs": [
        {
          "indexed": true,
          "internalType": "uint256",
          "name": "taskId",
          "type": "uint256"
        },
        {
          "indexed": false,
          "internalType": "uint8",
          "name": "revisionCount",
          "type": "uint8"
        },
        {
          "indexed": false,
          "internalType": "uint256",
          "name": "newDeadline",
          "type": "uint256"
        }
      ],
      "name": "RevisionRequested",
      "type": "event"
    },
    {
      "anonymous": false,
      "inputs": [
        {
          "indexed": true,
          "internalType": "uint256",
          "name": "taskId",
          "type": "uint256"
        }
      ],
      "name": "TaskActive",
      "type": "event"
    },
    {
      "anonymous": false,
      "inputs": [
        {
          "indexed": true,
          "internalType": "uint256",
          "name": "taskId",
          "type": "uint256"
        }
      ],
      "name": "TaskApproved",
      "type": "event"
    },
    {
      "anonymous": false,
      "inputs": [
        {
          "indexed": true,
          "internalType": "uint256",
          "name": "taskId",
          "type": "uint256"
        },
        {
          "indexed": true,
          "internalType": "address",
          "name": "initiator",
          "type": "address"
        }
      ],
      "name": "TaskCancelledByMe",
      "type": "event"
    },
    {
      "anonymous": false,
      "inputs": [
        {
          "indexed": false,
          "internalType": "string",
          "name": "title",
          "type": "string"
        },
        {
          "indexed": true,
          "internalType": "uint256",
          "name": "taskId",
          "type": "uint256"
        },
        {
          "indexed": true,
          "internalType": "address",
          "name": "creator",
          "type": "address"
        },
        {
          "indexed": false,
          "internalType": "uint256",
          "name": "reward",
          "type": "uint256"
        },
        {
          "indexed": false,
          "internalType": "uint256",
          "name": "creatorStake",
          "type": "uint256"
        }
      ],
      "name": "TaskCreated",
      "type": "event"
    },
    {
      "anonymous": false,
      "inputs": [
        {
          "indexed": false,
          "internalType": "uint256",
          "name": "taskId",
          "type": "uint256"
        }
      ],
      "name": "TaskDeleted",
      "type": "event"
    },
    {
      "anonymous": false,
      "inputs": [
        {
          "indexed": true,
          "internalType": "uint256",
          "name": "taskId",
          "type": "uint256"
        },
        {
          "indexed": true,
          "internalType": "address",
          "name": "member",
          "type": "address"
        }
      ],
      "name": "TaskReSubmitted",
      "type": "event"
    },
    {
      "anonymous": false,
      "inputs": [
        {
          "indexed": true,
          "internalType": "uint256",
          "name": "taskId",
          "type": "uint256"
        },
        {
          "indexed": true,
          "internalType": "address",
          "name": "member",
          "type": "address"
        },
        {
          "indexed": false,
          "internalType": "string",
          "name": "githubURL",
          "type": "string"
        }
      ],
      "name": "TaskSubmitted",
      "type": "event"
    },
    {
      "anonymous": false,
      "inputs": [
        {
          "indexed": false,
          "internalType": "address",
          "name": "account",
          "type": "address"
        }
      ],
      "name": "Unpaused",
      "type": "event"
    },
    {
      "anonymous": false,
      "inputs": [
        {
          "indexed": true,
          "internalType": "address",
          "name": "implementation",
          "type": "address"
        }
      ],
      "name": "Upgraded",
      "type": "event"
    },
    {
      "anonymous": false,
      "inputs": [
        {
          "indexed": true,
          "internalType": "address",
          "name": "user",
          "type": "address"
        },
        {
          "indexed": false,
          "internalType": "string",
          "name": "name",
          "type": "string"
        },
        {
          "indexed": false,
          "internalType": "uint128",
          "name": "age",
          "type": "uint128"
        }
      ],
      "name": "UserRegistered",
      "type": "event"
    },
    {
      "anonymous": false,
      "inputs": [
        {
          "indexed": true,
          "internalType": "address",
          "name": "user",
          "type": "address"
        },
        {
          "indexed": false,
          "internalType": "string",
          "name": "name",
          "type": "string"
        },
        {
          "indexed": false,
          "internalType": "uint128",
          "name": "age",
          "type": "uint128"
        }
      ],
      "name": "UserUnregistered",
      "type": "event"
    },
    {
      "anonymous": false,
      "inputs": [
        {
          "indexed": true,
          "internalType": "address",
          "name": "user",
          "type": "address"
        },
        {
          "indexed": false,
          "internalType": "uint256",
          "name": "amount",
          "type": "uint256"
        }
      ],
      "name": "Withdrawal",
      "type": "event"
    },
    {
      "anonymous": false,
      "inputs": [
        {
          "indexed": false,
          "internalType": "string",
          "name": "info",
          "type": "string"
        },
        {
          "indexed": true,
          "internalType": "address",
          "name": "newAddress",
          "type": "address"
        },
        {
          "indexed": true,
          "internalType": "uint256",
          "name": "value",
          "type": "uint256"
        }
      ],
      "name": "systemChanged",
      "type": "event"
    },
    {
      "stateMutability": "payable",
      "type": "fallback"
    },
    {
      "inputs": [
        {
          "internalType": "string",
          "name": "Name",
          "type": "string"
        },
        {
          "internalType": "uint128",
          "name": "Age",
          "type": "uint128"
        },
        {
          "internalType": "string",
          "name": "githubURL",
          "type": "string"
        },
        {
          "internalType": "address",
          "name": "user",
          "type": "address"
        }
      ],
      "name": "Register",
      "outputs": [],
      "stateMutability": "nonpayable",
      "type": "function"
    },
    {
      "inputs": [
        {
          "internalType": "uint256",
          "name": "",
          "type": "uint256"
        }
      ],
      "name": "TaskSubmits",
      "outputs": [
        {
          "internalType": "string",
          "name": "githubURL",
          "type": "string"
        },
        {
          "internalType": "address",
          "name": "sender",
          "type": "address"
        },
        {
          "internalType": "string",
          "name": "note",
          "type": "string"
        },
        {
          "internalType": "enum TrustlessTeamProtocol.SubmitStatus",
          "name": "status",
          "type": "uint8"
        },
        {
          "internalType": "uint8",
          "name": "revisionTime",
          "type": "uint8"
        },
        {
          "internalType": "uint256",
          "name": "newDeadline",
          "type": "uint256"
        }
      ],
      "stateMutability": "view",
      "type": "function"
    },
    {
      "inputs": [
        {
          "internalType": "uint256",
          "name": "",
          "type": "uint256"
        }
      ],
      "name": "Tasks",
      "outputs": [
        {
          "internalType": "uint256",
          "name": "taskId",
          "type": "uint256"
        },
        {
          "internalType": "enum TrustlessTeamProtocol.TaskStatus",
          "name": "status",
          "type": "uint8"
        },
        {
          "internalType": "enum TrustlessTeamProtocol.TaskValue",
          "name": "value",
          "type": "uint8"
        },
        {
          "internalType": "address",
          "name": "creator",
          "type": "address"
        },
        {
          "internalType": "address",
          "name": "member",
          "type": "address"
        },
        {
          "internalType": "string",
          "name": "title",
          "type": "string"
        },
        {
          "internalType": "string",
          "name": "githubURL",
          "type": "string"
        },
        {
          "internalType": "uint256",
          "name": "reward",
          "type": "uint256"
        },
        {
          "internalType": "uint32",
          "name": "deadlineHours",
          "type": "uint32"
        },
        {
          "internalType": "uint256",
          "name": "deadlineAt",
          "type": "uint256"
        },
        {
          "internalType": "uint256",
          "name": "createdAt",
          "type": "uint256"
        },
        {
          "internalType": "uint256",
          "name": "creatorStake",
          "type": "uint256"
        },
        {
          "internalType": "uint256",
          "name": "memberStake",
          "type": "uint256"
        },
        {
          "internalType": "uint8",
          "name": "maxRevision",
          "type": "uint8"
        },
        {
          "internalType": "bool",
          "name": "isMemberStakeLocked",
          "type": "bool"
        },
        {
          "internalType": "bool",
          "name": "isCreatorStakeLocked",
          "type": "bool"
        },
        {
          "internalType": "bool",
          "name": "isRewardClaimed",
          "type": "bool"
        },
        {
          "internalType": "bool",
          "name": "exists",
          "type": "bool"
        }
      ],
      "stateMutability": "view",
      "type": "function"
    },
    {
      "inputs": [],
      "name": "UPGRADE_INTERFACE_VERSION",
      "outputs": [
        {
          "internalType": "string",
          "name": "",
          "type": "string"
        }
      ],
      "stateMutability": "view",
      "type": "function"
    },
    {
      "inputs": [
        {
          "internalType": "address",
          "name": "user",
          "type": "address"
        }
      ],
      "name": "Unregister",
      "outputs": [
        {
          "internalType": "string",
          "name": "",
          "type": "string"
        }
      ],
      "stateMutability": "nonpayable",
      "type": "function"
    },
    {
      "inputs": [
        {
          "internalType": "address",
          "name": "",
          "type": "address"
        }
      ],
      "name": "Users",
      "outputs": [
        {
          "internalType": "uint256",
          "name": "totalTasksCreated",
          "type": "uint256"
        },
        {
          "internalType": "uint256",
          "name": "totalTasksCompleted",
          "type": "uint256"
        },
        {
          "internalType": "uint256",
          "name": "totalTasksFailed",
          "type": "uint256"
        },
        {
          "internalType": "uint128",
          "name": "reputation",
          "type": "uint128"
        },
        {
          "internalType": "uint128",
          "name": "age",
          "type": "uint128"
        },
        {
          "internalType": "bool",
          "name": "isRegistered",
          "type": "bool"
        },
        {
          "internalType": "string",
          "name": "name",
          "type": "string"
        },
        {
          "internalType": "string",
          "name": "GitProfile",
          "type": "string"
        }
      ],
      "stateMutability": "view",
      "type": "function"
    },
    {
      "inputs": [
        {
          "internalType": "uint32",
          "name": "DeadlineHours",
          "type": "uint32"
        },
        {
          "internalType": "uint8",
          "name": "MaximumRevision",
          "type": "uint8"
        },
        {
          "internalType": "uint256",
          "name": "rewardWei",
          "type": "uint256"
        },
        {
          "internalType": "address",
          "name": "Caller",
          "type": "address"
        }
      ],
      "name": "__getCreatorStake",
      "outputs": [
        {
          "internalType": "uint256",
          "name": "",
          "type": "uint256"
        }
      ],
      "stateMutability": "view",
      "type": "function"
    },
    {
      "inputs": [],
      "name": "accessControl",
      "outputs": [
        {
          "internalType": "contract IAccessControl",
          "name": "",
          "type": "address"
        }
      ],
      "stateMutability": "view",
      "type": "function"
    },
    {
      "inputs": [
        {
          "internalType": "uint256",
          "name": "taskId",
          "type": "uint256"
        }
      ],
      "name": "activateTask",
      "outputs": [],
      "stateMutability": "payable",
      "type": "function"
    },
    {
      "inputs": [
        {
          "internalType": "uint256",
          "name": "taskId",
          "type": "uint256"
        },
        {
          "internalType": "address",
          "name": "applicant",
          "type": "address"
        }
      ],
      "name": "approveJoinRequest",
      "outputs": [],
      "stateMutability": "nonpayable",
      "type": "function"
    },
    {
      "inputs": [
        {
          "internalType": "uint256",
          "name": "taskId",
          "type": "uint256"
        }
      ],
      "name": "approveTask",
      "outputs": [],
      "stateMutability": "nonpayable",
      "type": "function"
    },
    {
      "inputs": [
        {
          "internalType": "uint256",
          "name": "taskId",
          "type": "uint256"
        },
        {
          "internalType": "address",
          "name": "user",
          "type": "address"
        }
      ],
      "name": "cancelByMe",
      "outputs": [],
      "stateMutability": "nonpayable",
      "type": "function"
    },
    {
      "inputs": [
        {
          "internalType": "address",
          "name": "_newAccesControl",
          "type": "address"
        }
      ],
      "name": "changeAccessControl",
      "outputs": [],
      "stateMutability": "nonpayable",
      "type": "function"
    },
    {
      "inputs": [
        {
          "internalType": "address",
          "name": "_newStateVar",
          "type": "address"
        }
      ],
      "name": "changeStateVarAddress",
      "outputs": [],
      "stateMutability": "nonpayable",
      "type": "function"
    },
    {
      "inputs": [
        {
          "internalType": "address payable",
          "name": "_NewsystemWallet",
          "type": "address"
        }
      ],
      "name": "changeSystemwallet",
      "outputs": [],
      "stateMutability": "nonpayable",
      "type": "function"
    },
    {
      "inputs": [
        {
          "internalType": "uint256",
          "name": "taskId",
          "type": "uint256"
        }
      ],
      "name": "closeRegistration",
      "outputs": [],
      "stateMutability": "nonpayable",
      "type": "function"
    },
    {
      "inputs": [
        {
          "internalType": "string",
          "name": "Title",
          "type": "string"
        },
        {
          "internalType": "string",
          "name": "GithubURL",
          "type": "string"
        },
        {
          "internalType": "uint32",
          "name": "DeadlineHours",
          "type": "uint32"
        },
        {
          "internalType": "uint8",
          "name": "MaximumRevision",
          "type": "uint8"
        },
        {
          "internalType": "address",
          "name": "user",
          "type": "address"
        }
      ],
      "name": "createTask",
      "outputs": [],
      "stateMutability": "payable",
      "type": "function"
    },
    {
      "inputs": [
        {
          "internalType": "uint256",
          "name": "taskId",
          "type": "uint256"
        },
        {
          "internalType": "address",
          "name": "user",
          "type": "address"
        }
      ],
      "name": "deleteTask",
      "outputs": [],
      "stateMutability": "nonpayable",
      "type": "function"
    },
    {
      "inputs": [],
      "name": "feeCollected",
      "outputs": [
        {
          "internalType": "uint256",
          "name": "",
          "type": "uint256"
        }
      ],
      "stateMutability": "view",
      "type": "function"
    },
    {
      "inputs": [
        {
          "internalType": "uint256",
          "name": "taskId",
          "type": "uint256"
        }
      ],
      "name": "getCreatorStake",
      "outputs": [
        {
          "internalType": "uint256",
          "name": "",
          "type": "uint256"
        }
      ],
      "stateMutability": "view",
      "type": "function"
    },
    {
      "inputs": [
        {
          "internalType": "uint256",
          "name": "taskId",
          "type": "uint256"
        }
      ],
      "name": "getJoinRequestCount",
      "outputs": [
        {
          "internalType": "uint256",
          "name": "",
          "type": "uint256"
        }
      ],
      "stateMutability": "view",
      "type": "function"
    },
    {
      "inputs": [
        {
          "internalType": "uint256",
          "name": "taskId",
          "type": "uint256"
        }
      ],
      "name": "getMemberRequiredStake",
      "outputs": [
        {
          "internalType": "uint256",
          "name": "",
          "type": "uint256"
        }
      ],
      "stateMutability": "view",
      "type": "function"
    },
    {
      "inputs": [
        {
          "internalType": "address",
          "name": "_accessControl",
          "type": "address"
        },
        {
          "internalType": "address payable",
          "name": "_systemWallet",
          "type": "address"
        },
        {
          "internalType": "address",
          "name": "_stateVar",
          "type": "address"
        },
        {
          "internalType": "uint256",
          "name": "_initialmemberStakePercentReward",
          "type": "uint256"
        }
      ],
      "name": "initialize",
      "outputs": [],
      "stateMutability": "nonpayable",
      "type": "function"
    },
    {
      "inputs": [
        {
          "internalType": "uint256",
          "name": "",
          "type": "uint256"
        },
        {
          "internalType": "uint256",
          "name": "",
          "type": "uint256"
        }
      ],
      "name": "joinRequests",
      "outputs": [
        {
          "internalType": "address",
          "name": "applicant",
          "type": "address"
        },
        {
          "internalType": "uint256",
          "name": "stakeAmount",
          "type": "uint256"
        },
        {
          "internalType": "enum TrustlessTeamProtocol.UserTask",
          "name": "status",
          "type": "uint8"
        },
        {
          "internalType": "bool",
          "name": "isPending",
          "type": "bool"
        },
        {
          "internalType": "bool",
          "name": "hasWithdrawn",
          "type": "bool"
        }
      ],
      "stateMutability": "view",
      "type": "function"
    },
    {
      "inputs": [],
      "name": "memberStakePercentReward",
      "outputs": [
        {
          "internalType": "uint256",
          "name": "",
          "type": "uint256"
        }
      ],
      "stateMutability": "view",
      "type": "function"
    },
    {
      "inputs": [
        {
          "internalType": "uint256",
          "name": "taskId",
          "type": "uint256"
        }
      ],
      "name": "openRegistration",
      "outputs": [],
      "stateMutability": "nonpayable",
      "type": "function"
    },
    {
      "inputs": [
        {
          "internalType": "address",
          "name": "caller",
          "type": "address"
        }
      ],
      "name": "pause",
      "outputs": [],
      "stateMutability": "nonpayable",
      "type": "function"
    },
    {
      "inputs": [],
      "name": "paused",
      "outputs": [
        {
          "internalType": "bool",
          "name": "",
          "type": "bool"
        }
      ],
      "stateMutability": "view",
      "type": "function"
    },
    {
      "inputs": [],
      "name": "proxiableUUID",
      "outputs": [
        {
          "internalType": "bytes32",
          "name": "",
          "type": "bytes32"
        }
      ],
      "stateMutability": "view",
      "type": "function"
    },
    {
      "inputs": [
        {
          "internalType": "uint256",
          "name": "taskId",
          "type": "uint256"
        },
        {
          "internalType": "string",
          "name": "Note",
          "type": "string"
        },
        {
          "internalType": "string",
          "name": "GithubFixedURL",
          "type": "string"
        },
        {
          "internalType": "address",
          "name": "user",
          "type": "address"
        }
      ],
      "name": "reSubmitTask",
      "outputs": [],
      "stateMutability": "nonpayable",
      "type": "function"
    },
    {
      "inputs": [
        {
          "internalType": "uint256",
          "name": "taskId",
          "type": "uint256"
        },
        {
          "internalType": "address",
          "name": "_applicant",
          "type": "address"
        }
      ],
      "name": "rejectJoinRequest",
      "outputs": [],
      "stateMutability": "nonpayable",
      "type": "function"
    },
    {
      "inputs": [
        {
          "internalType": "uint256",
          "name": "taskId",
          "type": "uint256"
        },
        {
          "internalType": "address",
          "name": "user",
          "type": "address"
        }
      ],
      "name": "requestJoinTask",
      "outputs": [],
      "stateMutability": "payable",
      "type": "function"
    },
    {
      "inputs": [
        {
          "internalType": "uint256",
          "name": "taskId",
          "type": "uint256"
        },
        {
          "internalType": "string",
          "name": "Note",
          "type": "string"
        },
        {
          "internalType": "uint256",
          "name": "additionalDeadlineHours",
          "type": "uint256"
        }
      ],
      "name": "requestRevision",
      "outputs": [],
      "stateMutability": "nonpayable",
      "type": "function"
    },
    {
      "inputs": [
        {
          "internalType": "uint256",
          "name": "taskId",
          "type": "uint256"
        },
        {
          "internalType": "string",
          "name": "PullRequestURL",
          "type": "string"
        },
        {
          "internalType": "string",
          "name": "Note",
          "type": "string"
        },
        {
          "internalType": "address",
          "name": "user",
          "type": "address"
        }
      ],
      "name": "requestSubmitTask",
      "outputs": [],
      "stateMutability": "nonpayable",
      "type": "function"
    },
    {
      "inputs": [
        {
          "internalType": "uint256",
          "name": "NewmemberStakePercentReward",
          "type": "uint256"
        }
      ],
      "name": "setMemberStakePercentageFromStake",
      "outputs": [],
      "stateMutability": "nonpayable",
      "type": "function"
    },
    {
      "inputs": [],
      "name": "stateVar",
      "outputs": [
        {
          "internalType": "contract stateVariable",
          "name": "",
          "type": "address"
        }
      ],
      "stateMutability": "view",
      "type": "function"
    },
    {
      "inputs": [],
      "name": "systemWallet",
      "outputs": [
        {
          "internalType": "address payable",
          "name": "",
          "type": "address"
        }
      ],
      "stateMutability": "view",
      "type": "function"
    },
    {
      "inputs": [],
      "name": "taskCounter",
      "outputs": [
        {
          "internalType": "uint256",
          "name": "",
          "type": "uint256"
        }
      ],
      "stateMutability": "view",
      "type": "function"
    },
    {
      "inputs": [
        {
          "internalType": "uint256",
          "name": "taskId",
          "type": "uint256"
        }
      ],
      "name": "triggerDeadline",
      "outputs": [],
      "stateMutability": "nonpayable",
      "type": "function"
    },
    {
      "inputs": [
        {
          "internalType": "address",
          "name": "caller",
          "type": "address"
        }
      ],
      "name": "unpause",
      "outputs": [],
      "stateMutability": "nonpayable",
      "type": "function"
    },
    {
      "inputs": [
        {
          "internalType": "address",
          "name": "newImplementation",
          "type": "address"
        },
        {
          "internalType": "bytes",
          "name": "data",
          "type": "bytes"
        }
      ],
      "name": "upgradeToAndCall",
      "outputs": [],
      "stateMutability": "payable",
      "type": "function"
    },
    {
      "inputs": [
        {
          "internalType": "bytes32",
          "name": "",
          "type": "bytes32"
        }
      ],
      "name": "usedGitURL",
      "outputs": [
        {
          "internalType": "bool",
          "name": "",
          "type": "bool"
        }
      ],
      "stateMutability": "view",
      "type": "function"
    },
    {
      "inputs": [
        {
          "internalType": "address",
          "name": "user",
          "type": "address"
        }
      ],
      "name": "withdraw",
      "outputs": [],
      "stateMutability": "nonpayable",
      "type": "function"
    },
    {
      "inputs": [
        {
          "internalType": "uint256",
          "name": "taskId",
          "type": "uint256"
        },
        {
          "internalType": "address",
          "name": "user",
          "type": "address"
        }
      ],
      "name": "withdrawJoinRequest",
      "outputs": [],
      "stateMutability": "nonpayable",
      "type": "function"
    },
    {
      "inputs": [],
      "name": "withdrawToSystemWallet",
      "outputs": [],
      "stateMutability": "nonpayable",
      "type": "function"
    },
    {
      "inputs": [
        {
          "internalType": "address",
          "name": "",
          "type": "address"
        }
      ],
      "name": "withdrawable",
      "outputs": [
        {
          "internalType": "uint256",
          "name": "",
          "type": "uint256"
        }
      ],
      "stateMutability": "view",
      "type": "function"
    },
    {
      "stateMutability": "payable",
      "type": "receive"
    }
  ],
  "bytecode": "0x60a0806040523460295730608052615846908161002f8239608051818181612b950152612e320152f35b600080fdfe60806040526004361015610013575b600080fd5b60003560e01c806302cb134e14613ae55780630a07fae614613a7757806313007d5514613a4e5780631a9a8723146137cd578063273739901461378657806328319c2c1461375a578063294c5374146136e05780633cc8e54414613685578063437b5684146130365780634ee4de7d146130185780634f1ef28614612de45780634f51595f14612d3e57806351cff8d914612bec57806352d1902d14612b82578063553659f514612b6457806357b001f914612a325780635867173014612a145780635c975abb146129e45780635e54a1401461292f5780636ca7f95c146129115780636d8ed6921461276657806375ae3a6e1461266457806376a67a5114612563578063793816ec1461253a5780637f6fc165146125095780638cab7be41461243a5780638ff388c7146121f85780639387730c1461211057806397f8a8d814611db757806399b956a014611cfc5780639f8d5aa114611beb578063a12d93f814611b60578063ad3cb1cc14611b15578063ad7d3a7214611aec578063ae204d96146119fb578063b26ecb37146115dd578063b8be2fea146114d9578063c0a5dded14611072578063cca84a0c14610fac578063ce513b6f14610f72578063cf756fdf14610d71578063e0d42e9614610c76578063f4b2a46e14610b1e578063ff54068b14610ace578063ff91221f146106505763ff9df4220361000e573461000e57608036600319011261000e576004356001600160401b03811161000e57610242903690600401613d2c565b602435916001600160801b0383169182840361000e576044356001600160401b03811161000e57610277903690600401613d2c565b939094610282613cce565b600054604051633f784de560e11b8152336004820152906001600160a01b0316602082602481845afa908115610617576102ca602092600494600091610623575b5015613fa8565b604051638da5cb5b60e01b815292839182905afa801561061757610302916000916105e8575b506001600160a01b0316331415614001565b61030d33151561403f565b60018060a01b031694856000526002602052604060002091600483019260ff8454166105d7576040516020810190848b833761035d6020828781016000838201520301601f198101835282613d59565b5190209360038201906001600160801b031982541682556000600184015560006002840155600160ff1982541617905560058201926001600160401b03881161054d576103b4886103ae8654613dea565b86614119565b60009388601f811160011461056e57806103e791600697600091610563575b508160011b916000199060031b1c19161790565b90555b81546001600160801b031660809190911b6001600160801b03191617905501906001600160401b03811161054d5761042c816104268454613dea565b84614119565b6000601f82116001146104c757908061047f927f1bfdcd45dd860c112f48920703980e72901feca6fa0fa8a5ff1258f0fe606795999a6000926104bc575b50508160011b916000199060031b1c19161790565b90555b60005260036020526040600020600160ff198254161790556104b1604051938493604085526040850191614a3a565b9060208301520390a2005b01359050388061046a565b8281526020812090601f198316815b8181106105355750998392916001947f1bfdcd45dd860c112f48920703980e72901feca6fa0fa8a5ff1258f0fe6067959b9c1061051b575b505050811b019055610482565b0135600019600384901b60f8161c1916905538808061050e565b9192602060018192868f0135815501940192016104d6565b634e487b7160e01b600052604160045260246000fd5b90508c0135386103d3565b5080855260208520858a601f1981165b8d818a106105ba575060069850106105a0575b5050600189811b0190556103ea565b8b013560001960038c901b60f8161c191690553880610591565b8301358455602098890198600190940193909201918c915061057e565b630f018e4960e21b60005260046000fd5b61060a915060203d602011610610575b6106028183613d59565b810190613fe2565b386102f0565b503d6105f8565b6040513d6000823e3d90fd5b6106439150843d8611610649575b61063b8183613d59565b810190613f90565b386102c3565b503d610631565b3461000e57602036600319011261000e5760043580600052600660205260ff600b6040600020015460201c1615610abd57610689614c5d565b610691614c21565b806000526006602052604060002081600052600460205260ff600360406000200154166004811015610a9657600114610aac576001810180549160ff83166007811015610a9657600403610a855760078101548015610a74574210610a63576002810180549093600b92916001600160a01b0316151580610a56575b15610a0c5750610793610788600a83015460646107578161073e6001600160401b0361073761553e565b1685613f63565b04926001600160401b03610750615576565b1690613f63565b049060018060a01b03885416600052600560205261077b6040600020918254613f83565b9055600984015490613f83565b600583015490613f83565b60018060a01b03845460101c1660005260056020526107b86040600020918254613f83565b905501805462ffff00191690555b81546001600160a01b031660008181526002602052604090206004015460ff16610962575b50805460101c6001600160a01b031660008181526002602052604090206004015460ff166108b5575b50600660ff1982541617815560018060a01b03905460101c16600052600260205260026040600020016108478154614679565b9055546001600160a01b031680610893575b507f69c3ad79d0e13d549ed2cf8009be68e25ffa6a38699d0e1983d13a7e3a77e1c6600080a260016000805160206157d183398151915255005b600052600260205260026040600020016108ad8154614679565b905581610859565b8060005260026020526001600160801b036003604060002001541663ffffffff6108dd615640565b1611156109195750805460101c6001600160a01b0316600090815260026020526040902060030180546001600160801b03191690555b83610814565b63ffffffff610926615640565b169060005260026020526001600160801b0361094d6003604060002001928284541661415e565b166001600160801b0319825416179055610913565b8060005260026020526001600160801b036003604060002001541663ffffffff61098a6155ef565b1611156109c3575081546001600160a01b0316600090815260026020526040902060030180546001600160801b03191690555b836107eb565b63ffffffff6109d06155ef565b169060005260026020526001600160801b036109f76003604060002001928284541661415e565b166001600160801b03198254161790556109bd565b610a1f6009830154600584015490613f83565b9060018060a01b039060101c166000526005602052610a446040600020918254613f83565b905501805462ffff00191690556107c6565b50600a820154151561070d565b6370affcf560e11b60005260046000fd5b631da7447960e21b60005260046000fd5b63fe89421760e01b60005260046000fd5b634e487b7160e01b600052602160045260246000fd5b63eff3ce5d60e01b60005260046000fd5b63da319dff60e01b60005260046000fd5b3461000e57608036600319011261000e5760043563ffffffff8116810361000e576024359060ff8216820361000e57602091610b1691610b0c613cce565b9160443591614a5b565b604051908152f35b3461000e57602036600319011261000e576004356000526006602052604060002080549060018101549060ff82169060ff8360081c169160018060a01b0360028301541691610b6f60038201613e24565b94610b7c60048301613e24565b60058301549563ffffffff600685015416600785015491600886015493600987015495600b600a890154980154986040519d8e526007811015610a965760208e01526006831015610a96578c9b61024060a08e60ff9d610c0195610c0f986040840152600180851b039060101c166060830152608082015201526102408d0190613d07565b908b820360c08d0152613d07565b9760e08a01526101008901526101208801526101408701526101608601526101808501528181166101a0850152818160081c1615156101c0850152818160101c1615156101e0850152818160181c16151561020085015260201c1615156102208301520390f35b3461000e57602036600319011261000e576004356024602060018060a01b036000541660405192838092633f784de560e11b82523360048301525afa801561061757610cca91600091610d52575b506149ff565b610cd2614c5d565b80158015610d48575b610d375780600a556000600080516020615771833981519152608060405160208152602160208201527f7365744d656d6265725374616b6550657263656e7461676546726f6d5374616b6040820152606560f81b6060820152a3005b630b417afb60e11b60005260046000fd5b5060648111610cdb565b610d6b915060203d6020116106495761063b8183613d59565b83610cc4565b3461000e57608036600319011261000e57610d8a613ca2565b610d92613cb8565b90604435906001600160a01b0382169081830361000e576000805160206157f18339815191525460ff8160401c1615946001600160401b03821680159081610f6a575b6001149081610f60575b159081610f57575b50610f465767ffffffffffffffff1982166001176000805160206157f183398151915255610e379186610f19575b506001600160a01b031693610e29856154d9565b610e32836154d9565b6154d9565b610e3f61569b565b610e4761569b565b610e4f61569b565b60016000805160206157d183398151915255610e6961569b565b60018060a01b03166001600160601b0360a01b60005416176000556001600160601b0360a01b60015416176001556001600160601b0360a01b600b541617600b5560006008556000600955606435600a55610ec057005b68ff0000000000000000196000805160206157f183398151915254166000805160206157f1833981519152557fc7f505b2f371ae2175ee4913f4499e1f2633a7b5936321eed1cdaeb6115181d2602060405160018152a1005b68ffffffffffffffffff191668010000000000000001176000805160206157f18339815191525586610e15565b63f92ee8a960e01b60005260046000fd5b90501587610de7565b303b159150610ddf565b879150610dd5565b3461000e57602036600319011261000e576001600160a01b03610f93613ca2565b1660005260056020526020604060002054604051908152f35b3461000e57602036600319011261000e5760043580600052600660205260ff600b6040600020015460201c1615610abd5760008181526006602052604090206001015460101c6001600160a01b0316330361106157611009614c5d565b806000526006602052600160406000200160ff8154166007811015610a9657600203610a8557805460ff191660031790557fe0a3eabfba8d6b242de244fdd6f0372ee66d472686b2cfd89420ef24c0462201600080a2005b63eabf778760e01b60005260046000fd5b3461000e5761108036613ec8565b94939184600094929452600660205260ff600b6040600020015460201c1615610abd576000858152600660205260409020600201546001600160a01b0316330361148c576110cc614c5d565b600054604051633f784de560e11b8152336004820152906001600160a01b0316602082602481845afa908115610617576111136020926004946000916114bc575015613fa8565b604051638da5cb5b60e01b815292839182905afa80156106175761114a9160009161149d57506001600160a01b0316331415614001565b846000526006602052604060002060ff6001820154166007811015610a9657600403610a855760028101546001600160a01b03978816971687900361148c57600086815260046020526040902060018101546001600160a01b031615159081611471575b506114605760070154936040519160c08301908382106001600160401b0383111761054d576111f6916040526111e5368688613d95565b845260208401928984523691613d95565b946040830195865260608301956001875260808401926000845260a08501928352886000526004602052604060002094518051906001600160401b03821161054d5761124c826112468954613dea565b89614119565b602090601f83116001146113f95761127c9291600091836113ee5750508160011b916000199060031b1c19161790565b85555b516001850180546001600160a01b0319166001600160a01b039290921691909117905551805160028501916001600160401b03821161054d576112cc826112c68554613dea565b85614119565b602090601f8311600114611387576112fc92916000918361137c5750508160011b916000199060031b1c19161790565b90555b600383019551916004831015610a96577f9989978868daa22b7a8a054a31e686ab83a420750a2a60b58facca87bf7c12199660ff61135c926004958280198554169116178355511661ff0082549160081b169061ff001916179055565b51910155611377604051928392602084526020840191614a3a565b0390a3005b015190508c8061046a565b90601f1983169184600052816000209260005b8181106113d657509084600195949392106113bd575b505050811b0190556112ff565b015160001960f88460031b161c191690558b80806113b0565b9293602060018192878601518155019501930161139a565b015190508d8061046a565b90601f1983169188600052816000209260005b818110611448575090846001959493921061142f575b505050811b01855561127f565b015160001960f88460031b161c191690558c8080611422565b9293602060018192878601518155019501930161140c565b63710b41a360e01b60005260046000fd5b60ff915060030154166004811015610a9657600114886111ae565b631e50374d60e01b60005260046000fd5b6114b6915060203d602011610610576106028183613d59565b886102f0565b6114d39150843d86116106495761063b8183613d59565b8b6102c3565b3461000e57600036600319011261000e57600054604051633f784de560e11b815233600482015290602090829060249082906001600160a01b03165afa80156106175761152d916000916115be57506149ff565b611535614c21565b61153d614c5d565b600954600060095561156960008080808560018060a01b03600b54165af16115636146c8565b506146f8565b600060008051602061577183398151915260606040516020815260166020820152751dda5d1a191c985dd51bd4de5cdd195b55d85b1b195d60521b6040820152a360016000805160206157d183398151915255005b6115d7915060203d6020116106495761063b8183613d59565b82610cc4565b3461000e57604036600319011261000e576004356115f9613cb8565b9080600052600660205260ff600b6040600020015460201c1615610abd5761161f614c21565b600054604051633f784de560e11b8152336004820152906001600160a01b0316602082602481845afa908115610617576116666020926004946000916119de575015613fa8565b604051638da5cb5b60e01b815292839182905afa80156106175761169d916000916119bf57506001600160a01b0316331415614001565b6116a5614c5d565b60008181526006602052604090206001810180546001600160a01b0394851694919291601082901c16851415806119a8575b6119975760ff166007811015610a9657600403610a85576002810180546001600160a01b031691908583036118d657600b9250600a8201549061175f6064611745816117336001600160401b0361172c61553e565b1687613f63565b04946001600160401b03610750615576565b049261175a6009860154600587015490613f83565b613f83565b60018060a01b03865460101c1660005260056020526117846040600020918254613f83565b9055546001600160a01b03166000908152600560205260409020805490916117ab91613f83565b905501805462ffff00191690555b600660ff1982541617905581600052600260205260ff60046040600020015416611834575b81600052600260205260026040600020016117f98154614679565b90557f19f7047fbece8b5fc78b72bcce829a232f26b08806e65852e2e4afb96572b365600080a360016000805160206157d183398151915255005b8160005260026020526001600160801b03600360406000200154166001600160401b0361185f61559b565b16111561188a5781600052600260205260036040600020016001600160801b031981541690556117de565b6001600160401b0361189a61559b565b168260005260026020526001600160801b036118c16003604060002001928284541661415e565b166001600160801b03198254161790556117de565b508115611986576009810154600b92611934611929606461191d8161190b6001600160401b0361190461553e565b1688613f63565b04956001600160401b03610750615576565b04600586015490613f83565b92600a850154613f83565b90600052600560205261194d6040600020918254613f83565b905560018060a01b03845460101c1660005260056020526119746040600020918254613f83565b905501805462ffff00191690556117b9565b6316f1484160e01b60005260046000fd5b6389f5ad6160e01b60005260046000fd5b5060028201546001600160a01b03168514156116d7565b6119d8915060203d602011610610576106028183613d59565b846102f0565b6119f59150843d86116106495761063b8183613d59565b876102c3565b3461000e57602036600319011261000e576004611a16613ca2565b600054604051638da5cb5b60e01b81529260209184919082906001600160a01b03165afa91821561061757600092611a60918491611acd575b506001600160a01b03163314614736565b611a68614c5d565b611a71816154d9565b60018060a01b0316806001600160601b0360a01b600154161760015560008051602061577183398151915260606040516020815260156020820152746368616e676553746174655661724164647265737360581b6040820152a3005b611ae6915060203d602011610610576106028183613d59565b84611a4f565b3461000e57600036600319011261000e57600b546040516001600160a01b039091168152602090f35b3461000e57600036600319011261000e57611b5c6040805190611b388183613d59565b60058252640352e302e360dc1b602083015251918291602083526020830190613d07565b0390f35b3461000e57604036600319011261000e576024356004356000526007602052604060002090815481101561000e57611b9791613f31565b5060018060a01b03815416600260018301549201549160ff83169060405192835260208301526005811015610a965760a09260ff916040840152818160081c161515606084015260101c1615156080820152f35b3461000e57604036600319011261000e57600435611c07613cb8565b611c0f614c21565b33600052600260205260ff6004604060002001541615611ceb57816020917fd078b251d950cc55c44340be1db732337ef4939a76e1367ee271ad2cb19c46af93600052600683526009604060002060018101600660ff19825416179055600b810164ff00ff000019815416905560058101549260018060a01b0316928360005260058652611ca36040600020918254613f83565b905501549081611ccb575b5050604051908152a160016000805160206157d183398151915255005b60005260058352611ce26040600020918254613f83565b90558380611cae565b63aba4733960e01b60005260046000fd5b3461000e57602036600319011261000e576001600160a01b03611d1d613ca2565b16600052600260205260406000208054611b5c600183015492611da9600282015491600381015460ff60048301541690611d656006611d5e60058601613e24565b9401613e24565b946040519889988952602089015260408801526001600160801b038116606088015260801c6080870152151560a086015261010060c0860152610100850190613d07565b9083820360e0850152613d07565b604036600319011261000e57600435611dce613cb8565b9080600052600660205260ff600b6040600020015460201c1615610abd57611df4614c5d565b33600052600260205260ff6004604060002001541615611ceb57600054604051633f784de560e11b8152336004820152906001600160a01b0316602082602481845afa90811561061757611e556020926004946000916119de575015613fa8565b604051638da5cb5b60e01b815292839182905afa801561061757611e8c916000916119bf57506001600160a01b0316331415614001565b611e9733151561403f565b60008181526006602090815260408083206007909252822080546001600160a01b039095169491925b8281106120bb575050506001015460ff81166007811015610a9657600303610a855760101c6001600160a01b03168214610a8557611efd81614688565b60015460405163baa20a3960e01b815290602090829060049082906001600160a01b03165afa8015610617578291600091612086575b501061207557340361206457806000526007602052604060002060405160a081018181106001600160401b0382111761054d57604052838152602081019134835260408201916001835260608101936001855260808201926000845280546801000000000000000081101561054d57611fb191600182018155613f31565b91909161204e57915181546001600160a01b0319166001600160a01b0391909116178155905160018201559151600292909201916005811015610a965782549351915162ff000090151560101b1662ffffff1990941660ff919091161761ff0091151560081b91909116179190911790557f716834564cb7c8e3d64d2045110836bf24ec2665f21cca881de739333c6d62d76020604051348152a3005b634e487b7160e01b600052600060045260246000fd5b6378de4a6960e11b60005260046000fd5b63c9e0390760e01b60005260046000fd5b9150506020813d6020116120b3575b816120a260209383613d59565b8101031261000e5781905185611f33565b3d9150612095565b856120c68284613f31565b50546001600160a01b031614806120f5575b6120e457600101611ec0565b6353efb1e560e01b60005260046000fd5b5060ff60026121048385613f31565b50015460081c166120d8565b3461000e57602036600319011261000e57612129613ca2565b600054604051638da5cb5b60e01b8152916020836004816001600160a01b0386165afa928315610617576000936121719185916121d957506001600160a01b03163314614736565b612179614c5d565b612182816154d9565b60018060a01b031680916001600160601b0360a01b16178255600080516020615771833981519152606060405160208152601360208201527218da185b99d95058d8d95cdcd0dbdb9d1c9bdb606a1b6040820152a3005b6121f2915060203d602011610610576106028183613d59565b85611a4f565b3461000e57604036600319011261000e57600435612214613cb8565b81600052600660205260ff600b6040600020015460201c1615610abd5760008281526006602052604090206001015460101c6001600160a01b031633036110615761225d614c21565b612265614c5d565b60008281526007602090815260408083206006909252822091926001600160a01b0316835b825481101561242d578161229e8285613f31565b50546001600160a01b03161480612412575b6122bc5760010161228a565b9050600292935081836122d28361234b95613f31565b5001805461ff0019169055836122e88383613f31565b5001805460ff1916851790556122fe8282613f31565b505485850180546001600160a01b0319166001600160a01b0392909216919091179055600161232d8383613f31565b500154600a860155600060016123438484613f31565b500155613f31565b5001805462ff0000191662010000179055600b8101805461ff001916610100179055612377600161476e565b63ffffffff600682015416610e10810290808204610e1014901517156123fc576123a19042613f83565b600782015560018101805460ff19166004179055600201546001600160a01b0316907fa15a372eebffa78fac354b5e2229bc1a3bad4e94c881acfb6f86d381c50ba794600080a360016000805160206157d183398151915255005b634e487b7160e01b600052601160045260246000fd5b5060ff60026124218386613f31565b50015460081c166122b0565b505050906123779061476e565b3461000e57602036600319011261000e576004612455613ca2565b600054604051638da5cb5b60e01b81529260209184919082906001600160a01b03165afa9182156106175760009261249e918491611acd57506001600160a01b03163314614736565b6124a6614c5d565b6001600160a01b03166124b8816154d9565b806001600160601b0360a01b600b541617600b55600080516020615771833981519152606060405160208152601260208201527118da185b99d954de5cdd195b5dd85b1b195d60721b6040820152a3005b3461000e57602036600319011261000e576004356000526003602052602060ff604060002054166040519015158152f35b3461000e57600036600319011261000e576001546040516001600160a01b039091168152602090f35b3461000e57602036600319011261000e57600461257e613ca2565b600054604051638da5cb5b60e01b81529260209184919082906001600160a01b03165afa918215610617576000926125c7918491611acd57506001600160a01b03163314614736565b6125cf614c5d565b600160ff196000805160206157b18339815191525416176000805160206157b1833981519152557f62e78cea01bee320cd4e420270b5ea74000d11b0c9f74754ebdbfc544b05a2586020604051338152a160008051602061577183398151915260606040519260208452600f60208501526e18dbdb9d1c9858dd081c185d5cd959608a1b604085015260018060a01b031692a3005b3461000e5761267236613ec8565b9385600094929452600660205260ff600b6040600020015460201c1615610abd576000868152600660205260409020600201546001600160a01b0316330361148c576126bc614c5d565b600054604051633f784de560e11b815233600482015296906001600160a01b0316602088602481845afa9081156106175761270460209260049a6000916114bc575015613fa8565b604051638da5cb5b60e01b815298899182905afa96871561061757612745976127409160009161274757506001600160a01b0316331415614001565b6147ae565b005b612760915060203d602011610610576106028183613d59565b896102f0565b3461000e57604036600319011261000e57600435612782613cb8565b81600052600660205260ff600b6040600020015460201c1615610abd5760008281526006602052604090206001015460101c6001600160a01b0316330361106157906127cc614c21565b6127d4614c5d565b60008181526007602052604081206001600160a01b0390931692909190825b815481101561290557846128078284613f31565b50546001600160a01b031614806128ea575b612825576001016127f3565b8192935080600261283a61287b938295613f31565b5001805461ff0019169055826128508286613f31565b5001805460ff1916600317905560016128698286613f31565b50015493600060016123438484613f31565b50016201000062ff0000198254161790558260005260056020526128a56040600020918254613f83565b90556128b1600161476e565b7f659db9764efb778e1b0294e020cbc7f55b198481945e7dd60910f555b27399dc600080a360016000805160206157d183398151915255005b5060ff60026128f98385613f31565b50015460081c16612819565b5050906128b19061476e565b3461000e57600036600319011261000e576020600954604051908152f35b3461000e57602036600319011261000e5760043580600052600660205260ff600b6040600020015460201c1615610abd5760008181526006602052604090206001015460101c6001600160a01b031633036110615761298c614c5d565b806000526006602052600160406000200160ff8154166007811015610a9657600303610a8557805460ff191660021790557f383b6ce38b867405b4f42fa404692e07842868068badd063c9bfeb0e7f263f62600080a2005b3461000e57600036600319011261000e57602060ff6000805160206157b183398151915254166040519015158152f35b3461000e57600036600319011261000e576020600854604051908152f35b3461000e57602036600319011261000e57612a4b613ca2565b600054604051638da5cb5b60e01b815290602090829060049082906001600160a01b03165afa801561061757612a9391600091612b4557506001600160a01b03163314614736565b6000805160206157b1833981519152549060ff821615612b345760009160ff19166000805160206157b1833981519152557f5db9ee0a495bf2e6ff9c91a7834c1ba4fdd244a5e8aa4e537bd38aeae4b073aa6020604051338152a160008051602061577183398151915260606040519260208452601160208501527018dbdb9d1c9858dd08155b9c185d5cd959607a1b604085015260018060a01b031692a3005b638dfc202b60e01b60005260046000fd5b612b5e915060203d602011610610576106028183613d59565b83611a4f565b3461000e57600036600319011261000e576020600a54604051908152f35b3461000e57600036600319011261000e577f00000000000000000000000000000000000000000000000000000000000000006001600160a01b03163003612bdb5760206040516000805160206157918339815191528152f35b63703e46dd60e11b60005260046000fd5b3461000e57602036600319011261000e57612c05613ca2565b612c0d614c21565b600054604051633f784de560e11b8152336004820152906001600160a01b0316602082602481845afa90811561061757612c54602092600494600091612d21575015613fa8565b604051638da5cb5b60e01b815292839182905afa801561061757612c8b91600091612d0257506001600160a01b0316331415614001565b612c93614c5d565b6001600160a01b0316600081815260056020908152604082208054908390557f7fcf532c15f0a6db0bd6d0e038bea71d30d808c7d98cb3bf7268a95bf5081b6592612ce79080808085895af16115636146c8565b604051908152a260016000805160206157d183398151915255005b612d1b915060203d602011610610576106028183613d59565b836102f0565b612d389150843d86116106495761063b8183613d59565b866102c3565b3461000e57602036600319011261000e5760043560005260046020526040600020612d6881613e24565b9060018060a01b0360018201541690612d8360028201613e24565b612dbe600383015493600460ff861694015492612dab6040519760c0895260c0890190613d07565b9160208801528682036040880152613d07565b916004811015610a9657849360ff91606086015260081c16608084015260a08301520390f35b604036600319011261000e57612df8613ca2565b6024356001600160401b03811161000e573660238201121561000e57612e28903690602481600401359101613d95565b6001600160a01b037f000000000000000000000000000000000000000000000000000000000000000016308114908115612ff5575b50612bdb57600054604051638da5cb5b60e01b815290602090829060049082906001600160a01b03165afa801561061757612eaa91600091611acd57506001600160a01b03163314614736565b612eb2614c5d565b6040516352d1902d60e01b81526001600160a01b0383169290602081600481875afa60009181612fc1575b50612ef75783634c9c8ce360e01b60005260045260246000fd5b80600080516020615791833981519152859203612fad5750813b15612f995760008051602061579183398151915280546001600160a01b031916821790557fbc7cd75a20ee27fd9adebab32041f755214dbc6bffa90cc0225b39da2e5c2d3b600080a2815115612f7f5760008083602061274595519101845af4612f796146c8565b9161570f565b505034612f8857005b63b398979f60e01b60005260046000fd5b634c9c8ce360e01b60005260045260246000fd5b632a87526960e21b60005260045260246000fd5b9091506020813d602011612fed575b81612fdd60209383613d59565b8101031261000e57519085612edd565b3d9150612fd0565b600080516020615791833981519152546001600160a01b03161415905083612e5d565b3461000e57602036600319011261000e576020610b16600435614688565b60a036600319011261000e576004356001600160401b03811161000e57613061903690600401613dcc565b6024356001600160401b03811161000e57613080903690600401613dcc565b6044359063ffffffff82169283830361000e576064359160ff831680840361000e57608435946001600160a01b038616860361000e576130be614c5d565b33600052600260205260ff6004604060002001541615611ceb576130e0614c21565b600054604051633f784de560e11b815233600482015291906001600160a01b0316602083602481845afa90811561061757613128602092600495600091613668575015613fa8565b604051638da5cb5b60e01b815293849182905afa9081156106175761316588926131879460009161364957506001600160a01b0316331415614001565b61317033151561403f565b61317b600854614679565b9687600855349161509b565b956040519261024084018481106001600160401b0382111761054d576040528584526020840197600189526006811015610a9657604085015260018060a01b0387166060850152600060808501528460a085015260c08401523460e0840152610100830152600061012083015242610140830152600061016083015260006101808301526101a082015260006101c082015260006101e0820152600061020082015260016102208201528260005260066020526040600020948151865551946007861015610a965760009560ff8019600184015416911617600182015560408201516006811015613635576001820180546060850151610100600160b01b031990911660089390931b61ff00169290921760109290921b62010000600160b01b031691909117905560808201516002820180546001600160a01b0319166001600160a01b039290921691909117905560a08201518051906001600160401b0382116135ad57613306826132fd6003860154613dea565b60038601614119565b602090601f83116001146135cc5761333592918991836135c15750508160011b916000199060031b1c19161790565b60038201555b60c08201518051906001600160401b0382116135ad5761336b826133626004860154613dea565b60048601614119565b60209088601f841160011461351457936133c8846134e3979561022095600b957f9dda774dc9cd26aa151d38f0382b90219cad43a5beafe7761bf9ace382799cb39b99926113ee5750508160011b916000199060031b1c19161790565b60048201555b60e084015160058201556006810163ffffffff6101008601511663ffffffff19825416179055610120840151600782015561014084015160088201556101608401516009820155610180840151600a820155019160ff6101a08201511660ff198454161783556134586101c08201511515849061ff00825491151560081b169061ff001916179055565b6101e0810151835462ff0000191690151560101b62ff0000161783556102008101518354929091015164ffff0000001990921690151560181b63ff0000001617901515602090811b64ff0000000016919091179091556001600160a01b0386168752600290526040862080546134cd90614679565b9055604051918291606083526060830190613d07565b346020830152604082018790526001600160a01b03909516940390a360016000805160206157d18339815191525580f35b509060048401895280892091895b601f198516811061359557509360018461022094600b947f9dda774dc9cd26aa151d38f0382b90219cad43a5beafe7761bf9ace382799cb39a986134e39a98601f1981161061357c575b505050811b0160048201556133ce565b015160001960f88460031b161c191690558c808061356c565b91926020600181928685015181550194019201613522565b634e487b7160e01b88526041600452602488fd5b01519050898061046a565b6003840189528189209190601f1984168a5b81811061361d5750908460019594939210613604575b505050811b01600382015561333b565b015160001960f88460031b161c191690558880806135f4565b929360206001819287860151815501950193016135de565b634e487b7160e01b87526021600452602487fd5b613662915060203d602011610610576106028183613d59565b8b6102f0565b61367f9150843d86116106495761063b8183613d59565b8c6102c3565b3461000e57604036600319011261000e5761369e613cb8565b6136a6614c21565b33600052600260205260ff6004604060002001541615611ceb576136cc90600435614506565b60016000805160206157d183398151915255005b3461000e57602036600319011261000e5760043580600052600660205260ff600b6040600020015460201c1615610abd57613719614c5d565b60005260066020526020610b16604060002063ffffffff6006820154169060ff600b820154166005820154916001808060a01b0391015460101c1692614a5b565b3461000e57602036600319011261000e5760043560005260076020526020604060002054604051908152f35b3461000e57606036600319011261000e576024356001600160401b03811161000e576137b9612745913690600401613d2c565b6137c1614c5d565b6044359160043561417e565b3461000e57602036600319011261000e576137e6613ca2565b33600052600260205260ff6004604060002001541615611ceb57600054604051633f784de560e11b8152336004820152906001600160a01b0316602082602481845afa90811561061757613847602092600494600091612d21575015613fa8565b604051638da5cb5b60e01b815292839182905afa80156106175761387e91600091612d0257506001600160a01b0316331415614001565b61388933151561403f565b6001600160a01b0316600081815260026020526040908190209051906101008201906001600160401b0382118383101761054d5783926001600160801b036139b3927f9e5018ee7d6d2d38c3282ec3d1bfeadd0d8129dce80e06a127569ad99565fc7f9460405280548352600181015460208401526002810154604084015260e06003820154938385166060820152608081019460801c855260ff600484015416151560a0820152613950600661394260058601613e24565b9460c0840195865201613e24565b9182910152604051613983602082816139728183019687815193849201613ce4565b81010301601f198101835282613d59565b5190206000526003602052604060002060ff19815416905551915116604051928392604084526040840190613d07565b9060208301520390a26000526002602052613a006006604060002060008155600060018201556000600282015560006003820155600060048201556139fa600582016140a2565b016140a2565b611b5c6040805190613a128183613d59565b601782527f556e7265676973746572205375636365737366756c6c79000000000000000000602083015251918291602083526020830190613d07565b3461000e57600036600319011261000e576000546040516001600160a01b039091168152602090f35b3461000e57602036600319011261000e5760043580600052600660205260ff600b6040600020015460201c1615610abd5760008181526006602052604090206001015460101c6001600160a01b03163303611061576136cc90613ad8614c21565b613ae0614c5d565b614cc6565b602036600319011261000e5760043580600052600660205260ff600b6040600020015460201c1615610abd5760008181526006602052604090206001015460101c6001600160a01b0316330361106157613b3d614c21565b613b45614c5d565b80600052600660205260406000206001810190815460ff81166007811015610a9657600103610a8557613b9e63ffffffff600684015416600b84019260ff84541660058601549160018060a01b039060101c1692614a5b565b3403613c915760015460405162d1e93b60e31b81529390602090859060049082906001600160a01b03165afa93841561061757613bf36001600160401b03613c2696606493600091613c62575b501634613f63565b04926009613c018534613f76565b910155805460ff19166002179055805462ff0000191662010000179055600954613f83565b6009557f96de4d43d5265ced55b252018f405ed224e0ed3f7c992a8d0115626700feda3e600080a260016000805160206157d183398151915255005b613c84915060203d602011613c8a575b613c7c8183613d59565b810190614c87565b89613beb565b503d613c72565b634581e82760e01b60005260046000fd5b600435906001600160a01b038216820361000e57565b602435906001600160a01b038216820361000e57565b606435906001600160a01b038216820361000e57565b60005b838110613cf75750506000910152565b8181015183820152602001613ce7565b90602091613d2081518092818552858086019101613ce4565b601f01601f1916010190565b9181601f8401121561000e578235916001600160401b03831161000e576020838186019501011161000e57565b90601f801991011681019081106001600160401b0382111761054d57604052565b6001600160401b03811161054d57601f01601f191660200190565b929192613da182613d7a565b91613daf6040519384613d59565b82948184528183011161000e578281602093846000960137010152565b9080601f8301121561000e57816020613de793359101613d95565b90565b90600182811c92168015613e1a575b6020831014613e0457565b634e487b7160e01b600052602260045260246000fd5b91607f1691613df9565b9060405191826000825492613e3884613dea565b8084529360018116908115613ea65750600114613e5f575b50613e5d92500383613d59565b565b90506000929192526020600020906000915b818310613e8a575050906020613e5d9282010138613e50565b6020919350806001915483858901015201910190918492613e71565b905060209250613e5d94915060ff191682840152151560051b82010138613e50565b90608060031983011261000e57600435916024356001600160401b03811161000e5781613ef791600401613d2c565b92909291604435906001600160401b03821161000e57613f1991600401613d2c565b90916064356001600160a01b038116810361000e5790565b8054821015613f4d576000526003602060002091020190600090565b634e487b7160e01b600052603260045260246000fd5b818102929181159184041417156123fc57565b919082039182116123fc57565b919082018092116123fc57565b9081602091031261000e5751801515810361000e5790565b15613faf57565b60405162461bcd60e51b815260206004820152600b60248201526a497320656d706c6f79656560a81b6044820152606490fd5b9081602091031261000e57516001600160a01b038116810361000e5790565b1561400857565b60405162461bcd60e51b815260206004820152600f60248201526e21b0b63632b91034b99037bbb732b960891b6044820152606490fd5b1561404657565b60405162461bcd60e51b815260206004820152601d60248201527f63616c6c65722069732063616e74206265207a65726f206164647220210000006044820152606490fd5b818110614096575050565b6000815560010161408b565b6140ac8154613dea565b90816140b6575050565b81601f600093116001146140c8575055565b818352602083206140e491601f0160051c81019060010161408b565b8082528160208120915555565b90601f81116140fe575050565b613e5d91600052601f6020600020910160051c81019061408b565b9190601f811161412857505050565b613e5d926000526020600020906020601f840160051c83019310614154575b601f0160051c019061408b565b9091508190614147565b906001600160801b03809116911603906001600160801b0382116123fc57565b92919091836000526006602052604060002092846000526004602052604060002092600384019360ff8554166004811015610a9657600103610a8557610e10840293808504610e1014901517156123fc57845460ff19166002908117865501916001600160401b03821161054d576141fa826112c68554613dea565b600090601f83116001146144a25761422a9291600091836104bc5750508160011b916000199060031b1c19161790565b90555b60ff825460081c169060ff82146123fc5761425f60016142659301849061ff0082549160081b169061ff001916179055565b42613f83565b9160078101928355815460ff600b8301541660ff8260081c161161447157509160ff60409260018560027f33edbe073d61cf304f0e11256ba07aefb7e60a754d1e12a0f07e5b29cb3d73219701828060a01b03815416806000526002602052856004896000200154166143c4575b505001805460101c6001600160a01b031660008181526002602052869020600401548416614312575b50505460081c16905482519182526020820152a2565b8060005260026020526001600160801b036003876000200154166001600160401b0361433c61504a565b16111561437757505460101c6001600160a01b03166000908152600260205284902060030180546001600160801b03191690555b38806142fc565b90506001600160401b0361438961504a565b169060005260026020526001600160801b036143af60038760002001928284541661415e565b166001600160801b0319825416179055614370565b8060005260026020526001600160801b036003896000200154166001600160401b036143ee61504a565b1611156144245750828060a01b039054166000526002602052600386600020016001600160801b031981541690555b38806142d3565b90506001600160401b0361443661504a565b169060005260026020526001600160801b0361445c60038960002001928284541661415e565b166001600160801b031982541617905561441d565b60ff16925050506004811015610a96576001036144995763eff3ce5d60e01b60005260046000fd5b613e5d90614cc6565b8382526020822091601f198416815b8181106144ee57509084600195949392106144d4575b505050811b01905561422d565b0135600019600384901b60f8161c191690553880806144c7565b919360206001819287870135815501950192016144b1565b9081600052600760205260406000209160005b835481101561463f5761452c8185613f31565b50546001600160a01b038481169116811480614624575b80614608575b6145565750600101614519565b9391925060016145c382600261456e60009587613f31565b5001805461ff001916905560026145858287613f31565b5001805460ff19166004179055600261459e8287613f31565b5001805462ff0000191662010000179055826145ba8287613f31565b50015494613f31565b5001558260005260056020526145df6040600020918254613f83565b90557f7d8891f107b48a85b66c4f2654182303b5c3b3926287bae8e33ea57f91909a37600080a3565b5060ff60026146178488613f31565b50015460101c1615614549565b5060ff60026146338488613f31565b50015460081c16614543565b60405162461bcd60e51b81526020600482015260126024820152711b9bc81c195b991a5b99c81c995c5d595cdd60721b6044820152606490fd5b60001981146123fc5760010190565b80600052600660205260ff600b6040600020015460201c1615610abd57600052600660205260646146c4600560406000200154600a5490613f63565b0490565b3d156146f3573d906146d982613d7a565b916146e76040519384613d59565b82523d6000602084013e565b606090565b156146ff57565b60405162461bcd60e51b815260206004820152600f60248201526e1dda5d1a191c985dc819985a5b1959608a1b6044820152606490fd5b1561473d57565b60405162461bcd60e51b81526020600482015260096024820152682737ba1037bbb732b960b91b6044820152606490fd5b1561477557565b60405162461bcd60e51b81526020600482015260116024820152701c995c5d595cdd081b9bdd08199bdd5b99607a1b6044820152606490fd5b9391929084600052600660205260406000209085600052600460205260406000209460018060a01b03600187015416156149ee5760028301546001600160a01b03988916981688900361148c576003860192835460ff8116916004831015610a965760028303610a855760ff600b81920154169160081c16116149c9575060028601916001600160401b03821161054d5761484d826112c68554613dea565b600090601f83116001146149655761487d9291600091836104bc5750508160011b916000199060031b1c19161790565b90555b805460ff191660011790556001600160401b03821161054d576148a7826112c68554613dea565b600090601f8311600114614901576148d79291600091836104bc5750508160011b916000199060031b1c19161790565b90555b7fd91178918ec22e991ec5103aaa21661df1d5ddfeee4571007ad649225c0dad28600080a3565b8382526020822091601f198416815b81811061494d5750908460019594939210614933575b505050811b0190556148da565b0135600019600384901b60f8161c19169055388080614926565b91936020600181928787013581550195019201614910565b8382526020822091601f198416815b8181106149b15750908460019594939210614997575b505050811b019055614880565b0135600019600384901b60f8161c1916905538808061498a565b91936020600181928787013581550195019201614974565b955050505050506001919250146000146144995763eff3ce5d60e01b60005260046000fd5b631534b94560e21b60005260046000fd5b15614a0657565b60405162461bcd60e51b815260206004820152600c60248201526b4e6f7420656d706c6f79656560a01b6044820152606490fd5b908060209392818452848401376000828201840152601f01601f1916010190565b90614a6793929161509b565b6006811015610a965780614add57506001546040516394fb86e560e01b815290602090829060049082906001600160a01b03165afa90811561061757600091614aae575090565b90506020813d602011614ad5575b81614ac960209383613d59565b8101031261000e575190565b3d9150614abc565b600060018203614b2157505060015460405163156bebd960e21b815290602090829060049082906001600160a01b03165afa90811561061757600091614aae575090565b5060028103614b6357506001546040516312c23eb160e01b815290602090829060049082906001600160a01b03165afa90811561061757600091614aae575090565b60009060038103614ba7575050600154604051628f2c6560e71b815290602090829060049082906001600160a01b03165afa90811561061757600091614aae575090565b600414159050614be95760015460405163ca218d7d60e01b815290602090829060049082906001600160a01b03165afa90811561061757600091614aae575090565b6001546040516325ac29e160e01b815290602090829060049082906001600160a01b03165afa90811561061757600091614aae575090565b60026000805160206157d18339815191525414614c4c5760026000805160206157d183398151915255565b633ee5aeb560e01b60005260046000fd5b60ff6000805160206157b18339815191525416614c7657565b63d93c066560e01b60005260046000fd5b9081602091031261000e57516001600160401b038116810361000e5790565b906001600160801b03809116911601906001600160801b0382116123fc57565b806000526006602052604060002081600052600460205260406000206001820160ff8154166007811015610a9657600403610a8557600382019260ff8454166004811015610a965760010361503957600b810191600160ff845460181c16151514615028576001840180549093906001600160a01b0316156149ee57614d556005840154600a85015490613f83565b926002600982015491019360018060a01b038554166000526005602052614d826040600020918254613f83565b905560018060a01b03835460101c166000526005602052614da96040600020918254613f83565b9055805463ffffff0019166301000000179055805460ff1916600517815581546001600160a01b031660008181526002602052604090206004015460ff16614f8f575b50805460101c6001600160a01b031660008181526002602052604090206004015460ff16614edf575b5091600094916004949360018060a01b03905460101c168652600260205260016040872001614e448154614679565b9055546001600160a01b031685526002602052604085206001018054614e6990614679565b9055614e7e614e788454613dea565b846140f1565b8483556001600160601b0360a01b81541690558360028301614ea9614ea38254613dea565b826140f1565b55805461ffff1916600317905501557f3e9d27a1c2a828db29e4b2a17fbd1bc70201ef21aec4f74b9fa051b02e38e3f0600080a2565b94916004949391602060018060a01b03600154166040519788809263b30e0be360e01b82525afa8015610617576000976004978992614f5e575b50885260026020526001600160801b03614f4363ffffffff600360408c2001931682845416614ca6565b166001600160801b0319825416179055919394509194614e15565b614f8191925060203d602011614f88575b614f798183613d59565b8101906155d3565b9038614f19565b503d614f6f565b60015460405163c7d3f62f60e01b81529190602090839060049082906001600160a01b03165afa91821561061757600092615007575b5060005260026020526001600160801b03614ff163ffffffff6003604060002001931682845416614ca6565b166001600160801b031982541617905538614dec565b61502191925060203d602011614f8857614f798183613d59565b9038614fc5565b637dbbaaa960e01b60005260046000fd5b632901198f60e01b60005260046000fd5b600154604051637221ba7960e11b815290602090829060049082906001600160a01b03165afa90811561061757600091615082575090565b613de7915060203d602011613c8a57613c7c8183613d59565b60015460405163a0d0124560e01b81526001600160a01b039091169493919291602082600481895afa908115610617576150f2926000926154a5575b50670de0b6b3a76400006001600160401b0391049116613f63565b604051630963d67f60e21b815291602083600481895afa9283156106175761513a936001600160401b039261513392600092615481575b5060ff1690615678565b1690613f83565b60405163c6de983960e01b81529092602082600481885afa9182156106175760009261544a575b506001600160801b0361517b6001600160401b03926156c9565b16911602906001600160801b0382169182036123fc5760405163778162d760e11b815291602083600481885afa918215610617576151dd6151e4936001600160401b03926001600160801b0396600092615423575b5063ffffffff1690615678565b1690614ca6565b1680821161541557505060005b670de0b6b3a7640000810290808204670de0b6b3a764000014901517156123fc576064900460405163a376ff7d60e01b8152602081600481865afa908115610617576000916153e3575b508111615249575050600090565b6040516370ffe5a360e11b8152602081600481865afa908115610617576000916153b1575b50811161527c575050600190565b6040516399206b0b60e01b8152602081600481865afa9081156106175760009161537f575b5081116152af575050600290565b6040516384afa48b60e01b8152602081600481865afa9081156106175760009161534d575b5081116152e2575050600390565b60206004926040519384809263813b79c160e01b82525afa91821561061757600092615319575b501161531457600490565b600590565b9091506020813d602011615345575b8161533560209383613d59565b8101031261000e57519038615309565b3d9150615328565b90506020813d602011615377575b8161536860209383613d59565b8101031261000e5751386152d4565b3d915061535b565b90506020813d6020116153a9575b8161539a60209383613d59565b8101031261000e5751386152a1565b3d915061538d565b90506020813d6020116153db575b816153cc60209383613d59565b8101031261000e57513861526e565b3d91506153bf565b90506020813d60201161540d575b816153fe60209383613d59565b8101031261000e57513861523b565b3d91506153f1565b61541e91613f76565b6151f1565b63ffffffff9192506154439060203d602011613c8a57613c7c8183613d59565b91906151d0565b6001600160401b0391925061517b6154786001600160801b039260203d602011613c8a57613c7c8183613d59565b93925050615161565b60ff91925061549e9060203d602011613c8a57613c7c8183613d59565b9190615129565b6001600160401b039192506154d1670de0b6b3a76400009160203d602011613c8a57613c7c8183613d59565b9291506150d7565b6001600160a01b0316156154e957565b60405162461bcd60e51b815260206004820152602760248201527f416363657373436f6e74726f6c3a207a65726f2061646472657373206e6f7420604482015266185b1b1bddd95960ca1b6064820152608490fd5b600154604051630b7dadff60e01b815290602090829060049082906001600160a01b03165afa90811561061757600091615082575090565b6001600160401b0361558661553e565b166064036001600160401b0381116123fc5790565b60015460405163cf95838b60e01b815290602090829060049082906001600160a01b03165afa90811561061757600091615082575090565b9081602091031261000e575163ffffffff8116810361000e5790565b600154604051630d164b1d60e41b815290602090829060049082906001600160a01b03165afa90811561061757600091615627575090565b613de7915060203d602011614f8857614f798183613d59565b600154604051633b8664cd60e11b815290602090829060049082906001600160a01b03165afa90811561061757600091615627575090565b906001600160401b03809116911602906001600160401b0382169182036123fc57565b60ff6000805160206157f18339815191525460401c16156156b857565b631afcd79f60e31b60005260046000fd5b6001600160a01b031660008181526002602052604090206004015460ff16156157095760005260026020526001600160801b036003604060002001541690565b50600090565b90615735575080511561572457602081519101fd5b63d6bda27560e01b60005260046000fd5b81511580615767575b615746575090565b639996b31560e01b60009081526001600160a01b0391909116600452602490fd5b50803b1561573e56fe1bce747d41af8244f3246272f08510707b11c277f47de91efab942bd3802c940360894a13ba1a3210667c828492db98dca3e2076cc3735a920a3ca505d382bbccd5ed15c6e187e77e9aee88184c21f4f2182ab5827cb3b7e07fbedcd63f033009b779b17422d0df92223018b32b4d1fa46e071723d6817e2486d003becc55f00f0c57e16840df040f15088dc2f81fe391c3923bec73e23a9662efc9c229c6a00a2646970667358221220fcfb2b3db7ea20cd49e991bd15d23b9ae7e7720fd4fcda950d7212b1cb3df31b64736f6c634300081c0033",
  "linkReferences": {},
  "deployedLinkReferences": {}
}